:100000000C9479000C9498000C9498000C9498002F
:100010000C9498000C9498000C9498000C94980000
:100020000C9498000C9498000C9498000C949800F0
:100030000C94B92B0C9498000C9498000C94980094
:100040000C9498000C9498000C9498000C949800D0
:100050000C9498000C9498000C9498000C949800C0
:100060000C9498000C9498000C9498000C949800B0
:100070000C9498000C9498000C9498000C949800A0
:100080000C9498000C9498000C9498000C944B2CB1
:100090000C949800EF0EF40E000F050F0A0F0F0FCF
:1000A000140F1C0F240F2C0F340F3C0F541057103B
:1000B0005A105D1060106310661069106C106F109C
:1000C00072107510C211CF11DC110E121B12281202
:1000D000351242124F125C1269127612122D842DC3
:1000E000FC2D5E2E8E2EC62E022F842F0E309C30BD
:1000F000EE3011241FBECFEFD0E1DEBFCDBF13E045
:10010000A0E0B1E0E4EBF1E700E00BBF02C0079034
:100110000D92A63EB107D9F72FE0A6EEB3E001C0DD
:100120001D92A93CB207E1F70E949C320C94D8388A
:100130000C94E62BCF93DF9300D000D0CDB7DEB781
:100140001B821C8281E789831A8240E050E0BA0159
:1001500082EC9FE00E94992662E0CE0101960E9407
:10016000052C62E0CE0103960E94342C82EC9FE0C5
:100170000E9435278C8180FF03C010925F0F03C05F
:1001800091E090935F0F83FF03C01092030F03C0B1
:1001900081E08093030F0F900F900F900F90DF91ED
:1001A000CF9108951F93CF93DF9300D000D000D05C
:1001B000CDB7DEB710E9198381E08A8382E88B83AB
:1001C00083E88C8340E050E0BA0182EC9FE00E941B
:1001D000992664E0CE0101960E94052C1D831E82A3
:1001E00062E0CE0105960E94052C82EC9FE00E9401
:1001F000352726960FB6F894DEBF0FBECDBFDF9130
:10020000CF911F9108951F93CF93DF9300D000D01B
:1002100000D0CDB7DEB718E819831A8285E48B8346
:1002200087E28C8340E050E0BA0182EC9FE00E94BC
:10023000992664E0CE0101960E94052C1D8381E081
:100240008E831092260E1092250E62E0CE01059646
:100250000E94052C82EC9FE00E94352726960FB65F
:10026000F894DEBF0FBECDBFDF91CF911F910895EF
:10027000CF93DF9300D0CDB7DEB788E8898381E0E4
:100280008A8340E050E0BA0182EC9FE00E94992608
:1002900062E0CE0101960E94052C82EC9FE00E9454
:1002A00035270F900F90DF91CF9108951F93CF9333
:1002B000DF9300D000D000D0CDB7DEB70E94380168
:1002C00019E81C831D821E8240E050E0BA0182ECD6
:1002D0009FE00E94992663E0CE0104960E94052CBF
:1002E00019831A821B8263E0CE0101960E94342C8E
:1002F00082EC9FE00E9435278A8190E0982F882722
:100300002B81820F911D26960FB6F894DEBF0FBE8B
:10031000CDBFDF91CF911F910895CF93DF9300D090
:10032000CDB7DEB788E8898382E08A8340E050E079
:10033000BA0182EC9FE00E94992662E0CE0101960C
:100340000E94052C82EC9FE00E9435270F900F90B1
:10035000DF91CF9108951F93CF93DF9300D000D00A
:1003600000D0CDB7DEB70E948D0119E81C831D8235
:100370001E8240E050E0BA0182EC9FE00E94992684
:1003800063E0CE0104960E94052C19831A821B8219
:1003900063E0CE0101960E94342C82EC9FE00E9423
:1003A00035278A8190E0982F88272B81820F911D15
:1003B00026960FB6F894DEBF0FBECDBFDF91CF916A
:1003C0001F9108951F93CF93DF9300D000D000D0EA
:1003D000CDB7DEB711E91C831D821E8240E050E0DC
:1003E000BA0182EC9FE00E94992663E0CE01049658
:1003F0000E94052C19831A821B8263E0CE010196AC
:100400000E94342C82EC9FE00E9435278A8190E084
:10041000982F88272B81820F911D26960FB6F8946E
:10042000DEBF0FBECDBFDF91CF911F910895CF9357
:10043000DF9300D0CDB7DEB780E789838BEF8A8367
:1004400040E050E0BA0182EC9FE00E94992662E011
:10045000CE0101960E94052C82EC9FE00E94352778
:100460000F900F90DF91CF910895CF93DF9300D03D
:10047000CDB7DEB780E789838FEF8A8340E050E015
:10048000BA0182EC9FE00E94992662E0CE010196BB
:100490000E94052C82EC9FE00E9435270F900F9060
:1004A000DF91CF910895FF920F931F93CF93DF9326
:1004B00000D000D01F92CDB7DEB7082FF62E142F34
:1004C00040E050E0BA0182EC9FE00E94992680E46F
:1004D00089836F2D6C60412F50E0440F551F802F92
:1004E000807F842B862B8A8328E02B83462B30E168
:1004F000039FC0011124482B4C832D8365E0CE015E
:1005000001960E94052C82EC9FE00E9435270F90F7
:100510000F900F900F900F90DF91CF911F910F913F
:10052000FF90089540E060E088E20E94530240E0BE
:1005300060E08EE00E94530240E060E086E00C94B0
:1005400053020F931F93CF93DF9300D000D0CDB70A
:10055000DEB700E40B8318E01C8340E050E0BA01F2
:1005600082EC9FE00E94992662E0CE0103960E94F1
:10057000052C68E270E080E090E00E944928098341
:100580008CE28A8362E0CE0101960E94052C1A83D8
:1005900062E0CE0101960E94052C82EC9FE00E9451
:1005A00035270E9492020F900F900F900F90DF91CD
:1005B000CF911F910F910895CF93DF9300D0CDB7C6
:1005C000DEB78091750E882369F040E060E088E036
:1005D0000E94530280E489831A8262E0CE01019670
:1005E0000E94052C1092750E0F900F90DF91CF9105
:1005F00008950F931F93CF93DF93162F082FEC01CD
:100600008C2F801B811730F440E061E089910E94BB
:100610005302F6CFDF91CF911F910F910895CF93A1
:10062000DF9300D0CDB7DEB7880F89831A8240E010
:1006300050E0BA0182EC9FE00E94992662E0CE0170
:1006400001960E94052C82EC9FE00E9435270F90B6
:100650000F90DF91CF910895CF93DF9300D0CDB766
:10066000DEB7880F898381E08A8340E050E0BA01D9
:1006700082EC9FE00E94992662E0CE0101960E94E2
:10068000052C82EC9FE00E9435270F900F90DF91A0
:10069000CF9108950F931F93CF93DF9300D000D095
:1006A00000D0CDB7DEB7982F990F9C8390E39D8340
:1006B00093E09E83880F816089831A821B8240E0C9
:1006C00050E0BA0182EC9FE00E94992663E0CE01DF
:1006D00004960E94052C63E0CE0101960E94052C31
:1006E00063E0CE0101960E94342C1A810B8182ECCA
:1006F0009FE00E943527812F90E0902B26960FB621
:10070000F894DEBF0FBECDBFDF91CF911F910F9147
:100710000895CF931092590F40E050E0BA0182EC57
:100720009FE00E949926C1E080E98C0F8230A8F0FA
:100730008C2F0E944A03853A954A79F48091590F8B
:10074000803158F4E091590FF0E0EB5EF14FC08337
:100750008091590F8F5F8093590FCF5FC03821F779
:1007600082EC9FE0CF910C9435270F931F93CF938A
:10077000DF93CDB7DEB728970FB6F894DEBF0FBE74
:10078000CDBF182F880F8E8380E38F831886812F2B
:10079000880F816089831A821B821C821D8240E03F
:1007A00050E0BA0182EC9FE00E94992663E0CE01FE
:1007B00006960E94052C65E0CE0101960E94052C4C
:1007C00065E0CE0101960E94342C05E0812F0E9445
:1007D0004A03853A954A61F42C8130E0322F222772
:1007E0008D81280F311D3093D20D2093D10D02C081
:1007F000015061F705E0812F0E944A03853A954A2E
:1008000061F48A8190E0982F88272B81820F911DB7
:100810009093130E8093120E02C0015061F782EC88
:100820009FE00E9435276091120E7091130E809107
:10083000D10D9091D20D28960FB6F894DEBF0FBE61
:10084000CDBFDF91CF911F910F910895EF92FF924D
:100850000F931F93CF93DF93CDB7DEB728970FB6D3
:10086000F894DEBF0FBECDBF982F990F9E8390E303
:100870009F8392E09887880F816089831A821B8208
:100880001C821D8240E050E0BA0182EC9FE00E9491
:10089000992663E0CE0106960E94052C65E0CE0104
:1008A00001960E94052C65E0CE0101960E94342C31
:1008B0000C8110E0102F00278D81082BEA80F12C8D
:1008C000FE2CEE248B81E82A82EC9FE00E943527E3
:1008D000B701C80128960FB6F894DEBF0FBECDBF92
:1008E000DF91CF911F910F91FF90EF9008950F939B
:1008F0001F93CF93DF93CDB7DEB72A970FB6F89447
:10090000DEBF0FBECDBF982F990F9E8390E39F83CC
:1009100091E09887880F816089831A821B821C82EC
:100920001D8240E050E0BA0182EC9FE00E949926CF
:1009300063E0CE0106960E94052C65E0CE0101968B
:100940000E94052C65E0CE0101960E94342C1D8189
:100950000C817B816A8182EC9FE06A8779870E94A3
:1009600035276A857985C8012A960FB6F894DEBFC7
:100970000FBECDBFDF91CF911F910F9108951F93AF
:10098000CF93DF9310E0C12F012E000CDD0B80917F
:10099000590F90E0C817D907CCF4FE01EB5EF14F78
:1009A00080810E947704FE01EE0FFF1FEE0FFF1FF4
:1009B000E655F14F608371838283938361E070E039
:1009C00080E090E00E9449281F5FDDCFDF91CF914A
:1009D0001F91089582EC9FE00E9447260E94F02B11
:1009E00040E050E0BA0182EC9FE00E9499260E940C
:1009F00089030E94350264E670E080E090E00E9486
:100A000049280E94BF0482EC9FE00C94352740E007
:100A100060E080E80E9453020E94920264E18EE549
:100A20009EE00E94F90264E18AEE9EE00E94F902D3
:100A300064E18BED9DE00E94F90264E180EA9FE0B1
:100A40000C94F90284E1E8E8F1E0AFE8BEE001903F
:100A50000D928A95E1F784E1E8E8F1E0ADE0BFE0CE
:100A600001900D928A95E1F784E1E8E8F1E0A0E4D5
:100A7000BFE001900D928A95E1F784E1E8E8F1E0AA
:100A8000A4E2BFE001900D928A95E1F708954F929C
:100A90005F926F927F928F929F92AF92BF92CF920E
:100AA000DF92EF92FF921F93CF93DF93CDB7DEB724
:100AB0002C970FB6F894DEBF0FBECDBF0E94220563
:100AC00086E0EFEBF1E0AFE8BEE001900D928A9591
:100AD000E1F783E59FE4A3E4BAE380939B0E909350
:100AE0009C0EA0939D0EB0939E0E85E28093A20E65
:100AF00086E59AE390930E0F80930D0F81E49AE3BD
:100B00009093150F8093140F86E0E6ECF1E0A0E4DB
:100B1000BFE001900D928A95E1F780912D0E882318
:100B200019F083E49CE402C08FE490E59093470FB2
:100B30008093460F86E0EDECF1E0A9E4BFE0019080
:100B40000D928A95E1F7139B03C08FE490E502C0F4
:100B500083E49CE49093500F80934F0F87E59EE3CE
:100B60009093250F8093240F80914E0E90914F0EFD
:100B70008230910589F038F40097E1F00197E9F4AB
:100B800062EA71E01CC08430910561F040F0069784
:100B9000A1F46BEB71E013C067EA71E010C06DEA7D
:100BA00071E00DC08091A60E805D8093990E62EB7E
:100BB00071E005C066EB71E002C06DE971E0FB0118
:100BC00001900020E9F73197AF01461B570B85E9EB
:100BD0009EE00E94AE3586E78093260F82E38093E5
:100BE000270F4EE24093280F8093290F87E38093CD
:100BF0002A0F8091DA0D24E6622F0E94CA32805DAE
:100C000080939F0E8091DA0D0E94CA32892F2AE0CC
:100C1000622F0E94CA32805D8093A00E8091DA0D0F
:100C20000E94CA32905D9093A10E8091380F9091EE
:100C3000390F64E670E00E94F832605D60930F0F38
:100C40008091380F9091390F2AE030E0B9010E946D
:100C5000F832CB01B9010E94F832805D8093100F09
:100C60004093110F8091380F9091390FB9010E9474
:100C7000F832805D8093120F4090270E5090280E1E
:100C80006090290E70902A0E6091270E7091280EA8
:100C90008091290E90912A0E0E948C3420E030E041
:100CA000A9010E94DD3387FF0CC08DE28093160FEF
:100CB000C301B2010E948C3490580E9454342B011D
:100CC0003C01C301B20120EA36E841E050E00E9455
:100CD0002E338AE0C82ED12CE12CF12CCA01B901A7
:100CE000A70196010E942E33605D6093170FC30128
:100CF000B20120E137E240E050E00E942E33CA0109
:100D0000B901A70196010E942E33605D6093180F10
:100D1000C301B20128EE33E040E050E00E942E33E0
:100D2000CA01B901A70196010E942E33605D60934C
:100D3000190F8EE280931A0F94E6892E912CA12C24
:100D4000B12CC301B201A50194010E942E33CA0146
:100D5000B901A70196010E942E33605D60931B0FBD
:100D6000C301B201A70196010E942E33162FCA01BA
:100D7000B901A70196010E942E33605D60931C0F9C
:100D800080E3810F80931D0F0E94E227A50194014B
:100D90000E940C336CE3462E512C612C712CCA013D
:100DA000B901A30192010E940C3369837A838B837A
:100DB0009C83CA01B901A30192010E940C336D8387
:100DC0007E838F839887CA01B90128E130E040E033
:100DD00050E00E940C3329013A0169877A878B879A
:100DE0009C8769817A818B819C81A70196010E94F1
:100DF0000C3380E3860F8093370FCA01B901A70136
:100E000096010E940C33605D6093360F1AE31093D5
:100E1000350F6D817E818F819885A70196010E9493
:100E20000C3380E3860F8093340FCA01B901A70108
:100E300096010E940C33605D6093330F1093320F64
:100E400069857A858B859C85A70196010E940C3364
:100E500080E3860F8093310FCA01B901A701960183
:100E60000E940C33605D6093300F10932F0FC3010D
:100E7000B201A70196010E940C3380E3860F809394
:100E80002E0FCA01B901A70196010E940C33605DC3
:100E900060932D0FC301B201A50194010E940C3390
:100EA000CA01B901A70196010E940C33605D6093ED
:100EB0002C0F84E1EFE8FEE0AEE5BEE001900D927C
:100EC0008A95E1F784E1EDE0FFE0AAEEBEE0019053
:100ED0000D928A95E1F784E1E0E4FFE0ABEDBDE03F
:100EE00001900D928A95E1F784E1E4E2FFE0A0EA47
:100EF000BFE001900D928A95E1F72C960FB6F89419
:100F0000DEBF0FBECDBFDF91CF911F91FF90EF905D
:100F1000DF90CF90BF90AF909F908F907F906F9019
:100F20005F904F9008956F927F928F929F92AF92B1
:100F3000BF92CF92DF92EF92FF920F931F93CF93C6
:100F4000DF931F92CDB7DEB789830E94220520E38D
:100F50003AE33093950E2093940E898181113FC11D
:100F600085E0E4EDF1E0AFE8BEE001900D928A95F6
:100F7000E1F78091610F9091620F48EE642E43E09B
:100F8000742EB3010E94E432605D6093960E8EE28F
:100F90008093970E8091610F9091620FB3010E9430
:100FA000E43204E610E0B8010E94E432605D609330
:100FB000980E8091610F9091620FB3010E94E4320C
:100FC000B8010E94E4325AE0E52EF12CB7010E94EC
:100FD000E432605D6093990E8091650F9091660F89
:100FE0008090650F9090660FA090650FB090660F8F
:100FF000C090630FD090640FE091630FF091640F85
:101000002091630F3091640FB3010E94E432B80164
:101010000E94E432B7010E94E4327F936F93C401CF
:10102000B3010E94E432B8010E94E4327F936F93CF
:10103000C501B3010E94E4327F936F93C601B301EF
:101040000E94E432B8010E94E432B7010E94E43207
:101050007F936F93CF01B3010E94E432B8010E94E5
:10106000E4327F936F93C901B3010E94E4327F930E
:101070006F938AED91E09F938F9380E49FE09F931D
:101080008F930E94DC358091690F90916A0F809058
:10109000690F90906A0FA090690FB0906A0FC0908E
:1010A000670FD090680FE091670FF091680F209163
:1010B000670F3091680FB3010E94E432B8010E94BB
:1010C000E432B7010E94E4327F936F93C401B3010D
:1010D0000E94E432B8010E94E4327F936F93C5010D
:1010E000B3010E94E4327F936F93C601B3010E9463
:1010F000E432B8010E94E432B7010E94E4327F93E7
:101100006F93CF01B3010E94E432B8010E94E43230
:101110007F936F93C901B3010E94E4327F936F9371
:101120008EEE91E09F938F938DE09FE09F938F933E
:101130000E94DC3580916D0F90916E0F80906D0F45
:1011400090906E0FA0906D0FB0906E0FC0906B0FCF
:10115000D0906C0FE0916B0FF0916C0F20916B0FA2
:1011600030916C0F0FB6F894DEBF0FBECDBFB30148
:101170000E94E432B8010E94E432B7010E94E432D6
:101180007F936F93C401B3010E94E432B8010E94BF
:10119000E4327F936F93C501B3010E94E4327F93E1
:1011A0006F93C601B3010E94E432B8010E94E43299
:1011B000B7010E94E4327F936F93CF01B3010E9485
:1011C000E432B8010E94E4327F936F93C901B30106
:1011D0000E94E4327F936F9382E092E03EC184E507
:1011E00095E6ADE6B0E780938F0E9093900EA093B6
:1011F000910EB093920E8091310E9091320E28EEA6
:10120000622E23E0722EB3010E94E432605D60938F
:10121000960E8091310E9091320EB3010E94E4320D
:1012200004E610E0B8010E94E432605D6093970E1E
:101230008091310E9091320EB3010E94E432B801D8
:101240000E94E4323AE0E32EF12CB7010E94E4322E
:10125000605D6093980E8091350E9091360E80906F
:10126000350E9090360EA090350EB090360EC09090
:10127000330ED090340EE091330EF091340E209165
:10128000330E3091340EB3010E94E432B8010E9453
:10129000E432B7010E94E4327F936F93C401B3013B
:1012A0000E94E432B8010E94E4327F936F93C5013B
:1012B000B3010E94E4327F936F93C601B3010E9491
:1012C000E432B8010E94E432B7010E94E4327F9315
:1012D0006F93CF01B3010E94E432B8010E94E4325F
:1012E0007F936F93C901B3010E94E4327F936F93A0
:1012F00086E192E09F938F9380E49FE09F938F938A
:101300000E94DC358091390E90913A0E8090390E12
:1013100090903A0EA090390EB0903A0EC090370ED1
:10132000D090380EE091370EF091380E2091370EA4
:101330003091380EB3010E94E432B8010E94E432C9
:10134000B7010E94E4327F936F93C401B3010E94FE
:10135000E432B8010E94E4327F936F93C501B30178
:101360000E94E4327F936F93C601B3010E94E4327E
:10137000B8010E94E432B7010E94E4327F936F9378
:10138000CF01B3010E94E432B8010E94E4327F939E
:101390006F93C901B3010E94E4327F936F9388E297
:1013A00092E09F938F938DE09FE09F938F930E9495
:1013B000DC3580913D0E90913E0E80903D0E9090D8
:1013C0003E0EA0903D0EB0903E0EC0903B0ED090D1
:1013D0003C0EE0913B0EF0913C0E20913B0E309183
:1013E0003C0E0FB6F894DEBF0FBECDBFB3010E9416
:1013F000E432B8010E94E432B7010E94E4327F93E4
:101400006F93C401B3010E94E432B8010E94E43238
:101410007F936F93C501B3010E94E4327F936F9372
:10142000C601B3010E94E432B8010E94E432B70160
:101430000E94E4327F936F93CF01B3010E94E432A4
:10144000B8010E94E4327F936F93C901B3010E94F7
:10145000E4327F936F938AE392E09F938F9384E2C9
:101460009FE09F938F930E94DC350FB6F894DEBF08
:101470000FBECDBF84E1EFE8FEE0AEE5BEE0019037
:101480000D928A95E1F784E1EDE0FFE0AAEEBEE07F
:1014900001900D928A95E1F784E1E0E4FFE0ABED85
:1014A000BDE001900D928A95E1F784E1E4E2FFE06E
:1014B000A0EABFE001900D928A95E1F70F90DF91CD
:1014C000CF911F910F91FF90EF90DF90CF90BF9041
:1014D000AF909F908F907F906F900895BF92CF9222
:1014E000DF92EF92FF920F931F93CF93DF93C82F5A
:1014F0000E94220585E0ECE4F2E0AFE8BEE0019056
:101500000D928A95E1F785E0E2E5F2E0A9E9BEE017
:1015100001900D928A95E1F785E0E8E5F2E0ADE013
:10152000BFE001900D928A95E1F785E0EEE5F2E0EB
:10153000AAE4BFE001900D928A95E1F785E0E4E628
:10154000F2E0A0E4BFE001900D928A95E1F787E018
:10155000EAE6F2E0AAE4BFE001900D928A95E1F795
:1015600080E59FE2A3E48093240F9093250FA0933E
:10157000260F80E38C0F8093270F8FE293E4A1E482
:101580008093280F9093290FA0932A0F34E5E32E20
:101590003FE0F32E4DE7C42E4EE0D42ED601F701E6
:1015A00080E255E0B52EBE0C81938D93BE12FCCF28
:1015B000D0E08E01000F111FF801E857F04F808135
:1015C00091814AE064E57FE00E94B735F801E05B75
:1015D000F14F808191814AE06DE77EE00E94B7354E
:1015E00080E2F7019081911101C08083F601908122
:1015F000911101C08083FFEFEF1AFF0A9FEFC91A14
:10160000D90ABE10EECF8091540F8093120F8091B3
:10161000550F8093130F8091560F8093140F809174
:10162000570F8093150F8091580F8093160F80915C
:101630007D0E8093940E80917E0E8093950E809106
:101640007F0E8093960E8091800E8093970E8091EE
:10165000810E8093980EF801EB58F04F80819181B4
:1016600064E670E00E94E4322AE030E0B9010E94B2
:10167000E43280E3860F80939E0E80819181B901D0
:101680000E94E432805D80939F0E8E01000F111F37
:10169000000F111FF801E151F24F7F01608171814C
:1016A000828193810E945434605D60931C0F8EE2AE
:1016B00080931D0FF701608171818281938120E009
:1016C00030E040E251E40E9441350E945434862FBC
:1016D0009AE0D92E6D2D0E94D632905D90931E0F08
:1016E000F701608171818281938120E030E048ECD4
:1016F00052E40E9441350E945434862F6D2D0E9481
:10170000D632905D90931F0FF701608171818281C5
:10171000938120E030E04AE754E40E9441350E9482
:101720005434862F6D2D0E94D63297FD19C0F701D3
:1017300080819181A281B381608171818281938155
:1017400020E030E04AE754E40E9441350E945434DE
:10175000862F6D2D0E94D632905D9093200F03C08E
:1017600080E28093200FCB5ED14F88811F928F93B0
:1017700082E792E09F938F938BE09EE09F938F93FD
:101780000E94DC3580910B0E8093510F80910C0EDE
:101790008093520F80910D0E8093530FF801E65500
:1017A000F14F8081805D8093450F8181805D8093C2
:1017B000460F8281805D8093470F8381805D809397
:1017C000480F84E1EFE8FEE0AEE5BEE001900D9247
:1017D0008A95E1F784E1EDE0FFE0AAEEBEE001903A
:1017E0000D928A95E1F784E1E0E4FFE0ABEDBDE026
:1017F00001900D928A95E1F784E1E4E2FFE0A0EA2E
:10180000BFE001900D928A95E1F70F900F900F9035
:101810000F900F900F90DF91CF911F910F91FF903C
:10182000EF90DF90CF90BF9008950E94220587E04F
:10183000E7E7F2E0AFE8BEE001900D928A95E1F7AC
:1018400088E0EFE7F2E0A7E9BEE001900D928A950B
:10185000E1F784E1EFE8FEE0AEE5BEE001900D9235
:101860008A95E1F784E1EDE0FFE0AAEEBEE00190A9
:101870000D928A95E1F784E1E0E4FFE0ABEDBDE095
:1018800001900D928A95E1F784E1E4E2FFE0A0EA9D
:10189000BFE001900D928A95E1F766E970E080E083
:1018A00090E00C9449280E94220585E0E8E8F2E0E7
:1018B000AFE8BEE001900D928A95E1F789E0EEE88D
:1018C000F2E0A5E9BEE001900D928A95E1F784E18E
:1018D000EFE8FEE0AEE5BEE001900D928A95E1F7FB
:1018E00084E1EDE0FFE0AAEEBEE001900D928A9562
:1018F000E1F784E1E0E4FFE0ABEDBDE001900D92A3
:101900008A95E1F784E1E4E2FFE0A0EABFE001901C
:101910000D928A95E1F766E970E080E090E00C9422
:1019200049280E94220580E591E4A3E4BBE480936A
:101930008F0E9093900EA093910EB093920E809183
:10194000A30E882321F086E0EAE9F2E003C088E0F4
:10195000E8E9F2E0A4E9BEE001900D928A95E1F792
:1019600084E1EFE8FEE0AEE5BEE001900D928A95DD
:10197000E1F784E1EDE0FFE0AAEEBEE001900D9218
:101980008A95E1F784E1E0E4FFE0ABEDBDE0019092
:101990000D928A95E1F784E1E4E2FFE0A0EABFE07E
:1019A00001900D928A95E1F766E970E080E090E0A1
:1019B0000C944928CF92DF92EF92FF920F931F93DE
:1019C000CF930E94E2276093FF0E7093000F8093E5
:1019D000010F9093020F0E94220585E0E1EAF2E0F8
:1019E000AFE8BEE001900D928A95E1F784E59FE4AF
:1019F0009093960E8093950E27E0E7EAF2E0A8E92F
:101A0000BEE001900D922A95E1F721E43EE449E51C
:101A10002093400F3093410F4093420F25E0EFEAAF
:101A2000F2E0A4E4BFE001900D922A95E1F726E0F0
:101A3000E5EBF2E0AAE4BFE001900D922A95E1F710
:101A400090930E0F80930D0F86E59FE4A9E4B4E414
:101A50008093100F9093110FA093120FB093130F58
:101A600087E0ECEBF2E0A5E1BFE001900D928A95F2
:101A7000E1F784E1EFE8FEE0AEE5BEE001900D9213
:101A80008A95E1F784E1EDE0FFE0AAEEBEE0019087
:101A90000D928A95E1F784E1E0E4FFE0ABEDBDE073
:101AA00001900D928A95E1F784E1E4E2FFE0A0EA7B
:101AB000BFE001900D928A95E1F784E6C82ED12C03
:101AC000E12CF12C0E94E2270091FF0E1091000FF3
:101AD0002091010F3091020FC091B40F601B710B68
:101AE000820B930BA70196010E940C338C2F90E080
:101AF000A0E0B0E082179307A407B507B8F1809182
:101B0000860F882369F00E94E2276093FF0E70938E
:101B1000000F8093010F9093020F1092860F26C042
:101B200080913E0F882369F00E94E2276093FF0EA8
:101B30007093000F8093010F9093020F10923E0F4D
:101B400015C018990CC00E94E2276093FF0E709395
:101B5000000F8093010F9093020F81E008C06AE0AC
:101B600070E080E090E00E944928ACCF80E0CF9107
:101B70001F910F91FF90EF90DF90CF9008952F92DB
:101B80003F924F925F926F927F928F929F92AF920D
:101B9000BF92CF92DF92EF92FF920F931F93CF935A
:101BA000DF931F92CDB7DEB70E94220586E0E4ECFA
:101BB000F2E0AFE8BEE001900D928A95E1F786E091
:101BC000EBECF2E0A6E9BEE001900D928A95E1F718
:101BD00085E0E2EDF2E0ADE0BFE001900D928A9584
:101BE000E1F786E591E4ACE4BAE38093400F90938B
:101BF000410FA093420FB093430F11E01093AE0D2D
:101C00008091AE0D1F928F9388ED92E09F938F93FA
:101C100081E29FE09F938F930E94DC358091210F9A
:101C20008093120F8091220F8093130F84E1EFE8CD
:101C3000FEE0AEE5BEE001900D928A95E1F784E109
:101C4000EDE0FFE0AAEEBEE001900D928A95E1F78B
:101C500084E1E0E4FFE0ABEDBDE001900D928A95F8
:101C6000E1F784E1E4E2FFE0A0EABFE001900D9239
:101C70008A95E1F76AE070E080E090E00E944928F0
:101C80001093040F0F900F900F900F900F900F90E4
:101C900034E6432E512C612C712C01E21FE044E10B
:101CA000F42E5DE0E52E68E0D62E7CE0C72EE9E05C
:101CB000BE2EF3E78F2EFFE09F2EAFE32A2EAEE07D
:101CC0003A2E0E94E2272091FF0E3091000F4091A2
:101CD000010F5091020FA090B40F621B730B840B85
:101CE000950BA30192010E940C338A2D90E0A0E095
:101CF000B0E082179307A407B50708F414C48091D5
:101D0000860F882311F10E94E2276093FF0E7093E3
:101D1000000F8093010F9093020F8091040F8F5F4B
:101D20008093040F8091040F8093AE0D8091AE0DCF
:101D30001F928F93A8EDB2E0BF93AF931F930F93C1
:101D40000E94DC351092860F25C080913E0F8823BB
:101D500039F10E94E2276093FF0E7093000F809389
:101D6000010F9093020F8091040F81508093040F14
:101D70008091040F8093AE0D8091AE0D1F928F93D2
:101D8000A8EDB2E0BF93AF931F930F930E94DC3591
:101D900010923E0F0F900F900F900F900F900F909A
:101DA0008091210F8093120F8091220F8093130F47
:101DB000EDEDF2E0A4E2BFE08F2D01900D928A9547
:101DC000E1F7E091AE0D8E2F90E0FC013197EC3001
:101DD000F10508F05CC0E65BFF4F0C944D33209199
:101DE000140EE2EFF2E03CC02091870FEBEFF2E03F
:101DF000A4E2BFE08B2D01900D928A95E1F751C0CE
:101E00002091A30EE5E0F3E0F3CF2091490EEFE03F
:101E1000F3E016C02091600FEDE1F3E011C02091D6
:101E2000B40FEBE2F3E004C02091730EE8E3F3E0BB
:101E3000A4E2BFE08C2DDFCF20915E0FE5E4F3E05C
:101E4000A4E2BFE08E2DD7CF2091C10FE3E5F3E0F0
:101E5000A4E2BFE082E1CFCF2091FE0EE6E6F3E000
:101E6000A4E2BFE08D2DC7CF20912E0EEFE6F3E068
:101E7000A4E2BFE083E1BFCFE3E8F3E0A4E2BFE088
:101E80008E2D01900D928A95E1F722E30AC0E1E9D7
:101E9000F3E0A4E2BFE086E001900D928A95E1F7BD
:101EA0002DE28091AE0D1F928F93A8EDB2E0BF930B
:101EB000AF939F928F9229830E94DC358091AE0D63
:101EC0001F928F93A8EDB2E0BF93AF931F930F9330
:101ED0000E94DC350FB6F894DEBF0FBECDBF29815E
:101EE0002D32C9F01F922F93A8EDB2E0BF93AF93AC
:101EF0003F922F920E94DC3580913F0E8093450FD8
:101F00008091400E8093460F0F900F900F900F908E
:101F10000F900F9004C02093450F2093460FEFE8D9
:101F2000FEE0AEE5BEE08F2D01900D928A95E1F7BF
:101F3000EDE0FFE0AAEEBEE08F2D01900D928A95B4
:101F4000E1F7E0E4FFE0ABEDBDE08F2D01900D92F5
:101F50008A95E1F7E4E2FFE0A0EABFE08F2D01906F
:101F60000D928A95E1F718991AC08091720E81112D
:101F700016C00E94E2276093FF0E7093000F8093BB
:101F8000010F9093020F81E08093720E64E170E084
:101F900080E090E00E94492880E090E007C06AE07D
:101FA00070E080E090E00E9449288BCEFC01EB5469
:101FB000F04F30812091AE0D3217C9F001968C3070
:101FC0009105A1F70F90DF91CF911F910F91FF9095
:101FD000EF90DF90CF90BF90AF909F908F907F90C9
:101FE0006F905F904F903F902F900C94150C0E9433
:101FF000220586E0E4ECF2E0AFE8BEE001900D924D
:102000008A95E1F786E0EBECF2E0A6E9BEE001900C
:102010000D928A95E1F785E0E1EAF2E0A0E4BFE005
:1020200001900D928A95E1F786E591E4ACE4809306
:10203000460F9093470FA093480F8091AE0D8330C9
:1020400049F085E0E8E9F3E0ADE0BFE001900D92F2
:102050008A95E1F78EE498E5A4E5BEE38093180F36
:102060009093190FA0931A0FB0931B0F85E0E2ED28
:10207000F2E0A4E2BFE001900D928A95E1F7809131
:10208000210F8093290F8091220F80932A0F809037
:10209000AE0DC82CD12CF6013197EC30F10540F58E
:1020A000EA5AFF4F0C944D338091140E1FC080915B
:1020B000870F1CC08091A30E19C08091490E16C0D5
:1020C0008091600F13C08091B40F10C08091730E87
:1020D0000DC080915E0F0AC08091C10F07C0809132
:1020E000FE0E04C080912E0E01C082E38093AE0DDF
:1020F0008091AE0D1F928F9308ED12E01F930F9306
:1021000083E79FE09F938F930E94DC358091AE0D13
:102110001F928F931F930F9381E29FE09F938F9362
:102120000E94DC350FB6F894DEBF0FBECDBFB3E022
:102130008B1641F08091730F8093120F8091740F72
:102140008093130F8091210F80931C0F8091220F99
:1021500080931D0F84E1EFE8FEE0AEE5BEE0019064
:102160000D928A95E1F784E1EDE0FFE0AAEEBEE092
:1021700001900D928A95E1F784E1E0E4FFE0ABED98
:10218000BDE001900D928A95E1F784E1E4E2FFE081
:10219000A0EABFE001900D928A95E1F76FE070E050
:1021A00080E090E00E9449288091AE0D8093040F5A
:1021B00084E6482E512C612C712C08ED12E091E23E
:1021C000A92E9FE0B92E24E1322E0E94E227209111
:1021D000FF0E3091000F4091010F5091020F90902F
:1021E000B40F621B730B840B950BA30192010E9429
:1021F0000C33892D90E0A0E0B0E082179307A4078C
:10220000B50708F490C18091860F882339F18CE0DE
:10221000881204C08091040F875E03C08091040F70
:102220008F5F8093040F8091040F8093AE0D0E9406
:10223000E2276093FF0E7093000F8093010F90933D
:10224000020F8091AE0D1F928F931F930F93BF9239
:10225000AF920E94DC351092860F28C080913E0F0D
:10226000882351F19CE08091040F891202C08951AA
:1022700001C081508093040F8091040F8093AE0DB4
:102280000E94E2276093FF0E7093000F8093010F6E
:102290009093020F8091AE0D1F928F931F930F9317
:1022A000BF92AF920E94DC3510923E0F0F900F90BC
:1022B0000F900F900F900F90A3E08A1641F080913D
:1022C000730F8093120F8091740F8093130F80917E
:1022D000210F80931C0F8091220F80931D0FEFE838
:1022E000FEE0AEE5BEE0832D01900D928A95E1F708
:1022F000EDE0FFE0AAEEBEE0832D01900D928A95FD
:10230000E1F7E0E4FFE0ABEDBDE0832D01900D923D
:102310008A95E1F7E4E2FFE0A0EABFE0832D0190B7
:102320000D928A95E1F7189911C08091720E811172
:102330000DC081E08093720E64E670E080E090E072
:102340000E944928B3E08B1208C00CC06FE070E017
:1023500080E090E00E94492838CF0E94DA0C882360
:1023600009F4C8C064E170E080E090E00E94492870
:10237000F6013197EC30F10508F0BCC0EE59FF4F83
:102380000C944D336091AE0D88E090E00E94CB3804
:1023900088E090E00E94C3388093140EABC0609137
:1023A000AE0D89E090E00E94CB3889E090E00E9479
:1023B000C3388093870F9EC08091AE0D8F3F59F533
:1023C0008091A30E61E0811160E082E090E00E94C4
:1023D000CB3882E090E00E94C3388093A30E0E9425
:1023E000910C8091A30E882309F484C080914E0E35
:1023F00090914F0E049709F07DC08091740E843047
:1024000009F078C086E090E090934F0E80934E0ED6
:102410001092A50E6FC00E94530C6CC06091AE0D5F
:1024200083E090E00E94CB3883E090E00E94C338C4
:102430008093490E5FC06091AE0D84E090E00E94F1
:10244000CB3884E090E00E94C3388093600F52C084
:102450006091AE0D85E090E00E94CB3885E090E081
:102460000E94C3388093B40F45C06091AE0D86E0E2
:1024700090E00E94CB3886E090E00E94C3388093C1
:10248000730E38C06091AE0D8AE090E00E94CB38A8
:102490008AE090E00E94C33880935E0F2BC0609169
:1024A000AE0D8BE090E00E94CB388BE090E00E9474
:1024B000C3388093C10F1EC06091AE0D8CE090E0D8
:1024C0000E94CB388CE090E00E94C3388093FE0ECF
:1024D00011C06091AE0D8DE090E00E94CB388DE090
:1024E00090E00E94C33880932E0E04C08091AE0D00
:1024F0008093DA0D64E170E080E090E00F90DF916E
:10250000CF911F910F91FF90EF90DF90CF90BF90F0
:10251000AF909F908F907F906F905F904F903F9083
:102520002F900C9449280F90DF91CF911F910F911C
:10253000FF90EF90DF90CF90BF90AF909F908F90E3
:102540007F906F905F904F903F902F9008950E94E2
:10255000220585E0EEE9F3E0AFE8BEE001900D92E0
:102560008A95E1F789E49EE4A6E4BFE48093950EA2
:102570009093960EA093970EB093980E87E0E4EA9E
:10258000F3E0ADE0BFE001900D928A95E1F786E0BF
:10259000ECEAF3E0A0E4BFE001900D928A95E1F748
:1025A00086E591E4ACE4BAE38093240F9093250F81
:1025B000A093260FB093270F84E1EFE8FEE0AEE58D
:1025C000BEE001900D928A95E1F784E1EDE0FFE035
:1025D000AAEEBEE001900D928A95E1F784E1E0E475
:1025E000FFE0ABEDBDE001900D928A95E1F784E14B
:1025F000E4E2FFE0A0EABFE001900D928A95E1F7E6
:1026000008950E94220585E0E3EBF3E0AFE8BEE029
:1026100001900D928A95E1F785E0E1EAF2E0A5E903
:10262000BEE001900D928A95E1F784E59FE49093D6
:102630009C0E80939B0E87E0E9EBF3E0A0E4BFE003
:1026400001900D928A95E1F783E495E4ACE4BCE453
:102650008093480F9093490FA0934A0FB0934B0F6C
:1026600089E49EE4A6E4BFE480934D0F90934E0F5F
:10267000A0934F0FB093500F84E1EFE8FEE0AEE57A
:10268000BEE001900D928A95E1F784E1EDE0FFE074
:10269000AAEEBEE001900D928A95E1F784E1E0E4B4
:1026A000FFE0ABEDBDE001900D928A95E1F784E18A
:1026B000E4E2FFE0A0EABFE001900D928A95E1F725
:1026C00008950E94220585E0E3EBF3E0AFE8BEE069
:1026D00001900D928A95E1F785E0E1EAF2E0A5E943
:1026E000BEE001900D928A95E1F784E59FE4909316
:1026F0009C0E80939B0E87E0E9EBF3E0A0E4BFE043
:1027000001900D928A95E1F783E495E4ACE4BCE492
:102710008093480F9093490FA0934A0FB0934B0FAB
:102720008BE0E1ECF3E0ADE0BFE001900D928A9523
:10273000E1F784E1EFE8FEE0AEE5BEE001900D9246
:102740008A95E1F784E1EDE0FFE0AAEEBEE00190BA
:102750000D928A95E1F784E1E0E4FFE0ABEDBDE0A6
:1027600001900D928A95E1F784E1E4E2FFE0A0EAAE
:10277000BFE001900D928A95E1F708950E9422052D
:1027800085E0E3EBF3E0AFE8BEE001900D928A95BF
:10279000E1F785E0E1EAF2E0A5E9BEE001900D9203
:1027A0008A95E1F784E59FE490939C0E80939B0EBD
:1027B00087E0E9EBF3E0A0E4BFE001900D928A9599
:1027C000E1F786E0EDECF3E0A8E4BFE001900D92C4
:1027D0008A95E1F786E0E4EDF3E0ADE0BFE001903B
:1027E0000D928A95E1F784E1EFE8FEE0AEE5BEE008
:1027F00001900D928A95E1F784E1EDE0FFE0AAEE09
:10280000BEE001900D928A95E1F784E1E0E4FFE0FB
:10281000ABEDBDE001900D928A95E1F784E1E4E231
:10282000FFE0A0EABFE001900D928A95E1F70895DC
:102830004F925F926F927F928F929F92AF92BF92D0
:10284000CF92DF92EF92FF921F93CF93DF93CDB79A
:10285000DEB761970FB6F894DEBF0FBECDBF898B90
:102860000E94220595E0EFEDF3E0AFE8BEE00190B5
:102870000D929A95E1F72CE43FE447E42093950EFE
:102880003093960E4093970E96E0EFEBF1E0ADE0BB
:10289000BFE001900D929A95E1F744E559E46DE4AB
:1028A00075E44093400F5093410F6093420F709333
:1028B000430F94E1EFE8FEE0AEE5BEE001900D923B
:1028C0009A95E1F794E1EDE0FFE0AAEEBEE0019019
:1028D0000D929A95E1F794E1E0E4FFE0ABEDBDE005
:1028E00001900D929A95E1F794E1E4E2FFE0A0EA0D
:1028F000BFE001900D929A95E1F7898990E0FC0183
:10290000EE0FFF1FEA56F04FE080F180880F991F0D
:10291000880F991FFC01E155F24F80809180A280C1
:10292000B38082E0E816F104A9F040F4E114F10468
:1029300011F181E0E816F10409F109C084E0E8161C
:10294000F10471F050F086E0E816F10489F06DE9C9
:1029500071E016C067EA71E013C06BED73E010C060
:102960008091A60E805D8093170F62EB71E008C026
:102970006BEB71E005C066EB71E002C062EA71E0EA
:10298000DB010D900020E9F71197AD01461B570BB5
:1029900083E19FE00E94AE3584E0E816F10409F07F
:1029A0007AC08091A70E805D8093240F8091A60E3F
:1029B000811131C08091A80E9091A90E28EE33E0CC
:1029C000B9010E94E432605D60939E0E8091A80E72
:1029D0009091A90EB9010E94E432E4E6F0E0BF0153
:1029E0000E94E43280E3860F80939F0E8091A80EB0
:1029F0009091A90EB9010E94E432BF010E94E43215
:102A00002AE030E0B9010E94E43280E3860F80932F
:102A1000A00E8EE234C08091A60E8130E1F5809147
:102A2000A80E9091A90E28EE33E0B9010E94E4327D
:102A3000605D60939E0E8EE280939F0E8091A80E43
:102A40009091A90EB9010E94E432E4E6F0E0BF01E2
:102A50000E94E43280E3860F8093A00E8091A80E3E
:102A60009091A90EB9010E94E432BF010E94E432A4
:102A70002AE030E0B9010E94E43280E3860F8093BF
:102A8000A10E8091A80E9091A90EB9010E94E43286
:102A9000805D8093A20E84E6482E512C612C712C0F
:102AA000C501B401A30192010E940C339CE3C92E1D
:102AB000D12CE12CF12CCA01B901A70196010E9489
:102AC0000C336D837E838F839887CA01B901A70178
:102AD00096010E940C3369877A878B879C87CA018D
:102AE000B90128E130E040E050E00E940C33298336
:102AF0003A834B835C836D877E878F87988B2AE030
:102B0000822E912CA12CB12C6D817E818F81988594
:102B1000A50194010E940C3380E3860F8093530F2C
:102B2000CA01B901A50194010E940C33605D609354
:102B3000520F1AE31093510F69857A858B859C8516
:102B4000A50194010E940C3380E3860F8093500FFF
:102B5000CA01B901A50194010E940C33605D609324
:102B60004F0F10934E0F6D857E858F859889A50137
:102B700094010E940C3380E3860F80934D0FCA01AD
:102B8000B901A50194010E940C33605D60934C0F64
:102B900010934B0F69817A818B819C81A5019401EF
:102BA0000E940C3380E3860F80934A0FCA01B9015B
:102BB000A50194010E940C33605D6093490F698107
:102BC0007A818B819C81A30192010E940C33CA01FE
:102BD000B901A50194010E940C33605D6093480F18
:102BE0000E94E227A30192010E940C33CA01B9019D
:102BF000A70196010E940C3369837A838B839C839F
:102C0000CA01B901A70196010E940C336D837E832E
:102C10008F839887CA01B90128E130E040E050E095
:102C20000E940C3369017A0169877A878B879C87B8
:102C300069817A818B819C81A50194010E940C336A
:102C400080E3860F8093370FCA01B901A501940173
:102C50000E940C33605D6093360F1093350F6D81C9
:102C60007E818F819885A50194010E940C3380E3B9
:102C7000860F8093340FCA01B901A50194010E9407
:102C80000C33605D6093330F1093320F69857A8542
:102C90008B859C85A50194010E940C3380E3860FEF
:102CA0008093310FCA01B901A50194010E940C3330
:102CB000605D6093300F10932F0FC701B601A5011F
:102CC00094010E940C3380E3860F80932E0FCA017B
:102CD000B901A50194010E940C33605D60932D0F32
:102CE000C701B601A30192010E940C33CA01B901C8
:102CF000A50194010E940C33605D60932C0F84E168
:102D0000EFE8FEE0AEE5BEE001900D928A95E1F7B6
:102D100084E1EDE0FFE0AAEEBEE001900D928A951D
:102D2000E1F784E1E0E4FFE0ABEDBDE001900D925E
:102D30008A95E1F784E1E4E2FFE0A0EABFE00190D8
:102D40000D928A95E1F761960FB6F894DEBF0FBE3B
:102D5000CDBFDF91CF911F91FF90EF90DF90CF908B
:102D6000BF90AF909F908F907F906F905F904F90AB
:102D7000089584B1887F84B985B1876085B9109240
:102D8000AC0D10923E0F1092860F1092AD0D109266
:102D9000A40E1092720E08950E94B91662E370E0BC
:102DA00080E090E00E944928C1E0C093480E1A9943
:102DB00009C08091AD0D811105C0C093AD0DC093C8
:102DC000860F0AC019990EC08091A40E81110AC005
:102DD000C093A40EC0933E0F6EE170E080E090E0DF
:102DE0000E94492818991092720E1A9B06C0809171
:102DF000860F811102C01092AD0D199BD6CF809124
:102E00003E0F8111D2CF1092A40ECFCFEF92FF923E
:102E10000F931F93CF93DF93CDB7DEB74DB75EB758
:102E20008091590F2DB73EB7281B31090FB6F89482
:102E30003EBF0FBE2DBF2F5F3F4F80914E0E909132
:102E40004F0E019709F086C08091770E882309F410
:102E500081C01092770E80E09091590F891730F45D
:102E6000F901E80FF11D80838F5FF6CFA0E080911C
:102E7000590F6A2F70E090E00197681779078CF579
:102E8000B0E08B2F90E06091590F70E061507109B4
:102E90008617970724F5B901680F791FFB01E080B9
:102EA000EE2DF0E0EE0FFF1FEF59F04F0081118182
:102EB0000196820F931FFC01F080EF2DF0E0EE0FE2
:102EC000FF1FEF59F04F0190F081E02DE017F1075F
:102ED00020F4FC01E082FB01F082BF5FD2CFAF5F44
:102EE000C6CF8091590F815077E08823E9F0D9014E
:102EF000A80FB11DEC91F0E0EE0FFF1FEF59F04F5E
:102F0000008111811197EC91F0E0EE0FFF1FEF5956
:102F1000F04F0190F081E02D0E1B1F0B09311105C0
:102F200008F0782F8150E1CF60E0A1E08091590F47
:102F3000681710F5862F90E0F901E80FF91FE0817E
:102F4000F0E0ED52F24F671710F0A08301C010823D
:102F50006F5FECCF80914E0E90914F0E019761F014
:102F600080E09091590F891738F4E82FF0E0ED5286
:102F7000F24F10828F5FF5CF0FB6F8945EBF0FBE91
:102F80004DBFDF91CF911F910F91FF90EF9008956A
:102F9000CF93DF93CDB7DEB728970FB6F894DEBF97
:102FA0000FBECDBF0E94EA040E94D2000E9403011E
:102FB0000E94A10281E080930F0E1092770E2224CE
:102FC0002394F4E64F2E512C612C712C2092410E4B
:102FD0000E94E227A30192010E940C336333710522
:102FE0008105910578F080910F0E882369F0109289
:102FF0000F0E2092770E8091750E882329F00E9483
:10300000070502C020920F0E65E070E080E090E0BE
:103010000E944928312C8091590F381608F08FC032
:10302000032D10E0F801EB5EF14F80810E94B503A3
:103030006B017C019801220F331F38872F83F90120
:10304000E857F04F20813181EF81F885E05BF14F47
:10305000408151815A83498356E05E9DB0015F9D56
:10306000700D112480E090E02D833E830E948A340D
:103070004B015C012D813E81B90180E090E00E940E
:103080008A3420E030E040E85AE30E9441359B0159
:10309000AC01C501B4010E9441354B015C0129819D
:1030A0003A81B90180E090E00E948A349B01AC0132
:1030B000C501B4010E9471330E945B34EF81F88531
:1030C000EF59F04F71836083000F111F000F111F24
:1030D000F801E151F24F2081318142815381EF812A
:1030E000F885EB58F04F00811181B6016A5F704896
:1030F000660F771F80E090E02D833E834B835C83D7
:103100000E948A342D813E814B815C810E94413531
:103110006B017C01B80180E090E00E948A349B0141
:10312000AC01C701B6010E9471330E945B34EF818C
:10313000F885EF5CF14F7183608333946CCF0E940C
:10314000AB01BC01990F880B990B0E948C342AE0CB
:1031500037ED43EA5AE30E94413521EC3AEC41E86D
:103160005FE30E9441352AE939E949E95EE30E94BB
:10317000703320E030E040E251E40E9441350E948B
:103180005B347093390F6093380F0E949A000E944D
:103190005601092E000CAA0BBB0BB095A09590957B
:1031A00081959F4FAF4FBF4F80934A0E90934B0E28
:1031B000A0934C0EB0934D0E80914A0E90914B0E01
:1031C000A0914C0EB0914D0E803E9E42A105B105DE
:1031D000CCF480914A0E90914B0EA0914C0EB09180
:1031E0004D0E8132914DAF4FBF4F64F080914A0E2A
:1031F00090914B0EA0914C0EB0914D0E9093840F78
:103200008093830F80914E0E90914F0E069709F098
:1032100041C080912D0E8823E9F10E9417020E947F
:10322000E201092E000CAA0BBB0B80934A0E90936F
:103230004B0EA0934C0EB0934D0E40E050E0BA01FF
:1032400088E79EE00E94992680914A0E90914B0E4D
:10325000A0914C0EB0914D0E9C01AD0166277727D1
:10326000CB01621B730B840B950B0E948C342FE6F1
:1032700032E143E059E30E94413523ED3EEF46ED54
:1032800052E40E94413524EA30E74DE25FE30E94B8
:10329000713354C00E9435020E94E201092E000CD5
:1032A000AA0BBB0B80934A0E90934B0EA0934C0E2F
:1032B000B0934D0E80914A0E90914B0EA0914C0E02
:1032C000B0914D0E8C3B9240A105B1050CF04AC067
:1032D00080914A0E90914B0EA0914C0EB0914D0EE4
:1032E00085349D4FAF4FBF4FECF140E050E0BA0145
:1032F00088E79EE00E9499266091830F7091840F69
:10330000072E000C880B990B0E948C342CEA35ECAC
:1033100047E256E30E9441352FE632E143E85AE3A3
:103320000E94E2332DE73EEA46E75FE30E94413523
:1033300029E839E241E15CE30E94703320E030E0AB
:103340004AE754E40E9441350E9454346093270EAA
:103350007093280E8093290E90932A0E88E79EE0A2
:103360000E9435270E94061710E08091590F181708
:1033700008F02CCEE12FF0E0DF01AD52B24F8C917E
:10338000EB5EF14F813021F480810E942C0303C059
:1033900080810E940F031F5FE8CF1092C80F109228
:1033A000C70F8091C70F9091C80F079788F4E091DD
:1033B000C70FF091C80FEB5FF04F10828091C70FDD
:1033C0009091C80F01969093C80F8093C70FE9CFD3
:1033D00087E08093890E85E09FE090938B0E809329
:1033E0008A0E81E090E09093840E8093830E109279
:1033F0008E0E88E090E00E94C3388093140E809176
:10340000140E882321F08091140E8F3F59F461E04F
:1034100088E090E00E94CB3888E090E00E94C338BA
:103420008093140E08950E94CD1980E00E94C22C52
:10343000D1E018E0D093470E8091140E90E0982FC1
:10344000882797709093860E8093850E1093890E2F
:1034500080914E0E90914F0E8093050F8091380F02
:103460009091390F9093060F8091380F9091390FFA
:103470008093070F8091270E9091280EA091290E1E
:10348000B0912A0E8B2F9927AA27BB278093080F6C
:103490008091270E9091280EA091290EB0912A0EAE
:1034A000CD01BB2797FDB095AB2F8093090F80917D
:1034B000270E9091280EA091290EB0912A0E892FE7
:1034C0009A2FAB2FBB27A7FDBA9580930A0F809147
:1034D000270E9091280EA091290EB0912A0E80936C
:1034E0000B0F8091DA0D80930C0F82E89EE00E9412
:1034F000CF2C8111FACF82E89EE00E94AD3181305D
:10350000D1F380913A0F90913B0FA0913C0FB09175
:103510003D0F8B2F9927AA27BB278093050F8091FA
:103520003A0F90913B0FA0913C0FB0913D0FCD0110
:10353000BB2797FDB095AB2F8093060F80913A0F74
:1035400090913B0FA0913C0FB0913D0F892F9A2F86
:10355000AB2FBB27A7FDBA958093070F80913A0F39
:1035600090913B0FA0913C0FB0913D0F8093080FBD
:1035700084E0E0E094E0C1E02091870FE217D8F406
:103580002E2F291B022F090F882309F487C03091A1
:10359000870F031770F4492F50E0E02FF0E0ED5251
:1035A000F24F3081FA01EB5FF04F30839F5F815023
:1035B000E9CFE02FE1CF00E02091870F021710F54F
:1035C000282F290F922F981B823008F486C0309143
:1035D000870F031788F7492F50E0E02FF0E0EE0F38
:1035E000FF1FEF59F04F60817181DA01AB5FB04F7F
:1035F0007C9360817181FA01EA5FF04F60830F5F15
:103600008250E0CF00E02091870F021710F5282F9D
:10361000290F922F981B823008F47DC03091870FBC
:10362000031788F7492F50E0E02FF0E0EE0FFF1F5F
:10363000EF5CF14F60817181DA01AB5FB04F7C9339
:1036400060817181FA01EA5FF04F60830F5F825001
:10365000E0CF8091140E90E0982F88278C0F911D59
:1036600097709093860E8093850ED093890E8091EB
:103670002D0E8093050F82E89EE00E94CF2C8111D1
:10368000FACF82E89EE00E94AD318130D1F364E64A
:1036900070E080E090E00E944928CCCE2091140E8A
:1036A00030E0322F22272C0F311D37703093860ED9
:1036B0002093850E9093890E82E89EE00E94CF2C85
:1036C0008111FACF82E89EE00E94AD318130D1F3C2
:1036D000CF5FE02F88E090E04FCF2091140E30E0D4
:1036E000322F22272C0F311D37703093860E2093F6
:1036F000850E9093890E82E89EE00E94CF2C811166
:10370000FACF82E89EE00E94AD318130D1F3CF5FE5
:1037100088E090E051CF2091140E30E0322F222724
:103720002C0F311D37703093860E2093850E9093A9
:10373000890E82E89EE00E94CF2C8111FACF82E8A8
:103740009EE00E94AD318130D1F3CF5F88E090E000
:103750005ACF0C9447050E94470586E08093BA0F24
:1037600087E08093BB0F85E090E00E94C338809390
:10377000B40F8091B40F882321F08091B40F8F3F54
:1037800059F46FE085E090E00E94CB3885E090E04E
:103790000E94C3388093B40F86E090E00E94C33843
:1037A0008093730E8091730E882321F08091730EA5
:1037B0008F3F59F468E786E090E00E94CB3886E0BE
:1037C00090E00E94C3388093730E0E94E2276093BA
:1037D000FF0E7093000F8093010F9093020F64E629
:1037E00070E080E090E00E944928D0E0C0E011E065
:1037F00084E6C82ED12CE12CF12C1093420E0E94AD
:10380000E2278090FF0E9090000FA090010FB090E3
:10381000020F0091B40F681979098A099B09A70161
:1038200096010E940C33802F90E0A0E0B0E0821758
:103830009307A407B50730F480914E0E90914F0E78
:10384000D0E0C0E00E94E2278090FF0E9090000F31
:10385000A090010FB090020F0091730E68197909C2
:103860008A099B09A70196010E940C33802F90E0E2
:10387000A0E0B0E082179307A407B50718F40E94F0
:10388000DC022FC01093750ED13009F140F0D23018
:1038900011F1D33021F58C2F0E94181422C0C230B0
:1038A00081F03CF4CC23D9F0C130C9F40E9401135B
:1038B00018C0C33049F0CF3091F40E94BF0DC0E072
:1038C00010C00E9461130DC00E94BE130AC08C2F4D
:1038D0000E94930706C08C2F0E946E0A02C00E94AD
:1038E0004705189958C08091720E811154C01093E9
:1038F000720E0E94E2276093FF0E7093000F809378
:10390000010F9093020FD13071F128F0D23099F16C
:10391000D330C9F18EC0C13081F01CF4CC2331F01A
:1039200088C0C23089F0C330B9F083C08091750E71
:10393000882309F47EC0CFE07CC08091750E882377
:1039400009F477C0D1E006C08091750E882309F490
:1039500070C0D2E0C0E06DC08091750E882309F47C
:1039600068C0D3E0F7CF8091750E882309F461C059
:10397000D0E0C1E05EC08091750E882309F459C083
:10398000D0E0C2E056C08091750E882309F451C082
:10399000D0E0C3E04EC080913E0F882399F10E9491
:1039A000E2276093FF0E7093000F8093010F9093B6
:1039B000020F8091750E882311F1CF5FC43011F48E
:1039C000DD23E1F08091590F90E04C2F0C2E000C7C
:1039D000550B4817590731F4D23021F4C091590FD3
:1039E000C1500DC0C23021F4D13049F4C1E007C04C
:1039F000C53029F4D33019F4C4E001C0C3E01092FB
:103A00003E0F17C08091860F882399F00E94E2270D
:103A10006093FF0E7093000F8093010F9093020F3D
:103A20008091750E882319F0C15008F4C0E01092FF
:103A3000860F64E170E080E090E00E944928DDCECE
:103A400080E090E0FC01EF5BF14F1082019688303E
:103A50009105C1F70895089A81E08093760E10923F
:103A6000850F0E94201D6EE170E080E090E00E94D2
:103A7000492880E090E0FC01EF5BF14F20812111AB
:103A800006C08091850F8F5F8093850F08C00196D7
:103A90008830910581F70E94201D1092850F80913A
:103AA000850F883C10F01092760E8091760E882358
:103AB00001F3109863E070E080E090E00E944928F4
:103AC000109A63E070E080E090E0D1CF10925F0F39
:103AD0001092230F80E09091590F891738F4E82F46
:103AE000F0E0ED52F24F10828F5FF5CF88E79EE055
:103AF0000C94472681E090E00E94C3388093DA0D51
:103B00008091DA0D882321F08091DA0D8F3F59F4EE
:103B100062E381E090E00E94CB3881E090E00E9477
:103B2000C3388093DA0D8091DA0D08959091230FB8
:103B30008091DA0D981751F08091DA0D8093230F60
:103B40006091DA0D81E090E00C94CB380895CF932A
:103B5000DF9300D000D0CDB7DEB70E94661D412CA8
:103B6000512C320101E014E69CE9892E99249A94A3
:103B7000A92CB92C0093430E80914E0E90914F0EBC
:103B8000892BC1F380914E0E90914F0E019729F42D
:103B900082B1806382B940E01DC080914E0E909149
:103BA0004F0E039711F4149AF6CF82B18F7CF2CFA7
:103BB000E42FF0E0EE0FFF1FEF59F04F208131812D
:103BC0008091C10F54E6859FC0011124821793078D
:103BD00030F04F5F8091590F481750F317C0809114
:103BE0005F0F8823B1F3808191810A9691F380E081
:103BF00096EEAFEDBCE080933A0F90933B0FA0930D
:103C00003C0FB0933D0F1093DA0DE3CF0E94E227F3
:103C10006B017C01DC01CB0184199509A609B70968
:103C20002C013D0140E050E0BA0188E79EE00E948F
:103C3000992680913A0F90913B0FA0913C0FB09143
:103C40003D0F89839A83AB83BC832091270E3091EB
:103C5000280E4091290E50912A0EC301B2010E94F4
:103C6000BA32A50194010E942E3389819A81AB81D9
:103C7000BC81820F931FA41FB51FB7FD2CC080917C
:103C80003A0F90913B0FA0913C0FB0913D0F89836B
:103C90009A83AB83BC832091270E3091280E4091EC
:103CA000290E50912A0EC301B2010E94BA32A50119
:103CB00094010E942E3389819A81AB81BC81820F4D
:103CC000931FA41FB51F80933A0F90933B0FA093AF
:103CD0003C0FB0933D0F88E79EE00E94352760912E
:103CE0003A0F70913B0F80913C0F90913D0F0E94D5
:103CF0008C3420E036ED43E05AE40E943C3518163F
:103D00001CF02601370136CF60913A0F70913B0FBE
:103D100080913C0F90913D0F0E948C3428E03FEE43
:103D20004BE45DE40E94DD3387FFEBCF60913A0FF7
:103D300070913B0F80913C0F90913D0F0E948C340D
:103D400020E63EEF4DE45DE40E94E23320E030E007
:103D500048EC52E40E9441350E945B346093DA0DD6
:103D6000D0CF139A81B1896381B910922D0E089535
:103D70000E94B11E91E09093440E80B182FB88278F
:103D800080F9892780932D0E20914E0E30914F0E91
:103D90002630310521F080912E0E882321F01398D2
:103DA00080912D0EE8CF139AE6CF8EE390E09093AA
:103DB000760F8093750F86E490E09093780F809350
:103DC000770F8BE290E090937A0F8093790F89E3DD
:103DD00090E090937C0F80937B0F80E290E0909333
:103DE0007E0F80937D0F81E390E09093800F80930E
:103DF0007F0F8EE190E09093820F8093810F87E791
:103E00009EEBAFE3BFE38093EF0D9093F00DA09393
:103E1000F10DB093F20D8AEA91EFA2E3BFE3809334
:103E2000F30D9093F40DA093F50DB093F60D8FE87C
:103E300092ECA5E5BFE38093F70D9093F80DA09366
:103E4000F90DB093FA0D84E69BE3AFE3BFE38093F3
:103E5000FB0D9093FC0DA093FD0DB093FE0D8FE331
:103E600095E3AEE5BFE38093FF0D9093000EA09322
:103E7000010EB093020E8CE497E3A9E4BFE38093B4
:103E8000030E9093040EA093050EB093060E8FE2DE
:103E90009DEDA4E6BFE38093070E9093080EA093D8
:103EA000090EB0930A0E89E090E00E94C338809317
:103EB000870F8091870F882321F08091870F8F3F94
:103EC00059F467E089E090E00E94CB3889E090E007
:103ED0000E94C3388093870F81E08093B50F82E002
:103EE0008093B60F83E08093B70F84E08093B80F80
:103EF00085E08093B90F88E08093BB0F89E08093C1
:103F0000BC0F8AE08093BD0F8BE08093BE0F8CE0E6
:103F10008093BF0F84E090E00E94C3388093600FCD
:103F20008091600F882321F08091600F8F3F59F4BA
:103F300068E284E090E00E94CB3884E090E00E9448
:103F4000C3388093600F8AE090E00E94C33880936A
:103F50005E0F80915E0F882321F080915E0F8F3F6E
:103F600059F46BE18AE090E00E94CB388AE090E05F
:103F70000E94C33880935E0F83E090E00E94C338B4
:103F80008093490E8091490E882321F08091490E3B
:103F90008F3F59F46CE383E090E00E94CB3883E0DC
:103FA00090E00E94C3388093490E8BE090E00E941D
:103FB000C3388093C10F8091C10F882321F0809175
:103FC000C10F8F3F59F467E28BE090E00E94CB383D
:103FD0008BE090E00E94C33880935E0F8CE090E00D
:103FE0000E94C3388093FE0E8091FE0E882321F03C
:103FF0008091FE0E8F3F59F461E08CE090E00E94CA
:10400000CB388CE090E00E94C3388093FE0E8DE0A8
:1040100090E00E94C33880932E0E80912E0E88234C
:1040200021F080912E0E8F3F59F460E08DE090E0FA
:104030000E94CB388DE090E00E94C33880932E0E12
:1040400082E090E00E94C3388093A30E1092A50EE8
:104050001092A60E1092A90E1092A80E1092A70E02
:10406000C0E0D0E08091590F90E0C817D907ACF4B8
:10407000FE01EB5EF14F80810E9426049E01220F1B
:10408000331FF901E857F04F71836083F901E05B5A
:10409000F14F918380832196E5CF10924F0E1092BD
:1040A0004E0EC0E0D0E0FE01EE0FFF1FEA56F04FCB
:1040B000118210820E94E227FE01EE0FFF1FEE0F19
:1040C000FF1FE155F24F60837183828393832196B2
:1040D000C530D10541F70E947A1D8093DA0D809199
:1040E000DA0D882321F08091DA0D843618F0809162
:1040F000DA0D03C08091DA0D8F5F8093DA0D609145
:10410000DA0D70E080E090E00E948A3420E030E038
:1041100048EC52E40E94E23320E63EEF4DE45DE4D9
:104120000E9441350E945B3460933A0F70933B0FBD
:1041300080933C0F90933D0F0E94961D04E010E089
:1041400096E0E92EF12CCC24C394D12C33E0432EFD
:10415000512C45E0A42EB12C52E0652E712CC1E00B
:10416000B2E08B2ED3E084E0982EC093450E0E94DF
:10417000961D60E08091590F681708F05DC0862F8A
:1041800090E0880F991FFC01EF5CF14F4081518155
:104190002091490E7AE0279F9001112424173507BA
:1041A000B8F4208131812C33334E91F010934F0EAF
:1041B00000934E0E1092740EC093A50E1092A60E90
:1041C000208131813093A90E2093A80E6093A70E11
:1041D000FC01EF59F04F408151812091600F74E64E
:1041E000279F900111242417350758F040815181F1
:1041F00020915E0FB4E62B9F9001112442175307C4
:10420000C8F4FC01EF59F04F808191810A9691F03A
:1042100010934F0E00934E0EC093740EC093A50ED4
:10422000C093A60E808191819093A90E8093A80ED1
:104230006093A70E6F5F9ECF8091380F9091390FDA
:1042400081349145A4F010934F0E00934E0E80924E
:10425000740EC093A50E8092A60E8091380F909197
:10426000390F9093A90E8093A80E1092A70E9091EB
:10427000870F8091590F981799F010934F0E009364
:104280004E0ED093740EC093A50ED093A60E8091BF
:10429000870F90E09093A90E8093A80E1092A70E1E
:1042A0008091A30E811110C010934F0E00934E0EFB
:1042B0009092740EC093A50E9092A60E1092A90E25
:1042C0001092A80E1092A70E80914E0E90914F0E54
:1042D000049709F465C080914E0E90914F0E823084
:1042E000910509F441C028F4009769F0019771F134
:1042F00052C08530910501F18630910559F0039740
:1043000009F049C036C068EC70E080E090E00E949F
:10431000492833C08091DA0D8823C1F180915F0F65
:1043200081110FC08091030F882309F4C0C05092FF
:104330004F0E40924E0EBBC080915F0F882309F450
:10434000B6C0D0924F0EC0924E0EB1C080915F0F9A
:10435000882399F08091DA0D843608F4A8C0709211
:104360004F0E60924E0EA3C080915F0F81119FC0CF
:1043700004C08091030F811105C0F0924F0EE092AE
:104380004E0E95C08091DA0D811191C0B0924F0E02
:10439000A0924E0E8CC010934F0E00934E0E87C00D
:1043A0001092A50E26E030E0A0E08091590FA817EA
:1043B00008F045C08A2F90E0880F991FFC01EF5C40
:1043C000F14F608171814091490EBAE04B9FA0018D
:1043D00011244617570758F4408151814C33534EEE
:1043E00031F01092740EC093A50E24E030E0FC0171
:1043F000EF59F04F608171814091600FB4E64B9F9F
:10440000A00111244617570758F06081718140912F
:104410005E0FE4E64E9FA00111246417750768F44F
:10442000FC01EF59F04F808191810A9631F0C093E1
:10443000740EC093A50E24E030E0AF5FB6CF80913C
:10444000380F9091390F8134914534F08092740E79
:10445000C093A50E24E030E09091870F8091590F12
:10446000981789F0D093740EC093A50ED093A60E22
:104470008091870F90E09093A90E8093A80E1092E0
:10448000A70E24E030E08091A30E81110CC0C093F0
:10449000A50E9092A60E1092A90E1092A80E109240
:1044A000A70E24E030E030934F0E20934E0E209163
:1044B0004E0E30914F0E8091960F9091970F2817C6
:1044C000390709F452CE84E090E09C012150310973
:1044D000F901EE0FFF1FEA56F04F40815181FC01B8
:1044E000EE0FFF1FEA56F04F51834083F901EE0FA4
:1044F000FF1FEE0FFF1FE155F24F40815181628196
:104500007381880F991F880F991FFC01E155F24FA5
:104510004083518362837383C9010097B1F6809110
:104520004E0E90914F0E9093970F8093960F0E948E
:10453000E2276093AF0D7093B00D8093B10D90930F
:10454000B20D0DCE87B1836087B908950E94A22273
:10455000C1E0C093460E80914E0E90914F0E04978D
:1045600011F4419A01C04198409A69E170E080E0FD
:1045700090E00E944928409869E170E080E090E076
:104580000E944928E6CFAF92BF92CF92DF92EF927E
:10459000FF920F931F93CF93DF93C1E0D1E0AB84E1
:1045A000BC84CD84DE84E984FA840D811E812F8150
:1045B00038854B815C816A81888199810E94582469
:1045C000811105C02F9691E0C838D90741F7DF91D6
:1045D000CF911F910F91FF90EF90DF90CF90BF9000
:1045E000AF9008952F923F924F925F926F927F9279
:1045F0008F929F92AF92BF92CF92DF92EF92FF92F3
:104600000F931F93CF93DF930DB71EB7C82FD92FEA
:1046100008831983C62FD72F088119810DBF1EBFAC
:10462000DF91CF911F910F91FF90EF90DF90CF908E
:10463000BF90AF909F908F907F906F905F904F90C2
:104640003F902F900895C82FD92F088119810DBF51
:104650001EBFDF91CF911F910F91FF90EF90DF90E0
:10466000CF90BF90AF909F908F907F906F905F9012
:104670004F903F902F901895FFCF80918A0D909189
:104680008B0D019690938B0D80938A0D08958091E8
:104690008A0D90918B0D892B29F480919D0D90911D
:1046A0009E0D089580E090E00895CF93DF93EC0194
:1046B000FB01892BA1F0309791F088819981DC0171
:1046C0009C01109771F012965C91129742814517E8
:1046D000D8F09D011B960D90BC91A02DF2CF89ECD6
:1046E00021C0892B51F032872187B487A387E90144
:1046F000FC87EB87109789F414C0F983E88312864E
:104700001186148613860DC0A817B90761F7F983BF
:10471000E88312861186B487A3871A96FC93EE93DA
:10472000199780E0DF91CF910895CF93DF930097A1
:10473000A9F0DC01ED91FC91309791F0A385B4854F
:10474000EC01B983A883109721F01A961C921E924F
:104750001997128611861486138602C0E0E0F0E0F5
:10476000CF01DF91CF910895CF93DF93FB010097A5
:1047700099F1DC012D913C912115310569F1D901A7
:10478000E901AE17BF07F1F4A385B485E217F3077B
:1047900051F4EC01B983A883109779F01A961C9212
:1047A0001E9219970AC0BC87AB87A385B485109762
:1047B00021F01A96DC93CE931997148613861286ED
:1047C00011860CC01B964D915C911C97ED01411513
:1047D000510511F0DA01D5CFE0E0F0E0CF01DF9133
:1047E000CF910895CF93DF930097B1F0DC01ED9165
:1047F000FC91309799F02281621770F0A385B485FF
:10480000EC01B983A883109749F01A961C921E9266
:1048100019971486138602C0E0E0F0E0CF01DF9123
:10482000CF910895FF920F931F93CF93DF939091B1
:10483000870D9923B9F1FFB6F894C0919D0DD091E1
:104840009E0D9D85913069F488E89DE00E94952336
:10485000C817D90729F190939E0D80939D0DBC0137
:104860001CC06A81813029F06623D9F070E0615064
:10487000710988E89DE00E94F2238C01892B89F060
:10488000BE0188E89DE00E945523C017D10741F082
:1048900010939E0D00939D0DB801CE010E94F2224F
:1048A0001D86FFBEDF91CF911F910F91FF9008955C
:1048B000AF92BF92CF92DF92EF92FF920F931F932E
:1048C000CF93DF930097A1F14115510589F1E114D0
:1048D000F10471F1AB28AC28AD2851F1EC011D8633
:1048E0006A831A8619861C861B86188A1F865C8333
:1048F0004B830D831E832F833887B7010E947C2B47
:104900001FB7F894BE0188E89DE00E9455231FBFA1
:10491000882311F08CEC0FC08091870D813051F409
:104920000E944723892B31F080E00E94122402C0AC
:1049300089EC01C080E0DF91CF911F910F91FF9032
:10494000EF90DF90CF90BF90AF900895AF92BF925D
:10495000CF92DF92EF92FF920F931F9310929E0DD2
:1049600010929D0D1092890D1092880D1092870D56
:104970005A016B017C0100E010E098014CE353E226
:104980006FEF8CE89DE00E9458241F910F91FF90DB
:10499000EF90DF90CF90BF90AF90089520918A0D57
:1049A00030918B0D2150310930938B0D20938A0D5E
:1049B0000C94122481E08093870D6FEF88E89DE0CE
:1049C0000E94F223009731F090939E0D80939D0DED
:1049D0000C94232308951F93CF93DF930097B9F08E
:1049E000EC011FB7F894E881F98182E0868768813D
:1049F0007981FB01108A17868A819B810E94B423EA
:104A00006881798188E89DE00E9455231FBFDF916E
:104A1000CF911F910895009731F0FC0162831182BC
:104A2000108280E0089589EC0895DF92EF92FF9262
:104A30000F931F93CF93DF93009799F17C0100E0D0
:104A40008AECD82E1FB7F894C7010E949523EC0179
:104A50000097D9F0DE86BC0188E89DE00E945523CE
:104A6000882319F01FBFCCEC12C08F85988900975E
:104A700049F00E94B927882319F01FBFCDEC07C069
:104A8000188A1F861FBF01E0DDCF1FBFC0E00130C5
:104A900049F40E944723892B29F080E00E941224C8
:104AA00001C0C9EC8C2FDF91CF911F910F91FF9026
:104AB000EF90DF9008958F929F92AF92BF92DF9216
:104AC000EF92FF920F931F93CF93DF93CDB7DEB793
:104AD0002E970FB6F894DEBF0FBECDBF009709F436
:104AE0005AC0DFB6F894FC01228121114EC077FD37
:104AF00049C04A015B017C010E9447238C01009759
:104B0000F1F1BC01C7010E945523882319F0DFBED3
:104B10008CEC42C081E0F801858781149104A104E6
:104B2000B10409F11C870B87FE86ED868BEE94E2BB
:104B30009A838983CE010B969C838B838D829E8280
:104B4000AF82B8860A97908B87870E949427882324
:104B500069F0B801C7010E94B423F8011586108AD4
:104B600017868DEC04C0F801108A178680E0DFBE3E
:104B7000811112C00E941224F80186850DC0DFBE8B
:104B800088EC0AC0DFBE83E007C02150FC0122830D
:104B9000DFBE80E001C089EC2E960FB6F894DEBF30
:104BA0000FBECDBFDF91CF911F910F91FF90EF907E
:104BB000DF90BF90AF909F908F9008951F93CF93F9
:104BC000DF93FC01892BA9F11FB7F89480819181B3
:104BD000892B29F1CF010E949523EC01BC0188E8C3
:104BE0009DE00E945523882319F01FBFCCEC22C002
:104BF0001E868F859889009721F4188A1F86C0E049
:104C000005C00E94B9278823C1F3CDEC1FBF0E94C5
:104C10004723892B79F080E00E9412240BC0828107
:104C20008F3F21F08F5F8283C0E001C0CBEC1FBFBC
:104C300001C0C9EC8C2FDF91CF911F91089500978F
:104C400021F0FC01628380E0089589EC08951F93B0
:104C5000CF93DF930097B9F0EC011FB7F894E88188
:104C6000F98182E0868768817981FB01108A178645
:104C70008A819B810E94B4236881798188E89DE0C4
:104C80000E9455231FBFDF91CF911F910895FC0112
:104C9000892B39F01382128214821182108280E0F3
:104CA000089589EC0895DF92EF92FF920F931F937E
:104CB000CF93DF93009799F17C0100E08AECD82E26
:104CC0001FB7F894C7010E949523EC010097D9F013
:104CD000DE86BC0188E89DE00E945523882319F0F8
:104CE0001FBFCCEC12C08F859889009749F00E94B5
:104CF000B927882319F01FBFCDEC07C0188A1F867B
:104D00001FBF01E0DDCF1FBFC0E0013049F40E94AA
:104D10004723892B29F080E00E94122401C0C9ECAE
:104D20008C2FDF91CF911F910F91FF90EF90DF902B
:104D300008958F929F92AF92BF92DF92EF92FF926F
:104D40000F931F93CF93DF93CDB7DEB72E970FB698
:104D5000F894DEBF0FBECDBF009709F472C04A01C0
:104D60005B018C010E9447237C01DFB6F894009719
:104D700019F4DFBE98EC66C0F80122813381211559
:104D8000310509F44EC02817390709F44AC0B7FCA9
:104D900045C0BC01C8010E945523882319F0DFBE1D
:104DA0009CEC50C081E0F701858781149104A10437
:104DB000B10409F1FC86EB861E870D8787E296E237
:104DC0009A838983CE010B969C838B838D829E82EE
:104DD000AF82B8860A97908B87870E949427882392
:104DE00069F0B701C8010E94B423F7011586108A43
:104DF00017869DEC04C0F701108A178690E0DFBE8D
:104E0000911120C080E00E941224F7019685911133
:104E100019C0F80184818F5F848314C0DFBE93E0E2
:104E200011C0F80184818F3F39F08F5F8483232B79
:104E300029F4F382E28202C09BEC01C090E0DFBE65
:104E400001C099EC892F2E960FB6F894DEBF0FBEE5
:104E5000CDBFDF91CF911F910F91FF90EF90DF9029
:104E6000BF90AF909F908F900895EF92FF921F9305
:104E7000CF93DF93009709F440C0EC010E944723D1
:104E80001FB7F8942A813B812817390719F01FBFF3
:104E9000CFEC34C08C8181508C8381112BC01B825C
:104EA0001A8288819981892B29F1CE010E9495234C
:104EB0007C01BC0188E89DE00E945523882319F0FD
:104EC0001FBFCCEC1BC0F7011686FB82EA828785E8
:104ED0009089009729F4F701108A1786C0E005C071
:104EE0000E94B9278823B9F3CDEC1FBF80E00E9450
:104EF000122404C01FBFC0E001C0C9EC8C2FDF9199
:104F0000CF911F91FF90EF900895CF93009751F0AC
:104F1000FC01CFB7F8946081718188E89DE00E9420
:104F20005523CFBFCF910895FC01892B01F18081DA
:104F30009181892BE1F084819581A681B781892BAC
:104F40008A2B8B2BA1F02FB7F8948091A30D909111
:104F5000A40D009719F41186108602C091878087EE
:104F6000F093A40DE093A30D2FBF80E0089589EC8A
:104F70000895009729F14FB7F8942091A30D30912F
:104F8000A40DF901D9013097C1F0E817F90781F4B0
:104F900080859185E217F30729F49093A40D8093FF
:104FA000A30D04C019969C938E93189780E006C0B9
:104FB000DF010084F185E02DE6CF8EEC4FBF089530
:104FC00089EC089560919F0D7091A00D8091A10DC5
:104FD0009091A20D089560939F0D7093A00D809302
:104FE000A10D9093A20D08950F931F93CF93DF937C
:104FF0008091870D882309F447C080919F0D90917F
:10500000A00DA091A10DB091A20D0196A11DB11D01
:1050100080939F0D9093A00DA093A10DB093A20D2E
:10502000C091A30DD091A40D8E01209769F18C81C0
:105030009D81AE81BF810197A109B1098C839D83B8
:10504000AE83BF83892B8A2B8B2BC9F42091A30DB0
:105050003091A40D88859985C217D30729F49093C0
:10506000A40D8093A30D03C0F80191878087E88188
:10507000F981309729F08A819B81099501C08E01C1
:105080000884D985C02DD1CFDF91CF911F910F9189
:105090000895CF92DF92EF92FF921F93CF93DF9309
:1050A000CDB7DEB72C970FB6F894DEBF0FBECDBFDD
:1050B0006B017C010E944723FC01C114D104E1046F
:1050C000F10419F1892B19F11FB7F89481E0858754
:1050D000FC87EB8785E897E29A838983CE010B965C
:1050E0009C838B83CD82DE82EF82F8860A97908B39
:1050F00087870E9494271FBF882311F08DEC08C07A
:1051000080E00E94122480E003C089EC01C088EC9A
:105110002C960FB6F894DEBF0FBECDBFDF91CF91B6
:105120001F91FF90EF90DF90CF9008951F93CF9342
:10513000DF930097B9F0EC011FB7F894E881F9818B
:1051400082E0868768817981FB01108A17868C81CD
:105150009D810E94B4236881798188E89DE00E9446
:1051600055231FBFDF91CF911F910895CF92DF92FA
:10517000EF92FF92CF93DF93EC01CB016C817D81A5
:105180002A893B89620F731F4E815F810E94AE3571
:105190002E813F8148855985CA88DB88EC88FD8847
:1051A000C20ED31EE41EF51ECA8ADB8AEC8AFD8A73
:1051B0008E899F89A88DB98D0197A109B1098E8B20
:1051C0009F8BA88FB98F6A857B858C859D850E9472
:1051D000BA32C616D706E806F90620F01A8A1B8AE4
:1051E0001C8A1D8ACE010E949523EC010097A9F02C
:1051F000BC0188E89DE00E945523811110C01E86E5
:105200008F859889009719F4188A1F8606C00E9416
:10521000B9278823C9F38DEC03C080E001C08CEC72
:10522000DF91CF91FF90EF90DF90CF900895CF92D4
:10523000DF92EF92FF92CF93DF93EC012C813D81BF
:105240008E859F854E815F81820F931F0E94AE35B0
:105250002E813F8148855985CE84DF84E888F9888E
:10526000C20ED31EE41EF51ECE86DF86E88AF98ABA
:105270008E899F89A88DB98D0196A11DB11D8E8B38
:105280009F8BA88FB98F6A857B858C859D850E94B1
:10529000BA32C616D706E806F90620F01E861F8623
:1052A000188A198ACE0102960E949523EC01009774
:1052B000A9F0BC0188E89DE00E945523811110C02F
:1052C0001E868F859889009719F4188A1F8606C054
:1052D0000E94B9278823C9F38DEC03C080E001C088
:1052E0008CECDF91CF91FF90EF90DF90CF900895FD
:1052F000EF92FF920F931F93FC01892B49F16115E7
:10530000710531F1211531054105510509F1E1140E
:10531000F10401051105E1F0758364832683378369
:1053200040875187E286F3860487158711821082B1
:105330001382128216861786108A118A128A138A9D
:10534000148A158A168A178A108E118E80E001C081
:1053500089EC1F910F91FF90EF900895BF92CF922B
:10536000DF92EF92FF920F931F93CF93DF930097FB
:1053700009F43FC08C01E12C6C0182E0C80ED11C05
:105380008AECB82EFFB6F894C6010E949523EC0172
:10539000892B31F4C8010E949523EC01892BE1F09F
:1053A000BE86BE0188E89DE00E945523882319F03F
:1053B000FFBECCEC13C08F859889009749F00E94FE
:1053C000B927882319F0FFBECDEC08C0188A1F86C4
:1053D000FFBEEE24E394D6CFFFBEC0E081E0E8122A
:1053E00009C00E944723892B29F080E00E941224E3
:1053F00001C0C9EC8C2FDF91CF911F910F91FF90CD
:10540000EF90DF90CF90BF9008954F925F926F9290
:105410007F928F929F92AF92BF92CF92DF92EF9244
:10542000FF920F931F93CF93DF93CDB7DEB76097B3
:105430000FB6F894DEBF0FBECDBF009709F47FC052
:105440002115310509F47BC059012A013B016C018A
:105450000FB7F894FC0186899789A08DB18D892BAF
:105460008A2B8B2B09F05DC077FD58C00E94472323
:105470007C01009709F44FC04601F2E08F0E911CA9
:10548000BC01C4010E945523811142C081E0F70193
:105490008587411451046104710419F1FC86EB867F
:1054A000DE86CD86988A8F8686E998E29A838983FC
:1054B000CE010B969C838B834D825E826F827886B1
:1054C0000A97908B87870E949427882369F0B701F9
:1054D000C4010E94B423F7011586108A17861DECBB
:1054E00004C0F701108A178610E00FBF111128C001
:1054F00080E00E941224F7011685111121C00FB718
:10550000F894B501C6010E94B628182F0FBF18C025
:105510000FBF1CEC15C00FBF18EC12C00FBF13E07B
:105520000FC0B901C6010E94B628182F0FBF0E94F4
:105530004723892B29F080E00E94122401C019EC36
:10554000812F60960FB6F894DEBF0FBECDBFDF91FE
:10555000CF911F910F91FF90EF90DF90CF90BF9070
:10556000AF909F908F907F906F905F904F90089535
:105570004F925F926F927F92AF92BF92CF92DF92E3
:10558000EF92FF920F931F93CF93DF93CDB7DEB7C8
:1055900060970FB6F894DEBF0FBECDBF009709F439
:1055A00080C02115310509F47CC059012A013B0155
:1055B0007C010FB7F894FC0146895789608D718D85
:1055C00082859385A485B585481759076A077B07A7
:1055D00009F059C077FC54C00E9447236C01009722
:1055E00009F44BC0BC01C7010E945523811142C080
:1055F00081E0F6018587411451046104710419F1B9
:10560000DC86CB86FE86ED86F88AEF8686E998E210
:105610009A838983CE010B969C838B834D825E8215
:105620006F8278860A97908B87870E9494278823B9
:1056300069F0B601C7010E94B423F6011586108AED
:1056400017861DEC04C0F601108A178610E00FBF04
:10565000111128C080E00E941224F6011685111154
:1056600021C00FB7F894B501C7010E941729182F60
:105670000FBF18C00FBF1CEC15C00FBF18EC12C035
:105680000FBF13E00FC0B901C7010E941729182FDF
:105690000FBF0E944723892B29F080E00E9412242B
:1056A00001C019EC812F60960FB6F894DEBF0FBED3
:1056B000CDBFDF91CF911F910F91FF90EF90DF90C1
:1056C000CF90BF90AF907F906F905F904F90089574
:1056D0000E9447237894009771F0DC011396ED91B6
:1056E000FC911497309739F015966D917D918D91BD
:1056F0009C9118970994089528E63BE2FB012083CA
:105700003197308331971082319710823197108210
:105710003197108231971082319710823197108221
:105720003197108231971082319710823197108211
:105730003197108231971082319710823197108201
:10574000319710823197108231971082645171091C
:10575000FC0171836083089586E891E0909389004D
:105760008093880082E080936F008CE080938100BA
:1057700008951F920F920FB60F9211240BB60F923D
:105780002F933F934F935F936F937F938F939F9349
:10579000AF93BF93EF93FF930E943D230E94F427A2
:1057A00081E00E94CE24FF91EF91BF91AF919F9134
:1057B0008F917F916F915F914F913F912F910F90BA
:1057C0000BBE0F900FBE0F901F9018951F920F9257
:1057D0000FB60F9211240F900FBE0F901F901895C7
:1057E0008AE28093B8008FEF8093BB0084E08093BF
:1057F000BC0008958091BC00817008958091BC0028
:1058000080FDFCCF8091000108952091BC0020FD17
:10581000FCCF6093A70DFC0120812093A80D20FFF1
:1058200009C01092A50D88EF8093000185EA80934E
:10583000BC000895FC01319628EA3DE0D90111969B
:105840008A2F821B861768F781918C93F8CF8091FD
:10585000BC0080FDFCCF1092A50D88EF8093000165
:1058600085EA8093BC0008952091BC0020FDFCCF08
:105870002091A50D20FD04C08091A50D8170089593
:1058800028EA3DE0FC01D9018A2F821B8617A0F788
:105890008D918193F9CF1F920F920FB60F92112421
:1058A0000BB60F922F933F938F939F93EF93FF939A
:1058B0008091B900883201F140F48031D9F088310B
:1058C000D9F0883009F04AC015C0803491F128F42D
:1058D000883309F043C085EA46C08035F1F0883549
:1058E000E9F58091BB00E091A60DF0E0E855F24F9C
:1058F00080832DC01092A60DE091A60D8091A70D7A
:10590000E81728F581E08E0F8093A60DF0E0E855AA
:10591000F24F80818093BB0018C0E091A60D81E01A
:105920008E0F8093A60D8091BB00F0E0E855F24FFA
:1059300080832091A60D30E08091A70D90E0019723
:105940002817390714F485EC0EC085E80CC0809147
:10595000A50D81608093A50D84E905C08091B900F3
:105960008093000184E08093BC00FF91EF919F91B0
:105970008F913F912F910F900BBE0F900FBE0F9004
:105980001F9018950E948932882341F00E94373277
:105990008091D80082608093D80081E008950F93B1
:1059A0001F93CF93DF9300D000D0CDB7DEB7FC01BB
:1059B000818192810C9791F48285803609F0BDC473
:1059C00080818295807F8093ED008091EF008F73BE
:1059D0008093EF001092EE001082AFC48F010E94FE
:1059E00047328F3F09F4ABC490E6D8011A969C93D6
:1059F0001A978C938295807F8093ED00EEEEF0E015
:105A00001192E83FF105E1F7D8011196ED91FC9173
:105A100012973197EB30F10508F08EC4E259FF4F31
:105A20000C944D33F8018485882391F1858182950A
:105A3000869587709681F8E09F9F800D1124809352
:105A4000F300D80114968C911497829586958770EF
:105A500015969C91B8E09B9F800D11248093F200D5
:105A6000F80183818295869587709481F8E09F9FE5
:105A7000800D11248093F100D80113968C91880F2A
:105A8000880F880F8093F0008091EF00806117C02D
:105A9000F80183818695869586959481F0E29F9F93
:105AA000800D11248093F300D80113968C91829578
:105AB000880F807E8093F2008091EF008F7E80932C
:105AC000EF0080E0F8019781891760F4D8011896FB
:105AD000ED91FC911997E80FF11D90819093FA00D8
