:100000000C944A000C9469000C9469000C946900EB
:100010000C9469000C9469000C9469000C946900BC
:100020000C9469000C9469000C9469000C946900AC
:100030000C940B2B0C9469000C9469000C946900CF
:100040000C9469000C9469000C9469000C9469008C
:100050000C9469000C9469000C9469000C9469007C
:100060000C9469000C9469000C9469000C9469006C
:100070000C9469000C9469000C9469000C9469005C
:100080000C9469000C9469000C9469000C949B2BEF
:100090000C94690011241FBECFEFD0E1DEBFCDBFAD
:1000A00013E0A0E0B1E0E2E5F0E700E00BBF02C042
:1000B00007900D92AE34B107D9F72FE0AEE4B3E06C
:1000C00001C01D92AE32B207E1F70E94D9310C9403
:1000D00027380C94382BCF93DF9300D000D0CDB7C6
:1000E000DEB71B821C8281E789831A8240E050E0E0
:1000F000BA0187E29FE00E94D42562E0CE0101961A
:100100000E94572B62E0CE0103960E94842B87E267
:100110009FE00E946C268C8180FF0DC01092C60E5D
:1001200083FF0DC010926A0E0F900F900F900F90EA
:10013000DF91CF91089591E09093C60EF1CF81E0C9
:1001400080936A0EF1CFCF93DF9300D000D000D020
:10015000CDB7DEB78091010190910201A09103011A
:10016000B091040189839A83AB83BC8340E050E063
:10017000BA0187E29FE00E94D42564E0CE01019697
:100180000E94572B80E98D831E8262E0CE01059686
:100190000E94572B87E29FE00E946C2626960FB69E
:1001A000F894DEBF0FBECDBFDF91CF910895CF93FE
:1001B000DF9300D000D000D0CDB7DEB7809105012D
:1001C00090910601A0910701B091080189839A835B
:1001D000AB83BC8340E050E0BA0187E29FE00E941D
:1001E000D42564E0CE0101960E94572B88E88D83C8
:1001F00081E08E8310928E0D10928D0D62E0CE0103
:1002000005960E94572B87E29FE00E946C26269657
:100210000FB6F894DEBF0FBECDBFDF91CF9108952A
:10022000CF93DF9300D0CDB7DEB788E8898381E034
:100230008A8340E050E0BA0187E29FE00E94D42523
:1002400062E0CE0101960E94572B87E29FE00E9458
:100250006C260F900F90DF91CF9108951F93CF934D
:10026000DF9300D000D000D0CDB7DEB70E941001E0
:1002700019E81C831D821E8240E050E0BA0187E22B
:100280009FE00E94D42563E0CE0104960E94572B84
:1002900019831A821B8263E0CE0101960E94842B8F
:1002A00087E29FE00E946C268A8190E0982F882741
:1002B0002B81820F911D26960FB6F894DEBF0FBEDC
:1002C000CDBFDF91CF911F910895CF93DF9300D0E1
:1002D000CDB7DEB788E8898382E08A8340E050E0CA
:1002E000BA0187E29FE00E94D42562E0CE01019628
:1002F0000E94572B87E29FE00E946C260F900F9080
:10030000DF91CF9108951F93CF93DF9300D000D05A
:1003100000D0CDB7DEB70E94650119E81C831D82AD
:100320001E8240E050E0BA0187E29FE00E94D4259F
:1003300063E0CE0104960E94572B19831A821B8218
:1003400063E0CE0101960E94842B87E29FE00E9429
:100350006C268A8190E0982F88272B81820F911D2F
:1003600026960FB6F894DEBF0FBECDBFDF91CF91BA
:100370001F9108951F93CF93DF9300D000D000D03A
:10038000CDB7DEB711E91C831D821E8240E050E02C
:10039000BA0187E29FE00E94D42563E0CE01049673
:1003A0000E94572B19831A821B8263E0CE010196AB
:1003B0000E94842B87E29FE00E946C268A8190E055
:1003C000982F88272B81820F911D26960FB6F894BF
:1003D000DEBF0FBECDBFDF91CF911F910895CF93A8
:1003E000DF9300D0CDB7DEB780E789838BEF8A83B8
:1003F00040E050E0BA0187E29FE00E94D42562E02D
:10040000CE0101960E94572B87E29FE00E946C2646
:100410000F900F90DF91CF910895CF93DF9300D08D
:10042000CDB7DEB780E789838FEF8A8340E050E065
:10043000BA0187E29FE00E94D42562E0CE010196D6
:100440000E94572B87E29FE00E946C260F900F902E
:10045000DF91CF910895FF920F931F93CF93DF9376
:1004600000D000D01F92CDB7DEB7F82E162F042F84
:1004700040E050E0BA0187E29FE00E94D42580E48A
:100480008983612F6C60402F50E0440F551F8F2DE2
:10049000807F842B862B8A8328E02B8330E1F39E98
:1004A000C0011124642B682B6C832D8365E0CE0181
:1004B00001960E94572B87E29FE00E946C260F90C6
:1004C0000F900F900F900F90DF91CF911F910F9190
:1004D000FF90089540E060E088E20E942B0240E037
:1004E00060E08EE00E942B0240E060E086E00C9429
:1004F0002B020F931F93CF93DF9300D000D0CDB783
:10050000DEB700E40B8318E01C8340E050E0BA0142
:1005100087E29FE00E94D42562E0CE0103960E940C
:10052000572B68E270E080E090E00E948827098302
:100530008CE28A8362E0CE0101960E94572B1A83D7
:1005400062E0CE0101960E94572B87E29FE00E9455
:100550006C260E946A020F900F900F900F90DF910F
:10056000CF911F910F910895CF93DF9300D0CDB716
:10057000DEB78091DC0D882369F040E060E088E020
:100580000E942B0280E489831A8262E0CE010196E8
:100590000E94572B1092DC0D0F900F90DF91CF919E
:1005A00008950F931F93CF93DF93EC018C01060FF7
:1005B000111DC017D10729F4DF91CF911F910F9121
:1005C000089540E061E089910E942B02F2CFCF9321
:1005D000DF9300D0CDB7DEB7880F89831A8240E061
:1005E00050E0BA0187E29FE00E94D42562E0CE018C
:1005F00001960E94572B87E29FE00E946C260F9085
:100600000F90DF91CF910895CF93DF9300D0CDB7B6
:10061000DEB7880F898381E08A8340E050E0BA0129
:1006200087E29FE00E94D42562E0CE0101960E94FD
:10063000572B87E29FE00E946C260F900F90DF916E
:10064000CF9108950F931F93CF93DF9300D000D0E5
:1006500000D0CDB7DEB7982F990F9C8390E39D8390
:1006600093E09E83880F816089831A821B8240E019
:1006700050E0BA0187E29FE00E94D42563E0CE01FA
:1006800004960E94572B63E0CE0101960E94572BDF
:1006900063E0CE0101960E94842B0A811B8187E2D0
:1006A0009FE00E946C26C80126960FB6F894DEBF24
:1006B0000FBECDBFDF91CF911F910F910895CF93C2
:1006C0001092C00E40E050E0BA0187E29FE00E9425
:1006D000D425C1E080E98C0F8230A8F08C2F0E94D5
:1006E0002203853A954A79F48091C00E803158F4FE
:1006F000E091C00EF0E0E358F24FC0838091C00E4D
:100700008F5F8093C00ECF5FC03821F787E29FE0F4
:10071000CF910C946C260F931F93CF93DF93CDB79B
:10072000DEB728970FB6F894DEBF0FBECDBF182FE7
:10073000880F8E8380E38F831886812F880F8160D6
:1007400089831A821B821C821D8240E050E0BA011C
:1007500087E29FE00E94D42563E0CE0106960E94C6
:10076000572B65E0CE0101960E94572B65E0CE0124
:1007700001960E94842B05E0812F0E942203853A76
:10078000954AA1F58C8190E0982F88272D81820FC2
:10079000911D90933A0D8093390D05E0812F0E94B1
:1007A0002203853A954A29F58A8190E0982F882777
:1007B0002B81820F911D90937B0D80937A0D87E2A0
:1007C0009FE00E946C2660917A0D70917B0D809164
:1007D000390D90913A0D28960FB6F894DEBF0FBEF2
:1007E000CDBFDF91CF911F910F910895015021F658
:1007F000D4CF015099F6E3CFEF92FF920F931F935E
:10080000CF93DF93CDB7DEB728970FB6F894DEBF4E
:100810000FBECDBF982F990F9E8390E39F8392E0E8
:100820009887880F816089831A821B821C821D82AF
:1008300040E050E0BA0187E29FE00E94D42563E0E7
:10084000CE0106960E94572B65E0CE0101960E94CC
:10085000572B65E0CE0101960E94842B0C811D81EF
:10086000102701271027EA80FB80FE24EF24FE24B6
:1008700087E29FE00E946C26B701C80128960FB658
:10088000F894DEBF0FBECDBFDF91CF911F910F91C6
:10089000FF90EF900895EF92FF920F931F93CF93E5
:1008A000DF93CDB7DEB728970FB6F894DEBF0FBE43
:1008B000CDBF982F990F9E8390E39F8391E09887F7
:1008C000880F816089831A821B821C821D8240E00E
:1008D00050E0BA0187E29FE00E94D42563E0CE0198
:1008E00006960E94572B65E0CE0101960E94572B79
:1008F00065E0CE0101960E94842B1D810C81FB8056
:10090000EA8087E29FE00E946C26B701C801289622
:100910000FB6F894DEBF0FBECDBFDF91CF911F9110
:100920000F91FF90EF9008951F93CF93DF9310E006
:10093000C12F012E000CDD0B8091C00E90E0C81776
:10094000D90724F0DF91CF911F910895FE01E3585C
:10095000F24F80810E944B04FE01EE0FFF1FEE0F4D
:10096000FF1FEF5EF14F608371838283938361E0A9
:1009700070E080E090E00E9488271F5FD9CF87E277
:100980009FE00E9482250E94422B40E050E0BA0185
:1009900087E29FE00E94D4250E945F030E940D021F
:1009A00064E670E080E090E00E9488270E94940452
:1009B00087E29FE00C946C2640E060E080E80E94B3
:1009C0002B020E946A0264E185EC9DE00E94D10244
:1009D00064E181E59EE00E94D10264E183E49DE050
:1009E0000E94D10264E187E09FE00C94D10284E18F
:1009F000E0E9F1E0A6EFBDE001900D928A95E1F704
:100A000084E1E0E9F1E0A4E7BEE001900D928A956F
:100A1000E1F784E1E0E9F1E0A7EABEE001900D92A0
:100A20008A95E1F784E1E0E9F1E0ABE8BEE001900E
:100A30000D928A95E1F708954F925F926F927F929F
:100A40008F929F92AF92BF92CF92DF92EF92FF92DE
:100A50001F93CF93DF93CDB7DEB72C970FB6F894E3
:100A6000DEBF0FBECDBF0E94F70486E0E7ECF1E0E9
:100A7000A6EFBDE001900D928A95E1F784E0EEECDF
:100A8000F1E0A2E0BEE001900D928A95E1F785E2E7
:100A90008093090E86E59AE39093750E8093740E09
:100AA00081E49AE390937C0E80937B0E86E0E3EDE5
:100AB000F1E0A7EABEE001900D928A95E1F78091FE
:100AC000950D882371F183E49CE49093AE0E80939E
:100AD000AD0E86E0EAEDF1E0A0EBBEE001900D92F4
:100AE0008A95E1F7139B20C08FE490E59093B70EB1
:100AF0008093B60E87E59EE390938C0E80938B0EC9
:100B00008091B50D9091B60D8230910509F4E5C143
:100B100070F4009709F4EFC10197A1F065EA71E064
:100B200013C08FE490E5D1CF83E49CE4DFCF843021
:100B3000910509F4D8C108F4D3C1069779F763EC9D
:100B400071E002C06AEA71E0FB0101900020E9F760
:100B50003197AF01461B570B8CEF9DE00E94EB34A1
:100B600086E780938D0E82E380938E0E4EE2409353
:100B70008F0E81E38093900E87E38093910E809196
:100B8000420D24E6622F0E940732805D8093060E9C
:100B90008091420D0E940732892F2AE0622F0E9425
:100BA0000732805D8093070E8091420D0E940732CC
:100BB000905D9093080E80919F0E9091A00E64E638
:100BC00070E00E943532605D6093760E80919F0EDA
:100BD0009091A00E2AE030E0B9010E943532CB019D
:100BE000B9010E943532805D8093770E4093780E74
:100BF00080919F0E9091A00EB9010E943532805DC8
:100C00008093790E40908F0D5090900D6090910DD3
:100C10007090920D60918F0D7091900D8091910D5B
:100C20009091920D0E94C93320E030E0A9010E940A
:100C30001A3387FF0CC08DE280937D0EC301B20191
:100C40000E94C93390580E9491332B013C01C3018B
:100C5000B20120EA36E841E050E00E946B328AE0BF
:100C6000C82ED12CE12CF12CCA01B901A7019601A3
:100C70000E946B32605D60937E0EC301B20120E181
:100C800037E240E050E00E946B32CA01B901A7018F
:100C900096010E946B32605D60937F0EC301B201CA
:100CA00028EE33E040E050E00E946B32CA01B90107
:100CB000A70196010E946B32605D6093800E8EE208
:100CC0008093810E94E6892E912CA12CB12CC30126
:100CD000B201A50194010E946B32CA01B901A701BA
:100CE00096010E946B32605D6093820EC301B20177
:100CF000A70196010E946B32162FCA01B901A70104
:100D000096010E946B32605D6093830E80E3810FD9
:100D10008093840E0E9422272B013C01A50194019F
:100D20000E94493229833A834B835C83C301B20119
:100D300020E737E140E050E00E9449322D833E83B6
:100D40004F835887C301B20120E43EE745E050E0FD
:100D50000E94493229873A874B875C872CE3822E91
:100D6000912CA12CB12C69817A818B819C81A50168
:100D700094010E94493269837A838B839C836D81BD
:100D80007E818F819885A50194010E9449326D83EF
:100D90007E838F83988769857A858B859C8528E1FA
:100DA00030E040E050E00E9449324B015C01698133
:100DB0007A818B819C81A70196010E944932605DF6
:100DC00060939E0E205D20939D0E1AE310939C0E5F
:100DD0006D817E818F819885A70196010E9449329D
:100DE000605D60939B0E205D20939A0E1093990E88
:100DF000C501B401A70196010E944932605D60936C
:100E0000980E205D2093970E1093960EC301B201A9
:100E100020E036ED43E850E00E944932CA01B901B2
:100E2000A70196010E944932605D6093950EC3014F
:100E3000B20120E03CE546E255E00E944932CA0199
:100E4000B901A70196010E944932605D6093940E3A
:100E5000C301B20120E038E94FE753E30E94493271
:100E6000205D2093930E84E1E6EFFDE0A5ECBDE06C
:100E700001900D928A95E1F784E1E4E7FEE0A1E5B7
:100E8000BEE001900D928A95E1F784E1E7EAFEE089
:100E9000A3E4BDE001900D928A95E1F784E1EBE8CF
:100EA000FEE0A7E0BFE001900D928A95E1F72C9655
:100EB0000FB6F894DEBF0FBECDBFDF91CF911F916B
:100EC000FF90EF90DF90CF90BF90AF909F908F906A
:100ED0007F906F905F904F9008956FEA71E034CEED
:100EE00065EB71E031CE80910D0E805D8093000E38
:100EF0006AEB71E029CE6EEB71E026CE8F929F9265
:100F0000AF92BF92CF92DF92EF92FF920F931F9317
:100F1000CF93DF93C82F0E94F70480E39AE3909366
:100F2000FC0D8093FB0D84E0C11180C1E1EEF1E086
:100F3000A6EFBDE001900D928A95E1F78091C80E71
:100F40009091C90EC8EED3E0BE010E942132605DCF
:100F50006093FC0D8EE28093FD0D8091C80E909100
:100F6000C90EBE010E94213204E610E0B8010E94C1
:100F70002132605D6093FE0D8091C80E9091C90E84
:100F8000BE010E942132B8010E9421323AE0E32ED4
:100F9000F12CB7010E942132605D6093FF0D8091BA
:100FA000CC0E9091CD0E8090CC0E9090CD0EA09056
:100FB000CC0EB090CD0EC090CA0ED090CB0EE0916A
:100FC000CA0EF091CB0E2091CA0E3091CB0EBE010D
:100FD0000E942132B8010E942132B7010E942132C1
:100FE0007F936F93C401BE010E942132B8010E9419
:100FF00021327F936F93C501BE010E9421327F93FE
:101000006F93C601BE010E942132B8010E942132B5
:10101000B7010E9421327F936F93CF01BE010E94DE
:101020002132B8010E9421327F936F93C901BE0122
:101030000E9421327F936F9387EE91E09F938F936D
:1010400087EA9EE09F938F930E9419358091D00E7E
:101050009091D10E8090D00E9090D10EA090D00E95
:10106000B090D10EC090CE0ED090CF0EE091CE0EAB
:10107000F091CF0E2091CE0E3091CF0EBE010E9486
:101080002132B8010E942132B7010E9421327F93A0
:101090006F93C401BE010E942132B8010E94213227
:1010A0007F936F93C501BE010E9421327F936F939E
:1010B000C601BE010E942132B8010E942132B7014F
:1010C0000E9421327F936F93CF01BE010E94213293
:1010D000B8010E9421327F936F93C901BE010E9423
:1010E00021327F936F938BEF91E09F938F9384E7EF
:1010F0009EE09F938F930E9419358091D40E90911A
:10110000D50E8090D40E9090D50EA090D40EB090B5
:10111000D50EC090D20ED090D30EE091D20EF091A9
:10112000D30E2091D20E3091D30E4DB75EB7405EF4
:101130005F4F0FB6F8945EBF0FBE4DBFBE010E9459
:101140002132B8010E942132B7010E9421327F93DF
:101150006F93C401BE010E942132B8010E94213266
:101160007F936F93C501BE010E9421327F936F93DD
:10117000C601BE010E942132B8010E942132B7018E
:101180000E9421327F936F93CF01BE010E942132D2
:10119000B8010E9421327F936F93C901BE010E9462
:1011A00021327F936F938FE092E09F938F938BE830
:1011B0009EE09F938F930E9419358DB79EB74096FE
:1011C0000FB6F8949EBF0FBE8DBF84E1E6EFFDE041
:1011D000A5ECBDE001900D928A95E1F784E1E4E78A
:1011E000FEE0A1E5BEE001900D928A95E1F784E171
:1011F000E7EAFEE0A3E4BDE001900D928A95E1F7F5
:1012000084E1EBE8FEE0A7E0BFE001900D928A9553
:10121000E1F7DF91CF911F910F91FF90EF90DF9059
:10122000CF90BF90AF909F908F900895E3E2F2E04F
:10123000A6EFBDE001900D928A95E1F78091980D9F
:101240009091990DC8EED3E0BE010E942132605DFD
:101250006093FC0D8091980D9091990DBE010E94B4
:10126000213204E610E0B8010E942132605D6093F3
:10127000FD0D8091980D9091990DBE010E94213233
:10128000B8010E9421322AE0E22EF12CB7010E941F
:101290002132605D6093FE0D80919C0D90919D0DBB
:1012A00080909C0D90909D0DA0909C0DB0909D0DF8
:1012B000C0909A0DD0909B0DE0919A0DF0919B0DEE
:1012C00020919A0D30919B0DBE010E942132B801F0
:1012D0000E942132B7010E9421327F936F93C40193
:1012E000BE010E942132B8010E9421327F936F9388
:1012F000C501BE010E9421327F936F93C601BE01DA
:101300000E942132B8010E942132B7010E9421328D
:101310007F936F93CF01BE010E942132B8010E94DA
:1013200021327F936F93C901BE010E9421327F93C6
:101330006F9387EE91E09F938F9387EA9EE09F9350
:101340008F930E9419358091A00D9091A10D8090EE
:10135000A00D9090A10DA090A00DB090A10DC090F7
:101360009E0DD0909F0DE0919E0DF0919F0D2091CC
:101370009E0D30919F0DBE010E942132B8010E9446
:101380002132B7010E9421327F936F93C401BE01C5
:101390000E942132B8010E9421327F936F93C501D0
:1013A000BE010E9421327F936F93C601BE010E944D
:1013B0002132B8010E942132B7010E9421327F936D
:1013C0006F93CF01BE010E942132B8010E942132E9
:1013D0007F936F93C901BE010E9421327F936F9367
:1013E0008BEF91E09F938F9384E79EE09F938F9381
:1013F0000E9419358091A40D9091A50D8090A40DA7
:101400009090A50DA090A40DB090A50DC090A20D38
:10141000D090A30DE091A20DF091A30D2091A20D0B
:101420003091A30D4DB75EB7405E5F4F0FB6F89495
:101430005EBF0FBE4DBFBE010E942132B8010E94A7
:101440002132B7010E9421327F936F93C401BE0104
:101450000E942132B8010E9421327F936F93C5010F
:10146000BE010E9421327F936F93C601BE010E948C
:101470002132B8010E942132B7010E9421327F93AC
:101480006F93CF01BE010E942132B8010E94213228
:101490007F936F93C901BE010E9421327F936F93A6
:1014A0008FE092E09F938F938BE89EE09F938F93C2
:1014B0000E9419358DB79EB740960FB6F8949EBF1F
:1014C0000FBE8DBF82CEAF92BF92CF92DF92EF92CE
:1014D000FF920F931F93CF93DF93C82F0E94F704BF
:1014E00085E0E9E2F2E0A6EFBDE001900D928A9579
:1014F000E1F785E0EFE2F2E0A0E0BEE001900D92BE
:101500008A95E1F785E0E5E3F2E0A4E7BEE001902B
:101510000D928A95E1F785E0EBE3F2E0A7EABEE001
:1015200001900D928A95E1F787E0E1E4F2E0A1EB0A
:10153000BEE001900D928A95E1F783E0E9E4F2E0E4
:10154000ABE8BEE001900D928A95E1F780E38C0F45
:1015500080938E0E83E0EDE4F2E0AFE8BEE0019010
:101560000D928A95E1F73BEBE32E3EE0F32E44EE3D
:10157000A42E4DE0B42EF501670180E2D6018D93D3
:101580006D018193B0ECCB16BEE0DB06B9F7D0E07D
:101590008E01000F111FF801E151F14F80819181FF
:1015A0004AE06BEB7EE00E94F434F801E954F24F1C
:1015B000808191814AE064EE7DE00E94F43480E213
:1015C000F7019081911101C08083D5019C91911107
:1015D00001C08C93BFEFEB1AFB0AEFEFAE1ABE0A05
:1015E000CE14DF0469F78091BB0E8093790E809151
:1015F000BC0E80937A0E8091BD0E80937B0E8091FD
:10160000BE0E80937C0E8091BF0E80937D0E8091E4
:10161000E40D8093FB0D8091E50D8093FC0D80918E
:10162000E60D8093FD0D8091E70D8093FE0D809176
:10163000E80D8093FF0DF801E452F14F8081918114
:1016400064E670E00E9421322AE030E0B9010E9495
:101650002132605D6093050E80819181B9010E9405
:101660002132805D8093060E8E01000F111F000F46
:10167000111FC801895A924F7C01DC016D917D9147
:101680008D919C910E949133605D6093830E8EE2F8
:101690008093840EF701608171818281938120E0C3
:1016A00030E040E251E40E947E340E949133862F64
:1016B0009AE0D92E6D2D0E941332905D9093850E85
:1016C000D7016D917D918D919C9120E030E048ECA7
:1016D00052E40E947E340E949133862F6D2D0E9429
:1016E0001332905D9093860EF70160817181828143
:1016F000938120E030E04AE754E40E947E340E9467
:101700009133862F6D2D0E94133297FD7BC0F70118
:1017100080819181A281B381608171818281938175
:1017200020E030E04AE754E40E947E340E94913386
:10173000862F6D2D0E941332905D9093870EC358B3
:10174000D24F88811F928F9383E592E09F938F936E
:1017500083E79DE09F938F930E9419358091730DCD
:101760008093B80E8091740D8093B90E8091750DA1
:101770008093BA0EF801EF5EF14F8081805D809317
:10178000AC0E8181805D8093AD0E8281805D8093FF
:10179000AE0E8381805D8093AF0E84E1E6EFFDE0C5
:1017A000A5ECBDE001900D928A95E1F784E1E4E7B4
:1017B000FEE0A1E5BEE001900D928A95E1F784E19B
:1017C000E7EAFEE0A3E4BDE001900D928A95E1F71F
:1017D00084E1EBE8FEE0A7E0BFE001900D928A957E
:1017E000E1F70F900F900F900F900F900F90DF91F7
:1017F000CF911F910F91FF90EF90DF90CF90BF900E
:10180000AF90089580E28093870E99CF0E94F704ED
:1018100080910A0E81113CC087E0E8E5F2E0A6EF76
:10182000BDE001900D928A95E1F788E0E0E6F2E0F4
:10183000AEEFBDE001900D928A95E1F784E1E6EF0D
:10184000FDE0A5ECBDE001900D928A95E1F784E101
:10185000E4E7FEE0A1E5BEE001900D928A95E1F794
:1018600084E1E7EAFEE0A3E4BDE001900D928A95F1
:10187000E1F784E1EBE8FEE0A7E0BFE001900D9224
:101880008A95E1F766E970E080E090E00C948827A3
:1018900084E0E9E6F2E0A6EFBDE001900D928A95C2
:1018A000E1F787E0EEE6F2E0ABEFBDE0C3CF0E94E8
:1018B000F70485E0E6E7F2E0A6EFBDE001900D92C7
:1018C0008A95E1F789E0ECE7F2E0ACEFBDE001904A
:1018D0000D928A95E1F784E1E6EFFDE0A5ECBDE02D
:1018E00001900D928A95E1F784E1E4E7FEE0A1E53D
:1018F000BEE001900D928A95E1F784E1E7EAFEE00F
:10190000A3E4BDE001900D928A95E1F784E1EBE854
:10191000FEE0A7E0BFE001900D928A95E1F766E94D
:1019200070E080E090E00C9488270E94F70484E047
:10193000E9E6F2E0A6EFBDE001900D928A95E1F7AD
:1019400080910A0E882399F186E0E8E8F2E0ABEF97
:10195000BDE001900D928A95E1F784E1E6EFFDE0AC
:10196000A5ECBDE001900D928A95E1F784E1E4E7F2
:10197000FEE0A1E5BEE001900D928A95E1F784E1D9
:10198000E7EAFEE0A3E4BDE001900D928A95E1F75D
:1019900084E1EBE8FEE0A7E0BFE001900D928A95BC
:1019A000E1F766E970E080E090E00C94882788E039
:1019B000E6E8F2E0CCCFCF92DF92EF92FF920F9366
:1019C0001F93CF930E9422276093660E7093670E39
:1019D0008093680E9093690E0E94F70485E0EFE80B
:1019E000F2E0A6EFBDE001900D928A95E1F784E563
:1019F0009FE49093FD0D8093FC0D27E0E5E9F2E074
:101A0000AFEFBDE001900D922A95E1F723E0EDE9FB
:101A1000F2E0A7EABEE001900D922A95E1F725E0F9
:101A2000E1EAF2E0ABEABEE001900D922A95E1F71F
:101A300026E0E7EAF2E0A1EBBEE001900D922A95E4
:101A4000E1F79093750E8093740E84E0EEEAF2E075
:101A5000A7E7BEE001900D928A95E1F787E0E3EBFE
:101A6000F2E0ACE7BEE001900D928A95E1F784E1E7
:101A7000E6EFFDE0A5ECBDE001900D928A95E1F75F
:101A800084E1E4E7FEE0A1E5BEE001900D928A95D5
:101A9000E1F784E1E7EAFEE0A3E4BDE001900D9206
:101AA0008A95E1F784E1EBE8FEE0A7E0BFE0019072
:101AB0000D928A95E1F784E6C82ED12CE12CF12C09
:101AC0000E9422270091660E1091670E2091680EE9
:101AD0003091690EC0911B0F601B710B820B930B31
:101AE000A70196010E9449328C2F90E0A0E0B0E05F
:101AF00082179307A407B50780F08091ED0E882325
:101B000071F00E9422276093660E7093670E809397
:101B1000680E9093690E1092ED0E80E01EC08091C9
:101B2000A50E882369F00E9422276093660E7093A9
:101B3000670E8093680E9093690E1092A50EEDCFFC
:101B4000189913C00E9422276093660E7093670E47
:101B50008093680E9093690E81E0CF911F910F9151
:101B6000FF90EF90DF90CF9008956AE070E080E002
:101B700090E00E948827A4CF4F925F926F927F924D
:101B80008F929F92AF92BF92CF92DF92EF92FF928D
:101B90000F931F93CF930E94F70486E0EBEBF2E0E4
:101BA000A6EFBDE001900D928A95E1F786E0E2ECA8
:101BB000F2E0ADEFBDE001900D928A95E1F785E08E
:101BC000E9ECF2E0A4E7BEE001900D928A95E1F71E
:101BD00085E0EFECF2E0A7EABEE001900D928A9575
:101BE000E1F7C1E0C093160D8091160D1F928F93FF
:101BF00085ED92E09F938F9388E89EE09F938F936B
:101C00000E9419358091880E8093790E8091890EFB
:101C100080937A0E84E1E6EFFDE0A5ECBDE0019053
:101C20000D928A95E1F784E1E4E7FEE0A1E5BEE0EC
:101C300001900D928A95E1F784E1E7EAFEE0A3E4E2
:101C4000BDE001900D928A95E1F784E1EBE8FEE0BA
:101C5000A7E0BFE001900D928A95E1F76AE070E09D
:101C600080E090E00E948827C0936B0E0F900F9049
:101C70000F900F900F900F9024E6422E512C612C64
:101C8000712C05ED12E038E8E32E3EE0F32E49E03A
:101C9000842E912C5AEDC52E5EE0D52E66EAA62E36
:101CA0006DE0B62E0E9422272091660E3091670EBD
:101CB0004091680E5091690EC0911B0F621B730B0F
:101CC000840B950BA30192010E9449328C2F90E066
:101CD000A0E0B0E082179307A407B50708F49EC3FD
:101CE0008091ED0E882309F445C00E94222760935D
:101CF000660E7093670E8093680E9093690E8091C4
:101D00006B0E8F5F80936B0E80916B0E8093160D20
:101D10008091160D1F928F931F930F93FF92EF9256
:101D20000E9419351092ED0E0F900F900F900F90AA
:101D30000F900F908091880E8093790E8091890E7C
:101D400080937A0EE091160D8E2F90E0FC01319772
:101D50008E169F0608F4D9C0E055F14F0C948A32D4
:101D6000DE0E6A0F6D0F700F730F760F790F7C0FF9
:101D70007F0F820F8091A50E8823E1F20E94222717
:101D80006093660E7093670E8093680E9093690E51
:101D900080916B0E815080936B0E80916B0E8093BF
:101DA000160D8091160D1F928F931F930F93FF9224
:101DB000EF920E9419351092A50EB6CFC0917C0DFE
:101DC0008091160D1F928F931F930F93DF92CF92E6
:101DD0000E9419358091160D1F928F931F930F93B8
:101DE000FF92EF920E9419358DB79EB70C960FB6F1
:101DF000F8949EBF0FBE8DBFCD3209F488C01F92EC
:101E0000CF931F930F93BF92AF920E941935809189
:101E1000A60D8093AC0E8091A70D8093AD0E0F9010
:101E20000F900F900F900F900F9084E1E6EFFDE080
:101E3000A5ECBDE001900D928A95E1F784E1E4E71D
:101E4000FEE0A1E5BEE001900D928A95E1F784E104
:101E5000E7EAFEE0A3E4BDE001900D928A95E1F788
:101E600084E1EBE8FEE0A7E0BFE001900D928A95E7
:101E7000E1F718994FC00E9422276093660E709375
:101E8000670E8093680E9093690E64E170E080E0C5
:101E900090E00E94882780E090E0FC01E45EF04F33
:101EA00030812091160D3217E1F101968A309105AB
:101EB000A1F7CF911F910F91FF90EF90DF90CF90FE
:101EC000BF90AF909F908F907F906F905F904F905A
:101ED0000C94060CC091EE0E73CFC0910A0E70CF19
:101EE000C091B00D6DCFC091C70E6ACFC0911B0FCE
:101EF00067CFC091DA0D64CFC091C50E61CFC0919C
:101F0000260F5ECFC091650E5BCFCDE259CFC09357
:101F1000AC0E8BCF6AE070E080E090E00E948827F2
:101F2000C1CE0E94F70486E0EBEBF2E0A6EFBDE045
:101F300001900D928A95E1F786E0E2ECF2E0ADEFD8
:101F4000BDE001900D928A95E1F785E0EFE8F2E0BF
:101F5000A7EABEE001900D928A95E1F783E0EAEDF1
:101F6000F2E0ADEABEE001900D928A95E1F7809132
:101F7000160D833049F085E0EEEDF2E0A4E7BEE017
:101F800001900D928A95E1F784E0E4EEF2E0AFE78C
:101F9000BEE001900D928A95E1F785E0E9EEF2E06E
:101FA000ABE8BEE001900D928A95E1F78091880E32
:101FB0008093900E8091890E8093910EC091160DA2
:101FC000CC2ED12CF6013197EA30F10590F4E55191
:101FD000F04F0C948A32F50FED10F010F310F6105C
:101FE000F910FC10FF100211051180917C0D8093F7
:101FF000160D8091160D1F928F9305ED12E01F9321
:102000000F938AED9EE09F938F930E9419358091E4
:10201000160D1F928F931F930F9388E89EE09F9356
:102020008F930E9419358DB79EB70C960FB6F89412
:102030009EBF0FBE8DBFC33041F08091DA0E8093FA
:10204000790E8091DB0E80937A0E8091880E8093BA
:10205000830E8091890E8093840E84E1E6EFFDE08B
:10206000A5ECBDE001900D928A95E1F784E1E4E7EB
:10207000FEE0A1E5BEE001900D928A95E1F784E1D2
:10208000E7EAFEE0A3E4BDE001900D928A95E1F756
:1020900084E1EBE8FEE0A7E0BFE001900D928A95B5
:1020A000E1F76FE070E080E090E00E948827809187
:1020B000160D80936B0E84E6482E512C612C712CEA
:1020C00005ED12E098E8A92E9EE0B92E0E94222785
:1020D0002091660E3091670E4091680E5091690E06
:1020E00090901B0F621B730B840B950BA301920145
:1020F0000E944932892D90E0A0E0B0E0821793075A
:10210000A407B50708F48AC18091ED0E882309F46D
:102110007FC080916B0E8F5F80936B0E80916B0EF2
:102120008093160D0E9422276093660E7093670EAF
:102130008093680E9093690E8091160D1F928F9375
:102140001F930F93BF92AF920E9419351092ED0E1C
:102150000F900F900F900F900F900F90C33041F0A1
:102160008091DA0E8093790E8091DB0E80937A0E47
:102170008091880E8093830E8091890E8093840EC7
:1021800084E1E6EFFDE0A5ECBDE001900D928A95BB
:10219000E1F784E1E4E7FEE0A1E5BEE001900D9205
:1021A0008A95E1F784E1E7EAFEE0A3E4BDE001906F
:1021B0000D928A95E1F784E1EBE8FEE0A7E0BFE04D
:1021C00001900D928A95E1F7189B47C06FE070E08F
:1021D00080E090E00E94882779CF8091EE0E07CFB3
:1021E00080910A0E04CF8091B00D01CF8091C70E6F
:1021F000FECE80911B0FFBCE8091DA0DF8CE809140
:10220000C50EF5CE8091260FF2CE8091650EEFCEF1
:102210008091A50E882309F4A1CF80916B0E815087
:1022200080936B0E80916B0E8093160D0E94222777
:102230006093660E7093670E8093680E9093690E9C
:102240008091160D1F928F931F930F93BF92AF92A1
:102250000E9419351092A50E7BCF64E670E080E0F5
:1022600090E00E948827C330C9F00E94DB0C8111E6
:1022700015C064E170E080E090E0CF911F910F9174
:10228000FF90EF90DF90CF90BF90AF909F908F9096
:102290007F906F905F904F900C94882764E170E07E
:1022A00080E090E00E948827F6013197EA30F1053E
:1022B00000F7E35AFE4E0C948A32671174118111B3
:1022C000B311C011CD11DA11E711F41101126091AF
:1022D000160D88E090E00E941A3888E090E00E9495
:1022E000123880937C0DC5CF6091160D89E090E087
:1022F0000E941A3889E090E00E9412388093EE0E16
:10230000B8CF8091160D8F3F59F580910A0E61E08C
:10231000811160E082E090E00E941A3882E090E053
:102320000E94123880930A0E0E94950C80910A0E2A
:10233000882309F49ECF8091B50D9091B60D049736
:1023400009F097CF8091DB0D843009F092CF86E0C1
:1023500090E09093B60D8093B50D10920C0E89CF3E
:102360000E94570C86CF6091160D83E090E00E948A
:102370001A3883E090E00E9412388093B00D79CF34
:102380006091160D84E090E00E941A3884E090E09D
:102390000E9412388093C70E6CCF6091160D85E0B5
:1023A00090E00E941A3885E090E00E9412388093F5
:1023B0001B0F5FCF6091160D86E090E00E941A38E7
:1023C00086E090E00E9412388093DA0D52CF60913F
:1023D000160D8AE090E00E941A388AE090E00E9490
:1023E00012388093C50E45CF6091160D8BE090E0BA
:1023F0000E941A388BE090E00E9412388093260FDA
:1024000038CF6091160D8CE090E00E941A388CE075
:1024100090E00E9412388093650E2BCFCF911F91D0
:102420000F91FF90EF90DF90CF90BF90AF909F9073
:102430008F907F906F905F904F9008950E94F70467
:1024400085E0EFEEF2E0A6EFBDE001900D928A95F7
:10245000E1F784E0E5EFF2E0ACEFBDE001900D9232
:102460008A95E1F787E0EAEFF2E0A4E7BEE00190A9
:102470000D928A95E1F786E0E2E0F3E0A7EABEE09C
:1024800001900D928A95E1F784E0E9E0F3E0ABE892
:10249000BEE001900D928A95E1F784E1E6EFFDE060
:1024A000A5ECBDE001900D928A95E1F784E1E4E7A7
:1024B000FEE0A1E5BEE001900D928A95E1F784E18E
:1024C000E7EAFEE0A3E4BDE001900D928A95E1F712
:1024D00084E1EBE8FEE0A7E0BFE001900D928A9571
:1024E000E1F708950E94F70485E0EEE0F3E0A6EF3F
:1024F000BDE001900D928A95E1F785E0EFE8F2E00A
:10250000ACEFBDE001900D928A95E1F784E59FE480
:102510009093030E8093020E87E0E4E1F3E0A7EAD4
:10252000BEE001900D928A95E1F784E0ECE1F3E0E2
:10253000AFEABEE001900D928A95E1F784E0E5EF05
:10254000F2E0A4EBBEE001900D928A95E1F784E100
:10255000E6EFFDE0A5ECBDE001900D928A95E1F774
:1025600084E1E4E7FEE0A1E5BEE001900D928A95EA
:10257000E1F784E1E7EAFEE0A3E4BDE001900D921B
:102580008A95E1F784E1EBE8FEE0A7E0BFE0019087
:102590000D928A95E1F708950E94F70485E0EEE038
:1025A000F3E0A6EFBDE001900D928A95E1F785E09A
:1025B000EFE8F2E0ACEFBDE001900D928A95E1F713
:1025C00084E59FE49093030E8093020E87E0E4E19C
:1025D000F3E0A7EABEE001900D928A95E1F784E06E
:1025E000ECE1F3E0AFEABEE001900D928A95E1F7ED
:1025F0008BE0E1E2F3E0A4E7BEE001900D928A9562
:10260000E1F784E1E6EFFDE0A5ECBDE001900D927D
:102610008A95E1F784E1E4E7FEE0A1E5BEE0019000
:102620000D928A95E1F784E1E7EAFEE0A3E4BDE0DC
:1026300001900D928A95E1F784E1EBE8FEE0A7E0D6
:10264000BFE001900D928A95E1F708950E94F7048A
:1026500085E0EEE0F3E0A6EFBDE001900D928A95F3
:10266000E1F785E0EFE8F2E0ACEFBDE001900D921C
:102670008A95E1F784E59FE49093030E8093020E20
:1026800087E0E4E1F3E0A7EABEE001900D928A95CD
:10269000E1F786E0EDE2F3E0AFEABEE001900D92F3
:1026A0008A95E1F786E0E4E3F3E0A4E7BEE0019079
:1026B0000D928A95E1F784E1E6EFFDE0A5ECBDE03F
:1026C00001900D928A95E1F784E1E4E7FEE0A1E54F
:1026D000BEE001900D928A95E1F784E1E7EAFEE021
:1026E000A3E4BDE001900D928A95E1F784E1EBE867
:1026F000FEE0A7E0BFE001900D928A95E1F7089512
:102700004F925F926F927F928F929F92AF92BF9201
:10271000CF92DF92EF92FF921F93CF93DF93CDB7CB
:10272000DEB728970FB6F894DEBF0FBECDBFF82EE8
:102730000E94F70485E0EFE3F3E0A6EFBDE001902F
:102740000D928A95E1F783E0E5E4F3E0ACEFBDE0BC
:1027500001900D928A95E1F786E0E7ECF1E0A4E7BD
:10276000BEE001900D928A95E1F784E0E9E4F3E0A0
:10277000A7EABEE001900D928A95E1F784E1E6EFC9
:10278000FDE0A5ECBDE001900D928A95E1F784E1B2
:10279000E4E7FEE0A1E5BEE001900D928A95E1F745
:1027A00084E1E7EAFEE0A3E4BDE001900D928A95A2
:1027B000E1F784E1EBE8FEE0A7E0BFE001900D92D5
:1027C0008A95E1F78F2D90E0FC01EE0FFF1FE3509B
:1027D000F14FE080F180880F991F880F991FFC014D
:1027E000E95EF24F408051806280738082E0E8169B
:1027F000F10409F4F2C108F0E3C1E114F10409F4B1
:10280000FAC1F1E0EF16F10409F4F8C165EA71E0EC
:10281000FB0101900020E9F73197AF01461B570BF0
:102820008AE79EE00E94EB3484E0E816F10409F0A8
:1028300043C080910E0E805D80938B0E80910D0EB3
:102840008111DFC180910F0E9091100E28EE33E0C0
:10285000B9010E942132605D6093050E80910F0ED8
:102860009091100EB9010E942132E4E6F0E0BF0120
:102870000E942132605D6093060E80910F0E909150
:10288000100EB9010E942132BF010E9421322AE0BC
:1028900030E0B9010E942132605D6093070E8EE244
:1028A0008093080E80910F0E9091100EB9010E9436
:1028B0002132805D8093090EC301B20124E630E02D
:1028C00040E050E00E94493229833A834B835C8385
:1028D000C301B20120E737E140E050E00E944932F5
:1028E00049015A01C301B20120E43EE745E050E04E
:1028F0000E94493269017A0169817A818B819C81C8
:102900002CE330E040E050E00E94493269837A8352
:102910008B839C83C501B4012CE330E040E050E0A0
:102920000E9449326D837E838F839887C701B601E9
:1029300028E130E040E050E00E9449326B017C0128
:102940008AE0882E912CA12CB12C69817A818B810F
:102950009C81A50194010E944932605D6093BA0E8A
:10296000205D2093B90E1AE31093B80E6D817E811D
:102970008F819885A50194010E944932605D609322
:10298000B70E205D2093B60E1093B50EC701B601A9
:10299000A50194010E944932605D6093B40E205DF0
:1029A0002093B30E1093B20EC301B20120E036EDB6
:1029B00043E850E00E944932CA01B901A5019401DF
:1029C0000E944932605D6093B10EC301B20120E004
:1029D0003CE546E255E00E944932CA01B901A50131
:1029E00094010E944932605D6093B00EC301B20150
:1029F00020E038E94FE753E30E944932205D2093FD
:102A0000AF0E0E9422276B017C0124E630E040E0FB
:102A100050E00E94493229833A834B835C83C7018B
:102A2000B60120E737E140E050E00E944932290139
:102A30003A01C701B60120E43EE745E050E00E94BC
:102A400049322D833E834F83588769817A818B81F8
:102A50009C812CE330E040E050E00E9449326983E1
:102A60007A838B839C83C301B2012CE330E040E086
:102A700050E00E9449322B013C016D817E818F81A3
:102A8000988528E130E040E050E00E9449326D83B3
:102A90007E838F83988769817A818B819C81A50150
:102AA00094010E944932605D60939E0E205D2093E8
:102AB0009D0E10939C0EC301B201A50194010E94CA
:102AC0004932605D60939B0E205D20939A0E1093B7
:102AD000990E6D817E818F819885A50194010E9458
:102AE0004932605D6093980E205D2093970E10939D
:102AF000960EC701B60120E036ED43E850E00E9493
:102B00004932CA01B901A50194010E944932605DB0
:102B10006093950EC701B60120E03CE546E255E022
:102B20000E944932CA01B901A50194010E944932AB
:102B3000605D6093940EC701B60120E038E94FE76D
:102B400053E30E944932205D2093930E84E1E6EF27
:102B5000FDE0A5ECBDE001900D928A95E1F784E1DE
:102B6000E4E7FEE0A1E5BEE001900D928A95E1F771
:102B700084E1E7EAFEE0A3E4BDE001900D928A95CE
:102B8000E1F784E1EBE8FEE0A7E0BFE001900D9201
:102B90008A95E1F728960FB6F894DEBF0FBECDBF39
:102BA000DF91CF911F91FF90EF90DF90CF90BF907A
:102BB000AF909F908F907F906F905F904F9008950F
:102BC00084E0E816F10479F058F0F6E0EF16F1042D
:102BD00009F01CCE63EC71E01BCE6FEA71E018CEF9
:102BE0006BE373E015CE80910D0E805D80937E0EB9
:102BF0006AEB71E00DCE6EEB71E00ACE6AEA71E02D
:102C000007CE80910D0E813009F056CE80910F0EC7
:102C10009091100E28EE33E0B9010E942132605DE0
:102C20006093050E8EE28093060E80910F0E9091B8
:102C3000100EB9010E942132E4E6F0E0BF010E94CB
:102C40002132605D6093070E80910F0E9091100EFF
:102C5000B9010E942132BF010E9421322AE030E0F6
:102C6000B9010E942132605D6093080E1BCE84B1D1
:102C7000887F84B985B1876085B908950E94371629
:102C800062E370E080E090E00E948827C1E0C0939A
:102C9000AF0D1A9927C08091150D811123C0C093E3
:102CA000150DC093ED0E6EE170E080E090E00E94A3
:102CB0008827189B06C08091140D811102C01092C4
:102CC000D90D1A9B06C08091ED0E811102C01092A1
:102CD000150D199BDCCF8091A50E8111D8CF1092D4
:102CE0000B0ED5CF199909C080910B0E811105C02B
:102CF000C0930B0EC093A50ED6CF1899DACF809152
:102D0000D90D8111D6CFC093D90DC093140DCBCF5F
:102D1000EF92FF920F931F93CF93DF93CDB7DEB760
:102D20004DB75EB78091C00E2DB73EB7281B310955
:102D30000FB6F8943EBF0FBE2DBF2F5F3F4F80915F
:102D4000B50D9091B60D019709F092C08091DE0DFE
:102D5000882309F48DC01092DE0D80E09091C00EA2
:102D6000891760F0A0E08091C00E6A2F70E090E0BB
:102D7000019768177907BCF5B0E029C0F901E80FA1
:102D8000F11D80838F5FEACFB901680F791FFB01C6
:102D9000E080EE2DF0E0EE0FFF1FE853F14F0081D1
:102DA00011810196820F931FFC01F080EF2DF0E05E
:102DB000EE0FFF1FE853F14F0190F081E02DE01777
:102DC000F10720F4FC01E082FB01F082BF5F8B2F52
:102DD00090E06091C00E70E061507109861797070E
:102DE0009CF2AF5FC0CF8091C00E815097E08111FF
:102DF00011C0A1E06091C00E861748F10FB6F8949B
:102E00005EBF0FBE4DBFDF91CF911F910F91FF901D
:102E1000EF900895D901A80FB11DEC91F0E0EE0FED
:102E2000FF1FE853F14F608171811197EC91F0E041
:102E3000EE0FFF1FE853F14F0190F081E02D6E1B64
:102E40007F0B6931710508F0982F8150D0CF682F22
:102E500070E0620F731FFB016081E62FF0E0E55C1C
:102E6000F24F891718F0A0838F5FC4CF1082FCCF78
:102E70008091B50D9091B60D019709F4BFCF80E018
:102E80009091C00E891708F0B9CFE82FF0E0E55C0B
:102E9000F24F10828F5FF4CFCF93DF9300D000D03A
:102EA00000D0CDB7DEB70E94BF040E94A3000E94ED
:102EB000D7000E94790281E08093770D1092DE0D99
:102EC0002224239434E6432E512C612C712C209221
:102ED000A80D0E942227A30192010E944932633368
:102EE00071058105910508F4F0C08091770D882364
:102EF00049F01092770D2092DE0D8091DC0D81114A
:102F00000E94DC0465E070E080E090E00E94882789
:102F1000312C8091C00E381608F4DAC00E9483016B
:102F2000BC01990F880B990B0E94C9332AE037ED39
:102F300043EA5AE30E947E3421EC3AEC41E85FE335
:102F40000E947E342AE939E949E95EE30E94AD3204
:102F500020E030E040E251E40E947E340E94983349
:102F60007093A00E60939F0E0E946B000E942E0132
:102F7000092E000CAA0BBB0BB095A09590958195DE
:102F80009F4FAF4FBF4F8093B10D9093B20DA09361
:102F9000B30DB093B40D8091B10D9091B20DA0918D
:102FA000B30DB091B40D803E9E42A105B105CCF4A5
:102FB0008091B10D9091B20DA091B30DB091B40D6F
:102FC0008132914DAF4FBF4F64F08091B10D909120
:102FD000B20DA091B30DB091B40D9093EB0E809310
:102FE000EA0E8091B50D9091B60D069709F0FAC0E2
:102FF0008091950D882309F4F5C00E94EF010E948D
:10300000BA01092E000CAA0BBB0B8093B10D909353
:10301000B20DA093B30DB093B40D40E050E0BA01EF
:103020008FED9DE00E94D4258091B10D9091B20D5D
:10303000A091B30DB091B40D9C01AD016627772727
:10304000CB01621B730B840B950B0E94C9332FE6D7
:1030500032E143E059E30E947E3423ED3EEF46ED3A
:1030600052E40E947E3424EA30E74DE25FE30E949E
:10307000AE3220E030E04AE754E40E947E340E9401
:10308000913360938F0D7093900D8093910D909379
:10309000920D8FED9DE00E946C260E94881610E034
:1030A0008091C00E181708F012CFE12FF0E0DF0179
:1030B000A55CB24F8C91E358F24F813009F0E8C023
:1030C00080810E9404031F5FEBCF2092770D1ACFFF
:1030D000032D10E0F801E358F24F80810E948B032A
:1030E0006B017C019801220F331F3E832D83F90170
:1030F000E151F14F408151815A834983F901E954EB
:10310000F24F808191819C838B8396E09E9DB001DC
:103110009F9D700D112480E090E00E94C7334B0109
:103120005C01A981BA81BD0180E090E00E94C733B3
:1031300020E030E040E85AE30E947E349B01AC017D
:10314000C501B4010E947E344B015C01EB81FC811E
:10315000BF0180E090E00E94C7339B01AC01C50134
:10316000B4010E94AE320E949833ED81FE81E85393
:10317000F14F71836083000F111F000F111FF801C1
:10318000E95AF24F80809180A280B380ED81FE8168
:10319000E452F14F00811181FAEFCF1AF0E8DF0A13
:1031A000CC0CDD1CB60180E090E00E94C733A50185
:1031B00094010E947E346B017C01B80180E090E0B4
:1031C0000E94C7339B01AC01C701B6010E94AE3219
:1031D0000E949833ED81FE81E856F24F718360833F
:1031E000339497CE0E940D020E94BA01092E000C62
:1031F000AA0BBB0B8093B10D9093B20DA093B30DAE
:10320000B093B40D8091B10D9091B20DA091B30D1A
:10321000B091B40D8C3B9240A105B1050CF03DCFAF
:103220008091B10D9091B20DA091B30DB091B40DFC
:1032300085349D4FAF4FBF4F0CF42FCF40E050E08F
:10324000BA018FED9DE00E94D4256091EA0E709145
:10325000EB0E072E000C880B990B0E94C9332CEA49
:1032600035EC47E256E30E947E342FE632E143E834
:103270005AE30E941F332DE73EEA46E75FE30E94D0
:103280007E3429E839E241E15CE30E94AD32F1CEBF
:1032900080810E94E70217CF10922D0F10922C0F01
:1032A00080912C0F90912D0F079758F187E0809314
:1032B000F00D8CE69EE09093F20D8093F10D81E08D
:1032C00090E09093EB0D8093EA0D1092F50D88E05D
:1032D00090E00E94123880937C0D80917C0D8823B1
:1032E00021F080917C0D8F3F59F461E088E090E0FF
:1032F0000E941A3888E090E00E94123880937C0D7A
:103300000895E0912C0FF0912D0FE459F14F1082A8
:1033100080912C0F90912D0F019690932D0F8093FB
:103320002C0FBECF0E944C1980E00E940E2C01E0B1
:1033300088E0F82E0093AE0D80917C0D90E0982FE0
:10334000882797709093ED0D8093EC0DF092F00D1F
:103350008091B50D9091B60D80936C0E80919F0E6B
:103360009091A00E90936D0E80919F0E9091A00E63
:1033700080936E0E80918F0D9091900DA091910D84
:10338000B091920D8B2FBB2787FDB0959B2FAB2F54
:1033900080936F0E80918F0D9091900DA091910D63
:1033A000B091920DCD01BB2797FDB095AB2F8093C7
:1033B000700E80918F0D9091900DA091910DB09114
:1033C000920D892F9A2FAB2FBB27A7FDBA9580931B
:1033D000710E80918F0D9091900DA091910DB091F3
:1033E000920D8093720E8091420D8093730E89EE40
:1033F0009DE00E941B2C182F8111F9CF89EE9DE0D2
:103400000E94F6308130D1F38091A10E9091A20EEE
:10341000A091A30EB091A40E8B2FBB2787FDB09572
:103420009B2FAB2F80936C0E8091A10E9091A20EDA
:10343000A091A30EB091A40ECD01BB2797FDB0952E
:10344000AB2F80936D0E8091A10E9091A20EA09152
:10345000A30EB091A40E892F9A2FAB2FBB27A7FDE7
:10346000BA9580936E0E8091A10E9091A20EA091BC
:10347000A30EB091A40E80936F0EE12C94E0C4E0F3
:10348000D1E08091EE0EE816C0F0E12C8091EE0EB6
:10349000E81608F056C02C2F290F2AC0EC2FF0E0B8
:1034A000AE2DB0E0A55CB24F8C91E459F14F808312
:1034B000CF5FE394915009F452C08091EE0EE8166C
:1034C00068F3DFCF4C2F50E0EE2DF0E0EE0FFF1F42
:1034D000E853F14F60817181DA01A459B14F7C93B7
:1034E000608171814359514FFA016083E394925096
:1034F000C22FC91B923008F450C08091EE0EE8161E
:1035000008F3C4CF2C2F30E0E12FF0E0EE0FFF1FC7
:10351000E856F24F40815181D901A459B14F5C93D3
:1035200040815181F901E359F14F40831F5F92506F
:10353000C82FC91B923008F44EC02091EE0E12170E
:1035400008F38091EE0E181718F48C2F890FF0CF26
:1035500064E670E080E090E00E948827EBCE8091E6
:103560007C0D90E0982F88278D0F911D9770909378
:10357000ED0D8093EC0DC093F00D89EE9DE00E945F
:103580001B2CC82F8111F9CF89EE9DE00E94F630E7
:103590008130D1F3DF5F98E074CF80917C0D90E0B3
:1035A000982F88278D0F911D97709093ED0D809324
:1035B000EC0DC093F00D89EE9DE00E941B2CC82FEE
:1035C0008111F9CF89EE9DE00E94F6308130D1F370
:1035D000DF5F98E05BCF80917C0D90E0982F88278B
:1035E0008D0F911D97709093ED0D8093EC0DC0930E
:1035F000F00D89EE9DE00E941B2CC82F8111F9CFA0
:1036000089EE9DE00E94F6308130D1F3DF5F98E0D3
:1036100098CF0C941C050E941C0586E08093210F16
:1036200087E08093220F85E090E00E94123880931B
:103630001B0F80911B0F882321F080911B0F8F3F60
:1036400059F46FE085E090E00E941A3885E090E040
:103650000E94123880931B0F86E090E00E9412387F
:103660008093DA0D8091DA0D882321F08091DA0DB4
:103670008F3F59F468E786E090E00E941A3886E0B0
:1036800090E00E9412388093DA0D0E942227609306
:10369000660E7093670E8093680E9093690E64E6D1
:1036A00070E080E090E00E948827D0E0C0E001E078
:1036B00084E6C82ED12CE12CF12C0093A90D0E9498
:1036C00022278090660E9090670EA090680EB090B2
:1036D000690E10911B0F681979098A099B09A701C6
:1036E00096010E944932812F90E0A0E0B0E082175D
:1036F0009307A407B50710F4D0E0C0E00E9422278A
:103700008090660E9090670EA090680EB090690E43
:103710001091DA0D681979098A099B09A7019601A8
:103720000E944932812F90E0A0E0B0E08217930719
:10373000A407B507F8F40E94B40218998AC00E9441
:1037400022276093660E7093670E8093680E9093A5
:10375000690ED13009F465C0E8F1D23009F469C0CE
:10376000D33009F46EC064E170E080E090E00E9424
:103770008827A3CF0093DC0DD13001F138F0D2308F
:1037800009F1D33019F10E941C05D7CFC23081F066
:103790003CF4CC23C1F3C130B1F70E947212CDCFFB
:1037A000C33049F0CF3079F70E94BC0DC0E0C5CFDF
:1037B0000E94CC12C2CF0E942613BFCF8C2F0E9432
:1037C0007E07BBCF8C2F0E94630AB7CF8C2F0E943D
:1037D0008013B3CFC130B1F04CF4C111C4CF80918C
:1037E000DC0D882309F4BFCFCFE0BDCFC23091F00C
:1037F000C33009F0B8CF8091DC0D882309F4B3CF32
:10380000D3E006C08091DC0D882309F4ACCFD1E071
:10381000C0E0A9CF8091DC0D882309F4A4CFD2E0C9
:10382000F7CF8091DC0D882309F49DCFD0E0C1E073
:103830009ACF8091DC0D882309F495CFD0E0C2E0C7
:1038400092CF8091DC0D882309F48DCFD0E0C3E0C6
:103850008ACF8091A50E882399F10E942227609338
:10386000660E7093670E8093680E9093690E809138
:10387000DC0D8823A1F0CF5FC43011F4DD23F1F01B
:103880008091C00E90E02C2F0C2E000C330B2817CB
:10389000390741F4D23031F4C091C00EC1501092BA
:1038A000A50E61CFC23021F4D130C9F7C1E0F7CF06
:1038B000C530A9F7D33099F7C4E0F1CFC3E0EFCF1B
:1038C0008091ED0E882309F44ECF0E942227609349
:1038D000660E7093670E8093680E9093690E8091C8
:1038E000DC0D882319F0C15008F4C0E01092ED0EF1
:1038F0003ACF80E090E0FC01E855F24F108201964B
:1039000088309105C1F70895089A81E08093DD0D14
:103910001092EC0E0E94791C6EE170E080E090E065
:103920000E94882780E090E0FC01E855F24F20815A
:1039300021111CC08091EC0E8F5F8093EC0E809162
:10394000EC0E883C10F01092DD0D8091DD0D882387
:1039500049F3109863E070E080E090E00E948827CF
:10396000109A63E070E080E090E0DACF0196883052
:103970009105D1F60E94791C1092EC0EE0CF1092C6
:10398000C60E10928A0E80E09091C00E891720F02A
:103990008FED9DE00C948225E82FF0E0E55CF24F7E
:1039A00010828F5FF1CF81E090E00E941238809307
:1039B000420D8091420D882321F08091420D8F3F6E
:1039C00059F462E381E090E00E941A3881E090E0CF
:1039D0000E9412388093420D8091420D089590917B
:1039E0008A0E8091420D981751F08091420D80937C
:1039F0008A0E6091420D81E090E00C941A3808958F
:103A0000CF93DF9300D000D0CDB7DEB70E94BF1CAC
:103A1000412C512C320111E004E634E6332E4CE9FE
:103A2000842E99249A94A92CB92C1093AA0D8091D4
:103A3000B50D9091B60D892BC1F38091B50D909184
:103A4000B60D019721F482B1806382B908C08091DC
:103A5000B50D9091B60D039709F0B7C0149A40E0E8
:103A60008091C00E481708F4B3C080E09091C00E5A
:103A7000891708F4D5C00E9422276B017C019B01A5
:103A8000AC01241935094609570929013A0140E0DA
:103A900050E0BA018FED9DE00E94D42560918F0D1A
:103AA0007091900D8091910D9091920D2091A10EA9
:103AB0003091A20E4091A30E5091A40E29833A8317
:103AC0004B835C83A30192010E94F731A50194010D
:103AD0000E946B3289819A81AB81BC81280F391F8A
:103AE0004A1F5B1F57FD2CC060918F0D7091900D88
:103AF0008091910D9091920D2091A10E3091A20E86
:103B00004091A30E5091A40E29833A834B835C838A
:103B1000A30192010E94F731A50194010E946B322A
:103B200089819A81AB81BC81280F391F4A1F5B1F95
:103B30002093A10E3093A20E4093A30E5093A40E97
:103B40008FED9DE00E946C266091A10E7091A20EF7
:103B50008091A30E9091A40E0E94C93320E036ED0F
:103B600043E05AE40E947934181664F56091A10E7E
:103B70007091A20E8091A30E9091A40E0E94C93361
:103B800028E03FEE4BE45DE40E941A3387FF1AC041
:103B90006091A10E7091A20E8091A30E9091A40E3F
:103BA0000E94C93320E63EEF4DE45DE40E941F33DE
:103BB00020E030E048EC52E40E947E340E949833CA
:103BC0006093420D2601370130CF82B18F7C3DCF0B
:103BD000E42FF0E0EE0FFF1FE853F14F2081318119
:103BE0008091260F809FC001112482179307B0F4A3
:103BF0008091C60E882391F0808191810A9671F0A0
:103C000080E096EEAFEDBCE08093A10E9093A20E03
:103C1000A093A30EB093A40E3092420D4F5F20CF1D
:103C2000E82FF0E0EE0FFF1FE853F14F4081518184
:103C30002091C50E209F900111244217530750F484
:103C40001092A10E1092A20E1092A30E1092A40E2A
:103C50001092420D8F5F0ACF139A81B1896381B9A7
:103C60001092950D08950E942C1E91E09093AB0D3B
:103C700080B182FB882780F989278093950D209158
:103C8000B50D3091B60D2630310521F41398809191
:103C9000950DECCF139AEACF8EE390E09093DD0E72
:103CA0008093DC0E86E490E09093DF0E8093DE0E2E
:103CB0008BE290E09093E10E8093E00E89E390E038
:103CC0009093E30E8093E20E80E290E09093E50EF5
:103CD0008093E40E81E390E09093E70E8093E60EEC
:103CE0008EE190E09093E90E8093E80E87E79EEBDB
:103CF000AFE3BFE38093570D9093580DA093590DF8
:103D0000B0935A0D8AEA91EFA2E3BFE380935B0D73
:103D100090935C0DA0935D0DB0935E0D8FE892ECD7
:103D2000A5E5BFE380935F0D9093600DA093610DB7
:103D3000B093620D84E69BE3AFE3BFE38093630D32
:103D40009093640DA093650DB093660D8FE395E39A
:103D5000AEE5BFE38093670D9093680DA093690D66
:103D6000B0936A0D8CE497E3A9E4BFE380936B0DF5
:103D700090936C0DA0936D0DB0936E0D8FE29DED41
:103D8000A4E6BFE380936F0D9093700DA093710D27
:103D9000B093720D89E090E00E9412388093EE0E8D
:103DA0008091EE0E882321F08091EE0E8F3F59F422
:103DB00067E089E090E00E941A3889E090E00E9474
:103DC00012388093EE0E81E080931C0F82E0809386
:103DD0001D0F83E080931E0F84E080931F0F85E00A
:103DE0008093200F88E08093220F89E08093230F37
:103DF0008AE08093240F84E090E00E941238809340
:103E0000C70E8091C70E882321F08091C70E8F3F87
:103E100059F468E284E090E00E941A3884E090E06F
:103E20000E9412388093C70E8AE090E00E941238F8
:103E30008093C50E8091C50E882321F08091C50E18
:103E40008F3F59F46BE18AE090E00E941A388AE0D3
:103E500090E00E9412388093C50E83E090E00E94AB
:103E600012388093B00D8091B00D882321F080919D
:103E7000B00D8F3F59F46CE383E090E00E941A3854
:103E800083E090E00E9412388093B00D8BE090E0C8
:103E90000E9412388093260F8091260F882321F0EC
:103EA0008091260F8F3F59F465E28BE090E00E94ED
:103EB0001A388BE090E00E9412388093C50E8CE097
:103EC00090E00E9412388093650E8091650E8823E1
:103ED00021F08091650E8F3F59F461E08CE090E015
:103EE0000E941A388CE090E00E9412388093650E90
:103EF00082E090E00E94123880930A0E10920C0E1D
:103F000010920D0E1092100E10920F0E10920E0EB7
:103F1000C0E0D0E08091C00E90E0C817D9070CF443
:103F2000C8C01092B60D1092B50DC0E0D0E0FE01F1
:103F3000EE0FFF1FE350F14F118210820E942227E3
:103F4000FE01EE0FFF1FEE0FFF1FE95EF24F6083D1
:103F50007183828393832196C530D10541F70E94F6
:103F6000D31C8093420D6091420D70E080E090E0A0
:103F70000E94C73320E030E048EC52E40E941F3337
:103F800020E63EEF4DE45DE40E947E340E949833CB
:103F90006093A10E7093A20E8093A30E9093A40E33
:103FA0000E94EF1C04E010E086E0E82EF12CCC2407
:103FB000C394D12C23E0622E712C35E0A32EB12CBA
:103FC00042E0842E912CC1E0BAE04B2ED4E65D2E67
:103FD000D2E0C093AC0D0E94EF1C60E08091C00E57
:103FE000681708F47BC080919F0E9091A00E8134D9
:103FF0009145A4F01093B60D0093B50DD093DB0D51
:10400000C0930C0ED0930D0E80919F0E9091A00E38
:104010009093100E80930F0E10920E0E9091EE0E54
:104020008091C00E9817A1F01093B60D0093B50DB6
:1040300083E08093DB0DC0930C0E80930D0E809176
:10404000EE0E90E09093100E80930F0E10920E0ED5
:1040500080910A0E811111C01093B60D0093B50D19
:1040600084E08093DB0DC0930C0E80930D0E1092B4
:10407000100E10920F0E10920E0E8091B50D9091B1
:10408000B60D049709F414C18091B50D9091B60D49
:104090008230910509F407C108F06DC0009709F45A
:1040A0007DC0019709F4F0C01093B60D0093B50DD3
:1040B0009AC0FE01E358F24F80810E94FC039E01EA
:1040C000220F331FF901E151F14F71836083F90130
:1040D000E954F24F9183808321961CCF862F90E084
:1040E000880F991FFC01E856F24F408151812091C1
:1040F000B00D249D9001112424173507B8F42081B8
:1041000031812C33334E91F01093B60D0093B50DE1
:104110001092DB0DC0930C0E10920D0E2081318198
:104120003093100E20930F0E60930E0EFC01E85397
:10413000F14F208131818091C70E859DC0011124EE
:1041400082179307B0F4808191810A9691F01093C1
:10415000B60D0093B50DC093DB0DC0930C0EC0934C
:104160000D0E808191819093100E80930F0E6093BD
:104170000E0E6F5F33CF8530910509F47FC0863016
:104180009105B9F0039709F08FCF80916A0E8823CB
:1041900059F08091420D811126C00FC068EC70E08B
:1041A00080E090E00E948827F092B60DE092B50D75
:1041B0001AC08091420D811105C0B092B60DA09237
:1041C000B50D11C08091C60E882329F0D092B60D8E
:1041D000C092B50D08C080916A0E882321F07092BC
:1041E000B60D6092B50D2091FD0E3091FE0E8091BE
:1041F000B50D9091B60D2817390709F4EACE84E081
:1042000090E09C0121503109F901EE0FFF1FE350AE
:10421000F14F40815181FC01EE0FFF1FE350F14F40
:1042200051834083F901EE0FFF1FEE0FFF1FE95E80
:10423000F24F4081518162817381880F991F880FED
:10424000991FFC01E95EF24F4083518362837383BF
:10425000C9010097B1F68091B50D9091B60D90937C
:10426000FE0E8093FD0E0E9422276093170D70931F
:10427000180D8093190D90931A0DA5CE8091C60E3E
:10428000882309F4B0CFA2CF8091C60E882309F409
:104290008BCF8091420D843608F4A5CF9092B60D55
:1042A0008092B50DA0CF8091C60E81119CCF7CCF9E
:1042B00010920C0E26E030E0A0E08091C00EA8170E
:1042C000D8F180919F0E9091A00E8134914534F0E9
:1042D000D093DB0DC0930C0E24E030E09091EE0EF5
:1042E0008091C00E981791F083E08093DB0DC0930E
:1042F0000C0E80930D0E8091EE0E90E09093100EB8
:1043000080930F0E10920E0E24E030E080910A0E82
:1043100081110DC0C0930C0E84E080930D0E10929D
:10432000100E10920F0E10920E0E24E030E030931B
:10433000B60D2093B50D57CF8A2F90E0880F991FA7
:10434000FC01E856F24F608171814091B00D449DAF
:10435000A00111244617570758F4408151814C336E
:10436000534E31F01092DB0DC0930C0E24E030E080
:10437000FC01E853F14F808191814091C70E459D2A
:10438000A00111244817590750F4808191810A96A1
:1043900031F0C093DB0DC0930C0E24E030E0AF5F32
:1043A0008CCF87B1836087B908950E94D121C1E085
:1043B000C093AD0D8091B50D9091B60D049781F429
:1043C000419A409A69E170E080E090E00E9488277D
:1043D000409869E170E080E090E00E948827E8CF93
:1043E0004198EFCFAF92BF92CF92DF92EF92FF92C0
:1043F0000F931F93CF93DF93C9E0D1E0AB84BC84CC
:10440000CD84DE84E984FA840D811E812F81388574
:104410004B815C816A81888199810E9492238111FC
:1044200005C02F9691E0C039D90741F7DF91CF91B0
:104430001F910F91FF90EF90DF90CF90BF90AF90C2
:1044400008952F923F924F925F926F927F928F9238
:104450009F92AF92BF92CF92DF92EF92FF920F9313
:104460001F93CF93DF930DB71EB7C82FD92F0883A3
:104470001983C62FD72F088119810DBF1EBFDF9169
:10448000CF911F910F91FF90EF90DF90CF90BF9051
:10449000AF909F908F907F906F905F904F903F90E4
:1044A0002F900895C82FD92F088119810DBF1EBFE5
:1044B000DF91CF911F910F91FF90EF90DF90CF9000
:1044C000BF90AF909F908F907F906F905F904F9034
:1044D0003F902F901895FFCF8091F20C9091F30CA4
:1044E00001969093F30C8093F20C08958091F20C56
:1044F0009091F30C892B29F48091050D9091060D74
:10450000089580E090E00895CF93DF93FB0100973A
:1045100059F1309749F1DC01CD91DC91DE019E012A
:10452000109731F112965C91129742814517B0F4C1
:10453000CA17DB0739F5DC01ED93FC93128611866F
:10454000D487C387FA87E98780E00FC03287218745
:1045500014861386E901FC87EB87F6CF9D011B9635
:104560000D90BC91A02DDCCF89ECDF91CF91089507
:10457000CD2B61F7DC01ED93FC9312861186148636
:104580001386E2CF32872187B487A387E901FC87AE
:10459000EB871A96FC93EE931997D6CFCF93DF93C0
:1045A0000097C1F0DC01ED91FC91309779F0A38583
:1045B000B485EC01B983A883109721F01A961C9258
:1045C0001E9219971286118614861386CF01DF91E9
:1045D000CF910895E0E0F0E0F9CFCF93DF93AC0105
:1045E000FB010097A9F1DC012D913C9121153105CA
:1045F00079F1D901E901EA17FB0709F5A385B4852B
:104600002E173F0789F4EA01B983A883109721F098
:104610001A961C921E92199714861386128611867A
:10462000CF01DF91CF910895BC87AB87A385B48577
:10463000109791F31A96DC93CE931997EDCF1B96B2
:104640008D919C911C97ED01009759F3DC01D3CF1C
:1046500080E090E0E6CFCF93DF930097C9F0DC01D4
:10466000ED91FC91309781F02281621788F0A3854B
:10467000B485EC01B983A883109731F01A961C9287
:104680001E92199714861386CF01DF91CF9108955A
:10469000E0E0F0E0F9CFFF920F931F93CF93DF9309
:1046A0009091EF0C9923D1F0FFB6F894C091050DCD
:1046B000D091060D9D859130B9F480EF9CE00E9469
:1046C000CE22C817D90741F09093060D8093050DAF
:1046D000BC01CE010E9421221D86FFBEDF91CF9139
:1046E0001F910F91FF9008956A818130A9F480EFA6
:1046F0009CE00E942B238C01892B79F3BE0180EF73
:104700009CE00E948422C017D10731F31093060D5C
:104710000093050DB801DDCF6623F9F270E061501A
:104720007109E5CFAF92BF92CF92DF92EF92FF92E5
:104730000F931F93CF93DF93EC01009709F43FC0D1
:1047400041155105E1F1E114F104C9F1AB28AC28A0
:10475000AD28A9F11D866A831A8619861C861B86D8
:10476000188A1F865C834B830D831E832F833887B3
:10477000B7010E94CE2A1FB7F894BE0180EF9CE0DB
:104780000E948422C82F1FBF882369F0CCEC8C2F95
:10479000DF91CF911F910F91FF90EF90DF90CF901D
:1047A000BF90AF9008958091EF0C813081F70E9407
:1047B0007622892B61F380E00E944B23E8CFC9EC7D
:1047C000E6CFAF92BF92CF92DF92EF92FF920F931C
:1047D0001F931092060D1092050D1092F10C10927D
:1047E000F00C1092EF0C5A016B017C0100E010E01C
:1047F00098014BE652E26FEF84EF9CE00E94922317
:104800001F910F91FF90EF90DF90CF90BF90AF90EE
:1048100008952091F20C3091F30C2150310930931E
:10482000F30C2093F20C0C944B2381E08093EF0C5B
:104830006FEF80EF9CE00E942B23009731F0909364
:10484000060D8093050D0C94522208951F93CF936B
:10485000DF93EC01892BA1F01FB7F894688179816F
:1048600082E0FB018687108A17868A819B810E94DD
:10487000ED226881798180EF9CE00E9484221FBF35
:10488000DF91CF911F910895009731F0FC01628371
:104890001182108280E0089589EC0895DF92EF92F2
:1048A000FF920F931F93CF93DF937C01892BD1F15C
:1048B00000E08AECD82E1FB7F894C7010E94CE22E0
:1048C000EC01009761F1DE86BC0180EF9CE00E9464
:1048D00084228823A1F01FBFCCEC013039F40E9460
:1048E0007622892B19F080E00E944B238C2FDF91D8
:1048F000CF911F910F91FF90EF90DF9008958F85DA
:104900009889009749F00E94F826882319F01FBF64
:10491000CDECE3CF188A1F861FBF01E0CCCF1FBFAD
:10492000C0E0DBCFC9ECE2CF8F929F92AF92BF92F3
:10493000DF92EF92FF920F931F93CF93DF93CDB748
:10494000DEB72E970FB6F894DEBF0FBECDBF7C0149
:104950004A015B01009709F468C0DFB6F894FC01D6
:10496000828181115CC077FD57C00E9476228C0144
:10497000009709F44EC0BC01C7010E94842288231D
:10498000A1F0DFBE8CEC2E960FB6F894DEBF0FBE02
:10499000CDBFDF91CF911F910F91FF90EF90DF90EE
:1049A000BF90AF909F908F90089591E0F801958708
:1049B00081149104A104B10441F11C870B87FE8688
:1049C000ED8686E294E29A838983CE010B969C83DE
:1049D0008B838D829E82AF82B8860A97908B878761
:1049E0000E94D326882349F0B801C7010E94ED2216
:1049F000F8011586108A17868DECDFBE8111C3CFB2
:104A00000E944B23F8018685BECFF801108A1786D5
:104A1000F4CFDFBE88ECB7CFDFBE83E0B4CF8150E8
:104A2000F7018283DFBE80E0AECF89ECACCF0F937D
:104A30001F93CF93DF930097E9F1DFB7F894FC0160
:104A400020813181232B59F10E94CE228C01BC019F
:104A500080EF9CE00E948422C82F882341F0DFBFB2
:104A6000CCEC8C2FDF91CF911F910F910895F8011D
:104A7000168687859089009761F4F801108A178659
:104A8000DFBF0E947622892B61F380E00E944B23D6
:104A9000E8CF0E94F826882381F3CDECF1CFFC010A
:104AA00022812F3F29F02F5F2283C0E0DFBFD9CFC3
:104AB000CBECFCCFC9ECD5CF009721F0FC01628391
:104AC00080E0089589EC08951F93CF93DF93EC0164
:104AD000892BA1F01FB7F8946881798182E0FB01EE
:104AE0008687108A17868A819B810E94ED226881C1
:104AF000798180EF9CE00E9484221FBFDF91CF91DB
:104B00001F910895FC01892B39F0138212821482BF
:104B10001182108280E0089589EC0895DF92EF926F
:104B2000FF920F931F93CF93DF937C01892BD1F1D9
:104B300000E08AECD82E1FB7F894C7010E94CE225D
:104B4000EC01009761F1DE86BC0180EF9CE00E94E1
:104B500084228823A1F01FBFCCEC013039F40E94DD
:104B60007622892B19F080E00E944B238C2FDF9155
:104B7000CF911F910F91FF90EF90DF9008958F8557
:104B80009889009749F00E94F826882319F01FBFE2
:104B9000CDECE3CF188A1F861FBF01E0CCCF1FBF2B
:104BA000C0E0DBCFC9ECE2CF8F929F92AF92BF9271
:104BB000DF92EF92FF920F931F93CF93DF93CDB7C6
:104BC000DEB72E970FB6F894DEBF0FBECDBF7C01C7
:104BD0004A015B01892B09F47DC00E9476228C0179
:104BE000DFB6F8940097A1F4DFBE88EC2E960FB6DE
:104BF000F894DEBF0FBECDBFDF91CF911F910F9113
:104C0000FF90EF90DF90BF90AF909F908F900895AE
:104C1000F701228133812115310509F44CC0821737
:104C2000930709F448C0B7FC43C0BC01C7010E9408
:104C30008422882319F0DFBE8CECD8CF91E0F801F4
:104C4000958781149104A104B10471F11C870B872D
:104C5000FE86ED8684E695E29A838983CE010B96E3
:104C60009C838B838D829E82AF82B8860A97908BBD
:104C700087870E94D326882349F0B801C7010E9484
:104C8000ED22F8011586108A17868DECDFBE8111A2
:104C9000ADCF0E944B23F80186858111A7CFF70184
:104CA00094819F5F9483A2CFF801108A1786EECF7C
:104CB000DFBE83E09BCFF70184818F3F41F08F5FA0
:104CC0008483232B11F41383028380E001C08BECD7
:104CD000DFBE8CCF89EC8ACFEF92FF920F931F93A8
:104CE000CF93DF938C01892B09F44CC00E9476226C
:104CF000DFB7F894F801228133818217930751F0CE
:104D0000DFBFCFEC8C2FDF91CF911F910F91FF90E0
:104D1000EF900895F801C481C150C483C1112FC020
:104D20001382128280819181892B39F1C8010E94FE
:104D3000CE227C01BC0180EF9CE00E948422C82F1F
:104D4000882319F0DFBFCCECDDCFF7011686F80120
:104D5000F382E282F70187859089009741F4F70199
:104D6000108A1786DFBF80E00E944B23CBCF0E94C2
:104D7000F8268823A1F3CDECF5CFDFBFC3CFDFBF8B
:104D8000C0E0C0CFC9ECBECFCF93009751F0CFB7F2
:104D9000F894FC016081718180EF9CE00E94842284
:104DA000CFBFCF910895FC01892B01F180819181C2
:104DB000892BE1F084819581A681B781892B8A2B8B
:104DC0008B2BA1F02FB7F89480910B0D90910C0DC7
:104DD000009749F411861086F0930C0DE0930B0DAB
:104DE0002FBF80E0089591878087F6CF89EC0895E2
:104DF000BC01892B29F15FB7F89420910B0D3091FC
:104E00000C0DF901D901309711F48EEC0DC04085DD
:104E10009185E617F70781F4E217F30739F4409319
:104E20000B0D90930C0D80E05FBF089518964C9386
:104E3000189719969C93F7CFDF01E42FF92FE3CF52
:104E400089EC08956091070D7091080D8091090D0E
:104E500090910A0D08956093070D7093080D80934B
:104E6000090D90930A0D08950F931F93CF93DF932D
:104E70008091EF0C8823D1F08091070D9091080D5F
:104E8000A091090DB0910A0D0196A11DB11D80934D
:104E9000070D9093080DA093090DB0930A0D009192
:104EA0000B0D10910C0DE801209729F4DF91CF91A3
:104EB0001F910F9108958C819D81AE81BF810197D3
:104EC000A109B1098C839D83AE83BF83892B8A2B73
:104ED0008B2BE1F420910B0D30910C0D8885998579
:104EE000C217D30779F490930C0D80930B0DE881D2
:104EF000F981309719F08A819B8109950884D985B9
:104F0000C02DD2CFF80191878087F1CF8E01F6CFE7
:104F1000CF92DF92EF92FF920F931F93CF93DF9385
:104F2000CDB7DEB72C970FB6F894DEBF0FBECDBF5E
:104F30006B017C010E947622FC01C114D104E104C2
:104F4000F10491F1892B91F10FB7F89481E08587F5
:104F5000FC87EB8784EC96E29A838983CE010B96DB
:104F60009C838B83CD82DE82EF82F8860A97908BBA
:104F700087870E94D326182F0FBF882389F01DEC46
:104F8000812F2C960FB6F894DEBF0FBECDBFDF91F8
:104F9000CF911F910F91FF90EF90DF90CF900895E8
:104FA00080E00E944B23ECCF19ECEACF18ECE8CF5D
:104FB0001F93CF93DF93EC01892BA1F01FB7F894D7
:104FC0006881798182E0FB018687108A17868C814F
:104FD0009D810E94ED226881798180EF9CE00E9492
:104FE00084221FBFDF91CF911F910895CF92DF924E
:104FF000EF92FF920F931F93CF93DF93EC01CB01BE
:105000006C817D812A893B89620F731F4E815F818C
:105010000E94EB342E813F8148855985CA88DB8800
:10502000EC88FD88C20ED31EE41EF51ECA8ADB8AF8
:10503000EC8AFD8A8E899F89A88DB98D0197A10977
:10504000B1098E8B9F8BA88FB98F6A857B858C85E4
:105050009D850E94F731C616D706E806F90620F0AE
:105060001A8A1B8A1C8A1D8ACE010E94CE228C01BC
:10507000009709F1BC0180EF9CE00E948422C82FB8
:1050800081111BC0F801168687859089009769F405
:10509000F801108A17868C2FDF91CF911F910F9105
:1050A000FF90EF90DF90CF9008950E94F82688231C
:1050B00079F3CDECF0CFC0E0EECFCCECECCFCF92DB
:1050C000DF92EF92FF920F931F93CF93DF93EC0148
:1050D0002C813D818E859F854E815F81820F931F3C
:1050E0000E94EB342E813F8148855985CE84DF8430
:1050F000E888F988C20ED31EE41EF51ECE86DF8630
:10510000E88AF98A8E899F89A88DB98D0196A11D9B
:10511000B11D8E8B9F8BA88FB98F6A857B858C85FF
:105120009D850E94F731C616D706E806F90620F0DD
:105130001E861F86188A198ACE0102960E94CE22E8
:105140008C01009709F1BC0180EF9CE00E94842251
:10515000C82F81111BC0F80116868785908900979A
:1051600069F4F801108A17868C2FDF91CF911F9177
:105170000F91FF90EF90DF90CF9008950E94F82656
:10518000882379F3CDECF0CFC0E0EECFCCECECCFC0
:10519000EF92FF920F931F93FC01892B69F1611528
:1051A000710551F1211531054105510529F1E11430
:1051B000F1040105110501F17583648326833783AA
:1051C00040875187E286F386048715871182108213
:1051D0001382128216861786108A118A128A138AFF
:1051E000148A158A168A178A108E118E80E01F91F4
:1051F0000F91FF90EF90089589ECF9CFBF92CF9275
:10520000DF92EF92FF920F931F93CF93DF937C0176
:10521000009709F446C000E06C0182E0C80ED11C82
:105220008AECB82E1FB7F894C6010E94CE22EC017A
:10523000892B31F4C7010E94CE22EC01892B71F138
:10524000BE86BE0180EF9CE00E9484228823B1F0DC
:105250001FBFCCEC013039F40E947622892B19F063
:1052600080E00E944B238C2FDF91CF911F910F91F3
:10527000FF90EF90DF90CF90BF9008958F85988931
:10528000009749F00E94F826882319F01FBFCDEC43
:10529000E1CF188A1F861FBF01E0C4CF1FBFC0E047
:1052A000D9CFC9ECE0CF4F925F926F927F928F92ED
:1052B0009F92AF92BF92CF92DF92EF92FF920F93A5
:1052C0001F93CF93DF93CDB7DEB760970FB6F894F7
:1052D000DEBF0FBECDBF6C012A013B015901009713
:1052E00009F494C02115310509F490C00FB7F89462
:1052F000FC0186899789A08DB18D892B8A2B8B2BF8
:1053000009F076C077FD71C00E9476227C0100977B
:1053100009F468C04601F2E08F0E911CBC01C40183
:105320000E948422182F81115AC081E0F7018587DD
:10533000411451046104710409F44DC0FC86EB86EC
:10534000DE86CD86988A8F8688ED97E29A83898358
:10535000CE010B969C838B834D825E826F82788612
:105360000A97908B87870E94D326182F882349F0AD
:10537000B701C4010E94ED22F7011586108A178635
:105380001DEC0FBF11110FC080E00E944B23F701ED
:105390001685111108C00FB7F894B501C6010E9417
:1053A000F627182F0FBF812F60960FB6F894DEBF37
:1053B0000FBECDBFDF91CF911F910F91FF90EF9066
:1053C000DF90CF90BF90AF909F908F907F906F9025
:1053D0005F904F900895F701108A1786D2CF0FBFC4
:1053E0001CECE1CF0FBF18ECDECF0FBF13E0DBCF1B
:1053F000B901C6010E94F627182F0FBF0E9476221E
:10540000892B89F280E00E944B23CDCF19ECCBCFC2
:105410004F925F926F927F92AF92BF92CF92DF9244
:10542000EF92FF920F931F93CF93DF93CDB7DEB729
:1054300060970FB6F894DEBF0FBECDBF6C012A0196
:105440003B015901009709F493C02115310509F476
:105450008FC00FB7F894FC0146895789608D718D14
:1054600082859385A485B585481759076A077B0708
:1054700009F070C077FC6BC00E9476227C01009717
:1054800009F462C0BC01C6010E948422182F811158
:1054900058C081E0F701858741145104610471040B
:1054A00009F44BC0FC86EB86DE86CD86D88ACF8693
:1054B00088ED97E29A838983CE010B969C838B8338
:1054C0004D825E826F8278860A97908B87870E94D2
:1054D000D326182F882349F0B701C6010E94ED2278
:1054E000F7011586108A17861DEC0FBF11110FC02A
:1054F00080E00E944B23F7011685111108C00FB7F9
:10550000F894B501C6010E945F28182F0FBF812FA4
:1055100060960FB6F894DEBF0FBECDBFDF91CF917E
:105520001F910F91FF90EF90DF90CF90BF90AF90C1
:105530007F906F905F904F900895F701108A1786C3
:10554000D4CF0FBF1CECE3CF0FBF18ECE0CF0FBFE1
:1055500013E0DDCFB901C6010E945F28182F0FBFED
:105560000E947622892B99F280E00E944B23CFCFB4
:1055700019ECCDCF0E9476227894009771F0DC016F
:105580001396ED91FC911497309739F015966D9123
:105590007D918D919C911897099408952AEB3AE298
:1055A000FB0120833197308331971082319710822D
:1055B0003197108231971082319710823197108283
:1055C0003197108231971082319710823197108273
:1055D0003197108231971082319710823197108263
:1055E0003197108231971082319710823197108253
:1055F00064517109FC0171836083089586E891E02C
:10560000909389008093880082E080936F008CE003
:105610008093810008951F920F920FB60F9211246C
:105620000BB60F922F933F934F935F936F937F939C
:105630008F939F93AF93BF93EF93FF930E946C223E
:105640000E94342781E00E940924FF91EF91BF91CD
:10565000AF919F918F917F916F915F914F913F910A
:105660002F910F900BBE0F900FBE0F901F901895AB
:105670001F920F920FB60F9211240F900FBE0F9032
:105680001F9018958AE28093B8008FEF8093BB003B
:1056900084E08093BC0008958091BC0081700895DF
:1056A0008091BC0080FDFCCF809100010895209185
:1056B000BC0020FDFCCF60930F0DFC0120812093E6
:1056C000100D20FF09C010920D0D88EF809300018E
:1056D00085EA8093BC000895FC013196A1E1BDE00C
:1056E00081E0861780F791919D938F5FFACF80912B
:1056F000BC0080FDFCCF10920D0D88EF809300015F
:1057000085EA8093BC0008952091BC0020FDFCCF69
:1057100020910D0D20FD04C080910D0D8170089524
:10572000A0E1BDE0282FFC018E2F821B8617A0F779
:105730008D918193F9CF1F920F920FB60F92112482
:105740000BB60F922F933F938F939F93EF93FF93FB
:105750008091B900883249F0D0F4803121F088314D
:1057600021F08830D1F410920E0DE0910E0D809151
:105770000F0DE81720F581E08E0F80930E0DF0E0FD
:10578000E05FF24F80818093BB0085E836C08034B3
:1057900049F148F4883309F43FC08091B9008093FF
:1057A000000184E02AC0803589F08835B1F7809106
:1057B000BB00E0910E0DF0E0E05FF24F808380913E
:1057C0000D0D816080930D0D84E917C0E0910E0DE1
:1057D00081E08E0F80930E0D8091BB00F0E0E05FC2
:1057E000F24F808320910E0D30E080910F0D90E0FC
:1057F0000197281739074CF685EC8093BC00FF9180
:10580000EF919F918F913F912F910F900BBE0F9031
:105810000FBE0F901F90189585EAEFCF0E94C631FA
:10582000882341F00E947D318091D800826080936E
:10583000D80081E008950F931F93CF93DF9300D09A
:1058400000D0CDB7DEB78C01DC0111968D919C9113
:1058500012970C97F1F41A968C911A97803669F486
:105860008C918295807F8093ED008091EF008F7303
:105870008093EF001092EE001C92F801128680E0F7
:105880000F900F900F900F90DF91CF911F910F917C
:1058900008950E948A318F3F09F4A4C490E6D8018C
:1058A0001A969C931A978C938295807F8093ED0033
:1058B000EEEEF0E01192E83FF105E1F7D801119624
:1058C000ED91FC9112973197EB30F10508F086C409
:1058D000E459F34D0C948A32B52C1E2D8C2DEF2DEE
:1058E000212E592E942E2A2FA82F772C4B3080E072
:1058F000F8019781891708F4C2C319821A821B82A2
:105900001C821092F7008B81880F880F880F9A8174
:10591000929596959770890F8093F6008A81880FEB
:10592000880F880F9981929596959770890F80932B
:10593000F5008981880F880F880F8093F40080918B
:10594000EF009781892B8093EF0081E0838780911E
:10595000F40084608093F4008091F0008460809370
:10596000F0008091EF008062DCC1F801848588231B
:1059700009F43FC08681880F880F880F9581929522
:1059800096959770890F8093F3008581880F880F13
:10599000880F9481929596959770890F8093F20065
:1059A0008481880F880F880F9381929596959770C0
:1059B000890F8093F1008381880F880F880F80936F
:1059C000F0008091EF0080618093EF0080E0F801AB
:1059D0009781891718F18385882361F18091F00000
:1059E00084608093F0008091EF00D80117969C911D
:1059F00064C084818295880F807E93819695969568
:105A00009695890F8093F30083818295880F807E1D
:105A10008093F2008091EF008F7ED6CFD801189648
:105A2000ED91FC911997E80FF11D90819093FA0088
:105A30008F5FCDCF8091F0008B7FD3CFF80184852D
:105A4000882309F448C08681880F880F880F9581C4
:105A5000929596959770890F8093F3008581880FB2
:105A6000880F880F9481929596959770890F8093EF
:105A7000F2008481880F880F880F93819295969504
:105A80009770890F8093F1008381880F880F880FAA
:105A90008093F0008091EF0080618093EF0080E0C0
:105AA000F8019781891760F113868091F0008B7F50
:105AB0008093F0008091EF009781892B8093EF0015
:105AC0008091EF008F738093EF008091EF008064EE
:105AD0008093EF00D4CE84818295880F807E93815D
