:100000000C944A000C9469000C9469000C946900EB
:100010000C9469000C9469000C9469000C946900BC
:100020000C9469000C9469000C9469000C946900AC
:100030000C94D7280C9469000C9469000C94690006
:100040000C9469000C9469000C9469000C9469008C
:100050000C9469000C9469000C9469000C9469007C
:100060000C9469000C9469000C9469000C9469006C
:100070000C9469000C9469000C9469000C9469005C
:100080000C9469000C9469000C9469000C94672925
:100090000C94690011241FBECFEFD0E1DEBFCDBFAD
:1000A00013E0A0E0B1E0EAEEFBE600E00BBF02C027
:1000B00007900D92A430B107D9F72EE0A4E0B3E089
:1000C00001C01D92A23EB207E1F70E94A52F0C9439
:1000D000F3350C940429CF93DF9300D000D0CDB733
:1000E000DEB71B821C8281E789831A8240E050E0E0
:1000F000BA018BED9EE00E94A02362E0CE01019642
:100100000E94232962E0CE0103960E9450298BEDC4
:100110009EE00E9438248C8180FF0DC010927A0EE0
:1001200083FF0DC010921E0E0F900F900F900F9036
:10013000DF91CF91089591E090937A0EF1CF81E015
:1001400080931E0EF1CFCF93DF9300D000D000D06C
:10015000CDB7DEB78091010190910201A09103011A
:10016000B091040189839A83AB83BC8340E050E063
:10017000BA018BED9EE00E94A02364E0CE010196BF
:100180000E94232980E98D831E8262E0CE010596BC
:100190000E9423298BED9EE00E94382426960FB6FC
:1001A000F894DEBF0FBECDBFDF91CF910895CF93FE
:1001B000DF9300D000D000D0CDB7DEB7809105012D
:1001C00090910601A0910701B091080189839A835B
:1001D000AB83BC8340E050E0BA018BED9EE00E940F
:1001E000A02364E0CE0101960E94232988E88D8334
:1001F00081E08E831092440D1092430D62E0CE0197
:1002000005960E9423298BED9EE00E9438242696B5
:100210000FB6F894DEBF0FBECDBFDF91CF9108952A
:10022000CF93DF9300D0CDB7DEB788E8898381E034
:100230008A8340E050E0BA018BED9EE00E94A0234B
:1002400062E0CE0101960E9423298BED9EE00E9480
:1002500038240F900F90DF91CF9108951F93CF9383
:10026000DF9300D000D000D0CDB7DEB70E941001E0
:1002700019E81C831D821E8240E050E0BA018BED1C
:100280009EE00E94A02363E0CE0104960E942329F1
:1002900019831A821B8263E0CE0101960E945029C5
:1002A0008BED9EE00E9438248A8190E0982F882769
:1002B0002B81820F911D26960FB6F894DEBF0FBEDC
:1002C000CDBFDF91CF911F910895CF93DF9300D0E1
:1002D000CDB7DEB788E8898382E08A8340E050E0CA
:1002E000BA018BED9EE00E94A02362E0CE01019650
:1002F0000E9423298BED9EE00E9438240F900F90DE
:10030000DF91CF9108951F93CF93DF9300D000D05A
:1003100000D0CDB7DEB70E94650119E81C831D82AD
:100320001E8240E050E0BA018BED9EE00E94A023C7
:1003300063E0CE0104960E94232919831A821B824E
:1003400063E0CE0101960E9450298BED9EE00E9451
:1003500038248A8190E0982F88272B81820F911D65
:1003600026960FB6F894DEBF0FBECDBFDF91CF91BA
:100370001F9108951F93CF93DF9300D000D000D03A
:10038000CDB7DEB711E91C831D821E8240E050E02C
:10039000BA018BED9EE00E94A02363E0CE0104969B
:1003A0000E94232919831A821B8263E0CE010196E1
:1003B0000E9450298BED9EE00E9438248A8190E0B3
:1003C000982F88272B81820F911D26960FB6F894BF
:1003D000DEBF0FBECDBFDF91CF911F910895CF93A8
:1003E000DF9300D0CDB7DEB780E789838BEF8A83B8
:1003F00040E050E0BA018BED9EE00E94A02362E055
:10040000CE0101960E9423298BED9EE00E943824A4
:100410000F900F90DF91CF910895CF93DF9300D08D
:10042000CDB7DEB780E789838FEF8A8340E050E065
:10043000BA018BED9EE00E94A02362E0CE010196FE
:100440000E9423298BED9EE00E9438240F900F908C
:10045000DF91CF910895FF920F931F93CF93DF9376
:1004600000D000D01F92CDB7DEB7F82E162F042F84
:1004700040E050E0BA018BED9EE00E94A02380E4B2
:100480008983612F6C60402F50E0440F551F8F2DE2
:10049000807F842B862B8A8328E02B8330E1F39E98
:1004A000C0011124642B682B6C832D8365E0CE0181
:1004B00001960E9423298BED9EE00E9438240F9024
:1004C0000F900F900F900F90DF91CF911F910F9190
:1004D000FF90089540E060E088E20E942B0240E037
:1004E00060E08EE00E942B0240E060E086E00C9429
:1004F0002B020F931F93CF93DF9300D000D0CDB783
:10050000DEB700E40B8318E01C8340E050E0BA0142
:100510008BED9EE00E94A02362E0CE0103960E9434
:10052000232968E270E080E090E00E94542509836E
:100530008CE28A8362E0CE0101960E9423291A830D
:1005400062E0CE0101960E9423298BED9EE00E947D
:1005500038240E946A020F900F900F900F90DF9145
:10056000CF911F910F910895CF93DF9300D0CDB716
:10057000DEB78091900D882369F040E060E088E06C
:100580000E942B0280E489831A8262E0CE010196E8
:100590000E9423291092900D0F900F90DF91CF9120
:1005A00008950F931F93CF93DF93EC018C01060FF7
:1005B000111DC017D10729F4DF91CF911F910F9121
:1005C000089540E061E089910E942B02F2CFCF9321
:1005D000DF9300D0CDB7DEB7880F89831A8240E061
:1005E00050E0BA018BED9EE00E94A02362E0CE01B4
:1005F00001960E9423298BED9EE00E9438240F90E3
:100600000F90DF91CF910895CF93DF9300D0CDB7B6
:10061000DEB7880F898381E08A8340E050E0BA0129
:100620008BED9EE00E94A02362E0CE0101960E9425
:1006300023298BED9EE00E9438240F900F90DF91CC
:10064000CF9108950F931F93CF93DF9300D000D0E5
:1006500000D0CDB7DEB7982F990F9C8390E39D8390
:1006600093E09E83880F816089831A821B8240E019
:1006700050E0BA018BED9EE00E94A02363E0CE0122
:1006800004960E94232963E0CE0101960E9423294B
:1006900063E0CE0101960E9450290A811B818BEDF7
:1006A0009EE00E943824C80126960FB6F894DEBF5B
:1006B0000FBECDBFDF91CF911F910F910895CF93C2
:1006C0001092740E40E050E0BA018BED9EE00E9463
:1006D000A023C1E080E98C0F8230A8F08C2F0E940B
:1006E0002203853A954A79F48091740E803158F44A
:1006F000E091740EF0E0ED5CF24FC0838091740ED7
:100700008F5F8093740ECF5FC03821F78BED9EE032
:10071000CF910C9438240F931F93CF93DF93CDB7D1
:10072000DEB728970FB6F894DEBF0FBECDBF182FE7
:10073000880F8E8380E38F831886812F880F8160D6
:1007400089831A821B821C821D8240E050E0BA011C
:100750008BED9EE00E94A02363E0CE0106960E94EE
:10076000232965E0CE0101960E94232965E0CE0190
:1007700001960E94502905E0812F0E942203853AAC
:10078000954AA1F58C8190E0982F88272D81820FC2
:10079000911D9093F00C8093EF0C05E0812F0E9447
:1007A0002203853A954A29F58A8190E0982F882777
:1007B0002B81820F911D9093310D8093300D8BED25
:1007C0009EE00E9438246091300D7091310D80912F
:1007D000EF0C9091F00C28960FB6F894DEBF0FBE88
:1007E000CDBFDF91CF911F910F910895015021F658
:1007F000D4CF015099F6E3CFEF92FF920F931F935E
:10080000CF93DF93CDB7DEB728970FB6F894DEBF4E
:100810000FBECDBF982F990F9E8390E39F8392E0E8
:100820009887880F816089831A821B821C821D82AF
:1008300040E050E0BA018BED9EE00E94A02363E00F
:10084000CE0106960E94232965E0CE0101960E9402
:10085000232965E0CE0101960E9450290C811D815B
:10086000102701271027EA80FB80FE24EF24FE24B6
:100870008BED9EE00E943824B701C80128960FB680
:10088000F894DEBF0FBECDBFDF91CF911F910F91C6
:10089000FF90EF900895EF92FF920F931F93CF93E5
:1008A000DF93CDB7DEB728970FB6F894DEBF0FBE43
:1008B000CDBF982F990F9E8390E39F8391E09887F7
:1008C000880F816089831A821B821C821D8240E00E
:1008D00050E0BA018BED9EE00E94A02363E0CE01C0
:1008E00006960E94232965E0CE0101960E942329E5
:1008F00065E0CE0101960E9450291D810C81FB808C
:10090000EA808BED9EE00E943824B701C80128964A
:100910000FB6F894DEBF0FBECDBFDF91CF911F9110
:100920000F91FF90EF9008951F93CF93DF9310E006
:10093000C12F012E000CDD0B8091740E90E0C817C2
:10094000D90724F0DF91CF911F910895FE01ED5C4E
:10095000F24F80810E944B04FE01EE0FFF1FEE0F4D
:10096000FF1FEB53F24F608371838283938361E0B7
:1009700070E080E090E00E9454251F5FD9CF8BED9E
:100980009EE00E944E230E940E2940E050E0BA01F2
:100990008BED9EE00E94A0230E945F030E940D0247
:1009A00064E670E080E090E00E9454250E94940488
:1009B0008BED9EE00C94382440E060E080E80E94DB
:1009C0002B020E946A0264E189E79DE00E94D10245
:1009D00064E185E09EE00E94D10264E189EF9CE041
:1009E0000E94D10264E18BEB9EE00C94D10284E181
:1009F000E0E9F1E0AAEABDE001900D928A95E1F705
:100A000084E1E0E9F1E0A8E2BEE001900D928A9570
:100A1000E1F784E1E0E9F1E0ABE5BEE001900D92A1
:100A20008A95E1F784E1E0E9F1E0AFE3BEE001900F
:100A30000D928A95E1F708954F925F926F927F929F
:100A40008F929F92AF92BF92CF92DF92EF92FF92DE
:100A50001F93CF93DF93CDB7DEB728970FB6F894E7
:100A6000DEBF0FBECDBF0E94F70486E0E7ECF1E0E9
:100A7000AAEABDE001900D928A95E1F784E0EEECE0
:100A8000F1E0A6EBBDE001900D928A95E1F785E2D9
:100A90008093BD0D86E59AE39093290E8093280EEE
:100AA00081E49AE39093300E80932F0E86E0E3ED7D
:100AB000F1E0ABE5BEE001900D928A95E1F785E0AB
:100AC000EAEDF1E0A2E6BEE001900D928A95E1F731
:100AD0008DE49EE39093400E80933F0E8091690DCC
:100AE00090916A0D8230910509F4D4C140F40097C9
:100AF00009F4DEC1019771F065EA71E00DC0843040
:100B0000910509F4CDC108F4C8C10697A9F763ECB3
:100B100071E002C06AEA71E0FB0101900020E9F790
:100B20003197AF01461B570B80EB9DE00E94B73217
:100B300086E78093410E80E38093420E4EE240931D
:100B4000430E81E38093440E87E38093450E8091AA
:100B5000F80C24E6622F0E94D32F805D8093BA0D9B
:100B60008091F80C0E94D32F892F2AE0622F0E94D7
:100B7000D32F805D8093BB0D8091F80C0E94D32F02
:100B8000905D9093BC0D8091530E9091540E64E64D
:100B900070E00E940130605D60932A0E8091530ED8
:100BA0009091540E2AE030E0B9010E940130CB014F
:100BB000B9010E940130805D80932B0E40932C0E72
:100BC0008091530E9091540EB9010E940130805DC6
:100BD00080932D0E8091450D9091460DA091470D6B
:100BE000B091480D6091450D7091460D8091470D73
:100BF0009091480D0E94953120E030E0A9010E94BB
:100C0000E63087FF03C08DE28093310E80915C0D4A
:100C1000811151C186E48093320E80915D0D811166
:100C20004CC186E48093330E80915E0D811147C1E3
:100C300086E48093340E80915F0D811142C186E479
:100C40008093350E8091600D81113DC186E48093C3
:100C5000360E8091610D811138C186E48093370E84
:100C60008091620D811133C186E48093380E8091AA
:100C7000630D81112EC186E48093390E8091A00E00
:100C80008B3F08F028C186E480933A0E8091910D45
:100C9000811123C186E480933B0E80914B0D882304
:100CA00009F41DC183E48093680E8CE48093690E7F
:100CB0008FE480936A0E83E580936B0E85E48093C6
:100CC0006C0E84E480936D0E0E94EE246B017C0117
:100CD00024E630E040E050E00E94153029833A835A
:100CE0004B835C83C701B60120E737E140E050E069
:100CF0000E94153029013A01C701B60120E43EE700
:100D000045E050E00E9415302D833E834F83588785
:100D10008CE3882E912CA12CB12C69817A818B8156
:100D20009C81A50194010E94153069837A838B838D
:100D30009C83C301B201A50194010E9415302B01CF
:100D40003C016D817E818F81988528E130E040E013
:100D500050E00E9415306D837E838F8398879AE0E0
:100D6000892E912CA12CB12C69817A818B819C8157
:100D7000A50194010E941530605D6093520E205DC4
:100D80002093510E1AE31093500EC301B201A50136
:100D900094010E941530605D60934F0E205D20939A
:100DA0004E0E10934D0E6D817E818F819885A50129
:100DB00094010E941530605D60934C0E205D20937D
:100DC0004B0E10934A0EC701B60120E036ED43E802
:100DD00050E00E941530CA01B901A50194010E949A
:100DE0001530605D6093490EC701B60120E03CE517
:100DF00046E255E00E941530CA01B901A5019401EF
:100E00000E941530605D6093480EC701B60120E076
:100E100038E94FE753E30E941530205D2093470ED9
:100E200084E1EAEAFDE0A9E7BDE001900D928A9530
:100E3000E1F784E1E8E2FEE0A5E0BEE001900D927A
:100E40008A95E1F784E1EBE5FEE0A9EFBCE00190D3
:100E50000D928A95E1F784E1EFE3FEE0ABEBBEE0B3
:100E600001900D928A95E1F728960FB6F894DEBFAF
:100E70000FBECDBFDF91CF911F91FF90EF90DF901C
:100E8000CF90BF90AF909F908F907F906F905F902A
:100E90004F9008956FEA71E03FCE65EB71E03CCE74
:100EA0008091C10D805D8093B40D6AEB71E034CE0A
:100EB0006EEB71E031CE84E5AECE84E5B3CE84E551
:100EC000B8CE84E5BDCE84E5C2CE84E5C7CE84E548
:100ED000CCCE84E5D1CE84E5D7CE84E5DCCE8FE4DC
:100EE0008093680E80E58093690E85E480936A0E96
:100EF0008EE480936B0E80E280936C0EE3CEAF9213
:100F0000BF92CF92DF92EF92FF920F931F93CF93F6
:100F1000DF93C82F0E94F70486E0E7ECF1E0AAEA2D
:100F2000BDE001900D928A95E1F708E21EE093E49E
:100F3000D8019C9380E38C0F11968C9311975FE5F9
:100F400012965C93129726E513962C9313974AE317
:100F500014964C932BE53EE0F901908381835283F4
:100F600054E553834483AFE3BEE040E54C934FE246
:100F700011964C93119712969C93129713968C93FB
:100F800013978EE314968C93EC2FF0E0EE0FFF1F77
:100F9000EF01C458D14F8881998148EEE42E43E097
:100FA000F42EB7010E94ED2F605DD80115966C9369
:100FB00015974EE216964C9388819981B7010E944D
:100FC000ED2F54E6A52EB12CB5010E94ED2F605DEA
:100FD000D80117966C9388819981B7010E94ED2FF3
:100FE000B5010E94ED2F6AE0C62ED12CB6010E94F9
:100FF000ED2F605DD80118966C9388819981B601B8
:101000000E94ED2F805DD80119968C93E25BF24F20
:1010100080819181B7010E94ED2F605DD901159605
:101020006C9380819181B7010E94ED2FB5010E94E0
:10103000ED2F605DD90116966C9380819181B70187
:101040000E94ED2FB5010E94ED2FB6010E94ED2FF9
:10105000605DD90117966C93179718964C93808111
:101060009181B6010E94ED2F805DF901818784E1B5
:10107000EAEAFDE0A9E7BDE001900D928A95E1F76B
:1010800084E1F801A5E0BEE001900D928A95E1F7B8
:1010900084E1F901A9EFBCE001900D928A95E1F796
:1010A00084E1EFE3FEE0ABEBBEE001900D928A95A8
:1010B000E1F7DF91CF911F910F91FF90EF90DF90BB
:1010C000CF90BF90AF900895AF92BF92CF92DF9232
:1010D000EF92FF920F931F93CF93DF93C82F0E943D
:1010E000F70485E0E0EEF1E0AAEABDE001900D92A0
:1010F0008A95E1F785E0E6EEF1E0A4EBBDE0019032
:101100000D928A95E1F785E0ECEEF1E0A8E2BEE011
:1011100001900D928A95E1F785E0E2EFF1E0ABE511
:10112000BEE001900D928A95E1F787E0E8EFF1E0EB
:10113000A5E6BEE001900D928A95E1F783E0E0E03C
:10114000F2E0AFE3BEE001900D928A95E1F780E313
:101150008C0F8093420E83E0E4E0F2E0A3E4BEE073
:1011600001900D928A95E1F73FE6E32E3EE0F32EE3
:1011700048E9A42E4DE0B42EF501670180E2D601C6
:101180008D936D018193B4E7CB16BEE0DB06B9F712
:10119000D0E08E01000F111FF801ED55F14F808155
:1011A00091814AE06FE67EE00E94C032F801E55985
:1011B000F24F808191814AE068E97DE00E94C0326F
:1011C00080E2F7019081911101C08083D5019C914B
:1011D000911101C08C93BFEFEB1AFB0AEFEFAE1A2F
:1011E000BE0ACE14DF0469F780916F0E80932D0E36
:1011F0008091700E80932E0E8091710E80932F0E31
:101200008091720E8093300E8091730E8093310E18
:101210008091980D8093AF0D8091990D8093B00DC2
:1012200080919A0D8093B10D80919B0D8093B20DAA
:1012300080919C0D8093B30DF801E057F14F8081B0
:10124000918164E670E00E94ED2F2AE030E0B90160
:101250000E94ED2F605D6093B90D80819181B9018D
:101260000E94ED2F805D8093BA0D8E01000F111F3B
:10127000000F111FC801835F924F7C01DC016D914B
:101280007D918D919C910E945D31605D6093370EE0
:101290008EE28093380EF7016081718182819381A3
:1012A00020E030E040E251E40E944A320E945D3189
:1012B000862F9AE0D92E6D2D0E94DF2F905D90939E
:1012C000390ED7016D917D918D919C9120E030E098
:1012D00048EC52E40E944A320E945D31862F6D2D07
:1012E0000E94DF2F905D90933A0EF701608171812B
:1012F0008281938120E030E04AE754E40E944A3240
:101300000E945D31862F6D2D0E94DF2F97FD7BC0DF
:10131000F70180819181A281B38160817181828195
:10132000938120E030E04AE754E40E944A320E9470
:101330005D31862F6D2D0E94DF2F905D90933B0EC7
:10134000CD5CD24F88811F928F938AE092E09F9369
:101350008F9389E29DE09F938F930E94E532809165
:10136000290D80936C0E80912A0D80936D0E8091D3
:101370002B0D80936E0EF801EB53F24F8081805D50
:101380008093600E8181805D8093610E8281805D9B
:101390008093620E8381805D8093630E84E1EAEA2C
:1013A000FDE0A9E7BDE001900D928A95E1F784E1A7
:1013B000E8E2FEE0A5E0BEE001900D928A95E1F73B
:1013C00084E1EBE5FEE0A9EFBCE001900D928A9587
:1013D000E1F784E1EFE3FEE0ABEBBEE001900D92BC
:1013E0008A95E1F70F900F900F900F900F900F904C
:1013F000DF91CF911F910F91FF90EF90DF90CF90F1
:10140000BF90AF90089580E280933B0E99CF0E94E9
:10141000F7048091BE0D81113CC087E0EFE0F2E05F
:10142000AAEABDE001900D928A95E1F788E0E7E134
:10143000F2E0A2EBBDE001900D928A95E1F784E124
:10144000EAEAFDE0A9E7BDE001900D928A95E1F797
:1014500084E1E8E2FEE0A5E0BEE001900D928A950D
:10146000E1F784E1EBE5FEE0A9EFBCE001900D922D
:101470008A95E1F784E1EFE3FEE0ABEBBEE001909B
:101480000D928A95E1F766E970E080E090E00C94B7
:10149000542584E0E0E2F2E0AAEABDE001900D927A
:1014A0008A95E1F787E0E5E2F2E0AFEABDE0C3CF7D
:1014B0000E94F70485E0EDE2F2E0AAEABDE00190C7
:1014C0000D928A95E1F789E0E3E3F2E0A0EBBDE05D
:1014D00001900D928A95E1F784E1EAEAFDE0A9E73F
:1014E000BDE001900D928A95E1F784E1E8E2FEE02B
:1014F000A5E0BEE001900D928A95E1F784E1EBE56D
:10150000FEE0A9EFBCE001900D928A95E1F784E13D
:10151000EFE3FEE0ABEBBEE001900D928A95E1F7C0
:1015200066E970E080E090E00C9454250E94F70496
:1015300084E0E0E2F2E0AAEABDE001900D928A9533
:10154000E1F78091BE0D882399F186E0EFE3F2E0A8
:10155000AFEABDE001900D928A95E1F784E1EAEAF5
:10156000FDE0A9E7BDE001900D928A95E1F784E1E5
:10157000E8E2FEE0A5E0BEE001900D928A95E1F779
:1015800084E1EBE5FEE0A9EFBCE001900D928A95C5
:10159000E1F784E1EFE3FEE0ABEBBEE001900D92FA
:1015A0008A95E1F766E970E080E090E00C945425BC
:1015B00088E0EDE3F2E0CCCFCF92DF92EF92FF92A2
:1015C0000F931F93CF930E94EE2460931A0E709393
:1015D0001B0E80931C0E90931D0E0E94F70485E055
:1015E000E6E4F2E0AAEABDE001900D928A95E1F707
:1015F00084E59FE49093B10D8093B00D27E0ECE477
:10160000F2E0A3EBBDE001900D922A95E1F723E013
:10161000E4E5F2E0ABE5BEE001900D922A95E1F73A
:1016200025E0E8E5F2E0AFE5BEE001900D922A95F5
:10163000E1F726E0EEE5F2E0A5E6BEE001900D92CE
:101640002A95E1F79093290E8093280E84E0E5E631
:10165000F2E0ABE2BEE001900D928A95E1F787E0FF
:10166000EAE6F2E0A0E3BEE001900D928A95E1F790
:1016700084E1EAEAFDE0A9E7BDE001900D928A95D8
:10168000E1F784E1E8E2FEE0A5E0BEE001900D9222
:101690008A95E1F784E1EBE5FEE0A9EFBCE001907B
:1016A0000D928A95E1F784E1EFE3FEE0ABEBBEE05B
:1016B00001900D928A95E1F784E6C82ED12CE12C99
:1016C000F12C0E94EE2400911A0E10911B0E209115
:1016D0001C0E30911D0EC091CF0E601B710B820B42
:1016E000930BA70196010E9415308C2F90E0A0E08B
:1016F000B0E082179307A407B50780F08091A10E90
:10170000882371F00E94EE2460931A0E70931B0ED2
:1017100080931C0E90931D0E1092A10E80E01EC0AF
:101720008091590E882369F00E94EE2460931A0E6E
:1017300070931B0E80931C0E90931D0E1092590EE9
:10174000EDCF189913C00E94EE2460931A0E709387
:101750001B0E80931C0E90931D0E81E0CF911F9164
:101760000F91FF90EF90DF90CF9008956AE070E0C6
:1017700080E090E00E945425A4CF4F925F926F9238
:101780007F92AF92BF92CF92DF92EF92FF920F9330
:101790001F93CF93DF930E94F70486E0E2E7F2E025
:1017A000AAEABDE001900D928A95E1F786E0E9E7AB
:1017B000F2E0A1EBBDE001900D928A95E1F785E0A2
:1017C000E6E4F2E0ABE5BEE001900D928A95E1F728
:1017D00084E0E0E8F2E0A1E6BEE001900D928A9597
:1017E000E1F785E0E5E8F2E0A8E2BEE001900D92C5
:1017F0008A95E1F7C1E0C093CC0C8091CC0C1F928C
:101800008F938BE892E09F938F938CE39EE09F935E
:101810008F930E94E53280913C0E80932D0E809133
:101820003D0E80932E0E84E1EAEAFDE0A9E7BDE0DB
:1018300001900D928A95E1F784E1E8E2FEE0A5E0EF
:10184000BEE001900D928A95E1F784E1EBE5FEE0C0
:10185000A9EFBCE001900D928A95E1F784E1EFE3F6
:10186000FEE0ABEBBEE001900D928A95E1F76AE0F5
:1018700070E080E090E00E945425C0931F0E0F900E
:101880000F900F900F900F900F9024E6C22ED12C46
:10189000E12CF12C0BE812E0CCE3DEE00E94EE2418
:1018A00040901A0E50901B0E60901C0E70901D0EF2
:1018B000B090CF0E6419750986099709A7019601A2
:1018C0000E9415308B2D90E0A0E0B0E082179307C6
:1018D000A407B50708F42EC38091A10E882309F44C
:1018E00082C00E94EE2460931A0E70931B0E8093A8
:1018F0001C0E90931D0E80911F0E8F5F80931F0E04
:1019000080911F0E8093CC0C8091CC0C1F928F93F2
:101910001F930F93DF93CF930E94E5321092A10E95
:101920000F900F900F900F900F900F9080913C0EA2
:1019300080932D0E80913D0E80932E0E84E1EAEA75
:10194000FDE0A9E7BDE001900D928A95E1F784E101
:10195000E8E2FEE0A5E0BEE001900D928A95E1F795
:1019600084E1EBE5FEE0A9EFBCE001900D928A95E1
:10197000E1F784E1EFE3FEE0ABEBBEE001900D9216
:101980008A95E1F7189954C00E94EE2460931A0ECC
:1019900070931B0E80931C0E90931D0E64E170E0FB
:1019A00080E090E00E94542580E090E0FC01E0534C
:1019B000F14F30812091CC0C321709F440C00196D0
:1019C0008A30910599F7DF91CF911F910F91FF9088
:1019D000EF90DF90CF90BF90AF907F906F905F902F
:1019E0004F900C94070A8091590E882309F49ECFDA
:1019F0000E94EE2460931A0E70931B0E80931C0EAF
:101A000090931D0E80911F0E815080931F0E809128
:101A10001F0E8093CC0C8091CC0C1F928F931F9340
:101A20000F93DF93CF930E94E5321092590E78CF37
:101A30006AE070E080E090E00E9454252FCF0E9481
:101A4000F70486E0E2E7F2E0AAEABDE001900D9239
:101A50008A95E1F786E0E9E7F2E0A1EBBDE00190CD
:101A60000D928A95E1F785E0E6E4F2E0ABE5BEE0B1
:101A700001900D928A95E1F783E0E0E9F2E0A1E6BA
:101A8000BEE001900D928A95E1F78091CC0C8330F5
:101A900049F085E0E4E9F2E0A8E2BEE001900D92B1
:101AA0008A95E1F784E0EAE9F2E0A3E3BEE0019081
:101AB0000D928A95E1F785E0EFE9F2E0AFE3BEE051
:101AC00001900D928A95E1F780913C0E8093440E2F
:101AD00080913D0E8093450EC091CC0CCC2ED12C24
:101AE000F6013197EA30F10590F4E758F24F0C9483
:101AF0005630830D7B0E7E0E800E830E860E890E71
:101B00008C0E8F0E920E8091320D8093CC0C8091B2
:101B1000CC0C1F928F930BE812E01F930F938EE86B
:101B20009EE09F938F930E94E5328091CC0C1F9290
:101B30008F931F930F938CE39EE09F938F930E944C
:101B4000E5328DB79EB70C960FB6F8949EBF0FBEC8
:101B50008DBFC33041F080918E0E80932D0E809109
:101B60008F0E80932E0E80913C0E8093370E8091C5
:101B70003D0E8093380E84E1EAEAFDE0A9E7BDE07E
:101B800001900D928A95E1F784E1E8E2FEE0A5E09C
:101B9000BEE001900D928A95E1F784E1EBE5FEE06D
:101BA000A9EFBCE001900D928A95E1F784E1EFE3A3
:101BB000FEE0ABEBBEE001900D928A95E1F76FE09D
:101BC00070E080E090E00E9454258091CC0C8093DE
:101BD0001F0E84E6482E512C612C712C0BE812E06C
:101BE0009CE3A92E9EE0B92E0E94EE2420911A0EAD
:101BF00030911B0E40911C0E50911D0ED091CF0EB6
:101C0000621B730B840B950BA30192010E9415308C
:101C10008D2F90E0A0E0B0E082179307A407B507EE
:101C200008F488C18091A10E882309F47EC08091B8
:101C30001F0E8F5F80931F0E80911F0E8093CC0C20
:101C40000E94EE2460931A0E70931B0E80931C0E5C
:101C500090931D0E8091CC0C1F928F931F930F9326
:101C6000BF92AF920E94E5321092A10E0F900F909A
:101C70000F900F900F900F90C33041F080918E0E17
:101C800080932D0E80918F0E80932E0E80913C0EAE
:101C90008093370E80913D0E8093380E84E1EAEAFE
:101CA000FDE0A9E7BDE001900D928A95E1F784E19E
:101CB000E8E2FEE0A5E0BEE001900D928A95E1F732
:101CC00084E1EBE5FEE0A9EFBCE001900D928A957E
:101CD000E1F784E1EFE3FEE0ABEBBEE001900D92B3
:101CE0008A95E1F7189B46C06FE070E080E090E0D5
:101CF0000E94542579CF8091A20E07CF81E005CFB5
:101D00008091640D02CF80917B0EFFCE8091CF0E2B
:101D1000FCCE80918E0DF9CE8091790EF6CE809119
:101D2000DA0EF3CE8091190EF0CE8091590E8823F1
:101D300009F4A2CF80911F0E815080931F0E8091D5
:101D40001F0E8093CC0C0E94EE2460931A0E7093A9
:101D50001B0E80931C0E90931D0E8091CC0C1F9235
:101D60008F931F930F93BF92AF920E94E532109210
:101D7000590E7CCF64E670E080E090E00E9454252C
:101D8000C330C1F00E94DC0A811114C064E170E02C
:101D900080E090E0DF91CF911F910F91FF90EF9045
:101DA000DF90CF90BF90AF907F906F905F904F90FB
:101DB0000C94542564E170E080E090E00E9454258A
:101DC000F6013197EA30F10508F7E751F14F0C942D
:101DD0005630F30E000F0D0F3F0F4C0F590F660FCB
:101DE000730F800F8D0F6091CC0C88E090E00E9403
:101DF000E63588E090E00E94DE358093320DC6CF54
:101E00006091CC0C89E090E00E94E63589E090E09A
:101E10000E94DE358093A20EB9CF8091CC0C8F3F0B
:101E200059F58091BE0D61E0811160E082E090E0A3
:101E30000E94E63582E090E00E94DE358093BE0D80
:101E40000E94960A8091BE0D882309F49FCF80914D
:101E5000690D90916A0D049709F098CF80918F0DCC
:101E6000843009F093CF86E090E090936A0D8093E0
:101E7000690D1092C00D8ACF0E94580A87CF6091D9
:101E8000CC0C83E090E00E94E63583E090E00E9475
:101E9000DE358093640D7ACF6091CC0C84E090E0C5
:101EA0000E94E63584E090E00E94DE3580937B0E50
:101EB0006DCF6091CC0C85E090E00E94E63585E026
:101EC00090E00E94DE358093CF0E60CF6091CC0C05
:101ED00086E090E00E94E63586E090E00E94DE35E4
:101EE00080938E0D53CF6091CC0C8AE090E00E94DD
:101EF000E6358AE090E00E94DE358093790E46CF89
:101F00006091CC0C8BE090E00E94E6358BE090E095
:101F10000E94DE358093DA0E39CF6091CC0C8CE0D4
:101F200090E00E94E6358CE090E00E94DE358093E0
:101F3000190E2CCFDF91CF911F910F91FF90EF9051
:101F4000DF90CF90BF90AF907F906F905F904F9059
:101F500008950E94F70485E0E5EAF2E0AAEABDE010
:101F600001900D928A95E1F784E0EBEAF2E0A0EBB4
:101F7000BDE001900D928A95E1F787E0E0EBF2E099
:101F8000A8E2BEE001900D928A95E1F786E0E8EBC9
:101F9000F2E0ABE5BEE001900D928A95E1F784E0B6
:101FA000EFEBF2E0AFE3BEE001900D928A95E1F72E
:101FB00084E1EAEAFDE0A9E7BDE001900D928A958F
:101FC000E1F784E1E8E2FEE0A5E0BEE001900D92D9
:101FD0008A95E1F784E1EBE5FEE0A9EFBCE0019032
:101FE0000D928A95E1F784E1EFE3FEE0ABEBBEE012
:101FF00001900D928A95E1F708950E94F70485E01B
:10200000E4ECF2E0AAEABDE001900D928A95E1F7D6
:1020100085E0E6E4F2E0A0EBBDE001900D928A9548
:10202000E1F784E59FE49093B70D8093B60D87E0C8
:10203000EAECF2E0ABE5BEE001900D928A95E1F7A3
:1020400084E0E2EDF2E0A3E6BEE001900D928A9515
:10205000E1F784E0EBEAF2E0A8E6BEE001900D9241
:102060008A95E1F784E1EAEAFDE0A9E7BDE00190A5
:102070000D928A95E1F784E1E8E2FEE0A5E0BEE09A
:1020800001900D928A95E1F784E1EBE5FEE0A9EF7E
:10209000BCE001900D928A95E1F784E1EFE3FEE068
:1020A000ABEBBEE001900D928A95E1F708950E9496
:1020B000F70485E0E4ECF2E0AAEABDE001900D92BD
:1020C0008A95E1F785E0E6E4F2E0A0EBBDE001905F
:1020D0000D928A95E1F784E59FE49093B70D809384
:1020E000B60D87E0EAECF2E0ABE5BEE001900D92C0
:1020F0008A95E1F784E0E2EDF2E0A3E6BEE001902C
:102100000D928A95E1F78BE0E7EDF2E0A8E2BEE000
:1021100001900D928A95E1F784E1EAEAFDE0A9E7F2
:10212000BDE001900D928A95E1F784E1E8E2FEE0DE
:10213000A5E0BEE001900D928A95E1F784E1EBE520
:10214000FEE0A9EFBCE001900D928A95E1F784E1F1
:10215000EFE3FEE0ABEBBEE001900D928A95E1F774
:1021600008950E94F70485E0E4ECF2E0AAEABDE0FD
:1021700001900D928A95E1F785E0E6E4F2E0A0EBAC
:10218000BDE001900D928A95E1F784E59FE490937C
:10219000B70D8093B60D87E0EAECF2E0ABE5BEE068
:1021A00001900D928A95E1F786E0E3EEF2E0A3E676
:1021B000BEE001900D928A95E1F786E0EAEEF2E04A
:1021C000A8E2BEE001900D928A95E1F784E1EAEA87
:1021D000FDE0A9E7BDE001900D928A95E1F784E169
:1021E000E8E2FEE0A5E0BEE001900D928A95E1F7FD
:1021F00084E1EBE5FEE0A9EFBCE001900D928A9549
:10220000E1F784E1EFE3FEE0ABEBBEE001900D927D
:102210008A95E1F708954F925F926F927F928F9225
:102220009F92AF92BF92CF92DF92EF92FF921F9355
:10223000CF93DF93CDB7DEB728970FB6F894DEBF04
:102240000FBECDBFF82E0E94F70485E0E5EFF2E067
:10225000AAEABDE001900D928A95E1F783E0EBEFE9
:10226000F2E0A0EBBDE001900D928A95E1F786E0E7
:10227000E7ECF1E0A8E2BEE001900D928A95E1F76B
:1022800084E0EFEFF2E0ABE5BEE001900D928A95BD
:10229000E1F784E1EAEAFDE0A9E7BDE001900D92F3
:1022A0008A95E1F784E1E8E2FEE0A5E0BEE0019076
:1022B0000D928A95E1F784E1EBE5FEE0A9EFBCE041
:1022C00001900D928A95E1F784E1EFE3FEE0ABEB3C
:1022D000BEE001900D928A95E1F78F2D90E0FC0110
:1022E000EE0FFF1FEF54F14FE080F180880F991F30
:1022F000880F991FFC01E353F34F408051806280A7
:10230000738082E0E816F10409F4F2C108F0E3C139
:10231000E114F10409F4FAC1F1E0EF16F10409F453
:10232000F8C165EA71E0FB0101900020E9F73197FF
:10233000AF01461B570B8EE29EE00E94B73284E04D
:10234000E816F10409F043C08091C20D805D8093CE
:102350003F0E8091C10D8111DFC18091C30D90911D
:10236000C40D28EE33E0B9010E94ED2F605D60934B
:10237000B90D8091C30D9091C40DB9010E94ED2F4C
:10238000E4E6F0E0BF010E94ED2F605D6093BA0DBE
:102390008091C30D9091C40DB9010E94ED2FBF0132
:1023A0000E94ED2F2AE030E0B9010E94ED2F605D20
:1023B0006093BB0D8EE28093BC0D8091C30D909114
:1023C000C40DB9010E94ED2F805D8093BD0DC30146
:1023D000B20124E630E040E050E00E94153029834D
:1023E0003A834B835C83C301B20120E737E140E0CD
:1023F00050E00E94153049015A01C301B20120E4A6
:102400003EE745E050E00E94153069017A0169819C
:102410007A818B819C812CE330E040E050E00E9487
:10242000153069837A838B839C83C501B4012CE3C7
:1024300030E040E050E00E9415306D837E838F8352
:102440009887C701B60128E130E040E050E00E94E3
:1024500015306B017C018AE0882E912CA12CB12CC7
:1024600069817A818B819C81A50194010E9415303C
:10247000605D60936E0E205D20936D0E1AE31093E5
:102480006C0E6D817E818F819885A50194010E94DB
:102490001530605D60936B0E205D20936A0E109383
:1024A000690EC701B601A50194010E941530605D57
:1024B0006093680E205D2093670E1093660EC30133
:1024C000B20120E036ED43E850E00E941530CA0129
:1024D000B901A50194010E941530605D6093650EFD
:1024E000C301B20120E03CE546E255E00E94153010
:1024F000CA01B901A50194010E941530605D609385
:10250000640EC301B20120E038E94FE753E30E94B3
:102510001530205D2093630E0E94EE246B017C0138
:1025200024E630E040E050E00E94153029833A83F1
:102530004B835C83C701B60120E737E140E050E000
:102540000E94153029013A01C701B60120E43EE797
:1025500045E050E00E9415302D833E834F8358871D
:1025600069817A818B819C812CE330E040E050E0EE
:102570000E94153069837A838B839C83C301B201E7
:102580002CE330E040E050E00E9415302B013C018C
:102590006D817E818F81988528E130E040E050E0B8
:1025A0000E9415306D837E838F83988769817A813D
:1025B0008B819C81A50194010E941530605D609320
:1025C000520E205D2093510E1093500EC301B201A4
:1025D000A50194010E941530605D60934F0E205D4F
:1025E00020934E0E10934D0E6D817E818F819885C4
:1025F000A50194010E941530605D60934C0E205D32
:1026000020934B0E10934A0EC701B60120E036ED21
:1026100043E850E00E941530CA01B901A5019401B8
:102620000E941530605D6093490EC701B60120E03D
:102630003CE546E255E00E941530CA01B901A5010A
:1026400094010E941530605D6093480EC701B60189
:1026500020E038E94FE753E30E941530205D2093D6
:10266000470E84E1EAEAFDE0A9E7BDE001900D92A2
:102670008A95E1F784E1E8E2FEE0A5E0BEE00190A2
:102680000D928A95E1F784E1EBE5FEE0A9EFBCE06D
:1026900001900D928A95E1F784E1EFE3FEE0ABEB68
:1026A000BEE001900D928A95E1F728960FB6F89456
:1026B000DEBF0FBECDBFDF91CF911F91FF90EF9096
:1026C000DF90CF90BF90AF909F908F907F906F9052
:1026D0005F904F90089584E0E816F10479F058F087
:1026E000F6E0EF16F10409F01CCE63EC71E01BCEAE
:1026F0006FEA71E018CE61EF72E015CE8091C10DE6
:10270000805D8093320E6AEB71E00DCE6EEB71E06E
:102710000ACE6AEA71E007CE8091C10D813009F0DE
:1027200056CE8091C30D9091C40D28EE33E0B901CF
:102730000E94ED2F605D6093B90D8EE28093BA0D1B
:102740008091C30D9091C40DB9010E94ED2FE4E674
:10275000F0E0BF010E94ED2F605D6093BB0D8091A2
:10276000C30D9091C40DB9010E94ED2FBF010E94CD
:10277000ED2F2AE030E0B9010E94ED2F605D6093FB
:10278000BC0D1BCE84B1887F84B985B1876085B9C3
:1027900008950E94C21362E370E080E090E00E941E
:1027A0005425C1E08091630D8F3F71F18091630DDD
:1027B0008F5F8093630D1A9929C08091CB0C811192
:1027C00025C0C093CB0CC093A10E6EE170E080E0F9
:1027D00090E00E945425189B06C08091CA0C81117C
:1027E00002C010928D0D1A9B06C08091A10E81111E
:1027F00002C01092CB0C199BD5CF8091590E81113C
:10280000D1CF1092BF0DCECF81E0D3CF199909C09F
:102810008091BF0D811105C0C093BF0DC093590EAB
:10282000D4CF1899D8CF80918D0D8111D4CFC0937A
:102830008D0DC093CA0CC9CFEF92FF920F931F93D7
:10284000CF93DF93CDB7DEB74DB75EB78091740EEF
:102850002DB73EB7281B31090FB6F8943EBF0FBE07
:102860002DBF2F5F3F4F8091690D90916A0D0197A9
:1028700009F092C08091920D882309F48DC01092C6
:10288000920D80E09091740E891760F0A0E0809125
:10289000740E6A2F70E090E0019768177907BCF515
:1028A000B0E029C0F901E80FF11D80838F5FEACF06
:1028B000B901680F791FFB01E080EE2DF0E0EE0F0B
:1028C000FF1FE458F14F008111810196820F931F81
:1028D000FC01F080EF2DF0E0EE0FFF1FE458F14F08
:1028E0000190F081E02DE017F10720F4FC01E08277
:1028F000FB01F082BF5F8B2F90E06091740E70E05F
:1029000061507109861797079CF2AF5FC0CF809125
:10291000740E815097E0811111C0A1E06091740E96
:10292000861748F10FB6F8945EBF0FBE4DBFDF911A
:10293000CF911F910F91FF90EF900895D901A80FAB
:10294000B11DEC91F0E0EE0FFF1FE458F14F6081F4
:1029500071811197EC91F0E0EE0FFF1FE458F14FF9
:102960000190F081E02D6E1B7F0B6931710508F03D
:10297000982F8150D0CF682F70E0620F731FFB013A
:102980006081E62FF0E0EF50F34F891718F0A08335
:102990008F5FC4CF1082FCCF8091690D90916A0D3A
:1029A000019709F4BFCF80E09091740E891708F069
:1029B000B9CFE82FF0E0EF50F34F10828F5FF4CFE4
:1029C000CF93DF9300D000D000D0CDB7DEB70E9408
:1029D000BF040E94A3000E94D7000E94790281E0F8
:1029E00080932D0D1092920D2224239434E6432ED1
:1029F000512C612C712C80915C0D8E3F09F401C12A
:102A000080915C0D8F5F80935C0D0E94EE24A3018A
:102A100092010E941530633371058105910508F418
:102A2000F2C080912D0D882349F010922D0D209237
:102A3000920D8091900D81110E94DC0465E070E0A0
:102A400080E090E00E945425312C8091740E38165D
:102A500008F4DCC00E948301BC01990F880B990B1C
:102A60000E9495312AE037ED43EA5AE30E944A3248
:102A700021EC3AEC41E85FE30E944A322AE939E965
:102A800049E95EE30E94793020E030E040E251E421
:102A90000E944A320E9464317093540E6093530E28
:102AA0000E946B000E942E01092E000CAA0BBB0B8A
:102AB000B095A095909581959F4FAF4FBF4F809354
:102AC000650D9093660DA093670DB093680D80918E
:102AD000650D9091660DA091670DB091680D803ED7
:102AE0009E42A105B105CCF48091650D9091660DD3
:102AF000A091670DB091680D8132914DAF4FBF4FDE
:102B000064F08091650D9091660DA091670DB09174
:102B1000680D90939F0E80939E0E8091690D909109
:102B20006A0D069709F0FCC080914B0D882309F4CB
:102B3000F7C00E94EF010E94BA01092E000CAA0BF7
:102B4000BB0B8093650D9093660DA093670DB093BA
:102B5000680D40E050E0BA0183E99DE00E94A023A7
:102B60008091650D9091660DA091670DB091680DF3
:102B70009C01AD0166277727CB01621B730B840B89
:102B8000950B0E9495312FE632E143E059E30E9414
:102B90004A3223ED3EEF46ED52E40E944A3224EAE7
:102BA00030E74DE25FE30E947A3020E030E04AE710
:102BB00054E40E944A320E945D316093450D709347
:102BC000460D8093470D9093480D83E99DE00E9448
:102BD00038240E941C1410E08091740E181708F01D
:102BE0000ACFE12FF0E0DF01AF50B34F8C91ED5CE5
:102BF000F24F813009F0EAC080810E9404031F5F18
:102C0000EBCF81E000CF20922D0D18CF032D10E0E7
:102C1000F801ED5CF24F80810E948B036B017C0117
:102C20009801220F331F3E832D83F901ED55F14F9B
:102C3000408151815A834983F901E559F24F8081DE
:102C400091819C838B8396E09E9DB0019F9D700D2A
:102C5000112480E090E00E9493314B015C01A98136
:102C6000BA81BD0180E090E00E94933120E030E025
:102C700040E85AE30E944A329B01AC01C501B4010D
:102C80000E944A324B015C01EB81FC81BF0180E074
:102C900090E00E9493319B01AC01C501B4010E94F8
:102CA0007A300E946431ED81FE81E458F14F7183E6
:102CB0006083000F111F000F111FF801E35FF24F37
:102CC00080809180A280B380ED81FE81E057F14F3A
:102CD00000811181FAEFCF1AF0E8DF0ACC0CDD1C7D
:102CE000B60180E090E00E949331A50194010E941A
:102CF0004A326B017C01B80180E090E00E94933180
:102D00009B01AC01C701B6010E947A300E94643178
:102D1000ED81FE81E25BF24F71836083339495CE47
:102D20000E940D020E94BA01092E000CAA0BBB0BD7
:102D30008093650D9093660DA093670DB093680D19
:102D40008091650D9091660DA091670DB091680D11
:102D50008C3B9240A105B1050CF03BCF8091650DF5
:102D60009091660DA091670DB091680D85349D4FCF
:102D7000AF4FBF4F0CF42DCF40E050E0BA0183E9D4
:102D80009DE00E94A02360919E0E70919F0E072EE1
:102D9000000C880B990B0E9495312CEA35EC47E228
:102DA00056E30E944A322FE632E143E85AE30E949A
:102DB000EB302DE73EEA46E75FE30E944A3229E81E
:102DC00039E241E15CE30E947930EFCE80810E94DC
:102DD000E70215CF1092E10E1092E00E8091E00E06
:102DE0009091E10E079758F187E08093A40D80E25F
:102DF0009EE09093A60D8093A50D81E090E09093C6
:102E00009F0D80939E0D1092A90D88E090E00E9486
:102E1000DE358093320D8091320D882321F0809130
:102E2000320D8F3F59F461E088E090E00E94E63572
:102E300088E090E00E94DE358093320D0895E091A5
:102E4000E00EF091E10EE05EF14F10828091E00E15
:102E50009091E10E01969093E10E8093E00EBECF2B
:102E60000E94EA1680E00E94DA2908E08091620D53
:102E70008F3F09F4B7C08091620D8F5F8093620D20
:102E80008091320D90E0982F882797709093A10D34
:102E90008093A00D0093A40D8091690D90916A0D0F
:102EA0008093200E8091530E9091540E9093210E9A
:102EB0008091530E9091540E8093220E8091450D77
:102EC0009091460DA091470DB091480D8B2FBB27D7
:102ED00087FDB0959B2FAB2F8093230E8091450DDE
:102EE0009091460DA091470DB091480DCD01BB27A3
:102EF00097FDB095AB2F8093240E8091450D909156
:102F0000460DA091470DB091480D892F9A2FAB2FF8
:102F1000BB27A7FDBA958093250E8091450D909112
:102F2000460DA091470DB091480D8093260E8091DB
:102F3000F80C8093270E8DE99DE00E94E729182F59
:102F40008111F9CF8DE99DE00E94C22E8130D1F32D
:102F50008091550E9091560EA091570EB091580E3B
:102F60008B2FBB2787FDB0959B2FAB2F8093200E17
:102F70008091550E9091560EA091570EB091580E1B
:102F8000CD01BB2797FDB095AB2F8093210E80918B
:102F9000550E9091560EA091570EB091580E892F54
:102FA0009A2FAB2FBB27A7FDBA958093220E809155
:102FB000550E9091560EA091570EB091580E8093D9
:102FC000230EF12C84E0C4E0D1E09091A20EF9161A
:102FD000D0F0F12C9091A20EF91608F058C02C2FC9
:102FE000280F2CC081E04ACFEC2FF0E0AF2DB0E0ED
:102FF000AF50B34F9C91E05EF14F9083CF5FF3945D
:10300000815009F452C09091A20EF91668F3DDCFF9
:103010004C2F50E0EF2DF0E0EE0FFF1FE458F14F82
:1030200060817181DA01A05EB14F7C936081718112
:10303000FA01EF5DF14F6083F3948250C22FC81BF9
:10304000823008F450C09091A20EF91608F3C2CF56
:103050002C2F30E0E12FF0E0EE0FFF1FE25BF24F8C
:1030600060817181D901A05EB14F7C9360817181D3
:10307000F901EF5DF14F60831F5F8250C42FC81BC1
:10308000823008F44EC09091A20E191708F3909167
:10309000A20E191718F44C2F480FF0CF64E670E019
:1030A00080E090E00E945425E1CE8091320D90E0C6
:1030B000982F88278D0F911D97709093A10D809365
:1030C000A00DC093A40D8DE99DE00E94E729C82FB3
:1030D0008111F9CF8DE99DE00E94C22E8130D1F39C
:1030E000DF5F88E072CF8091320D90E0982F8827C3
:1030F0008D0F911D97709093A10D8093A00DC0939B
:10310000A40D8DE99DE00E94E729C82F8111F9CF18
:103110008DE99DE00E94C22E8130D1F3DF5F88E00F
:1031200059CF8091320D90E0982F88278D0F911DF7
:1031300097709093A10D8093A00DC093A40D8DE97D
:103140009DE00E94E729C82F8111F9CF8DE99DE00C
:103150000E94C22E8130D1F3DF5F88E098CF0C94BB
:103160001C050E941C0586E08093D50E87E08093A5
:10317000D60E85E090E00E94DE358093CF0E8091E0
:10318000CF0E882321F08091CF0E8F3F59F46FE04E
:1031900085E090E00E94E63585E090E00E94DE3513
:1031A0008093CF0E86E090E00E94DE3580938E0DF6
:1031B00080918E0D882321F080918E0D8F3F59F4E0
:1031C00068E786E090E00E94E63586E090E00E94A5
:1031D000DE3580938E0D0E94EE2460931A0E70935C
:1031E0001B0E80931C0E90931D0E64E670E080E031
:1031F00090E00E945425D0E0C0E011E084E6C82EA3
:10320000D12CE12CF12C80915D0D8F3F09F461C030
:1032100080915D0D8F5F80935D0D0E94EE24809004
:103220001A0E90901B0EA0901C0EB0901D0E0091D7
:10323000CF0E681979098A099B09A70196010E9496
:103240001530802F90E0A0E0B0E082179307A4072C
:10325000B50710F4D0E0C0E00E94EE2480901A0E72
:1032600090901B0EA0901C0EB0901D0E00918E0D24
:10327000681979098A099B09A70196010E941530EE
:10328000802F90E0A0E0B0E082179307A407B50775
:1032900010F50E94B40218998DC00E94EE2460932C
:1032A0001A0E70931B0E80931C0E90931D0ED1303E
:1032B00009F468C008F43FC0D23009F46BC0D330C1
:1032C00009F470C064E170E080E090E00E94542551
:1032D0009ACF81E0A0CF1093900DD13001F138F05A
:1032E000D23009F1D33019F10E941C05D4CFC2307D
:1032F00081F03CF4CC23C1F3C130B1F70E94FD0F43
:10330000CACFC33049F0CF3079F70E94BD0BC0E07F
:10331000C2CF0E945710BFCF0E94B110BCCF8C2FDC
:103320000E947F07B8CF8C2F0E946408B4CF8C2FE7
:103330000E940B11B0CFC130B1F04CF4C111C2CF1B
:103340008091900D882309F4BDCFCFE0BBCFC23070
:1033500091F0C33009F0B6CF8091900D882309F425
:10336000B1CFD3E006C08091900D882309F4AACF95
:10337000D1E0C0E0A7CF8091900D882309F4A2CFBF
:10338000D2E0F7CF8091900D882309F49BCFD0E055
:10339000C1E098CF8091900D882309F493CFD0E0BD
:1033A000C2E090CF8091900D882309F48BCFD0E0BC
:1033B000C3E088CF8091590E882379F10E94EE24D2
:1033C00060931A0E70931B0E80931C0E90931D0E2B
:1033D0008091900D8823B1F0CF5FC43011F4DD23CC
:1033E000D1F08091740E90E02C2F0C2E000C330B3A
:1033F0002817390751F48FEF8D0F823030F4C091C8
:10340000740EC1501092590E5DCFC530D9F7D3302C
:10341000C9F7C4E0F7CFC3E0F5CF8091A10E8823B0
:1034200009F450CF0E94EE2460931A0E70931B0E85
:1034300080931C0E90931D0E8091900D882319F09F
:10344000C15008F4C0E01092A10E3CCF80E090E0A3
:10345000FC01E45AF24F1082019688309105C1F7C1
:103460000895089A81E08093910D1092A00E0E9419
:10347000261A6EE170E080E090E00E94542580E022
:1034800090E0FC01E45AF24F208121111CC0809190
:10349000A00E8F5F8093A00E8091A00E8A3F10F047
:1034A0001092910D8091910D882349F3109863E05B
:1034B00070E080E090E00E945425109A63E070E094
:1034C00080E090E0DACF019688309105D1F60E9435
:1034D000261AE2CF10927A0E10923E0E80E0909162
:1034E000740E891720F083E99DE00C944E23E82F99
:1034F000F0E0EF50F34F10828F5FF1CF81E090E06A
:103500000E94DE358093F80C8091F80C882321F01E
:103510008091F80C8F3F59F462E381E090E00E94C3
:10352000E63581E090E00E94DE358093F80C8091D2
:10353000F80C089590913E0E8091F80C981751F078
:103540008091F80C80933E0E6091F80C81E090E041
:103550000C94E6350895CF93DF9300D000D0CDB71B
:10356000DEB70E946A1A412C512C320114E604E69F
:103570003CE9832E99249A94A92CB92C80915E0D54
:103580008F3FA9F080915E0D8F5F80935E0D8091DB
:10359000690D90916A0D892B89F38091690D909145
:1035A0006A0D019731F482B1806382B90AC081E06B
:1035B000ECCF8091690D90916A0D039709F0B7C027
:1035C000149A80E09091740E891708F4B3C080E0DB
:1035D0009091740E891708F4D4C00E94EE246B01F8
:1035E0007C01DC01CB0184199509A609B7092C01DE
:1035F0003D0140E050E0BA0183E99DE00E94A02334
:103600006091450D7091460D8091470D9091480D48
:103610002091550E3091560E4091570E5091580EF4
:1036200029833A834B835C83A30192010E94C32FB9
:10363000A50194010E94373089819A81AB81BC81B8
:10364000280F391F4A1F5B1F57FD2CC06091450D85
:103650007091460D8091470D9091480D2091550E27
:103660003091560E4091570E5091580E29833A834F
:103670004B835C83A30192010E94C32FA501940197
:103680000E94373089819A81AB81BC81280F391F14
:103690004A1F5B1F2093550E3093560E4093570ED2
:1036A0005093580E83E99DE00E9438246091550E96
:1036B0007091560E8091570E9091580E0E94953140
:1036C00020E036ED43E05AE40E944532181664F5D6
:1036D0006091550E7091560E8091570E9091580E34
:1036E0000E94953128E03FEE4BE45DE40E94E63015
:1036F00087FF1AC06091550E7091560E8091570E3B
:103700009091580E0E94953120E63EEF4DE45DE425
:103710000E94EB3020E030E048EC52E40E944A3254
:103720000E9464316093F80C2601370127CF82B1E3
:103730008F7C3BCFE82FF0E0EE0FFF1FE458F14FF6
:10374000408151812091DA0E30E024173507B8F41A
:1037500090917A0E992399F020813181263F3F4F35
:1037600071F020E036EE4FED5CE02093550E309383
:10377000560E4093570E5093580E0093F80C8F5FDF
:1037800021CFE82FF0E0EE0FFF1FE458F14F40810A
:1037900051812091790E219F9001112442175307E6
:1037A00050F41092550E1092560E1092570E109221
:1037B000580E1092F80C8F5F0BCF139A81B189636A
:1037C00081B910924B0D08950E94DD1B91E080910C
:1037D0005F0D8F3FB9F080915F0D8F5F80935F0D1C
:1037E00080B182FB882780F9892780934B0D209137
:1037F000690D30916A0D2630310531F413988091AE
:103800004B0DE5CF81E0EACF139AE1CF8EE390E054
:103810009093910E8093900E86E490E09093930E97
:103820008093920E8BE290E09093950E8093940E8D
:1038300089E390E09093970E8093960E80E290E05B
:103840009093990E8093980E81E390E090939B0E55
:1038500080939A0E8EE190E090939D0E80939C0E43
:1038600087E79EEBAFE3BFE380930D0D90930E0DC2
:10387000A0930F0DB093100D8AEA91EFA2E3BFE37E
:103880008093110D9093120DA093130DB093140D0E
:103890008FE892ECA5E5BFE38093150D9093160D8C
:1038A000A093170DB093180D84E69BE3AFE3BFE33D
:1038B0008093190D90931A0DA0931B0DB0931C0DBE
:1038C0008FE395E3AEE5BFE380931D0D90931E0D4E
:1038D000A0931F0DB093200D8CE497E3A9E4BFE300
:1038E0008093210D9093220DA093230DB093240D6E
:1038F0008FE29DEDA4E6BFE38093250D9093260D06
:10390000A093270DB093280D89E090E00E94DE354A
:103910008093A20E8091A20E882321F08091A20EA6
:103920008F3F59F467E089E090E00E94E63589E036
:1039300090E00E94DE358093A20E81E08093D00E4D
:1039400082E08093D10E83E08093D20E84E0809356
:10395000D30E85E08093D40E88E08093D60E89E064
:103960008093D70E8AE08093D80E84E090E00E9486
:10397000DE3580937B0E80917B0E882321F0809131
:103980007B0E8F3F59F468E284E090E00E94E635B8
:1039900084E090E00E94DE3580937B0E8AE090E028
:1039A0000E94DE358093790E8091790E882321F074
:1039B0008091790E8F3F59F46BE18AE090E00E948C
:1039C000E6358AE090E00E94DE358093790E83E050
:1039D00090E00E94DE358093640D8091640D882311
:1039E00021F08091640D8F3F59F46CE383E090E007
:1039F0000E94E63583E090E00E94DE358093640DFE
:103A00008BE090E00E94DE358093DA0E8091DA0E32
:103A1000882321F08091DA0E8F3F59F465E28BE024
:103A200090E00E94E6358BE090E00E94DE358093C6
:103A3000790E8CE090E00E94DE358093190E809123
:103A4000190E882321F08091190E8F3F59F461E0FF
:103A50008CE090E00E94E6358CE090E00E94DE353C
:103A60008093190E82E090E00E94DE358093BE0DB7
:103A70001092C00D1092C10D1092C40D1092C30D82
:103A80001092C20DC0E0D0E08091740E90E0C81793
:103A9000D9070CF4CFC010926A0D1092690DC0E0E6
:103AA000D0E0FE01EE0FFF1FEF54F14F11821082A4
:103AB0000E94EE24FE01EE0FFF1FEE0FFF1FE353E7
:103AC000F34F60837183828393832196C530D10540
:103AD00041F70E947E1A8093F80C6091F80C70E018
:103AE00080E090E00E94933120E030E048EC52E426
:103AF0000E94EB3020E63EEF4DE45DE40E944A3246
:103B00000E9464316093550E7093560E8093570E49
:103B10009093580E0E949A1A95E0C92ED12C04E079
:103B200010E0C1E026E0E22EF12CAA24A394B12CEF
:103B300043E0642E712CBAE05B2ED4E682E0882E3E
:103B4000912C8091600D8F3F09F489C08091600DA8
:103B50008F5F8093600D0E949A1A60E08091740ECE
:103B6000681708F47EC08091530E9091540E8134F2
:103B70009145ACF010936A0D0093690D82E080933B
:103B80008F0DC093C00D8093C10D8091530E909105
:103B9000540E9093C40D8093C30D1092C20D90915A
:103BA000A20E8091740E9817A1F010936A0D0093E5
:103BB000690D83E080938F0DC093C00D8093C10D7C
:103BC0008091A20E90E09093C40D8093C30D10924B
:103BD000C20D8091BE0D811111C010936A0D00932A
:103BE000690D84E080938F0DC093C00D8093C10D4B
:103BF0001092C40D1092C30D1092C20D8091690DE8
:103C000090916A0D049709F416C18091690D909105
:103C10006A0D8230910509F409C108F06FC0009760
:103C200009F47FC0019709F4F2C010936A0D009364
:103C3000690D9CC0FE01ED5CF24F80810E94FC0387
:103C40009E01220F331FF901ED55F14F71836083FF
:103C5000F901E559F24F91838083219615CF81E0D8
:103C600078CF862F90E0880F991FFC01E25BF24F1E
:103C7000408151812091640D259D900111242417CC
:103C80003507B8F4208131812C33334E91F01093F5
:103C90006A0D0093690D10928F0DC093C00D1092A4
:103CA000C10D208131813093C40D2093C30D6093E9
:103CB000C20DFC01E458F14F2081318180917B0ECF
:103CC0008D9FC001112482179307B0F480819181E8
:103CD0000A9691F010936A0D0093690DC0938F0DB1
:103CE000C093C00DC093C10D808191819093C40D8C
:103CF0008093C30D6093C20D6F5F30CF8530910507
:103D000009F47FC086309105B9F0039709F08DCF93
:103D100080911E0E882359F08091F80C811126C0E5
:103D20000FC068EC70E080E090E00E945425F092B3
:103D30006A0DE092690D1AC08091F80C811105C0DE
:103D4000D0926A0DC092690D11C080917A0E8823BD
:103D500029F0B0926A0DA092690D08C080911E0EE4
:103D6000882321F070926A0D6092690D2091B10E46
:103D70003091B20E8091690D90916A0D2817390724
:103D800009F4DFCE84E090E09C0121503109F90173
:103D9000EE0FFF1FEF54F14F40815181FC01EE0FF8
:103DA000FF1FEF54F14F51834083F901EE0FFF1FC6
:103DB000EE0FFF1FE353F34F408151816281738106
:103DC000880F991F880F991FFC01E353F34F40831D
:103DD000518362837383C9010097B1F68091690DA5
:103DE00090916A0D9093B20E8093B10E0E94EE24D2
:103DF0006093CD0C7093CE0C8093CF0C9093D00C2D
:103E00009ACE80917A0E882309F4B0CFA2CF809108
:103E10007A0E882309F48BCF8091F80C843608F44D
:103E2000A5CF90926A0D8092690DA0CF80917A0EF5
:103E300081119CCF7CCF1092C00D26E030E0A0E035
:103E40008091740EA817E0F18091530E9091540E5A
:103E5000813491453CF082E080938F0DC093C00D7A
:103E600024E030E09091A20E8091740E981791F0AA
:103E700083E080938F0DC093C00D8093C10D80911E
:103E8000A20E90E09093C40D8093C30D1092C20DCA
:103E900024E030E08091BE0D81110DC0C093C00DB3
:103EA00084E08093C10D1092C40D1092C30D109246
:103EB000C20D24E030E030936A0D2093690D56CF97
:103EC0008A2F90E0880F991FFC01E25BF24F60811E
:103ED00071814091640D459DA0011124461757073B
:103EE00058F4408151814C33534E31F010928F0D74
:103EF000C093C00D24E030E0FC01E458F14F408154
:103F0000518180917B0E8D9FC001112484179507EC
:103F100050F4808191810A9631F0C0938F0DC09347
:103F2000C00D24E030E0AF5F8BCF87B1836087B9ED
:103F300008950E94951F8091610D8F3FD9F0809167
:103F4000610D8F5F8093610D8091690D90916A0D75
:103F5000049791F4419A409A69E170E080E090E022
:103F60000E945425409869E170E080E090E00E9452
:103F70005425E1CF81E0E6CF4198EDCFAF92BF92DB
:103F8000CF92DF92EF92FF920F931F93CF93DF9325
:103F9000C9E0D1E0AB84BC84CD84DE84E984FA84BA
:103FA0000D811E812F8138854B815C816A818881DA
:103FB00099810E945E21811105C02F9691E0C03940
:103FC000D90741F7DF91CF911F910F91FF90EF90AB
:103FD000DF90CF90BF90AF9008952F923F924F9275
:103FE0005F926F927F928F929F92AF92BF92CF9289
:103FF000DF92EF92FF920F931F93CF93DF930DB752
:104000001EB7C82FD92F08831983C62FD72F088131
:1040100019810DBF1EBFDF91CF911F910F91FF90AE
:10402000EF90DF90CF90BF90AF909F908F907F9058
:104030006F905F904F903F902F900895C82FD92F89
:10404000088119810DBF1EBFDF91CF911F910F9184
:10405000FF90EF90DF90CF90BF90AF909F908F90A8
:104060007F906F905F904F903F902F901895FFCF6B
:104070008091A80C9091A90C01969093A90C809323
:10408000A80C08958091A80C9091A90C892B29F473
:104090008091BB0C9091BC0C089580E090E0089555
:1040A000CF93DF93FB01009759F1309749F1DC0181
:1040B000CD91DC91DE019E01109731F112965C9159
:1040C000129742814517B0F4CA17DB0739F5DC01B6
:1040D000ED93FC9312861186D487C387FA87E9870C
:1040E00080E00FC03287218714861386E901FC87A0
:1040F000EB87F6CF9D011B960D90BC91A02DDCCFD8
:1041000089ECDF91CF910895CD2B61F7DC01ED9320
:10411000FC931286118614861386E2CF328721879C
:10412000B487A387E901FC87EB871A96FC93EE938B
:104130001997D6CFCF93DF930097C1F0DC01ED91B3
:10414000FC91309779F0A385B485EC01B983A883FD
:10415000109721F01A961C921E92199712861186BA
:1041600014861386CF01DF91CF910895E0E0F0E04F
:10417000F9CFCF93DF93AC01FB010097A9F1DC01EC
:104180002D913C912115310579F1D901E901EA1709
:10419000FB0709F5A385B4852E173F0789F4EA01CB
:1041A000B983A883109721F01A961C921E92199732
:1041B0001486138612861186CF01DF91CF91089560
:1041C000BC87AB87A385B485109791F31A96DC93CF
:1041D000CE931997EDCF1B968D919C911C97ED0175
:1041E000009759F3DC01D3CF80E090E0E6CFCF9386
:1041F000DF930097C9F0DC01ED91FC91309781F0DD
:104200002281621788F0A385B485EC01B983A88365
:10421000109731F01A961C921E92199714861386E5
:10422000CF01DF91CF910895E0E0F0E0F9CFFF9268
:104230000F931F93CF93DF939091A50C9923D1F007
:10424000FFB6F894C091BB0CD091BC0C9D85913009
:10425000B9F486EA9CE00E949A20C817D90741F079
:104260009093BC0C8093BB0CBC01CE010E94ED1F4F
:104270001D86FFBEDF91CF911F910F91FF90089592
:104280006A818130A9F486EA9CE00E94F7208C01C3
:10429000892B79F3BE0186EA9CE00E945020C0176A
:1042A000D10731F31093BC0C0093BB0CB801DDCFE8
:1042B0006623F9F270E061507109E5CFAF92BF92C9
:1042C000CF92DF92EF92FF920F931F93CF93DF93E2
:1042D000EC01009709F43FC041155105E1F1E114EB
:1042E000F104C9F1AB28AC28AD28A9F11D866A8379
:1042F0001A8619861C861B86188A1F865C834B8348
:104300000D831E832F833887B7010E949A281FB719
:10431000F894BE0186EA9CE00E945020C82F1FBF7F
:10432000882369F0CCEC8C2FDF91CF911F910F91F6
:10433000FF90EF90DF90CF90BF90AF900895809165
:10434000A50C813081F70E944220892B61F380E027
:104350000E941721E8CFC9ECE6CFAF92BF92CF926F
:10436000DF92EF92FF920F931F931092BC0C10926A
:10437000BB0C1092A70C1092A60C1092A50C5A011F
:104380006B017C0100E010E0980147E350E26FEF21
:104390008AEA9CE00E945E211F910F91FF90EF90AE
:1043A000DF90CF90BF90AF9008952091A80C3091EE
:1043B000A90C215031093093A90C2093A80C0C941E
:1043C000172181E08093A50C6FEF86EA9CE00E94A4
:1043D000F720009731F09093BC0C8093BB0C0C94A9
:1043E0001E2008951F93CF93DF93EC01892BA1F03A
:1043F0001FB7F8946881798182E0FB018687108A73
:1044000017868A819B810E94B9206881798186EA1A
:104410009CE00E9450201FBFDF91CF911F91089513
:10442000009731F0FC0162831182108280E00895D0
:1044300089EC0895DF92EF92FF920F931F93CF9331
:10444000DF937C01892BD1F100E08AECD82E1FB7D5
:10445000F894C7010E949A20EC01009761F1DE8672
:10446000BC0186EA9CE00E9450208823A1F01FBF77
:10447000CCEC013039F40E944220892B19F080E005
:104480000E9417218C2FDF91CF911F910F91FF90E8
:10449000EF90DF9008958F859889009749F00E94EA
:1044A000C424882319F01FBFCDECE3CF188A1F86E0
:1044B0001FBF01E0CCCF1FBFC0E0DBCFC9ECE2CF14
:1044C0008F929F92AF92BF92DF92EF92FF920F93E3
:1044D0001F93CF93DF93CDB7DEB72E970FB6F89427
:1044E000DEBF0FBECDBF7C014A015B01009709F41E
:1044F00068C0DFB6F894FC01828181115CC077FD51
:1045000057C00E9442208C01009709F44EC0BC01A4
:10451000C7010E9450208823A1F0DFBE8CEC2E96AC
:104520000FB6F894DEBF0FBECDBFDF91CF911F91C4
:104530000F91FF90EF90DF90BF90AF909F908F9082
:10454000089591E0F801958781149104A104B104C4
:1045500041F11C870B87FE86ED8682EF91E29A83FC
:104560008983CE010B969C838B838D829E82AF8242
:10457000B8860A97908B87870E949F24882349F0EA
:10458000B801C7010E94B920F8011586108A178664
:104590008DECDFBE8111C3CF0E941721F801868503
:1045A000BECFF801108A1786F4CFDFBE88ECB7CFF4
:1045B000DFBE83E0B4CF8150F7018283DFBE80E0AD
:1045C000AECF89ECACCF0F931F93CF93DF930097BF
:1045D000E9F1DFB7F894FC0120813181232B59F1F7
:1045E0000E949A208C01BC0186EA9CE00E94502027
:1045F000C82F882341F0DFBFCCEC8C2FDF91CF9107
:104600001F910F910895F80116868785908900976C
:1046100061F4F801108A1786DFBF0E944220892BBF
:1046200061F380E00E941721E8CF0E94C424882310
:1046300081F3CDECF1CFFC0122812F3F29F02F5FD8
:104640002283C0E0DFBFD9CFCBECFCCFC9ECD5CF04
:10465000009721F0FC01628380E0089589EC0895C1
:104660001F93CF93DF93EC01892BA1F01FB7F89430
:104670006881798182E0FB018687108A17868A81AA
:104680009B810E94B9206881798186EA9CE00E9422
:1046900050201FBFDF91CF911F910895FC01892BFE
:1046A00039F01382128214821182108280E0089500
:1046B00089EC0895DF92EF92FF920F931F93CF93AF
:1046C000DF937C01892BD1F100E08AECD82E1FB753
:1046D000F894C7010E949A20EC01009761F1DE86F0
:1046E000BC0186EA9CE00E9450208823A1F01FBFF5
:1046F000CCEC013039F40E944220892B19F080E083
:104700000E9417218C2FDF91CF911F910F91FF9065
:10471000EF90DF9008958F859889009749F00E9467
:10472000C424882319F01FBFCDECE3CF188A1F865D
:104730001FBF01E0CCCF1FBFC0E0DBCFC9ECE2CF91
:104740008F929F92AF92BF92DF92EF92FF920F9360
:104750001F93CF93DF93CDB7DEB72E970FB6F894A4
:10476000DEBF0FBECDBF7C014A015B01892B09F47E
:104770007DC00E9442208C01DFB6F8940097A1F41E
:10478000DFBE88EC2E960FB6F894DEBF0FBECDBF0D
:10479000DF91CF911F910F91FF90EF90DF90BF902D
:1047A000AF909F908F900895F7012281338121155A
:1047B000310509F44CC08217930709F448C0B7FCCF
:1047C00043C0BC01C7010E945020882319F0DFBEFE
:1047D0008CECD8CF91E0F801958781149104A10465
:1047E000B10471F11C870B87FE86ED8680E393E2AE
:1047F0009A838983CE010B969C838B838D829E82C4
:10480000AF82B8860A97908B87870E949F2488235F
:1048100049F0B801C7010E94B920F8011586108A35
:1048200017868DECDFBE8111ADCF0E941721F801F4
:1048300086858111A7CFF70194819F5F9483A2CFD2
:10484000F801108A1786EECFDFBE83E09BCFF70119
:1048500084818F3F41F08F5F8483232B11F4138376
:10486000028380E001C08BECDFBE8CCF89EC8ACF65
:10487000EF92FF920F931F93CF93DF938C01892BBD
:1048800009F44CC00E944220DFB7F894F80122815D
:1048900033818217930751F0DFBFCFEC8C2FDF916C
:1048A000CF911F910F91FF90EF900895F801C4816F
:1048B000C150C483C1112FC01382128280819181A3
:1048C000892B39F1C8010E949A207C01BC0186EA3B
:1048D0009CE00E945020C82F882319F0DFBFCCEC49
:1048E000DDCFF7011686F801F382E282F7018785B2
:1048F0009089009741F4F701108A1786DFBF80E0A6
:104900000E941721CBCF0E94C4248823A1F3CDECB1
:10491000F5CFDFBFC3CFDFBFC0E0C0CFC9ECBECF94
:10492000CF93009751F0CFB7F894FC01608171816B
:1049300086EA9CE00E945020CFBFCF910895FC01F1
:10494000892B01F180819181892BE1F0848195810E
:10495000A681B781892B8A2B8B2BA1F02FB7F894D6
:104960008091C10C9091C20C009749F41186108679
:10497000F093C20CE093C10C2FBF80E008959187A3
:104980008087F6CF89EC0895BC01892B29F15FB7A8
:10499000F8942091C10C3091C20CF901D9013097E3
:1049A00011F48EEC0DC040859185E617F70781F470
:1049B000E217F30739F44093C10C9093C20C80E0E6
:1049C0005FBF089518964C93189719969C93F7CF4C
:1049D000DF01E42FF92FE3CF89EC08956091BD0C3E
:1049E0007091BE0C8091BF0C9091C00C08956093A3
:1049F000BD0C7093BE0C8093BF0C9093C00C0895B7
:104A00000F931F93CF93DF938091A50C8823D1F050
:104A10008091BD0C9091BE0CA091BF0CB091C00CC8
:104A20000196A11DB11D8093BD0C9093BE0CA09367
:104A3000BF0CB093C00C0091C10C1091C20CE801E6
:104A4000209729F4DF91CF911F910F9108958C81C8
:104A50009D81AE81BF810197A109B1098C839D839E
:104A6000AE83BF83892B8A2B8B2BE1F42091C10C61
:104A70003091C20C88859985C217D30779F4909339
:104A8000C20C8093C10CE881F981309719F08A81BA
:104A90009B8109950884D985C02DD2CFF8019187D3
:104AA0008087F1CF8E01F6CFCF92DF92EF92FF9207
:104AB0000F931F93CF93DF93CDB7DEB72C970FB62D
:104AC000F894DEBF0FBECDBF6B017C010E94422077
:104AD000FC01C114D104E104F10491F1892B91F19D
:104AE0000FB7F89481E08587FC87EB8780E994E233
:104AF0009A838983CE010B969C838B83CD82DE8241
:104B0000EF82F8860A97908B87870E949F24182F40
:104B10000FBF882389F01DEC812F2C960FB6F894D7
:104B2000DEBF0FBECDBFDF91CF911F910F91FF90E0
:104B3000EF90DF90CF90089580E00E941721ECCF96
:104B400019ECEACF18ECE8CF1F93CF93DF93EC0179
:104B5000892BA1F01FB7F8946881798182E0FB016D
:104B60008687108A17868C819D810E94B920688172
:104B7000798186EA9CE00E9450201FBFDF91CF918F
:104B80001F910895CF92DF92EF92FF920F931F93A0
:104B9000CF93DF93EC01CB016C817D812A893B8926
:104BA000620F731F4E815F810E94B7322E813F8159
:104BB00048855985CA88DB88EC88FD88C20ED31EDB
:104BC000E41EF51ECA8ADB8AEC8AFD8A8E899F89DB
:104BD000A88DB98D0197A109B1098E8B9F8BA88FE4
:104BE000B98F6A857B858C859D850E94C32FC616EB
:104BF000D706E806F90620F01A8A1B8A1C8A1D8A45
:104C0000CE010E949A208C01009709F1BC0186EA2E
:104C10009CE00E945020C82F81111BC0F80116860D
:104C200087859089009769F4F801108A17868C2F80
:104C3000DF91CF911F910F91FF90EF90DF90CF9078
:104C400008950E94C424882379F3CDECF0CFC0E00E
:104C5000EECFCCECECCFCF92DF92EF92FF920F939E
:104C60001F93CF93DF93EC012C813D818E859F852F
:104C70004E815F81820F931F0E94B7322E813F8148
:104C800048855985CE84DF84E888F988C20ED31E12
:104C9000E41EF51ECE86DF86E88AF98A8E899F8912
:104CA000A88DB98D0196A11DB11D8E8B9F8BA88FEC
:104CB000B98F6A857B858C859D850E94C32FC6161A
:104CC000D706E806F90620F01E861F86188A198A7C
:104CD000CE0102960E949A208C01009709F1BC0136
:104CE00086EA9CE00E945020C82F81111BC0F80169
:104CF000168687859089009769F4F801108A1786CF
:104D00008C2FDF91CF911F910F91FF90EF90DF904B
:104D1000CF9008950E94C424882379F3CDECF0CF7E
:104D2000C0E0EECFCCECECCFEF92FF920F931F934D
:104D3000FC01892B69F16115710551F121153105CE
:104D40004105510529F1E114F1040105110501F1B5
:104D5000758364832683378340875187E286F38691
:104D60000487158711821082138212821686178695
:104D7000108A118A128A138A148A158A168A178A47
:104D8000108E118E80E01F910F91FF90EF9008958B
:104D900089ECF9CFBF92CF92DF92EF92FF920F93FF
:104DA0001F93CF93DF937C01009709F446C000E086
:104DB0006C0182E0C80ED11C8AECB82E1FB7F894A3
:104DC000C6010E949A20EC01892B31F4C7010E9490
:104DD0009A20EC01892B71F1BE86BE0186EA9CE027
:104DE0000E9450208823B1F01FBFCCEC013039F471
:104DF0000E944220892B19F080E00E9417218C2FFD
:104E0000DF91CF911F910F91FF90EF90DF90CF90A6
:104E1000BF9008958F859889009749F00E94C42417
:104E2000882319F01FBFCDECE1CF188A1F861FBF62
:104E300001E0C4CF1FBFC0E0D9CFC9ECE0CF4F9293
:104E40005F926F927F928F929F92AF92BF92CF921A
:104E5000DF92EF92FF920F931F93CF93DF93CDB723
:104E6000DEB760970FB6F894DEBF0FBECDBF6C0102
:104E70002A013B015901009709F494C0211531051D
:104E800009F490C00FB7F894FC0186899789A08D2A
:104E9000B18D892B8A2B8B2B09F076C077FD71C0E1
:104EA0000E9442207C01009709F468C04601F2E0AC
:104EB0008F0E911CBC01C4010E945020182F81113B
:104EC0005AC081E0F70185874114510461047104DF
:104ED00009F44DC0FC86EB86DE86CD86988A8F86E7
:104EE00084EA95E29A838983CE010B969C838B8317
:104EF0004D825E826F8278860A97908B87870E94A8
:104F00009F24182F882349F0B701C4010E94B920BB
:104F1000F7011586108A17861DEC0FBF11110FC0FF
:104F200080E00E941721F7011685111108C00FB704
:104F3000F894B501C6010E94C225182F0FBF812F1A
:104F400060960FB6F894DEBF0FBECDBFDF91CF9154
:104F50001F910F91FF90EF90DF90CF90BF90AF9097
:104F60009F908F907F906F905F904F900895F70182
:104F7000108A1786D2CF0FBF1CECE1CF0FBF18EC01
:104F8000DECF0FBF13E0DBCFB901C6010E94C225FF
:104F9000182F0FBF0E944220892B89F280E00E94C7
:104FA0001721CDCF19ECCBCF4F925F926F927F92AA
:104FB000AF92BF92CF92DF92EF92FF920F931F9327
:104FC000CF93DF93CDB7DEB760970FB6F894DEBF0F
:104FD0000FBECDBF6C012A013B015901009709F4B6
:104FE00093C02115310509F48FC00FB7F894FC0167
:104FF00046895789608D718D82859385A485B58595
:10500000481759076A077B0709F070C077FC6BC027
:105010000E9442207C01009709F462C0BC01C601D5
:105020000E945020182F811158C081E0F701858718
:10503000411451046104710409F44BC0FC86EB86F1
:10504000DE86CD86D88ACF8684EA95E29A838983E4
:10505000CE010B969C838B834D825E826F82788615
:105060000A97908B87870E949F24182F882349F0E6
:10507000B701C6010E94B920F7011586108A17866C
:105080001DEC0FBF11110FC080E00E941721F70126
:105090001685111108C00FB7F894B501C6010E941A
:1050A0002B26182F0FBF812F60960FB6F894DEBF06
:1050B0000FBECDBFDF91CF911F910F91FF90EF9069
:1050C000DF90CF90BF90AF907F906F905F904F90A8
:1050D0000895F701108A1786D4CF0FBF1CECE3CFD9
:1050E0000FBF18ECE0CF0FBF13E0DDCFB901C60151
:1050F0000E942B26182F0FBF0E944220892B99F265
:1051000080E00E941721CFCF19ECCDCF0E94422022
:105110007894009771F0DC011396ED91FC9114974F
:10512000309739F015966D917D918D919C911897DE
:105130000994089526E838E2FB01208331973083F3
:1051400031971082319710823197108231971082F7
:1051500031971082319710823197108231971082E7
:1051600031971082319710823197108231971082D7
:1051700031971082319710823197108231971082C7
:10518000319710823197108264517109FC0171834B
:105190006083089586E891E0909389008093880069
:1051A00082E080936F008CE08093810008951F92CD
:1051B0000F920FB60F9211240BB60F922F933F93BD
:1051C0004F935F936F937F938F939F93AF93BF930F
:1051D000EF93FF930E9438200E94002581E00E94F7
:1051E000D521FF91EF91BF91AF919F918F917F91C9
:1051F0006F915F914F913F912F910F900BBE0F9048
:105200000FBE0F901F9018951F920F920FB60F921E
:1052100011240F900FBE0F901F9018958AE2809373
:10522000B8008FEF8093BB0084E08093BC000895AA
:105230008091BC00817008958091BC0080FDFCCFFE
:105240008091000108952091BC0020FDFCCF609367
:10525000C50CFC0120812093C60C20FF09C01092D0
:10526000C30C88EF8093000185EA8093BC00089509
:10527000FC013196A7ECBCE081E0861780F79191A4
:105280009D938F5FFACF8091BC0080FDFCCF109280
:10529000C30C88EF8093000185EA8093BC000895D9
:1052A0002091BC0020FDFCCF2091C30C20FD04C048
:1052B0008091C30C81700895A6ECBCE0282FFC01FE
:1052C0008E2F821B8617A0F78D918193F9CF1F92A5
:1052D0000F920FB60F9211240BB60F922F933F939C
:1052E0008F939F93EF93FF938091B900883249F099
:1052F000D0F4803121F0883121F08830D1F410923F
:10530000C40CE091C40C8091C50CE81720F581E035
:105310008E0F8093C40CF0E0EA53F34F80818093AA
:10532000BB0085E836C0803449F148F4883309F47D
:105330003FC08091B9008093000184E02AC080358D
:1053400089F08835B1F78091BB00E091C40CF0E0A2
:10535000EA53F34F80838091C30C81608093C30C28
:1053600084E917C0E091C40C81E08E0F8093C40CD7
:105370008091BB00F0E0EA53F34F80832091C40C8E
:1053800030E08091C50C90E00197281739074CF662
:1053900085EC8093BC00FF91EF919F918F913F919D
:1053A0002F910F900BBE0F900FBE0F901F9018956E
:1053B00085EAEFCF0E94922F882341F00E94492F67
:1053C0008091D80082608093D80081E008950F9387
:1053D0001F93CF93DF9300D000D0CDB7DEB78C0101
:1053E000DC0111968D919C9112970C97F1F41A960D
:1053F0008C911A97803669F48C918295807F809386
:10540000ED008091EF008F738093EF001092EE001B
:105410001C92F801128680E00F900F900F900F9071
:10542000DF91CF911F910F9108950E94562F8F3FCA
:1054300009F4A4C490E6D8011A969C931A978C9309
:105440008295807F8093ED00EEEEF0E01192E83FD0
:10545000F105E1F7D8011196ED91FC911297319782
:10546000EB30F10508F086C4E85CF54D0C9456303D
:10547000812AEA2A582BBB2BED2B252C602CF62CED
:10548000742D432A172E80E0F8019781891708F4BC
:10549000C2C319821A821B821C821092F7008B8170
:1054A000880F880F880F9A81929596959770890F2B
:1054B0008093F6008A81880F880F880F99819295D2
:1054C00096959770890F8093F5008981880F880FD2
:1054D000880F8093F4008091EF009781892B80934F
:1054E000EF0081E083878091F40084608093F40072
:1054F0008091F00084608093F0008091EF008062E2
:10550000DCC1F8018485882309F43FC08681880FB7
:10551000880F880F9581929596959770890F809343
:10552000F3008581880F880F880F94819295969556
:105530009770890F8093F2008481880F880F880FFD
:105540009381929596959770890F8093F10083814E
:10555000880F880F880F8093F0008091EF008061A2
:105560008093EF0080E0F8019781891718F1838517
:10557000882361F18091F00084608093F000809135
:10558000EF00D80117969C9164C084818295880FA2
:10559000807E9381969596959695890F8093F300DA
:1055A00083818295880F807E8093F2008091EF0046
:1055B0008F7ED6CFD8011896ED91FC911997E80F00
:1055C000F11D90819093FA008F5FCDCF8091F00014
:1055D0008B7FD3CFF8018485882309F448C0868166
:1055E000880F880F880F9581929596959770890FEF
:1055F0008093F3008581880F880F880F948192959E
:1056000096959770890F8093F2008481880F880F98
:10561000880F9381929596959770890F8093F100EA
:105620008381880F880F880F8093F0008091EF00AE
:1056300080618093EF0080E0F8019781891760F125
:1056400013868091F0008B7F8093F0008091EF00B3
:105650009781892B8093EF008091EF008F73809367
:10566000EF008091EF0080648093EF00D4CE8481BE
:105670008295880F807E9381969596959695890F51
:105680008093F30083818295880F807E8093F2005F
:105690008091EF008F7ECDCFD8011896ED91FC91CF
:1056A0001997E80FF11D90819093FA008F5FC4CF96
:1056B000D8011C968C911C97882309F446C0169635
:1056C0008C911697880F880F880F15969C911597C7
:1056D000929596959770890F8093F30015968C910B
:1056E0001597880F880F880F14969C9114979295A0
:1056F00096959770890F8093F20014968C91149769
:10570000880F880F880F13969C9113979295969502
:105710009770890F8093F10013968C91880F880FF2
:10572000880F8093F0008091EF0080618093EF00FC
:1057300081E0D8011B968C931B978091F0008460C8
:105740008093F0008091EF001DCFF8018481829555
:10575000880F807E9381969596959695890F809374
:10576000F30083818295880F807E8093F200809180
:10577000EF008F7EDBCF19821A821B821C8210926F
:10578000F7008B81880F880F880F9A8192959695E4
:105790009770890F8093F6008A81880F880F880F91
:1057A0009981929596959770890F8093F5008981DC
:1057B000880F880F880F8093F4008091EF00F80124
:1057C0009781892B8093EF008091F4008B7F8093E9
:1057D000F4008091F4008E7FE8C019821A821B8247
:1057E0001C821092F7008B81880F880F880F9A8196
:1057F000929596959770890F8093F6008A81880F0D
:10580000880F880F9981929596959770890F80934C
:10581000F5008981880F880F880F8093F4008091AC
:10582000EF00D80117969C911797892B8093EF0072
:105830001B961C928091F40084608093F400809108
:10584000F0008B7F8093F000C4CF19821A821B82F4
:105850001C821092F7008B81880F880F880F9A8125
:10586000929596959770890F8093F6008A81880F9C
:10587000880F880F9981929596959770890F8093DC
:10588000F5008981880F880F880F8093F40080913C
:10589000EF00F8019781892B8093EF0081E08387E7
:1058A0008091F40084608093F4008091F000846023
:1058B0008093F0008091EF008F7D8093EF0089CF7F
:1058C000D8011C968C911C97882309F479C01696F0
:1058D0008C911697880F880F880F15969C911597B5
:1058E000929596959770890F8093F30015968C91F9
:1058F0001597880F880F880F14969C91149792958E
:1059000096959770890F8093F20014968C91149756
:10591000880F880F880F13969C91139792959695F0
:105920009770890F8093F10013968C91880F880FE0
:10593000880F8093F0008091EF0080618093EF00EA
:105940008FEF9FEFDC0189839A83AB83BC838093C5
:10595000F7008B81880F880F880F9A819295969512
:105960009770890F8093F6008A81880F880F880FBF
:105970009981929596959770890F8093F50089810A
:10598000880F880F880F8093F4008091EF00D80172
:1059900017969C91892B8093EF008091F4008B7F68
:1059A0008093F4008091F40081608093F4008091F2
:1059B000EF008F738093EF008091EF00806854CEEA
:1059C000F80184818295880F807E938196959695C3
:1059D0009695890F8093F30083818295880F807E4E
:1059E0008093F2008091EF008F7EA8CFF80184852C
:1059F000882309F464C08681880F880F880F9581F9
:105A0000929596959770890F8093F3008581880F02
:105A1000880F880F9481929596959770890F80933F
:105A2000F2008481880F880F880F93819295969554
:105A30009770890F8093F1008381880F880F880FFA
:105A40008093F0008091EF0080618093EF008FEFF2
:105A50009FEFDC0189839A83AB83BC838093F7003B
:105A60008B81880F880F880F9A81929596959770F1
:105A7000890F8093F6008A81880F880F880F99819B
:105A8000929596959770890F8093F5008981880F7C
:105A9000880F880F8093F4008091EF00F8019781C0
:105AA000892B8093EF0013868091F40084608093AB
:105AB000F4008091F0008B7F8093F00073CF84819D
:105AC0008295880F807E9381969596959695890FFD
:105AD0008093F30083818295880F807E8093F2000B
