:100000000C944A000C9469000C9469000C946900EB
:100010000C9469000C9469000C9469000C946900BC
:100020000C9469000C9469000C9469000C946900AC
:100030000C9413280C9469000C9469000C946900CA
:100040000C9469000C9469000C9469000C9469008C
:100050000C9469000C9469000C9469000C9469007C
:100060000C9469000C9469000C9469000C9469006C
:100070000C9469000C9469000C9469000C9469005C
:100080000C9469000C9469000C9469000C94A328EA
:100090000C94690011241FBECFEFD0E1DEBFCDBFAD
:1000A00012E0A0E0B1E0E2E6FAE600E00BBF02C039
:1000B00007900D92A43FB107D9F72EE0A4EFB2E06C
:1000C00001C01D92A93BB207E1F70E94E12E0C94FA
:1000D0002F350C944028CF93DF9300D000D0CDB7BC
:1000E000DEB71B821C8281E789831A8240E050E0E0
:1000F000BA0182EB9EE00E94DC2262E0CE01019612
:100100000E945F2862E0CE0103960E948C2882EB59
:100110009EE00E9474238C8180FF0DC01092590EC6
:1001200083FF0DC01092FE0D0F900F900F900F9057
:10013000DF91CF91089591E09093590EF1CF81E036
:100140008093FE0DF1CFCF93DF9300D000D000D08D
:10015000CDB7DEB78091010190910201A09103011A
:10016000B091040189839A83AB83BC8340E050E063
:10017000BA0182EB9EE00E94DC2264E0CE0101968F
:100180000E945F2880E98D831E8262E0CE01059681
:100190000E945F2882EB9EE00E94742326960FB691
:1001A000F894DEBF0FBECDBFDF91CF910895CF93FE
:1001B000DF9300D000D000D0CDB7DEB7809105012D
:1001C00090910601A0910701B091080189839A835B
:1001D000AB83BC8340E050E0BA0182EB9EE00E941A
:1001E000DC2264E0CE0101960E945F2888E88D83BE
:1001F00081E08E831092330D1092320D62E0CE01B9
:1002000005960E945F2882EB9EE00E94742326964A
:100210000FB6F894DEBF0FBECDBFDF91CF9108952A
:10022000CF93DF9300D0CDB7DEB788E8898381E034
:100230008A8340E050E0BA0182EB9EE00E94DC221B
:1002400062E0CE0101960E945F2882EB9EE00E9450
:1002500074230F900F90DF91CF9108951F93CF9348
:10026000DF9300D000D000D0CDB7DEB70E941001E0
:1002700019E81C831D821E8240E050E0BA0182EB27
:100280009EE00E94DC2263E0CE0104960E945F287B
:1002900019831A821B8263E0CE0101960E948C288A
:1002A00082EB9EE00E9474238A8190E0982F882739
:1002B0002B81820F911D26960FB6F894DEBF0FBEDC
:1002C000CDBFDF91CF911F910895CF93DF9300D0E1
:1002D000CDB7DEB788E8898382E08A8340E050E0CA
:1002E000BA0182EB9EE00E94DC2262E0CE01019620
:1002F0000E945F2882EB9EE00E9474230F900F9073
:10030000DF91CF9108951F93CF93DF9300D000D05A
:1003100000D0CDB7DEB70E94650119E81C831D82AD
:100320001E8240E050E0BA0182EB9EE00E94DC2297
:1003300063E0CE0104960E945F2819831A821B8213
:1003400063E0CE0101960E948C2882EB9EE00E9421
:1003500074238A8190E0982F88272B81820F911D2A
:1003600026960FB6F894DEBF0FBECDBFDF91CF91BA
:100370001F9108951F93CF93DF9300D000D000D03A
:10038000CDB7DEB711E91C831D821E8240E050E02C
:10039000BA0182EB9EE00E94DC2263E0CE0104966B
:1003A0000E945F2819831A821B8263E0CE010196A6
:1003B0000E948C2882EB9EE00E9474238A8190E048
:1003C000982F88272B81820F911D26960FB6F894BF
:1003D000DEBF0FBECDBFDF91CF911F910895CF93A8
:1003E000DF9300D0CDB7DEB780E789838BEF8A83B8
:1003F00040E050E0BA0182EB9EE00E94DC2262E025
:10040000CE0101960E945F2882EB9EE00E94742339
:100410000F900F90DF91CF910895CF93DF9300D08D
:10042000CDB7DEB780E789838FEF8A8340E050E065
:10043000BA0182EB9EE00E94DC2262E0CE010196CE
:100440000E945F2882EB9EE00E9474230F900F9021
:10045000DF91CF910895FF920F931F93CF93DF9376
:1004600000D000D01F92CDB7DEB7F82E162F042F84
:1004700040E050E0BA0182EB9EE00E94DC2280E482
:100480008983612F6C60402F50E0440F551F8F2DE2
:10049000807F842B862B8A8328E02B8330E1F39E98
:1004A000C0011124642B682B6C832D8365E0CE0181
:1004B00001960E945F2882EB9EE00E9474230F90B9
:1004C0000F900F900F900F90DF91CF911F910F9190
:1004D000FF90089540E060E088E20E942B0240E037
:1004E00060E08EE00E942B0240E060E086E00C9429
:1004F0002B020F931F93CF93DF9300D000D0CDB783
:10050000DEB700E40B8318E01C8340E050E0BA0142
:1005100082EB9EE00E94DC2262E0CE0103960E9404
:100520005F2868E270E080E090E00E9490240983F8
:100530008CE28A8362E0CE0101960E945F281A83D2
:1005400062E0CE0101960E945F2882EB9EE00E944D
:1005500074230E946A020F900F900F900F90DF910A
:10056000CF911F910F910895CF93DF9300D0CDB716
:10057000DEB78091740D882369F040E060E088E088
:100580000E942B0280E489831A8262E0CE010196E8
:100590000E945F281092740D0F900F90DF91CF9101
:1005A00008950F931F93CF93DF93EC018C01060FF7
:1005B000111DC017D10729F4DF91CF911F910F9121
:1005C000089540E061E089910E942B02F2CFCF9321
:1005D000DF9300D0CDB7DEB7880F89831A8240E061
:1005E00050E0BA0182EB9EE00E94DC2262E0CE0184
:1005F00001960E945F2882EB9EE00E9474230F9078
:100600000F90DF91CF910895CF93DF9300D0CDB7B6
:10061000DEB7880F898381E08A8340E050E0BA0129
:1006200082EB9EE00E94DC2262E0CE0101960E94F5
:100630005F2882EB9EE00E9474230F900F90DF9161
:10064000CF9108950F931F93CF93DF9300D000D0E5
:1006500000D0CDB7DEB7982F990F9C8390E39D8390
:1006600093E09E83880F816089831A821B8240E019
:1006700050E0BA0182EB9EE00E94DC2263E0CE01F2
:1006800004960E945F2863E0CE0101960E945F28D5
:1006900063E0CE0101960E948C280A811B8182EBC7
:1006A0009EE00E947423C80126960FB6F894DEBF20
:1006B0000FBECDBFDF91CF911F910F910895CF93C2
:1006C0001092540E40E050E0BA0182EB9EE00E948E
:1006D000DC22C1E080E98C0F8230A8F08C2F0E94D0
:1006E0002203853A954A79F48091540E803158F46A
:1006F000E091540EF0E0EE5DF24FC0838091540E15
:100700008F5F8093540ECF5FC03821F782EB9EE05D
:10071000CF910C9474230F931F93CF93DF93CDB796
:10072000DEB728970FB6F894DEBF0FBECDBF182FE7
:10073000880F8E8380E38F831886812F880F8160D6
:1007400089831A821B821C821D8240E050E0BA011C
:1007500082EB9EE00E94DC2263E0CE0106960E94BE
:100760005F2865E0CE0101960E945F2865E0CE011A
:1007700001960E948C2805E0812F0E942203853A71
:10078000954AA1F58C8190E0982F88272D81820FC2
:10079000911D9093DF0C8093DE0C05E0812F0E9469
:1007A0002203853A954A29F58A8190E0982F882777
:1007B0002B81820F911D9093200D80931F0D82EB52
:1007C0009EE00E94742360911F0D7091200D809116
:1007D000DE0C9091DF0C28960FB6F894DEBF0FBEAA
:1007E000CDBFDF91CF911F910F910895015021F658
:1007F000D4CF015099F6E3CFEF92FF920F931F935E
:10080000CF93DF93CDB7DEB728970FB6F894DEBF4E
:100810000FBECDBF982F990F9E8390E39F8392E0E8
:100820009887880F816089831A821B821C821D82AF
:1008300040E050E0BA0182EB9EE00E94DC2263E0DF
:10084000CE0106960E945F2865E0CE0101960E94C7
:100850005F2865E0CE0101960E948C280C811D81E5
:10086000102701271027EA80FB80FE24EF24FE24B6
:1008700082EB9EE00E947423B701C80128960FB650
:10088000F894DEBF0FBECDBFDF91CF911F910F91C6
:10089000FF90EF900895EF92FF920F931F93CF93E5
:1008A000DF93CDB7DEB728970FB6F894DEBF0FBE43
:1008B000CDBF982F990F9E8390E39F8391E09887F7
:1008C000880F816089831A821B821C821D8240E00E
:1008D00050E0BA0182EB9EE00E94DC2263E0CE0190
:1008E00006960E945F2865E0CE0101960E945F286F
:1008F00065E0CE0101960E948C281D810C81FB8051
:10090000EA8082EB9EE00E947423B701C80128961A
:100910000FB6F894DEBF0FBECDBFDF91CF911F9110
:100920000F91FF90EF9008951F93CF93DF9310E006
:10093000C12F012E000CDD0B8091540E90E0C817E2
:10094000D90724F0DF91CF911F910895FE01EE5D4C
:10095000F24F80810E944B04FE01EE0FFF1FEE0F4D
:10096000FF1FEA55F24F608371838283938361E0B6
:1009700070E080E090E00E9490241F5FD9CF82EB6E
:100980009EE00E948A220E944A2840E050E0BA017C
:1009900082EB9EE00E94DC220E945F030E940D0217
:1009A00064E670E080E090E00E9490240E9494044D
:1009B00082EB9EE00C94742340E060E080E80E94AB
:1009C0002B020E946A0264E18FE59DE00E94D10241
:1009D00064E186EE9DE00E94D10264E188EE9CE035
:1009E0000E94D10264E188E99EE00C94D10284E186
:1009F000E0E9F1E0ADE8BDE001900D928A95E1F704
:100A000084E1E0E9F1E0A8E0BEE001900D928A9572
:100A1000E1F784E1E0E9F1E0ABE3BEE001900D92A3
:100A20008A95E1F784E1E0E9F1E0AFE1BEE0019011
:100A30000D928A95E1F708954F925F926F927F929F
:100A40008F929F92AF92BF92CF92DF92EF92FF92DE
:100A50001F93CF93DF93CDB7DEB728970FB6F894E7
:100A6000DEBF0FBECDBF0E94F70486E0E7ECF1E0E9
:100A7000ADE8BDE001900D928A95E1F784E0EEECDF
:100A8000F1E0A9E9BDE001900D928A95E1F785E2D8
:100A90008093A00D86E59AE39093090E8093080E4B
:100AA00081E49AE39093100E80930F0E86E0E3EDBD
:100AB000F1E0ABE3BEE001900D928A95E1F785E0AD
:100AC000EAEDF1E0A2E4BEE001900D928A95E1F733
:100AD0008DE49EE39093200E80931F0E80914F0D26
:100AE0009091500D8230910509F4F6C140F40097C1
:100AF00009F400C2019771F065EA71E00DC084301D
:100B0000910509F4EFC108F4EAC10697A9F763EC6F
:100B100071E002C06AEA71E0FB0101900020E9F790
:100B20003197AF01461B570B83E99DE00E94F331DB
:100B300086E78093210E80E38093220E4EE240935D
:100B4000230E81E38093240E86E38093250E80910B
:100B5000E70C24E6622F0E940F2F805D80939D0D8D
:100B60008091E70C0E940F2F892F2AE0622F0E94AC
:100B70000F2F805D80939E0D8091E70C0E940F2FB8
:100B8000905D90939F0D8091330E9091340E64E6AA
:100B900070E00E943D2F605D60930A0E8091330EDD
:100BA0009091340E2AE030E0B9010E943D2FCB0134
:100BB000B9010E943D2F805D80930B0E40930C0E77
:100BC0008091330E9091340EB9010E943D2F805DCB
:100BD00080930D0EC090340DD090350DE090360D01
:100BE000F090370D6091340D7091350D8091360D78
:100BF0009091370D0E94D13020E030E0A9010E9491
:100C0000223087FF0CC08DE28093110EC701B60120
:100C10000E94D13090580E9499306B017C01C7012D
:100C2000B60120EA36E841E050E00E94732F6AE006
:100C3000862E912CA12CB12CCA01B901A5019401D9
:100C40000E94732F605D6093120EC701B60120E110
:100C500037E240E050E00E94732FCA01B901A501BC
:100C600094010E94732F605D6093130EC701B6015B
:100C700028EE33E040E050E00E94732FCA01B90132
:100C8000A50194010E94732F605D6093140E8EE2A3
:100C90008093150EC701B60124E630E040E050E035
:100CA0000E94732FCA01B901A50194010E94732FFC
:100CB000605D6093160EC701B601A50194010E9404
:100CC000732F162FCA01B901A50194010E94732F39
:100CD000605D6093170E80E3810F8093180E809102
:100CE0003A0D882309F409C183E48093480E8CE40B
:100CF0008093490E8FE480934A0E83E580934B0ED8
:100D000085E480934C0E84E480934D0E0E942A2447
:100D10006B017C0124E630E040E050E00E94512F5E
:100D200029833A834B835C83C701B60120E737E10F
:100D300040E050E00E94512F29013A01C701B6015D
:100D400020E43EE745E050E00E94512F2D833E8392
:100D50004F8358878CE3882E912CA12CB12C69816C
:100D60007A818B819C81A50194010E94512F698316
:100D70007A838B839C83C301B201A50194010E94F5
:100D8000512F2B013C016D817E818F81988528E157
:100D900030E040E050E00E94512F6D837E838F83CE
:100DA00098879AE0892E912CA12CB12C69817A81A7
:100DB0008B819C81A50194010E94512F605D6093FD
:100DC000320E205D2093310E1AE31093300EC301D2
:100DD000B201A50194010E94512F605D60932F0E16
:100DE000205D20932E0E10932D0E6D817E818F81BC
:100DF0009885A50194010E94512F605D60932C0E8F
:100E0000205D20932B0E10932A0EC701B60120E01F
:100E100036ED43E850E00E94512FCA01B901A50107
:100E200094010E94512F605D6093290EC701B601A5
:100E300020E03CE546E255E00E94512FCA01B9018D
:100E4000A50194010E94512F605D6093280EC70197
:100E5000B60120E038E94FE753E30E94512F205DAF
:100E60002093270E84E1EDE8FDE0AFE5BDE00190C1
:100E70000D928A95E1F784E1E8E0FEE0A6EEBDE0A0
:100E800001900D928A95E1F784E1EBE3FEE0A8EE94
:100E9000BCE001900D928A95E1F784E1EFE1FEE07C
:100EA000A8E9BEE001900D928A95E1F728960FB669
:100EB000F894DEBF0FBECDBFDF91CF911F91FF90A1
:100EC000EF90DF90CF90BF90AF909F908F907F90EA
:100ED0006F905F904F9008956FEA71E01DCE65EBC3
:100EE00071E01ACE8091A20D805D8093970D6AEB20
:100EF00071E012CE6EEB71E00FCE8FE48093480E5E
:100F000080E58093490E85E480934A0E8EE48093B9
:100F10004B0E80E280934C0EF7CEAF92BF92CF92F1
:100F2000DF92EF92FF920F931F93CF93DF93C82F1F
:100F30000E94F70486E0E7ECF1E0ADE8BDE0019047
:100F40000D928A95E1F708E01EE093E4D8019C93A6
:100F500080E38C0F11968C9311975FE512965C934A
:100F6000129726E513962C9313974AE314964C9305
:100F70002BE33EE0F90190838183528354E5538350
:100F80004483AFE1BEE040E54C934FE211964C93B1
:100F9000119712969C93129713968C9313978EE346
:100FA00014968C93EC2FF0E0EE0FFF1FEF01C65A62
:100FB000D14F8881998148EEE42E43E0F42EB701A9
:100FC0000E94292F605DD80115966C9315974EE20B
:100FD00016964C9388819981B7010E94292F54E677
:100FE000A52EB12CB5010E94292F605DD80117965E
:100FF0006C9388819981B7010E94292FB5010E94C5
:10100000292F6AE0C62ED12CB6010E94292F605DDF
:10101000D80118966C9388819981B6010E94292F76
:10102000805DD80119968C93E35CF24F80819181A9
:10103000B7010E94292F605DD90115966C938081BC
:101040009181B7010E94292FB5010E94292F605D6F
:10105000D90116966C9380819181B7010E94292F46
:10106000B5010E94292FB6010E94292F605DD90188
:1010700017966C93179718964C9380819181B601BF
:101080000E94292F805DF901818784E1EDE8FDE070
:10109000AFE5BDE001900D928A95E1F784E1F8019A
:1010A000A6EEBDE001900D928A95E1F784E1F90189
:1010B000A8EEBCE001900D928A95E1F784E1EFE1A2
:1010C000FEE0A8E9BEE001900D928A95E1F7DF917C
:1010D000CF911F910F91FF90EF90DF90CF90BF9035
:1010E000AF900895AF92BF92CF92DF92EF92FF92AE
:1010F0000F931F93CF93DF93C82F0E94F70485E0CF
:10110000E0EEF1E0ADE8BDE001900D928A95E1F7E7
:1011100085E0E6EEF1E0A7E9BDE001900D928A9549
:10112000E1F785E0ECEEF1E0A8E0BEE001900D9281
:101130008A95E1F785E0E2EFF1E0ABE3BEE00190F4
:101140000D928A95E1F787E0E8EFF1E0A5E4BEE0D3
:1011500001900D928A95E1F783E0E0E0F2E0AFE1E3
:10116000BEE001900D928A95E1F780E38C0F8093A9
:10117000220E83E0E4E0F2E0A3E2BEE001900D92F3
:101180008A95E1F73FE4E32E3EE0F32E4BE7A42EF1
:101190004DE0B42EF501670180E2D6018D936D011B
:1011A0008193B4E5CB16BEE0DB06B9F7D0E08E0143
:1011B000000F111FF801E058F14F808191814AE042
:1011C0006FE47EE00E94FC31F801EF5AF24F80811B
:1011D00091814AE06BE77DE00E94FC3180E2F701FB
:1011E0009081911101C08083D5019C91911101C022
:1011F0008C93BFEFEB1AFB0AEFEFAE1ABE0ACE14C8
:10120000DF0469F780914F0E80930D0E8091500E90
:1012100080930E0E8091510E80930F0E8091520E8E
:101220008093100E8091530E8093110E80917B0D50
:101230008093920D80917C0D8093930D80917D0D14
:101240008093940D80917E0D8093950D80917F0DFC
:101250008093960DF801E259F14F8081918164E607
:1012600070E00E94292F2AE030E0B9010E94292F66
:10127000605D60939C0D80819181B9010E94292F4E
:10128000805D80939D0D8E01000F111F000F111FB7
:10129000C8018450934F7C01DC016D917D918D914B
:1012A0009C910E949930605D6093170E8EE280934E
:1012B000180EF701608171818281938120E030E016
:1012C00040E251E40E9486310E949930862F9AE0D4
:1012D000D92E6D2D0E941B2F905D9093190ED70172
:1012E0006D917D918D919C9120E030E048EC52E42D
:1012F0000E9486310E949930862F6D2D0E941B2FEF
:10130000905D90931A0EF7016081718182819381C3
:1013100020E030E04AE754E40E9486310E94993090
:10132000862F6D2D0E941B2F97FD7BC0F7018081BA
:101330009181A281B381608171818281938120E05A
:1013400030E04AE754E40E9486310E949930862FAB
:101350006D2D0E941B2F905D90931B0ECE5DD24F82
:1013600088811F928F938AE092E09F938F9388E108
:101370009DE09F938F930E9421328091180D80935E
:101380004C0E8091190D80934D0E80911A0D809313
:101390004E0EF801EA55F24F8081805D8093400E39
:1013A0008181805D8093410E8281805D8093420EB9
:1013B0008381805D8093430E84E1EDE8FDE0AFE53D
:1013C000BDE001900D928A95E1F784E1E8E0FEE04E
:1013D000A6EEBDE001900D928A95E1F784E1EBE382
:1013E000FEE0A8EEBCE001900D928A95E1F784E161
:1013F000EFE1FEE0A8E9BEE001900D928A95E1F7E9
:101400000F900F900F900F900F900F90DF91CF9152
:101410001F910F91FF90EF90DF90CF90BF90AF9012
:10142000089580E280931B0E99CFEF92FF920F9365
:101430001F93CF93DF930E94F70423E520938D0D34
:1014400095E490938E0D84E580938F0D30E5309375
:10145000910D31E43093920D33E43093930D3BE4DE
:101460003093940D39E43093960D34E43093970D16
:1014700037E0EFE0F2E0A8E0BEE001900D923A958F
:10148000E1F78093100E3FE43093110E46E0E7E160
:10149000F2E0A3E1BEE001900D924A95E1F745E04C
:1014A000EEE1F2E0ABE3BEE001900D924A95E1F788
:1014B0008093410E3093420E2093440E9093450E3C
:1014C0008093460E85E0E4E2F2E0AFE1BEE00190F9
:1014D0000D928A95E1F784E0EAE2F2E0AAE2BEE04A
:1014E00001900D928A95E1F784E1EDE8FDE0AFE52A
:1014F000BDE001900D928A95E1F784E1E8E0FEE01D
:10150000A6EEBDE001900D928A95E1F784E1EBE350
:10151000FEE0A8EEBCE001900D928A95E1F784E12F
:10152000EFE1FEE0A8E9BEE001900D928A95E1F7B7
:101530006AE070E080E090E00E9490248091210DAC
:101540008093BB0C8091210D1F928F93CFE2D2E04C
:10155000DF93CF938CE69EE09F938F930E9421327E
:101560008091BB0C1F928F93DF93CF938CE19EE011
:101570009F938F930E94213281E08093FF0D8DB75E
:101580009EB70C960FB6F8949EBF0FBE8DBF0CE1B0
:101590001EE08FE7F82EEE24E39480917E0E8823E0
:1015A00009F4CCC08091FF0D8F5F8093FF0D809177
:1015B000FF0D8093BB0C8091BB0C803831F4E0921E
:1015C000FF0D8091FF0D8093BB0C8091BB0C1F928F
:1015D0008F93DF93CF931F930F930E94213210922A
:1015E0007E0E0F900F900F900F900F900F908091A4
:1015F0006C0E8093260E80916D0E8093270E809145
:101600001C0E80932F0E80911D0E8093300E84E16E
:10161000EDE8FDE0AFE5BDE001900D928A95E1F7C0
:1016200084E1E8E0FEE0A6EEBDE001900D928A952F
:10163000E1F784E1EBE3FEE0A8EEBCE001900D925F
:101640008A95E1F784E1EFE1FEE0A8E9BEE00190D0
:101650000D928A95E1F71899A0CF6091BB0C88E0B4
:1016600090E00E94223588E090E00E941A35809335
:10167000210D80E580938D0D81E480938E0D83E4B0
:1016800080938F0D8BE48093900D80E28093910D79
:1016900099E49093920D94E49093930D8093940D1C
:1016A00093E59093950D95E49093960D94E5909322
:1016B000970D91E29093980D8093990D80939A0DD8
:1016C00080939B0D80939C0D80939D0D80939E0D28
:1016D00080939F0D8093A00D84E1EDE8FDE0AFE5E0
:1016E000BDE001900D928A95E1F784E1E8E0FEE02B
:1016F000A6EEBDE001900D928A95E1F784E1EBE35F
:10170000FEE0A8EEBCE001900D928A95E1F784E13D
:10171000EFE1FEE0A8E9BEE001900D928A95E1F7C5
:101720006AE070E080E090E00E94902480E0DF9129
:10173000CF911F910F91FF90EF9008958091390EF6
:10174000882309F454CF8091FF0D81508093FF0DC1
:101750008091FF0D811102C0F092FF0D8091FF0D6D
:101760008093BB0C8091BB0C1F928F93DF93CF9320
:101770001F930F930E9421321092390E32CFFF92A5
:101780000F931F93CF93DF930E94F70483E0E4E36A
:10179000F2E0ADE8BDE001900D928A95E1F786E0B8
:1017A000E8E3F2E0A1E9BDE001900D928A95E1F74E
:1017B0008FE496E49093990D8093980D85E0EFE384
:1017C000F2E0ABE9BDE001900D928A95E1F787E088
:1017D000EFE0F2E0A8E0BEE001900D928A95E1F71B
:1017E00084E59FE49093110E8093100E86E0E7E16C
:1017F000F2E0A3E1BEE001900D928A95E1F784E169
:10180000EDE8FDE0AFE5BDE001900D928A95E1F7CE
:1018100084E1E8E0FEE0A6EEBDE001900D928A953D
:10182000E1F784E1EBE3FEE0A8EEBCE001900D926D
:101830008A95E1F784E1EFE1FEE0A8E9BEE00190DE
:101840000D928A95E1F76AE070E080E090E00E94F6
:10185000902480917F0E8093BB0C80917F0E1F920D
:101860008F93CFE2D2E0DF93CF938CE69EE09F93FD
:101870008F930E9421328091BB0C1F928F93DF9334
:10188000CF938CE19EE09F938F930E94213281E061
:101890008093FF0D8DB79EB70C960FB6F8949EBF40
:1018A0000FBE8DBF0CE11EE0FF24FA9480917E0EE6
:1018B000882309F4BEC08091FF0D8F5F8093FF0DD8
:1018C0008091FF0D8093BB0C8091BB0C1F928F9376
:1018D000DF93CF931F930F930E94213210927E0EBD
:1018E0000F900F900F900F900F900F9080916C0EB3
:1018F0008093260E80916D0E8093270E80911C0E92
:1019000080932F0E80911D0E8093300E84E1EDE8C0
:10191000FDE0AFE5BDE001900D928A95E1F784E12D
:10192000E8E0FEE0A6EEBDE001900D928A95E1F7B9
:1019300084E1EBE3FEE0A8EEBCE001900D928A9515
:10194000E1F784E1EFE1FEE0A8E9BEE001900D924D
:101950008A95E1F71899AACF6091BB0C89E090E0D5
:101960000E94223589E090E00E941A3580937F0E14
:101970008EE480938D0D85E580938E0D8DE48093AC
:101980008F0D80E28093900D93E49093910D95E4F8
:101990009093920D2CE42093930D2093940D23E5C6
:1019A0002093950D8093960D2093970D9093980D0D
:1019B00094E59093990D91E290939A0D80939B0DED
:1019C00080939C0D80939D0D80939E0D80939F0D21
:1019D0008093A00D84E1EDE8FDE0AFE5BDE001906E
:1019E0000D928A95E1F784E1E8E0FEE0A6EEBDE025
:1019F00001900D928A95E1F784E1EBE3FEE0A8EE19
:101A0000BCE001900D928A95E1F784E1EFE1FEE000
:101A1000A8E9BEE001900D928A95E1F76AE070E0D6
:101A200080E090E0DF91CF911F910F91FF900C9497
:101A300090248091390E882309F458CF8091FF0DAE
:101A400081508093FF0D8091FF0D811102C0F092B3
:101A5000FF0D8091FF0D8093BB0C8091BB0C1F92FA
:101A60008F93DF93CF931F930F930E942132109295
:101A7000390E36CF0E94F70487E0E5E4F2E0ADE8E6
:101A8000BDE001900D928A95E1F788E0EDE4F2E087
:101A9000A5E9BDE001900D928A95E1F784E1EDE8BA
:101AA000FDE0AFE5BDE001900D928A95E1F784E19C
:101AB000E8E0FEE0A6EEBDE001900D928A95E1F728
:101AC00084E1EBE3FEE0A8EEBCE001900D928A9584
:101AD000E1F784E1EFE1FEE0A8E9BEE001900D92BC
:101AE0008A95E1F766E970E080E090E00C9490243C
:101AF0000E942A246093FA0D7093FB0D8093FC0DD5
:101B00009093FD0D0E94F70485E0EEE1F2E0ADE870
:101B1000BDE001900D928A95E1F784E59FE49093F2
:101B2000940D8093930D27E0E6E5F2E0A6E9BDE091
:101B300001900D922A95E1F723E0EEE5F2E0ABE3A8
:101B4000BEE001900D922A95E1F725E0E2E6F2E091
:101B5000AFE3BEE001900D922A95E1F726E0E8E6BA
:101B6000F2E0A5E4BEE001900D922A95E1F7909392
:101B7000090E8093080E84E0EFE6F2E0ABE0BEE0F1
:101B800001900D928A95E1F787E0E4E7F2E0A0E1A9
:101B9000BEE001900D928A95E1F784E1EDE8FDE069
:101BA000AFE5BDE001900D928A95E1F784E1E8E0B0
:101BB000FEE0A6EEBDE001900D928A95E1F784E18A
:101BC000EBE3FEE0A8EEBCE001900D928A95E1F710
:101BD00084E1EFE1FEE0A8E9BEE001900D928A9574
:101BE000E1F780917E0E882321F010927E0E80E036
:101BF00008958091390E882319F01092390EF7CF8D
:101C0000189B07C06AE070E080E090E00E9490249A
:101C1000E8CF81E00895CF92DF92EF92FF920F9389
:101C20001F93CF93DF930E94F70486E0ECE7F2E086
:101C3000ADE8BDE001900D928A95E1F786E0E3E81A
:101C4000F2E0A4E9BDE001900D928A95E1F784E00D
:101C5000EAE8F2E0ABE3BEE001900D928A95E1F78D
:101C600085E0E4E2F2E0A8E0BEE001900D928A9502
:101C7000E1F784E0EAE2F2E0A3E1BEE001900D9238
:101C80008A95E1F711E01093BB0C8091BB0C1F9279
:101C90008F93CFE2D2E0DF93CF938CE69EE09F93C9
:101CA0008F930E9421328091BB0C1F928F93DF9300
:101CB000CF938CE19EE09F938F930E94213280917D
:101CC0006C0E80930D0E80916D0E80930E0E8091A0
:101CD0001C0E8093170E80911D0E8093180E84E1C8
:101CE000EDE8FDE0AFE5BDE001900D928A95E1F7EA
:101CF00084E1E8E0FEE0A6EEBDE001900D928A9559
:101D0000E1F784E1EBE3FEE0A8EEBCE001900D9288
:101D10008A95E1F784E1EFE1FEE0A8E9BEE00190F9
:101D20000D928A95E1F76AE070E080E090E00E9411
:101D300090241093FF0D8DB79EB70C960FB6F894B4
:101D40009EBF0FBE8DBF8E01CCE1DEE00E942A2433
:101D5000C090FA0DD090FB0DE090FC0DF090FD0DC1
:101D60006C197D098E099F096034764081059105C3
:101D700008F0EAC180917E0E882309F47DC00E949C
:101D80002A246093FA0D7093FB0D8093FC0D9093C1
:101D9000FD0D8091FF0D8F5F8093FF0D8091FF0DF2
:101DA0008093BB0C8091BB0C1F928F931F930F935A
:101DB000DF93CF930E94213210927E0E0F900F90EE
:101DC0000F900F900F900F9080916C0E80930D0EDE
:101DD00080916D0E80930E0E80911C0E8093170ED5
:101DE00080911D0E8093180E84E1EDE8FDE0AFE5D3
:101DF000BDE001900D928A95E1F784E1E8E0FEE014
:101E0000A6EEBDE001900D928A95E1F784E1EBE347
:101E1000FEE0A8EEBCE001900D928A95E1F784E126
:101E2000EFE1FEE0A8E9BEE001900D928A95E1F7AE
:101E3000189947C00E942A246093FA0D7093FB0DF5
:101E40008093FC0D9093FD0D80E090E0FC01E45543
:101E5000F14F30812091BB0C3217D1F101968630C1
:101E60009105A1F7DF91CF911F910F91FF90EF9016
:101E7000DF90CF900C943A0D8091390E882309F4AD
:101E8000A3CF0E942A246093FA0D7093FB0D8093D8
:101E9000FC0D9093FD0D8091FF0D81508093FF0DFF
:101EA0008091FF0D8093BB0C8091BB0C1F928F9390
:101EB0001F930F93DF93CF930E9421321092390E1C
:101EC0007DCF6AE070E080E090E00E9490243ECFF9
:101ED0000E94F70486E0ECE7F2E0ADE8BDE0019097
:101EE0000D928A95E1F786E0E3E8F2E0A4E9BDE02F
:101EF00001900D928A95E1F783E0EFE8F2E0ABE321
:101F0000BEE001900D928A95E1F785E0E4E2F2E00F
:101F1000A8E0BEE001900D928A95E1F784E0EAE244
:101F2000F2E0A3E1BEE001900D928A95E1F788E02E
:101F3000E3E9F2E0AFE1BEE001900D928A95E1F7AE
:101F4000C091BB0CC13009F4C8C0C23009F4CAC08A
:101F50008091BB0C1F928F930FE212E01F930F939F
:101F60008CE69EE09F938F930E9421328091BB0C60
:101F70001F928F931F930F938CE19EE09F938F93FB
:101F80000E94213290916C0E90930D0E80916D0EF7
:101F900080930E0E20911C0E2093170E20911D0E83
:101FA0002093180E9093270E8093280E84E1EDE87D
:101FB000FDE0AFE5BDE001900D928A95E1F784E187
:101FC000E8E0FEE0A6EEBDE001900D928A95E1F713
:101FD00084E1EBE3FEE0A8EEBCE001900D928A956F
:101FE000E1F784E1EFE1FEE0A8E9BEE001900D92A7
:101FF0008A95E1F76FE070E080E090E00E94902425
:102000008091BB0C8093FF0D8DB79EB70C960FB6D9
:10201000F8949EBF0FBE8DBF8CE1E82E8EE0F82EA7
:1020200080917E0E882309F460C08091FF0D8F5F40
:102030008093FF0D8091FF0D8093BB0C8091BB0CB2
:102040001F928F931F930F93FF92EF920E94213262
:1020500010927E0E0F900F900F900F900F900F9098
:1020600080916C0E80930D0E80916D0E80930E0EFC
:1020700080911C0E8093170E80911D0E8093180E78
:1020800084E1EDE8FDE0AFE5BDE001900D928A95B9
:10209000E1F784E1E8E0FEE0A6EEBDE001900D92FC
:1020A0008A95E1F784E1EBE3FEE0A8EEBCE0019065
:1020B0000D928A95E1F784E1EFE1FEE0A8E9BEE048
:1020C00001900D928A95E1F7189B2AC06FE070E0AD
:1020D00080E090E00E949024A3CF8091210D809316
:1020E000BB0C36CF80917F0EFACF8091390E8823BA
:1020F00009F4B6CF8091FF0D81508093FF0D809140
:10210000FF0D8093BB0C8091BB0C1F928F931F938C
:102110000F93FF92EF920E9421321092390E9ACFC4
:1021200064E670E080E090E00E9490240E94780DC8
:10213000882351F06FE070E080E090E00E949024EE
:10214000C13059F0C230B1F0DF91CF911F910F91A2
:10215000FF90EF90DF90CF9008956091BB0C88E0E6
:1021600090E00E94223588E090E00E941A3580932A
:10217000210DEACF6091BB0C89E090E00E942235EE
:1021800089E090E00E941A3580937F0EDDCF0E9497
:10219000F70485E0ECE9F2E0ADE8BDE001900D92D6
:1021A0008A95E1F784E0E2EAF2E0A3E9BDE001907C
:1021B0000D928A95E1F787E0E7EAF2E0A8E0BEE059
:1021C00001900D928A95E1F786E0E5E9F2E0ABE354
:1021D000BEE001900D928A95E1F784E0EFEAF2E02B
:1021E000AFE1BEE001900D928A95E1F784E1EDE860
:1021F000FDE0AFE5BDE001900D928A95E1F784E145
:10220000E8E0FEE0A6EEBDE001900D928A95E1F7D0
:1022100084E1EBE3FEE0A8EEBCE001900D928A952C
:10222000E1F784E1EFE1FEE0A8E9BEE001900D9264
:102230008A95E1F708950E94F70485E0E4EBF2E067
:10224000ADE8BDE001900D928A95E1F785E0EEE101
:10225000F2E0A3E9BDE001900D928A95E1F784E5F3
:102260009FE490939A0D8093990D87E0EAEBF2E05A
:10227000ABE3BEE001900D928A95E1F784E0E2ECD9
:10228000F2E0A3E4BEE001900D928A95E1F784E0CC
:10229000E2EAF2E0A8E4BEE001900D928A95E1F74F
:1022A00084E1EDE8FDE0AFE5BDE001900D928A9597
:1022B000E1F784E1E8E0FEE0A6EEBDE001900D92DA
:1022C0008A95E1F784E1EBE3FEE0A8EEBCE0019043
:1022D0000D928A95E1F784E1EFE1FEE0A8E9BEE026
:1022E00001900D928A95E1F708950E94F70485E028
:1022F000E4EBF2E0ADE8BDE001900D928A95E1F7E4
:1023000085E0EEE1F2E0A3E9BDE001900D928A954F
:10231000E1F784E59FE490939A0D8093990D87E00F
:10232000EAEBF2E0ABE3BEE001900D928A95E1F7B3
:1023300084E0E2ECF2E0A3E4BEE001900D928A9525
:10234000E1F78BE0E7ECF2E0A8E0BEE001900D924F
:102350008A95E1F784E1EDE8FDE0AFE5BDE00190AD
:102360000D928A95E1F784E1E8E0FEE0A6EEBDE09B
:1023700001900D928A95E1F784E1EBE3FEE0A8EE8F
:10238000BCE001900D928A95E1F784E1EFE1FEE077
:10239000A8E9BEE001900D928A95E1F708950E94A8
:1023A000F70485E0E4EBF2E0ADE8BDE001900D92CA
:1023B0008A95E1F785E0EEE1F2E0A3E9BDE0019066
:1023C0000D928A95E1F784E59FE490939A0D8093AE
:1023D000990D87E0EAEBF2E0ABE3BEE001900D92ED
:1023E0008A95E1F786E0E3EDF2E0A3E4BEE0019038
:1023F0000D928A95E1F786E0EAEDF2E0A8E0BEE012
:1024000001900D928A95E1F784E1EDE8FDE0AFE5FA
:10241000BDE001900D928A95E1F784E1E8E0FEE0ED
:10242000A6EEBDE001900D928A95E1F784E1EBE321
:10243000FEE0A8EEBCE001900D928A95E1F784E100
:10244000EFE1FEE0A8E9BEE001900D928A95E1F788
:1024500008954F925F926F927F928F929F92AF9268
:10246000BF92CF92DF92EF92FF921F93CF93DF93B1
:10247000CDB7DEB728970FB6F894DEBF0FBECDBF3D
:10248000F82E0E94F70485E0E5EEF2E0ADE8BDE04D
:1024900001900D928A95E1F783E0EBEEF2E0A3E97B
:1024A000BDE001900D928A95E1F786E0E7ECF1E05E
:1024B000A8E0BEE001900D928A95E1F784E0EFEE8E
:1024C000F2E0ABE3BEE001900D928A95E1F784E182
:1024D000EDE8FDE0AFE5BDE001900D928A95E1F7F2
:1024E00084E1E8E0FEE0A6EEBDE001900D928A9561
:1024F000E1F784E1EBE3FEE0A8EEBCE001900D9291
:102500008A95E1F784E1EFE1FEE0A8E9BEE0019001
:102510000D928A95E1F78F2D90E0FC01EE0FFF1FE1
:10252000E257F14FE080F180880F991F880F991FC3
:10253000FC01E454F34F408051806280738082E05C
:10254000E816F10409F4F2C108F0E3C1E114F10462
:1025500009F4FAC1F1E0EF16F10409F4F8C165EAF3
:1025600071E0FB0101900020E9F73197AF01461BB4
:10257000570B8EE09EE00E94F33184E0E816F104F0
:1025800009F043C08091A30D805D80931F0E809160
:10259000A20D8111DFC18091A40D9091A50D28EEAF
:1025A00033E0B9010E94292F605D60939C0D8091FA
:1025B000A40D9091A50DB9010E94292FE4E6F0E049
:1025C000BF010E94292F605D60939D0D8091A40D35
:1025D0009091A50DB9010E94292FBF010E94292FBA
:1025E0002AE030E0B9010E94292F605D60939E0DC2
:1025F0008EE280939F0D8091A40D9091A50DB9015D
:102600000E94292F805D8093A00DC301B20124E6B2
:1026100030E040E050E00E94512F29833A834B8301
:102620005C83C301B20120E737E140E050E00E9443
:10263000512F49015A01C301B20120E43EE745E0B0
:1026400050E00E94512F69017A0169817A818B8162
:102650009C812CE330E040E050E00E94512F6983E0
:102660007A838B839C83C501B4012CE330E040E086
:1026700050E00E94512F6D837E838F839887C7011E
:10268000B60128E130E040E050E00E94512F6B019C
:102690007C018AE0882E912CA12CB12C69817A8151
:1026A0008B819C81A50194010E94512F605D6093F4
:1026B0004E0E205D20934D0E1AE310934C0E6D814B
:1026C0007E818F819885A50194010E94512F605DC4
:1026D00060934B0E205D20934A0E1093490EC70164
:1026E000B601A50194010E94512F605D6093480ED0
:1026F000205D2093470E1093460EC301B20120E0E7
:1027000036ED43E850E00E94512FCA01B901A501FE
:1027100094010E94512F605D6093450EC301B20188
:1027200020E03CE546E255E00E94512FCA01B90184
:10273000A50194010E94512F605D6093440EC30176
:10274000B20120E038E94FE753E30E94512F205DAA
:102750002093430E0E942A246B017C0124E630E082
:1027600040E050E00E94512F29833A834B835C83E1
:10277000C701B60120E737E140E050E00E94512F49
:1027800029013A01C701B60120E43EE745E050E0E7
:102790000E94512F2D833E834F83588769817A8110
:1027A0008B819C812CE330E040E050E00E94512F6F
:1027B00069837A838B839C83C301B2012CE330E06D
:1027C00040E050E00E94512F2B013C016D817E8141
:1027D0008F81988528E130E040E050E00E94512F41
:1027E0006D837E838F83988769817A818B819C81B9
:1027F000A50194010E94512F605D6093320E205D0F
:102800002093310E1093300EC301B201A501940143
:102810000E94512F605D60932F0E205D20932E0E3D
:1028200010932D0E6D817E818F819885A501940175
:102830000E94512F605D60932C0E205D20932B0E23
:1028400010932A0EC701B60120E036ED43E850E0B0
:102850000E94512FCA01B901A50194010E94512F74
:10286000605D6093290EC701B60120E03CE546E2B9
:1028700055E00E94512FCA01B901A50194010E949F
:10288000512F605D6093280EC701B60120E038E942
:102890004FE753E30E94512F205D2093270E84E1E0
:1028A000EDE8FDE0AFE5BDE001900D928A95E1F71E
:1028B00084E1E8E0FEE0A6EEBDE001900D928A958D
:1028C000E1F784E1EBE3FEE0A8EEBCE001900D92BD
:1028D0008A95E1F784E1EFE1FEE0A8E9BEE001902E
:1028E0000D928A95E1F728960FB6F894DEBF0FBED9
:1028F000CDBFDF91CF911F91FF90EF90DF90CF90F0
:10290000BF90AF909F908F907F906F905F904F900F
:10291000089584E0E816F10479F058F0F6E0EF1637
:10292000F10409F01CCE63EC71E01BCE6FEA71E09C
:1029300018CE61EE72E015CE8091A20D805D80937D
:10294000120E6AEB71E00DCE6EEB71E00ACE6AEA10
:1029500071E007CE8091A20D813009F056CE8091B2
:10296000A40D9091A50D28EE33E0B9010E94292F06
:10297000605D60939C0D8EE280939D0D8091A40D0F
:102980009091A50DB9010E94292FE4E6F0E0BF0166
:102990000E94292F605D60939E0D8091A40D9091FF
:1029A000A50DB9010E94292FBF010E94292F2AE0FD
:1029B00030E0B9010E94292F605D60939F0D1BCE0E
:1029C00084B1887F84B985B1876085B908950E94F4
:1029D000E01462E370E080E090E00E949024C1E0A7
:1029E0001A9909C0C0937E0E64E170E080E090E027
:1029F0000E949024F5CF199903C0C093390EF4CFEB
:102A00001899EECFC093BA0CEFCFEF92FF920F93CD
:102A10001F93CF93DF93CDB7DEB74DB75EB78091ED
:102A2000540E2DB73EB7281B31090FB6F8943EBFA0
:102A30000FBE2DBF2F5F3F4F80914F0D9091500DD6
:102A4000019709F092C08091750D882309F48DC01B
:102A50001092750D80E09091540E891760F0A0E0FF
:102A60008091540E6A2F70E090E001976817790703
:102A7000BCF5B0E029C0F901E80FF11D80838F5F3C
:102A8000EACFB901680F791FFB01E080EE2DF0E07D
:102A9000EE0FFF1FE65AF14F008111810196820F60
:102AA000931FFC01F080EF2DF0E0EE0FFF1FE65AC0
:102AB000F14F0190F081E02DE017F10720F4FC01C7
:102AC000E082FB01F082BF5F8B2F90E06091540E9B
:102AD00070E061507109861797079CF2AF5FC0CF15
:102AE0008091540E815097E0811111C0A1E0609156
:102AF000540E861748F10FB6F8945EBF0FBE4DBF57
:102B0000DF91CF911F910F91FF90EF900895D90120
:102B1000A80FB11DEC91F0E0EE0FFF1FE65AF14F48
:102B2000608171811197EC91F0E0EE0FFF1FE65A82
:102B3000F14F0190F081E02D6E1B7F0B6931710523
:102B400008F0982F8150D0CF682F70E0620F731F6C
:102B5000FB016081E62FF0E0E052F34F891718F097
:102B6000A0838F5FC4CF1082FCCF80914F0D9091D6
:102B7000500D019709F4BFCF80E09091540E891752
:102B800008F0B9CFE82FF0E0E052F34F10828F5FEA
:102B9000F4CFCF93DF9300D000D000D0CDB7DEB715
:102BA0000E94BF040E94A3000E94D7000E947902E5
:102BB00081E080931C0D1092750D34E6432E512C4C
:102BC000612C712C222423940E942A24A3019201B7
:102BD0000E94512F633371058105910508F4F0C0FF
:102BE00080911C0D882349F010921C0D2092750DC8
:102BF0008091740D81110E94DC0465E070E080E03A
:102C000090E00E949024312C8091540E381608F4E4
:102C1000DAC00E948301BC01990F880B990B0E94B6
:102C2000D1302AE037ED43EA5AE30E94863121ECA5
:102C30003AEC41E85FE30E9486312AE939E949E943
:102C40005EE30E94B52F20E030E040E251E40E94B4
:102C500086310E94A0307093340E6093330E0E9430
:102C60006B000E942E01092E000CAA0BBB0BB09525
:102C7000A095909581959F4FAF4FBF4F80934B0D7F
:102C800090934C0DA0934D0DB0934E0D80914B0D34
:102C900090914C0DA0914D0DB0914E0D803E9E42F5
:102CA000A105B105CCF480914B0D90914C0DA091F4
:102CB0004D0DB0914E0D8132914DAF4FBF4F64F02D
:102CC00080914B0D90914C0DA0914D0DB0914E0DFA
:102CD00090937D0E80937C0E80914F0D9091500DBE
:102CE000069709F0FAC080913A0D882309F4F5C0DF
:102CF0000E94EF010E94BA01092E000CAA0BBB0B27
:102D000080934B0D90934C0DA0934D0DB0934E0DB1
:102D100040E050E0BA0186E79DE00E94DC2280910D
:102D20004B0D90914C0DA0914D0DB0914E0D9C010D
:102D3000AD0166277727CB01621B730B840B950BC4
:102D40000E94D1302FE632E143E059E30E94863100
:102D500023ED3EEF46ED52E40E94863124EA30E74F
:102D60004DE25FE30E94B62F20E030E04AE754E4F2
:102D70000E9486310E9499306093340D7093350D16
:102D80008093360D9093370D86E79DE00E94742363
:102D90000E94051510E08091540E181708F014CF0A
:102DA000E12FF0E0DF01A052B34F8C91EE5DF24FC6
:102DB000813009F0E8C080810E9404031F5FEBCFDF
:102DC00020921C0D1ACF032D10E0F801EE5DF24F9A
:102DD00080810E948B036B017C019801220F331FBD
:102DE0003E832D83F901E058F14F408151815A8390
:102DF0004983F901EF5AF24F808191819C838B8343
:102E000096E09E9DB0019F9D700D112480E090E0A2
:102E10000E94CF304B015C01A981BA81BD0180E0E5
:102E200090E00E94CF3020E030E040E85AE30E947A
:102E300086319B01AC01C501B4010E9486314B0172
:102E40005C01EB81FC81BF0180E090E00E94CF300B
:102E50009B01AC01C501B4010E94B62F0E94A030B5
:102E6000ED81FE81E65AF14F71836083000F111FDF
:102E7000000F111FF801E450F34F80809180A28071
:102E8000B380ED81FE81E259F14F00811181FAEFAB
:102E9000CF1AF0E8DF0ACC0CDD1CB60180E090E030
:102EA0000E94CF30A50194010E9486316B017C0104
:102EB000B80180E090E00E94CF309B01AC01C701D7
:102EC000B6010E94B62F0E94A030ED81FE81E35C26
:102ED000F24F71836083339497CE0E940D020E945B
:102EE000BA01092E000CAA0BBB0B80934B0D9093DB
:102EF0004C0DA0934D0DB0934E0D80914B0D9091C4
:102F00004C0DA0914D0DB0914E0D8C3B9240A10502
:102F1000B1050CF03DCF80914B0D90914C0DA091DF
:102F20004D0DB0914E0D85349D4FAF4FBF4F0CF4FA
:102F30002FCF40E050E0BA0186E79DE00E94DC22FE
:102F400060917C0E70917D0E072E000C880B990B02
:102F50000E94D1302CEA35EC47E256E30E948631DC
:102F60002FE632E143E85AE30E9427302DE73EEA9C
:102F700046E75FE30E94863129E839E241E15CE3FC
:102F80000E94B52FF1CE80810E94E70217CF1092E8
:102F9000B80E1092B70E8091B70E9091B80E0797A9
:102FA00058F187E08093870D80E09EE09093890D33
:102FB0008093880D81E090E09093820D8093810D45
:102FC00010928C0D88E090E00E941A358093210DBC
:102FD0008091210D882321F08091210D8F3F59F49C
:102FE00061E088E090E00E94223588E090E00E9455
:102FF0001A358093210D0895E091B70EF091B80E27
:10300000E050F24F10828091B70E9091B80E019669
:103010009093B80E8093B70EBECF0E94C71780E082
:103020000E94162908E08091210D90E0982F8827B2
:1030300097709093840D8093830D0093870D8091FA
:103040004F0D9091500D8093000E8091330E909112
:10305000340E9093010E8091330E9091340E809334
:10306000020E8091340D9091350DA091360DB091E6
:10307000370D8B2FBB2787FDB0959B2FAB2F8093F0
:10308000030E8091340D9091350DA091360DB091C5
:10309000370DCD01BB2797FDB095AB2F8093040E64
:1030A0008091340D9091350DA091360DB091370D72
:1030B000892F9A2FAB2FBB27A7FDBA958093050EBA
:1030C0008091340D9091350DA091360DB091370D52
:1030D0008093060E8091E70C8093070E80E89DE0B8
:1030E0000E942329182F8111F9CF80E89DE00E94CA
:1030F000FE2D8130D1F38091350E9091360EA09146
:10310000370EB091380E8B2FBB2787FDB0959B2FC4
:10311000AB2F8093000E8091350E9091360EA091CA
:10312000370EB091380ECD01BB2797FDB095AB2F70
:103130008093010E8091350E9091360EA091370E3E
:10314000B091380E892F9A2FAB2FBB27A7FDBA95C8
:103150008093020E8091350E9091360EA091370E1D
:10316000B091380E8093030EF12C84E0C4E0D1E0DE
:1031700090917F0EF916C0F0F12C90917F0EF91608
:1031800008F056C02C2F280F2AC0EC2FF0E0AF2DEE
:10319000B0E0A052B34F9C91E050F24F9083CF5FCC
:1031A000F394815009F452C090917F0EF91668F3A0
:1031B000DFCF4C2F50E0EF2DF0E0EE0FFF1FE65A6F
:1031C000F14F60817181DA01A050B24F7C93608130
:1031D0007181FA01EF5FF14F6083F3948250C22F47
:1031E000C81B823008F450C090917F0EF91608F386
:1031F000C4CF2C2F30E0E12FF0E0EE0FFF1FE35C97
:10320000F24F60817181D901A050B24F7C936081EF
:103210007181F901EF5FF14F60831F5F8250C42F0E
:10322000C81B823008F44EC090917F0E191708F326
:1032300090917F0E191718F44C2F480FF0CF64E6C9
:1032400070E080E090E00E949024EDCE8091210D0E
:1032500090E0982F88278D0F911D97709093840D83
:103260008093830DC093870D80E89DE00E94232901
:10327000C82F8111F9CF80E89DE00E94FE2D81309A
:10328000D1F3DF5F88E074CF8091210D90E0982F1B
:1032900088278D0F911D97709093840D8093830DD7
:1032A000C093870D80E89DE00E942329C82F8111DB
:1032B000F9CF80E89DE00E94FE2D8130D1F3DF5FE1
:1032C00088E05BCF8091210D90E0982F88278D0FAB
:1032D000911D97709093840D8093830DC093870DFB
:1032E00080E89DE00E942329C82F8111F9CF80E852
:1032F0009DE00E94FE2D8130D1F3DF5F88E098CF02
:103300000C941C050E941C050E942A246093FA0D4F
:103310007093FB0D8093FC0D9093FD0D64E670E0BF
:1033200080E090E00E949024D0E0C0E011E00E9494
:103330002A24C090FA0DD090FB0DE090FC0DF09087
:10334000FD0D6C197D098E099F096C317C4081054A
:10335000910510F0D0E0C0E00E942A24C090FA0D40
:10336000D090FB0DE090FC0DF090FD0D6C197D09E7
:103370008E099F0964347F428105910508F10E94FE
:10338000B4021092740D18998AC00E942A24609386
:10339000FA0D7093FB0D8093FC0D9093FD0DD130D1
:1033A00009F465C0E8F1D23009F469C0D33009F4FA
:1033B0006EC064E170E080E090E00E949024B7CF9E
:1033C0001093740DD13001F138F0D23009F1D330BF
:1033D00019F10E941C05D7CFC23081F03CF4CC23F8
:1033E000C1F3C130B1F70E941B11CDCFC33049F0FA
:1033F000CF3079F70E940B0EC0E0C5CF0E94751147
:10340000C2CF0E94CF11BFCF8C2F0E948D07BBCFA0
:103410008C2F0E947208B7CF8C2F0E942912B3CF35
:10342000C130B1F04CF4C111C4CF8091740D882328
:1034300009F4BFCFCFE0BDCFC23091F0C33009F067
:10344000B8CF8091740D882309F4B3CFD3E006C0C0
:103450008091740D882309F4ACCFD1E0C0E0A9CFEE
:103460008091740D882309F4A4CFD2E0F7CF809126
:10347000740D882309F49DCFD0E0C1E09ACF8091EC
:10348000740D882309F495CFD0E0C2E092CF8091EB
:10349000740D882309F48DCFD0E0C3E08ACF8091EA
:1034A000390E882379F10E942A246093FA0D7093D3
:1034B000FB0D8093FC0D9093FD0D8091740D88237E
:1034C000B1F0CF5FC43011F4DD23D1F08091540E00
:1034D00090E02C2F0C2E000C330B2817390751F4D9
:1034E0008FEF8D0F823030F4C091540EC150109286
:1034F000390E5FCFC530D9F7D330C9F7C4E0F7CF65
:10350000C3E0F5CF80917E0E882309F452CF0E944C
:103510002A246093FA0D7093FB0D8093FC0D909319
:10352000FD0D8091740D882319F0C15008F4C0E09E
:1035300010927E0E3ECF089A109863E070E080E013
:1035400090E00E949024109A63E070E080E090E0A8
:103550000E949024F1CF1092590E10921E0E80E01E
:103560009091540E891720F086E79DE00C948A22F2
:10357000E82FF0E0E052F34F10828F5FF1CF81E04F
:1035800090E00E941A358093E70C8091E70C882325
:1035900021F08091E70C8F3F59F462E381E090E0E5
:1035A0000E94223581E090E00E941A358093E70C5A
:1035B0008091E70C089590911E0E8091E70C98176A
:1035C00051F08091E70C80931E0E6091E70C81E032
:1035D00090E00C9422350895CF93DF9300D000D073
:1035E000CDB7DEB70E94AB1A412C512C320114E644
:1035F0003CE9832E99249A94A92CB92C80914F0DE3
:103600009091500D892BD1F380914F0D9091500DD9
:10361000019721F482B1806382B908C080914F0D77
:103620009091500D039709F0B7C0149A80E09091E3
:10363000540E891708F4B3C080E09091540E891796
:1036400008F4CDC00E942A246B017C01DC01CB016F
:1036500084199509A609B7092C013D0140E050E005
:10366000BA0186E79DE00E94DC226091340D7091E2
:10367000350D8091360D9091370D2091350E30919A
:10368000360E4091370E5091380E29833A834B8382
:103690005C83A30192010E94FF2EA50194010E9468
:1036A000732F89819A81AB81BC81280F391F4A1FF2
:1036B0005B1F57FD2CC06091340D7091350D8091CA
:1036C000360D9091370D2091350E3091360E409188
:1036D000370E5091380E29833A834B835C83A301C4
:1036E00092010E94FF2EA50194010E94732F8981EF
:1036F0009A81AB81BC81280F391F4A1F5B1F209321
:10370000350E3093360E4093370E5093380E86E7C1
:103710009DE00E9474236091350E7091360E809169
:10372000370E9091380E0E94D13020E036ED43E004
:103730005AE40E948131181664F56091350E70913B
:10374000360E8091370E9091380E0E94D13028E0CD
:103750003FEE4BE45DE40E94223087FF1AC0609187
:10376000350E7091360E8091370E9091380E0E9472
:10377000D13020E63EEF4DE45DE40E94273020E0AA
:1037800030E048EC52E40E9486310E94A030609301
:10379000E70C2601370132CF82B18F7C3DCFE82F75
:1037A000F0E0EE0FFF1FE65AF14F208131812537FF
:1037B0003E4098F020813181263F3F4F71F020E05C
:1037C00036EE4FED5CE02093350E3093360E40938D
:1037D000370E5093380E1093E70C8F5F28CFE82FE9
:1037E000F0E0EE0FFF1FE65AF14F208131812C38B7
:1037F0003A4050F41092350E1092360E1092370E59
:103800001092380E1092E70C8F5F17CF139A81B188
:10381000896381B910923A0D08950E94061C91E0C7
:1038200080B182FB882780F9892780933A0D209107
:103830004F0D3091500D2630310521F413988091B1
:103840003A0DEECF139AECCF8EE390E090936F0E8B
:1038500080936E0E86E490E09093710E8093700ECC
:103860008BE290E09093730E8093720E89E390E068
:103870009093750E8093740E80E290E09093770E93
:103880008093760E81E390E09093790E8093780E8A
:103890008EE190E090937B0E80937A0E87E79EEB0B
:1038A000AFE3BFE38093FC0C9093FD0CA093FE0C60
:1038B000B093FF0C8AEA91EFA2E3BFE38093000D7F
:1038C0009093010DA093020DB093030D8FE892EC3D
:1038D000A5E5BFE38093040D9093050DA093060D1D
:1038E000B093070D84E69BE3AFE3BFE38093080D3D
:1038F0009093090DA0930A0DB0930B0D8FE395E300
:10390000AEE5BFE380930C0D90930D0DA0930E0DCB
:10391000B0930F0D8CE497E3A9E4BFE38093100DFF
:103920009093110DA093120DB093130D8FE29DEDA6
:10393000A4E6BFE38093140D9093150DA093160D8C
:10394000B093170D89E090E00E941A3580937F0EA6
:1039500080917F0E882321F080917F0E8F3F59F454
:1039600067E089E090E00E94223589E090E00E94C3
:103970001A3580937F0E81E08093AC0E92E0909395
:10398000AD0E8093AE0E8093AF0E8093B00E8093F9
:10399000B10E1092A10D1092A20D1092A50D1092D1
:1039A000A40D1092A30DC0E0D0E08091540E90E0E1
:1039B000C817D9070CF4AEC01092500D10924F0DDD
:1039C000C0E0D0E0FE01EE0FFF1FE257F14F118281
:1039D00010820E942A24FE01EE0FFF1FEE0FFF1F30
:1039E000E454F34F60837183828393832196C530BF
:1039F000D10541F70E94BF1A8093E70C6091E70C54
:103A000070E080E090E00E94CF3020E030E048ECB1
:103A100052E40E94273020E63EEF4DE45DE40E9430
:103A200086310E94A0306093350E7093360E8093DD
:103A3000370E9093380E0E94DB1A04E010E0C6E0C7
:103A4000EC2EF12CCC24C394D12C83E0482E512CA5
:103A500095E0A92EB12C22E0622E712CC1E0B2E0DB
:103A60009B2ED3E00E94DB1A40E08091540E481751
:103A700008F465C08091330E9091340E81349145E5
:103A8000A4F01093500D00934F0D9092730DC093BE
:103A9000A10D9092A20D8091330E9091340E9093CF
:103AA000A50D8093A40D1092A30D90917F0E80918F
:103AB000540E981799F01093500D00934F0DD0931A
:103AC000730DC093A10DD093A20D80917F0E90E055
:103AD0009093A50D8093A40D1092A30D80914F0D8E
:103AE0009091500D049709F40AC180914F0D909167
:103AF000500D8230910509F4FDC008F063C00097B5
:103B000009F473C0019709F4E6C01093500D0093B7
:103B10004F0D90C0FE01EE5DF24F80810E94FC03CC
:103B20009E01220F331FF901E058F14F718360832A
:103B3000F901EF5AF24F91838083219636CF842F7B
:103B400090E0880F991FFC01E35CF24F20813181E6
:103B500029353240B8F0208131812C33334E91F039
:103B60001093500D00934F0D1092730DC093A10D43
:103B70001092A20D208131813093A50D2093A40DC8
:103B80004093A30DFC01E65AF14F80819181813A67
:103B90009F40B0F0808191810A9691F01093500D72
:103BA00000934F0DC093730DC093A10DC093A20D50
:103BB000808191819093A50D8093A40D4093A30DD6
:103BC0004F5F53CF8530910509F47FC08630910552
:103BD000B9F0039709F099CF8091FE0D882359F031
:103BE0008091E70C811126C00FC068EC70E080E086
:103BF00090E00E949024F092500DE0924F0D1AC078
:103C00008091E70C811105C0B092500DA0924F0D2C
:103C100011C08091590E882329F0D092500DC09286
:103C20004F0D08C08091FE0D882321F05092500D59
:103C300040924F0D20918E0E30918F0E80914F0D3E
:103C40009091500D2817390709F40CCF84E090E0CB
:103C50009C0121503109F901EE0FFF1FE257F14F8E
:103C600040815181FC01EE0FFF1FE257F14F51835C
:103C70004083F901EE0FFF1FEE0FFF1FE454F34FD7
:103C80004081518162817381880F991F880F991F2C
:103C9000FC01E454F34F4083518362837383C90171
:103CA0000097B1F680914F0D9091500D90938F0E2B
:103CB00080938E0E0E942A246093BC0C7093BD0CDE
:103CC0008093BE0C9093BF0CC9CE8091590E88236F
:103CD00009F4B0CFA2CF8091590E882309F48BCF7D
:103CE0008091E70C843608F4A5CF7092500D609255
:103CF0004F0DA0CF8091590E81119CCF7CCF109297
:103D0000A10D26E030E060E08091540E681748F184
:103D10008091330E9091340E8134914534F090921D
:103D2000730DC093A10D24E030E090917F0E80913F
:103D3000540E981789F0D093730DC093A10DD093B2
:103D4000A20D80917F0E90E09093A50D8093A40D1D
:103D50001092A30D24E030E03093500D20934F0DCE
:103D600069CF862F90E0880F991FFC01E35CF24F2A
:103D7000408151814935524058F0408151814C3346
:103D8000534E31F01092730DC093A10D24E030E03A
:103D9000FC01E65AF14F80819181813A9F4050F0B9
:103DA000808191810A9631F0C093730DC093A10D6B
:103DB00024E030E06F5FA8CF87B1836087B90895B2
:103DC0000E94DC1E80914F0D9091500D049781F45C
:103DD000419A409A69E170E080E090E00E9490246E
:103DE000409869E170E080E090E00E949024EACF82
:103DF0004198EFCFAF92BF92CF92DF92EF92FF92B6
:103E00000F931F93CF93DF93C9E0D1E0AB84BC84C1
:103E1000CD84DE84E984FA840D811E812F8138856A
:103E20004B815C816A81888199810E949A208111ED
:103E300005C02F9691E0C039D90741F7DF91CF91A6
:103E40001F910F91FF90EF90DF90CF90BF90AF90B8
:103E500008952F923F924F925F926F927F928F922E
:103E60009F92AF92BF92CF92DF92EF92FF920F9309
:103E70001F93CF93DF930DB71EB7C82FD92F088399
:103E80001983C62FD72F088119810DBF1EBFDF915F
:103E9000CF911F910F91FF90EF90DF90CF90BF9047
:103EA000AF909F908F907F906F905F904F903F90DA
:103EB0002F900895C82FD92F088119810DBF1EBFDB
:103EC000DF91CF911F910F91FF90EF90DF90CF90F6
:103ED000BF90AF909F908F907F906F905F904F902A
:103EE0003F902F901895FFCF8091980C9091990C4E
:103EF00001969093990C8093980C08958091980C5A
:103F00009091990C892B29F48091AB0C9091AC0C79
:103F1000089580E090E00895CF93DF93FB01009730
:103F200059F1309749F1DC01CD91DC91DE019E0120
:103F3000109731F112965C91129742814517B0F4B7
:103F4000CA17DB0739F5DC01ED93FC931286118665
:103F5000D487C387FA87E98780E00FC0328721873B
:103F600014861386E901FC87EB87F6CF9D011B962B
:103F70000D90BC91A02DDCCF89ECDF91CF910895FD
:103F8000CD2B61F7DC01ED93FC931286118614862C
:103F90001386E2CF32872187B487A387E901FC87A4
:103FA000EB871A96FC93EE931997D6CFCF93DF93B6
:103FB0000097C1F0DC01ED91FC91309779F0A38579
:103FC000B485EC01B983A883109721F01A961C924E
:103FD0001E9219971286118614861386CF01DF91DF
:103FE000CF910895E0E0F0E0F9CFCF93DF93AC01FB
:103FF000FB010097A9F1DC012D913C9121153105C0
:1040000079F1D901E901EA17FB0709F5A385B48520
:104010002E173F0789F4EA01B983A883109721F08E
:104020001A961C921E921997148613861286118670
:10403000CF01DF91CF910895BC87AB87A385B4856D
:10404000109791F31A96DC93CE931997EDCF1B96A8
:104050008D919C911C97ED01009759F3DC01D3CF12
:1040600080E090E0E6CFCF93DF930097C9F0DC01CA
:10407000ED91FC91309781F02281621788F0A38541
:10408000B485EC01B983A883109731F01A961C927D
:104090001E92199714861386CF01DF91CF91089550
:1040A000E0E0F0E0F9CFFF920F931F93CF93DF93FF
:1040B0009091950C9923D1F0FFB6F894C091AB0C78
:1040C000D091AC0C9D859130B9F486E99CE00E94BA
:1040D000D61FC817D90741F09093AC0C8093AB0C56
:1040E000BC01CE010E94291F1D86FFBEDF91CF912A
:1040F0001F910F91FF9008956A818130A9F486E99C
:104100009CE00E9433208C01892B79F3BE0186E963
:104110009CE00E948C1FC017D10731F31093AC0CA8
:104120000093AB0CB801DDCF6623F9F270E061506B
:104130007109E5CFAF92BF92CF92DF92EF92FF92DB
:104140000F931F93CF93DF93EC01009709F43FC0C7
:1041500041155105E1F1E114F104C9F1AB28AC2896
:10416000AD28A9F11D866A831A8619861C861B86CE
:10417000188A1F865C834B830D831E832F833887A9
:10418000B7010E94D6271FB7F894BE0186E99CE0CC
:104190000E948C1FC82F1FBF882369F0CCEC8C2F86
:1041A000DF91CF911F910F91FF90EF90DF90CF9013
:1041B000BF90AF9008958091950C813081F70E9457
:1041C0007E1F892B61F380E00E945320E8CFC9EC69
:1041D000E6CFAF92BF92CF92DF92EF92FF920F9312
:1041E0001F931092AC0C1092AB0C1092970C109283
:1041F000960C1092950C5A016B017C0100E010E0C6
:10420000980143E75FE16FEF8AE99CE00E949A2002
:104210001F910F91FF90EF90DF90CF90BF90AF90E4
:1042200008952091980C3091990C215031093093C8
:10423000990C2093980C0C94532081E08093950C5A
:104240006FEF86E99CE00E943320009731F0909355
:10425000AC0C8093AB0C0C945A1F08951F93CF9312
:10426000DF93EC01892BA1F01FB7F8946881798165
:1042700082E0FB018687108A17868A819B810E94D3
:10428000F51F6881798186E99CE00E948C1F1FBF21
:10429000DF91CF911F910895009731F0FC01628367
:1042A0001182108280E0089589EC0895DF92EF92E8
:1042B000FF920F931F93CF93DF937C01892BD1F152
:1042C00000E08AECD82E1FB7F894C7010E94D61FD1
:1042D000EC01009761F1DE86BC0186E99CE00E945A
:1042E0008C1F8823A1F01FBFCCEC013039F40E9451
:1042F0007E1F892B19F080E00E9453208C2FDF91C4
:10430000CF911F910F91FF90EF90DF9008958F85CF
:104310009889009749F00E940024882319F01FBF54
:10432000CDECE3CF188A1F861FBF01E0CCCF1FBFA3
:10433000C0E0DBCFC9ECE2CF8F929F92AF92BF92E9
:10434000DF92EF92FF920F931F93CF93DF93CDB73E
:10435000DEB72E970FB6F894DEBF0FBECDBF7C013F
:104360004A015B01009709F468C0DFB6F894FC01CC
:10437000828181115CC077FD57C00E947E1F8C0135
:10438000009709F44EC0BC01C7010E948C1F88230E
:10439000A1F0DFBE8CEC2E960FB6F894DEBF0FBEF8
:1043A000CDBFDF91CF911F910F91FF90EF90DF90E4
:1043B000BF90AF909F908F90089591E0F8019587FE
:1043C00081149104A104B10441F11C870B87FE867E
:1043D000ED868EE291E29A838983CE010B969C83CF
:1043E0008B838D829E82AF82B8860A97908B878757
:1043F0000E94DB23882349F0B801C7010E94F51F02
:10440000F8011586108A17868DECDFBE8111C3CFA7
:104410000E945320F8018685BECFF801108A1786C6
:10442000F4CFDFBE88ECB7CFDFBE83E0B4CF8150DE
:10443000F7018283DFBE80E0AECF89ECACCF0F9373
:104440001F93CF93DF930097E9F1DFB7F894FC0156
:1044500020813181232B59F10E94D61F8C01BC0190
:1044600086E99CE00E948C1FC82F882341F0DFBFA3
:10447000CCEC8C2FDF91CF911F910F910895F80113
:10448000168687859089009761F4F801108A17864F
:10449000DFBF0E947E1F892B61F380E00E945320C2
:1044A000E8CF0E940024882381F3CDECF1CFFC01FA
:1044B00022812F3F29F02F5F2283C0E0DFBFD9CFB9
:1044C000CBECFCCFC9ECD5CF009721F0FC01628387
:1044D00080E0089589EC08951F93CF93DF93EC015A
:1044E000892BA1F01FB7F8946881798182E0FB01E4
:1044F0008687108A17868A819B810E94F51F6881B2
:10450000798186E99CE00E948C1F1FBFDF91CF91CB
:104510001F910895FC01892B39F0138212821482B5
:104520001182108280E0089589EC0895DF92EF9265
:10453000FF920F931F93CF93DF937C01892BD1F1CF
:1045400000E08AECD82E1FB7F894C7010E94D61F4E
:10455000EC01009761F1DE86BC0186E99CE00E94D7
:104560008C1F8823A1F01FBFCCEC013039F40E94CE
:104570007E1F892B19F080E00E9453208C2FDF9141
:10458000CF911F910F91FF90EF90DF9008958F854D
:104590009889009749F00E940024882319F01FBFD2
:1045A000CDECE3CF188A1F861FBF01E0CCCF1FBF21
:1045B000C0E0DBCFC9ECE2CF8F929F92AF92BF9267
:1045C000DF92EF92FF920F931F93CF93DF93CDB7BC
:1045D000DEB72E970FB6F894DEBF0FBECDBF7C01BD
:1045E0004A015B01892B09F47DC00E947E1F8C016A
:1045F000DFB6F8940097A1F4DFBE88EC2E960FB6D4
:10460000F894DEBF0FBECDBFDF91CF911F910F9108
:10461000FF90EF90DF90BF90AF909F908F900895A4
:10462000F701228133812115310509F44CC082172D
:10463000930709F448C0B7FC43C0BC01C7010E94FE
:104640008C1F882319F0DFBE8CECD8CF91E0F801E5
:10465000958781149104A104B10471F11C870B8723
:10466000FE86ED868CE692E29A838983CE010B96D4
:104670009C838B838D829E82AF82B8860A97908BB3
:1046800087870E94DB23882349F0B801C7010E9475
:10469000F51FF8011586108A17868DECDFBE811193
:1046A000ADCF0E945320F80186858111A7CFF70175
:1046B00094819F5F9483A2CFF801108A1786EECF72
:1046C000DFBE83E09BCFF70184818F3F41F08F5F96
:1046D0008483232B11F41383028380E001C08BECCD
:1046E000DFBE8CCF89EC8ACFEF92FF920F931F939E
:1046F000CF93DF938C01892B09F44CC00E947E1F5D
:10470000DFB7F894F801228133818217930751F0C3
:10471000DFBFCFEC8C2FDF91CF911F910F91FF90D6
:10472000EF900895F801C481C150C483C1112FC016
:104730001382128280819181892B39F1C8010E94F4
:10474000D61F7C01BC0186E99CE00E948C1FC82F0B
:10475000882319F0DFBFCCECDDCFF7011686F80116
:10476000F382E282F70187859089009741F4F7018F
:10477000108A1786DFBF80E00E945320CBCF0E94B3
:1047800000248823A1F3CDECF5CFDFBFC3CFDFBF7B
:10479000C0E0C0CFC9ECBECFCF93009751F0CFB7E8
:1047A000F894FC016081718186E99CE00E948C1F75
:1047B000CFBFCF910895FC01892B01F180819181B8
:1047C000892BE1F084819581A681B781892B8A2B81
:1047D0008B2BA1F02FB7F8948091B10C9091B20C73
:1047E000009749F411861086F093B20CE093B10C57
:1047F0002FBF80E0089591878087F6CF89EC0895D8
:10480000BC01892B29F15FB7F8942091B10C30914C
:10481000B20CF901D901309711F48EEC0DC040852E
:104820009185E617F70781F4E217F30739F440930F
:10483000B10C9093B20C80E05FBF089518964C9332
:10484000189719969C93F7CFDF01E42FF92FE3CF48
:1048500089EC08956091AD0C7091AE0C8091AF0C15
:104860009091B00C08956093AD0C7093AE0C809352
:10487000AF0C9093B00C08950F931F93CF93DF93D9
:104880008091950C8823D1F08091AD0C9091AE0C65
:10489000A091AF0CB091B00C0196A11DB11D8093F9
:1048A000AD0C9093AE0CA093AF0CB093B00C0091F4
:1048B000B10C1091B20CE801209729F4DF91CF914F
:1048C0001F910F9108958C819D81AE81BF810197C9
:1048D000A109B1098C839D83AE83BF83892B8A2B69
:1048E0008B2BE1F42091B10C3091B20C8885998525
:1048F000C217D30779F49093B20C8093B10CE8817E
:10490000F981309719F08A819B8109950884D985AE
:10491000C02DD2CFF80191878087F1CF8E01F6CFDD
:10492000CF92DF92EF92FF920F931F93CF93DF937B
:10493000CDB7DEB72C970FB6F894DEBF0FBECDBF54
:104940006B017C010E947E1FFC01C114D104E104B3
:10495000F10491F1892B91F10FB7F89481E08587EB
:10496000FC87EB878CEC93E29A838983CE010B96CC
:104970009C838B83CD82DE82EF82F8860A97908BB0
:1049800087870E94DB23182F0FBF882389F01DEC37
:10499000812F2C960FB6F894DEBF0FBECDBFDF91EE
:1049A000CF911F910F91FF90EF90DF90CF900895DE
:1049B00080E00E945320ECCF19ECEACF18ECE8CF4E
:1049C0001F93CF93DF93EC01892BA1F01FB7F894CD
:1049D0006881798182E0FB018687108A17868C8145
:1049E0009D810E94F51F6881798186E99CE00E9483
:1049F0008C1F1FBFDF91CF911F910895CF92DF923F
:104A0000EF92FF920F931F93CF93DF93EC01CB01B3
:104A10006C817D812A893B89620F731F4E815F8182
:104A20000E94F3312E813F8148855985CA88DB88F1
:104A3000EC88FD88C20ED31EE41EF51ECA8ADB8AEE
:104A4000EC8AFD8A8E899F89A88DB98D0197A1096D
:104A5000B1098E8B9F8BA88FB98F6A857B858C85DA
:104A60009D850E94FF2EC616D706E806F90620F09F
:104A70001A8A1B8A1C8A1D8ACE010E94D61F8C01AD
:104A8000009709F1BC0186E99CE00E948C1FC82FA9
:104A900081111BC0F801168687859089009769F4FB
:104AA000F801108A17868C2FDF91CF911F910F91FB
:104AB000FF90EF90DF90CF9008950E94002488230C
:104AC00079F3CDECF0CFC0E0EECFCCECECCFCF92D1
:104AD000DF92EF92FF920F931F93CF93DF93EC013E
:104AE0002C813D818E859F854E815F81820F931F32
:104AF0000E94F3312E813F8148855985CE84DF8421
:104B0000E888F988C20ED31EE41EF51ECE86DF8625
:104B1000E88AF98A8E899F89A88DB98D0196A11D91
:104B2000B11D8E8B9F8BA88FB98F6A857B858C85F5
:104B30009D850E94FF2EC616D706E806F90620F0CE
:104B40001E861F86188A198ACE0102960E94D61FD9
:104B50008C01009709F1BC0186E99CE00E948C1F42
:104B6000C82F81111BC0F801168687859089009790
:104B700069F4F801108A17868C2FDF91CF911F916D
:104B80000F91FF90EF90DF90CF9008950E94002446
:104B9000882379F3CDECF0CFC0E0EECFCCECECCFB6
:104BA000EF92FF920F931F93FC01892B69F161151E
:104BB000710551F1211531054105510529F1E11426
:104BC000F1040105110501F17583648326833783A0
:104BD00040875187E286F386048715871182108209
:104BE0001382128216861786108A118A128A138AF5
:104BF000148A158A168A178A108E118E80E01F91EA
:104C00000F91FF90EF90089589ECF9CFBF92CF926A
:104C1000DF92EF92FF920F931F93CF93DF937C016C
:104C2000009709F446C000E06C0182E0C80ED11C78
:104C30008AECB82E1FB7F894C6010E94D61FEC016B
:104C4000892B31F4C7010E94D61FEC01892B71F129
:104C5000BE86BE0186E99CE00E948C1F8823B1F0CD
:104C60001FBFCCEC013039F40E947E1F892B19F054
:104C700080E00E9453208C2FDF91CF911F910F91E4
:104C8000FF90EF90DF90CF90BF9008958F85988927
:104C9000009749F00E940024882319F01FBFCDEC33
:104CA000E1CF188A1F861FBF01E0C4CF1FBFC0E03D
:104CB000D9CFC9ECE0CF4F925F926F927F928F92E3
:104CC0009F92AF92BF92CF92DF92EF92FF920F939B
:104CD0001F93CF93DF93CDB7DEB760970FB6F894ED
:104CE000DEBF0FBECDBF6C012A013B015901009709
:104CF00009F494C02115310509F490C00FB7F89458
:104D0000FC0186899789A08DB18D892B8A2B8B2BED
:104D100009F076C077FD71C00E947E1F7C0100976C
:104D200009F468C04601F2E08F0E911CBC01C40179
:104D30000E948C1F182F81115AC081E0F7018587CE
:104D4000411451046104710409F44DC0FC86EB86E2
:104D5000DE86CD86988A8F8680EE94E29A83898358
:104D6000CE010B969C838B834D825E826F82788608
:104D70000A97908B87870E94DB23182F882349F09E
:104D8000B701C4010E94F51FF7011586108A178626
:104D90001DEC0FBF11110FC080E00E945320F701DE
:104DA0001685111108C00FB7F894B501C6010E940D
:104DB000FE24182F0FBF812F60960FB6F894DEBF28
:104DC0000FBECDBFDF91CF911F910F91FF90EF905C
:104DD000DF90CF90BF90AF909F908F907F906F901B
:104DE0005F904F900895F701108A1786D2CF0FBFBA
:104DF0001CECE1CF0FBF18ECDECF0FBF13E0DBCF11
:104E0000B901C6010E94FE24182F0FBF0E947E1F09
:104E1000892B89F280E00E945320CDCF19ECCBCFB3
:104E20004F925F926F927F92AF92BF92CF92DF923A
:104E3000EF92FF920F931F93CF93DF93CDB7DEB71F
:104E400060970FB6F894DEBF0FBECDBF6C012A018C
:104E50003B015901009709F493C02115310509F46C
:104E60008FC00FB7F894FC0146895789608D718D0A
:104E700082859385A485B585481759076A077B07FE
:104E800009F070C077FC6BC00E947E1F7C01009708
:104E900009F462C0BC01C6010E948C1F182F811149
:104EA00058C081E0F7018587411451046104710401
:104EB00009F44BC0FC86EB86DE86CD86D88ACF8689
:104EC00080EE94E29A838983CE010B969C838B8338
:104ED0004D825E826F8278860A97908B87870E94C8
:104EE000DB23182F882349F0B701C6010E94F51F64
:104EF000F7011586108A17861DEC0FBF11110FC020
:104F000080E00E945320F7011685111108C00FB7E9
:104F1000F894B501C6010E946725182F0FBF812F95
:104F200060960FB6F894DEBF0FBECDBFDF91CF9174
:104F30001F910F91FF90EF90DF90CF90BF90AF90B7
:104F40007F906F905F904F900895F701108A1786B9
:104F5000D4CF0FBF1CECE3CF0FBF18ECE0CF0FBFD7
:104F600013E0DDCFB901C6010E946725182F0FBFDE
:104F70000E947E1F892B99F280E00E945320CFCFA0
:104F800019ECCDCF0E947E1F7894009771F0DC0160
:104F90001396ED91FC911497309739F015966D9119
:104FA0007D918D919C9118970994089522EC37E298
:104FB000FB01208331973083319710823197108223
:104FC0003197108231971082319710823197108279
:104FD0003197108231971082319710823197108269
:104FE0003197108231971082319710823197108259
:104FF0003197108231971082319710823197108249
:1050000064517109FC0171836083089586E891E021
:10501000909389008093880082E080936F008CE0F9
:105020008093810008951F920F920FB60F92112462
:105030000BB60F922F933F934F935F936F937F9392
:105040008F939F93AF93BF93EF93FF930E94741F2F
:105050000E943C2481E00E941121FF91EF91BF91B9
:10506000AF919F918F917F916F915F914F913F9100
:105070002F910F900BBE0F900FBE0F901F901895A1
:105080001F920F920FB60F9211240F900FBE0F9028
:105090001F9018958AE28093B8008FEF8093BB0031
:1050A00084E08093BC0008958091BC0081700895D5
:1050B0008091BC0080FDFCCF80910001089520917B
:1050C000BC0020FDFCCF6093B50CFC012081209337
:1050D000B60C20FF09C01092B30C88EF809300013A
:1050E00085EA8093BC000895FC013196A7EBBCE0F3
:1050F00081E0861780F791919D938F5FFACF809121
:10510000BC0080FDFCCF1092B30C88EF80930001AF
:1051100085EA8093BC0008952091BC0020FDFCCF5F
:105120002091B30C20FD04C08091B30C81700895D0
:10513000A6EBBCE0282FFC018E2F821B8617A0F760
:105140008D918193F9CF1F920F920FB60F92112478
:105150000BB60F922F933F938F939F93EF93FF93F1
:105160008091B900883249F0D0F4803121F0883143
:1051700021F08830D1F41092B40CE091B40C8091FD
:10518000B50CE81720F581E08E0F8093B40CF0E0A9
:10519000EA54F34F80818093BB0085E836C08034A9
:1051A00049F148F4883309F43FC08091B9008093F5
:1051B000000184E02AC0803589F08835B1F78091FC
:1051C000BB00E091B40CF0E0EA54F34F808380918F
:1051D000B30C81608093B30C84E917C0E091B40CE8
:1051E00081E08E0F8093B40C8091BB00F0E0EA5414
:1051F000F34F80832091B40C30E08091B50C90E0A7
:105200000197281739074CF685EC8093BC00FF9175
:10521000EF919F918F913F912F910F900BBE0F9027
:105220000FBE0F901F90189585EAEFCF0E94CE2EEB
:10523000882341F00E94852E8091D800826080935F
:10524000D80081E008950F931F93CF93DF9300D090
:1052500000D0CDB7DEB78C01DC0111968D919C9109
:1052600012970C97F1F41A968C911A97803669F47C
:105270008C918295807F8093ED008091EF008F73F9
:105280008093EF001092EE001C92F801128680E0ED
:105290000F900F900F900F90DF91CF911F910F9172
:1052A00008950E94922E8F3F09F4A4C490E6D8017D
:1052B0001A969C931A978C938295807F8093ED0029
:1052C000EEEEF0E01192E83FF105E1F7D80111961A
:1052D000ED91FC9112973197EB30F10508F086C4FF
:1052E000EC58F64D0C94922FBD29262A942AF72AC1
:1052F000292B612B9C2B322CB02C7F29532D80E045
:10530000F8019781891708F4C2C319821A821B8297
:105310001C821092F7008B81880F880F880F9A816A
:10532000929596959770890F8093F6008A81880FE1
:10533000880F880F9981929596959770890F809321
:10534000F5008981880F880F880F8093F400809181
:10535000EF009781892B8093EF0081E08387809114
:10536000F40084608093F4008091F0008460809366
:10537000F0008091EF008062DCC1F8018485882311
:1053800009F43FC08681880F880F880F9581929518
:1053900096959770890F8093F3008581880F880F09
:1053A000880F9481929596959770890F8093F2005B
:1053B0008481880F880F880F9381929596959770B6
:1053C000890F8093F1008381880F880F880F809365
:1053D000F0008091EF0080618093EF0080E0F801A1
:1053E0009781891718F18385882361F18091F000F6
:1053F00084608093F0008091EF00D80117969C9113
:1054000064C084818295880F807E9381969596955D
:105410009695890F8093F30083818295880F807E13
:105420008093F2008091EF008F7ED6CFD80118963E
:10543000ED91FC911997E80FF11D90819093FA007E
:105440008F5FCDCF8091F0008B7FD3CFF801848523
:10545000882309F448C08681880F880F880F9581BA
:10546000929596959770890F8093F3008581880FA8
:10547000880F880F9481929596959770890F8093E5
:10548000F2008481880F880F880F938192959695FA
:105490009770890F8093F1008381880F880F880FA0
:1054A0008093F0008091EF0080618093EF0080E0B6
:1054B000F8019781891760F113868091F0008B7F46
:1054C0008093F0008091EF009781892B8093EF000B
:1054D0008091EF008F738093EF008091EF008064E4
:1054E0008093EF00D4CE84818295880F807E938153
:1054F000969596959695890F8093F3008381829572
:10550000880F807E8093F2008091EF008F7ECDCF58
:10551000D8011896ED91FC911997E80FF11D908133
:105520009093FA008F5FC4CFD8011C968C911C9782
:10553000882309F446C016968C911697880F880F19
:10554000880F15969C911597929596959770890F4F
:105550008093F30015968C911597880F880F880F0C
:1055600014969C911497929596959770890F8093B5
:10557000F20014968C911497880F880F880F139659
:105580009C911397929596959770890F8093F1004F
:1055900013968C91880F880F880F8093F00080916C
:1055A000EF0080618093EF0081E0D8011B968C931F
:1055B0001B978091F00084608093F0008091EF0051
:1055C0001DCFF80184818295880F807E9381969506
:1055D00096959695890F8093F30083818295880F25
:1055E000807E8093F2008091EF008F7EDBCF198266
:1055F0001A821B821C821092F7008B81880F880F01
:10560000880F9A81929596959770890F8093F600EE
:105610008A81880F880F880F998192959695977047
:10562000890F8093F5008981880F880F880F8093F8
:10563000F4008091EF00F8019781892B8093EF00AF
:105640008091F4008B7F8093F4008091F4008E7F32
:10565000E8C019821A821B821C821092F7008B818B
:10566000880F880F880F9A81929596959770890F69
:105670008093F6008A81880F880F880F9981929510
:1056800096959770890F8093F5008981880F880F10
:10569000880F8093F4008091EF00D80117969C91B9
:1056A0001797892B8093EF001B961C928091F40032
:1056B00084608093F4008091F0008B7F8093F000F1
:1056C000C4CF19821A821B821C821092F7008B8130
:1056D000880F880F880F9A81929596959770890FF9
:1056E0008093F6008A81880F880F880F99819295A0
:1056F00096959770890F8093F5008981880F880FA0
:10570000880F8093F4008091EF00F8019781892B36
:105710008093EF0081E083878091F4008460809320
:10572000F4008091F00084608093F0008091EF009D
:105730008F7D8093EF0089CFD8011C968C911C97A8
:10574000882309F479C016968C911697880F880FD4
:10575000880F15969C911597929596959770890F3D
:105760008093F30015968C911597880F880F880FFA
:1057700014969C911497929596959770890F8093A3
:10578000F20014968C911497880F880F880F139647
:105790009C911397929596959770890F8093F1003D
:1057A00013968C91880F880F880F8093F00080915A
:1057B000EF0080618093EF008FEF9FEFDC01898322
:1057C0009A83AB83BC838093F7008B81880F880F0B
:1057D000880F9A81929596959770890F8093F6001D
:1057E0008A81880F880F880F998192959695977076
:1057F000890F8093F5008981880F880F880F809327
:10580000F4008091EF00D80117969C91892B80932A
:10581000EF008091F4008B7F8093F4008091F4007E
:1058200081608093F4008091EF008F738093EF008C
:105830008091EF00806854CEF80184818295880FB2
:10584000807E9381969596959695890F8093F30027
:1058500083818295880F807E8093F2008091EF0093
:105860008F7EA8CFF8018485882309F464C08681DF
:10587000880F880F880F9581929596959770890F5C
:105880008093F3008581880F880F880F948192950B
:1058900096959770890F8093F2008481880F880F06
:1058A000880F9381929596959770890F8093F10058
:1058B0008381880F880F880F8093F0008091EF001C
:1058C00080618093EF008FEF9FEFDC0189839A83E3
:1058D000AB83BC838093F7008B81880F880F880F80
:1058E0009A81929596959770890F8093F6008A8198
:1058F000880F880F880F9981929596959770890FD8
:105900008093F5008981880F880F880F8093F400B9
:105910008091EF00F8019781892B8093EF00138627
:105920008091F40084608093F4008091F0008B7F7C
:105930008093F00073CF84818295880F807E93815D
:10594000969596959695890F8093F300838182951D
:10595000880F807E8093F2008091EF008F7EB1CF20
:10596000D8011C968C911C97882309F47AC016964E
:105970008C911697880F880F880F15969C91159714
:10598000929596959770890F8093F30015968C9158
:105990001597880F880F880F14969C9114979295ED
:1059A00096959770890F8093F20014968C911497B6
:1059B000880F880F880F13969C9113979295969550
:1059C0009770890F8093F10013968C91880F880F40
:1059D000880F8093F0008091EF0080618093EF004A
:1059E0008FEF9FEFDC0189839A83AB83BC83809325
:1059F000F7008B81880F880F880F9A819295969572
:105A00009770890F8093F6008A81880F880F880F1E
:105A10009981929596959770890F8093F500898169
:105A2000880F880F880F8093F4008091EF00D801D1
:105A300017969C911797892B8093EF0081E01B9616
:105A40008C938091F40084608093F4008091F00046
:105A500084608093F0008091EF008F7D8093EF0051
:105A6000DDCEF80184818295880F807E93819695A2
:105A700096959695890F8093F30083818295880F80
:105A8000807E8093F2008091EF008F7EA7CFD801B7
:105A90001896ED91FC911997E80FF11D9081909364
:105AA000FA008F5F2DCCD8011C968C911C9788230F
:105AB00009F47AC016968C911697880F880F880F74
:105AC00015969C911597929596959770890F80934E
:105AD000F30015968C911597880F880F880F1496F0
