:100000000C944A000C9469000C9469000C946900EB
:100010000C9469000C9469000C9469000C946900BC
:100020000C9469000C9469000C9469000C946900AC
:100030000C94A0280C9469000C9469000C9469003D
:100040000C9469000C9469000C9469000C9469008C
:100050000C9469000C9469000C9469000C9469007C
:100060000C9469000C9469000C9469000C9469006C
:100070000C9469000C9469000C9469000C9469005C
:100080000C9469000C9469000C9469000C9430295C
:100090000C94690011241FBECFEFD0E1DEBFCDBFAD
:1000A00013E0A0E0B1E0ECE7FBE600E00BBF02C02C
:1000B00007900D92A430B107D9F72EE0A4E0B3E089
:1000C00001C01D92A23EB207E1F70E946E2F0C9470
:1000D000BC350C94CD28CF93DF9300D000D0CDB7A2
:1000E000DEB71B821C8281E789831A8240E050E0E0
:1000F000BA018BED9EE00E94692362E0CE01019679
:100100000E94EC2862E0CE0103960E9419298BED33
:100110009EE00E9401248C8180FF0DC010927A0E17
:1001200083FF0DC010921E0E0F900F900F900F9036
:10013000DF91CF91089591E090937A0EF1CF81E015
:1001400080931E0EF1CFCF93DF9300D000D000D06C
:10015000CDB7DEB78091010190910201A09103011A
:10016000B091040189839A83AB83BC8340E050E063
:10017000BA018BED9EE00E94692364E0CE010196F6
:100180000E94EC2880E98D831E8262E0CE010596F4
:100190000E94EC288BED9EE00E94012426960FB66B
:1001A000F894DEBF0FBECDBFDF91CF910895CF93FE
:1001B000DF9300D000D000D0CDB7DEB7809105012D
:1001C00090910601A0910701B091080189839A835B
:1001D000AB83BC8340E050E0BA018BED9EE00E940F
:1001E000692364E0CE0101960E94EC2888E88D83A3
:1001F00081E08E831092440D1092430D62E0CE0197
:1002000005960E94EC288BED9EE00E940124269624
:100210000FB6F894DEBF0FBECDBFDF91CF9108952A
:10022000CF93DF9300D0CDB7DEB788E8898381E034
:100230008A8340E050E0BA018BED9EE00E94692382
:1002400062E0CE0101960E94EC288BED9EE00E94B8
:1002500001240F900F90DF91CF9108951F93CF93BA
:10026000DF9300D000D000D0CDB7DEB70E941001E0
:1002700019E81C831D821E8240E050E0BA018BED1C
:100280009EE00E94692363E0CE0104960E94EC2860
:1002900019831A821B8263E0CE0101960E941929FC
:1002A0008BED9EE00E9401248A8190E0982F8827A0
:1002B0002B81820F911D26960FB6F894DEBF0FBEDC
:1002C000CDBFDF91CF911F910895CF93DF9300D0E1
:1002D000CDB7DEB788E8898382E08A8340E050E0CA
:1002E000BA018BED9EE00E94692362E0CE01019687
:1002F0000E94EC288BED9EE00E9401240F900F904D
:10030000DF91CF9108951F93CF93DF9300D000D05A
:1003100000D0CDB7DEB70E94650119E81C831D82AD
:100320001E8240E050E0BA018BED9EE00E946923FE
:1003300063E0CE0104960E94EC2819831A821B8286
:1003400063E0CE0101960E9419298BED9EE00E9488
:1003500001248A8190E0982F88272B81820F911D9C
:1003600026960FB6F894DEBF0FBECDBFDF91CF91BA
:100370001F9108951F93CF93DF9300D000D000D03A
:10038000CDB7DEB711E91C831D821E8240E050E02C
:10039000BA018BED9EE00E94692363E0CE010496D2
:1003A0000E94EC2819831A821B8263E0CE01019619
:1003B0000E9419298BED9EE00E9401248A8190E021
:1003C000982F88272B81820F911D26960FB6F894BF
:1003D000DEBF0FBECDBFDF91CF911F910895CF93A8
:1003E000DF9300D0CDB7DEB780E789838BEF8A83B8
:1003F00040E050E0BA018BED9EE00E94692362E08C
:10040000CE0101960E94EC288BED9EE00E94012413
:100410000F900F90DF91CF910895CF93DF9300D08D
:10042000CDB7DEB780E789838FEF8A8340E050E065
:10043000BA018BED9EE00E94692362E0CE01019635
:100440000E94EC288BED9EE00E9401240F900F90FB
:10045000DF91CF910895FF920F931F93CF93DF9376
:1004600000D000D01F92CDB7DEB7F82E162F042F84
:1004700040E050E0BA018BED9EE00E94692380E4E9
:100480008983612F6C60402F50E0440F551F8F2DE2
:10049000807F842B862B8A8328E02B8330E1F39E98
:1004A000C0011124642B682B6C832D8365E0CE0181
:1004B00001960E94EC288BED9EE00E9401240F9093
:1004C0000F900F900F900F90DF91CF911F910F9190
:1004D000FF90089540E060E088E20E942B0240E037
:1004E00060E08EE00E942B0240E060E086E00C9429
:1004F0002B020F931F93CF93DF9300D000D0CDB783
:10050000DEB700E40B8318E01C8340E050E0BA0142
:100510008BED9EE00E94692362E0CE0103960E946B
:10052000EC2868E270E080E090E00E941D250983DD
:100530008CE28A8362E0CE0101960E94EC281A8345
:1005400062E0CE0101960E94EC288BED9EE00E94B5
:1005500001240E946A020F900F900F900F90DF917C
:10056000CF911F910F910895CF93DF9300D0CDB716
:10057000DEB78091900D882369F040E060E088E06C
:100580000E942B0280E489831A8262E0CE010196E8
:100590000E94EC281092900D0F900F90DF91CF9158
:1005A00008950F931F93CF93DF93EC018C01060FF7
:1005B000111DC017D10729F4DF91CF911F910F9121
:1005C000089540E061E089910E942B02F2CFCF9321
:1005D000DF9300D0CDB7DEB7880F89831A8240E061
:1005E00050E0BA018BED9EE00E94692362E0CE01EB
:1005F00001960E94EC288BED9EE00E9401240F9052
:100600000F90DF91CF910895CF93DF9300D0CDB7B6
:10061000DEB7880F898381E08A8340E050E0BA0129
:100620008BED9EE00E94692362E0CE0101960E945C
:10063000EC288BED9EE00E9401240F900F90DF913B
:10064000CF9108950F931F93CF93DF9300D000D0E5
:1006500000D0CDB7DEB7982F990F9C8390E39D8390
:1006600093E09E83880F816089831A821B8240E019
:1006700050E0BA018BED9EE00E94692363E0CE0159
:1006800004960E94EC2863E0CE0101960E94EC28BB
:1006900063E0CE0101960E9419290A811B818BED2E
:1006A0009EE00E940124C80126960FB6F894DEBF92
:1006B0000FBECDBFDF91CF911F910F910895CF93C2
:1006C0001092740E40E050E0BA018BED9EE00E9463
:1006D0006923C1E080E98C0F8230A8F08C2F0E9442
:1006E0002203853A954A79F48091740E803158F44A
:1006F000E091740EF0E0ED5CF24FC0838091740ED7
:100700008F5F8093740ECF5FC03821F78BED9EE032
:10071000CF910C9401240F931F93CF93DF93CDB708
:10072000DEB728970FB6F894DEBF0FBECDBF182FE7
:10073000880F8E8380E38F831886812F880F8160D6
:1007400089831A821B821C821D8240E050E0BA011C
:100750008BED9EE00E94692363E0CE0106960E9425
:10076000EC2865E0CE0101960E94EC2865E0CE0100
:1007700001960E94192905E0812F0E942203853AE3
:10078000954AA1F58C8190E0982F88272D81820FC2
:10079000911D9093F00C8093EF0C05E0812F0E9447
:1007A0002203853A954A29F58A8190E0982F882777
:1007B0002B81820F911D9093310D8093300D8BED25
:1007C0009EE00E9401246091300D7091310D809166
:1007D000EF0C9091F00C28960FB6F894DEBF0FBE88
:1007E000CDBFDF91CF911F910F910895015021F658
:1007F000D4CF015099F6E3CFEF92FF920F931F935E
:10080000CF93DF93CDB7DEB728970FB6F894DEBF4E
:100810000FBECDBF982F990F9E8390E39F8392E0E8
:100820009887880F816089831A821B821C821D82AF
:1008300040E050E0BA018BED9EE00E94692363E046
:10084000CE0106960E94EC2865E0CE0101960E943A
:10085000EC2865E0CE0101960E9419290C811D81CA
:10086000102701271027EA80FB80FE24EF24FE24B6
:100870008BED9EE00E940124B701C80128960FB6B7
:10088000F894DEBF0FBECDBFDF91CF911F910F91C6
:10089000FF90EF900895EF92FF920F931F93CF93E5
:1008A000DF93CDB7DEB728970FB6F894DEBF0FBE43
:1008B000CDBF982F990F9E8390E39F8391E09887F7
:1008C000880F816089831A821B821C821D8240E00E
:1008D00050E0BA018BED9EE00E94692363E0CE01F7
:1008E00006960E94EC2865E0CE0101960E94EC2855
:1008F00065E0CE0101960E9419291D810C81FB80C3
:10090000EA808BED9EE00E940124B701C801289681
:100910000FB6F894DEBF0FBECDBFDF91CF911F9110
:100920000F91FF90EF9008951F93CF93DF9310E006
:10093000C12F012E000CDD0B8091740E90E0C817C2
:10094000D90724F0DF91CF911F910895FE01ED5C4E
:10095000F24F80810E944B04FE01EE0FFF1FEE0F4D
:10096000FF1FEB53F24F608371838283938361E0B7
:1009700070E080E090E00E941D251F5FD9CF8BEDD5
:100980009EE00E9417230E94D72840E050E0BA0161
:100990008BED9EE00E9469230E945F030E940D027E
:1009A00064E670E080E090E00E941D250E949404BF
:1009B0008BED9EE00C94012440E060E080E80E9412
:1009C0002B020E946A0264E189E79DE00E94D10245
:1009D00064E185E09EE00E94D10264E189EF9CE041
:1009E0000E94D10264E18BEB9EE00C94D10284E181
:1009F000E0E9F1E0AAEABDE001900D928A95E1F705
:100A000084E1E0E9F1E0A8E2BEE001900D928A9570
:100A1000E1F784E1E0E9F1E0ABE5BEE001900D92A1
:100A20008A95E1F784E1E0E9F1E0AFE3BEE001900F
:100A30000D928A95E1F708954F925F926F927F929F
:100A40008F929F92AF92BF92CF92DF92EF92FF92DE
:100A50001F93CF93DF93CDB7DEB728970FB6F894E7
:100A6000DEBF0FBECDBF0E94F70486E0E7ECF1E0E9
:100A7000AAEABDE001900D928A95E1F784E0EEECE0
:100A8000F1E0A6EBBDE001900D928A95E1F785E2D9
:100A90008093BD0D86E59AE39093290E8093280EEE
:100AA00081E49AE39093300E80932F0E86E0E3ED7D
:100AB000F1E0ABE5BEE001900D928A95E1F785E0AB
:100AC000EAEDF1E0A2E6BEE001900D928A95E1F731
:100AD0008DE49EE39093400E80933F0E8091690DCC
:100AE00090916A0D8230910509F4F6C140F40097A7
:100AF00009F400C2019771F065EA71E00DC084301D
:100B0000910509F4EFC108F4EAC10697A9F763EC6F
:100B100071E002C06AEA71E0FB0101900020E9F790
:100B20003197AF01461B570B80EB9DE00E9480324E
:100B300086E78093410E80E38093420E4EE240931D
:100B4000430E81E38093440E87E38093450E8091AA
:100B5000F80C24E6622F0E949C2F805D8093BA0DD2
:100B60008091F80C0E949C2F892F2AE0622F0E940E
:100B70009C2F805D8093BB0D8091F80C0E949C2F70
:100B8000905D9093BC0D8091530E9091540E64E64D
:100B900070E00E94CA2F605D60932A0E8091530E10
:100BA0009091540E2AE030E0B9010E94CA2FCB0187
:100BB000B9010E94CA2F805D80932B0E40932C0EAA
:100BC0008091530E9091540EB9010E94CA2F805DFE
:100BD00080932D0EC090450DD090460DE090470DAE
:100BE000F090480D6091450D7091460D8091470D34
:100BF0009091480D0E945E3120E030E0A9010E94F2
:100C0000AF3087FF0CC08DE28093310EC701B60173
:100C10000E945E3190580E9426316B017C01C70111
:100C2000B60120EA36E841E050E00E9400306AE078
:100C3000862E912CA12CB12CCA01B901A5019401D9
:100C40000E940030605D6093320EC701B60120E162
:100C500037E240E050E00E940030CA01B901A5012E
:100C600094010E940030605D6093330EC701B601AD
:100C700028EE33E040E050E00E940030CA01B901A4
:100C8000A50194010E940030605D6093340E8EE2F5
:100C90008093350EC701B60124E630E040E050E015
:100CA0000E940030CA01B901A50194010E940030E0
:100CB000605D6093360EC701B601A50194010E94E4
:100CC0000030162FCA01B901A50194010E9400301D
:100CD000605D6093370E80E3810F8093380E8091C2
:100CE0004B0D882309F409C183E48093680E8CE4DA
:100CF0008093690E8FE480936A0E83E580936B0E78
:100D000085E480936C0E84E480936D0E0E94B7247A
:100D10006B017C0124E630E040E050E00E94DE2FD1
:100D200029833A834B835C83C701B60120E737E10F
:100D300040E050E00E94DE2F29013A01C701B601D0
:100D400020E43EE745E050E00E94DE2F2D833E8305
:100D50004F8358878CE3882E912CA12CB12C69816C
:100D60007A818B819C81A50194010E94DE2F698389
:100D70007A838B839C83C301B201A50194010E94F5
:100D8000DE2F2B013C016D817E818F81988528E1CA
:100D900030E040E050E00E94DE2F6D837E838F8341
:100DA00098879AE0892E912CA12CB12C69817A81A7
:100DB0008B819C81A50194010E94DE2F605D609370
:100DC000520E205D2093510E1AE31093500EC30172
:100DD000B201A50194010E94DE2F605D60934F0E69
:100DE000205D20934E0E10934D0E6D817E818F817C
:100DF0009885A50194010E94DE2F605D60934C0EE2
:100E0000205D20934B0E10934A0EC701B60120E0DF
:100E100036ED43E850E00E94DE2FCA01B901A5017A
:100E200094010E94DE2F605D6093490EC701B601F8
:100E300020E03CE546E255E00E94DE2FCA01B90100
:100E4000A50194010E94DE2F605D6093480EC701EA
:100E5000B60120E038E94FE753E30E94DE2F205D22
:100E60002093470E84E1EAEAFDE0A9E7BDE00190A6
:100E70000D928A95E1F784E1E8E2FEE0A5E0BEE0AC
:100E800001900D928A95E1F784E1EBE5FEE0A9EF90
:100E9000BCE001900D928A95E1F784E1EFE3FEE07A
:100EA000ABEBBEE001900D928A95E1F728960FB664
:100EB000F894DEBF0FBECDBFDF91CF911F91FF90A1
:100EC000EF90DF90CF90BF90AF909F908F907F90EA
:100ED0006F905F904F9008956FEA71E01DCE65EBC3
:100EE00071E01ACE8091C10D805D8093B40D6AEBE4
:100EF00071E012CE6EEB71E00FCE8FE48093680E3E
:100F000080E58093690E85E480936A0E8EE4809379
:100F10006B0E80E280936C0EF7CEAF92BF92CF92B1
:100F2000DF92EF92FF920F931F93CF93DF93C82F1F
:100F30000E94F70486E0E7ECF1E0AAEABDE0019048
:100F40000D928A95E1F708E21EE093E4D8019C93A4
:100F500080E38C0F11968C9311975FE512965C934A
:100F6000129726E513962C9313974AE314964C9305
:100F70002BE53EE0F90190838183528354E553834E
:100F80004483AFE3BEE040E54C934FE211964C93AF
:100F9000119712969C93129713968C9313978EE346
:100FA00014968C93EC2FF0E0EE0FFF1FEF01C45866
:100FB000D14F8881998148EEE42E43E0F42EB701A9
:100FC0000E94B62F605DD80115966C9315974EE27E
:100FD00016964C9388819981B7010E94B62F54E6EA
:100FE000A52EB12CB5010E94B62F605DD8011796D1
:100FF0006C9388819981B7010E94B62FB5010E9438
:10100000B62F6AE0C62ED12CB6010E94B62F605DC5
:10101000D80118966C9388819981B6010E94B62FE9
:10102000805DD80119968C93E25BF24F80819181AB
:10103000B7010E94B62F605DD90115966C9380812F
:101040009181B7010E94B62FB5010E94B62F605D55
:10105000D90116966C9380819181B7010E94B62FB9
:10106000B5010E94B62FB6010E94B62F605DD9016E
:1010700017966C93179718964C9380819181B601BF
:101080000E94B62F805DF901818784E1EAEAFDE0E4
:10109000A9E7BDE001900D928A95E1F784E1F8019E
:1010A000A5E0BEE001900D928A95E1F784E1F90197
:1010B000A9EFBCE001900D928A95E1F784E1EFE39E
:1010C000FEE0ABEBBEE001900D928A95E1F7DF9177
:1010D000CF911F910F91FF90EF90DF90CF90BF9035
:1010E000AF900895AF92BF92CF92DF92EF92FF92AE
:1010F0000F931F93CF93DF93C82F0E94F70485E0CF
:10110000E0EEF1E0AAEABDE001900D928A95E1F7E8
:1011100085E0E6EEF1E0A4EBBDE001900D928A954A
:10112000E1F785E0ECEEF1E0A8E2BEE001900D927F
:101130008A95E1F785E0E2EFF1E0ABE5BEE00190F2
:101140000D928A95E1F787E0E8EFF1E0A5E6BEE0D1
:1011500001900D928A95E1F783E0E0E0F2E0AFE3E1
:10116000BEE001900D928A95E1F780E38C0F8093A9
:10117000420E83E0E4E0F2E0A3E4BEE001900D92D1
:101180008A95E1F73FE6E32E3EE0F32E48E9A42EF0
:101190004DE0B42EF501670180E2D6018D936D011B
:1011A0008193B4E7CB16BEE0DB06B9F7D0E08E0141
:1011B000000F111FF801ED55F14F808191814AE038
:1011C0006FE67EE00E948932F801E559F24F808196
:1011D00091814AE068E97DE00E94893280E2F7016E
:1011E0009081911101C08083D5019C91911101C022
:1011F0008C93BFEFEB1AFB0AEFEFAE1ABE0ACE14C8
:10120000DF0469F780916F0E80932D0E8091700E30
:1012100080932E0E8091710E80932F0E8091720E0E
:101220008093300E8091730E8093310E8091980DD3
:101230008093AF0D8091990D8093B00D80919A0DA0
:101240008093B10D80919B0D8093B20D80919C0D88
:101250008093B30DF801E057F14F8081918164E6EE
:1012600070E00E94B62F2AE030E0B9010E94B62F4C
:10127000605D6093B90D80819181B9010E94B62FA4
:10128000805D8093BA0D8E01000F111F000F111F9A
:10129000C801835F924F7C01DC016D917D918D913E
:1012A0009C910E942631605D6093370E8EE28093A0
:1012B000380EF701608171818281938120E030E0F6
:1012C00040E251E40E9413320E942631862F9AE0B8
:1012D000D92E6D2D0E94A82F905D9093390ED701C5
:1012E0006D917D918D919C9120E030E048EC52E42D
:1012F0000E9413320E942631862F6D2D0E94A82F46
:10130000905D90933A0EF7016081718182819381A3
:1013100020E030E04AE754E40E9413320E94263174
:10132000862F6D2D0E94A82F97FD7BC0F70180812D
:101330009181A281B381608171818281938120E05A
:1013400030E04AE754E40E9413320E942631862F8F
:101350006D2D0E94A82F905D90933B0ECD5CD24FD7
:1013600088811F928F938AE092E09F938F9389E206
:101370009DE09F938F930E94AE328091290D8093C0
:101380006C0E80912A0D80936D0E80912B0D8093B1
:101390006E0EF801EB53F24F8081805D8093600EFA
:1013A0008181805D8093610E8281805D8093620E79
:1013B0008381805D8093630E84E1EAEAFDE0A9E722
:1013C000BDE001900D928A95E1F784E1E8E2FEE04C
:1013D000A5E0BEE001900D928A95E1F784E1EBE58E
:1013E000FEE0A9EFBCE001900D928A95E1F784E15F
:1013F000EFE3FEE0ABEBBEE001900D928A95E1F7E2
:101400000F900F900F900F900F900F90DF91CF9152
:101410001F910F91FF90EF90DF90CF90BF90AF9012
:10142000089580E280933B0E99CF0E94F70480914B
:10143000BE0D81113CC087E0EFE0F2E0AAEABDE01A
:1014400001900D928A95E1F788E0E7E1F2E0A2EBE6
:10145000BDE001900D928A95E1F784E1EAEAFDE0B2
:10146000A9E7BDE001900D928A95E1F784E1E8E2F9
:10147000FEE0A5E0BEE001900D928A95E1F784E1DF
:10148000EBE5FEE0A9EFBCE001900D928A95E1F753
:1014900084E1EFE3FEE0ABEBBEE001900D928A95B4
:1014A000E1F766E970E080E090E00C941D2584E0AF
:1014B000E0E2F2E0AAEABDE001900D928A95E1F740
:1014C00087E0E5E2F2E0AFEABDE0C3CF0E94F704B7
:1014D00085E0EDE2F2E0AAEABDE001900D928A9586
:1014E000E1F789E0E3E3F2E0A0EBBDE001900D92CB
:1014F0008A95E1F784E1EAEAFDE0A9E7BDE0019021
:101500000D928A95E1F784E1E8E2FEE0A5E0BEE015
:1015100001900D928A95E1F784E1EBE5FEE0A9EFF9
:10152000BCE001900D928A95E1F784E1EFE3FEE0E3
:10153000ABEBBEE001900D928A95E1F766E970E0B1
:1015400080E090E00C941D250E94F70484E0E0E226
:10155000F2E0AAEABDE001900D928A95E1F7809150
:10156000BE0D882399F186E0EFE3F2E0AFEABDE03B
:1015700001900D928A95E1F784E1EAEAFDE0A9E79E
:10158000BDE001900D928A95E1F784E1E8E2FEE08A
:10159000A5E0BEE001900D928A95E1F784E1EBE5CC
:1015A000FEE0A9EFBCE001900D928A95E1F784E19D
:1015B000EFE3FEE0ABEBBEE001900D928A95E1F720
:1015C00066E970E080E090E00C941D2588E0EDE392
:1015D000F2E0CCCFCF92DF92EF92FF920F931F9366
:1015E000CF930E94B72460931A0E70931B0E8093C2
:1015F0001C0E90931D0E0E94F70485E0E6E4F2E0D5
:10160000AAEABDE001900D928A95E1F784E59FE496
:101610009093B10D8093B00D27E0ECE4F2E0A3EBE2
:10162000BDE001900D922A95E1F723E0E4E5F2E0B8
:10163000ABE5BEE001900D922A95E1F725E0E8E5E3
:10164000F2E0AFE5BEE001900D922A95E1F726E0C9
:10165000EEE5F2E0A5E6BEE001900D922A95E1F7F5
:101660009093290E8093280E84E0E5E6F2E0ABE249
:10167000BEE001900D928A95E1F787E0EAE6F2E09C
:10168000A0E3BEE001900D928A95E1F784E1EAEAD9
:10169000FDE0A9E7BDE001900D928A95E1F784E1B4
:1016A000E8E2FEE0A5E0BEE001900D928A95E1F748
:1016B00084E1EBE5FEE0A9EFBCE001900D928A9594
:1016C000E1F784E1EFE3FEE0ABEBBEE001900D92C9
:1016D0008A95E1F784E6C82ED12CE12CF12C0E94EA
:1016E000B72400911A0E10911B0E20911C0E309100
:1016F0001D0EC091CF0E601B710B820B930BA701C7
:1017000096010E94DE2F8C2F90E0A0E0B0E08217BF
:101710009307A407B50780F08091A10E882371F08C
:101720000E94B72460931A0E70931B0E80931C0EB8
:1017300090931D0E1092A10E80E01EC08091590E54
:10174000882369F00E94B72460931A0E70931B0ED1
:1017500080931C0E90931D0E1092590EEDCF189988
:1017600013C00E94B72460931A0E70931B0E8093CF
:101770001C0E90931D0E81E0CF911F910F91FF9051
:10178000EF90DF90CF9008956AE070E080E090E005
:101790000E941D25A4CF4F925F926F927F92AF92CD
:1017A000BF92CF92DF92EF92FF920F931F93CF934E
:1017B000DF930E94F70486E0E2E7F2E0AAEABDE0E8
:1017C00001900D928A95E1F786E0E9E7F2E0A1EB5E
:1017D000BDE001900D928A95E1F785E0E6E4F2E044
:1017E000ABE5BEE001900D928A95E1F784E0E0E878
:1017F000F2E0A1E6BEE001900D928A95E1F785E066
:10180000E5E8F2E0A8E2BEE001900D928A95E1F7EA
:10181000C1E0C093CC0C8091CC0C1F928F938BE8CD
:1018200092E09F938F938CE39EE09F938F930E940F
:10183000AE3280913C0E80932D0E80913D0E8093B0
:101840002E0E84E1EAEAFDE0A9E7BDE001900D92E9
:101850008A95E1F784E1E8E2FEE0A5E0BEE00190D0
:101860000D928A95E1F784E1EBE5FEE0A9EFBCE09B
:1018700001900D928A95E1F784E1EFE3FEE0ABEB96
:10188000BEE001900D928A95E1F76AE070E080E099
:1018900090E00E941D25C0931F0E0F900F900F9097
:1018A0000F900F900F9024E6C22ED12CE12CF12C3A
:1018B0000BE812E0CCE3DEE00E94B72440901A0E61
:1018C00050901B0E60901C0E70901D0EB090CF0EAD
:1018D0006419750986099709A70196010E94DE2FF0
:1018E0008B2D90E0A0E0B0E082179307A407B50726
:1018F00008F42EC38091A10E882309F482C00E94AF
:10190000B72460931A0E70931B0E80931C0E909355
:101910001D0E80911F0E8F5F80931F0E80911F0EF2
:101920008093CC0C8091CC0C1F928F931F930F93BC
:10193000DF93CF930E94AE321092A10E0F900F90C2
:101940000F900F900F900F9080913C0E80932D0E72
:1019500080913D0E80932E0E84E1EAEAFDE0A9E736
:10196000BDE001900D928A95E1F784E1E8E2FEE0A6
:10197000A5E0BEE001900D928A95E1F784E1EBE5E8
:10198000FEE0A9EFBCE001900D928A95E1F784E1B9
:10199000EFE3FEE0ABEBBEE001900D928A95E1F73C
:1019A000189954C00E94B72460931A0E70931B0EAE
:1019B00080931C0E90931D0E64E170E080E090E037
:1019C0000E941D2580E090E0FC01E053F14F308142
:1019D0002091CC0C321709F440C001968A30910551
:1019E00099F7DF91CF911F910F91FF90EF90DF90CA
:1019F000CF90BF90AF907F906F905F904F900C947E
:101A0000150A8091590E882309F49ECF0E94B724AD
:101A100060931A0E70931B0E80931C0E90931D0EF4
:101A200080911F0E815080931F0E80911F0E809316
:101A3000CC0C8091CC0C1F928F931F930F93DF934C
:101A4000CF930E94AE321092590E78CF6AE070E0C8
:101A500080E090E00E941D252FCF0E94F70486E0D1
:101A6000E2E7F2E0AAEABDE001900D928A95E1F783
:101A700086E0E9E7F2E0A1EBBDE001900D928A95E6
:101A8000E1F785E0E6E4F2E0ABE5BEE001900D921F
:101A90008A95E1F783E0E0E9F2E0A1E6BEE001909B
:101AA0000D928A95E1F78091CC0C833049F085E066
:101AB000E4E9F2E0A8E2BEE001900D928A95E1F738
:101AC00084E0EAE9F2E0A3E3BEE001900D928A959A
:101AD000E1F785E0EFE9F2E0AFE3BEE001900D92BF
:101AE0008A95E1F780913C0E8093440E80913D0EE3
:101AF0008093450EC091CC0CCC2ED12CF6013197A1
:101B0000EA30F10590F4E957F24F0C941F30910D33
:101B1000890E8C0E8E0E910E940E970E9A0E9D0EBF
:101B2000A00E8091320D8093CC0C8091CC0C1F9232
:101B30008F930BE812E01F930F938EE89EE09F9324
:101B40008F930E94AE328091CC0C1F928F931F9383
:101B50000F938CE39EE09F938F930E94AE328DB7DC
:101B60009EB70C960FB6F8949EBF0FBE8DBFC330C4
:101B700041F080918E0E80932D0E80918F0E809378
:101B80002E0E80913C0E8093370E80913D0E8093F7
:101B9000380E84E1EAEAFDE0A9E7BDE001900D928C
:101BA0008A95E1F784E1E8E2FEE0A5E0BEE001907D
:101BB0000D928A95E1F784E1EBE5FEE0A9EFBCE048
:101BC00001900D928A95E1F784E1EFE3FEE0ABEB43
:101BD000BEE001900D928A95E1F76FE070E080E041
:101BE00090E00E941D258091CC0C80931F0E84E60E
:101BF000482E512C612C712C0BE812E09CE3A92E8D
:101C00009EE0B92E0E94B72420911A0E30911B0E2F
:101C100040911C0E50911D0ED091CF0E621B730B84
:101C2000840B950BA30192010E94DE2F8D2F90E073
:101C3000A0E0B0E082179307A407B50708F488C1B5
:101C40008091A10E882309F47EC080911F0E8F5FC2
:101C500080931F0E80911F0E8093CC0C0E94B7249E
:101C600060931A0E70931B0E80931C0E90931D0EA2
:101C70008091CC0C1F928F931F930F93BF92AF92C2
:101C80000E94AE321092A10E0F900F900F900F9005
:101C90000F900F90C33041F080918E0E80932D0EE7
:101CA00080918F0E80932E0E80913C0E8093370E84
:101CB00080913D0E8093380E84E1EAEAFDE0A9E7C9
:101CC000BDE001900D928A95E1F784E1E8E2FEE043
:101CD000A5E0BEE001900D928A95E1F784E1EBE585
:101CE000FEE0A9EFBCE001900D928A95E1F784E156
:101CF000EFE3FEE0ABEBBEE001900D928A95E1F7D9
:101D0000189B46C06FE070E080E090E00E941D25C7
:101D100079CF8091A20E07CF81E005CF8091640D2D
:101D200002CF80917B0EFFCE8091CF0EFCCE8091B2
:101D30008E0DF9CE8091790EF6CE8091DA0EF3CE2B
:101D40008091190EF0CE8091590E882309F4A2CF0C
:101D500080911F0E815080931F0E80911F0E8093E3
:101D6000CC0C0E94B72460931A0E70931B0E8093C4
:101D70001C0E90931D0E8091CC0C1F928F931F937D
:101D80000F93BF92AF920E94AE321092590E7CCF49
:101D900064E670E080E090E00E941D25C330C1F051
:101DA0000E94EA0A811114C064E170E080E090E0D2
:101DB000DF91CF911F910F91FF90EF90DF90CF9027
:101DC000BF90AF907F906F905F904F900C941D25C7
:101DD00064E170E080E090E00E941D25F6013197FB
:101DE000EA30F10508F7E950F14F0C941F30010F6C
:101DF0000E0F1B0F4D0F5A0F670F740F810F8E0FB1
:101E00009B0F6091CC0C88E090E00E94AF3588E099
:101E100090E00E94A7358093320DC6CF6091CC0C24
:101E200089E090E00E94AF3589E090E00E94A735FC
:101E30008093A20EB9CF8091CC0C8F3F59F5809141
:101E4000BE0D61E0811160E082E090E00E94AF355C
:101E500082E090E00E94A7358093BE0D0E94A40A04
:101E60008091BE0D882309F49FCF8091690D9091D8
:101E70006A0D049709F098CF80918F0D843009F096
:101E800093CF86E090E090936A0D8093690D109255
:101E9000C00D8ACF0E94660A87CF6091CC0C83E088
:101EA00090E00E94AF3583E090E00E94A7358093D8
:101EB000640D7ACF6091CC0C84E090E00E94AF3545
:101EC00084E090E00E94A73580937B0E6DCF6091F7
:101ED000CC0C85E090E00E94AF3585E090E00E9458
:101EE000A7358093CF0E60CF6091CC0C86E090E058
:101EF0000E94AF3586E090E00E94A73580938E0D5A
:101F000053CF6091CC0C8AE090E00E94AF358AE01C
:101F100090E00E94A7358093790E46CF6091CC0C5B
:101F20008BE090E00E94AF358BE090E00E94A735F7
:101F30008093DA0E39CF6091CC0C8CE090E00E9457
:101F4000AF358CE090E00E94A7358093190E2CCF1E
:101F5000DF91CF911F910F91FF90EF90DF90CF9085
:101F6000BF90AF907F906F905F904F9008950E94C8
:101F7000F70485E0E5EAF2E0AAEABDE001900D92FF
:101F80008A95E1F784E0EBEAF2E0A0EBBDE0019096
:101F90000D928A95E1F787E0E0EBF2E0A8E2BEE07F
:101FA00001900D928A95E1F786E0E8EBF2E0ABE56F
:101FB000BEE001900D928A95E1F784E0EFEBF2E04C
:101FC000AFE3BEE001900D928A95E1F784E1EAEA81
:101FD000FDE0A9E7BDE001900D928A95E1F784E16B
:101FE000E8E2FEE0A5E0BEE001900D928A95E1F7FF
:101FF00084E1EBE5FEE0A9EFBCE001900D928A954B
:10200000E1F784E1EFE3FEE0ABEBBEE001900D927F
:102010008A95E1F708950E94F70485E0E4ECF2E088
:10202000AAEABDE001900D928A95E1F785E0E6E429
:10203000F2E0A0EBBDE001900D928A95E1F784E516
:102040009FE49093B70D8093B60D87E0EAECF2E041
:10205000ABE5BEE001900D928A95E1F784E0E2EDF8
:10206000F2E0A3E6BEE001900D928A95E1F784E0EC
:10207000EBEAF2E0A8E6BEE001900D928A95E1F766
:1020800084E1EAEAFDE0A9E7BDE001900D928A95BE
:10209000E1F784E1E8E2FEE0A5E0BEE001900D9208
:1020A0008A95E1F784E1EBE5FEE0A9EFBCE0019061
:1020B0000D928A95E1F784E1EFE3FEE0ABEBBEE041
:1020C00001900D928A95E1F708950E94F70485E04A
:1020D000E4ECF2E0AAEABDE001900D928A95E1F706
:1020E00085E0E6E4F2E0A0EBBDE001900D928A9578
:1020F000E1F784E59FE49093B70D8093B60D87E0F8
:10210000EAECF2E0ABE5BEE001900D928A95E1F7D2
:1021100084E0E2EDF2E0A3E6BEE001900D928A9544
:10212000E1F78BE0E7EDF2E0A8E2BEE001900D926E
:102130008A95E1F784E1EAEAFDE0A9E7BDE00190D4
:102140000D928A95E1F784E1E8E2FEE0A5E0BEE0C9
:1021500001900D928A95E1F784E1EBE5FEE0A9EFAD
:10216000BCE001900D928A95E1F784E1EFE3FEE097
:10217000ABEBBEE001900D928A95E1F708950E94C5
:10218000F70485E0E4ECF2E0AAEABDE001900D92EC
:102190008A95E1F785E0E6E4F2E0A0EBBDE001908E
:1021A0000D928A95E1F784E59FE49093B70D8093B3
:1021B000B60D87E0EAECF2E0ABE5BEE001900D92EF
:1021C0008A95E1F786E0E3EEF2E0A3E6BEE0019057
:1021D0000D928A95E1F786E0EAEEF2E0A8E2BEE031
:1021E00001900D928A95E1F784E1EAEAFDE0A9E722
:1021F000BDE001900D928A95E1F784E1E8E2FEE00E
:10220000A5E0BEE001900D928A95E1F784E1EBE54F
:10221000FEE0A9EFBCE001900D928A95E1F784E120
:10222000EFE3FEE0ABEBBEE001900D928A95E1F7A3
:1022300008954F925F926F927F928F929F92AF928A
:10224000BF92CF92DF92EF92FF921F93CF93DF93D3
:10225000CDB7DEB728970FB6F894DEBF0FBECDBF5F
:10226000F82E0E94F70485E0E5EFF2E0AAEABDE06F
:1022700001900D928A95E1F783E0EBEFF2E0A0EB9D
:10228000BDE001900D928A95E1F786E0E7ECF1E080
:10229000A8E2BEE001900D928A95E1F784E0EFEFAD
:1022A000F2E0ABE5BEE001900D928A95E1F784E1A2
:1022B000EAEAFDE0A9E7BDE001900D928A95E1F719
:1022C00084E1E8E2FEE0A5E0BEE001900D928A958F
:1022D000E1F784E1EBE5FEE0A9EFBCE001900D92AF
:1022E0008A95E1F784E1EFE3FEE0ABEBBEE001901D
:1022F0000D928A95E1F78F2D90E0FC01EE0FFF1F04
:10230000EF54F14FE080F180880F991F880F991FDB
:10231000FC01E353F34F408051806280738082E080
:10232000E816F10409F4F2C108F0E3C1E114F10484
:1023300009F4FAC1F1E0EF16F10409F4F8C165EA15
:1023400071E0FB0101900020E9F73197AF01461BD6
:10235000570B8EE29EE00E94803284E0E816F10482
:1023600009F043C08091C20D805D80933F0E809143
:10237000C10D8111DFC18091C30D9091C40D28EE74
:1023800033E0B9010E94B62F605D6093B90D809172
:10239000C30D9091C40DB9010E94B62FE4E6F0E0A0
:1023A000BF010E94B62F605D6093BA0D8091C30D8E
:1023B0009091C40DB9010E94B62FBF010E94B62FA3
:1023C0002AE030E0B9010E94B62F605D6093BB0D3A
:1023D0008EE28093BC0D8091C30D9091C40DB90124
:1023E0000E94B62F805D8093BD0DC301B20124E62B
:1023F00030E040E050E00E94DE2F29833A834B8397
:102400005C83C301B20120E737E140E050E00E9465
:10241000DE2F49015A01C301B20120E43EE745E045
:1024200050E00E94DE2F69017A0169817A818B81F7
:102430009C812CE330E040E050E00E94DE2F698375
:102440007A838B839C83C501B4012CE330E040E0A8
:1024500050E00E94DE2F6D837E838F839887C701B3
:10246000B60128E130E040E050E00E94DE2F6B0131
:102470007C018AE0882E912CA12CB12C69817A8173
:102480008B819C81A50194010E94DE2F605D609389
:102490006E0E205D20936D0E1AE310936C0E6D810D
:1024A0007E818F819885A50194010E94DE2F605D59
:1024B00060936B0E205D20936A0E1093690EC70126
:1024C000B601A50194010E94DE2F605D6093680E45
:1024D000205D2093670E1093660EC301B20120E0C9
:1024E00036ED43E850E00E94DE2FCA01B901A50194
:1024F00094010E94DE2F605D6093650EC301B201FE
:1025000020E03CE546E255E00E94DE2FCA01B90119
:10251000A50194010E94DE2F605D6093640EC301EB
:10252000B20120E038E94FE753E30E94DE2F205D3F
:102530002093630E0E94B7246B017C0124E630E0F7
:1025400040E050E00E94DE2F29833A834B835C8376
:10255000C701B60120E737E140E050E00E94DE2FDE
:1025600029013A01C701B60120E43EE745E050E009
:102570000E94DE2F2D833E834F83588769817A81A5
:102580008B819C812CE330E040E050E00E94DE2F04
:1025900069837A838B839C83C301B2012CE330E08F
:1025A00040E050E00E94DE2F2B013C016D817E81D6
:1025B0008F81988528E130E040E050E00E94DE2FD6
:1025C0006D837E838F83988769817A818B819C81DB
:1025D000A50194010E94DE2F605D6093520E205D84
:1025E0002093510E1093500EC301B201A501940126
:1025F0000E94DE2F605D60934F0E205D20934E0E93
:1026000010934D0E6D817E818F819885A501940177
:102610000E94DE2F605D60934C0E205D20934B0E78
:1026200010934A0EC701B60120E036ED43E850E0B2
:102630000E94DE2FCA01B901A50194010E94DE2F7C
:10264000605D6093490EC701B60120E03CE546E2BB
:1026500055E00E94DE2FCA01B901A50194010E9434
:10266000DE2F605D6093480EC701B60120E038E9B7
:102670004FE753E30E94DE2F205D2093470E84E155
:10268000EAEAFDE0A9E7BDE001900D928A95E1F745
:1026900084E1E8E2FEE0A5E0BEE001900D928A95BB
:1026A000E1F784E1EBE5FEE0A9EFBCE001900D92DB
:1026B0008A95E1F784E1EFE3FEE0ABEBBEE0019049
:1026C0000D928A95E1F728960FB6F894DEBF0FBEFB
:1026D000CDBFDF91CF911F91FF90EF90DF90CF9012
:1026E000BF90AF909F908F907F906F905F904F9032
:1026F000089584E0E816F10479F058F0F6E0EF165A
:10270000F10409F01CCE63EC71E01BCE6FEA71E0BE
:1027100018CE61EF72E015CE8091C10D805D80937F
:10272000320E6AEB71E00DCE6EEB71E00ACE6AEA12
:1027300071E007CE8091C10D813009F056CE8091B5
:10274000C30D9091C40D28EE33E0B9010E94B62F5D
:10275000605D6093B90D8EE28093BA0D8091C30DD8
:102760009091C40DB9010E94B62FE4E6F0E0BF01DC
:102770000E94B62F605D6093BB0D8091C30D909158
:10278000C40DB9010E94B62FBF010E94B62F2AE0E6
:1027900030E0B9010E94B62F605D6093BC0D1BCE86
:1027A00084B1887F84B985B1876085B908950E9416
:1027B000D01362E370E080E090E00E941D25C1E04C
:1027C000C093630D1A9927C08091CB0C811123C04F
:1027D000C093CB0CC093A10E6EE170E080E090E05E
:1027E0000E941D25189B06C08091CA0C811102C051
:1027F00010928D0D1A9B06C08091A10E811102C00E
:102800001092CB0C199BDCCF8091590E8111D8CF3F
:102810001092BF0DD5CF199909C08091BF0D8111BC
:1028200005C0C093BF0DC093590ED6CF1899DACF0B
:1028300080918D0D8111D6CFC0938D0DC093CA0CA0
:10284000CBCFEF92FF920F931F93CF93DF93CDB730
:10285000DEB74DB75EB78091740E2DB73EB7281B1B
:1028600031090FB6F8943EBF0FBE2DBF2F5F3F4F0B
:102870008091690D90916A0D019709F092C0809145
:10288000920D882309F48DC01092920D80E09091F2
:10289000740E891760F0A0E08091740E6A2F70E0CA
:1028A00090E0019768177907BCF5B0E029C0F901FD
:1028B000E80FF11D80838F5FEACFB901680F791FA0
:1028C000FB01E080EE2DF0E0EE0FFF1FE458F14F2A
:1028D000008111810196820F931FFC01F080EF2D82
:1028E000F0E0EE0FFF1FE458F14F0190F081E02D72
:1028F000E017F10720F4FC01E082FB01F082BF5FEA
:102900008B2F90E06091740E70E061507109861712
:1029100097079CF2AF5FC0CF8091740E815097E013
:10292000811111C0A1E06091740E861748F10FB6B5
:10293000F8945EBF0FBE4DBFDF91CF911F910F91F5
:10294000FF90EF900895D901A80FB11DEC91F0E030
:10295000EE0FFF1FE458F14F608171811197EC91E8
:10296000F0E0EE0FFF1FE458F14F0190F081E02DF1
:102970006E1B7F0B6931710508F0982F8150D0CF05
:10298000682F70E0620F731FFB016081E62FF0E09B
:10299000EF50F34F891718F0A0838F5FC4CF1082D8
:1029A000FCCF8091690D90916A0D019709F4BFCF1A
:1029B00080E09091740E891708F0B9CFE82FF0E00D
:1029C000EF50F34F10828F5FF4CFCF93DF9300D09F
:1029D00000D000D0CDB7DEB70E94BF040E94A30094
:1029E0000E94D7000E94790281E080932D0D109201
:1029F000920D2224239434E6432E512C612C712C09
:102A000020925C0D0E94B724A30192010E94DE2F48
:102A1000633371058105910508F4F0C080912D0D97
:102A2000882349F010922D0D2092920D8091900DE7
:102A300081110E94DC0465E070E080E090E00E947B
:102A40001D25312C8091740E381608F4DAC00E94CE
:102A50008301BC01990F880B990B0E945E312AE01B
:102A600037ED43EA5AE30E94133221EC3AEC41E895
:102A70005FE30E9413322AE939E949E95EE30E94E3
:102A8000423020E030E040E251E40E9413320E94E4
:102A90002D317093540E6093530E0E946B000E9470
:102AA0002E01092E000CAA0BBB0BB095A09590959A
:102AB00081959F4FAF4FBF4F8093650D9093660DEB
:102AC000A093670DB093680D8091650D9091660D90
:102AD000A091670DB091680D803E9E42A105B105A1
:102AE000CCF48091650D9091660DA091670DB09129
:102AF000680D8132914DAF4FBF4F64F08091650DED
:102B00009091660DA091670DB091680D90939F0E06
:102B100080939E0E8091690D90916A0D069709F041
:102B2000FAC080914B0D882309F4F5C00E94EF0193
:102B30000E94BA01092E000CAA0BBB0B8093650DF5
:102B40009093660DA093670DB093680D40E050E040
:102B5000BA0183E99DE00E9469238091650D9091FF
:102B6000660DA091670DB091680D9C01AD016627BF
:102B70007727CB01621B730B840B950B0E945E3190
:102B80002FE632E143E059E30E94133223ED3EEF9A
:102B900046ED52E40E94133224EA30E74DE25FE34F
:102BA0000E94433020E030E04AE754E40E941332B0
:102BB0000E9426316093450D7093460D8093470D1A
:102BC0009093480D83E99DE00E9401240E94211406
:102BD00010E08091740E181708F012CFE12FF0E08A
:102BE000DF01AF50B34F8C91ED5CF24F813009F0B3
:102BF000E8C080810E9404031F5FEBCF20922D0D5F
:102C00001ACF032D10E0F801ED5CF24F80810E9495
:102C10008B036B017C019801220F331F3E832D83B0
:102C2000F901ED55F14F408151815A834983F901F2
:102C3000E559F24F808191819C838B8396E09E9D24
:102C4000B0019F9D700D112480E090E00E945C31E6
:102C50004B015C01A981BA81BD0180E090E00E9436
:102C60005C3120E030E040E85AE30E9413329B01DF
:102C7000AC01C501B4010E9413324B015C01EB8130
:102C8000FC81BF0180E090E00E945C319B01AC01BF
:102C9000C501B4010E9443300E942D31ED81FE81B7
:102CA000E458F14F71836083000F111F000F111F53
:102CB000F801E35FF24F80809180A280B380ED81C4
:102CC000FE81E057F14F00811181FAEFCF1AF0E851
:102CD000DF0ACC0CDD1CB60180E090E00E945C3184
:102CE000A50194010E9413326B017C01B80180E0C0
:102CF00090E00E945C319B01AC01C701B6010E94CB
:102D000043300E942D31ED81FE81E25BF24F7183F1
:102D10006083339497CE0E940D020E94BA01092E5F
:102D2000000CAA0BBB0B8093650D9093660DA093CE
:102D3000670DB093680D8091650D9091660DA0911F
:102D4000670DB091680D8C3B9240A105B1050CF068
:102D50003DCF8091650D9091660DA091670DB0916A
:102D6000680D85349D4FAF4FBF4F0CF42FCF40E01F
:102D700050E0BA0183E99DE00E94692360919E0EB4
:102D800070919F0E072E000C880B990B0E945E31EC
:102D90002CEA35EC47E256E30E9413322FE632E18B
:102DA00043E85AE30E94B4302DE73EEA46E75FE38A
:102DB0000E94133229E839E241E15CE30E9442308B
:102DC000F1CE80810E94E70217CF1092E10E10929F
:102DD000E00E8091E00E9091E10E079758F187E0A8
:102DE0008093A40D80E29EE09093A60D8093A50DA4
:102DF00081E090E090939F0D80939E0D1092A90D1D
:102E000088E090E00E94A7358093320D8091320DCA
:102E1000882321F08091320D8F3F59F461E088E0E2
:102E200090E00E94AF3588E090E00E94A735809343
:102E3000320D0895E091E00EF091E10EE05EF14F69
:102E400010828091E00E9091E10E01969093E10E38
:102E50008093E00EBECF0E94E51680E00E94A32979
:102E600001E088E0F82E0093620D8091320D90E031
:102E7000982F882797709093A10D8093A00DF092C2
:102E8000A40D8091690D90916A0D8093200E809120
:102E9000530E9091540E9093210E8091530E909169
:102EA000540E8093220E8091450D9091460DA09175
:102EB000470DB091480D8B2FBB2787FDB0959B2FF9
:102EC000AB2F8093230E8091450D9091460DA091DC
:102ED000470DB091480DCD01BB2797FDB095AB2FA5
:102EE0008093240E8091450D9091460DA091470D41
:102EF000B091480D892F9A2FAB2FBB27A7FDBA950C
:102F00008093250E8091450D9091460DA091470D1F
:102F1000B091480D8093260E8091F80C8093270E77
:102F20008DE99DE00E94B029182F8111F9CF8DE91C
:102F30009DE00E948B2E8130D1F38091550E9091AF
:102F4000560EA091570EB091580E8B2FBB2787FDC0
:102F5000B0959B2FAB2F8093200E8091550E9091B2
:102F6000560EA091570EB091580ECD01BB2797FD7C
:102F7000B095AB2F8093210E8091550E9091560EF7
:102F8000A091570EB091580E892F9A2FAB2FBB27C7
:102F9000A7FDBA958093220E8091550E9091560E02
:102FA000A091570EB091580E8093230EE12C94E01F
:102FB000C4E0D1E08091A20EE816C0F0E12C80912F
:102FC000A20EE81608F056C02C2F290F2AC0EC2FAD
:102FD000F0E0AE2DB0E0AF50B34F8C91E05EF14F1A
:102FE0008083CF5FE394915009F452C08091A20E88
:102FF000E81668F3DFCF4C2F50E0EE2DF0E0EE0F37
:10300000FF1FE458F14F60817181DA01A05EB14F7A
:103010007C93608171814F5D514FFA016083E3942D
:103020009250C22FC91B923008F450C08091A20E5A
:10303000E81608F3C4CF2C2F30E0E12FF0E0EE0FBC
:10304000FF1FE25BF24F40815181D901A05EB14F79
:103050005C9340815181F901EF5DF14F40831F5F27
:103060009250C82FC91B923008F44EC02091A20E76
:10307000121708F38091A20E181718F48C2F890FDD
:10308000F0CF64E670E080E090E00E941D25EBCE7A
:103090008091320D90E0982F88278D0F911D9770A9
:1030A0009093A10D8093A00DC093A40D8DE99DE098
:1030B0000E94B029C82F8111F9CF8DE99DE00E94AF
:1030C0008B2E8130D1F3DF5F98E074CF8091320D89
:1030D00090E0982F88278D0F911D97709093A10DE8
:1030E0008093A00DC093A40D8DE99DE00E94B029AE
:1030F000C82F8111F9CF8DE99DE00E948B2E813080
:10310000D1F3DF5F98E05BCF8091320D90E0982F94
:1031100088278D0F911D97709093A10D8093A00D1E
:10312000C093A40D8DE99DE00E94B029C82F8111A4
:10313000F9CF8DE99DE00E948B2E8130D1F3DF5FC6
:1031400098E098CF0C941C050E941C0586E08093A3
:10315000D50E87E08093D60E85E090E00E94A735DB
:103160008093CF0E8091CF0E882321F08091CF0ED7
:103170008F3F59F46FE085E090E00E94AF3585E025
:1031800090E00E94A7358093CF0E86E090E00E94E9
:10319000A73580938E0D80918E0D882321F080912C
:1031A0008E0D8F3F59F468E786E090E00E94AF35BE
:1031B00086E090E00E94A73580938E0D0E94B72490
:1031C00060931A0E70931B0E80931C0E90931D0E2D
:1031D00064E670E080E090E00E941D25D0E0C0E051
:1031E00001E084E6C82ED12CE12CF12C00935D0D7A
:1031F0000E94B72480901A0E90901B0EA0901C0E77
:10320000B0901D0E1091CF0E681979098A099B099B
:10321000A70196010E94DE2F812F90E0A0E0B0E090
:1032200082179307A407B50710F4D0E0C0E00E940E
:10323000B72480901A0E90901B0EA0901C0EB09098
:103240001D0E10918E0D681979098A099B09A70135
:1032500096010E94DE2F812F90E0A0E0B0E082175F
:103260009307A407B507F8F40E94B40218998AC01E
:103270000E94B72460931A0E70931B0E80931C0E4D
:1032800090931D0ED13009F465C0E8F1D23009F4F5
:1032900069C0D33009F46EC064E170E080E090E072
:1032A0000E941D25A3CF0093900DD13001F138F07D
:1032B000D23009F1D33019F10E941C05D7CFC230AA
:1032C00081F03CF4CC23C1F3C130B1F70E940B1064
:1032D000CDCFC33049F0CF3079F70E94CB0BC0E09F
:1032E000C5CF0E946510C2CF0E94BF10BFCF8C2FE8
:1032F0000E948D07BBCF8C2F0E947208B7CF8C2FF6
:103300000E941911B3CFC130B1F04CF4C111C4CF38
:103310008091900D882309F4BFCFCFE0BDCFC2309C
:1033200091F0C33009F0B8CF8091900D882309F453
:10333000B3CFD3E006C08091900D882309F4ACCFC1
:10334000D1E0C0E0A9CF8091900D882309F4A4CFEB
:10335000D2E0F7CF8091900D882309F49DCFD0E083
:10336000C1E09ACF8091900D882309F495CFD0E0E9
:10337000C2E092CF8091900D882309F48DCFD0E0E8
:10338000C3E08ACF8091590E882379F10E94B72437
:1033900060931A0E70931B0E80931C0E90931D0E5B
:1033A0008091900D8823B1F0CF5FC43011F4DD23FC
:1033B000D1F08091740E90E02C2F0C2E000C330B6A
:1033C0002817390751F48FEF8D0F823030F4C091F8
:1033D000740EC1501092590E5FCFC530D9F7D3305B
:1033E000C9F7C4E0F7CFC3E0F5CF8091A10E8823E1
:1033F00009F452CF0E94B72460931A0E70931B0EEB
:1034000080931C0E90931D0E8091900D882319F0CF
:10341000C15008F4C0E01092A10E3ECF80E090E0D1
:10342000FC01E45AF24F1082019688309105C1F7F1
:103430000895089A81E08093910D1092A00E0E9449
:103440000E1A6EE170E080E090E00E941D2580E0A1
:1034500090E0FC01E45AF24F208121111CC08091C0
:10346000A00E8F5F8093A00E8091A00E843610F086
:103470001092910D8091910D882349F3109863E08B
:1034800070E080E090E00E941D25109A63E070E0FB
:1034900080E090E0DACF019688309105D1F60E9465
:1034A0000E1A1092A00EE0CF10927A0E10923E0EDD
:1034B00080E09091740E891720F083E99DE00C94D0
:1034C0001723E82FF0E0EF50F34F10828F5FF1CF1A
:1034D00081E090E00E94A7358093F80C8091F80C71
:1034E000882321F08091F80C8F3F59F462E381E04A
:1034F00090E00E94AF3581E090E00E94A735809374
:10350000F80C8091F80C089590913E0E8091F80C83
:10351000981751F08091F80C80933E0E6091F80C52
:1035200081E090E00C94AF350895CF93DF9300D005
:1035300000D0CDB7DEB70E94541A412C512C320175
:1035400011E004E634E6332E4CE9842E99249A9453
:10355000A92CB92C10935E0D8091690D90916A0D84
:10356000892BC1F38091690D90916A0D019721F427
:1035700082B1806382B908C08091690D90916A0D13
:10358000039709F0B7C0149A40E08091740E481771
:1035900008F4B3C080E09091740E891708F4D5C088
:1035A0000E94B7246B017C019B01AC0124193509F1
:1035B0004609570929013A0140E050E0BA0183E980
:1035C0009DE00E9469236091450D7091460D8091A8
:1035D000470D9091480D2091550E3091560E409117
:1035E000570E5091580E29833A834B835C83A30175
:1035F00092010E948C2FA50194010E9400308981C4
:103600009A81AB81BC81280F391F4A1F5B1F57FD70
:103610002CC06091450D7091460D8091470D9091A1
:10362000480D2091550E3091560E4091570E5091F5
:10363000580E29833A834B835C83A30192010E9435
:103640008C2FA50194010E94003089819A81AB8161
:10365000BC81280F391F4A1F5B1F2093550E3093E2
:10366000560E4093570E5093580E83E99DE00E94EA
:1036700001246091550E7091560E8091570E9091D5
:10368000580E0E945E3120E036ED43E05AE40E947D
:103690000E32181664F56091550E7091560E809199
:1036A000570E9091580E0E945E3128E03FEE4BE499
:1036B0005DE40E94AF3087FF1AC06091550E709193
:1036C000560E8091570E9091580E0E945E3120E662
:1036D0003EEF4DE45DE40E94B43020E030E048EC81
:1036E00052E40E9413320E942D316093F80C26019F
:1036F000370130CF82B18F7C3DCFE42FF0E0EE0F69
:10370000FF1FE458F14F208131818091DA0E809FB4
:10371000C001112482179307B0F480917A0E882398
:1037200091F0808191810A9671F080E096EEAFED84
:10373000BCE08093550E9093560EA093570EB09315
:10374000580E3092F80C4F5F20CFE82FF0E0EE0FCC
:10375000FF1FE458F14F408151812091790E209F45
:10376000900111244217530750F41092550E1092F5
:10377000560E1092570E1092580E1092F80C8F5F42
:103780000ACF139A81B1896381B910924B0D0895C4
:103790000E94C11B91E090935F0D80B182FB88274E
:1037A00080F9892780934B0D2091690D30916A0D26
:1037B0002630310521F4139880914B0DECCF139AEC
:1037C000EACF8EE390E09093910E8093900E86E482
:1037D00090E09093930E8093920E8BE290E0909302
:1037E000950E8093940E89E390E09093970E8093CA
:1037F000960E80E290E09093990E8093980E81E36C
:1038000090E090939B0E80939A0E8EE190E09093BF
:103810009D0E80939C0E87E79EEBAFE3BFE3809302
:103820000D0D90930E0DA0930F0DB093100D8AEA1D
:1038300091EFA2E3BFE38093110D9093120DA0933B
:10384000130DB093140D8FE892ECA5E5BFE38093C0
:10385000150D9093160DA093170DB093180D84E6D7
:103860009BE3AFE3BFE38093190D90931A0DA093F0
:103870001B0DB0931C0D8FE395E3AEE5BFE3809382
:103880001D0D90931E0DA0931F0DB093200D8CE481
:1038900097E3A9E4BFE38093210D9093220DA093B9
:1038A000230DB093240D8FE29DEDA4E6BFE380933A
:1038B000250D9093260DA093270DB093280D89E038
:1038C00090E00E94A7358093A20E8091A20E8823DB
:1038D00021F08091A20E8F3F59F467E089E090E0DB
:1038E0000E94AF3589E090E00E94A7358093A20E38
:1038F00081E08093D00E82E08093D10E83E08093AC
:10390000D20E84E08093D30E85E08093D40E88E0BD
:103910008093D60E89E08093D70E8AE08093D80EEC
:1039200084E090E00E94A73580937B0E80917B0E0F
:10393000882321F080917B0E8F3F59F468E284E068
:1039400090E00E94AF3584E090E00E94A73580931C
:103950007B0E8AE090E00E94A7358093790E8091DB
:10396000790E882321F08091790E8F3F59F46BE115
:103970008AE090E00E94AF358AE090E00E94A7358F
:103980008093790E83E090E00E94A7358093640DC8
:103990008091640D882321F08091640D8F3F59F44C
:1039A0006CE383E090E00E94AF3583E090E00E94FA
:1039B000A7358093640D8BE090E00E94A73580933B
:1039C000DA0E8091DA0E882321F08091DA0E8F3F93
:1039D00059F465E28BE090E00E94AF358BE090E017
:1039E0000E94A7358093790E8CE090E00E94A73565
:1039F0008093190E8091190E882321F08091190E61
:103A00008F3F59F461E08CE090E00E94AF358CE08C
:103A100090E00E94A7358093190E82E090E00E940A
:103A2000A7358093BE0D1092C00D1092C10D10925B
:103A3000C40D1092C30D1092C20DC0E0D0E0809171
:103A4000740E90E0C817D9070CF4C8C010926A0D24
:103A50001092690DC0E0D0E0FE01EE0FFF1FEF54A1
:103A6000F14F118210820E94B724FE01EE0FFF1F5A
:103A7000EE0FFF1FE353F34F6083718382839383C1
:103A80002196C530D10541F70E94681A8093F80C41
:103A90006091F80C70E080E090E00E945C3120E0E2
:103AA00030E048EC52E40E94B43020E63EEF4DE4B2
:103AB0005DE40E9413320E942D316093550E709385
:103AC000560E8093570E9093580E0E94841A04E06D
:103AD00010E086E0E82EF12CCC24C394D12C23E016
:103AE000622E712C35E0A32EB12C42E0842E912C55
:103AF000C1E0BAE04B2ED4E65D2ED2E0C093600D5B
:103B00000E94841A60E08091740E681708F47BC0EC
:103B10008091530E9091540E81349145A4F01093EE
:103B20006A0D0093690DD0938F0DC093C00DD09393
:103B3000C10D8091530E9091540E9093C40D8093BB
:103B4000C30D1092C20D9091A20E8091740E981721
:103B5000A1F010936A0D0093690D83E080938F0D9F
:103B6000C093C00D8093C10D8091A20E90E0909300
:103B7000C40D8093C30D1092C20D8091BE0D8111B2
:103B800011C010936A0D0093690D84E080938F0D2E
:103B9000C093C00D8093C10D1092C40D1092C30D3F
:103BA0001092C20D8091690D90916A0D049709F4ED
:103BB00014C18091690D90916A0D8230910509F4CC
:103BC00007C108F06DC0009709F47DC0019709F4A2
:103BD000F0C010936A0D0093690D9AC0FE01ED5C70
:103BE000F24F80810E94FC039E01220F331FF901D6
:103BF000ED55F14F71836083F901E559F24F9183DF
:103C0000808321961CCF862F90E0880F991FFC019E
:103C1000E25BF24F408151812091640D249D90011F
:103C2000112424173507B8F4208131812C33334E09
:103C300091F010936A0D0093690D10928F0DC0934F
:103C4000C00D1092C10D208131813093C40D20939D
:103C5000C30D6093C20DFC01E458F14F2081318106
:103C600080917B0E859DC001112482179307B0F4CB
:103C7000808191810A9691F010936A0D0093690DED
:103C8000C0938F0DC093C00DC093C10D80819181F1
:103C90009093C40D8093C30D6093C20D6F5F33CFBB
:103CA0008530910509F47FC086309105B9F00397FE
:103CB00009F08FCF80911E0E882359F08091F80C67
:103CC000811126C00FC068EC70E080E090E00E9497
:103CD0001D25F0926A0DE092690D1AC08091F80CD2
:103CE000811105C0B0926A0DA092690D11C080913A
:103CF0007A0E882329F0D0926A0DC092690D08C00F
:103D000080911E0E882321F070926A0D6092690DD9
:103D10002091B10E3091B20E8091690D90916A0D93
:103D20002817390709F4EACE84E090E09C0121507D
:103D30003109F901EE0FFF1FEF54F14F408151811E
:103D4000FC01EE0FFF1FEF54F14F51834083F90147
:103D5000EE0FFF1FEE0FFF1FE353F34F4081518122
:103D600062817381880F991F880F991FFC01E353AB
:103D7000F34F4083518362837383C9010097B1F687
:103D80008091690D90916A0D9093B20E8093B10E5F
:103D90000E94B7246093CD0C7093CE0C8093CF0C0F
:103DA0009093D00CA5CE80917A0E882309F4B0CFE1
:103DB000A2CF80917A0E882309F48BCF8091F80CE2
:103DC000843608F4A5CF90926A0D8092690DA0CF39
:103DD00080917A0E81119CCF7CCF1092C00D26E08D
:103DE00030E0A0E08091740EA817D8F18091530EB6
:103DF0009091540E8134914534F0D0938F0DC0933F
:103E0000C00D24E030E09091A20E8091740E9817BE
:103E100091F083E080938F0DC093C00D8093C10D0E
:103E20008091A20E90E09093C40D8093C30D1092E8
:103E3000C20D24E030E08091BE0D81110DC0C09311
:103E4000C00D84E08093C10D1092C40D1092C30D7B
:103E50001092C20D24E030E030936A0D2093690D7A
:103E600057CF8A2F90E0880F991FFC01E25BF24F39
:103E7000608171814091640D449DA0011124461719
:103E8000570758F4408151814C33534E31F0109212
:103E90008F0DC093C00D24E030E0FC01E458F14FD9
:103EA0008081918140917B0E459DA001112448178E
:103EB000590750F4808191810A9631F0C0938F0D9B
:103EC000C093C00D24E030E0AF5F8CCF87B183603A
:103ED00087B908950E94661FC1E0C093610D80916B
:103EE000690D90916A0D049781F4419A409A69E1B5
:103EF00070E080E090E00E941D25409869E170E04C
:103F000080E090E00E941D25E8CF4198EFCFAF926E
:103F1000BF92CF92DF92EF92FF920F931F93CF93B6
:103F2000DF93C9E0D1E0AB84BC84CD84DE84E98436
:103F3000FA840D811E812F8138854B815C816A81D5
:103F4000888199810E942721811105C02F9691E0D7
:103F5000C039D90741F7DF91CF911F910F91FF90A1
:103F6000EF90DF90CF90BF90AF9008952F923F9247
:103F70004F925F926F927F928F929F92AF92BF9279
:103F8000CF92DF92EF92FF920F931F93CF93DF9325
:103F90000DB71EB7C82FD92F08831983C62FD72F67
:103FA000088119810DBF1EBFDF91CF911F910F9125
:103FB000FF90EF90DF90CF90BF90AF909F908F9049
:103FC0007F906F905F904F903F902F900895C82FF3
:103FD000D92F088119810DBF1EBFDF91CF911F918D
:103FE0000F91FF90EF90DF90CF90BF90AF909F9098
:103FF0008F907F906F905F904F903F902F9018958B
:10400000FFCF8091A80C9091A90C01969093A90CD8
:104010008093A80C08958091A80C9091A90C892BED
:1040200029F48091BB0C9091BC0C089580E090E045
:104030000895CF93DF93FB01009759F1309749F131
:10404000DC01CD91DC91DE019E01109731F11296D9
:104050005C91129742814517B0F4CA17DB0739F516
:10406000DC01ED93FC9312861186D487C387FA870F
:10407000E98780E00FC03287218714861386E90123
:10408000FC87EB87F6CF9D011B960D90BC91A02D70
:10409000DCCF89ECDF91CF910895CD2B61F7DC0166
:1040A000ED93FC931286118614861386E2CF328735
:1040B0002187B487A387E901FC87EB871A96FC93D5
:1040C000EE931997D6CFCF93DF930097C1F0DC0121
:1040D000ED91FC91309779F0A385B485EC01B9831B
:1040E000A883109721F01A961C921E921997128697
:1040F000118614861386CF01DF91CF910895E0E0F9
:10410000F0E0F9CFCF93DF93AC01FB010097A9F169
:10411000DC012D913C912115310579F1D901E9019D
:10412000EA17FB0709F5A385B4852E173F0789F425
:10413000EA01B983A883109721F01A961C921E9267
:1041400019971486138612861186CF01DF91CF91BD
:104150000895BC87AB87A385B485109791F31A9611
:10416000DC93CE931997EDCF1B968D919C911C9764
:10417000ED01009759F3DC01D3CF80E090E0E6CF6A
:10418000CF93DF930097C9F0DC01ED91FC9130975C
:1041900081F02281621788F0A385B485EC01B98390
:1041A000A883109731F01A961C921E9219971486C4
:1041B0001386CF01DF91CF910895E0E0F0E0F9CFD1
:1041C000FF920F931F93CF93DF939091A50C9923A8
:1041D000D1F0FFB6F894C091BB0CD091BC0C9D857A
:1041E0009130B9F486EA9CE00E946320C817D90791
:1041F00041F09093BC0C8093BB0CBC01CE010E949B
:10420000B61F1D86FFBEDF91CF911F910F91FF90CA
:1042100008956A818130A9F486EA9CE00E94C0205A
:104220008C01892B79F3BE0186EA9CE00E9419205B
:10423000C017D10731F31093BC0C0093BB0CB8012D
:10424000DDCF6623F9F270E061507109E5CFAF92DE
:10425000BF92CF92DF92EF92FF920F931F93CF9373
:10426000DF93EC01009709F43FC041155105E1F1DE
:10427000E114F104C9F1AB28AC28AD28A9F11D86E1
:104280006A831A8619861C861B86188A1F865C8399
:104290004B830D831E832F833887B7010E946328C9
:1042A0001FB7F894BE0186EA9CE00E941920C82F2F
:1042B0001FBF882369F0CCEC8C2FDF91CF911F9129
:1042C0000F91FF90EF90DF90CF90BF90AF90089547
:1042D0008091A50C813081F70E940B20892B61F31E
:1042E00080E00E94E020E8CFC9ECE6CFAF92BF9219
:1042F000CF92DF92EF92FF920F931F931092BC0C1C
:104300001092BB0C1092A70C1092A60C1092A50C48
:104310005A016B017C0100E010E0980140E050E29E
:104320006FEF8AEA9CE00E9427211F910F91FF9076
:10433000EF90DF90CF90BF90AF9008952091A80CA0
:104340003091A90C215031093093A90C2093A80C6D
:104350000C94E02081E08093A50C6FEF86EA9CE04E
:104360000E94C020009731F09093BC0C8093BB0C4E
:104370000C94E71F08951F93CF93DF93EC01892BD3
:10438000A1F01FB7F8946881798182E0FB018687EC
:10439000108A17868A819B810E9482206881798198
:1043A00086EA9CE00E9419201FBFDF91CF911F91E8
:1043B0000895009731F0FC0162831182108280E041
:1043C000089589EC0895DF92EF92FF920F931F9367
:1043D000CF93DF937C01892BD1F100E08AECD82EBA
:1043E0001FB7F894C7010E946320EC01009761F1A8
:1043F000DE86BC0186EA9CE00E9419208823A1F099
:104400001FBFCCEC013039F40E940B20892B19F02E
:1044100080E00E94E0208C2FDF91CF911F910F91BF
:10442000FF90EF90DF9008958F859889009749F06D
:104430000E948D24882319F01FBFCDECE3CF188A8A
:104440001F861FBF01E0CCCF1FBFC0E0DBCFC9EC90
:10445000E2CF8F929F92AF92BF92DF92EF92FF9244
:104460000F931F93CF93DF93CDB7DEB72E970FB681
:10447000F894DEBF0FBECDBF7C014A015B010097FF
:1044800009F468C0DFB6F894FC01828181115CC038
:1044900077FD57C00E940B208C01009709F44EC095
:1044A000BC01C7010E9419208823A1F0DFBE8CEC5B
:1044B0002E960FB6F894DEBF0FBECDBFDF91CF9121
:1044C0001F910F91FF90EF90DF90BF90AF909F9062
:1044D0008F90089591E0F801958781149104A104CB
:1044E000B10441F11C870B87FE86ED868BEB91E2D0
:1044F0009A838983CE010B969C838B838D829E82C7
:10450000AF82B8860A97908B87870E946824882399
:1045100049F0B801C7010E948220F8011586108A6F
:1045200017868DECDFBE8111C3CF0E94E020F80119
:104530008685BECFF801108A1786F4CFDFBE88ECDF
:10454000B7CFDFBE83E0B4CF8150F7018283DFBEF7
:1045500080E0AECF89ECACCF0F931F93CF93DF9366
:104560000097E9F1DFB7F894FC0120813181232B1A
:1045700059F10E9463208C01BC0186EA9CE00E94F4
:104580001920C82F882341F0DFBFCCEC8C2FDF919E
:10459000CF911F910F910895F80116868785908914
:1045A000009761F4F801108A1786DFBF0E940B2084
:1045B000892B61F380E00E94E020E8CF0E948D24E7
:1045C000882381F3CDECF1CFFC0122812F3F29F02C
:1045D0002F5F2283C0E0DFBFD9CFCBECFCCFC9EC8B
:1045E000D5CF009721F0FC01628380E0089589EC2B
:1045F00008951F93CF93DF93EC01892BA1F01FB790
:10460000F8946881798182E0FB018687108A178699
:104610008A819B810E9482206881798186EA9CE060
:104620000E9419201FBFDF91CF911F910895FC01B7
:10463000892B39F01382128214821182108280E059
:10464000089589EC0895DF92EF92FF920F931F93E4
:10465000CF93DF937C01892BD1F100E08AECD82E37
:104660001FB7F894C7010E946320EC01009761F125
:10467000DE86BC0186EA9CE00E9419208823A1F016
:104680001FBFCCEC013039F40E940B20892B19F0AC
:1046900080E00E94E0208C2FDF91CF911F910F913D
:1046A000FF90EF90DF9008958F859889009749F0EB
:1046B0000E948D24882319F01FBFCDECE3CF188A08
:1046C0001F861FBF01E0CCCF1FBFC0E0DBCFC9EC0E
:1046D000E2CF8F929F92AF92BF92DF92EF92FF92C2
:1046E0000F931F93CF93DF93CDB7DEB72E970FB6FF
:1046F000F894DEBF0FBECDBF7C014A015B01892B60
:1047000009F47DC00E940B208C01DFB6F89400975D
:10471000A1F4DFBE88EC2E960FB6F894DEBF0FBE74
:10472000CDBFDF91CF911F910F91FF90EF90DF9060
:10473000BF90AF909F908F900895F70122813381B1
:104740002115310509F44CC08217930709F448C0BC
:10475000B7FC43C0BC01C7010E941920882319F08F
:10476000DFBE8CECD8CF91E0F801958781149104DD
:10477000A104B10471F11C870B87FE86ED8689EFD9
:1047800092E29A838983CE010B969C838B838D82E0
:104790009E82AF82B8860A97908B87870E94682492
:1047A000882349F0B801C7010E948220F8011586CC
:1047B000108A17868DECDFBE8111ADCF0E94E020FC
:1047C000F80186858111A7CFF70194819F5F9483BB
:1047D000A2CFF801108A1786EECFDFBE83E09BCF11
:1047E000F70184818F3F41F08F5F8483232B11F485
:1047F0001383028380E001C08BECDFBE8CCF89EC99
:104800008ACFEF92FF920F931F93CF93DF938C0188
:10481000892B09F44CC00E940B20DFB7F894F801F3
:10482000228133818217930751F0DFBFCFEC8C2FA9
:10483000DF91CF911F910F91FF90EF900895F801B4
:10484000C481C150C483C1112FC0138212828081E0
:104850009181892B39F1C8010E9463207C01BC0140
:1048600086EA9CE00E941920C82F882319F0DFBF38
:10487000CCECDDCFF7011686F801F382E282F70176
:1048800087859089009741F4F701108A1786DFBF6A
:1048900080E00E94E020CBCF0E948D248823A1F3EA
:1048A000CDECF5CFDFBFC3CFDFBFC0E0C0CFC9ECD9
:1048B000BECFCF93009751F0CFB7F894FC01608141
:1048C000718186EA9CE00E941920CFBFCF910895A4
:1048D000FC01892B01F180819181892BE1F0848198
:1048E0009581A681B781892B8A2B8B2BA1F02FB7BD
:1048F000F8948091C10C9091C20C009749F41186F4
:104900001086F093C20CE093C10C2FBF80E0089595
:1049100091878087F6CF89EC0895BC01892B29F116
:104920005FB7F8942091C10C3091C20CF901D90104
:10493000309711F48EEC0DC040859185E617F7078E
:1049400081F4E217F30739F44093C10C9093C20C41
:1049500080E05FBF089518964C93189719969C9322
:10496000F7CFDF01E42FF92FE3CF89EC08956091B1
:10497000BD0C7091BE0C8091BF0C9091C00C08953D
:104980006093BD0C7093BE0C8093BF0C9093C00CD1
:1049900008950F931F93CF93DF938091A50C8823E5
:1049A000D1F08091BD0C9091BE0CA091BF0CB09144
:1049B000C00C0196A11DB11D8093BD0C9093BE0C3F
:1049C000A093BF0CB093C00C0091C10C1091C20C0D
:1049D000E801209729F4DF91CF911F910F9108955D
:1049E0008C819D81AE81BF810197A109B1098C8322
:1049F0009D83AE83BF83892B8A2B8B2BE1F420917F
:104A0000C10C3091C20C88859985C217D30779F4FF
:104A10009093C20C8093C10CE881F981309719F012
:104A20008A819B8109950884D985C02DD2CFF80150
:104A300091878087F1CF8E01F6CFCF92DF92EF92F0
:104A4000FF920F931F93CF93DF93CDB7DEB72C97D1
:104A50000FB6F894DEBF0FBECDBF6B017C010E9484
:104A60000B20FC01C114D104E104F10491F1892B64
:104A700091F10FB7F89481E08587FC87EB8789E592
:104A800094E29A838983CE010B969C838B83CD829B
:104A9000DE82EF82F8860A97908B87870E946824CF
:104AA000182F0FBF882389F01DEC812F2C960FB68D
:104AB000F894DEBF0FBECDBFDF91CF911F910F9154
:104AC000FF90EF90DF90CF90089580E00E94E0206B
:104AD000ECCF19ECEACF18ECE8CF1F93CF93DF931C
:104AE000EC01892BA1F01FB7F8946881798182E0ED
:104AF000FB018687108A17868C819D810E94822007
:104B00006881798186EA9CE00E9419201FBFDF91AD
:104B1000CF911F910895CF92DF92EF92FF920F9362
:104B20001F93CF93DF93EC01CB016C817D812A89A8
:104B30003B89620F731F4E815F810E9480322E81FC
:104B40003F8148855985CA88DB88EC88FD88C20E7C
:104B5000D31EE41EF51ECA8ADB8AEC8AFD8A8E8982
:104B60009F89A88DB98D0197A109B1098E8B9F8B63
:104B7000A88FB98F6A857B858C859D850E948C2F37
:104B8000C616D706E806F90620F01A8A1B8A1C8A80
:104B90001D8ACE010E9463208C01009709F1BC019F
:104BA00086EA9CE00E941920C82F81111BC0F801E1
:104BB000168687859089009769F4F801108A178610
:104BC0008C2FDF91CF911F910F91FF90EF90DF908D
:104BD000CF9008950E948D24882379F3CDECF0CFF7
:104BE000C0E0EECFCCECECCFCF92DF92EF92FF9211
:104BF0000F931F93CF93DF93EC012C813D818E8522
:104C00009F854E815F81820F931F0E9480322E818B
:104C10003F8148855985CE84DF84E888F988C20EB3
:104C2000D31EE41EF51ECE86DF86E88AF98A8E89B9
:104C30009F89A88DB98D0196A11DB11D8E8B9F8B6B
:104C4000A88FB98F6A857B858C859D850E948C2F66
:104C5000C616D706E806F90620F01E861F86188AB3
:104C6000198ACE0102960E9463208C01009709F1F7
:104C7000BC0186EA9CE00E941920C82F81111BC04C
:104C8000F801168687859089009769F4F801108AE3
:104C900017868C2FDF91CF911F910F91FF90EF908E
:104CA000DF90CF9008950E948D24882379F3CDEC76
:104CB000F0CFC0E0EECFCCECECCFEF92FF920F93B1
:104CC0001F93FC01892B69F16115710551F12115C3
:104CD00031054105510529F1E114F10401051105E2
:104CE00001F1758364832683378340875187E28689
:104CF000F38604871587118210821382128216862A
:104D00001786108A118A128A138A148A158A168ABB
:104D1000178A108E118E80E01F910F91FF90EF90F7
:104D2000089589ECF9CFBF92CF92DF92EF92FF9274
:104D30000F931F93CF93DF937C01009709F446C034
:104D400000E06C0182E0C80ED11C8AECB82E1FB7BF
:104D5000F894C6010E946320EC01892B31F4C7014D
:104D60000E946320EC01892B71F1BE86BE0186EAA8
:104D70009CE00E9419208823B1F01FBFCCEC0130C9
:104D800039F40E940B20892B19F080E00E94E0206A
:104D90008C2FDF91CF911F910F91FF90EF90DF90BB
:104DA000CF90BF9008958F859889009749F00E9411
:104DB0008D24882319F01FBFCDECE1CF188A1F8600
:104DC0001FBF01E0C4CF1FBFC0E0D9CFC9ECE0CF07
:104DD0004F925F926F927F928F929F92AF92BF920B
:104DE000CF92DF92EF92FF920F931F93CF93DF93B7
:104DF000CDB7DEB760970FB6F894DEBF0FBECDBF5C
:104E00006C012A013B015901009709F494C0211556
:104E1000310509F490C00FB7F894FC018689978991
:104E2000A08DB18D892B8A2B8B2B09F076C077FD55
:104E300071C00E940B207C01009709F468C04601F4
:104E4000F2E08F0E911CBC01C4010E941920182FA2
:104E500081115AC081E0F701858741145104610432
:104E6000710409F44DC0FC86EB86DE86CD86988AF7
:104E70008F868DE695E29A838983CE010B969C837B
:104E80008B834D825E826F8278860A97908B8787AC
:104E90000E946824182F882349F0B701C4010E949A
:104EA0008220F7011586108A17861DEC0FBF11119D
:104EB0000FC080E00E94E020F7011685111108C0A4
:104EC0000FB7F894B501C6010E948B25182F0FBFAC
:104ED000812F60960FB6F894DEBF0FBECDBFDF9175
:104EE000CF911F910F91FF90EF90DF90CF90BF90E7
:104EF000AF909F908F907F906F905F904F900895AC
:104F0000F701108A1786D2CF0FBF1CECE1CF0FBF7D
:104F100018ECDECF0FBF13E0DBCFB901C6010E9452
:104F20008B25182F0FBF0E940B20892B89F280E060
:104F30000E94E020CDCF19ECCBCF4F925F926F92C1
:104F40007F92AF92BF92CF92DF92EF92FF920F9338
:104F50001F93CF93DF93CDB7DEB760970FB6F8946A
:104F6000DEBF0FBECDBF6C012A013B015901009786
:104F700009F493C02115310509F48FC00FB7F894D7
:104F8000FC0146895789608D718D82859385A48542
:104F9000B585481759076A077B0709F070C077FC89
:104FA0006BC00E940B207C01009709F462C0BC0119
:104FB000C6010E941920182F811158C081E0F70105
:104FC0008587411451046104710409F44BC0FC86C7
:104FD000EB86DE86CD86D88ACF868DE695E29A83EB
:104FE0008983CE010B969C838B834D825E826F8278
:104FF00078860A97908B87870E946824182F8823C9
:1050000049F0B701C6010E948220F7011586108A77
:1050100017861DEC0FBF11110FC080E00E94E02029
:10502000F7011685111108C00FB7F894B501C60134
:105030000E94F425182F0FBF812F60960FB6F894A9
:10504000DEBF0FBECDBFDF91CF911F910F91FF90BB
:10505000EF90DF90CF90BF90AF907F906F905F9078
:105060004F900895F701108A1786D4CF0FBF1CEC1C
:10507000E3CF0FBF18ECE0CF0FBF13E0DDCFB901D6
:10508000C6010E94F425182F0FBF0E940B20892B08
:1050900099F280E00E94E020CFCF19ECCDCF0E94A2
:1050A0000B207894009771F0DC011396ED91FC9140
:1050B0001497309739F015966D917D918D919C9153
:1050C0001897099408952FE438E2FB012083319763
:1050D0003083319710823197108231971082319747
:1050E0001082319710823197108231971082319758
:1050F0001082319710823197108231971082319748
:105100001082319710823197108231971082319737
:105110001082319710823197108264517109FC011D
:1051200071836083089586E891E09093890080936D
:10513000880082E080936F008CE080938100089566
:105140001F920F920FB60F9211240BB60F922F934E
:105150003F934F935F936F937F938F939F93AF93FF
:10516000BF93EF93FF930E9401200E94C92481E026
:105170000E949E21FF91EF91BF91AF919F918F91DE
:105180007F916F915F914F913F912F910F900BBE47
:105190000F900FBE0F901F9018951F920F920FB691
:1051A0000F9211240F900FBE0F901F9018958AE256
:1051B0008093B8008FEF8093BB0084E08093BC00A5
:1051C00008958091BC00817008958091BC0080FD9D
:1051D000FCCF8091000108952091BC0020FDFCCF00
:1051E0006093C50CFC0120812093C60C20FF09C0F0
:1051F0001092C30C88EF8093000185EA8093BC0075
:105200000895FC013196A7ECBCE081E0861780F799
:1052100091919D938F5FFACF8091BC0080FDFCCF70
:105220001092C30C88EF8093000185EA8093BC0044
:1052300008952091BC0020FDFCCF2091C30C20FDDF
:1052400004C08091C30C81700895A6ECBCE0282FA7
:10525000FC018E2F821B8617A0F78D918193F9CFC9
:105260001F920F920FB60F9211240BB60F922F932D
:105270003F938F939F93EF93FF938091B900883270
:1052800049F0D0F4803121F0883121F08830D1F418
:105290001092C40CE091C40C8091C50CE81720F565
:1052A00081E08E0F8093C40CF0E0EA53F34F8081CD
:1052B0008093BB0085E836C0803449F148F48833D8
:1052C00009F43FC08091B9008093000184E02AC0B6
:1052D000803589F08835B1F78091BB00E091C40C2E
:1052E000F0E0EA53F34F80838091C30C8160809398
:1052F000C30C84E917C0E091C40C81E08E0F809349
:10530000C40C8091BB00F0E0EA53F34F80832091FE
:10531000C40C30E08091C50C90E001972817390744
:105320004CF685EC8093BC00FF91EF919F918F919B
:105330003F912F910F900BBE0F900FBE0F901F90BB
:10534000189585EAEFCF0E945B2F882341F00E94D9
:10535000122F8091D80082608093D80081E0089558
:105360000F931F93CF93DF9300D000D0CDB7DEB75C
:105370008C01DC0111968D919C9112970C97F1F4A0
:105380001A968C911A97803669F48C918295807F59
:105390008093ED008091EF008F738093EF00109267
:1053A000EE001C92F801128680E00F900F900F9093
:1053B0000F90DF91CF911F910F9108950E941F2FA1
:1053C0008F3F09F4A4C490E6D8011A969C931A97CB
:1053D0008C938295807F8093ED00EEEEF0E0119249
:1053E000E83FF105E1F7D8011196ED91FC91129794
:1053F0003197EB30F10508F086C4EF5FF54D0C9462
:105400001F304A2AB32A212B842BB62BEE2B292CB2
:10541000BF2C3D2D0C2AE02D80E0F80197818917E3
:1054200008F4C2C319821A821B821C821092F700F0
:105430008B81880F880F880F9A8192959695977027
:10544000890F8093F6008A81880F880F880F9981D1
:10545000929596959770890F8093F5008981880FB2
:10546000880F880F8093F4008091EF009781892B3B
:105470008093EF0081E083878091F40084608093C3
:10548000F4008091F00084608093F0008091EF0040
:105490008062DCC1F8018485882309F43FC08681DD
:1054A000880F880F880F9581929596959770890F30
:1054B0008093F3008581880F880F880F94819295DF
:1054C00096959770890F8093F2008481880F880FDA
:1054D000880F9381929596959770890F8093F1002C
:1054E0008381880F880F880F8093F0008091EF00F0
:1054F00080618093EF0080E0F8019781891718F1AF
:105500008385882361F18091F00084608093F000AE
:105510008091EF00D80117969C9164C08481829598
:10552000880F807E9381969596959695890F8093A6
:10553000F30083818295880F807E8093F2008091B2
:10554000EF008F7ED6CFD8011896ED91FC91199778
:10555000E80FF11D90819093FA008F5FCDCF80917D
:10556000F0008B7FD3CFF8018485882309F448C0ED
:105570008681880F880F880F9581929596959770F0
:10558000890F8093F3008581880F880F880F94819D
:10559000929596959770890F8093F2008481880F79
:1055A000880F880F9381929596959770890F8093B5
:1055B000F1008381880F880F880F8093F00080911D
:1055C000EF0080618093EF0080E0F80197818917F8
:1055D00060F113868091F0008B7F8093F0008091C2
:1055E000EF009781892B8093EF008091EF008F73FC
:1055F0008093EF008091EF0080648093EF00D4CE21
:1056000084818295880F807E938196959695969554
:10561000890F8093F30083818295880F807E809329
:10562000F2008091EF008F7ECDCFD8011896ED91DA
:10563000FC911997E80FF11D90819093FA008F5F0C
:10564000C4CFD8011C968C911C97882309F446C0BE
:1056500016968C911697880F880F880F15969C9137
:105660001597929596959770890F8093F3001596EC
:105670008C911597880F880F880F14969C9114971A
:10568000929596959770890F8093F20014968C915D
:105690001497880F880F880F13969C9113979295F3
:1056A00096959770890F8093F10013968C91880FCF
:1056B000880F880F8093F0008091EF0080618093C5
:1056C000EF0081E0D8011B968C931B978091F0002E
:1056D00084608093F0008091EF001DCFF8018481F9
:1056E0008295880F807E9381969596959695890FE1
:1056F0008093F30083818295880F807E8093F200EF
:105700008091EF008F7EDBCF19821A821B821C8270
:105710001092F7008B81880F880F880F9A819295DD
:1057200096959770890F8093F6008A81880F880F6D
:10573000880F9981929596959770890F8093F500BF
:105740008981880F880F880F8093F4008091EF0083
:10575000F8019781892B8093EF008091F4008B7F73
:105760008093F4008091F4008E7FE8C019821A8241
:105770001B821C821092F7008B81880F880F880F84
:105780009A81929596959770890F8093F6008A81F9
:10579000880F880F880F9981929596959770890F39
:1057A0008093F5008981880F880F880F8093F4001B
:1057B0008091EF00D80117969C911797892B8093C1
:1057C000EF001B961C928091F40084608093F4009B
:1057D0008091F0008B7F8093F000C4CF19821A82F1
:1057E0001B821C821092F7008B81880F880F880F14
:1057F0009A81929596959770890F8093F6008A8189
:10580000880F880F880F9981929596959770890FC8
:105810008093F5008981880F880F880F8093F400AA
:105820008091EF00F8019781892B8093EF0081E050
:1058300083878091F40084608093F4008091F0006D
:1058400084608093F0008091EF008F7D8093EF0063
:1058500089CFD8011C968C911C97882309F479C0B4
:1058600016968C911697880F880F880F15969C9125
:105870001597929596959770890F8093F3001596DA
:105880008C911597880F880F880F14969C91149708
:10589000929596959770890F8093F20014968C914B
:1058A0001497880F880F880F13969C9113979295E1
:1058B00096959770890F8093F10013968C91880FBD
:1058C000880F880F8093F0008091EF0080618093B3
:1058D000EF008FEF9FEFDC0189839A83AB83BC835A
:1058E0008093F7008B81880F880F880F9A8192959B
:1058F00096959770890F8093F6008A81880F880F9C
:10590000880F9981929596959770890F8093F500ED
:105910008981880F880F880F8093F4008091EF00B1
:10592000D80117969C91892B8093EF008091F40009
:105930008B7F8093F4008091F40081608093F40069
:105940008091EF008F738093EF008091EF0080686B
:1059500054CEF80184818295880F807E938196953C
:1059600096959695890F8093F30083818295880F91
:10597000807E8093F2008091EF008F7EA8CFF801A7
:105980008485882309F464C08681880F880F880F76
:105990009581929596959770890F8093F3008581F4
:1059A000880F880F880F9481929596959770890F2C
:1059B0008093F2008481880F880F880F93819295DD
:1059C00096959770890F8093F1008381880F880FD7
:1059D000880F8093F0008091EF0080618093EF004A
:1059E0008FEF9FEFDC0189839A83AB83BC83809325
:1059F000F7008B81880F880F880F9A819295969572
:105A00009770890F8093F6008A81880F880F880F1E
:105A10009981929596959770890F8093F500898169
:105A2000880F880F880F8093F4008091EF00F801B1
:105A30009781892B8093EF0013868091F400846016
:105A40008093F4008091F0008B7F8093F00073CFFF
:105A500084818295880F807E938196959695969500
:105A6000890F8093F30083818295880F807E8093D5
:105A7000F2008091EF008F7EB1CFD8011C968C91FF
:105A80001C97882309F47AC016968C911697880F74
:105A9000880F880F15969C911597929596959770FB
:105AA000890F8093F30015968C911597880F880FB6
:105AB000880F14969C911497929596959770890FDC
:105AC0008093F20014968C911497880F880F880F9A
:105AD00013969C911397929596959770890F809342
