:100000000C944A000C9469000C9469000C946900EB
:100010000C9469000C9469000C9469000C946900BC
:100020000C9469000C9469000C9469000C946900AC
:100030000C9469250C9469000C9469000C94690077
:100040000C9469000C9469000C9469000C9469008C
:100050000C9469000C9469000C9469000C9469007C
:100060000C9469000C9469000C9469000C9469006C
:100070000C9469000C9469000C9469000C9469005C
:100080000C9469000C9469000C9469000C94F92597
:100090000C94690011241FBECFEFD0E1DEBFCDBFAD
:1000A00012E0A0E0B1E0EEE0F5E600E00BBF02C038
:1000B00007900D92A83BB107D9F72EE0A8EBB2E06C
:1000C00001C01D92A337B207E1F70E94372C0C94B0
:1000D00085320C949625CF93DF9300D000D0CDB716
:1000E000DEB71B821C8281E789831A8240E050E0E0
:1000F000BA018CE69EE00E94322062E0CE010196B9
:100100000E94B52562E0CE0103960E94E2258CE6AE
:100110009EE00E94CA208C8180FF0DC01092190EB3
:1001200083FF0DC01092BE0D0F900F900F900F9097
:10013000DF91CF91089591E09093190EF1CF81E076
:100140008093BE0DF1CFCF93DF9300D000D000D0CD
:10015000CDB7DEB78091010190910201A09103011A
:10016000B091040189839A83AB83BC8340E050E063
:10017000BA018CE69EE00E94322064E0CE01019636
:100180000E94B52580E98D831E8262E0CE0105962E
:100190000E94B5258CE69EE00E94CA2026960FB6E6
:1001A000F894DEBF0FBECDBFDF91CF910895CF93FE
:1001B000DF9300D000D000D0CDB7DEB7809105012D
:1001C00090910601A0910701B091080189839A835B
:1001D000AB83BC8340E050E0BA018CE69EE00E9415
:1001E000322064E0CE0101960E94B52588E88D8317
:1001F00081E08E831092F70C1092F60C62E0CE0133
:1002000005960E94B5258CE69EE00E94CA2026969F
:100210000FB6F894DEBF0FBECDBFDF91CF9108952A
:10022000CF93DF9300D0CDB7DEB788E8898381E034
:100230008A8340E050E0BA018CE69EE00E943220C2
:1002400062E0CE0101960E94B5258CE69EE00E94F8
:10025000CA200F900F90DF91CF9108951F93CF93F5
:10026000DF9300D000D000D0CDB7DEB70E941001E0
:1002700019E81C831D821E8240E050E0BA018CE622
:100280009EE00E94322063E0CE0104960E94B525D4
:1002900019831A821B8263E0CE0101960E94E22537
:1002A0008CE69EE00E94CA208A8190E0982F8827E1
:1002B0002B81820F911D26960FB6F894DEBF0FBEDC
:1002C000CDBFDF91CF911F910895CF93DF9300D0E1
:1002D000CDB7DEB788E8898382E08A8340E050E0CA
:1002E000BA018CE69EE00E94322062E0CE010196C7
:1002F0000E94B5258CE69EE00E94CA200F900F90C8
:10030000DF91CF9108951F93CF93DF9300D000D05A
:1003100000D0CDB7DEB70E94650119E81C831D82AD
:100320001E8240E050E0BA018CE69EE00E9432203E
:1003300063E0CE0104960E94B52519831A821B82C0
:1003400063E0CE0101960E94E2258CE69EE00E94C9
:10035000CA208A8190E0982F88272B81820F911DD7
:1003600026960FB6F894DEBF0FBECDBFDF91CF91BA
:100370001F9108951F93CF93DF9300D000D000D03A
:10038000CDB7DEB711E91C831D821E8240E050E02C
:10039000BA018CE69EE00E94322063E0CE01049612
:1003A0000E94B52519831A821B8263E0CE01019653
:1003B0000E94E2258CE69EE00E94CA208A8190E09D
:1003C000982F88272B81820F911D26960FB6F894BF
:1003D000DEBF0FBECDBFDF91CF911F910895CF93A8
:1003E000DF9300D0CDB7DEB780E789838BEF8A83B8
:1003F00040E050E0BA018CE69EE00E94322062E0CC
:10040000CE0101960E94B5258CE69EE00E94CA208E
:100410000F900F90DF91CF910895CF93DF9300D08D
:10042000CDB7DEB780E789838FEF8A8340E050E065
:10043000BA018CE69EE00E94322062E0CE01019675
:100440000E94B5258CE69EE00E94CA200F900F9076
:10045000DF91CF910895FF920F931F93CF93DF9376
:1004600000D000D01F92CDB7DEB7F82E162F042F84
:1004700040E050E0BA018CE69EE00E94322080E429
:100480008983612F6C60402F50E0440F551F8F2DE2
:10049000807F842B862B8A8328E02B8330E1F39E98
:1004A000C0011124642B682B6C832D8365E0CE0181
:1004B00001960E94B5258CE69EE00E94CA200F900E
:1004C0000F900F900F900F90DF91CF911F910F9190
:1004D000FF90089540E060E088E20E942B0240E037
:1004E00060E08EE00E942B0240E060E086E00C9429
:1004F0002B020F931F93CF93DF9300D000D0CDB783
:10050000DEB700E40B8318E01C8340E050E0BA0142
:100510008CE69EE00E94322062E0CE0103960E94AB
:10052000B52568E270E080E090E00E94E621098352
:100530008CE28A8362E0CE0101960E94B5251A837F
:1005400062E0CE0101960E94B5258CE69EE00E94F5
:10055000CA200E946A020F900F900F900F90DF91B7
:10056000CF911F910F910895CF93DF9300D0CDB716
:10057000DEB78091380D882369F040E060E088E0C4
:100580000E942B0280E489831A8262E0CE010196E8
:100590000E94B5251092380D0F900F90DF91CF91EA
:1005A00008950F931F93CF93DF93EC018C01060FF7
:1005B000111DC017D10729F4DF91CF911F910F9121
:1005C000089540E061E089910E942B02F2CFCF9321
:1005D000DF9300D0CDB7DEB7880F89831A8240E061
:1005E00050E0BA018CE69EE00E94322062E0CE012B
:1005F00001960E94B5258CE69EE00E94CA200F90CD
:100600000F90DF91CF910895CF93DF9300D0CDB7B6
:10061000DEB7880F898381E08A8340E050E0BA0129
:100620008CE69EE00E94322062E0CE0101960E949C
:10063000B5258CE69EE00E94CA200F900F90DF91B6
:10064000CF9108950F931F93CF93DF9300D000D0E5
:1006500000D0CDB7DEB7982F990F9C8390E39D8390
:1006600093E09E83880F816089831A821B8240E019
:1006700050E0BA018CE69EE00E94322063E0CE0199
:1006800004960E94B52563E0CE0101960E94B5252F
:1006900063E0CE0101960E94E2250A811B818CE66F
:1006A0009EE00E94CA20C80126960FB6F894DEBFCD
:1006B0000FBECDBFDF91CF911F910F910895CF93C2
:1006C0001092140E40E050E0BA018CE69EE00E94C9
:1006D0003220C1E080E98C0F8230A8F08C2F0E947C
:1006E0002203853A954A79F48091140E803158F4AA
:1006F000E091140EF0E0EA51F34FC0838091140EA4
:100700008F5F8093140ECF5FC03821F78CE69EE098
:10071000CF910C94CA200F931F93CF93DF93CDB743
:10072000DEB728970FB6F894DEBF0FBECDBF182FE7
:10073000880F8E8380E38F831886812F880F8160D6
:1007400089831A821B821C821D8240E050E0BA011C
:100750008CE69EE00E94322063E0CE0106960E9465
:10076000B52565E0CE0101960E94B52565E0CE0174
:1007700001960E94E22505E0812F0E942203853A1E
:10078000954AA1F58C8190E0982F88272D81820FC2
:10079000911D9093A30C8093A20C05E0812F0E94E1
:1007A0002203853A954A29F58A8190E0982F882777
:1007B0002B81820F911D9093E40C8093E30C8CE6C7
:1007C0009EE00E94CA206091E30C7091E40C80913D
:1007D000A20C9091A30C28960FB6F894DEBF0FBE22
:1007E000CDBFDF91CF911F910F910895015021F658
:1007F000D4CF015099F6E3CFEF92FF920F931F935E
:10080000CF93DF93CDB7DEB728970FB6F894DEBF4E
:100810000FBECDBF982F990F9E8390E39F8392E0E8
:100820009887880F816089831A821B821C821D82AF
:1008300040E050E0BA018CE69EE00E94322063E086
:10084000CE0106960E94B52565E0CE0101960E9474
:10085000B52565E0CE0101960E94E2250C811D813F
:10086000102701271027EA80FB80FE24EF24FE24B6
:100870008CE69EE00E94CA20B701C80128960FB6F8
:10088000F894DEBF0FBECDBFDF91CF911F910F91C6
:10089000FF90EF900895EF92FF920F931F93CF93E5
:1008A000DF93CDB7DEB728970FB6F894DEBF0FBE43
:1008B000CDBF982F990F9E8390E39F8391E09887F7
:1008C000880F816089831A821B821C821D8240E00E
:1008D00050E0BA018CE69EE00E94322063E0CE0137
:1008E00006960E94B52565E0CE0101960E94B525C9
:1008F00065E0CE0101960E94E2251D810C81FB80FE
:10090000EA808CE69EE00E94CA20B701C8012896C2
:100910000FB6F894DEBF0FBECDBFDF91CF911F9110
:100920000F91FF90EF9008951F93CF93DF9310E006
:10093000C12F012E000CDD0B8091140E90E0C81722
:10094000D90724F0DF91CF911F910895FE01EA515C
:10095000F34F80810E944B04FE01EE0FFF1FEE0F4C
:10096000FF1FE659F24F608371838283938361E0B6
:1009700070E080E090E00E94E6211F5FD9CF8CE616
:100980009EE00E94E01F0E94A02540E050E0BA01D6
:100990008CE69EE00E9432200E945F030E940D02BE
:1009A00064E670E080E090E00E94E6210E949404FA
:1009B0008CE69EE00C94CA2040E060E080E80E9453
:1009C0002B020E946A0264E183E29DE00E94D10250
:1009D00064E18AEA9DE00E94D10264E18CEA9CE035
:1009E0000E94D10264E188E59EE00C94D10284E18A
:1009F000E0E9F1E0A1E5BDE001900D928A95E1F713
:100A000084E1E0E9F1E0A8ECBDE001900D928A9567
:100A1000E1F784E1E0E9F1E0ABEFBDE001900D9298
:100A20008A95E1F784E1E0E9F1E0AFEDBDE0019006
:100A30000D928A95E1F708954F925F926F927F929F
:100A40008F929F92AF92BF92CF92DF92EF92FF92DE
:100A50001F93CF93DF93CDB7DEB728970FB6F894E7
:100A6000DEBF0FBECDBF0E94F70486E0E7ECF1E0E9
:100A7000A1E5BDE001900D928A95E1F784E0EEECEE
:100A8000F1E0ADE5BDE001900D928A95E1F785E2D8
:100A90008093640D86E59AE39093C90D8093C80D09
:100AA00081E49AE39093D00D8093CF0D86E0E3ED3F
:100AB000F1E0ABEFBDE001900D928A95E1F785E0A2
:100AC000EAEDF1E0A2E0BEE001900D928A95E1F737
:100AD0008DE49EE39093E00D8093DF0D8091130DE4
:100AE0009091140D8230910509F4F6C140F40097FD
:100AF00009F400C2019771F065EA71E00DC084301D
:100B0000910509F4EFC108F4EAC10697A9F763EC6F
:100B100071E002C06AEA71E0FB0101900020E9F790
:100B20003197AF01461B570B87E59DE00E94492F87
:100B300086E78093E10D80E38093E20D4EE24093DF
:100B4000E30D81E38093E40D86E38093E50D8091CE
:100B5000AB0C24E6622F0E94652C805D8093610DB2
:100B60008091AB0C0E94652C892F2AE0622F0E9495
:100B7000652C805D8093620D8091AB0C0E94652C8A
:100B8000905D9093630D8091F30D9091F40D64E668
:100B900070E00E94932C605D6093CA0D8091F30D0C
:100BA0009091F40D2AE030E0B9010E94932CCB0122
:100BB000B9010E94932C805D8093CB0D4093CC0DA6
:100BC0008091F30D9091F40DB9010E94932C805DFA
:100BD0008093CD0DC090F80CD090F90CE090FA0CF9
:100BE000F090FB0C6091F80C7091F90C8091FA0C6C
:100BF0009091FB0C0E94272E20E030E0A9010E947A
:100C0000782D87FF0CC08DE28093D10DC701B6010E
:100C10000E94272E90580E94EF2D6B017C01C70186
:100C2000B60120EA36E841E050E00E94C92C6AE0B3
:100C3000862E912CA12CB12CCA01B901A5019401D9
:100C40000E94C92C605D6093D20DC701B60120E1FE
:100C500037E240E050E00E94C92CCA01B901A50169
:100C600094010E94C92C605D6093D30DC701B60149
:100C700028EE33E040E050E00E94C92CCA01B901DF
:100C8000A50194010E94C92C605D6093D40D8EE291
:100C90008093D50DC701B60124E630E040E050E076
:100CA0000E94C92CCA01B901A50194010E94C92C56
:100CB000605D6093D60DC701B601A50194010E9445
:100CC000C92C162FCA01B901A50194010E94C92C93
:100CD000605D6093D70D80E3810F8093D80D809184
:100CE000FE0C882309F409C183E48093080E8CE488
:100CF0008093090E8FE480930A0E83E580930B0E98
:100D000085E480930C0E84E480930D0E0E94802174
:100D10006B017C0124E630E040E050E00E94A72C0B
:100D200029833A834B835C83C701B60120E737E10F
:100D300040E050E00E94A72C29013A01C701B6010A
:100D400020E43EE745E050E00E94A72C2D833E833F
:100D50004F8358878CE3882E912CA12CB12C69816C
:100D60007A818B819C81A50194010E94A72C6983C3
:100D70007A838B839C83C301B201A50194010E94F5
:100D8000A72C2B013C016D817E818F81988528E104
:100D900030E040E050E00E94A72C6D837E838F837B
:100DA00098879AE0892E912CA12CB12C69817A81A7
:100DB0008B819C81A50194010E94A72C605D6093AA
:100DC000F20D205D2093F10D1AE31093F00DC30195
:100DD000B201A50194010E94A72C605D6093EF0D04
:100DE000205D2093EE0D1093ED0D6D817E818F813E
:100DF0009885A50194010E94A72C605D6093EC0D7D
:100E0000205D2093EB0D1093EA0DC701B60120E0A1
:100E100036ED43E850E00E94A72CCA01B901A501B4
:100E200094010E94A72C605D6093E90DC701B60193
:100E300020E03CE546E255E00E94A72CCA01B9013A
:100E4000A50194010E94A72C605D6093E80DC70185
:100E5000B60120E038E94FE753E30E94A72C205D5C
:100E60002093E70D84E1E1E5FDE0A3E2BDE0019020
:100E70000D928A95E1F784E1E8ECFDE0AAEABDE095
:100E800001900D928A95E1F784E1EBEFFDE0ACEA89
:100E9000BCE001900D928A95E1F784E1EFEDFDE071
:100EA000A8E5BEE001900D928A95E1F728960FB66D
:100EB000F894DEBF0FBECDBFDF91CF911F91FF90A1
:100EC000EF90DF90CF90BF90AF909F908F907F90EA
:100ED0006F905F904F9008956FEA71E01DCE65EBC3
:100EE00071E01ACE8091660D805D80935B0D6AEB98
:100EF00071E012CE6EEB71E00FCE8FE48093080E9E
:100F000080E58093090E85E480930A0E8EE4809339
:100F10000B0E80E280930C0EF7CEAF92BF92CF9271
:100F2000DF92EF92FF920F931F93CF93DF93C82F1F
:100F30000E94F70486E0E7ECF1E0A1E5BDE0019056
:100F40000D928A95E1F708EC1DE093E4D8019C939B
:100F500080E38C0F11968C9311975FE512965C934A
:100F6000129726E513962C9313974AE314964C9305
:100F70002BEF3DE0F90190838183528354E5538345
:100F80004483AFEDBDE040E54C934FE211964C93A6
:100F9000119712969C93129713968C9313978EE346
:100FA00014968C93EC2FF0E0EE0FFF1FEF01C65E5E
:100FB000D14F8881998148EEE42E43E0F42EB701A9
:100FC0000E947F2C605DD80115966C9315974EE2B8
:100FD00016964C9388819981B7010E947F2C54E624
:100FE000A52EB12CB5010E947F2C605DD80117960B
:100FF0006C9388819981B7010E947F2CB5010E9472
:101000007F2C6AE0C62ED12CB6010E947F2C605D39
:10101000D80118966C9388819981B6010E947F2C23
:10102000805DD80119968C93EF5FF24F808191819A
:10103000B7010E947F2C605DD90115966C93808169
:101040009181B7010E947F2CB5010E947F2C605DC9
:10105000D90116966C9380819181B7010E947F2CF3
:10106000B5010E947F2CB6010E947F2C605DD901E2
:1010700017966C93179718964C9380819181B601BF
:101080000E947F2C805DF901818784E1E1E5FDE02C
:10109000A3E2BDE001900D928A95E1F784E1F801A9
:1010A000AAEABDE001900D928A95E1F784E1F90189
:1010B000ACEABCE001900D928A95E1F784E1EFED96
:1010C000FDE0A8E5BEE001900D928A95E1F7DF9181
:1010D000CF911F910F91FF90EF90DF90CF90BF9035
:1010E000AF900895AF92BF92CF92DF92EF92FF92AE
:1010F0000F931F93CF93DF93C82F0E94F70485E0CF
:10110000E0EEF1E0A1E5BDE001900D928A95E1F7F6
:1011100085E0E6EEF1E0ABE5BDE001900D928A9549
:10112000E1F785E0ECEEF1E0A8ECBDE001900D9276
:101130008A95E1F785E0E2EFF1E0ABEFBDE00190E9
:101140000D928A95E1F787E0E8EFF1E0A5E0BEE0D7
:1011500001900D928A95E1F783E0E0E0F2E0AFEDD7
:10116000BDE001900D928A95E1F780E38C0F8093AA
:10117000E20D83E0E4E0F2E0A3EEBDE001900D9229
:101180008A95E1F73FE0E32E3EE0F32E4FE3A42EF5
:101190004DE0B42EF501670180E2D6018D936D011B
:1011A0008193B4E1CB16BEE0DB06B9F7D0E08E0147
:1011B000000F111FF801E05CF14F808191814AE03E
:1011C0006FE07EE00E94522FF801EB5EF24F8081CB
:1011D00091814AE06FE37DE00E94522F80E2F701A7
:1011E0009081911101C08083D5019C91911101C022
:1011F0008C93BFEFEB1AFB0AEFEFAE1ABE0ACE14C8
:10120000DF0469F780910F0E8093CD0D8091100E51
:101210008093CE0D8091110E8093CF0D8091120E90
:101220008093D00D8091130E8093D10D80913F0D4E
:101230008093560D8091400D8093570D8091410D04
:101240008093580D8091420D8093590D8091430DEC
:1012500080935A0DF801E25DF14F8081918164E63F
:1012600070E00E947F2C2AE030E0B9010E947F2CC0
:10127000605D6093600D80819181B9010E947F2C37
:10128000805D8093610D8E01000F111F000F111FF3
:10129000C8018054934F7C01DC016D917D918D914B
:1012A0009C910E94EF2D605D6093D70D8EE280933C
:1012B000D80DF701608171818281938120E030E057
:1012C00040E251E40E94DC2E0E94EF2D862F9AE02E
:1012D000D92E6D2D0E94712C905D9093D90DD70160
:1012E0006D917D918D919C9120E030E048EC52E42D
:1012F0000E94DC2E0E94EF2D862F6D2D0E94712CF6
:10130000905D9093DA0DF701608171818281938104
:1013100020E030E04AE754E40E94DC2E0E94EF2DEA
:10132000862F6D2D0E94712C97FD7BC0F701808167
:101330009181A281B381608171818281938120E05A
:1013400030E04AE754E40E94DC2E0E94EF2D862F05
:101350006D2D0E94712C905D9093DB0DCA51D34F7F
:1013600088811F928F938AE092E09F938F938CEDF8
:101370009CE09F938F930E94772F8091DC0C809349
:101380000C0E8091DD0C80930D0E8091DE0C80930D
:101390000E0EF801E659F24F8081805D8093000EB9
:1013A0008181805D8093010E8281805D8093020E39
:1013B0008381805D8093030E84E1E1E5FDE0A3E29B
:1013C000BDE001900D928A95E1F784E1E8ECFDE043
:1013D000AAEABDE001900D928A95E1F784E1EBEF76
:1013E000FDE0ACEABCE001900D928A95E1F784E162
:1013F000EFEDFDE0A8E5BEE001900D928A95E1F7E2
:101400000F900F900F900F900F900F90DF91CF9152
:101410001F910F91FF90EF90DF90CF90BF90AF9012
:10142000089580E28093DB0D99CFEF92FF920F93A6
:101430001F93CF93DF930E94F70423E52093510D70
:1014400095E49093520D84E58093530D30E53093ED
:10145000550D31E43093560D33E43093570D3BE492
:101460003093580D39E430935A0D34E430935B0DCA
:1014700037E0EFE0F2E0A8ECBDE001900D923A9584
:10148000E1F78093D00D3FE43093D10D46E0E7E1E2
:10149000F2E0A3EDBDE001900D924A95E1F745E041
:1014A000EEE1F2E0ABEFBDE001900D924A95E1F77D
:1014B0008093010E3093020E2093040E9093050E3C
:1014C0008093060E85E0E4E2F2E0AFEDBDE001902E
:1014D0000D928A95E1F784E0EAE2F2E0AAEEBDE03F
:1014E00001900D928A95E1F784E1E1E5FDE0A3E248
:1014F000BDE001900D928A95E1F784E1E8ECFDE012
:10150000AAEABDE001900D928A95E1F784E1EBEF44
:10151000FDE0ACEABCE001900D928A95E1F784E130
:10152000EFEDFDE0A8E5BEE001900D928A95E1F7B0
:101530006AE070E080E090E00E94E6218091E50C96
:1015400080937F0C8091E50C1F928F93CFE2D2E0C5
:10155000DF93CF938CE29EE09F938F930E94772F2F
:1015600080917F0C1F928F93DF93CF938CED9DE042
:101570009F938F930E94772F81E08093BF0D8DB74B
:101580009EB70C960FB6F8949EBF0FBE8DBF0CEDA4
:101590001DE08FE7F82EEE24E39480913E0E882321
:1015A00009F4CCC08091BF0D8F5F8093BF0D8091F7
:1015B000BF0D80937F0C80917F0C803831F4E092D6
:1015C000BF0D8091BF0D80937F0C80917F0C1F9287
:1015D0008F93DF93CF931F930F930E94772F1092D7
:1015E0003E0E0F900F900F900F900F900F908091E4
:1015F0002C0E8093E60D80912D0E8093E70D809147
:10160000DC0D8093EF0D8091DD0D8093F00D84E172
:10161000E1E5FDE0A3E2BDE001900D928A95E1F7DE
:1016200084E1E8ECFDE0AAEABDE001900D928A9524
:10163000E1F784E1EBEFFDE0ACEABCE001900D9254
:101640008A95E1F784E1EFEDFDE0A8E5BEE00190C9
:101650000D928A95E1F71899A0CF60917F0C88E0F0
:1016600090E00E94783288E090E00E94703280938F
:10167000E50C80E58093510D81E48093520D83E465
:101680008093530D8BE48093540D80E28093550D2D
:1016900099E49093560D94E49093570D8093580DD0
:1016A00093E59093590D95E490935A0D94E590939A
:1016B0005B0D91E290935C0D80935D0D80935E0DC8
:1016C00080935F0D8093600D8093610D8093620D18
:1016D0008093630D8093640D84E1E1E5FDE0A3E276
:1016E000BDE001900D928A95E1F784E1E8ECFDE020
:1016F000AAEABDE001900D928A95E1F784E1EBEF53
:10170000FDE0ACEABCE001900D928A95E1F784E13E
:10171000EFEDFDE0A8E5BEE001900D928A95E1F7BE
:101720006AE070E080E090E00E94E62180E0DF91D6
:10173000CF911F910F91FF90EF9008958091F90D37
:10174000882309F454CF8091BF0D81508093BF0D41
:101750008091BF0D811102C0F092BF0D8091BF0D2D
:1017600080937F0C80917F0C1F928F93DF93CF9398
:101770001F930F930E94772F1092F90D32CFFF9293
:101780000F931F93CF93DF930E94F70483E0E4E36A
:10179000F2E0A1E5BDE001900D928A95E1F786E0C7
:1017A000E8E3F2E0A5E5BDE001900D928A95E1F74E
:1017B0008FE496E490935D0D80935C0D85E0EFE3FC
:1017C000F2E0AFE5BDE001900D928A95E1F787E088
:1017D000EFE0F2E0A8ECBDE001900D928A95E1F710
:1017E00084E59FE49093D10D8093D00D86E0E7E1EE
:1017F000F2E0A3EDBDE001900D928A95E1F784E15E
:10180000E1E5FDE0A3E2BDE001900D928A95E1F7EC
:1018100084E1E8ECFDE0AAEABDE001900D928A9532
:10182000E1F784E1EBEFFDE0ACEABCE001900D9262
:101830008A95E1F784E1EFEDFDE0A8E5BEE00190D7
:101840000D928A95E1F76AE070E080E090E00E94F6
:10185000E62180913F0E80937F0C80913F0E1F9276
:101860008F93CFE2D2E0DF93CF938CE29EE09F9301
:101870008F930E94772F80917F0C1F928F93DF931D
:10188000CF938CED9DE09F938F930E94772F81E003
:101890008093BF0D8DB79EB70C960FB6F8949EBF80
:1018A0000FBE8DBF0CED1DE0FF24FA9480913E0E1B
:1018B000882309F4BEC08091BF0D8F5F8093BF0D58
:1018C0008091BF0D80937F0C80917F0C1F928F932E
:1018D000DF93CF931F930F930E94772F10923E0EAA
:1018E0000F900F900F900F900F900F9080912C0EF3
:1018F0008093E60D80912D0E8093E70D8091DC0D95
:101900008093EF0D8091DD0D8093F00D84E1E1E592
:10191000FDE0A3E2BDE001900D928A95E1F784E13C
:10192000E8ECFDE0AAEABDE001900D928A95E1F7AE
:1019300084E1EBEFFDE0ACEABCE001900D928A950A
:10194000E1F784E1EFEDFDE0A8E5BEE001900D9246
:101950008A95E1F71899AACF60917F0C89E090E011
:101960000E94783289E090E00E94703280933F0EAE
:101970008EE48093510D85E58093520D8DE4809324
:10198000530D80E28093540D93E49093550D95E4AC
:101990009093560D2CE42093570D2093580D23E57A
:1019A0002093590D80935A0D20935B0D90935C0DFD
:1019B00094E590935D0D91E290935E0D80935F0DA1
:1019C0008093600D8093610D8093620D8093630D11
:1019D0008093640D84E1E1E5FDE0A3E2BDE00190C8
:1019E0000D928A95E1F784E1E8ECFDE0AAEABDE01A
:1019F00001900D928A95E1F784E1EBEFFDE0ACEA0E
:101A0000BCE001900D928A95E1F784E1EFEDFDE0F5
:101A1000A8E5BEE001900D928A95E1F76AE070E0DA
:101A200080E090E0DF91CF911F910F91FF900C9497
:101A3000E6218091F90D882309F458CF8091BF0DDC
:101A400081508093BF0D8091BF0D811102C0F09233
:101A5000BF0D8091BF0D80937F0C80917F0C1F92F2
:101A60008F93DF93CF931F930F930E94772F109242
:101A7000F90D36CF0F931F93CF93DF930E94F70496
:101A800086E0E5E4F2E0A1E5BDE001900D928A95E3
:101A9000E1F786E0ECE4F2E0A8E5BDE001900D920C
:101AA0008A95E1F784E0E3E5F2E0ABEFBDE0019079
:101AB0000D928A95E1F785E0E4E2F2E0A8ECBDE062
:101AC00001900D928A95E1F784E0EAE2F2E0A8EC59
:101AD000BDE001900D928A95E1F711E010937F0C23
:101AE00080917F0C1F928F93CFE2D2E0DF93CF9350
:101AF0008CE29EE09F938F930E94772F80917F0CC2
:101B00001F928F93DF93CF938CED9DE09F938F93E4
:101B10000E94772F80912C0E8093CD0D80912D0EF9
:101B20008093CE0D8091DC0D8093D70D8091DD0DDB
:101B30008093D80D84E1E1E5FDE0A3E2BDE00190F2
:101B40000D928A95E1F784E1E8ECFDE0AAEABDE0B8
:101B500001900D928A95E1F784E1EBEFFDE0ACEAAC
:101B6000BCE001900D928A95E1F784E1EFEDFDE094
:101B7000A8E5BEE001900D928A95E1F76AE070E079
:101B800080E090E00E94E6211093BF0D8DB79EB7D4
:101B90000C960FB6F8949EBF0FBE8DBF0CED1DE0E6
:101BA00080913E0E882309F458C08091BF0D8F5F4D
:101BB0008093BF0D8091BF0D80937F0C80917F0C2F
:101BC0001F928F93DF93CF931F930F930E94772FD2
:101BD00010923E0E0F900F900F900F900F900F905D
:101BE00080912C0E8093CD0D80912D0E8093CE0D83
:101BF0008091DC0D8093D70D8091DD0D8093D80D01
:101C000084E1E1E5FDE0A3E2BDE001900D928A955B
:101C1000E1F784E1E8ECFDE0AAEABDE001900D9275
:101C20008A95E1F784E1EBEFFDE0ACEABCE00190DE
:101C30000D928A95E1F784E1EFEDFDE0A8E5BEE0C5
:101C400001900D928A95E1F7189B22C06AE070E03E
:101C500080E090E00E94E621A3CF8091F90D8823D7
:101C600009F4BECF8091BF0D81508093BF0D80914C
:101C7000BF0D80937F0C80917F0C1F928F93DF9319
:101C8000CF931F930F930E94772F1092F90DA2CF3D
:101C9000DF91CF911F910F9108950E94F70485E085
:101CA000E8E5F2E0A1E5BDE001900D928A95E1F74B
:101CB00084E0EEE5F2E0A7E5BDE001900D928A95A3
:101CC000E1F787E0E3E6F2E0A8ECBDE001900D92D9
:101CD0008A95E1F786E0EBE6F2E0ABEFBDE001903C
:101CE0000D928A95E1F784E0E2E7F2E0AFEDBDE026
:101CF00001900D928A95E1F784E1E1E5FDE0A3E230
:101D0000BDE001900D928A95E1F784E1E8ECFDE0F9
:101D1000AAEABDE001900D928A95E1F784E1EBEF2C
:101D2000FDE0ACEABCE001900D928A95E1F784E118
:101D3000EFEDFDE0A8E5BEE001900D928A95E1F798
:101D400008950E94F70485E0E7E7F2E0A1E5BDE031
:101D500001900D928A95E1F785E0EEE1F2E0A7E5CA
:101D6000BDE001900D928A95E1F784E59FE49093A0
:101D70005E0D80935D0D87E0EDE7F2E0ABEFBDE037
:101D800001900D928A95E1F784E0E5E8F2E0A3E0A6
:101D9000BEE001900D928A95E1F784E0EEE5F2E075
:101DA000A8E0BEE001900D928A95E1F784E1E1E5BB
:101DB000FDE0A3E2BDE001900D928A95E1F784E198
:101DC000E8ECFDE0AAEABDE001900D928A95E1F70A
:101DD00084E1EBEFFDE0ACEABCE001900D928A9566
:101DE000E1F784E1EFEDFDE0A8E5BEE001900D92A2
:101DF0008A95E1F708950E94F70485E0E7E7F2E0AD
:101E0000A1E5BDE001900D928A95E1F785E0EEE154
:101E1000F2E0A7E5BDE001900D928A95E1F784E537
:101E20009FE490935E0D80935D0D87E0EDE7F2E017
:101E3000ABEFBDE001900D928A95E1F784E0E5E813
:101E4000F2E0A3E0BEE001900D928A95E1F78BE00D
:101E5000EAE8F2E0A8ECBDE001900D928A95E1F786
:101E600084E1E1E5FDE0A3E2BDE001900D928A95F9
:101E7000E1F784E1E8ECFDE0AAEABDE001900D9213
:101E80008A95E1F784E1EBEFFDE0ACEABCE001907C
:101E90000D928A95E1F784E1EFEDFDE0A8E5BEE063
:101EA00001900D928A95E1F708950E94F70485E06C
:101EB000E7E7F2E0A1E5BDE001900D928A95E1F738
:101EC00085E0EEE1F2E0A7E5BDE001900D928A9594
:101ED000E1F784E59FE490935E0D80935D0D87E0CC
:101EE000EDE7F2E0ABEFBDE001900D928A95E1F7EE
:101EF00086E0E6E9F2E0A3E0BEE001900D928A956B
:101F0000E1F786E0EDE9F2E0A8ECBDE001900D928A
:101F10008A95E1F784E1E1E5FDE0A3E2BDE001900F
:101F20000D928A95E1F784E1E8ECFDE0AAEABDE0D4
:101F300001900D928A95E1F784E1EBEFFDE0ACEAC8
:101F4000BCE001900D928A95E1F784E1EFEDFDE0B0
:101F5000A8E5BEE001900D928A95E1F708954F92B1
:101F60005F926F927F928F929F92AF92BF92CF9229
:101F7000DF92EF92FF921F93CF93DF93CDB7DEB73F
:101F800028970FB6F894DEBF0FBECDBFF82E0E9483
:101F9000F70485E0E8EAF2E0A1E5BDE001900D92EA
:101FA0008A95E1F783E0EEEAF2E0A7E5BDE0019073
:101FB0000D928A95E1F786E0E7ECF1E0A8ECBDE050
:101FC00001900D928A95E1F784E0E2EBF2E0ABEF4D
:101FD000BDE001900D928A95E1F784E1E1E5FDE035
:101FE000A3E2BDE001900D928A95E1F784E1E8EC6F
:101FF000FDE0AAEABDE001900D928A95E1F784E147
:10200000EBEFFDE0ACEABCE001900D928A95E1F7C0
:1020100084E1EFEDFDE0A8E5BEE001900D928A9528
:10202000E1F78F2D90E0FC01EE0FFF1FE25BF14F17
:10203000E080F180880F991F880F991FFC01E058FC
:10204000F34F408051806280738082E0E816F10493
:1020500009F4F2C108F0E3C1E114F10409F4FAC192
:10206000F1E0EF16F10409F4F8C165EA71E0FB0153
:1020700001900020E9F73197AF01461B570B8EEC1A
:102080009DE00E94492F84E0E816F10409F043C066
:102090008091670D805D8093DF0D8091660D8111C9
:1020A000DFC18091680D9091690D28EE33E0B90190
:1020B0000E947F2C605D6093600D8091680D90910F
:1020C000690DB9010E947F2CE4E6F0E0BF010E9497
:1020D0007F2C605D6093610D8091680D9091690D1A
:1020E000B9010E947F2CBF010E947F2C2AE030E0C2
:1020F000B9010E947F2C605D6093620D8EE2809337
:10210000630D8091680D9091690DB9010E947F2C3B
:10211000805D8093640DC301B20124E630E040E0AD
:1021200050E00E94A72C29833A834B835C83C30130
:10213000B20120E737E140E050E00E94A72C4901BE
:102140005A01C301B20120E43EE745E050E00E949D
:10215000A72C69017A0169817A818B819C812CE3AA
:1021600030E040E050E00E94A72C69837A838B83A3
:102170009C83C501B4012CE330E040E050E00E94B4
:10218000A72C6D837E838F839887C701B60128E1D2
:1021900030E040E050E00E94A72C6B017C018AE017
:1021A000882E912CA12CB12C69817A818B819C8104
:1021B000A50194010E94A72C605D60930E0E205D26
:1021C00020930D0E1AE310930C0E6D817E818F818A
:1021D0009885A50194010E94A72C605D60930B0E69
:1021E000205D20930A0E1093090EC701B601A501C8
:1021F00094010E94A72C605D6093080E205D2093DF
:10220000070E1093060EC301B20120E036ED43E83D
:1022100050E00E94A72CCA01B901A50194010E94B7
:10222000A72C605D6093050EC301B20120E03CE580
:1022300046E255E00E94A72CCA01B901A50194010C
:102240000E94A72C605D6093040EC301B20120E0E0
:1022500038E94FE753E30E94A72C205D2093030E3B
:102260000E9480216B017C0124E630E040E050E0D8
:102270000E94A72C29833A834B835C83C701B60154
:1022800020E737E140E050E00E94A72C29013A0105
:10229000C701B60120E43EE745E050E00E94A72CCC
:1022A0002D833E834F83588769817A818B819C81FE
:1022B0002CE330E040E050E00E94A72C69837A8351
:1022C0008B839C83C301B2012CE330E040E050E0FB
:1022D0000E94A72C2B013C016D817E818F81988506
:1022E00028E130E040E050E00E94A72C6D837E831F
:1022F0008F83988769817A818B819C81A501940164
:102300000E94A72C605D6093F20D205D2093F10D7B
:102310001093F00DC301B201A50194010E94A72CF6
:10232000605D6093EF0D205D2093EE0D1093ED0D39
:102330006D817E818F819885A50194010E94A72CD3
:10234000605D6093EC0D205D2093EB0D1093EA0D22
:10235000C701B60120E036ED43E850E00E94A72C0B
:10236000CA01B901A50194010E94A72C605D609388
:10237000E90DC701B60120E03CE546E255E00E94C8
:10238000A72CCA01B901A50194010E94A72C605D88
:102390006093E80DC701B60120E038E94FE753E349
:1023A0000E94A72C205D2093E70D84E1E1E5FDE08C
:1023B000A3E2BDE001900D928A95E1F784E1E8EC9B
:1023C000FDE0AAEABDE001900D928A95E1F784E173
:1023D000EBEFFDE0ACEABCE001900D928A95E1F7ED
:1023E00084E1EFEDFDE0A8E5BEE001900D928A9555
:1023F000E1F728960FB6F894DEBF0FBECDBFDF9190
:10240000CF911F91FF90EF90DF90CF90BF90AF9052
:102410009F908F907F906F905F904F90089584E091
:10242000E816F10479F058F0F6E0EF16F10409F03F
:102430001CCE63EC71E01BCE6FEA71E018CE64EA4B
:1024400072E015CE8091660D805D8093D20D6AEBAF
:1024500071E00DCE6EEB71E00ACE6AEA71E007CE54
:102460008091660D813009F056CE8091680D909173
:10247000690D28EE33E0B9010E947F2C605D609306
:10248000600D8EE28093610D8091680D9091690DD1
:10249000B9010E947F2CE4E6F0E0BF010E947F2C8E
:1024A000605D6093620D8091680D9091690DB90136
:1024B0000E947F2CBF010E947F2C2AE030E0B901EE
:1024C0000E947F2C605D6093630D1BCE84B1887F7A
:1024D00084B985B1876085B908950E94661262E368
:1024E00070E080E090E00E94E621C1E01A9909C006
:1024F000C0933E0E64E170E080E090E00E94E6212F
:10250000F5CF199903C0C093F90DF4CF1899EECF08
:10251000C0937E0CEFCFEF92FF920F931F93CF9358
:10252000DF93CDB7DEB74DB75EB78091140E2DB7F0
:102530003EB7281B31090FB6F8943EBF0FBE2DBF22
:102540002F5F3F4F8091130D9091140D019709F06B
:1025500092C08091390D882309F48DC01092390DF5
:1025600080E09091140E891760F0A0E08091140E25
:102570006A2F70E090E0019768177907BCF5B0E02A
:1025800029C0F901E80FF11D80838F5FEACFB901FF
:10259000680F791FFB01E080EE2DF0E0EE0FFF1FCA
:1025A000E65EF14F008111810196820F931FFC01BD
:1025B000F080EF2DF0E0EE0FFF1FE65EF14F01908F
:1025C000F081E02DE017F10720F4FC01E082FB012F
:1025D000F082BF5F8B2F90E06091140E70E061502D
:1025E0007109861797079CF2AF5FC0CF8091140ED8
:1025F000815097E0811111C0A1E06091140E8617FF
:1026000048F10FB6F8945EBF0FBE4DBFDF91CF917A
:102610001F910F91FF90EF900895D901A80FB11D60
:10262000EC91F0E0EE0FFF1FE65EF14F60817181EB
:102630001197EC91F0E0EE0FFF1FE65EF14F019075
:10264000F081E02D6E1B7F0B6931710508F0982F2A
:102650008150D0CF682F70E0620F731FFB01608143
:10266000E62FF0E0EC55F34F891718F0A0838F5F49
:10267000C4CF1082FCCF8091130D9091140D01975F
:1026800009F4BFCF80E09091140E891708F0B9CFFC
:10269000E82FF0E0EC55F34F10828F5FF4CFCF932B
:1026A000DF9300D000D000D0CDB7DEB70E94BF04CA
:1026B0000E94A3000E94D7000E94790281E08093CB
:1026C000E00C1092390D34E6432E512C612C712C04
:1026D000222423940E948021A30192010E94A72C0E
:1026E000633371058105910508F4F0C08091E00C19
:1026F000882349F01092E00C2092390D8091380D1A
:1027000081110E94DC0465E070E080E090E00E94AE
:10271000E621312C8091140E381608F4DAC00E949C
:102720008301BC01990F880B990B0E94272E2AE088
:1027300037ED43EA5AE30E94DC2E21EC3AEC41E803
:102740005FE30E94DC2E2AE939E949E95EE30E9451
:102750000B2D20E030E040E251E40E94DC2E0E948C
:10276000F62D7093F40D6093F30D0E946B000E94A0
:102770002E01092E000CAA0BBB0BB095A0959095CD
:1027800081959F4FAF4FBF4F80930F0D9093100DCA
:10279000A093110DB093120D80910F0D9091100D1B
:1027A000A091110DB091120D803E9E42A105B10580
:1027B000CCF480910F0D9091100DA091110DB0915E
:1027C000120D8132914DAF4FBF4F64F080910F0DCC
:1027D0009091100DA091110DB091120D90933D0E9E
:1027E00080933C0E8091130D9091140D069709F083
:1027F000FAC08091FE0C882309F4F5C00E94EF0115
:102800000E94BA01092E000CAA0BBB0B80930F0D7E
:102810009093100DA093110DB093120D40E050E075
:10282000BA018AE39DE00E94322080910F0D9091C1
:10283000100DA091110DB091120D9C01AD016627F4
:102840007727CB01621B730B840B950B0E94272EFD
:102850002FE632E143E059E30E94DC2E23ED3EEF08
:1028600046ED52E40E94DC2E24EA30E74DE25FE3BD
:102870000E940C2D20E030E04AE754E40E94DC2E58
:102880000E94EF2D6093F80C7093F90C8093FA0C72
:102890009093FB0C8AE39DE00E94CA200E948B1259
:1028A00010E08091140E181708F014CFE12FF0E01B
:1028B000DF01AC55B34F8C91EA51F34F813009F0F1
:1028C000E8C080810E9404031F5FEBCF2092E00CE0
:1028D0001ACF032D10E0F801EA51F34F80810E94D6
:1028E0008B036B017C019801220F331F3E832D83E4
:1028F000F901E05CF14F408151815A834983F9012C
:10290000EB5EF24F808191819C838B8396E09E9D4C
:10291000B0019F9D700D112480E090E00E94252E53
:102920004B015C01A981BA81BD0180E090E00E9469
:10293000252E20E030E040E85AE30E94DC2E9B0187
:10294000AC01C501B4010E94DC2E4B015C01EB819E
:10295000FC81BF0180E090E00E94252E9B01AC012C
:10296000C501B4010E940C2D0E94F62DED81FE815F
:10297000E65EF14F71836083000F111F000F111F7E
:10298000F801E054F34F80809180A280B380ED8104
:10299000FE81E25DF14F00811181FAEFCF1AF0E87C
:1029A000DF0ACC0CDD1CB60180E090E00E94252EF1
:1029B000A50194010E94DC2E6B017C01B80180E02E
:1029C00090E00E94252E9B01AC01C701B6010E9438
:1029D0000C2D0E94F62DED81FE81EF5FF24F718389
:1029E0006083339497CE0E940D020E94BA01092E93
:1029F000000CAA0BBB0B80930F0D9093100DA093AE
:102A0000110DB093120D80910F0D9091100DA091AA
:102A1000110DB091120D8C3B9240A105B1050CF047
:102A20003DCF80910F0D9091100DA091110DB0919F
:102A3000120D85349D4FAF4FBF4F0CF42FCF40E0A8
:102A400050E0BA018AE39DE00E94322060913C0E82
:102A500070913D0E072E000C880B990B0E94272EBB
:102A60002CEA35EC47E256E30E94DC2E2FE632E1F9
:102A700043E85AE30E947D2D2DE73EEA46E75FE3F7
:102A80000E94DC2E29E839E241E15CE30E940B2D33
:102A9000F1CE80810E94E70217CF1092720E109241
:102AA000710E8091710E9091720E079758F187E028
:102AB00080934B0D80EC9DE090934D0D80934C0DD9
:102AC00081E090E09093460D8093450D1092500D5B
:102AD00088E090E00E9470328093E50C8091E50CD4
:102AE000882321F08091E50C8F3F59F461E088E064
:102AF00090E00E94783288E090E00E9470328093EB
:102B0000E50C0895E091710EF091720EE054F24FD1
:102B100010828091710E9091720E01969093720EB8
:102B20008093710EBECF0E944D1580E00E946C26EE
:102B300008E08091E50C90E0982F8827977090939B
:102B4000480D8093470D00934B0D8091130D90918C
:102B5000140D8093C00D8091F30D9091F40D90931E
:102B6000C10D8091F30D9091F40D8093C20D809171
:102B7000F80C9091F90CA091FA0CB091FB0C8B2FF2
:102B8000BB2787FDB0959B2FAB2F8093C30D809102
:102B9000F80C9091F90CA091FA0CB091FB0CCD01BE
:102BA000BB2797FDB095AB2F8093C40D8091F80C97
:102BB0009091F90CA091FA0CB091FB0C892F9A2FEF
:102BC000AB2FBB27A7FDBA958093C50D8091F80C5C
:102BD0009091F90CA091FA0CB091FB0C8093C60D6A
:102BE0008091AB0C8093C70D84E49DE00E94792610
:102BF000182F8111F9CF84E49DE00E94542B81307D
:102C0000D1F38091F50D9091F60DA091F70DB09153
:102C1000F80D8B2FBB2787FDB0959B2FAB2F809393
:102C2000C00D8091F50D9091F60DA091F70DB0912A
:102C3000F80DCD01BB2797FDB095AB2F8093C10D4B
:102C40008091F50D9091F60DA091F70DB091F80DD2
:102C5000892F9A2FAB2FBB27A7FDBA958093C20D62
:102C60008091F50D9091F60DA091F70DB091F80DB2
:102C70008093C30DF12C84E0C4E0D1E090913F0E2D
:102C8000F916C0F0F12C90913F0EF91608F056C0DD
:102C90002C2F280F2AC0EC2FF0E0AF2DB0E0AC5560
:102CA000B34F9C91E054F24F9083CF5FF3948150E7
:102CB00009F452C090913F0EF91668F3DFCF4C2F04
:102CC00050E0EF2DF0E0EE0FFF1FE65EF14F608168
:102CD0007181DA01A054B24F7C9360817181FA0155
:102CE000EF53F24F6083F3948250C22FC81B82309F
:102CF00008F450C090913F0EF91608F3C4CF2C2F62
:102D000030E0E12FF0E0EE0FFF1FEF5FF24F608148
:102D10007181D901A054B24F7C9360817181F90116
:102D2000EF53F24F60831F5F8250C42FC81B823065
:102D300008F44EC090913F0E191708F390913F0E82
:102D4000191718F44C2F480FF0CF64E670E080E0BC
:102D500090E00E94E621EDCE8091E50C90E0982F66
:102D600088278D0F911D97709093480D8093470D84
:102D7000C0934B0D84E49DE00E947926C82F8111F9
:102D8000F9CF84E49DE00E94542B8130D1F3DF5FC2
:102D900088E074CF8091E50C90E0982F88278D0F04
:102DA000911D97709093480D8093470DC0934B0DE4
:102DB00084E49DE00E947926C82F8111F9CF84E434
:102DC0009DE00E94542B8130D1F3DF5F88E05BCF20
:102DD0008091E50C90E0982F88278D0F911D9770BA
:102DE0009093480D8093470DC0934B0D84E49DE074
:102DF0000E947926C82F8111F9CF84E49DE00E94BA
:102E0000542B8130D1F3DF5F88E098CF0C941C0500
:102E10000E941C050E9480216B017C0164E670E029
:102E200080E090E00E94E621D0E0C0E011E00E9446
:102E300080216C197D098E099F096C317C408105C8
:102E4000910510F0D0E0C0E00E9480216C197D094E
:102E50008E099F0964347F4281059105E0F00E944C
:102E6000B4021092380D18998AC00E9480216B011B
:102E70007C01D13009F46BC008F442C0D23009F4AF
:102E80006EC0D33009F473C064E170E080E090E07C
:102E90000E94E621CCCF1093380DD13029F138F0C3
:102EA000D23031F1D33041F10E941C05DCCFC23069
:102EB000A9F03CF4CC23C1F3C130B1F70E94A10EBC
:102EC000D2CFC33071F0CF3079F70E94150A082FA6
:102ED0000E94BF0B0111C7CFC0E0C5CF0E94FB0EFF
:102EE000C2CF0E94550FBFCF8C2F0E948D07BBCF42
:102EF0008C2F0E947208B7CF8C2F0E94AF0FB3CFD8
:102F0000C130B1F04CF4C111BFCF8091380D88238E
:102F100009F4BACFCFE0B8CFC23091F0C33009F096
:102F2000B3CF8091380D882309F4AECFD3E006C02B
:102F30008091380D882309F4A7CFD1E0C0E0A4CF59
:102F40008091380D882309F49FCFD2E0F7CF80918C
:102F5000380D882309F498CFD0E0C1E095CF809157
:102F6000380D882309F490CFD0E0C2E08DCF809156
:102F7000380D882309F488CFD0E0C3E085CF809155
:102F8000F90D882349F10E9480216B017C01809119
:102F9000380D8823B1F0CF5FC43011F4DD23D1F0B8
:102FA0008091140E90E02C2F0C2E000C330B281760
:102FB000390751F48FEF8D0F823030F4C091140E29
:102FC000C1501092F90D60CFC530D9F7D330C9F791
:102FD000C4E0F7CFC3E0F5CF80913E0E882309F41B
:102FE00053CF0E9480216B017C018091380D882392
:102FF00019F0C15008F4C0E010923E0E45CF089A77
:10300000109863E070E080E090E00E94E621109A62
:1030100063E070E080E090E00E94E621F1CF109242
:10302000190E1092DE0D80E09091140E891720F099
:103030008AE39DE00C94E01FE82FF0E0EC55F34F9D
:1030400010828F5FF1CF81E090E00E947032809318
:10305000AB0C8091AB0C882321F08091AB0C8F3F9F
:1030600059F462E381E090E00E94783281E090E0E0
:103070000E9470328093AB0C8091AB0C08959091BC
:10308000DE0D8091AB0C981751F08091AB0C8093C2
:10309000DE0D6091AB0C81E090E00C9478320895E5
:1030A000CF93DF9300D000D0CDB7DEB70E940F18CA
:1030B000412C512C320114E63CE9832E99249A9438
:1030C000A92CB92C8091130D9091140D892BD1F35B
:1030D0008091130D9091140D019721F482B18063BA
:1030E00082B908C08091130D9091140D039709F0D7
:1030F000B7C0149A80E09091140E891708F4B3C0F9
:1031000080E09091140E891708F4CDC00E948021B0
:103110006B017C01DC01CB0184199509A609B70973
:103120002C013D0140E050E0BA018AE39DE00E949D
:1031300032206091F80C7091F90C8091FA0C90910A
:10314000FB0C2091F50D3091F60D4091F70D50914B
:10315000F80D29833A834B835C83A30192010E947B
:10316000552CA50194010E94C92C89819A81AB81BB
:10317000BC81280F391F4A1F5B1F57FD2CC060916F
:10318000F80C7091F90C8091FA0C9091FB0C209145
:10319000F50D3091F60D4091F70D5091F80D298302
:1031A0003A834B835C83A30192010E94552CA501B5
:1031B00094010E94C92C89819A81AB81BC81280F1E
:1031C000391F4A1F5B1F2093F50D3093F60D409376
:1031D000F70D5093F80D8AE39DE00E94CA2060919C
:1031E000F50D7091F60D8091F70D9091F80D0E94FC
:1031F000272E20E036ED43E05AE40E94D72E181621
:1032000064F56091F50D7091F60D8091F70D909138
:10321000F80D0E94272E28E03FEE4BE45DE40E946B
:10322000782D87FF1AC06091F50D7091F60D809191
:10323000F70D9091F80D0E94272E20E63EEF4DE409
:103240005DE40E947D2D20E030E048EC52E40E94D5
:10325000DC2E0E94F62D6093AB0C2601370132CF95
:1032600082B18F7C3DCFE82FF0E0EE0FFF1FE65ECE
:10327000F14F2081318125373E4098F02081318106
:10328000263F3F4F71F020E036EE4FED5CE020939B
:10329000F50D3093F60D4093F70D5093F80D109304
:1032A000AB0C8F5F28CFE82FF0E0EE0FFF1FE65E3C
:1032B000F14F208131812C383A4050F41092F50DB5
:1032C0001092F60D1092F70D1092F80D1092AB0CB3
:1032D0008F5F17CF139A81B1896381B91092FE0C69
:1032E00008950E946A1991E080B182FB882780F9D5
:1032F00089278093FE0C2091130D3091140D2630F8
:10330000310521F413988091FE0CEECF139AECCF87
:103310008EE390E090932F0E80932E0E86E490E043
:103320009093310E8093300E8BE290E09093330EA9
:103330008093320E89E390E09093350E8093340EA3
:1033400080E290E09093370E8093360E81E390E018
:103350009093390E8093380E8EE190E090933B0E5F
:1033600080933A0E87E79EEBAFE3BFE38093C00CF8
:103370009093C10CA093C20CB093C30C8AEA91EF56
:10338000A2E3BFE38093C40C9093C50CA093C60C3A
:10339000B093C70C8FE892ECA5E5BFE38093C80C0F
:1033A0009093C90CA093CA0CB093CB0C84E69BE31A
:1033B000AFE3BFE38093CC0C9093CD0CA093CE0CE5
:1033C000B093CF0C8FE395E3AEE5BFE38093D00CD1
:1033D0009093D10CA093D20CB093D30C8CE497E3D0
:1033E000A9E4BFE38093D40C9093D50CA093D60CA2
:1033F000B093D70C8FE29DEDA4E6BFE38093D80C89
:103400009093D90CA093DA0CB093DB0C89E090E098
:103410000E94703280933F0E80913F0E882321F0EE
:1034200080913F0E8F3F59F467E089E090E00E9461
:10343000783289E090E00E94703280933F0E1092C3
:10344000650D1092660D1092690D1092680D109224
:10345000670DC0E0D0E08091140E90E0C817D90746
:103460000CF4AEC01092140D1092130DC0E0D0E019
:10347000FE01EE0FFF1FE25BF14F118210820E94EE
:103480008021FE01EE0FFF1FEE0FFF1FE058F34FEC
:1034900060837183828393832196C530D10541F780
:1034A0000E9423188093AB0C6091AB0C70E080E01D
:1034B00090E00E94252E20E030E048EC52E40E948B
:1034C0007D2D20E63EEF4DE45DE40E94DC2E0E945F
:1034D000F62D6093F50D7093F60D8093F70D909394
:1034E000F80D0E943F1804E010E0C6E0EC2EF12C2D
:1034F000CC24C394D12C83E0482E512C95E0A92EE6
:10350000B12C22E0622E712CC1E0B2E09B2ED3E000
:103510000E943F1840E08091140E481708F465C0DF
:103520008091F30D9091F40D81349145A4F01093A6
:10353000140D0093130D9092370DC093650D90926A
:10354000660D8091F30D9091F40D9093690D809329
:10355000680D1092670D90913F0E8091140E981790
:1035600099F01093140D0093130DD093370DC09361
:10357000650DD093660D80913F0E90E09093690D9C
:103580008093680D1092670D8091130D9091140D2A
:10359000049709F40AC18091130D9091140D8230A3
:1035A000910509F4FDC008F063C0009709F473C0E9
:1035B000019709F4E6C01093140D0093130D90C009
:1035C000FE01EA51F34F80810E94FC039E01220F0D
:1035D000331FF901E05CF14F71836083F901EB5E09
:1035E000F24F91838083219636CF842F90E0880F0D
:1035F000991FFC01EF5FF24F208131812935324064
:10360000B8F0208131812C33334E91F01093140D9A
:103610000093130D1092370DC093650D1092660D37
:10362000208131813093690D2093680D4093670D9F
:10363000FC01E65EF14F80819181813A9F40B0F0BC
:10364000808191810A9691F01093140D0093130DCF
:10365000C093370DC093650DC093660D8081918135
:103660009093690D8093680D4093670D4F5F53CF22
:103670008530910509F47FC086309105B9F0039734
:1036800009F099CF8091BE0D882359F08091AB0C41
:10369000811126C00FC068EC70E080E090E00E94CD
:1036A000E621F092140DE092130D1AC08091AB0C3C
:1036B000811105C0B092140DA092130D11C080911C
:1036C000190E882329F0D092140DC092130D08C052
:1036D0008091BE0D882321F05092140D4092130D5D
:1036E00020914E0E30914F0E8091130D9091140D3C
:1036F0002817390709F40CCF84E090E09C01215091
:103700003109F901EE0FFF1FE25BF14F408151815A
:10371000FC01EE0FFF1FE25BF14F51834083F90183
:10372000EE0FFF1FEE0FFF1FE058F34F4081518156
:1037300062817381880F991F880F991FFC01E058DF
:10374000F34F4083518362837383C9010097B1F6BD
:103750008091130D9091140D90934F0E80934E0E07
:103760000E9480216093800C7093810C8093820C66
:103770009093830CC9CE8091190E882309F4B0CFA1
:10378000A2CF8091190E882309F48BCF8091AB0CC6
:10379000843608F4A5CF7092140D6092130DA0CF5B
:1037A0008091190E81119CCF7CCF1092650D26E07F
:1037B00030E060E08091140E681748F18091F30DBD
:1037C0009091F40D8134914534F09092370DC0936F
:1037D000650D24E030E090913F0E8091140E981713
:1037E00089F0D093370DC093650DD093660D80910D
:1037F0003F0E90E09093690D8093680D1092670DD5
:1038000024E030E03093140D2093130D69CF862F00
:1038100090E0880F991FFC01EF5FF24F40815181CA
:103820004935524058F0408151814C33534E31F06C
:103830001092370DC093650D24E030E0FC01E65E88
:10384000F14F80819181813A9F4050F08081918138
:103850000A9631F0C093370DC093650D24E030E037
:103860006F5FA8CF87B1836087B908950E94321C2B
:103870008091130D9091140D049781F4419A409A10
:1038800069E170E080E090E00E94E621409869E103
:1038900070E080E090E00E94E621EACF4198EFCF0F
:1038A000AF92BF92CF92DF92EF92FF920F931F934E
:1038B000CF93DF93C9E0D1E0AB84BC84CD84DE84B8
:1038C000E984FA840D811E812F8138854B815C81CA
:1038D0006A81888199810E94F01D811105C02F960F
:1038E00091E0C039D90741F7DF91CF911F910F9136
:1038F000FF90EF90DF90CF90BF90AF9008952F9200
:103900003F924F925F926F927F928F929F92AF926F
:10391000BF92CF92DF92EF92FF920F931F93CF93BC
:10392000DF930DB71EB7C82FD92F08831983C62F71
:10393000D72F088119810DBF1EBFDF91CF911F9135
:103940000F91FF90EF90DF90CF90BF90AF909F903E
:103950008F907F906F905F904F903F902F90089541
:10396000C82FD92F088119810DBF1EBFDF91CF91BC
:103970001F910F91FF90EF90DF90CF90BF90AF908D
:103980009F908F907F906F905F904F903F902F907F
:103990001895FFCF80915C0C90915D0C01969093EF
:1039A0005D0C80935C0C089580915C0C90915D0C93
:1039B000892B29F480916F0C9091700C089580E010
:1039C00090E00895CF93DF93FB01009759F1309772
:1039D00049F1DC01CD91DC91DE019E01109731F1BE
:1039E00012965C91129742814517B0F4CA17DB0713
:1039F00039F5DC01ED93FC9312861186D487C387D9
:103A0000FA87E98780E00FC0328721871486138602
:103A1000E901FC87EB87F6CF9D011B960D90BC91C9
:103A2000A02DDCCF89ECDF91CF910895CD2B61F7EC
:103A3000DC01ED93FC931286118614861386E2CF87
:103A400032872187B487A387E901FC87EB871A9621
:103A5000FC93EE931997D6CFCF93DF930097C1F0E5
:103A6000DC01ED91FC91309779F0A385B485EC01F0
:103A7000B983A883109721F01A961C921E92199769
:103A80001286118614861386CF01DF91CF91089597
:103A9000E0E0F0E0F9CFCF93DF93AC01FB010097BA
:103AA000A9F1DC012D913C912115310579F1D90164
:103AB000E901EA17FB0709F5A385B4852E173F072F
:103AC00089F4EA01B983A883109721F01A961C9211
:103AD0001E9219971486138612861186CF01DF91E4
:103AE000CF910895BC87AB87A385B485109791F3D8
:103AF0001A96DC93CE931997EDCF1B968D919C91DE
:103B00001C97ED01009759F3DC01D3CF80E090E0E2
:103B1000E6CFCF93DF930097C9F0DC01ED91FC91E4
:103B2000309781F02281621788F0A385B485EC017B
:103B3000B983A883109731F01A961C921E92199798
:103B400014861386CF01DF91CF910895E0E0F0E075
:103B5000F9CFFF920F931F93CF93DF939091590C5E
:103B60009923D1F0FFB6F894C0916F0CD091700CEE
:103B70009D859130B9F48AE59CE00E942C1DC81700
:103B8000D90741F09093700C80936F0CBC01CE016B
:103B90000E947F1C1D86FFBEDF91CF911F910F9168
:103BA000FF9008956A818130A9F48AE59CE00E9423
:103BB000891D8C01892B79F3BE018AE59CE00E9466
:103BC000E21CC017D10731F31093700C00936F0CF7
:103BD000B801DDCF6623F9F270E061507109E5CFDD
:103BE000AF92BF92CF92DF92EF92FF920F931F930B
:103BF000CF93DF93EC01009709F43FC041155105C5
:103C0000E1F1E114F104C9F1AB28AC28AD28A9F128
:103C10001D866A831A8619861C861B86188A1F864B
:103C20005C834B830D831E832F833887B7010E94EB
:103C30002C251FB7F894BE018AE59CE00E94E21C87
:103C4000C82F1FBF882369F0CCEC8C2FDF91CF9158
:103C50001F910F91FF90EF90DF90CF90BF90AF90AA
:103C600008958091590C813081F70E94D41C892BD2
:103C700061F380E00E94A91DE8CFC9ECE6CFAF92C6
:103C8000BF92CF92DF92EF92FF920F931F93109209
:103C9000700C10926F0C10925B0C10925A0C1092D8
:103CA000590C5A016B017C0100E010E0980149ECCD
:103CB0005CE16FEF8EE59CE00E94F01D1F910F917B
:103CC000FF90EF90DF90CF90BF90AF90089520913C
:103CD0005C0C30915D0C2150310930935D0C2093C8
:103CE0005C0C0C94A91D81E08093590C6FEF8AE560
:103CF0009CE00E94891D009731F09093700C809396
:103D00006F0C0C94B01C08951F93CF93DF93EC01BC
:103D1000892BA1F01FB7F8946881798182E0FB01BB
:103D20008687108A17868A819B810E944B1D688135
:103D300079818AE59CE00E94E21C1FBFDF91CF9150
:103D40001F910895009731F0FC0162831182108267
:103D500080E0089589EC0895DF92EF92FF920F932F
:103D60001F93CF93DF937C01892BD1F100E08AEC84
:103D7000D82E1FB7F894C7010E942C1DEC010097A4
:103D800061F1DE86BC018AE59CE00E94E21C88238A
:103D9000A1F01FBFCCEC013039F40E94D41C892B58
:103DA00019F080E00E94A91D8C2FDF91CF911F9107
:103DB0000F91FF90EF90DF9008958F85988900977D
:103DC00049F00E945621882319F01FBFCDECE3CFA4
:103DD000188A1F861FBF01E0CCCF1FBFC0E0DBCF1A
:103DE000C9ECE2CF8F929F92AF92BF92DF92EF9297
:103DF000FF920F931F93CF93DF93CDB7DEB72E972C
:103E00000FB6F894DEBF0FBECDBF7C014A015B0147
:103E1000009709F468C0DFB6F894FC018281811133
:103E20005CC077FD57C00E94D41C8C01009709F438
:103E30004EC0BC01C7010E94E21C8823A1F0DFBE76
:103E40008CEC2E960FB6F894DEBF0FBECDBFDF917F
:103E5000CF911F910F91FF90EF90DF90BF90AF90A7
:103E60009F908F90089591E0F801958781149104B7
:103E7000A104B10441F11C870B87FE86ED8684E81E
:103E80009EE19A838983CE010B969C838B838D82DE
:103E90009E82AF82B8860A97908B87870E943121D5
:103EA000882349F0B801C7010E944B1DF80115860F
:103EB000108A17868DECDFBE8111C3CF0E94A91D29
:103EC000F8018685BECFF801108A1786F4CFDFBED1
:103ED00088ECB7CFDFBE83E0B4CF8150F701828397
:103EE000DFBE80E0AECF89ECACCF0F931F93CF93B2
:103EF000DF930097E9F1DFB7F894FC01208131816D
:103F0000232B59F10E942C1D8C01BC018AE59CE0F9
:103F10000E94E21CC82F882341F0DFBFCCEC8C2F1D
:103F2000DF91CF911F910F910895F8011686878533
:103F30009089009761F4F801108A1786DFBF0E940C
:103F4000D41C892B61F380E00E94A91DE8CF0E9458
:103F50005621882381F3CDECF1CFFC0122812F3F44
:103F600029F02F5F2283C0E0DFBFD9CFCBECFCCF9D
:103F7000C9ECD5CF009721F0FC01628380E0089561
:103F800089EC08951F93CF93DF93EC01892BA1F067
:103F90001FB7F8946881798182E0FB018687108AD7
:103FA00017868A819B810E944B1D688179818AE5F1
:103FB0009CE00E94E21C1FBFDF91CF911F910895EA
:103FC000FC01892B39F01382128214821182108233
:103FD00080E0089589EC0895DF92EF92FF920F93AD
:103FE0001F93CF93DF937C01892BD1F100E08AEC02
:103FF000D82E1FB7F894C7010E942C1DEC01009722
:1040000061F1DE86BC018AE59CE00E94E21C882307
:10401000A1F01FBFCCEC013039F40E94D41C892BD5
:1040200019F080E00E94A91D8C2FDF91CF911F9184
:104030000F91FF90EF90DF9008958F8598890097FA
:1040400049F00E945621882319F01FBFCDECE3CF21
:10405000188A1F861FBF01E0CCCF1FBFC0E0DBCF97
:10406000C9ECE2CF8F929F92AF92BF92DF92EF9214
:10407000FF920F931F93CF93DF93CDB7DEB72E97A9
:104080000FB6F894DEBF0FBECDBF7C014A015B01C5
:10409000892B09F47DC00E94D41C8C01DFB6F894F2
:1040A0000097A1F4DFBE88EC2E960FB6F894DEBF21
:1040B0000FBECDBFDF91CF911F910F91FF90EF9079
:1040C000DF90BF90AF909F908F900895F70122816D
:1040D00033812115310509F44CC08217930709F487
:1040E00048C0B7FC43C0BC01C7010E94E21C882342
:1040F00019F0DFBE8CECD8CF91E0F80195878114E0
:104100009104A104B10471F11C870B87FE86ED8632
:1041100082EC9FE19A838983CE010B969C838B83EB
:104120008D829E82AF82B8860A97908B87870E9485
:104130003121882349F0B801C7010E944B1DF801C5
:104140001586108A17868DECDFBE8111ADCF0E94D7
:10415000A91DF80186858111A7CFF70194819F5F82
:104160009483A2CFF801108A1786EECFDFBE83E0DA
:104170009BCFF70184818F3F41F08F5F8483232B96
:1041800011F41383028380E001C08BECDFBE8CCF7F
:1041900089EC8ACFEF92FF920F931F93CF93DF9317
:1041A0008C01892B09F44CC00E94D41CDFB7F89411
:1041B000F801228133818217930751F0DFBFCFECE2
:1041C0008C2FDF91CF911F910F91FF90EF90089569
:1041D000F801C481C150C483C1112FC0138212825F
:1041E00080819181892B39F1C8010E942C1D7C01AD
:1041F000BC018AE59CE00E94E21CC82F882319F0CC
:10420000DFBFCCECDDCFF7011686F801F382E28246
:10421000F70187859089009741F4F701108A178686
:10422000DFBF80E00E94A91DCBCF0E9456218823CA
:10423000A1F3CDECF5CFDFBFC3CFDFBFC0E0C0CF70
:10424000C9ECBECFCF93009751F0CFB7F894FC01E3
:10425000608171818AE59CE00E94E21CCFBFCF9112
:104260000895FC01892B01F180819181892BE1F076
:1042700084819581A681B781892B8A2B8B2BA1F014
:104280002FB7F8948091750C9091760C009749F4B3
:1042900011861086F093760CE093750C2FBF80E0AA
:1042A000089591878087F6CF89EC0895BC01892B0A
:1042B00029F15FB7F8942091750C3091760CF901D3
:1042C000D901309711F48EEC0DC040859185E61729
:1042D000F70781F4E217F30739F44093750C9093D4
:1042E000760C80E05FBF089518964C931897199646
:1042F0009C93F7CFDF01E42FF92FE3CF89EC0895EA
:104300006091710C7091720C8091730C9091740C8F
:1043100008956093710C7093720C8093730C90935A
:10432000740C08950F931F93CF93DF938091590CD2
:104330008823D1F08091710C9091720CA091730C34
:10434000B091740C0196A11DB11D8093710C9093D6
:10435000720CA093730CB093740C0091750C1091B7
:10436000760CE801209729F4DF91CF911F910F91EE
:1043700008958C819D81AE81BF810197A109B1090A
:104380008C839D83AE83BF83892B8A2B8B2BE1F497
:104390002091750C3091760C88859985C217D307CA
:1043A00079F49093760C8093750CE881F9813097BD
:1043B00019F08A819B8109950884D985C02DD2CFB7
:1043C000F80191878087F1CF8E01F6CFCF92DF92EF
:1043D000EF92FF920F931F93CF93DF93CDB7DEB78A
:1043E0002C970FB6F894DEBF0FBECDBF6B017C01DA
:1043F0000E94D41CFC01C114D104E104F10491F128
:10440000892B91F10FB7F89481E08587FC87EB87C2
:1044100082E291E29A838983CE010B969C838B83FF
:10442000CD82DE82EF82F8860A97908B87870E9482
:104430003121182F0FBF882389F01DEC812F2C9676
:104440000FB6F894DEBF0FBECDBFDF91CF911F91A5
:104450000F91FF90EF90DF90CF90089580E00E9441
:10446000A91DECCF19ECEACF18ECE8CF1F93CF933E
:10447000DF93EC01892BA1F01FB7F8946881798153
:1044800082E0FB018687108A17868C819D810E94BD
:104490004B1D688179818AE59CE00E94E21C1FBF68
:1044A000DF91CF911F910895CF92DF92EF92FF920B
:1044B0000F931F93CF93DF93EC01CB016C817D8130
:1044C0002A893B89620F731F4E815F810E94492FA9
:1044D0002E813F8148855985CA88DB88EC88FD8814
:1044E000C20ED31EE41EF51ECA8ADB8AEC8AFD8A40
:1044F0008E899F89A88DB98D0197A109B1098E8BED
:104500009F8BA88FB98F6A857B858C859D850E943E
:10451000552CC616D706E806F90620F01A8A1B8A1B
:104520001C8A1D8ACE010E942C1D8C01009709F166
:10453000BC018AE59CE00E94E21CC82F81111BC0CF
:10454000F801168687859089009769F4F801108A2A
:1045500017868C2FDF91CF911F910F91FF90EF90D5
:10456000DF90CF9008950E945621882379F3CDECF7
:10457000F0CFC0E0EECFCCECECCFCF92DF92EF9259
:10458000FF920F931F93CF93DF93EC012C813D811A
:104590008E859F854E815F81820F931F0E94492FD8
:1045A0002E813F8148855985CE84DF84E888F9884B
:1045B000C20ED31EE41EF51ECE86DF86E88AF98A77
:1045C0008E899F89A88DB98D0196A11DB11D8E8BF5
:1045D0009F8BA88FB98F6A857B858C859D850E946E
:1045E000552CC616D706E806F90620F01E861F864B
:1045F000188A198ACE0102960E942C1D8C01009700
:1046000009F1BC018AE59CE00E94E21CC82F8111DF
:104610001BC0F801168687859089009769F4F80118
:10462000108A17868C2FDF91CF911F910F91FF90E9
:10463000EF90DF90CF9008950E945621882379F360
:10464000CDECF0CFC0E0EECFCCECECCFEF92FF9210
:104650000F931F93FC01892B69F16115710551F1CD
:10466000211531054105510529F1E114F104010538
:10467000110501F175836483268337834087518751
:10468000E286F386048715871182108213821282D4
:1046900016861786108A118A128A138A148A158A36
:1046A000168A178A108E118E80E01F910F91FF904D
:1046B000EF90089589ECF9CFBF92CF92DF92EF92FD
:1046C000FF920F931F93CF93DF937C01009709F420
:1046D00046C000E06C0182E0C80ED11C8AECB82E06
:1046E0001FB7F894C6010E942C1DEC01892B31F4F0
:1046F000C7010E942C1DEC01892B71F1BE86BE0101
:104700008AE59CE00E94E21C8823B1F01FBFCCEC3C
:10471000013039F40E94D41C892B19F080E00E94EA
:10472000A91D8C2FDF91CF911F910F91FF90EF90DA
:10473000DF90CF90BF9008958F859889009749F0BA
:104740000E945621882319F01FBFCDECE1CF188AB3
:104750001F861FBF01E0C4CF1FBFC0E0D9CFC9EC87
:10476000E0CF4F925F926F927F928F929F92AF9223
:10477000BF92CF92DF92EF92FF920F931F93CF934E
:10478000DF93CDB7DEB760970FB6F894DEBF0FBEEC
:10479000CDBF6C012A013B015901009709F494C077
:1047A0002115310509F490C00FB7F894FC018689F2
:1047B0009789A08DB18D892B8A2B8B2B09F076C020
:1047C00077FD71C00E94D41C7C01009709F468C079
:1047D0004601F2E08F0E911CBC01C4010E94E21C54
:1047E000182F81115AC081E0F701858741145104C7
:1047F0006104710409F44DC0FC86EB86DE86CD862B
:10480000988A8F8686E392E29A838983CE010B96FB
:104810009C838B834D825E826F8278860A97908B11
:1048200087870E943121182F882349F0B701C401DE
:104830000E944B1DF7011586108A17861DEC0FBFCD
:1048400011110FC080E00E94A91DF70116851111FA
:1048500008C00FB7F894B501C6010E945422182F62
:104860000FBF812F60960FB6F894DEBF0FBECDBF8D
:10487000DF91CF911F910F91FF90EF90DF90CF903C
:10488000BF90AF909F908F907F906F905F904F9070
:104890000895F701108A1786D2CF0FBF1CECE1CF25
:1048A0000FBF18ECDECF0FBF13E0DBCFB901C6019D
:1048B0000E945422182F0FBF0E94D41C892B89F20A
:1048C00080E00E94A91DCDCF19ECCBCF4F925F9213
:1048D0006F927F92AF92BF92CF92DF92EF92FF9250
:1048E0000F931F93CF93DF93CDB7DEB760970FB6CB
:1048F000F894DEBF0FBECDBF6C012A013B01590108
:10490000009709F493C02115310509F48FC00FB742
:10491000F894FC0146895789608D718D8285938555
:10492000A485B585481759076A077B0709F070C049
:1049300077FC6BC00E94D41C7C01009709F462C014
:10494000BC01C6010E94E21C182F811158C081E0F1
:10495000F7018587411451046104710409F44BC0C7
:10496000FC86EB86DE86CD86D88ACF8686E392E209
:104970009A838983CE010B969C838B834D825E82C2
:104980006F8278860A97908B87870E943121182F33
:10499000882349F0B701C6010E944B1DF701158617
:1049A000108A17861DEC0FBF11110FC080E00E9406
:1049B000A91DF7011685111108C00FB7F894B501AC
:1049C000C6010E94BD22182F0FBF812F60960FB61F
:1049D000F894DEBF0FBECDBFDF91CF911F910F9135
:1049E000FF90EF90DF90CF90BF90AF907F906F904F
:1049F0005F904F900895F701108A1786D4CF0FBFAC
:104A00001CECE3CF0FBF18ECE0CF0FBF13E0DDCFFE
:104A1000B901C6010E94BD22182F0FBF0E94D41CED
:104A2000892B99F280E00E94A91DCFCF19ECCDCF40
:104A30000E94D41C7894009771F0DC011396ED91DC
:104A4000FC911497309739F015966D917D918D9169
:104A50009C9118970994089528E135E2FB01208381
:104A600031973083319710823197108231971082BD
:104A700031971082319710823197108231971082CE
:104A800031971082319710823197108231971082BE
:104A900031971082319710823197108231971082AE
:104AA00031971082319710823197108264517109C9
:104AB000FC0171836083089586E891E090938900FA
:104AC0008093880082E080936F008CE08093810067
:104AD00008951F920F920FB60F9211240BB60F92EA
:104AE0002F933F934F935F936F937F938F939F93F6
:104AF000AF93BF93EF93FF930E94CA1C0E94922131
:104B000081E00E94671EFF91EF91BF91AF919F914D
:104B10008F917F916F915F914F913F912F910F9066
:104B20000BBE0F900FBE0F901F9018951F920F9203
:104B30000FB60F9211240F900FBE0F901F90189573
:104B40008AE28093B8008FEF8093BB0084E080936B
:104B5000BC0008958091BC00817008958091BC00D4
:104B600080FDFCCF8091000108952091BC0020FDC4
:104B7000FCCF6093790CFC01208120937A0C20FFFC
:104B800009C01092770C88EF8093000185EA80932A
:104B9000BC000895FC013196ABE7BCE081E08617CC
:104BA00080F791919D938F5FFACF8091BC0080FD3B
:104BB000FCCF1092770C88EF8093000185EA8093F8
:104BC000BC0008952091BC0020FDFCCF2091770C03
:104BD00020FD04C08091770C81700895AAE7BCE0A5
:104BE000282FFC018E2F821B8617A0F78D918193B1
:104BF000F9CF1F920F920FB60F9211240BB60F929E
:104C00002F933F938F939F93EF93FF938091B900DE
:104C1000883249F0D0F4803121F0883121F0883099
:104C2000D1F41092780CE091780C8091790CE8170F
:104C300020F581E08E0F8093780CF0E0E658F34F7A
:104C400080818093BB0085E836C0803449F148F408
:104C5000883309F43FC08091B9008093000184E05B
:104C60002AC0803589F08835B1F78091BB00E0918A
:104C7000780CF0E0E658F34F80838091770C8160E8
:104C80008093770C84E917C0E091780C81E08E0F57
:104C90008093780C8091BB00F0E0E658F34F80835E
:104CA0002091780C30E08091790C90E001972817E2
:104CB00039074CF685EC8093BC00FF91EF919F91F2
:104CC0008F913F912F910F900BBE0F900FBE0F90C1
:104CD0001F90189585EAEFCF0E94242C882341F07D
:104CE0000E94DB2B8091D80082608093D80081E005
:104CF00008950F931F93CF93DF9300D000D0CDB7CB
:104D0000DEB78C01DC0111968D919C9112970C9766
:104D1000F1F41A968C911A97803669F48C918295E9
:104D2000807F8093ED008091EF008F738093EF0080
:104D30001092EE001C92F801128680E00F900F9006
:104D40000F900F90DF91CF911F910F9108950E94C6
:104D5000E82B8F3F09F4A4C490E6D8011A969C93DF
:104D60001A978C938295807F8093ED00EEEEF0E0B1
:104D70001192E83FF105E1F7D8011196ED91FC9110
:104D800012973197EB30F10508F086C4E653F94DE0
:104D90000C94E82C13277C27EA274D287F28B72876
:104DA000F2288829062AD526A92A80E0F8019781C9
:104DB000891708F4C2C319821A821B821C821092BE
:104DC000F7008B81880F880F880F9A8192959695AE
:104DD0009770890F8093F6008A81880F880F880F5B
:104DE0009981929596959770890F8093F5008981A6
:104DF000880F880F880F8093F4008091EF009781CF
:104E0000892B8093EF0081E083878091F400846098
:104E10008093F4008091F00084608093F000809192
:104E2000EF008062DCC1F8018485882309F43FC06B
:104E30008681880F880F880F958192959695977037
:104E4000890F8093F3008581880F880F880F9481E4
:104E5000929596959770890F8093F2008481880FC0
:104E6000880F880F9381929596959770890F8093FC
:104E7000F1008381880F880F880F8093F000809164
:104E8000EF0080618093EF0080E0F801978189173F
:104E900018F18385882361F18091F000846080930C
:104EA000F0008091EF00D80117969C9164C0848136
:104EB0008295880F807E9381969596959695890F19
:104EC0008093F30083818295880F807E8093F20027
:104ED0008091EF008F7ED6CFD8011896ED91FC918E
:104EE0001997E80FF11D90819093FA008F5FCDCF55
:104EF0008091F0008B7FD3CFF8018485882309F45B
:104F000048C08681880F880F880F95819295969565
:104F10009770890F8093F3008581880F880F880F21
:104F20009481929596959770890F8093F200848171
:104F3000880F880F880F9381929596959770890FA7
:104F40008093F1008381880F880F880F8093F00091
:104F50008091EF0080618093EF0080E0F8019781FD
:104F6000891760F113868091F0008B7F8093F000A9
:104F70008091EF009781892B8093EF008091EF0063
:104F80008F738093EF008091EF0080648093EF0037
:104F9000D4CE84818295880F807E93819695969554
:104FA0009695890F8093F30083818295880F807E88
:104FB0008093F2008091EF008F7ECDCFD8011896BC
:104FC000ED91FC911997E80FF11D90819093FA00F3
:104FD0008F5FC4CFD8011C968C911C97882309F44D
:104FE00046C016968C911697880F880F880F1596D5
:104FF0009C911597929596959770890F8093F300E1
:1050000015968C911597880F880F880F14969C9190
:105010001497929596959770890F8093F200149645
:105020008C911497880F880F880F13969C91139773
:10503000929596959770890F8093F10013968C91B5
:10504000880F880F880F8093F0008091EF008061B7
:105050008093EF0081E0D8011B968C931B97809181
:10506000F00084608093F0008091EF001DCFF80184
:1050700084818295880F807E9381969596959695EA
:10508000890F8093F30083818295880F807E8093BF
:10509000F2008091EF008F7EDBCF19821A821B8293
:1050A0001C821092F7008B81880F880F880F9A81DD
:1050B000929596959770890F8093F6008A81880F54
:1050C000880F880F9981929596959770890F809394
:1050D000F5008981880F880F880F8093F4008091F4
:1050E000EF00F8019781892B8093EF008091F40005
:1050F0008B7F8093F4008091F4008E7FE8C019824A
:105100001A821B821C821092F7008B81880F880FF5
:10511000880F9A81929596959770890F8093F600E3
:105120008A81880F880F880F99819295969597703C
:10513000890F8093F5008981880F880F880F8093ED
:10514000F4008091EF00D80117969C911797892B56
:105150008093EF001B961C928091F40084608093F2
:10516000F4008091F0008B7F8093F000C4CF19820F
:105170001A821B821C821092F7008B81880F880F85
:10518000880F9A81929596959770890F8093F60073
:105190008A81880F880F880F9981929596959770CC
:1051A000890F8093F5008981880F880F880F80937D
:1051B000F4008091EF00F8019781892B8093EF0034
:1051C00081E083878091F40084608093F400809173
:1051D000F00084608093F0008091EF008F7D8093D9
:1051E000EF0089CFD8011C968C911C97882309F475
:1051F00079C016968C911697880F880F880F159690
:105200009C911597929596959770890F8093F300CE
:1052100015968C911597880F880F880F14969C917E
:105220001497929596959770890F8093F200149633
:105230008C911497880F880F880F13969C91139761
:10524000929596959770890F8093F10013968C91A3
:10525000880F880F880F8093F0008091EF008061A5
:105260008093EF008FEF9FEFDC0189839A83AB83FC
:10527000BC838093F7008B81880F880F880F9A81F9
:10528000929596959770890F8093F6008A81880F82
:10529000880F880F9981929596959770890F8093C2
:1052A000F5008981880F880F880F8093F400809122
:1052B000EF00D80117969C91892B8093EF00809185
:1052C000F4008B7F8093F4008091F40081608093E0
:1052D000F4008091EF008F738093EF008091EF00D6
:1052E000806854CEF80184818295880F807E9381F6
:1052F000969596959695890F8093F3008381829574
:10530000880F807E8093F2008091EF008F7EA8CF7F
:10531000F8018485882309F464C08681880F880F8A
:10532000880F9581929596959770890F8093F300D9
:105330008581880F880F880F948192959695977034
:10534000890F8093F2008481880F880F880F9381E2
:10535000929596959770890F8093F1008381880FBD
:10536000880F880F8093F0008091EF008061809318
:10537000EF008FEF9FEFDC0189839A83AB83BC83BF
:105380008093F7008B81880F880F880F9A81929500
:1053900096959770890F8093F6008A81880F880F01
:1053A000880F9981929596959770890F8093F50053
:1053B0008981880F880F880F8093F4008091EF0017
:1053C000F8019781892B8093EF0013868091F40078
:1053D00084608093F4008091F0008B7F8093F000D4
:1053E00073CF84818295880F807E93819695969560
:1053F0009695890F8093F30083818295880F807E34
:105400008093F2008091EF008F7EB1CFD8011C967F
:105410008C911C97882309F47AC016968C91169764
:10542000880F880F880F15969C91159792959695E1
:105430009770890F8093F30015968C911597880FBC
:10544000880F880F14969C91149792959695977053
:10545000890F8093F20014968C911497880F880F0F
:10546000880F13969C911397929596959770890F34
:105470008093F10013968C91880F880F880F80938A
:10548000F0008091EF0080618093EF008FEF9FEF3D
:10549000DC0189839A83AB83BC838093F7008B8183
:1054A000880F880F880F9A81929596959770890F2B
:1054B0008093F6008A81880F880F880F99819295D2
:1054C00096959770890F8093F5008981880F880FD2
:1054D000880F8093F4008091EF00D80117969C917B
:1054E0001797892B8093EF0081E01B968C93809116
:1054F000F40084608093F4008091F00084608093D5
:10550000F0008091EF008F7D8093EF00DDCEF801F9
:1055100084818295880F807E938196959695969545
:10552000890F8093F30083818295880F807E80931A
:10553000F2008091EF008F7EA7CFD8011896ED91F1
:10554000FC911997E80FF11D90819093FA008F5FFD
:105550002DCCD8011C968C911C97882309F47AC015
:1055600016968C911697880F880F880F15969C9128
:105570001597929596959770890F8093F3001596DD
:105580008C911597880F880F880F14969C9114970B
:10559000929596959770890F8093F20014968C914E
:1055A0001497880F880F880F13969C9113979295E4
:1055B00096959770890F8093F10013968C91880FC0
:1055C000880F880F8093F0008091EF0080618093B6
:1055D000EF0080E0F8019781891708F451C08FEF40
:1055E0009FEFDC0189839A83AB83BC838093F700B0
:1055F0008B81880F880F880F9A8192959695977066
:10560000890F8093F6008A81880F880F880F99810F
:10561000929596959770890F8093F5008981880FF0
:10562000880F880F8093F4008091EF009781892B79
:105630008093EF0081E083878091F4008460809301
:10564000F4008091F00084608093F0008091EF007E
:1056500080625ACFF80184818295880F807E938181
:10566000969596959695890F8093F3008381829500
:10567000880F807E8093F2008091EF008F7EA7CF0D
:10568000D8011896ED91FC911997E80FF11D9081C2
:105690009093FA008F5F9ECFD8011A961C924DCB43
:1056A0009FE1F80192874ACB1F93CF93DF93EC01E0
:1056B0008A858823D1F08F31C1F08F3FB1F0888186
:1056C0008295807F8093ED000E94FD2B182F803201
:1056D00099F068F4882309F46CC01A878091EF0070
:1056E0008F738093EF001092EE0082E04CC0803404
:1056F00009F440C0803A89F78091EF008F708F8362
:10570000888599850E94102C8091F00082FB882763
:1057100080F98B878091EF0084FF39C081E08C870E
:105720008091F3008695869586958E838091F20010
:105730009091F3008695869586959295990F907E27
:10574000890F8D838091F1009091F2008695869566
:1057500086959295990F907E890F8C838091F000A9
:105760009091F1008695869586959295990F907EF9
:10577000890F8B831A878091EF008F738093EF00DE
:105780001092EE0080E0DF91CF911F9108951C866A
:105790008091F3008295869587708C838091F200CA
:1057A0009091F300829586958770990F990F990FC4
:1057B000DFCF81E0E8CF80E08093ED00EEEEF0E017
:1057C0001192E83FF105E1F7805F8036A9F708956F
:1057D0003091ED0090E080E09093ED002091EF009B
:1057E000207C19F43093ED0008958F5F905F863030
:1057F00099F73093ED008FEF08958091EF00807C52
:1058000069F09091EE00892F807E803241F08034E3
:1058100031F0803A21F0892F8F7108958FEF08952C
:10582000BC0190E02091EF00492F50E02F7030E054
:10583000421753070CF008958091FA00460F571F46
:10584000FA0180839F5FEECF81E08093D80088E0EB
:105850008093E2008CE08093E30087E38093E40090
:1058600081E00895681708F4682F862F089587EB64
:1058700093E09EBF8DBF40E051E060E070E087EBB9
:1058800094E00E943F1E811108C00E945C250E9486
:10589000501C811102C00E94731E8FEF81B992B11A
:1058A00081E0911180E082B9FACFDB018F939F9361
:1058B0000E94F12CBF91AF91A29F800D911DA39FDB
:1058C000900DB29F900D11240895991B79E004C0AA
:1058D000991F961708F0961B881F7A95C9F780952F
:1058E000089587FB082E062687FD819567FD619543
:1058F0000E94652C0EF4919507FC81950895AA1BD2
:10590000BB1B51E107C0AA1FBB1FA617B70710F0AA
:10591000A61BB70B881F991F5A95A9F780959095DC
:10592000BC01CD01089597FB072E16F4009407D013
:1059300077FD09D00E947F2C07FC05D03EF490959E
:1059400081959F4F0895709561957F4F0895A1E2CD
:105950001A2EAA1BBB1BFD010DC0AA1FBB1FEE1FE9
:10596000FF1FA217B307E407F50720F0A21BB30B34
:10597000E40BF50B661F771F881F991F1A9469F7B0
:1059800060957095809590959B01AC01BD01CF010C
:105990000895052E97FB1EF400940E94E02C57FDFD
:1059A00007D00E94A72C07FC03D04EF40C94E02CE7
:1059B00050954095309521953F4F4F4F5F4F08953B
:1059C00090958095709561957F4F8F4F9F4F08956B
:1059D000EE0FFF1F0024001C0BBE0790F691E02D78
:1059E00009940E94FC2CA59F900DB49F900DA49F3C
:1059F000800D911D11240895A29FB001B39FC00195
:105A0000A39F700D811D1124911DB29F700D811DEA
:105A10001124911D08955058BB27AA270E94232DB9
:105A20000C949D2E0E948F2E38F00E94962E20F00E
:105A300039F49F3F19F426F40C948C2E0EF4E09563
:105A4000E7FB0C94862EE92F0E94AE2E58F3BA176E
:105A5000620773078407950720F079F4A6F50C9484
:105A6000D02E0EF4E0950B2EBA2FA02D0B01B9010C
:105A700090010C01CA01A0011124FF27591B99F0C4
:105A8000593F50F4503E68F11A16F040A22F232FD0
:105A9000342F4427585FF3CF469537952795A79520
:105AA000F0405395C9F77EF41F16BA0B620B730BC7
:105AB000840BBAF09150A1F0FF0FBB1F661F771F38
:105AC000881FC2F70EC0BA0F621F731F841F48F4ED
:105AD000879577956795B795F7959E3F08F0B0CF76
