:100000000C944A000C9469000C9469000C946900EB
:100010000C9469000C9469000C9469000C946900BC
:100020000C9469000C9469000C9469000C946900AC
:100030000C947E250C9469000C9469000C94690062
:100040000C9469000C9469000C9469000C9469008C
:100050000C9469000C9469000C9469000C9469007C
:100060000C9469000C9469000C9469000C9469006C
:100070000C9469000C9469000C9469000C9469005C
:100080000C9469000C9469000C9469000C940E2681
:100090000C94690011241FBECFEFD0E1DEBFCDBFAD
:1000A00012E0A0E0B1E0E8E3F5E600E00BBF02C03B
:1000B00007900D92A23FB107D9F72EE0A2EFB2E070
:1000C00001C01D92A83BB207E1F70E944C2C0C9492
:1000D0009A320C94AB25CF93DF9300D000D0CDB7EC
:1000E000DEB71B821C8281E789831A8240E050E0E0
:1000F000BA0181EB9EE00E94472062E0CE010196AA
:100100000E94CA2562E0CE0103960E94F72581EB8A
:100110009EE00E94DF208C8180FF0DC01092580E5F
:1001200083FF0DC01092FD0D0F900F900F900F9058
:10013000DF91CF91089591E09093580EF1CF81E037
:100140008093FD0DF1CFCF93DF9300D000D000D08E
:10015000CDB7DEB78091010190910201A09103011A
:10016000B091040189839A83AB83BC8340E050E063
:10017000BA0181EB9EE00E94472064E0CE01019627
:100180000E94CA2580E98D831E8262E0CE01059619
:100190000E94CA2581EB9EE00E94DF2026960FB6C2
:1001A000F894DEBF0FBECDBFDF91CF910895CF93FE
:1001B000DF9300D000D000D0CDB7DEB7809105012D
:1001C00090910601A0910701B091080189839A835B
:1001D000AB83BC8340E050E0BA0181EB9EE00E941B
:1001E000472064E0CE0101960E94CA2588E88D83ED
:1001F00081E08E831092310D1092300D62E0CE01BD
:1002000005960E94CA2581EB9EE00E94DF2026967B
:100210000FB6F894DEBF0FBECDBFDF91CF9108952A
:10022000CF93DF9300D0CDB7DEB788E8898381E034
:100230008A8340E050E0BA0181EB9EE00E944720B3
:1002400062E0CE0101960E94CA2581EB9EE00E94E9
:10025000DF200F900F90DF91CF9108951F93CF93E0
:10026000DF9300D000D000D0CDB7DEB70E941001E0
:1002700019E81C831D821E8240E050E0BA0181EB28
:100280009EE00E94472063E0CE0104960E94CA25AA
:1002900019831A821B8263E0CE0101960E94F72522
:1002A00081EB9EE00E94DF208A8190E0982F8827D2
:1002B0002B81820F911D26960FB6F894DEBF0FBEDC
:1002C000CDBFDF91CF911F910895CF93DF9300D0E1
:1002D000CDB7DEB788E8898382E08A8340E050E0CA
:1002E000BA0181EB9EE00E94472062E0CE010196B8
:1002F0000E94CA2581EB9EE00E94DF200F900F90A4
:10030000DF91CF9108951F93CF93DF9300D000D05A
:1003100000D0CDB7DEB70E94650119E81C831D82AD
:100320001E8240E050E0BA0181EB9EE00E9447202F
:1003300063E0CE0104960E94CA2519831A821B82AB
:1003400063E0CE0101960E94F72581EB9EE00E94BA
:10035000DF208A8190E0982F88272B81820F911DC2
:1003600026960FB6F894DEBF0FBECDBFDF91CF91BA
:100370001F9108951F93CF93DF9300D000D000D03A
:10038000CDB7DEB711E91C831D821E8240E050E02C
:10039000BA0181EB9EE00E94472063E0CE01049603
:1003A0000E94CA2519831A821B8263E0CE0101963E
:1003B0000E94F72581EB9EE00E94DF208A8190E079
:1003C000982F88272B81820F911D26960FB6F894BF
:1003D000DEBF0FBECDBFDF91CF911F910895CF93A8
:1003E000DF9300D0CDB7DEB780E789838BEF8A83B8
:1003F00040E050E0BA0181EB9EE00E94472062E0BD
:10040000CE0101960E94CA2581EB9EE00E94DF206A
:100410000F900F90DF91CF910895CF93DF9300D08D
:10042000CDB7DEB780E789838FEF8A8340E050E065
:10043000BA0181EB9EE00E94472062E0CE01019666
:100440000E94CA2581EB9EE00E94DF200F900F9052
:10045000DF91CF910895FF920F931F93CF93DF9376
:1004600000D000D01F92CDB7DEB7F82E162F042F84
:1004700040E050E0BA0181EB9EE00E94472080E41A
:100480008983612F6C60402F50E0440F551F8F2DE2
:10049000807F842B862B8A8328E02B8330E1F39E98
:1004A000C0011124642B682B6C832D8365E0CE0181
:1004B00001960E94CA2581EB9EE00E94DF200F90EA
:1004C0000F900F900F900F90DF91CF911F910F9190
:1004D000FF90089540E060E088E20E942B0240E037
:1004E00060E08EE00E942B0240E060E086E00C9429
:1004F0002B020F931F93CF93DF9300D000D0CDB783
:10050000DEB700E40B8318E01C8340E050E0BA0142
:1005100081EB9EE00E94472062E0CE0103960E949C
:10052000CA2568E270E080E090E00E94FB21098328
:100530008CE28A8362E0CE0101960E94CA251A836A
:1005400062E0CE0101960E94CA2581EB9EE00E94E6
:10055000DF200E946A020F900F900F900F90DF91A2
:10056000CF911F910F910895CF93DF9300D0CDB716
:10057000DEB78091720D882369F040E060E088E08A
:100580000E942B0280E489831A8262E0CE010196E8
:100590000E94CA251092720D0F900F90DF91CF919B
:1005A00008950F931F93CF93DF93EC018C01060FF7
:1005B000111DC017D10729F4DF91CF911F910F9121
:1005C000089540E061E089910E942B02F2CFCF9321
:1005D000DF9300D0CDB7DEB7880F89831A8240E061
:1005E00050E0BA0181EB9EE00E94472062E0CE011C
:1005F00001960E94CA2581EB9EE00E94DF200F90A9
:100600000F90DF91CF910895CF93DF9300D0CDB7B6
:10061000DEB7880F898381E08A8340E050E0BA0129
:1006200081EB9EE00E94472062E0CE0101960E948D
:10063000CA2581EB9EE00E94DF200F900F90DF9192
:10064000CF9108950F931F93CF93DF9300D000D0E5
:1006500000D0CDB7DEB7982F990F9C8390E39D8390
:1006600093E09E83880F816089831A821B8240E019
:1006700050E0BA0181EB9EE00E94472063E0CE018A
:1006800004960E94CA2563E0CE0101960E94CA2505
:1006900063E0CE0101960E94F7250A811B8181EB60
:1006A0009EE00E94DF20C80126960FB6F894DEBFB8
:1006B0000FBECDBFDF91CF911F910F910895CF93C2
:1006C0001092530E40E050E0BA0181EB9EE00E9490
:1006D0004720C1E080E98C0F8230A8F08C2F0E9467
:1006E0002203853A954A79F48091530E803158F46B
:1006F000E091530EF0E0E05EF24FC0838091530E24
:100700008F5F8093530ECF5FC03821F781EB9EE05F
:10071000CF910C94DF200F931F93CF93DF93CDB72E
:10072000DEB728970FB6F894DEBF0FBECDBF182FE7
:10073000880F8E8380E38F831886812F880F8160D6
:1007400089831A821B821C821D8240E050E0BA011C
:1007500081EB9EE00E94472063E0CE0106960E9456
:10076000CA2565E0CE0101960E94CA2565E0CE014A
:1007700001960E94F72505E0812F0E942203853A09
:10078000954AA1F58C8190E0982F88272D81820FC2
:10079000911D9093DD0C8093DC0C05E0812F0E946D
:1007A0002203853A954A29F58A8190E0982F882777
:1007B0002B81820F911D90931E0D80931D0D81EB57
:1007C0009EE00E94DF2060911D0D70911E0D8091B2
:1007D000DC0C9091DD0C28960FB6F894DEBF0FBEAE
:1007E000CDBFDF91CF911F910F910895015021F658
:1007F000D4CF015099F6E3CFEF92FF920F931F935E
:10080000CF93DF93CDB7DEB728970FB6F894DEBF4E
:100810000FBECDBF982F990F9E8390E39F8392E0E8
:100820009887880F816089831A821B821C821D82AF
:1008300040E050E0BA0181EB9EE00E94472063E077
:10084000CE0106960E94CA2565E0CE0101960E945F
:10085000CA2565E0CE0101960E94F7250C811D8115
:10086000102701271027EA80FB80FE24EF24FE24B6
:1008700081EB9EE00E94DF20B701C80128960FB6E9
:10088000F894DEBF0FBECDBFDF91CF911F910F91C6
:10089000FF90EF900895EF92FF920F931F93CF93E5
:1008A000DF93CDB7DEB728970FB6F894DEBF0FBE43
:1008B000CDBF982F990F9E8390E39F8391E09887F7
:1008C000880F816089831A821B821C821D8240E00E
:1008D00050E0BA0181EB9EE00E94472063E0CE0128
:1008E00006960E94CA2565E0CE0101960E94CA259F
:1008F00065E0CE0101960E94F7251D810C81FB80E9
:10090000EA8081EB9EE00E94DF20B701C8012896B3
:100910000FB6F894DEBF0FBECDBFDF91CF911F9110
:100920000F91FF90EF9008951F93CF93DF9310E006
:10093000C12F012E000CDD0B8091530E90E0C817E3
:10094000D90724F0DF91CF911F910895FE01E05E59
:10095000F24F80810E944B04FE01EE0FFF1FEE0F4D
:10096000FF1FEB55F24F608371838283938361E0B5
:1009700070E080E090E00E94FB211F5FD9CF81EB07
:100980009EE00E94F51F0E94B52540E050E0BA01AC
:1009900081EB9EE00E9447200E945F030E940D02AF
:1009A00064E670E080E090E00E94FB210E949404E5
:1009B00081EB9EE00C94DF2040E060E080E80E9444
:1009C0002B020E946A0264E18DE59DE00E94D10243
:1009D00064E185EE9DE00E94D10264E186EE9CE038
:1009E0000E94D10264E187E99EE00C94D10284E187
:1009F000E0E9F1E0ABE8BDE001900D928A95E1F706
:100A000084E1E0E9F1E0A7E0BEE001900D928A9573
:100A1000E1F784E1E0E9F1E0AAE3BEE001900D92A4
:100A20008A95E1F784E1E0E9F1E0AEE1BEE0019012
:100A30000D928A95E1F708954F925F926F927F929F
:100A40008F929F92AF92BF92CF92DF92EF92FF92DE
:100A50001F93CF93DF93CDB7DEB728970FB6F894E7
:100A6000DEBF0FBECDBF0E94F70486E0E7ECF1E0E9
:100A7000ABE8BDE001900D928A95E1F784E0EEECE1
:100A8000F1E0A7E9BDE001900D928A95E1F785E2DA
:100A900080939E0D86E59AE39093080E8093070E4F
:100AA00081E49AE390930F0E80930E0E86E0E3EDBF
:100AB000F1E0AAE3BEE001900D928A95E1F785E0AE
:100AC000EAEDF1E0A1E4BEE001900D928A95E1F734
:100AD0008DE49EE390931F0E80931E0E80914D0D2A
:100AE00090914E0D8230910509F4F6C140F40097C3
:100AF00009F400C2019771F065EA71E00DC084301D
:100B0000910509F4EFC108F4EAC10697A9F763EC6F
:100B100071E002C06AEA71E0FB0101900020E9F790
:100B20003197AF01461B570B81E99DE00E945E2F74
:100B300086E78093200E80E38093210E4EE240935F
:100B4000220E81E38093230E86E38093240E80910E
:100B5000E50C24E6622F0E947A2C805D80939B0D29
:100B60008091E50C0E947A2C892F2AE0622F0E9446
:100B70007A2C805D80939C0D8091E50C0E947A2CEC
:100B8000905D90939D0D8091320E9091330E64E6AE
:100B900070E00E94A82C605D6093090E8091320E77
:100BA0009091330E2AE030E0B9010E94A82CCB01CD
:100BB000B9010E94A82C805D80930A0E40930B0E11
:100BC0008091320E9091330EB9010E94A82C805D65
:100BD00080930C0EC090320DD090330DE090340D08
:100BE000F090350D6091320D7091330D8091340D80
:100BF0009091350D0E943C2E20E030E0A9010E942A
:100C00008D2D87FF0CC08DE28093100EC701B601B9
:100C10000E943C2E90580E94042E6B017C01C7015B
:100C2000B60120EA36E841E050E00E94DE2C6AE09E
:100C3000862E912CA12CB12CCA01B901A5019401D9
:100C40000E94DE2C605D6093110EC701B60120E1A9
:100C500037E240E050E00E94DE2CCA01B901A50154
:100C600094010E94DE2C605D6093120EC701B601F4
:100C700028EE33E040E050E00E94DE2CCA01B901CA
:100C8000A50194010E94DE2C605D6093130E8EE23C
:100C90008093140EC701B60124E630E040E050E036
:100CA0000E94DE2CCA01B901A50194010E94DE2C2C
:100CB000605D6093150EC701B601A50194010E9405
:100CC000DE2C162FCA01B901A50194010E94DE2C69
:100CD000605D6093160E80E3810F8093170E809104
:100CE000380D882309F409C183E48093470E8CE40E
:100CF0008093480E8FE48093490E83E580934A0EDB
:100D000085E480934B0E84E480934C0E0E949521E1
:100D10006B017C0124E630E040E050E00E94BC2CF6
:100D200029833A834B835C83C701B60120E737E10F
:100D300040E050E00E94BC2C29013A01C701B601F5
:100D400020E43EE745E050E00E94BC2C2D833E832A
:100D50004F8358878CE3882E912CA12CB12C69816C
:100D60007A818B819C81A50194010E94BC2C6983AE
:100D70007A838B839C83C301B201A50194010E94F5
:100D8000BC2C2B013C016D817E818F81988528E1EF
:100D900030E040E050E00E94BC2C6D837E838F8366
:100DA00098879AE0892E912CA12CB12C69817A81A7
:100DB0008B819C81A50194010E94BC2C605D609395
:100DC000310E205D2093300E1AE310932F0EC301D5
:100DD000B201A50194010E94BC2C605D60932E0EAF
:100DE000205D20932D0E10932C0E6D817E818F81BE
:100DF0009885A50194010E94BC2C605D60932B0E28
:100E0000205D20932A0E1093290EC701B60120E021
:100E100036ED43E850E00E94BC2CCA01B901A5019F
:100E200094010E94BC2C605D6093280EC701B6013E
:100E300020E03CE546E255E00E94BC2CCA01B90125
:100E4000A50194010E94BC2C605D6093270EC70130
:100E5000B60120E038E94FE753E30E94BC2C205D47
:100E60002093260E84E1EBE8FDE0ADE5BDE00190C6
:100E70000D928A95E1F784E1E7E0FEE0A5EEBDE0A2
:100E800001900D928A95E1F784E1EAE3FEE0A6EE97
:100E9000BCE001900D928A95E1F784E1EEE1FEE07D
:100EA000A7E9BEE001900D928A95E1F728960FB66A
:100EB000F894DEBF0FBECDBFDF91CF911F91FF90A1
:100EC000EF90DF90CF90BF90AF909F908F907F90EA
:100ED0006F905F904F9008956FEA71E01DCE65EBC3
:100EE00071E01ACE8091A10D805D8093950D6AEB23
:100EF00071E012CE6EEB71E00FCE8FE48093470E5F
:100F000080E58093480E85E48093490E8EE48093BB
:100F10004A0E80E280934B0EF7CEAF92BF92CF92F3
:100F2000DF92EF92FF920F931F93CF93DF93C82F1F
:100F30000E94F70486E0E7ECF1E0ABE8BDE0019049
:100F40000D928A95E1F707E01EE093E4D8019C93A7
:100F500080E38C0F11968C9311975FE512965C934A
:100F6000129726E513962C9313974AE314964C9305
:100F70002AE33EE0F90190838183528354E5538351
:100F80004483AEE1BEE040E54C934FE211964C93B2
:100F9000119712969C93129713968C9313978EE346
:100FA00014968C93EC2FF0E0EE0FFF1FEF01C75A61
:100FB000D14F8881998148EEE42E43E0F42EB701A9
:100FC0000E94942C605DD80115966C9315974EE2A3
:100FD00016964C9388819981B7010E94942C54E60F
:100FE000A52EB12CB5010E94942C605DD8011796F6
:100FF0006C9388819981B7010E94942CB5010E945D
:10100000942C6AE0C62ED12CB6010E94942C605D0F
:10101000D80118966C9388819981B6010E94942C0E
:10102000805DD80119968C93E55CF24F80819181A7
:10103000B7010E94942C605DD90115966C93808154
:101040009181B7010E94942CB5010E94942C605D9F
:10105000D90116966C9380819181B7010E94942CDE
:10106000B5010E94942CB6010E94942C605DD901B8
:1010700017966C93179718964C9380819181B601BF
:101080000E94942C805DF901818784E1EBE8FDE00A
:10109000ADE5BDE001900D928A95E1F784E1F8019C
:1010A000A5EEBDE001900D928A95E1F784E1F9018A
:1010B000A6EEBCE001900D928A95E1F784E1EEE1A5
:1010C000FEE0A7E9BEE001900D928A95E1F7DF917D
:1010D000CF911F910F91FF90EF90DF90CF90BF9035
:1010E000AF900895AF92BF92CF92DF92EF92FF92AE
:1010F0000F931F93CF93DF93C82F0E94F70485E0CF
:10110000E0EEF1E0ABE8BDE001900D928A95E1F7E9
:1011100085E0E6EEF1E0A5E9BDE001900D928A954B
:10112000E1F785E0ECEEF1E0A7E0BEE001900D9282
:101130008A95E1F785E0E2EFF1E0AAE3BEE00190F5
:101140000D928A95E1F787E0E8EFF1E0A4E4BEE0D4
:1011500001900D928A95E1F783E0E0E0F2E0AEE1E4
:10116000BEE001900D928A95E1F780E38C0F8093A9
:10117000210E83E0E4E0F2E0A2E2BEE001900D92F5
:101180008A95E1F73EE4E32E3EE0F32E49E7A42EF4
:101190004DE0B42EF501670180E2D6018D936D011B
:1011A0008193B3E5CB16BEE0DB06B9F7D0E08E0144
:1011B000000F111FF801E158F14F808191814AE041
:1011C0006EE47EE00E94672FF801E15BF24F8081C0
:1011D00091814AE069E77DE00E94672F80E2F70194
:1011E0009081911101C08083D5019C91911101C022
:1011F0008C93BFEFEB1AFB0AEFEFAE1ABE0ACE14C8
:10120000DF0469F780914E0E80930C0E80914F0E93
:1012100080930D0E8091500E80930E0E8091510E92
:1012200080930F0E8091520E8093100E8091790D55
:101230008093900D80917A0D8093910D80917B0D1C
:101240008093920D80917C0D8093930D80917D0D04
:101250008093940DF801E359F14F8081918164E608
:1012600070E00E94942C2AE030E0B9010E94942C96
:10127000605D60939A0D80819181B9010E94942CE8
:10128000805D80939B0D8E01000F111F000F111FB9
:10129000C8018650934F7C01DC016D917D918D9149
:1012A0009C910E94042E605D6093160E8EE28093E6
:1012B000170EF701608171818281938120E030E017
:1012C00040E251E40E94F12E0E94042E862F9AE003
:1012D000D92E6D2D0E94862C905D9093180ED7010B
:1012E0006D917D918D919C9120E030E048EC52E42D
:1012F0000E94F12E0E94042E862F6D2D0E94862CB6
:10130000905D9093190EF7016081718182819381C4
:1013100020E030E04AE754E40E94F12E0E94042EBF
:10132000862F6D2D0E94862C97FD7BC0F701808152
:101330009181A281B381608171818281938120E05A
:1013400030E04AE754E40E94F12E0E94042E862FDA
:101350006D2D0E94862C905D90931A0EC05ED24F28
:1013600088811F928F938AE092E09F938F9386E10A
:101370009DE09F938F930E948C2F8091160D8093F8
:101380004B0E8091170D80934C0E8091180D809319
:101390004D0EF801EB55F24F8081805D80933F0E3A
:1013A0008181805D8093400E8281805D8093410EBB
:1013B0008381805D8093420E84E1EBE8FDE0ADE542
:1013C000BDE001900D928A95E1F784E1E7E0FEE04F
:1013D000A5EEBDE001900D928A95E1F784E1EAE384
:1013E000FEE0A6EEBCE001900D928A95E1F784E163
:1013F000EEE1FEE0A7E9BEE001900D928A95E1F7EB
:101400000F900F900F900F900F900F90DF91CF9152
:101410001F910F91FF90EF90DF90CF90BF90AF9012
:10142000089580E280931A0E99CF0E94F70480916C
:101430009F0D81113CC087E0EFE0F2E0ABE8BDE03A
:1014400001900D928A95E1F788E0E7E1F2E0A3E9E7
:10145000BDE001900D928A95E1F784E1EBE8FDE0B3
:10146000ADE5BDE001900D928A95E1F784E1E7E0FA
:10147000FEE0A5EEBDE001900D928A95E1F784E1D2
:10148000EAE3FEE0A6EEBCE001900D928A95E1F75A
:1014900084E1EEE1FEE0A7E9BEE001900D928A95BD
:1014A000E1F766E970E080E090E00C94FB2184E0D5
:1014B000E0E2F2E0ABE8BDE001900D928A95E1F741
:1014C00087E0E5E2F2E0A0E9BDE0C3CF0E94F704C7
:1014D00085E0EDE2F2E0ABE8BDE001900D928A9587
:1014E000E1F789E0E3E3F2E0A1E9BDE001900D92CC
:1014F0008A95E1F784E1EBE8FDE0ADE5BDE0019020
:101500000D928A95E1F784E1E7E0FEE0A5EEBDE00B
:1015100001900D928A95E1F784E1EAE3FEE0A6EE00
:10152000BCE001900D928A95E1F784E1EEE1FEE0E6
:10153000A7E9BEE001900D928A95E1F766E970E0B7
:1015400080E090E00C94FB210F931F930E94952163
:101550006093F90D7093FA0D8093FB0D9093FC0D41
:101560000E94F70485E0EDE3F2E0ABE8BDE0019016
:101570000D928A95E1F784E59FE49093920D809314
:10158000910D27E0E3E4F2E0A4E9BDE001900D92C3
:101590002A95E1F723E0EBE4F2E0AAE3BEE0019054
:1015A0000D922A95E1F725E0EFE4F2E0AEE3BEE02C
:1015B00001900D922A95E1F726E0E5E5F2E0A4E43A
:1015C000BEE001900D922A95E1F79093080E80936A
:1015D000070E84E0ECE5F2E0AAE0BEE001900D9297
:1015E0008A95E1F787E0E1E6F2E0AFE0BEE0019046
:1015F0000D928A95E1F784E1EBE8FDE0ADE5BDE011
:1016000001900D928A95E1F784E1E7E0FEE0A5EE16
:10161000BDE001900D928A95E1F784E1EAE3FEE0F6
:10162000A6EEBCE001900D928A95E1F784E1EEE12F
:10163000FEE0A7E9BEE001900D928A95E1F70E94D5
:1016400095210091F90D1091FA0D2091FB0D30912B
:10165000FC0D601B710B820B930B6034764081058F
:10166000910530F480917D0E882331F010927D0E2B
:1016700080E01F910F9108958091380E882319F012
:101680001092380EF5CF189B07C06AE070E080E03A
:1016900090E00E94FB21D3CF81E0EBCFCF92DF928D
:1016A000EF92FF920F931F93CF93DF930E94F70463
:1016B00086E0E9E6F2E0ABE8BDE001900D928A95A4
:1016C000E1F786E0E0E7F2E0A2E9BDE001900D92EB
:1016D0008A95E1F784E0E7E7F2E0AAE3BEE0019053
:1016E0000D928A95E1F785E0ECE7F2E0A7E0BEE035
:1016F00001900D928A95E1F784E0E2E8F2E0A2E140
:10170000BEE001900D928A95E1F711E01093B90CBB
:101710008091B90C1F928F93C7E8D2E0DF93CF93EB
:101720008BE69EE09F938F930E948C2F8091B90C43
:101730001F928F93DF93CF938BE19EE09F938F93C4
:101740000E948C2F80916B0E80930C0E80916C0EFA
:1017500080930D0E80911B0E8093160E80911C0EAF
:101760008093170E84E1EBE8FDE0ADE5BDE001906C
:101770000D928A95E1F784E1E7E0FEE0A5EEBDE099
:1017800001900D928A95E1F784E1EAE3FEE0A6EE8E
:10179000BCE001900D928A95E1F784E1EEE1FEE074
:1017A000A7E9BEE001900D928A95E1F76AE070E04A
:1017B00080E090E00E94FB211093FE0D8DB79EB754
:1017C0000C960FB6F8949EBF0FBE8DBF8E01CBE175
:1017D000DEE00E949521C090F90DD090FA0DE090C6
:1017E000FB0DF090FC0D6C197D098E099F0960348A
:1017F00076408105910508F006C280917D0E882310
:1018000009F485C00E9495216093F90D7093FA0D3B
:101810008093FB0D9093FC0D8091FE0D8F5F809364
:10182000FE0D8091FE0D8093B90C8091B90C1F9232
:101830008F931F930F93DF93CF930E948C2F10925F
:101840007D0E0F900F900F900F900F900F90809142
:101850006B0E80930C0E80916C0E80930D0E809118
:101860001B0E8093160E80911C0E8093170E84E140
:10187000EBE8FDE0ADE5BDE001900D928A95E1F762
:1018800084E1E7E0FEE0A5EEBDE001900D928A95CF
:10189000E1F784E1EAE3FEE0A6EEBCE001900D9200
:1018A0008A95E1F784E1EEE1FEE0A7E9BEE0019070
:1018B0000D928A95E1F718994FC00E949521609387
:1018C000F90D7093FA0D8093FB0D9093FC0D80E061
:1018D00090E0FC01E555F14F30812091B90C3213B5
:1018E00008C020919F0D2223F1F12091B90C2330E3
:1018F000D1F101968630910561F7DF91CF911F916B
:101900000F91FF90EF90DF90CF900C94150A80918B
:10191000380E882309F49BCF0E9495216093F90D1E
:101920007093FA0D8093FB0D9093FC0D8091FE0D4A
:1019300081508093FE0D8091FE0D8093B90C8091B3
:10194000B90C1F928F931F930F93DF93CF930E9435
:101950008C2F1092380E75CF6AE070E080E090E036
:101960000E94FB2136CF0E94F70486E0E9E6F2E010
:10197000ABE8BDE001900D928A95E1F786E0E0E7E3
:10198000F2E0A2E9BDE001900D928A95E1F783E0D3
:10199000ECE8F2E0AAE3BEE001900D928A95E1F74F
:1019A00085E0ECE7F2E0A7E0BEE001900D928A95B9
:1019B000E1F784E0E2E8F2E0A2E1BEE001900D92FE
:1019C0008A95E1F788E0E0E9F2E0AEE1BEE001905F
:1019D0000D928A95E1F7C091B90CC23009F4CEC0DE
:1019E000C33009F4CEC0C13021F480911F0D809323
:1019F000B90C8091B90C1F928F9307E812E01F93E6
:101A00000F938BE69EE09F938F930E948C2F809183
:101A1000B90C1F928F931F930F938BE19EE09F93BE
:101A20008F930E948C2F90916B0E90930C0E80914F
:101A30006C0E80930D0E20911B0E2093160E20919C
:101A40001C0E2093170E9093260E8093270E84E190
:101A5000EBE8FDE0ADE5BDE001900D928A95E1F780
:101A600084E1E7E0FEE0A5EEBDE001900D928A95ED
:101A7000E1F784E1EAE3FEE0A6EEBCE001900D921E
:101A80008A95E1F784E1EEE1FEE0A7E9BEE001908E
:101A90000D928A95E1F76FE070E080E090E00E949F
:101AA000FB218091B90C8093FE0D8DB79EB70C96EB
:101AB0000FB6F8949EBF0FBE8DBF8BE1E82E8EE06F
:101AC000F82E80917D0E882309F45DC08091FE0D73
:101AD0008F5F8093FE0D8091FE0D8093B90C8091F5
:101AE000B90C1F928F931F930F93FF92EF920E9456
:101AF0008C2F10927D0E0F900F900F900F900F90E3
:101B00000F9080916B0E80930C0E80916C0E8093E1
:101B10000D0E80911B0E8093160E80911C0E8093EB
:101B2000170E84E1EBE8FDE0ADE5BDE001900D921C
:101B30008A95E1F784E1E7E0FEE0A5EEBDE00190E3
:101B40000D928A95E1F784E1EAE3FEE0A6EEBCE0BF
:101B500001900D928A95E1F784E1EEE1FEE0A7E9BC
:101B6000BEE001900D928A95E1F7189B27C06FE0C7
:101B700070E080E090E00E94FB21A3CF80917E0E78
:101B800036CF81E034CF8091380E882309F4B9CF65
:101B90008091FE0D81508093FE0D8091FE0D80930B
:101BA000B90C8091B90C1F928F931F930F93FF92E2
:101BB000EF920E948C2F1092380E9DCF64E670E059
:101BC00080E090E00E94FB21C330C9F464E170E042
:101BD00080E090E00E94FB21C230F1F0C33049F177
:101BE000C13089F46091B90C88E090E00E948D3298
:101BF00088E090E00E94853280931F0D04C00E940F
:101C0000A40A8111E3CFDF91CF911F910F91FF9033
:101C1000EF90DF90CF9008956091B90C89E090E04B
:101C20000E948D3289E090E00E94853280937E0E82
:101C3000EACF8091B90C853541F490919F0D81E0F8
:101C4000911180E080939F0DDECFDF91CF911F91A6
:101C50000F91FF90EF90DF90CF900C94660A0E9456
:101C6000F70485E0E9E9F2E0ABE8BDE001900D9210
:101C70008A95E1F784E0EFE9F2E0A1E9BDE00190A7
:101C80000D928A95E1F787E0E4EAF2E0A7E0BEE092
:101C900001900D928A95E1F786E0E2E9F2E0AAE38D
:101CA000BEE001900D928A95E1F784E0ECEAF2E063
:101CB000AEE1BEE001900D928A95E1F784E1EBE898
:101CC000FDE0ADE5BDE001900D928A95E1F784E17C
:101CD000E7E0FEE0A5EEBDE001900D928A95E1F708
:101CE00084E1EAE3FEE0A6EEBCE001900D928A9565
:101CF000E1F784E1EEE1FEE0A7E9BEE001900D929C
:101D00008A95E1F708950E94F70485E0E1EBF2E09F
:101D1000ABE8BDE001900D928A95E1F785E0EDE337
:101D2000F2E0A1E9BDE001900D928A95E1F784E52A
:101D30009FE49093980D8093970D87E0E7EBF2E096
:101D4000AAE3BEE001900D928A95E1F784E0EFEB03
:101D5000F2E0A2E4BEE001900D928A95E1F784E002
:101D6000EFE9F2E0A7E4BEE001900D928A95E1F779
:101D700084E1EBE8FDE0ADE5BDE001900D928A95D0
:101D8000E1F784E1E7E0FEE0A5EEBDE001900D9211
:101D90008A95E1F784E1EAE3FEE0A6EEBCE001907B
:101DA0000D928A95E1F784E1EEE1FEE0A7E9BEE05D
:101DB00001900D928A95E1F708950E94F70485E05D
:101DC000E1EBF2E0ABE8BDE001900D928A95E1F71E
:101DD00085E0EDE3F2E0A1E9BDE001900D928A9586
:101DE000E1F784E59FE49093980D8093970D87E049
:101DF000E7EBF2E0AAE3BEE001900D928A95E1F7ED
:101E000084E0EFEBF2E0A2E4BEE001900D928A954F
:101E1000E1F78BE0E4ECF2E0A7E0BEE001900D9288
:101E20008A95E1F784E1EBE8FDE0ADE5BDE00190E6
:101E30000D928A95E1F784E1E7E0FEE0A5EEBDE0D2
:101E400001900D928A95E1F784E1EAE3FEE0A6EEC7
:101E5000BCE001900D928A95E1F784E1EEE1FEE0AD
:101E6000A7E9BEE001900D928A95E1F708950E94DE
:101E7000F70485E0E1EBF2E0ABE8BDE001900D9204
:101E80008A95E1F785E0EDE3F2E0A1E9BDE001909C
:101E90000D928A95E1F784E59FE49093980D8093E5
:101EA000970D87E0E7EBF2E0AAE3BEE001900D9228
:101EB0008A95E1F786E0E0EDF2E0A2E4BEE0019071
:101EC0000D928A95E1F786E0E7EDF2E0A7E0BEE04B
:101ED00001900D928A95E1F784E1EBE8FDE0ADE534
:101EE000BDE001900D928A95E1F784E1E7E0FEE024
:101EF000A5EEBDE001900D928A95E1F784E1EAE359
:101F0000FEE0A6EEBCE001900D928A95E1F784E137
:101F1000EEE1FEE0A7E9BEE001900D928A95E1F7BF
:101F200008954F925F926F927F928F929F92AF929D
:101F3000BF92CF92DF92EF92FF921F93CF93DF93E6
:101F4000CDB7DEB728970FB6F894DEBF0FBECDBF72
:101F5000F82E0E94F70485E0E2EEF2E0ABE8BDE087
:101F600001900D928A95E1F783E0E8EEF2E0A1E9B5
:101F7000BDE001900D928A95E1F786E0E7ECF1E093
:101F8000A7E0BEE001900D928A95E1F784E0ECEEC7
:101F9000F2E0AAE3BEE001900D928A95E1F784E1B8
:101FA000EBE8FDE0ADE5BDE001900D928A95E1F72B
:101FB00084E1E7E0FEE0A5EEBDE001900D928A9598
:101FC000E1F784E1EAE3FEE0A6EEBCE001900D92C9
:101FD0008A95E1F784E1EEE1FEE0A7E9BEE0019039
:101FE0000D928A95E1F78F2D90E0FC01EE0FFF1F17
:101FF000E357F14FE080F180880F991F880F991FF8
:10200000FC01E654F34F408051806280738082E08F
:10201000E816F10409F4F2C108F0E3C1E114F10497
:1020200009F4FAC1F1E0EF16F10409F4F8C165EA28
:1020300071E0FB0101900020E9F73197AF01461BE9
:10204000570B8DE09EE00E945E2F84E0E816F104BD
:1020500009F043C08091A20D805D80931E0E809197
:10206000A10D8111DFC18091A30D9091A40D28EEE7
:1020700033E0B9010E94942C605D60939A0D8091C9
:10208000A30D9091A40DB9010E94942CE4E6F0E018
:10209000BF010E94942C605D60939B0D8091A30D05
:1020A0009091A40DB9010E94942CBF010E94942C20
:1020B0002AE030E0B9010E94942C605D60939C0D91
:1020C0008EE280939D0D8091A30D9091A40DB90196
:1020D0000E94942C805D80939E0DC301B20124E682
:1020E00030E040E050E00E94BC2C29833A834B83CF
:1020F0005C83C301B20120E737E140E050E00E9479
:10210000BC2C49015A01C301B20120E43EE745E07D
:1021100050E00E94BC2C69017A0169817A818B812F
:102120009C812CE330E040E050E00E94BC2C6983AD
:102130007A838B839C83C501B4012CE330E040E0BB
:1021400050E00E94BC2C6D837E838F839887C701EB
:10215000B60128E130E040E050E00E94BC2C6B0169
:102160007C018AE0882E912CA12CB12C69817A8186
:102170008B819C81A50194010E94BC2C605D6093C1
:102180004D0E205D20934C0E1AE310934B0E6D8183
:102190007E818F819885A50194010E94BC2C605D91
:1021A00060934A0E205D2093490E1093480EC7019C
:1021B000B601A50194010E94BC2C605D6093470E9E
:1021C000205D2093460E1093450EC301B20120E01E
:1021D00036ED43E850E00E94BC2CCA01B901A501CC
:1021E00094010E94BC2C605D6093440EC301B20157
:1021F00020E03CE546E255E00E94BC2CCA01B90152
:10220000A50194010E94BC2C605D6093430EC30144
:10221000B20120E038E94FE753E30E94BC2C205D77
:102220002093420E0E9495216B017C0124E630E050
:1022300040E050E00E94BC2C29833A834B835C83AE
:10224000C701B60120E737E140E050E00E94BC2C16
:1022500029013A01C701B60120E43EE745E050E01C
:102260000E94BC2C2D833E834F83588769817A81DD
:102270008B819C812CE330E040E050E00E94BC2C3C
:1022800069837A838B839C83C301B2012CE330E0A2
:1022900040E050E00E94BC2C2B013C016D817E810E
:1022A0008F81988528E130E040E050E00E94BC2C0E
:1022B0006D837E838F83988769817A818B819C81EE
:1022C000A50194010E94BC2C605D6093310E205DDD
:1022D0002093300E10932F0EC301B201A50194017B
:1022E0000E94BC2C605D60932E0E205D20932D0E0D
:1022F00010932C0E6D817E818F819885A5019401AC
:102300000E94BC2C605D60932B0E205D20932A0EF2
:102310001093290EC701B60120E036ED43E850E0E6
:102320000E94BC2CCA01B901A50194010E94BC2CD9
:10233000605D6093280EC701B60120E03CE546E2EF
:1023400055E00E94BC2CCA01B901A50194010E946C
:10235000BC2C605D6093270EC701B60120E038E910
:102360004FE753E30E94BC2C205D2093260E84E1AE
:10237000EBE8FDE0ADE5BDE001900D928A95E1F757
:1023800084E1E7E0FEE0A5EEBDE001900D928A95C4
:10239000E1F784E1EAE3FEE0A6EEBCE001900D92F5
:1023A0008A95E1F784E1EEE1FEE0A7E9BEE0019065
:1023B0000D928A95E1F728960FB6F894DEBF0FBE0E
:1023C000CDBFDF91CF911F91FF90EF90DF90CF9025
:1023D000BF90AF909F908F907F906F905F904F9045
:1023E000089584E0E816F10479F058F0F6E0EF166D
:1023F000F10409F01CCE63EC71E01BCE6FEA71E0D2
:1024000018CE6EED72E015CE8091A10D805D8093A7
:10241000110E6AEB71E00DCE6EEB71E00ACE6AEA46
:1024200071E007CE8091A10D813009F056CE8091E8
:10243000A30D9091A40D28EE33E0B9010E94942CD5
:10244000605D60939A0D8EE280939B0D8091A30D49
:102450009091A40DB9010E94942CE4E6F0E0BF0134
:102460000E94942C605D60939C0D8091A30D9091CF
:10247000A40DB9010E94942CBF010E94942C2AE063
:1024800030E0B9010E94942C605D60939D0D1BCEDD
:1024900084B1887F84B985B1876085B908950E9429
:1024A000481262E370E080E090E00E94FB21C1E00E
:1024B0001A9909C0C0937D0E64E170E080E090E05D
:1024C0000E94FB21F5CF199903C0C093380EF4CFB9
:1024D0001899EECFC093B80CEFCFEF92FF920F9305
:1024E0001F93CF93DF93CDB7DEB74DB75EB7809123
:1024F000530E2DB73EB7281B31090FB6F8943EBFD7
:102500000FBE2DBF2F5F3F4F80914D0D90914E0D0F
:10251000019709F092C08091730D882309F48DC052
:102520001092730D80E09091530E891760F0A0E037
:102530008091530E6A2F70E090E001976817790739
:10254000BCF5B0E029C0F901E80FF11D80838F5F71
:10255000EACFB901680F791FFB01E080EE2DF0E0B2
:10256000EE0FFF1FE75AF14F008111810196820F94
:10257000931FFC01F080EF2DF0E0EE0FFF1FE75AF4
:10258000F14F0190F081E02DE017F10720F4FC01FC
:10259000E082FB01F082BF5F8B2F90E06091530ED1
:1025A00070E061507109861797079CF2AF5FC0CF4A
:1025B0008091530E815097E0811111C0A1E060918C
:1025C000530E861748F10FB6F8945EBF0FBE4DBF8D
:1025D000DF91CF911F910F91FF90EF900895D90156
:1025E000A80FB11DEC91F0E0EE0FFF1FE75AF14F7D
:1025F000608171811197EC91F0E0EE0FFF1FE75AB7
:10260000F14F0190F081E02D6E1B7F0B6931710558
:1026100008F0982F8150D0CF682F70E0620F731FA1
:10262000FB016081E62FF0E0E252F34F891718F0CA
:10263000A0838F5FC4CF1082FCCF80914D0D90910D
:102640004E0D019709F4BFCF80E09091530E89178A
:1026500008F0B9CFE82FF0E0E252F34F10828F5F1D
:10266000F4CFCF93DF9300D000D000D0CDB7DEB74A
:102670000E94BF040E94A3000E94D7000E9479021A
:1026800081E080931A0D1092730D34E6432E512C85
:10269000612C712C222423940E949521A301920184
:1026A0000E94BC2C633371058105910508F4F0C0CC
:1026B00080911A0D882349F010921A0D2092730D03
:1026C0008091720D81110E94DC0465E070E080E071
:1026D00090E00E94FB21312C8091530E381608F4B3
:1026E000DAC00E948301BC01990F880B990B0E94EC
:1026F0003C2E2AE037ED43EA5AE30E94F12E21EC0A
:102700003AEC41E85FE30E94F12E2AE939E949E910
:102710005EE30E94202D20E030E040E251E40E9480
:10272000F12E0E940B2E7093330E6093320E0E9496
:102730006B000E942E01092E000CAA0BBB0BB0955A
:10274000A095909581959F4FAF4FBF4F8093490DB6
:1027500090934A0DA0934B0DB0934C0D8091490D71
:1027600090914A0DA0914B0DB0914C0D803E9E4230
:10277000A105B105CCF48091490D90914A0DA0912D
:102780004B0DB0914C0D8132914DAF4FBF4F64F066
:102790008091490D90914A0DA0914B0DB0914C0D37
:1027A00090937C0E80937B0E80914D0D90914E0DF9
:1027B000069709F0FAC08091380D882309F4F5C016
:1027C0000E94EF010E94BA01092E000CAA0BBB0B5C
:1027D0008093490D90934A0DA0934B0DB0934C0DEF
:1027E00040E050E0BA0184E79DE00E9447208091DC
:1027F000490D90914A0DA0914B0DB0914C0D9C014B
:10280000AD0166277727CB01621B730B840B950BF9
:102810000E943C2E2FE632E143E059E30E94F12E64
:1028200023ED3EEF46ED52E40E94F12E24EA30E71C
:102830004DE25FE30E94212D20E030E04AE754E4BE
:102840000E94F12E0E94042E6093320D7093330D7E
:102850008093340D9093350D84E79DE00E94DF2036
:102860000E946D1210E08091530E181708F014CFDB
:10287000E12FF0E0DF01A252B34F8C91E05EF24F06
:10288000813009F0E8C080810E9404031F5FEBCF14
:1028900020921A0D1ACF032D10E0F801E05EF24FDE
:1028A00080810E948B036B017C019801220F331FF2
:1028B0003E832D83F901E158F14F408151815A83C4
:1028C0004983F901E15BF24F808191819C838B8385
:1028D00096E09E9DB0019F9D700D112480E090E0D8
:1028E0000E943A2E4B015C01A981BA81BD0180E0B2
:1028F00090E00E943A2E20E030E040E85AE30E9447
:10290000F12E9B01AC01C501B4010E94F12E4B01D7
:102910005C01EB81FC81BF0180E090E00E943A2ED7
:102920009B01AC01C501B4010E94212D0E940B2E18
:10293000ED81FE81E75AF14F71836083000F111F13
:10294000000F111FF801E650F34F80809180A280A4
:10295000B380ED81FE81E359F14F00811181FAEFDF
:10296000CF1AF0E8DF0ACC0CDD1CB60180E090E065
:102970000E943A2EA50194010E94F12E6B017C0168
:10298000B80180E090E00E943A2E9B01AC01C701A3
:10299000B6010E94212D0E940B2EED81FE81E55C87
:1029A000F24F71836083339497CE0E940D020E9490
:1029B000BA01092E000CAA0BBB0B8093490D909312
:1029C0004A0DA0934B0DB0934C0D8091490D909101
:1029D0004A0DA0914B0DB0914C0D8C3B9240A1053E
:1029E000B1050CF03DCF8091490D90914A0DA09119
:1029F0004B0DB0914C0D85349D4FAF4FBF4F0CF434
:102A00002FCF40E050E0BA0184E79DE00E944720CC
:102A100060917B0E70917C0E072E000C880B990B39
:102A20000E943C2E2CEA35EC47E256E30E94F12E40
:102A30002FE632E143E85AE30E94922D2DE73EEA69
:102A400046E75FE30E94F12E29E839E241E15CE3C9
:102A50000E94202DF1CE80810E94E70217CF1092B4
:102A6000B70E1092B60E8091B60E9091B70E0797E2
:102A700058F187E08093850D8FEF9DE09093870D4F
:102A80008093860D81E090E09093800D80937F0D80
:102A900010928A0D88E090E00E94853280931F0D8D
:102AA00080911F0D882321F080911F0D8F3F59F4D5
:102AB00061E088E090E00E948D3288E090E00E9422
:102AC000853280931F0D0895E091B60EF091B70EF8
:102AD000E150F24F10828091B60E9091B70E0196A0
:102AE0009093B70E8093B60EBECF0E942F1580E054
:102AF0000E94812608E080911F0D90E0982F882782
:102B000097709093820D8093810D0093850D809135
:102B10004D0D90914E0D8093FF0D8091320E90914E
:102B2000330E9093000E8091320E9091330E80936D
:102B3000010E8091320D9091330DA091340DB09122
:102B4000350D8B2FBB2787FDB0959B2FAB2F809327
:102B5000020E8091320D9091330DA091340DB09101
:102B6000350DCD01BB2797FDB095AB2F8093030E9C
:102B70008091320D9091330DA091340DB091350DAF
:102B8000892F9A2FAB2FBB27A7FDBA958093040EF0
:102B90008091320D9091330DA091340DB091350D8F
:102BA0008093050E8091E50C8093060E8EE79DE0E4
:102BB0000E948E26182F8111F9CF8EE79DE00E948A
:102BC000692B8130D1F38091340E9091350EA09114
:102BD000360EB091370E8B2FBB2787FDB0959B2FFC
:102BE000AB2F8093FF0D8091340E9091350EA09104
:102BF000360EB091370ECD01BB2797FDB095AB2FA8
:102C00008093000E8091340E9091350EA091360E77
:102C1000B091370E892F9A2FAB2FBB27A7FDBA95FE
:102C20008093010E8091340E9091350EA091360E56
:102C3000B091370E8093020EF12C84E0C4E0D1E015
:102C400090917E0EF916C0F0F12C90917E0EF9163F
:102C500008F056C02C2F280F2AC0EC2FF0E0AF2D23
:102C6000B0E0A252B34F9C91E150F24F9083CF5FFE
:102C7000F394815009F452C090917E0EF91668F3D6
:102C8000DFCF4C2F50E0EF2DF0E0EE0FFF1FE75AA3
:102C9000F14F60817181DA01A150B24F7C93608164
:102CA0007181FA01E050F24F6083F3948250C22F99
:102CB000C81B823008F450C090917E0EF91608F3BC
:102CC000C4CF2C2F30E0E12FF0E0EE0FFF1FE55CCA
:102CD000F24F60817181D901A150B24F7C93608124
:102CE0007181F901E050F24F60831F5F8250C42F61
:102CF000C81B823008F44EC090917E0E191708F35D
:102D000090917E0E191718F44C2F480FF0CF64E6FF
:102D100070E080E090E00E94FB21EDCE80911F0DDD
:102D200090E0982F88278D0F911D97709093820DBA
:102D30008093810DC093850D8EE79DE00E948E26C5
:102D4000C82F8111F9CF8EE79DE00E94692B813059
:102D5000D1F3DF5F88E074CF80911F0D90E0982F52
:102D600088278D0F911D97709093820D8093810D10
:102D7000C093850D8EE79DE00E948E26C82F81119D
:102D8000F9CF8EE79DE00E94692B8130D1F3DF5FA0
:102D900088E05BCF80911F0D90E0982F88278D0FE2
:102DA000911D97709093820D8093810DC093850D36
:102DB0008EE79DE00E948E26C82F8111F9CF8EE705
:102DC0009DE00E94692B8130D1F3DF5F88E098CFCE
:102DD0000C941C050E941C050E9495216093F90D1E
:102DE0007093FA0D8093FB0D9093FC0D64E670E0F8
:102DF00080E090E00E94FB21D0E0C0E011E00E9462
:102E00009521C090F90DD090FA0DE090FB0DF09057
:102E1000FC0D6C197D098E099F096C317C40810580
:102E2000910510F0D0E0C0E00E949521C090F90D0E
:102E3000D090FA0DE090FB0DF090FC0D6C197D091F
:102E40008E099F0964347F428105910508F10E9433
:102E5000B4021092720D18998AC00E949521609355
:102E6000F90D7093FA0D8093FB0D9093FC0DD1300A
:102E700009F465C0E8F1D23009F469C0D33009F42F
:102E80006EC064E170E080E090E00E94FB21B7CF6B
:102E90001093720DD13001F138F0D23009F1D330F6
:102EA00019F10E941C05D7CFC23081F03CF4CC232D
:102EB000C1F3C130B1F70E94830ECDCFC33049F0CA
:102EC000CF3079F70E944E0BC0E0C5CF0E94DD0ED7
:102ED000C2CF0E94370FBFCF8C2F0E948D07BBCF70
:102EE0008C2F0E947208B7CF8C2F0E94910FB3CF06
:102EF000C130B1F04CF4C111C4CF8091720D882360
:102F000009F4BFCFCFE0BDCFC23091F0C33009F09C
:102F1000B8CF8091720D882309F4B3CFD3E006C0F7
:102F20008091720D882309F4ACCFD1E0C0E0A9CF25
:102F30008091720D882309F4A4CFD2E0F7CF80915D
:102F4000720D882309F49DCFD0E0C1E09ACF809123
:102F5000720D882309F495CFD0E0C2E092CF809122
:102F6000720D882309F48DCFD0E0C3E08ACF809121
:102F7000380E882379F10E9495216093F90D7093A2
:102F8000FA0D8093FB0D9093FC0D8091720D8823B8
:102F9000B1F0CF5FC43011F4DD23D1F08091530E36
:102FA00090E02C2F0C2E000C330B2817390751F40E
:102FB0008FEF8D0F823030F4C091530EC1501092BC
:102FC000380E5FCFC530D9F7D330C9F7C4E0F7CF9B
:102FD000C3E0F5CF80917D0E882309F452CF0E9483
:102FE00095216093F90D7093FA0D8093FB0D9093EA
:102FF000FC0D8091720D882319F0C15008F4C0E0D7
:1030000010927D0E3ECF089A109863E070E080E049
:1030100090E00E94FB21109A63E070E080E090E075
:103020000E94FB21F1CF1092580E10921D0E80E0ED
:103030009091530E891720F084E79DE00C94F51FC2
:10304000E82FF0E0E252F34F10828F5FF1CF81E082
:1030500090E00E9485328093E50C8091E50C8823F6
:1030600021F08091E50C8F3F59F462E381E090E01C
:103070000E948D3281E090E00E9485328093E50CC1
:103080008091E50C089590911D0E8091E50C9817A4
:1030900051F08091E50C80931D0E6091E50C81E06C
:1030A00090E00C948D320895CF93DF9300D000D040
:1030B000CDB7DEB70E941318412C512C320114E613
:1030C0003CE9832E99249A94A92CB92C80914D0D1A
:1030D00090914E0D892BD1F380914D0D90914E0D15
:1030E000019721F482B1806382B908C080914D0DAF
:1030F00090914E0D039709F0B7C0149A80E090911B
:10310000530E891708F4B3C080E09091530E8917CD
:1031100008F4CDC00E9495216B017C01DC01CB013C
:1031200084199509A609B7092C013D0140E050E03A
:10313000BA0184E79DE00E9447206091320D7091B2
:10314000330D8091340D9091350D2091340E3091D6
:10315000350E4091360E5091370E29833A834B83BA
:103160005C83A30192010E946A2CA50194010E9434
:10317000DE2C89819A81AB81BC81280F391F4A1FBF
:103180005B1F57FD2CC06091320D7091330D809103
:10319000340D9091350D2091340E3091350E4091C3
:1031A000360E5091370E29833A834B835C83A301FB
:1031B00092010E946A2CA50194010E94DE2C898153
:1031C0009A81AB81BC81280F391F4A1F5B1F209356
:1031D000340E3093350E4093360E5093370E84E7FD
:1031E0009DE00E94DF206091340E7091350E809139
:1031F000360E9091370E0E943C2E20E036ED43E0D3
:103200005AE40E94EC2E181664F56091340E709109
:10321000350E8091360E9091370E0E943C2E28E09C
:103220003FEE4BE45DE40E948D2D87FF1AC0609154
:10323000340E7091350E8091360E9091370E0E94AB
:103240003C2E20E63EEF4DE45DE40E94922D20E00E
:1032500030E048EC52E40E94F12E0E940B2E609365
:10326000E50C2601370132CF82B18F7C3DCFE82FAC
:10327000F0E0EE0FFF1FE75AF14F20813181253733
:103280003E4098F020813181263F3F4F71F020E091
:1032900036EE4FED5CE02093340E3093350E4093C4
:1032A000360E5093370E1093E50C8F5F28CFE82F22
:1032B000F0E0EE0FFF1FE75AF14F208131812C38EB
:1032C0003A4050F41092340E1092350E1092360E91
:1032D0001092370E1092E50C8F5F17CF139A81B1C1
:1032E000896381B91092380D08950E946E1991E09A
:1032F00080B182FB882780F989278093380D20913F
:103300004D0D30914E0D2630310521F413988091EA
:10331000380DEECF139AECCF8EE390E090936E0EC3
:1033200080936D0E86E490E09093700E80936F0E04
:103330008BE290E09093720E8093710E89E390E09F
:103340009093740E8093730E80E290E09093760ECB
:103350008093750E81E390E09093780E8093770EC2
:103360008EE190E090937A0E8093790E87E79EEB42
:10337000AFE3BFE38093FA0C9093FB0CA093FC0C9B
:10338000B093FD0C8AEA91EFA2E3BFE38093FE0CB9
:103390009093FF0CA093000DB093010D8FE892EC79
:1033A000A5E5BFE38093020D9093030DA093040D58
:1033B000B093050D84E69BE3AFE3BFE38093060D76
:1033C0009093070DA093080DB093090D8FE395E33B
:1033D000AEE5BFE380930A0D90930B0DA0930C0D07
:1033E000B0930D0D8CE497E3A9E4BFE380930E0D39
:1033F00090930F0DA093100DB093110D8FE29DEDE2
:10340000A4E6BFE38093120D9093130DA093140DC7
:10341000B093150D89E090E00E94853280937E0E76
:1034200080917E0E882321F080917E0E8F3F59F48B
:1034300067E089E090E00E948D3289E090E00E9490
:10344000853280937E0E81E08093AB0E92E0909364
:10345000AC0E93E09093AD0E8093AE0E8093AF0EC2
:103460008093B00E10929F0D1092A00D1092A10D9E
:103470001092A40D1092A30D1092A20DC0E0D0E006
:103480008091530E90E0C817D9070CF4AEC010928B
:103490004E0D10924D0DC0E0D0E0FE01EE0FFF1F6B
:1034A000E357F14F118210820E949521FE01EE0F29
:1034B000FF1FEE0FFF1FE654F34F6083718382837B
:1034C00093832196C530D10541F70E942718809338
:1034D000E50C6091E50C70E080E090E00E943A2EEF
:1034E00020E030E048EC52E40E94922D20E63EEFCE
:1034F0004DE45DE40E94F12E0E940B2E6093340E89
:103500007093350E8093360E9093370E0E944318B9
:1035100004E010E0C6E0EC2EF12CCC24C394D12CB6
:1035200083E0482E512C95E0A92EB12C22E0622E8A
:10353000712CC1E0B2E09B2ED3E00E94431840E022
:103540008091530E481708F465C08091320E909117
:10355000330E81349145A4F010934E0D00934D0D20
:103560009092710DC093A00D9092A10D8091320E9A
:103570009091330E9093A40D8093A30D1092A20D01
:1035800090917E0E8091530E981799F010934E0DE6
:1035900000934D0DD093710DC093A00DD093A10D4C
:1035A00080917E0E90E09093A40D8093A30D1092D5
:1035B000A20D80914D0D90914E0D049709F40AC112
:1035C00080914D0D90914E0D8230910509F4FDC012
:1035D00008F063C0009709F473C0019709F4E6C0CE
:1035E00010934E0D00934D0D90C0FE01E05EF24F22
:1035F00080810E94FC039E01220F331FF901E158D4
:10360000F14F71836083F901E15BF24F9183808315
:10361000219636CF842F90E0880F991FFC01E55C3E
:10362000F24F2081318129353240B8F0208131813B
:103630002C33334E91F010934E0D00934D0D10929C
:10364000710DC093A00D1092A10D20813181309396
:10365000A40D2093A30D4093A20DFC01E75AF14F56
:1036600080819181813A9F40B0F0808191810A965A
:1036700091F010934E0D00934D0DC093710DC093BA
:10368000A00DC093A10D808191819093A40D809392
:10369000A30D4093A20D4F5F53CF8530910509F4E0
:1036A0007FC086309105B9F0039709F099CF8091DA
:1036B000FD0D882359F08091E50C811126C00FC0C3
:1036C00068EC70E080E090E00E94FB21F0924E0DEB
:1036D000E0924D0D1AC08091E50C811105C0B092A9
:1036E0004E0DA0924D0D11C08091580E882329F0E7
:1036F000D0924E0DC0924D0D08C08091FD0D8823D3
:1037000021F050924E0D40924D0D20918D0E309132
:103710008E0E80914D0D90914E0D2817390709F4AA
:103720000CCF84E090E09C0121503109F901EE0FAB
:10373000FF1FE357F14F40815181FC01EE0FFF1F46
:10374000E357F14F51834083F901EE0FFF1FEE0F56
:10375000FF1FE654F34F4081518162817381880FCE
:10376000991F880F991FFC01E654F34F4083518342
:1037700062837383C9010097B1F680914D0D9091DA
:103780004E0D90938E0E80938D0E0E949521609326
:10379000BA0C7093BB0C8093BC0C9093BD0CC9CE3B
:1037A0008091580E882309F4B0CFA2CF8091580E93
:1037B000882309F48BCF8091E50C843608F4A5CFDB
:1037C00070924E0D60924D0DA0CF8091580E8111D8
:1037D0009CCF7CCF1092A00D26E030E060E080917D
:1037E000530E681748F18091320E9091330E813458
:1037F000914534F09092710DC093A00D24E030E01B
:1038000090917E0E8091530E981789F0D093710D90
:10381000C093A00DD093A10D80917E0E90E0909367
:10382000A40D8093A30D1092A20D24E030E03093FC
:103830004E0D20934D0D69CF862F90E0880F991F74
:10384000FC01E55CF24F408151814935524058F00E
:10385000408151814C33534E31F01092710DC09321
:10386000A00D24E030E0FC01E75AF14F8081918106
:10387000813A9F4050F0808191810A9631F0C09347
:10388000710DC093A00D24E030E06F5FA8CF87B129
:10389000836087B908950E94471C80914D0D9091D7
:1038A0004E0D049781F4419A409A69E170E080E0FE
:1038B00090E00E94FB21409869E170E080E090E098
:1038C0000E94FB21EACF4198EFCFAF92BF92CF92F7
:1038D000DF92EF92FF920F931F93CF93DF93C9E094
:1038E000D1E0AB84BC84CD84DE84E984FA840D818C
:1038F0001E812F8138854B815C816A818881998105
:103900000E94051E811105C02F9691E0C039D9078C
:1039100041F7DF91CF911F910F91FF90EF90DF90D2
:10392000CF90BF90AF9008952F923F924F925F92A9
:103930006F927F928F929F92AF92BF92CF92DF92BF
:10394000EF92FF920F931F93CF93DF930DB71EB7A4
:10395000C82FD92F08831983C62FD72F0881198123
:103960000DBF1EBFDF91CF911F910F91FF90EF9080
:10397000DF90CF90BF90AF909F908F907F906F908F
:103980005F904F903F902F900895C82FD92F0881B6
:1039900019810DBF1EBFDF91CF911F910F91FF9035
:1039A000EF90DF90CF90BF90AF909F908F907F90DF
:1039B0006F905F904F903F902F901895FFCF809120
:1039C000960C9091970C01969093970C8093960C7F
:1039D00008958091960C9091970C892B29F48091F1
:1039E000A90C9091AA0C089580E090E00895CF93DF
:1039F000DF93FB01009759F1309749F1DC01CD913C
:103A0000DC91DE019E01109731F112965C911297C4
:103A100042814517B0F4CA17DB0739F5DC01ED9395
:103A2000FC9312861186D487C387FA87E98780E0E2
:103A30000FC03287218714861386E901FC87EB8744
:103A4000F6CF9D011B960D90BC91A02DDCCF89EC8B
:103A5000DF91CF910895CD2B61F7DC01ED93FC93BD
:103A60001286118614861386E2CF32872187B487A7
:103A7000A387E901FC87EB871A96FC93EE931997CD
:103A8000D6CFCF93DF930097C1F0DC01ED91FC918D
:103A9000309779F0A385B485EC01B983A88310979A
:103AA00021F01A961C921E9219971286118614867E
:103AB0001386CF01DF91CF910895E0E0F0E0F9CFD8
:103AC000CF93DF93AC01FB010097A9F1DC012D91AD
:103AD0003C912115310579F1D901E901EA17FB077C
:103AE00009F5A385B4852E173F0789F4EA01B98348
:103AF000A883109721F01A961C921E92199714868B
:103B0000138612861186CF01DF91CF910895BC876D
:103B1000AB87A385B485109791F31A96DC93CE9367
:103B20001997EDCF1B968D919C911C97ED010097F5
:103B300059F3DC01D3CF80E090E0E6CFCF93DF9361
:103B40000097C9F0DC01ED91FC91309781F0228162
:103B5000621788F0A385B485EC01B983A883109718
:103B600031F01A961C921E92199714861386CF0173
:103B7000DF91CF910895E0E0F0E0F9CFFF920F934D
:103B80001F93CF93DF939091930C9923D1F0FFB6BD
:103B9000F894C091A90CD091AA0C9D859130B9F4EC
:103BA00084E99CE00E94411DC817D90741F0909319
:103BB000AA0C8093A90CBC01CE010E94941C1D8606
:103BC000FFBEDF91CF911F910F91FF9008956A8101
:103BD0008130A9F484E99CE00E949E1D8C01892B10
:103BE00079F3BE0184E99CE00E94F71CC017D1075D
:103BF00031F31093AA0C0093A90CB801DDCF662312
:103C0000F9F270E061507109E5CFAF92BF92CF92A7
:103C1000DF92EF92FF920F931F93CF93DF93EC010C
:103C2000009709F43FC041155105E1F1E114F10499
:103C3000C9F1AB28AC28AD28A9F11D866A831A8684
:103C400019861C861B86188A1F865C834B830D830E
:103C50001E832F833887B7010E9441251FB7F89430
:103C6000BE0184E99CE00E94F71CC82F1FBF882377
:103C700069F0CCEC8C2FDF91CF911F910F91FF90C9
:103C8000EF90DF90CF90BF90AF9008958091930C0C
:103C9000813081F70E94E91C892B61F380E00E944A
:103CA000BE1DE8CFC9ECE6CFAF92BF92CF92DF92B4
:103CB000EF92FF920F931F931092AA0C1092A90CEF
:103CC0001092950C1092940C1092930C5A016B0167
:103CD0007C0100E010E098014EED5CE16FEF88E9B7
:103CE0009CE00E94051E1F910F91FF90EF90DF90C6
:103CF000CF90BF90AF9008952091960C3091970C83
:103D0000215031093093970C2093960C0C94BE1DD2
:103D100081E08093930C6FEF84E99CE00E949E1DEC
:103D2000009731F09093AA0C8093A90C0C94C51CB9
:103D300008951F93CF93DF93EC01892BA1F01FB758
:103D4000F8946881798182E0FB018687108A178662
:103D50008A819B810E94601D6881798184E99CE051
:103D60000E94F71C1FBFDF91CF911F91089500970C
:103D700031F0FC0162831182108280E0089589ECA9
:103D80000895DF92EF92FF920F931F93CF93DF93EB
:103D90007C01892BD1F100E08AECD82E1FB7F89472
:103DA000C7010E94411DEC01009761F1DE86BC0154
:103DB00084E99CE00E94F71C8823A1F01FBFCCEC93
:103DC000013039F40E94E91C892B19F080E00E942F
:103DD000BE1D8C2FDF91CF911F910F91FF90EF901F
:103DE000DF9008958F859889009749F00E946B2194
:103DF000882319F01FBFCDECE3CF188A1F861FBFA1
:103E000001E0CCCF1FBFC0E0DBCFC9ECE2CF8F9287
:103E10009F92AF92BF92DF92EF92FF920F931F9308
:103E2000CF93DF93CDB7DEB72E970FB6F894DEBFF2
:103E30000FBECDBF7C014A015B01009709F468C049
:103E4000DFB6F894FC01828181115CC077FD57C018
:103E50000E94E91C8C01009709F44EC0BC01C70107
:103E60000E94F71C8823A1F0DFBE8CEC2E960FB6C3
:103E7000F894DEBF0FBECDBFDF91CF911F910F91A0
:103E8000FF90EF90DF90BF90AF909F908F9008953C
:103E900091E0F801958781149104A104B10441F1E6
:103EA0001C870B87FE86ED8689E99EE19A838983CC
:103EB000CE010B969C838B838D829E82AF82B886C7
:103EC0000A97908B87870E944621882349F0B80182
:103ED000C7010E94601DF8011586108A17868DECB7
:103EE000DFBE8111C3CF0E94BE1DF8018685BECF03
:103EF000F801108A1786F4CFDFBE88ECB7CFDFBE9B
:103F000083E0B4CF8150F7018283DFBE80E0AECF83
:103F100089ECACCF0F931F93CF93DF930097E9F118
:103F2000DFB7F894FC0120813181232B59F10E94E5
:103F3000411D8C01BC0184E99CE00E94F71CC82F44
:103F4000882341F0DFBFCCEC8C2FDF91CF911F9104
:103F50000F910895F801168687859089009761F47E
:103F6000F801108A1786DFBF0E94E91C892B61F3D4
:103F700080E00E94BE1DE8CF0E946B21882381F360
:103F8000CDECF1CFFC0122812F3F29F02F5F22835E
:103F9000C0E0DFBFD9CFCBECFCCFC9ECD5CF0097C9
:103FA00021F0FC01628380E0089589EC08951F935D
:103FB000CF93DF93EC01892BA1F01FB7F8946881B0
:103FC000798182E0FB018687108A17868A819B812E
:103FD0000E94601D6881798184E99CE00E94F71C41
:103FE0001FBFDF91CF911F910895FC01892B39F0FC
:103FF0001382128214821182108280E0089589EC6B
:104000000895DF92EF92FF920F931F93CF93DF9368
:104010007C01892BD1F100E08AECD82E1FB7F894EF
:10402000C7010E94411DEC01009761F1DE86BC01D1
:1040300084E99CE00E94F71C8823A1F01FBFCCEC10
:10404000013039F40E94E91C892B19F080E00E94AC
:10405000BE1D8C2FDF91CF911F910F91FF90EF909C
:10406000DF9008958F859889009749F00E946B2111
:10407000882319F01FBFCDECE3CF188A1F861FBF1E
:1040800001E0CCCF1FBFC0E0DBCFC9ECE2CF8F9205
:104090009F92AF92BF92DF92EF92FF920F931F9386
:1040A000CF93DF93CDB7DEB72E970FB6F894DEBF70
:1040B0000FBECDBF7C014A015B01892B09F47DC095
:1040C0000E94E91C8C01DFB6F8940097A1F4DFBED2
:1040D00088EC2E960FB6F894DEBF0FBECDBFDF91F1
:1040E000CF911F910F91FF90EF90DF90BF90AF9015
:1040F0009F908F900895F70122813381211531051A
:1041000009F44CC08217930709F448C0B7FC43C0B8
:10411000BC01C7010E94F71C882319F0DFBE8CEC9C
:10412000D8CF91E0F801958781149104A104B104DE
:1041300071F11C870B87FE86ED8687ED9FE19A83E0
:104140008983CE010B969C838B838D829E82AF8266
:10415000B8860A97908B87870E944621882349F06A
:10416000B801C7010E94601DF8011586108A1786E4
:104170008DECDFBE8111ADCF0E94BE1DF80186859A
:104180008111A7CFF70194819F5F9483A2CFF8019B
:10419000108A1786EECFDFBE83E09BCFF7018481C4
:1041A0008F3F41F08F5F8483232B11F413830283AD
:1041B00080E001C08BECDFBE8CCF89EC8ACFEF9220
:1041C000FF920F931F93CF93DF938C01892B09F4F8
:1041D0004CC00E94E91CDFB7F894F80122813381BA
:1041E0008217930751F0DFBFCFEC8C2FDF91CF9177
:1041F0001F910F91FF90EF900895F801C481C15075
:10420000C483C1112FC01382128280819181892BB6
:1042100039F1C8010E94411D7C01BC0184E99CE088
:104220000E94F71CC82F882319F0DFBFCCECDDCF2C
:10423000F7011686F801F382E282F70187859089FB
:10424000009741F4F701108A1786DFBF80E00E94D3
:10425000BE1DCBCF0E946B218823A1F3CDECF5CFFF
:10426000DFBFC3CFDFBFC0E0C0CFC9ECBECFCF93AD
:10427000009751F0CFB7F894FC016081718184E917
:104280009CE00E94F71CCFBFCF910895FC01892BC1
:1042900001F180819181892BE1F084819581A68152
:1042A000B781892B8A2B8B2BA1F02FB7F8948091A3
:1042B000AF0C9091B00C009749F411861086F093E2
:1042C000B00CE093AF0C2FBF80E0089591878087FA
:1042D000F6CF89EC0895BC01892B29F15FB7F894DA
:1042E0002091AF0C3091B00CF901D901309711F445
:1042F0008EEC0DC040859185E617F70781F4E21733
:10430000F30739F44093AF0C9093B00C80E05FBF9B
:10431000089518964C93189719969C93F7CFDF0140
:10432000E42FF92FE3CF89EC08956091AB0C7091E5
:10433000AC0C8091AD0C9091AE0C08956093AB0CD9
:104340007093AC0C8093AD0C9093AE0C08950F93CA
:104350001F93CF93DF938091930C8823D1F08091AA
:10436000AB0C9091AC0CA091AD0CB091AE0C019641
:10437000A11DB11D8093AB0C9093AC0CA093AD0C20
:10438000B093AE0C0091AF0C1091B00CE8012097E7
:1043900029F4DF91CF911F910F9108958C819D8118
:1043A000AE81BF810197A109B1098C839D83AE8342
:1043B000BF83892B8A2B8B2BE1F42091AF0C30919A
:1043C000B00C88859985C217D30779F49093B00C07
:1043D0008093AF0CE881F981309719F08A819B8135
:1043E00009950884D985C02DD2CFF801918780879F
:1043F000F1CF8E01F6CFCF92DF92EF92FF920F9323
:104400001F93CF93DF93CDB7DEB72C970FB6F894F9
:10441000DEBF0FBECDBF6B017C010E94E91CFC0119
:10442000C114D104E104F10491F1892B91F10FB78A
:10443000F89481E08587FC87EB8787E391E29A8394
:104440008983CE010B969C838B83CD82DE82EF82A3
:10445000F8860A97908B87870E944621182F0FBFF6
:10446000882389F01DEC812F2C960FB6F894DEBFBF
:104470000FBECDBFDF91CF911F910F91FF90EF90B5
:10448000DF90CF90089580E00E94BE1DECCF19EC24
:10449000EACF18ECE8CF1F93CF93DF93EC01892B81
:1044A000A1F01FB7F8946881798182E0FB018687CB
:1044B000108A17868C819D810E94601D6881798198
:1044C00084E99CE00E94F71C1FBFDF91CF911F91F0
:1044D0000895CF92DF92EF92FF920F931F93CF93A5
:1044E000DF93EC01CB016C817D812A893B89620FCE
:1044F000731F4E815F810E945E2F2E813F81488510
:104500005985CA88DB88EC88FD88C20ED31EE41E5C
:10451000F51ECA8ADB8AEC8AFD8A8E899F89A88D5E
:10452000B98D0197A109B1098E8B9F8BA88FB98F87
:104530006A857B858C859D850E946A2CC616D70668
:10454000E806F90620F01A8A1B8A1C8A1D8ACE0109
:104550000E94411D8C01009709F1BC0184E99CE097
:104560000E94F71CC82F81111BC0F8011686878591
:104570009089009769F4F801108A17868C2FDF91D3
:10458000CF911F910F91FF90EF90DF90CF90089502
:104590000E946B21882379F3CDECF0CFC0E0EECF01
:1045A000CCECECCFCF92DF92EF92FF920F931F9360
:1045B000CF93DF93EC012C813D818E859F854E81C9
:1045C0005F81820F931F0E945E2F2E813F8148855D
:1045D0005985CE84DF84E888F988C20ED31EE41E94
:1045E000F51ECE86DF86E88AF98A8E899F89A88D96
:1045F000B98D0196A11DB11D8E8B9F8BA88FB98F90
:104600006A857B858C859D850E946A2CC616D70697
:10461000E806F90620F01E861F86188A198ACE0140
:1046200002960E94411D8C01009709F1BC0184E9AA
:104630009CE00E94F71CC82F81111BC0F801168650
:1046400087859089009769F4F801108A17868C2F66
:10465000DF91CF911F910F91FF90EF90DF90CF905E
:1046600008950E946B21882379F3CDECF0CFC0E050
:10467000EECFCCECECCFEF92FF920F931F93FC01A7
:10468000892B69F16115710551F12115310541053C
:10469000510529F1E114F1040105110501F17583BA
:1046A00064832683378340875187E286F3860487B5
:1046B0001587118210821382128216861786108A3D
:1046C000118A128A138A148A158A168A178A108EFA
:1046D000118E80E01F910F91FF90EF90089589EC6B
:1046E000F9CFBF92CF92DF92EF92FF920F931F9379
:1046F000CF93DF937C01009709F446C000E06C0182
:1047000082E0C80ED11C8AECB82E1FB7F894C601FF
:104710000E94411DEC01892B31F4C7010E94411D0B
:10472000EC01892B71F1BE86BE0184E99CE00E94F8
:10473000F71C8823B1F01FBFCCEC013039F40E9484
:10474000E91C892B19F080E00E94BE1D8C2FDF919F
:10475000CF911F910F91FF90EF90DF90CF90BF907E
:1047600008958F859889009749F00E946B218823CE
:1047700019F01FBFCDECE1CF188A1F861FBF01E0E3
:10478000C4CF1FBFC0E0D9CFC9ECE0CF4F925F923A
:104790006F927F928F929F92AF92BF92CF92DF9251
:1047A000EF92FF920F931F93CF93DF93CDB7DEB7B6
:1047B00060970FB6F894DEBF0FBECDBF6C012A0123
:1047C0003B015901009709F494C02115310509F402
:1047D00090C00FB7F894FC0186899789A08DB18DA0
:1047E000892B8A2B8B2B09F076C077FD71C00E9434
:1047F000E91C7C01009709F468C04601F2E08F0EC5
:10480000911CBC01C4010E94F71C182F81115AC0D1
:1048100081E0F7018587411451046104710409F4B2
:104820004DC0FC86EB86DE86CD86988A8F868BE42B
:1048300092E29A838983CE010B969C838B834D826F
:104840005E826F8278860A97908B87870E944621C6
:10485000182F882349F0B701C4010E94601DF70199
:104860001586108A17861DEC0FBF11110FC080E04E
:104870000E94BE1DF7011685111108C00FB7F894EC
:10488000B501C6010E946922182F0FBF812F6096C3
:104890000FB6F894DEBF0FBECDBFDF91CF911F9151
:1048A0000F91FF90EF90DF90CF90BF90AF909F90CF
:1048B0008F907F906F905F904F900895F701108ACE
:1048C0001786D2CF0FBF1CECE1CF0FBF18ECDECFA5
:1048D0000FBF13E0DBCFB901C6010E946922182F78
:1048E0000FBF0E94E91C892B89F280E00E94BE1D47
:1048F000CDCF19ECCBCF4F925F926F927F92AF9258
:10490000BF92CF92DF92EF92FF920F931F93CF93BC
:10491000DF93CDB7DEB760970FB6F894DEBF0FBE5A
:10492000CDBF6C012A013B015901009709F493C0E6
:104930002115310509F48FC00FB7F894FC014689A1
:104940005789608D718D82859385A485B5854817BB
:1049500059076A077B0709F070C077FC6BC00E949B
:10496000E91C7C01009709F462C0BC01C6010E94E9
:10497000F71C182F811158C081E0F7018587411479
:1049800051046104710409F44BC0FC86EB86DE8699
:10499000CD86D88ACF868BE492E29A838983CE0132
:1049A0000B969C838B834D825E826F8278860A97FA
:1049B000908B87870E944621182F882349F0B701E2
:1049C000C6010E94601DF7011586108A17861DEC2E
:1049D0000FBF11110FC080E00E94BE1DF7011685A8
:1049E000111108C00FB7F894B501C6010E94D22278
:1049F000182F0FBF812F60960FB6F894DEBF0FBE41
:104A0000CDBFDF91CF911F910F91FF90EF90DF907D
:104A1000CF90BF90AF907F906F905F904F90089530
:104A2000F701108A1786D4CF0FBF1CECE3CF0FBF5E
:104A300018ECE0CF0FBF13E0DDCFB901C6010E9433
:104A4000D222182F0FBF0E94E91C892B99F280E017
:104A50000E94BE1DCFCF19ECCDCF0E94E91C7894E7
:104A6000009771F0DC011396ED91FC91149730974B
:104A700039F015966D917D918D919C9118970994BF
:104A800008952DE235E2FB01208331973083319781
:104A900010823197108231971082319710823197AE
:104AA000108231971082319710823197108231979E
:104AB000108231971082319710823197108231978E
:104AC000108231971082319710823197108231977E
:104AD00010823197108264517109FC0171836083E7
:104AE000089586E891E0909389008093880082E0A1
:104AF00080936F008CE08093810008951F920F9245
:104B00000FB60F9211240BB60F922F933F934F9332
:104B10005F936F937F938F939F93AF93BF93EF9325
:104B2000FF930E94DF1C0E94A72181E00E947C1E4F
:104B3000FF91EF91BF91AF919F918F917F916F9175
:104B40005F914F913F912F910F900BBE0F900FBE31
:104B50000F901F9018951F920F920FB60F9211246D
:104B60000F900FBE0F901F9018958AE28093B800A7
:104B70008FEF8093BB0084E08093BC000895809108
:104B8000BC00817008958091BC0080FDFCCF8091B5
:104B9000000108952091BC0020FDFCCF6093B30C70
:104BA000FC0120812093B40C20FF09C01092B10CAD
:104BB00088EF8093000185EA8093BC000895FC0192
:104BC0003196A5EBBCE081E0861780F791919D932B
:104BD0008F5FFACF8091BC0080FDFCCF1092B10CAA
:104BE00088EF8093000185EA8093BC0008952091AE
:104BF000BC0020FDFCCF2091B10C20FD04C08091B1
:104C0000B10C81700895A4EBBCE0282FFC018E2F1D
:104C1000821B8617A0F78D918193F9CF1F920F9277
:104C20000FB60F9211240BB60F922F933F938F93D1
:104C30009F93EF93FF938091B900883249F0D0F4AD
:104C4000803121F0883121F08830D1F41092B20CFB
:104C5000E091B20C8091B30CE81720F581E08E0F43
:104C60008093B20CF0E0EC54F34F80818093BB0052
:104C700085E836C0803449F148F4883309F43FC0F0
:104C80008091B9008093000184E02AC0803589F0CA
:104C90008835B1F78091BB00E091B20CF0E0EC54A4
:104CA000F34F80838091B10C81608093B10C84E9D3
:104CB00017C0E091B20C81E08E0F8093B20C80910E
:104CC000BB00F0E0EC54F34F80832091B20C30E055
:104CD0008091B30C90E00197281739074CF685ECCA
:104CE0008093BC00FF91EF919F918F913F912F9105
:104CF0000F900BBE0F900FBE0F901F90189585EA76
:104D0000EFCF0E94392C882341F00E94F02B809134
:104D1000D80082608093D80081E008950F931F939C
:104D2000CF93DF9300D000D0CDB7DEB78C01DC018C
:104D300011968D919C9112970C97F1F41A968C9183
:104D40001A97803669F48C918295807F8093ED006C
:104D50008091EF008F738093EF001092EE001C9211
:104D6000F801128680E00F900F900F900F90DF9166
:104D7000CF911F910F9108950E94FD2B8F3F09F451
:104D8000A4C490E6D8011A969C931A978C938295A6
:104D9000807F8093ED00EEEEF0E01192E83FF105A8
:104DA000E1F7D8011196ED91FC9112973197EB3014
:104DB000F10508F086C4E152F94D0C94FD2C28272A
:104DC0009127FF2762289428CC2807299D291B2A90
:104DD000EA26BE2A80E0F8019781891708F4C2C349
:104DE00019821A821B821C821092F7008B81880F15
:104DF000880F880F9A81929596959770890F809366
:104E0000F6008A81880F880F880F99819295969570
:104E10009770890F8093F5008981880F880F880F1C
:104E20008093F4008091EF009781892B8093EF00AD
:104E300081E083878091F40084608093F400809106
:104E4000F00084608093F0008091EF008062DCC10C
:104E5000F8018485882309F43FC08681880F880F74
:104E6000880F9581929596959770890F8093F3009E
:104E70008581880F880F880F9481929596959770F9
:104E8000890F8093F2008481880F880F880F9381A7
:104E9000929596959770890F8093F1008381880F82
:104EA000880F880F8093F0008091EF0080618093DD
:104EB000EF0080E0F8019781891718F18385882336
:104EC00061F18091F00084608093F0008091EF00A8
:104ED000D80117969C9164C084818295880F807E4A
:104EE0009381969596959695890F8093F30083818B
:104EF0008295880F807E8093F2008091EF008F7EF4
:104F0000D6CFD8011896ED91FC911997E80FF11DB5
:104F100090819093FA008F5FCDCF8091F0008B7FCE
:104F2000D3CFF8018485882309F448C08681880F8F
:104F3000880F880F9581929596959770890F809329
:104F4000F3008581880F880F880F9481929596953C
:104F50009770890F8093F2008481880F880F880FE3
:104F60009381929596959770890F8093F100838134
:104F7000880F880F880F8093F0008091EF00806188
:104F80008093EF0080E0F8019781891760F1138624
:104F90008091F0008B7F8093F0008091EF009781EB
:104FA000892B8093EF008091EF008F738093EF0047
:104FB0008091EF0080648093EF00D4CE848182954D
:104FC000880F807E9381969596959695890F80930C
:104FD000F30083818295880F807E8093F200809118
:104FE000EF008F7ECDCFD8011896ED91FC911997E7
:104FF000E80FF11D90819093FA008F5FC4CFD80124
:105000001C968C911C97882309F446C016968C91A7
:105010001697880F880F880F15969C911597929573
:1050200096959770890F8093F30015968C9115973C
:10503000880F880F880F14969C91149792959695D7
:105040009770890F8093F20014968C911497880FB3
:10505000880F880F13969C91139792959695977049
:10506000890F8093F10013968C91880F880F880F19
:105070008093F0008091EF0080618093EF0081E0E9
:10508000D8011B968C931B978091F00084608093CD
:10509000F0008091EF001DCFF80184818295880F88
:1050A000807E9381969596959695890F8093F300CF
:1050B00083818295880F807E8093F2008091EF003B
:1050C0008F7EDBCF19821A821B821C821092F7001E
:1050D0008B81880F880F880F9A819295969597708B
:1050E000890F8093F6008A81880F880F880F998135
:1050F000929596959770890F8093F5008981880F16
:10510000880F880F8093F4008091EF00F801978159
:10511000892B8093EF008091F4008B7F8093F400C3
:105120008091F4008E7FE8C019821A821B821C8253
:105130001092F7008B81880F880F880F9A819295C3
:1051400096959770890F8093F6008A81880F880F53
:10515000880F9981929596959770890F8093F500A5
:105160008981880F880F880F8093F4008091EF0069
:10517000D80117969C911797892B8093EF001B9667
:105180001C928091F40084608093F4008091F00080
:105190008B7F8093F000C4CF19821A821B821C82FD
:1051A0001092F7008B81880F880F880F9A81929553
:1051B00096959770890F8093F6008A81880F880FE3
:1051C000880F9981929596959770890F8093F50035
:1051D0008981880F880F880F8093F4008091EF00F9
:1051E000F8019781892B8093EF0081E0838780917C
:1051F000F40084608093F4008091F00084608093D8
:10520000F0008091EF008F7D8093EF0089CFD8016F
:105210001C968C911C97882309F479C016968C9162
:105220001697880F880F880F15969C911597929561
:1052300096959770890F8093F30015968C9115972A
:10524000880F880F880F14969C91149792959695C5
:105250009770890F8093F20014968C911497880FA1
:10526000880F880F13969C91139792959695977037
:10527000890F8093F10013968C91880F880F880F07
:105280008093F0008091EF0080618093EF008FEFBA
:105290009FEFDC0189839A83AB83BC838093F70003
:1052A0008B81880F880F880F9A81929596959770B9
:1052B000890F8093F6008A81880F880F880F998163
:1052C000929596959770890F8093F5008981880F44
:1052D000880F880F8093F4008091EF00D801179613
:1052E0009C91892B8093EF008091F4008B7F8093B9
:1052F000F4008091F40081608093F4008091EF00CD
:105300008F738093EF008091EF00806854CEF80196
:1053100084818295880F807E938196959695969547
:10532000890F8093F30083818295880F807E80931C
:10533000F2008091EF008F7EA8CFF801848588234A
:1053400009F464C08681880F880F880F9581929533
:1053500096959770890F8093F3008581880F880F49
:10536000880F9481929596959770890F8093F2009B
:105370008481880F880F880F9381929596959770F6
:10538000890F8093F1008381880F880F880F8093A5
:10539000F0008091EF0080618093EF008FEF9FEF2E
:1053A000DC0189839A83AB83BC838093F7008B8174
:1053B000880F880F880F9A81929596959770890F1C
:1053C0008093F6008A81880F880F880F99819295C3
:1053D00096959770890F8093F5008981880F880FC3
:1053E000880F8093F4008091EF00F8019781892B5A
:1053F0008093EF0013868091F40084608093F40022
:105400008091F0008B7F8093F00073CF8481829530
:10541000880F807E9381969596959695890F8093B7
:10542000F30083818295880F807E8093F2008091C3
:10543000EF008F7EB1CFD8011C968C911C978823EA
:1054400009F47AC016968C911697880F880F880FEA
:1054500015969C911597929596959770890F8093C4
:10546000F30015968C911597880F880F880F149666
:105470009C911497929596959770890F8093F2005E
:1054800014968C911497880F880F880F13969C910F
:105490001397929596959770890F8093F1001396C4
:1054A0008C91880F880F880F8093F0008091EF0017
:1054B00080618093EF008FEF9FEFDC0189839A83F7
:1054C000AB83BC838093F7008B81880F880F880F94
:1054D0009A81929596959770890F8093F6008A81AC
:1054E000880F880F880F9981929596959770890FEC
:1054F0008093F5008981880F880F880F8093F400CE
:105500008091EF00D80117969C911797892B809373
:10551000EF0081E01B968C938091F400846080936F
:10552000F4008091F00084608093F0008091EF009F
:105530008F7D8093EF00DDCEF80184818295880F06
:10554000807E9381969596959695890F8093F3002A
:1055500083818295880F807E8093F2008091EF0096
:105560008F7EA7CFD8011896ED91FC911997E80F7F
:10557000F11D90819093FA008F5F2DCCD8011C967D
:105580008C911C97882309F47AC016968C911697F3
:10559000880F880F880F15969C9115979295969570
:1055A0009770890F8093F30015968C911597880F4B
:1055B000880F880F14969C911497929596959770E2
:1055C000890F8093F20014968C911497880F880F9E
:1055D000880F13969C911397929596959770890FC3
:1055E0008093F10013968C91880F880F880F809319
:1055F000F0008091EF0080618093EF0080E0F8017F
:105600009781891708F451C08FEF9FEFDC018983E0
:105610009A83AB83BC838093F7008B81880F880FBC
:10562000880F9A81929596959770890F8093F600CE
:105630008A81880F880F880F998192959695977027
:10564000890F8093F5008981880F880F880F8093D8
:10565000F4008091EF009781892B8093EF0081E027
:1056600083878091F40084608093F4008091F0003F
:1056700084608093F0008091EF0080625ACFF8013F
:1056800084818295880F807E9381969596959695D4
:10569000890F8093F30083818295880F807E8093A9
:1056A000F2008091EF008F7EA7CFD8011896ED9180
:1056B000FC911997E80FF11D90819093FA008F5F8C
:1056C0009ECFD8011A961C924DCB9FE1F80192878C
:1056D0004ACB1F93CF93DF93EC018A858823D1F0C7
:1056E0008F31C1F08F3FB1F088818295807F8093A8
:1056F000ED000E94122C182F803299F068F4882354
:1057000009F46CC01A878091EF008F738093EF00CB
:105710001092EE0082E04CC0803409F440C0803A20
:1057200089F78091EF008F708F83888599850E941B
:10573000252C8091F00082FB882780F98B8780914F
:10574000EF0084FF39C081E08C878091F30086955B
:10575000869586958E838091F2009091F3008695D0
:10576000869586959295990F907E890F8D8380916D
:10577000F1009091F2008695869586959295990F05
:10578000907E890F8C838091F0009091F100869536
:10579000869586959295990F907E890F8B831A87AF
:1057A0008091EF008F738093EF001092EE0080E005
:1057B000DF91CF911F9108951C868091F30082950F
:1057C000869587708C838091F2009091F30082958A
:1057D00086958770990F990F990FDFCF81E0E8CFF9
:1057E00080E08093ED00EEEEF0E01192E83FF105ED
:1057F000E1F7805F8036A9F708953091ED0090E0E1
:1058000080E09093ED002091EF00207C19F430931C
:10581000ED0008958F5F905F863099F73093ED002B
:105820008FEF08958091EF00807C69F09091EE00F9
:10583000892F807E803241F0803431F0803A21F02F
:10584000892F8F7108958FEF0895BC0190E020910A
:10585000EF00492F50E02F7030E0421753070CF053
:1058600008958091FA00460F571FFA0180839F5FC9
:10587000EECF81E08093D80088E08093E2008CE056
:105880008093E30087E38093E40081E00895681744
:1058900008F4682F862F089581EF93E09EBF8DBF97
:1058A00040E051E060E070E081EF94E00E94541E1F
:1058B000811108C00E9471250E94651C811102C0DF
:1058C0000E94881E8FEF81B992B181E0911180E032
:1058D00082B9FACFDB018F939F930E94062DBF916F
:1058E000AF91A29F800D911DA39F900DB29F900D2F
:1058F00011240895991B79E004C0991F961708F0A8
:10590000961B881F7A95C9F78095089587FB082E06
:10591000062687FD819567FD61950E947A2C0EF41D
:10592000919507FC81950895AA1BBB1B51E107C007
:10593000AA1FBB1FA617B70710F0A61BB70B881F1F
:10594000991F5A95A9F780959095BC01CD010895AE
:1059500097FB072E16F4009407D077FD09D00E941C
:10596000942C07FC05D03EF4909581959F4F0895A7
:10597000709561957F4F0895A1E21A2EAA1BBB1B5B
:10598000FD010DC0AA1FBB1FEE1FFF1FA217B3070B
:10599000E407F50720F0A21BB30BE40BF50B661F21
:1059A000771F881F991F1A9469F7609570958095E5
:1059B00090959B01AC01BD01CF010895052E97FB89
:1059C0001EF400940E94F52C57FD07D00E94BC2CB9
:1059D00007FC03D04EF40C94F52C5095409530956F
:1059E00021953F4F4F4F5F4F08959095809570954B
:1059F00061957F4F8F4F9F4F0895EE0FFF1F00243B
:105A0000001C0BBE0790F691E02D09940E94112D09
:105A1000A59F900DB49F900DA49F800D911D112402
:105A20000895A29FB001B39FC001A39F700D811D77
:105A30001124911DB29F700D811D1124911D089597
:105A40005058BB27AA270E94382D0C94B22E0E94D2
:105A5000A42E38F00E94AB2E20F039F49F3F19F4A9
:105A600026F40C94A12E0EF4E095E7FB0C949B2EEB
:105A7000E92F0E94C32E58F3BA17620773078407F1
:105A8000950720F079F4A6F50C94E52E0EF4E09538
:105A90000B2EBA2FA02D0B01B90190010C01CA01E8
:105AA000A0011124FF27591B99F0593F50F4503E93
:105AB00068F11A16F040A22F232F342F4427585F85
:105AC000F3CF469537952795A795F0405395C9F79D
:105AD0007EF41F16BA0B620B730B840BBAF0915055
