:100000000C944A000C9469000C9469000C946900EB
:100010000C9469000C9469000C9469000C946900BC
:100020000C9469000C9469000C9469000C946900AC
:100030000C94261E0C9469000C9469000C946900C1
:100040000C9469000C9469000C9469000C9469008C
:100050000C9469000C9469000C9469000C9469007C
:100060000C9469000C9469000C9469000C9469006C
:100070000C9469000C9469000C9469000C9469005C
:100080000C9469000C9469000C9469000C94B61EE1
:100090000C94690011241FBECFEFD0E1DEBFCDBFAD
:1000A00012E0A0E0B1E0EEEBF6E500E00BBF02C02D
:1000B00007900D92A83EB107D9F72EE0A8EEB2E066
:1000C00001C01D92A433B207E1F70E94F4240C94FE
:1000D0005D2B0C94531ECF93DF9300D000D0CDB78F
:1000E000DEB71B821C8281E789831A8240E050E0E0
:1000F000BA018DE29EE00E94EF1862E0CE01019607
:100100000E94721E62E0CE0103960E949F1E8DE245
:100110009EE00E9487198C8180FF0DC01092E20D35
:1001200083FF0DC01092C50D0F900F900F900F9090
:10013000DF91CF91089591E09093E20DF1CF81E0AE
:100140008093C50DF1CFCF93DF9300D000D000D0C6
:10015000CDB7DEB78091010190910201A09103011A
:10016000B091040189839A83AB83BC8340E050E063
:10017000BA018DE29EE00E94EF1864E0CE01019684
:100180000E94721E80E98D831E8262E0CE01059678
:100190000E94721E8DE29EE00E94871926960FB67D
:1001A000F894DEBF0FBECDBFDF91CF910895CF93FE
:1001B000DF9300D000D000D0CDB7DEB7809105012D
:1001C00090910601A0910701B091080189839A835B
:1001D000AB83BC8340E050E0BA018DE29EE00E9418
:1001E000EF1864E0CE0101960E94721E88E88D83AC
:1001F00081E08E831092110D1092100D62E0CE01FD
:1002000005960E94721E8DE29EE00E948719269636
:100210000FB6F894DEBF0FBECDBFDF91CF9108952A
:10022000CF93DF9300D0CDB7DEB788E8898381E034
:100230008A8340E050E0BA018DE29EE00E94EF1810
:1002400062E0CE0101960E94721E8DE29EE00E9445
:1002500087190F900F90DF91CF9108951F93CF933F
:10026000DF9300D000D000D0CDB7DEB70E941001E0
:1002700019E81C831D821E8240E050E0BA018DE225
:100280009EE00E94EF1863E0CE0104960E94721E69
:1002900019831A821B8263E0CE0101960E949F1E81
:1002A0008DE29EE00E9487198A8190E0982F88272E
:1002B0002B81820F911D26960FB6F894DEBF0FBEDC
:1002C000CDBFDF91CF911F910895CF93DF9300D0E1
:1002D000CDB7DEB788E8898382E08A8340E050E0CA
:1002E000BA018DE29EE00E94EF1862E0CE01019615
:1002F0000E94721E8DE29EE00E9487190F900F905F
:10030000DF91CF9108951F93CF93DF9300D000D05A
:1003100000D0CDB7DEB70E94650119E81C831D82AD
:100320001E8240E050E0BA018DE29EE00E94EF188C
:1003300063E0CE0104960E94721E19831A821B820A
:1003400063E0CE0101960E949F1E8DE29EE00E9416
:1003500087198A8190E0982F88272B81820F911D21
:1003600026960FB6F894DEBF0FBECDBFDF91CF91BA
:100370001F9108951F93CF93DF9300D000D000D03A
:10038000CDB7DEB711E91C831D821E8240E050E02C
:10039000BA018DE29EE00E94EF1863E0CE01049660
:1003A0000E94721E19831A821B8263E0CE0101969D
:1003B0000E949F1E8DE29EE00E9487198A8190E034
:1003C000982F88272B81820F911D26960FB6F894BF
:1003D000DEBF0FBECDBFDF91CF911F910895CF93A8
:1003E000DF9300D0CDB7DEB780E789838BEF8A83B8
:1003F00040E050E0BA018DE29EE00E94EF1862E01A
:10040000CE0101960E94721E8DE29EE00E94871925
:100410000F900F90DF91CF910895CF93DF9300D08D
:10042000CDB7DEB780E789838FEF8A8340E050E065
:10043000BA018DE29EE00E94EF1862E0CE010196C3
:100440000E94721E8DE29EE00E9487190F900F900D
:10045000DF91CF910895FF920F931F93CF93DF9376
:1004600000D000D01F92CDB7DEB7F82E162F042F84
:1004700040E050E0BA018DE29EE00E94EF1880E477
:100480008983612F6C60402F50E0440F551F8F2DE2
:10049000807F842B862B8A8328E02B8330E1F39E98
:1004A000C0011124642B682B6C832D8365E0CE0181
:1004B00001960E94721E8DE29EE00E9487190F90A5
:1004C0000F900F900F900F90DF91CF911F910F9190
:1004D000FF90089540E060E088E20E942B0240E037
:1004E00060E08EE00E942B0240E060E086E00C9429
:1004F0002B020F931F93CF93DF9300D000D0CDB783
:10050000DEB700E40B8318E01C8340E050E0BA0142
:100510008DE29EE00E94EF1862E0CE0103960E94F9
:10052000721E68E270E080E090E00E94A31A0983E6
:100530008CE28A8362E0CE0101960E94721E1A83C9
:1005400062E0CE0101960E94721E8DE29EE00E9442
:1005500087190E946A020F900F900F900F90DF9101
:10056000CF911F910F9108950F931F93CF93DF9316
:10057000EC018C01060F111DC017D10729F4DF9182
:10058000CF911F910F91089540E061E089910E9401
:100590002B02F2CFCF93DF9300D0CDB7DEB7880F19
:1005A00089831A8240E050E0BA018DE29EE00E9409
:1005B000EF1862E0CE0101960E94721E8DE29EE06D
:1005C0000E9487190F900F90DF91CF910895CF93DC
:1005D000DF9300D0CDB7DEB7880F898381E08A83AF
:1005E00040E050E0BA018DE29EE00E94EF1862E028
:1005F000CE0101960E94721E8DE29EE00E94871934
:100600000F900F90DF91CF910895CF93DF93CDB7E7
:10061000DEB728970FB6F894DEBF0FBECDBF982F78
:10062000990F9E8390E39F831886880F816089834A
:100630001A821B821C821D8240E050E0BA018DE2CA
:100640009EE00E94EF1863E0CE0106960E94721EA3
:1006500065E0CE0101960E94721E65E0CE01019612
:100660000E949F1E8C8190E0982F88272D81820FF9
:10067000911D9093BE0C8093BD0C8A8190E0982FC1
:1006800088272B81820F911D9093FF0C8093FE0C85
:100690008DE29EE00E9487196091FE0C7091FF0C24
:1006A0008091BD0C9091BE0C28960FB6F894DEBFD9
:1006B0000FBECDBFDF91CF9108950F931F93CF93BE
:1006C000DF9300D000D000D0CDB7DEB7982F990FC0
:1006D0009C8390E39D8393E09E83880F8160898350
:1006E0001A821B8240E050E0BA018DE29EE00E9437
:1006F000EF1863E0CE0104960E94721E63E0CE0103
:1007000001960E94721E63E0CE0101960E949F1E18
:100710000A811B818DE29EE00E948719C8012696FE
:100720000FB6F894DEBF0FBECDBFDF91CF911F9102
:100730000F910895CF931092DD0D40E050E0BA0183
:100740008DE29EE00E94EF18C1E080E98C0F8230BC
:10075000A8F08C2F0E945D03853A954A79F4809128
:10076000DD0D803158F4E091DD0DF0E0E050F34F05
:10077000C0838091DD0D8F5F8093DD0DCF5FC0382A
:1007800021F78DE29EE0CF910C948719EF92FF92B2
:100790000F931F93CF93DF93CDB7DEB728970FB694
:1007A000F894DEBF0FBECDBF982F990F9E8390E3C4
:1007B0009F8392E09887880F816089831A821B82C9
:1007C0001C821D8240E050E0BA018DE29EE00E9452
:1007D000EF1863E0CE0106960E94721E65E0CE011E
:1007E00001960E94721E65E0CE0101960E949F1E36
:1007F0000C811D81102701271027EA80FB80FE2431
:10080000EF24FE248DE29EE00E948719B701C80103
:1008100028960FB6F894DEBF0FBECDBFDF91CF9103
:100820001F910F91FF90EF900895EF92FF920F9319
:100830001F93CF93DF93CDB7DEB728970FB6F89409
:10084000DEBF0FBECDBF982F990F9E8390E39F838D
:1008500091E09887880F816089831A821B821C82AD
:100860001D8240E050E0BA018DE29EE00E94EF1848
:1008700063E0CE0106960E94721E65E0CE010196ED
:100880000E94721E65E0CE0101960E949F1E1D818E
:100890000C81FB80EA808DE29EE00E948719B701FF
:1008A000C80128960FB6F894DEBF0FBECDBFDF910A
:1008B000CF911F910F91FF90EF9008951F93CF93C9
:1008C000DF9310E0C12F012E000CDD0B8091DD0DB8
:1008D00090E0C817D90724F0DF91CF911F910895B8
:1008E000FE01E050F34F80810E941504FE01EE0FDF
:1008F000FF1FEE0FFF1FEF58F24F6083718382835B
:10090000938361E070E080E090E00E94A31A1F5F93
:10091000D9CF8DE29EE00E949D180E945D1E40E0AE
:1009200050E0BA018DE29EE00E94EF180E949A0307
:100930000E940D0264E670E080E090E00E94A31A3D
:100940000E945E048DE29EE00C94871940E060E016
:1009500080E80E942B020E946A0264E18FE39DE01E
:100960000E94B40264E181EB9DE00E94B40264E164
:1009700087EC9CE00E94B40264E184E19EE00C9468
:10098000B4022F923F924F925F926F927F928F921A
:100990009F92AF92BF92CF92DF92EF92FF920F930E
:1009A0001F93CF93DF93CDB7DEB7C456D1090FB6EF
:1009B000F894DEBF0FBECDBF84E1E9E0F1E0DE01D7
:1009C000DD9601900D928A95E1F784E1EDE1F1E089
:1009D000DE01999601900D928A95E1F784E1E1E3B9
:1009E000F1E0DE01559601900D928A95E1F784E1E0
:1009F000E5E4F1E0DE01119601900D928A95E1F7B0
:100A000080912F0D9091300D8230910509F432C202
:100A100040F4009709F43DC2019771F06CEB72E06D
:100A20000DC08430910509F42BC208F426C2069744
:100A3000A9F769ED72E002C061EC72E0FB01019080
:100A40000020E9F73197AF01461B570BCE018D5BB4
:100A50009F4F0E9406288091C60C24E6622F0E94B8
:100A60002225805D2E968FAF2E978091C60C0E9416
:100A70002225892F2AE0622F0E942225805D2F9651
:100A80008FAF2F978091C60C0E942225905D6096B3
:100A90009FAF60978091D00D9091D10D64E670E08A
:100AA0000E945025605D6D966FAF6D978091D00D5F
:100AB0009091D10D2AE030E0B9010E945025CB0180
:100AC000B9010E945025805D6E968FAF6E97809120
:100AD000D00D9091D10DB9010E945025805D6F9687
:100AE0008FAF6F97C090120DD090130DE090140D42
:100AF000F090150D6091120D7091130D8091140DF1
:100B00009091150D0E94E42620E030E0A9010E949A
:100B1000352687FFC1C1C701B6010E94E42690585F
:100B20000E94AC266B017C011DE2C701B60120EAE0
:100B300036E841E050E00E9486256AE0862E912C3E
:100B4000A12CB12CCA01B901A50194010E948625EE
:100B5000605DA0966FAFA097C701B60120E137E2B4
:100B600040E050E00E948625CA01B901A501940128
:100B70000E948625605DA1966FAFA197C701B6015F
:100B800028EE33E040E050E00E948625CA01B9011A
:100B9000A50194010E948625605DA2966FAFA29781
:100BA000C701B60124E630E040E050E00E9486250F
:100BB000CA01B901A50194010E948625605DA39632
:100BC0006FAFA397C701B601A50194010E948625C6
:100BD000062FCA01B901A50194010E948625605D16
:100BE000A4966FAFA497005DA5960FAFA5978091CF
:100BF000180D811153C180E26C968FAF6C9790E213
:100C00006B969FAF6B978EE46A968FAF6A9745E4B9
:100C1000242E50E5352E0FE40E943D1A6B017C0115
:100C200024E630E040E050E00E94642565962CAF59
:100C30003DAF4EAF5FAF6597C701B60120E737E123
:100C400040E050E00E94642529013A01C701B60145
:100C500020E43EE745E050E00E94642569962CAF11
:100C60003DAF4EAF5FAF69978CE3882E912CA12CDE
:100C7000B12C65966CAD7DAD8EAD9FAD6597A50130
:100C800094010E94642565966CAF7DAF8EAF9FAFD7
:100C90006597C301B201A50194010E9464252B014F
:100CA0003C0169966CAD7DAD8EAD9FAD699728E135
:100CB00030E040E050E00E94642569966CAF7DAF63
:100CC0008EAF9FAF699784E1FE01FD96AFE3BDE073
:100CD00001900D928A95E1F76D968FAD6D978BA778
:100CE0006E969FAD6E979CA78EE28DA76F969FAD77
:100CF0006F979EA71AABA0969FADA0979BABA196AE
:100D00009FADA1979CABA2969FADA2979DAB8EABDA
:100D1000A3969FADA3979FABA4969FADA49798AFC2
:100D2000A5969FADA59799AF94E1FE01B996A1EB69
:100D3000BDE001900D929A95E1F70AA33BA22CA287
:100D40006A969FAD6A979DA36B969FAD6B979EA386
:100D50006C969FAD6C979FA394E1FE017596A7ECEE
:100D6000BCE001900D929A95E1F796E79B8390E3A2
:100D70009C838D8381E38E8385E38F83C701B601D6
:100D800020E038E94FE753E30E946425205D29877E
:100D9000C701B60120E03CE546E255E00E9464252B
:100DA0009AE0892E912CA12CB12CCA01B901A50180
:100DB00094010E946425605D6A87C701B60120E046
:100DC00036ED43E850E00E946425CA01B901A5014F
:100DD00094010E946425605D6B871AE31C87699605
:100DE0006CAD7DAD8EAD9FAD6997A50194010E945C
:100DF0006425205D2D87605D6E871F87C301B2016A
:100E0000A50194010E946425205D288B605D698B9B
:100E10001A8B65966CAD7DAD8EAD9FAD6597A501C6
:100E200094010E946425205D2B8B605D6C8B84E1B6
:100E3000FE013196A4E1BEE001900D928A95E1F7A2
:100E4000CC59DF4F0FB6F894DEBF0FBECDBFDF9198
:100E5000CF911F910F91FF90EF90DF90CF90BF90B7
:100E6000AF909F908F907F906F905F904F903F904A
:100E70002F90089566EC72E0E1CD6CEC72E0DECD6F
:100E80008091530D805D28968FAF289760ED72E0BA
:100E9000D5CD64ED72E0D2CD10E247CE94E46C96ED
:100EA0009FAF6C9785E46B968FAF6B9793E56A96CF
:100EB0009FAF6A972FE4222E3CE4332E03E4ACCE9E
:100EC000CF93DF93CDB7DEB7C055D1090FB6F894F5
:100ED000DEBF0FBECDBF84E1E9E5F1E0DE01DD96C6
:100EE00001900D928A95E1F784E1EDE6F1E0DE01F3
:100EF000999601900D928A95E1F784E1E1E8F1E09D
:100F0000DE01559601900D928A95E1F784E1E5E9BD
:100F1000F1E0DE01119601900D928A95E1F78DE2E4
:100F200023968FAF23979FE224969FAF24979EE24C
:100F300025969FAF259726968FAF269784E1FE01D1
:100F4000FD96AFE3BDE001900D928A95E1F784E153
:100F5000FE01B996A1EBBDE001900D928A95E1F7F3
:100F600084E1FE017596A7ECBCE001900D928A9594
:100F7000E1F784E1FE013196A4E1BEE001900D921B
:100F80008A95E1F7C05BDF4F0FB6F894DEBF0FBE66
:100F9000CDBFDF91CF9108952F923F924F925F92F4
:100FA0006F927F928F929F92AF92BF92CF92DF9279
:100FB000EF92FF920F931F93CF93DF93CDB7DEB7DE
:100FC00064970FB6F894DEBF0FBECDBF94E1E9EA97
:100FD000F1E0DE01119601900D929A95E1F790E310
:100FE000392E380EE82FF0E0EE0FFF1FDF01AD5174
:100FF000B24F8D919C911197AD90BC901197CD906F
:10100000DC901197ED90FC90E55EF24F008111812C
:1010100020813181608071804080518044E1FE01F7
:101020003196AFE3BDE001900D924A95E1F7E1EB17
:10103000FDE043E4408331825FE5252E228256E5C0
:1010400053835AE3548368EE862E63E0962EB401F0
:101050000E943C25605D65838EE28683C501B401F4
:101060000E943C2574E6A72EB12CB5010E943C25B8
:10107000605D6783C601B4010E943C25B5010E94F2
:101080003C25AAE0CA2ED12CB6010E943C25605D09
:101090006087C701B6010E943C25805D8187B0E270
:1010A000FB2EF286F386F486F586F686F786F08ABE
:1010B000F18AF28AF38AE7ECFCE0408331822282F3
:1010C00084E583835AE35483C801B4010E943C251C
:1010D000605D6583C901B4010E943C25B5010E9491
:1010E0003C25605D6683C301B4010E943C25B501C7
:1010F0000E943C25B6010E943C25605D67838EE21C
:101100008087C201B6010E943C25805D8187F286FE
:10111000F386F486F586F686F786F08AF18AF28AF7
:10112000F38AE4E1FEE080E580838FE281834283FD
:1011300033828EE38483F582F682F782F086F1862D
:10114000F286F386F486F586F686F786F08AF18ACB
:10115000F28AF38A64960FB6F894DEBF0FBECDBF55
:10116000DF91CF911F910F91FF90EF90DF90CF9083
:10117000BF90AF909F908F907F906F905F904F90B7
:101180003F902F9008952F923F924F925F926F92CF
:101190007F928F929F92AF92BF92CF92DF92EF9207
:1011A000FF920F931F93CF93DF93CDB7DEB7C35456
:1011B000D1090FB6F894DEBF0FBECDBF94E1EDEBC1
:1011C000F1E0DE01999601900D929A95E1F794E194
:1011D000E1EDF1E0DE01559601900D929A95E1F76F
:1011E00094E1E5EEF1E0DE01119601900D929A9501
:1011F000E1F720E3280F2DAF78EDE72E7DE0F72E05
:10120000EAE5AE2EEDE0BE2EF501670190E2D601D3
:101210009D936D019193BDEDCB16BDE0DB06B9F753
:10122000082F10E04801880C991CF401EA5FF14F87
:10123000808191814AE068ED7DE00E940F28F401F1
:10124000EF5CF24F808191814AE06AE57DE00E9487
:101250000F2880E2F7019081911101C08083D501B0
:101260009C91911101C08C93BFEFEB1AFB0AEFEF39
:10127000AE1ABE0ACE14DF0469F77090D80D8090C4
:10128000D90D9090DA0DF091DB0DFEAFC090DC0D22
:1012900020905A0D30905B0D40905C0D50905D0D8C
:1012A00060905E0DF801EE0FFF1FEB50F24F808152
:1012B000918164E670E00E943C252AE030E0B901AB
:1012C0000E943C25605D6FAF80819181B9010E94D1
:1012D0003C25805D21968FAF21975801AA0CBB1C3D
:1012E000AA0CBB1CC5018552934F7C01DC016D919A
:1012F0007D918D919C910E94AC26605D22966FAF8E
:101300002297F701608171818281938120E030E032
:1013100040E251E40E9499270E94AC26862F5AE0B1
:10132000D52E6D2D0E942E25905D23969FAF23977D
:10133000D7016D917D918D919C9120E030E048EC3A
:1013400052E40E9499270E94AC26862F6D2D0E94A0
:101350002E25905D24969FAF2497F70160817181BF
:101360008281938120E030E04AE754E40E9499278B
:101370000E94AC26862F6D2D0E942E2597FDCBC096
:10138000F70180819181A281B38160817181828125
:10139000938120E030E04AE754E40E9499270E94BC
:1013A000AC26862F6D2D0E942E2520E3F22EF90EFD
:1013B000F801E050F34F80811F928F938DED92E002
:1013C0009F938F9387EF9CE09F938F930E94342885
:1013D0005091F70C4091F80C3091F90CF501EF5851
:1013E000F24F20819181828163812EA63FA648AA77
:1013F00059AA6AAAFFADF8AF21967FAD219779AFC0
:1014000074E1FE01B996AFE3BDE001900D927A95CB
:10141000E1F77A8E8B8E9C8EAEADAD8FCE8E2296FE
:10142000BFAD2297BCA37EE27DA32396EFAD2397A9
:10143000EEA32496FFAD2497FFA3F8A674E1FE0166
:101440007596A1EBBDE001900D927A95E1F7205DD4
:101450002E83905D9F83805D8887605D69875A8B4E
:101460004B8B3C8B84E1FE013196A7ECBCE00190F4
:101470000D928A95E1F780E58093140E9FE2909398
:10148000150E83E48093160E2DAD2093170E9093C6
:10149000180E8093190E81E480931A0E8CE48093C9
:1014A0001B0E8EE380931C0E80E280931D0E8093B2
:1014B0001E0E80931F0E8093200E8093210E80932A
:1014C000220E8093230E8093240E8093250E80930A
:1014D000260E8093270E0F900F900F900F900F9075
:1014E0000F90CD5BDF4F0FB6F894DEBF0FBECDBFC0
:1014F000DF91CF911F910F91FF90EF90DF90CF90F0
:10150000BF90AF909F908F907F906F905F904F9023
:101510003F902F90089580E2F82E4ACF3F924F924D
:101520005F926F927F928F929F92AF92BF92CF9273
:10153000DF92EF92FF920F931F93CF93DF93CDB77C
:10154000DEB7EC970FB6F894DEBF0FBECDBF84E1D7
:10155000E9EFF1E0DE01999601900D928A95E1F7AD
:1015600084E1EDE0F2E0DE01559601900D928A955E
:10157000E1F784E1E1E2F2E0DE01119601900D92E3
:101580008A95E1F78091FC0C9091FD0C9093F20DFF
:101590008093F10D8091FC0C9091FD0C9F938F93A3
:1015A00002EE12E01F930F938CE69DE09F938F93C2
:1015B0000E9434288091F10D9091F20D9F938F93AA
:1015C0001F930F9388E29EE09F938F930E9434288D
:1015D00062E370E080E090E00E94A31A1092C60DD2
:1015E0000FB6F894DEBF0FBECDBF680188E2A82E0B
:1015F0008EE0B82E812C95E0992E03E525E4F22E9D
:1016000034E5632E10E243E4342E51E4752E6EE48B
:10161000462E74E4E72EE2E55E2E8091050E8823C7
:1016200009F41AC18091C60D8F5F8093C60D809119
:10163000C60D90E09B5F9093F20D8093F10D809129
:10164000F10D9091F20D9F938F93DF92CF92BF9205
:10165000AF920E9434288091F10D9091F20D0F907D
:101660000F900F900F900F900F908115964031F4CE
:101670001092C60D9092F20D8092F10D1092050E0F
:1016800060916D0D50916E0D40916F0D3091290E4E
:1016900020912A0E90912B0E00933F0DF092400D59
:1016A0006092410D1093420D3092430D7092440DA3
:1016B0004092450D1093460D7092470DE092480DF3
:1016C000E092490D50924A0DF0924B0D00934C0D53
:1016D00000934D0D10934E0D10934F0D1093500D20
:1016E0001093510D1093520D84E1FE01B996A1EBB8
:1016F000BDE001900D928A95E1F784E1FE017596B7
:10170000A7ECBCE001900D928A95E1F768875987B4
:101710004A87398B2A8B9B8B84E1FE013196A4E1A9
:10172000BEE001900D928A95E1F7189976CF8091ED
:10173000FC0C9091FD0C01969093F40D8093F30DA9
:101740008091FC0C9091FD0C029690931A0D809361
:10175000190D6091F10D7091F20D82E090E00E9400
:10176000482B6091F30D7091F40D84E090E00E949D
:10177000482B6091190D70911A0D86E090E00E943F
:10178000482B82E090E00E94352B9093FD0C8093D3
:10179000FC0C30923F0D7092400D4092410D109321
:1017A000420D7092430DE092440DE092450D50922F
:1017B000460DF092470D0093480D0093490D10938C
:1017C0004A0D00934B0DF0924C0D60924D0D81E24D
:1017D00080934E0D10934F0D1093500D1093510D9B
:1017E0001093520D84E1FE01B996A1EBBDE001908A
:1017F0000D928A95E1F784E1FE017596A7ECBCE0B5
:1018000001900D928A95E1F784E1FE013196A4E101
:10181000BEE001900D928A95E1F764E670E080E009
:1018200090E00E94A31A80E0EC960FB6F894DEBF19
:101830000FBECDBFDF91CF911F910F91FF90EF9021
:10184000DF90CF90BF90AF909F908F907F906F90E0
:101850005F904F903F9008958091D60D882309F4B2
:101860000FCF8091C60D8823F9F08091C60D81506D
:101870008093C60D8091C60D90E09B5F9093F20D12
:101880008093F10D8091F10D9091F20D9F938F93C4
:10189000DF92CF92BF92AF920E9434280F900F90A8
:1018A0000F900F900F900F901092D60DE9CE84B14B
:1018B000887F84B985B1876085B908950E94570CE7
:1018C00062E370E080E090E00E94A31AC1E01A9900
:1018D00009C0C093050E6EE170E080E090E00E94C8
:1018E000A31AF5CF199903C0C093D60DF4CF189958
:1018F000EECFC093AE0CEFCFEF92FF920F931F93FA
:10190000CF93DF93CDB7DEB74DB75EB78091DD0DD6
:101910002DB73EB7281B31090FB6F8943EBF0FBE56
:101920002DBF2F5F3F4F80912F0D9091300D01976C
:1019300009F092C08091540D882309F48DC0109253
:10194000540D80E09091DD0D891760F0A0E080914A
:10195000DD0D6A2F70E090E0019768177907BCF5FC
:10196000B0E029C0F901E80FF11D80838F5FEACF55
:10197000B901680F791FFB01E080EE2DF0E0EE0F5A
:10198000FF1FED51F24F008111810196820F931FCD
:10199000FC01F080EF2DF0E0EE0FFF1FED51F24F54
:1019A0000190F081E02DE017F10720F4FC01E082C6
:1019B000FB01F082BF5F8B2F90E06091DD0D70E046
:1019C00061507109861797079CF2AF5FC0CF809175
:1019D000DD0D815097E0811111C0A1E06091DD0D16
:1019E000861748F10FB6F8945EBF0FBE4DBFDF916A
:1019F000CF911F910F91FF90EF900895D901A80FFB
:101A0000B11DEC91F0E0EE0FFF1FED51F24F608140
:101A100071811197EC91F0E0EE0FFF1FED51F24F45
:101A20000190F081E02D6E1B7F0B6931710508F08C
:101A3000982F8150D0CF682F70E0620F731FFB0189
:101A40006081E62FF0E0E154F34F891718F0A0838E
:101A50008F5FC4CF1082FCCF80912F0D9091300DFD
:101A6000019709F4BFCF80E09091DD0D891708F050
:101A7000B9CFE82FF0E0E154F34F10828F5FF4CF3D
:101A8000CF93DF9300D000D000D0CDB7DEB70E9457
:101A900089040E94A3000E94D7000E94790281E07D
:101AA0008093FB0C1092540D34E6432E512C612C84
:101AB000712C222423940E943D1AA30192010E94BA
:101AC0006425633371058105910508F4EDC08091AB
:101AD000FB0C882331F01092FB0C2092540D0E94D5
:101AE000A60465E070E080E090E00E94A31A312C2B
:101AF0008091DD0D381608F4DAC00E948301BC0124
:101B0000990F880B990B0E94E4262AE037ED43EAEF
:101B10005AE30E94992721EC3AEC41E85FE30E94E6
:101B200099272AE939E949E95EE30E94C82520E0BE
:101B300030E040E251E40E9499270E94B32670935E
:101B4000D10D6093D00D0E946B000E942E01092ED2
:101B5000000CAA0BBB0BB095A095909581959F4F5B
:101B6000AF4FBF4F80932B0D90932C0DA0932D0D55
:101B7000B0932E0D80912B0D90912C0DA0912D0DD9
:101B8000B0912E0D803E9E42A105B105CCF480910E
:101B90002B0D90912C0DA0912D0DB0912E0D813219
:101BA000914DAF4FBF4F64F080912B0D90912C0D54
:101BB000A0912D0DB0912E0D9093040E8093030EE5
:101BC00080912F0D9091300D069709F0FAC0809109
:101BD000180D882309F4F5C00E94EF010E94BA0194
:101BE000092E000CAA0BBB0B80932B0D90932C0D90
:101BF000A0932D0DB0932E0D40E050E0BA0185E585
:101C00009DE00E94EF1880912B0D90912C0DA091DA
:101C10002D0DB0912E0D9C01AD0166277727CB01CC
:101C2000621B730B840B950B0E94E4262FE632E1B6
:101C300043E059E30E94992723ED3EEF46ED52E43D
:101C40000E94992724EA30E74DE25FE30E94C9250C
:101C500020E030E04AE754E40E9499270E94AC2635
:101C60006093120D7093130D8093140D9093150DC6
:101C700085E59DE00E9487190E947C0C10E0809110
:101C8000DD0D181708F017CFE12FF0E0DF01A154A8
:101C9000B34F8C91E050F34F813009F0E8C0808160
:101CA0000E94E7021F5FEBCF2092FB0C1ACF032D9F
:101CB00010E0F801E050F34F80810E9405036B01B2
:101CC0007C019801220F331F3E832D83F901EA5FC7
:101CD000F14F408151815A834983F901EF5CF24F02
:101CE000808191819C838B8396E09E9DB0019F9D16
:101CF000700D112480E090E00E94E2264B015C010F
:101D0000A981BA81BD0180E090E00E94E22620E036
:101D100030E040E85AE30E9499279B01AC01C501DD
:101D2000B4010E9499274B015C01EB81FC81BF014A
:101D300080E090E00E94E2269B01AC01C501B40165
:101D40000E94C9250E94B326ED81FE81ED51F24F1C
:101D500071836083000F111F000F111FF801E552FE
:101D6000F34F80809180A280B380ED81FE81EB50A3
:101D7000F24F00811181FAEFCF1AF0E8DF0ACC0CA4
:101D8000DD1CB60180E090E00E94E226A5019401EE
:101D90000E9499276B017C01B80180E090E00E94CD
:101DA000E2269B01AC01C701B6010E94C9250E9431
:101DB000B326ED81FE81E55EF24F7183608333943B
:101DC00097CE0E940D020E94BA01092E000CAA0BA8
:101DD000BB0B80932B0D90932C0DA0932D0DB093E6
:101DE0002E0D80912B0D90912C0DA0912D0DB09169
:101DF0002E0D8C3B9240A105B1050CF03DCF80919A
:101E00002B0D90912C0DA0912D0DB0912E0D8534A0
:101E10009D4FAF4FBF4F0CF42FCF40E050E0BA01C1
:101E200085E59DE00E94EF186091030E7091040E0D
:101E3000072E000C880B990B0E94E4262CEA35EC47
:101E400047E256E30E9499272FE632E143E85AE33E
:101E50000E943A262DE73EEA46E75FE30E94992773
:101E600029E839E241E15CE30E94C825F1CE808196
:101E70000E94CA0217CF1092330E1092320E809138
:101E8000320E9091330E079708F478C087E0809364
:101E9000660D87EC9DE09093680D8093670D81E05F
:101EA00090E09093610D8093600D10926B0D82E035
:101EB00090E00E94352B9093FD0C8093FC0C809158
:101EC000FC0C9091FD0C892B31F08091FC0C9091D1
:101ED000FD0C019671F460E075E082E090E00E94F4
:101EE000482B82E090E00E94352B9093FD0C80936C
:101EF000FC0C84E090E00E94352B9093F40D8093CD
:101F0000F30D8091F30D9091F40D892B31F08091B8
:101F1000F30D9091F40D019671F461E075E084E0A9
:101F200090E00E94482B84E090E00E94352B909333
:101F3000F40D8093F30D86E090E00E94352B909392
:101F40001A0D8093190D8091190D90911A0D892BFE
:101F500031F08091190D90911A0D019671F462E0A3
:101F600075E086E090E00E94482B86E090E00E94B9
:101F7000352B90931A0D8093190D0895E091320E30
:101F8000F091330EE953F24F10828091320E90910E
:101F9000330E01969093330E8093320E70CF0E94D1
:101FA0003B0F80E00E94291F99249394C0E0D3E066
:101FB000A2E08A2E01E013E0B4E07B2E82E0E82E5E
:101FC00083E0F82E93E0C92EDC2C24E0A22E23E03F
:101FD000B22E80912F0D9091300D8093C70D90926D
:101FE000660DD093630DC093620D8FE59DE00E9456
:101FF000361F8111FACF8FE59DE00E9411248130B8
:10200000D1F38091D00D9091D10D9093C70D809117
:10201000D00D9091D10D8093C80D8092660D1093D4
:10202000630D0093620D8FE59DE00E94361F8111C4
:10203000FACF8FE59DE00E9411248130D1F3809189
:10204000120D9091130DA091140DB091150D8B2FC1
:10205000BB2787FDB0959B2FAB2F8093C70D809139
:10206000120D9091130DA091140DB091150DCD018D
:10207000BB2797FDB095AB2F8093C80D8091120DB3
:102080009091130DA091140DB091150D892F9A2FD9
:10209000AB2FBB27A7FDBA958093C90D8091120D78
:1020A0009091130DA091140DB091150D8093CA0D50
:1020B0007092660DF092630DE092620D8FE59DE0E7
:1020C0000E94361F8111FACF8FE59DE00E941124F6
:1020D0008130D1F38091C60C8093C70D9092660D2C
:1020E000D092630DC092620D8FE59DE00E94361F75
:1020F0008111FACF8FE59DE00E9411248130D1F348
:102100008091D20D9091D30DA091D40DB091D50DA9
:102110008B2FBB2787FDB0959B2FAB2F8093C70DCF
:102120008091D20D9091D30DA091D40DB091D50D89
:10213000CD01BB2797FDB095AB2F8093C80D809143
:10214000D20D9091D30DA091D40DB091D50D892FC2
:102150009A2FAB2FBB27A7FDBA958093C90D80910D
:10216000D20D9091D30DA091D40DB091D50D809347
:10217000CA0D7092660DB092630DA092620D8FE54C
:102180009DE00E94361F8111FACF8FE59DE00E94ED
:1021900011248130D1F31092330E1092320E8091BF
:1021A000320E9091330E079738F064E670E080E0CD
:1021B00090E00E94A31A0DCFE091320EF091330E01
:1021C000E154F34F80818093C70D9092660D80910A
:1021D000320E9091330E8F7E947080619360909355
:1021E000630D8093620D8FE59DE00E94361F811183
:1021F000FACF8FE59DE00E9411248130D1F3E09168
:10220000320EF091330EEE0FFF1FED51F24F808131
:1022100091819093C70DE091320EF091330EEE0F45
:10222000FF1FED51F24F808191818093C80D809204
:10223000660D8091320E9091330E8F7D9470806286
:1022400093609093630D8093620D8FE59DE00E94F3
:10225000361F8111FACF8FE59DE00E941124813055
:10226000D1F3E091320EF091330EEE0FFF1FE55ED9
:10227000F24F808191819093C70DE091320EF091E1
:10228000330EEE0FFF1FE55EF24F80819181809348
:10229000C80D8092660D8091320E9091330E8F7C26
:1022A0009470806393609093630D8093620D8FE5CB
:1022B0009DE00E94361F8111FACF8FE59DE00E94BC
:1022C00011248130D1F38091320E9091330E01961A
:1022D0009093330E8093320E62CF0C94C1040E940F
:1022E000C10464E670E080E090E00E94A31AC0E0C0
:1022F0008C2F0C2E000C990BC8303CF4C1307CF4B0
:102300000E94C10416C0CFE0F3CFCF30FCF0CF3035
:10231000B9F70E948E0A81110CC0C0E00AC020915A
:10232000DD0D30E02817390724F08FEF8C0F0E9465
:10233000CC07189BE8CF8091D60D882399F0CF5F0A
:10234000CF3009F4CEE01092D60DD2CF2091DD0D22
:10235000079730E02817390764F388EF8C0F0E9445
:10236000C308E7CF8091050E882311F2C15008F40D
:10237000C0E01092050EBCCF089A109863E070E0A0
:1023800080E090E00E94A31A109A63E070E080E081
:1023900090E00E94A31AF1CF1092E20D1092CF0D9F
:1023A00080E09091DD0D891720F085E59DE00C948B
:1023B0009D18E82FF0E0E154F34F10828F5FF1CFCA
:1023C00081E090E00E942D2B8093C60C8091C60C7A
:1023D000882321F08091C60C8F3F59F462E381E09D
:1023E00090E00E943B2B81E090E00E942D2B809397
:1023F000C60C8091C60C08959091CF0D8091C60CAB
:10240000981751F08091C60C8093CF0D6091C60C47
:1024100081E090E00C943B2B0895CF93DF9300D0A4
:1024200000D0CDB7DEB70E94CC11412C512C320127
:1024300014E63CE9832E99249A94A92CB92C809116
:102440002F0D9091300D892BD1F380912F0D90910C
:10245000300D019721F482B1806382B908C0809168
:102460002F0D9091300D039709F0B7C0149A80E0BA
:102470009091DD0D891708F4B3C080E09091DD0DD7
:10248000891708F4C8C00E943D1A6B017C01DC0169
:10249000CB0184199509A609B7092C013D0140E03B
:1024A00050E0BA0185E59DE00E94EF186091120DA1
:1024B0007091130D8091140D9091150D2091D20DF6
:1024C0003091D30D4091D40D5091D50D29833A838D
:1024D0004B835C83A30192010E941225A501940104
:1024E0000E94862589819A81AB81BC81280F391F82
:1024F0004A1F5B1F57FD2CC06091120D7091130D88
:102500008091140D9091150D2091D20D3091D30D25
:102510004091D40D5091D50D29833A834B835C8330
:10252000A30192010E941225A50194010E94862513
:1025300089819A81AB81BC81280F391F4A1F5B1F9B
:102540002093D20D3093D30D4093D40D5093D50DDD
:1025500085E59DE00E9487196091D20D7091D30DA1
:102560008091D40D9091D50D0E94E42620E036EDA7
:1025700043E05AE40E949427181664F56091D20D46
:102580007091D30D8091D40D9091D50D0E94E426C9
:1025900028E03FEE4BE45DE40E94352687FF1AC039
:1025A0006091D20D7091D30D8091D40D9091D50D85
:1025B0000E94E42620E63EEF4DE45DE40E943A26C8
:1025C00020E030E048EC52E40E9499270E94B326B4
:1025D0006093C60C2601370132CF82B18F7C3DCF8C
:1025E000E82FF0E0EE0FFF1FED51F24F2081318117
:1025F00025373E4070F020E036EE4FED5CE0209352
:10260000D20D3093D30D4093D40D5093D50D10932C
:10261000C60C8F5F2DCFE82FF0E0EE0FFF1FED51BE
:10262000F24F208131812C383A4050F41092D20D73
:102630001092D30D1092D40D1092D50D1092C60C9D
:102640008F5F1CCF139A81B1896381B91092180DE5
:1026500008950E94221391E080B182FB882780F9BF
:1026600089278093180D20912F0D3091300D263041
:10267000310521F413988091180DEECF139AECCF09
:102680008EE390E09093F60D8093F50D86E490E054
:102690009093F80D8093F70D8BE290E09093FA0DF4
:1026A0008093F90D89E390E09093FC0D8093FB0DEE
:1026B00080E290E09093FE0D8093FD0D81E390E029
:1026C0009093000E8093FF0D8EE190E09093020EA8
:1026D0008093010E87E79EEBAFE3BFE38093DB0CB3
:1026E0009093DC0CA093DD0CB093DE0C8AEA91EFA2
:1026F000A2E3BFE38093DF0C9093E00CA093E10C86
:10270000B093E20C8FE892ECA5E5BFE38093E30C75
:102710009093E40CA093E50CB093E60C84E69BE365
:10272000AFE3BFE38093E70C9093E80CA093E90C30
:10273000B093EA0C8FE395E3AEE5BFE38093EB0C37
:102740009093EC0CA093ED0CB093EE0C8CE497E31B
:10275000A9E4BFE38093EF0C9093F00CA093F10CED
:10276000B093F20C8FE29DEDA4E6BFE38093F30CEF
:102770009093F40CA093F50CB093F60CC0E0D0E06D
:102780008091DD0D90E0C817D9070CF46FC010924E
:10279000300D10922F0D0E94E0118093C60C6091B5
:1027A000C60C70E080E090E00E94E22620E030E07D
:1027B00048EC52E40E943A2620E63EEF4DE45DE408
:1027C0000E9499270E94B3266093D20D7093D30D77
:1027D0008093D40D9093D50D0E94FC11C4E0D0E0FD
:1027E0007724739462E0662E06E010E0EE24E39412
:1027F000F12CE3E08E2E912CF5E0CF2ED12CA2E02F
:10280000AA2EB12C0E94FC1120E08091DD0D28172A
:1028100008F441C08091D00D9091D10D8134914543
:1028200034F0D093300DC0932F0D6092530D8091F2
:102830002F0D9091300D049709F04FC026E030E045
:1028400060E08091DD0D681708F4ABC08091D00D79
:102850009091D10D8134914524F06092530D24E084
:1028600030E03093300D20932F0DCCCFFE01E0509F
:10287000F34F80810E94C6039E01220F331FF9018E
:10288000EA5FF14F71836083F901EF5CF24F91834E
:102890008083219675CF822F90E0880F991FFC01CD
:1028A000E55EF24F408151814935524030F0D0937E
:1028B000300DC0932F0D1092530D8D51924FFC018E
:1028C00080819181813A9F4030F0D093300DC09348
:1028D0002F0D7092530D2F5F98CF80912F0D9091F7
:1028E000300D8230910509F457C050F40097C9F0BB
:1028F000019709F443C0D093300DC0932F0D82CFC0
:1029000085309105A9F186309105B1F0039799F7CB
:102910008091C50D882359F08091C60C811172CF2A
:102920000FC068EC70E080E090E00E94A31A109362
:10293000300D00932F0D66CF8091C60C811105C01C
:10294000D092300DC0922F0D5DCF8091E20D882383
:1029500029F0F092300DE0922F0D54CF8091C50DEB
:10296000882309F44FCF9092300D80922F0D4ACFDB
:102970008091E20D882309F445CFEBCF8091E20DE1
:102980008823A9F28091C60C843608F43BCFB0921C
:10299000300DA0922F0D36CF8091E20D811132CFF4
:1029A000C6CF862F90E0880F991FFC01E55EF24F9D
:1029B000408151814935524020F01092530D24E05E
:1029C00030E08D51924FFC0180819181813A9F408E
:1029D00020F07092530D24E030E06F5F32CF87B16A
:1029E000836087B908950E94EF1480912F0D909114
:1029F000300D049781F4419A409A69E170E080E0DB
:102A000090E00E94A31A409869E170E080E090E0B5
:102A10000E94A31AEACF4198EFCFAF92BF92CF9214
:102A2000DF92EF92FF920F931F93CF93DF93C5E353
:102A3000D2E0AB84BC84CD84DE84E984FA840D8149
:102A40001E812F8138854B815C816A8188819981C3
:102A50000E94AD16811105C02F9692E0CC3BD9079C
:102A600041F7DF91CF911F910F91FF90EF90DF9091
:102A7000CF90BF90AF9008952F923F924F925F9268
:102A80006F927F928F929F92AF92BF92CF92DF927E
:102A9000EF92FF920F931F93CF93DF930DB71EB763
:102AA000C82FD92F08831983C62FD72F08811981E2
:102AB0000DBF1EBFDF91CF911F910F91FF90EF903F
:102AC000DF90CF90BF90AF909F908F907F906F904E
:102AD0005F904F903F902F900895C82FD92F088175
:102AE00019810DBF1EBFDF91CF911F910F91FF90F4
:102AF000EF90DF90CF90BF90AF909F908F907F909E
:102B00006F905F904F903F902F901895FFCF8091DE
:102B10008C0C90918D0C019690938D0C80938C0C65
:102B2000089580918C0C90918D0C892B29F48091C3
:102B30009F0C9091A00C089580E090E00895CF93B1
:102B4000DF93FB01009759F1309749F1DC01CD91FA
:102B5000DC91DE019E01109731F112965C91129783
:102B600042814517B0F4CA17DB0739F5DC01ED9354
:102B7000FC9312861186D487C387FA87E98780E0A1
:102B80000FC03287218714861386E901FC87EB8703
:102B9000F6CF9D011B960D90BC91A02DDCCF89EC4A
:102BA000DF91CF910895CD2B61F7DC01ED93FC937C
:102BB0001286118614861386E2CF32872187B48766
:102BC000A387E901FC87EB871A96FC93EE9319978C
:102BD000D6CFCF93DF930097C1F0DC01ED91FC914C
:102BE000309779F0A385B485EC01B983A883109759
:102BF00021F01A961C921E9219971286118614863D
:102C00001386CF01DF91CF910895E0E0F0E0F9CF96
:102C1000CF93DF93AC01FB010097A9F1DC012D916B
:102C20003C912115310579F1D901E901EA17FB073A
:102C300009F5A385B4852E173F0789F4EA01B98306
:102C4000A883109721F01A961C921E921997148649
:102C5000138612861186CF01DF91CF910895BC872C
:102C6000AB87A385B485109791F31A96DC93CE9326
:102C70001997EDCF1B968D919C911C97ED010097B4
:102C800059F3DC01D3CF80E090E0E6CFCF93DF9320
:102C90000097C9F0DC01ED91FC91309781F0228121
:102CA000621788F0A385B485EC01B983A8831097D7
:102CB00031F01A961C921E92199714861386CF0132
:102CC000DF91CF910895E0E0F0E0F9CFFF920F930C
:102CD0001F93CF93DF939091890C9923D1F0FFB686
:102CE000F894C0919F0CD091A00C9D859130B9F4BF
:102CF0008AE89CE00E94E915C817D90741F0909333
:102D0000A00C80939F0CBC01CE010E943C151D8637
:102D1000FFBEDF91CF911F910F91FF9008956A81BF
:102D20008130A9F48AE89CE00E9446168C01892B28
:102D300079F3BE018AE89CE00E949F15C017D10775
:102D400031F31093A00C00939F0CB801DDCF6623E4
:102D5000F9F270E061507109E5CFAF92BF92CF9266
:102D6000DF92EF92FF920F931F93CF93DF93EC01CB
:102D7000009709F43FC041155105E1F1E114F10458
:102D8000C9F1AB28AC28AD28A9F11D866A831A8643
:102D900019861C861B86188A1F865C834B830D83CD
:102DA0001E832F833887B7010E94E91D1FB7F8944F
:102DB000BE018AE89CE00E949F15C82F1FBF882390
:102DC00069F0CCEC8C2FDF91CF911F910F91FF9088
:102DD000EF90DF90CF90BF90AF9008958091890CD5
:102DE000813081F70E949115892B61F380E00E9468
:102DF0006616E8CFC9ECE6CFAF92BF92CF92DF92D2
:102E0000EF92FF920F931F931092A00C10929F0CC1
:102E100010928B0C10928A0C1092890C5A016B0143
:102E20007C0100E010E0980146E855E16FEF8EE884
:102E30009CE00E94AD161F910F91FF90EF90DF90E4
:102E4000CF90BF90AF90089520918C0C30918D0C55
:102E50002150310930938D0C20938C0C0C94661604
:102E600081E08093890C6FEF8AE89CE00E9446160F
:102E7000009731F09093A00C80939F0C0C946D15EB
:102E800008951F93CF93DF93EC01892BA1F01FB717
:102E9000F8946881798182E0FB018687108A178621
:102EA0008A819B810E940816688179818AE89CE06A
:102EB0000E949F151FBFDF91CF911F91089500972A
:102EC00031F0FC0162831182108280E0089589EC68
:102ED0000895DF92EF92FF920F931F93CF93DF93AA
:102EE0007C01892BD1F100E08AECD82E1FB7F89431
:102EF000C7010E94E915EC01009761F1DE86BC0173
:102F00008AE89CE00E949F158823A1F01FBFCCECAB
:102F1000013039F40E949115892B19F080E00E944C
:102F200066168C2FDF91CF911F910F91FF90EF903C
:102F3000DF9008958F859889009749F00E94131AB1
:102F4000882319F01FBFCDECE3CF188A1F861FBF5F
:102F500001E0CCCF1FBFC0E0DBCFC9ECE2CF8F9246
:102F60009F92AF92BF92DF92EF92FF920F931F93C7
:102F7000CF93DF93CDB7DEB72E970FB6F894DEBFB1
:102F80000FBECDBF7C014A015B01009709F468C008
:102F9000DFB6F894FC01828181115CC077FD57C0D7
:102FA0000E9491158C01009709F44EC0BC01C70125
:102FB0000E949F158823A1F0DFBE8CEC2E960FB6E1
:102FC000F894DEBF0FBECDBFDF91CF911F910F915F
:102FD000FF90EF90DF90BF90AF909F908F900895FB
:102FE00091E0F801958781149104A104B10441F1A5
:102FF0001C870B87FE86ED8681E497E19A8389839F
:10300000CE010B969C838B838D829E82AF82B88685
:103010000A97908B87870E94EE19882349F0B801A0
:10302000C7010E940816F8011586108A17868DECD4
:10303000DFBE8111C3CF0E946616F8018685BECF20
:10304000F801108A1786F4CFDFBE88ECB7CFDFBE59
:1030500083E0B4CF8150F7018283DFBE80E0AECF42
:1030600089ECACCF0F931F93CF93DF930097E9F1D7
:10307000DFB7F894FC0120813181232B59F10E94A4
:10308000E9158C01BC018AE89CE00E949F15C82FBD
:10309000882341F0DFBFCCEC8C2FDF91CF911F91C3
:1030A0000F910895F801168687859089009761F43D
:1030B000F801108A1786DFBF0E949115892B61F3F2
:1030C00080E00E946616E8CF0E94131A882381F3DD
:1030D000CDECF1CFFC0122812F3F29F02F5F22831D
:1030E000C0E0DFBFD9CFCBECFCCFC9ECD5CF009788
:1030F00021F0FC01628380E0089589EC08951F931C
:10310000CF93DF93EC01892BA1F01FB7F89468816E
:10311000798182E0FB018687108A17868A819B81EC
:103120000E940816688179818AE89CE00E949F15B8
:103130001FBFDF91CF911F910895FC01892B39F0BA
:103140001382128214821182108280E0089589EC29
:103150000895DF92EF92FF920F931F93CF93DF9327
:103160007C01892BD1F100E08AECD82E1FB7F894AE
:10317000C7010E94E915EC01009761F1DE86BC01F0
:103180008AE89CE00E949F158823A1F01FBFCCEC29
:10319000013039F40E949115892B19F080E00E94CA
:1031A00066168C2FDF91CF911F910F91FF90EF90BA
:1031B000DF9008958F859889009749F00E94131A2F
:1031C000882319F01FBFCDECE3CF188A1F861FBFDD
:1031D00001E0CCCF1FBFC0E0DBCFC9ECE2CF8F92C4
:1031E0009F92AF92BF92DF92EF92FF920F931F9345
:1031F000CF93DF93CDB7DEB72E970FB6F894DEBF2F
:103200000FBECDBF7C014A015B01892B09F47DC053
:103210000E9491158C01DFB6F8940097A1F4DFBEEF
:1032200088EC2E960FB6F894DEBF0FBECDBFDF91AF
:10323000CF911F910F91FF90EF90DF90BF90AF90D3
:103240009F908F900895F7012281338121153105D8
:1032500009F44CC08217930709F448C0B7FC43C077
:10326000BC01C7010E949F15882319F0DFBE8CECBA
:10327000D8CF91E0F801958781149104A104B1049D
:1032800071F11C870B87FE86ED868FE798E19A83A4
:103290008983CE010B969C838B838D829E82AF8225
:1032A000B8860A97908B87870E94EE19882349F089
:1032B000B801C7010E940816F8011586108A178602
:1032C0008DECDFBE8111ADCF0E946616F8018685B8
:1032D0008111A7CFF70194819F5F9483A2CFF8015A
:1032E000108A1786EECFDFBE83E09BCFF701848183
:1032F0008F3F41F08F5F8483232B11F4138302836C
:1033000080E001C08BECDFBE8CCF89EC8ACFEF92DE
:10331000FF920F931F93CF93DF938C01892B09F4B6
:103320004CC00E949115DFB7F894F80122813381D7
:103330008217930751F0DFBFCFEC8C2FDF91CF9135
:103340001F910F91FF90EF900895F801C481C15033
:10335000C483C1112FC01382128280819181892B75
:1033600039F1C8010E94E9157C01BC018AE89CE0A2
:103370000E949F15C82F882319F0DFBFCCECDDCF4A
:10338000F7011686F801F382E282F70187859089BA
:10339000009741F4F701108A1786DFBF80E00E9492
:1033A0006616CBCF0E94131A8823A1F3CDECF5CF7C
:1033B000DFBFC3CFDFBFC0E0C0CFC9ECBECFCF936C
:1033C000009751F0CFB7F894FC01608171818AE8D1
:1033D0009CE00E949F15CFBFCF910895FC01892BDF
:1033E00001F180819181892BE1F084819581A68111
:1033F000B781892B8A2B8B2BA1F02FB7F894809162
:10340000A50C9091A60C009749F411861086F093B4
:10341000A60CE093A50C2FBF80E0089591878087CC
:10342000F6CF89EC0895BC01892B29F15FB7F89498
:103430002091A50C3091A60CF901D901309711F417
:103440008EEC0DC040859185E617F70781F4E217F1
:10345000F30739F44093A50C9093A60C80E05FBF6E
:10346000089518964C93189719969C93F7CFDF01FF
:10347000E42FF92FE3CF89EC08956091A10C7091AE
:10348000A20C8091A30C9091A40C08956093A10CC0
:103490007093A20C8093A30C9093A40C08950F93A7
:1034A0001F93CF93DF938091890C8823D1F0809173
:1034B000A10C9091A20CA091A30CB091A40C019628
:1034C000A11DB11D8093A10C9093A20CA093A30CFD
:1034D000B093A40C0091A50C1091A60CE8012097C4
:1034E00029F4DF91CF911F910F9108958C819D81D7
:1034F000AE81BF810197A109B1098C839D83AE8301
:10350000BF83892B8A2B8B2BE1F42091A50C309162
:10351000A60C88859985C217D30779F49093A60CD9
:103520008093A50CE881F981309719F08A819B81FD
:1035300009950884D985C02DD2CFF801918780875D
:10354000F1CF8E01F6CFCF92DF92EF92FF920F93E1
:103550001F93CF93DF93CDB7DEB72C970FB6F894B8
:10356000DEBF0FBECDBF6B017C010E949115FC0137
:10357000C114D104E104F10491F1892B91F10FB749
:10358000F89481E08587FC87EB878FED99E19A833A
:103590008983CE010B969C838B83CD82DE82EF8262
:1035A000F8860A97908B87870E94EE19182F0FBF15
:1035B000882389F01DEC812F2C960FB6F894DEBF7E
:1035C0000FBECDBFDF91CF911F910F91FF90EF9074
:1035D000DF90CF90089580E00E946616ECCF19EC42
:1035E000EACF18ECE8CF1F93CF93DF93EC01892B40
:1035F000A1F01FB7F8946881798182E0FB0186878A
:10360000108A17868C819D810E94081668817981B5
:103610008AE89CE00E949F151FBFDF91CF911F9108
:103620000895CF92DF92EF92FF920F931F93CF9363
:10363000DF93EC01CB016C817D812A893B89620F8C
:10364000731F4E815F810E9406282E813F8148852D
:103650005985CA88DB88EC88FD88C20ED31EE41E1B
:10366000F51ECA8ADB8AEC8AFD8A8E899F89A88D1D
:10367000B98D0197A109B1098E8B9F8BA88FB98F46
:103680006A857B858C859D850E941225C616D70686
:10369000E806F90620F01A8A1B8A1C8A1D8ACE01C8
:1036A0000E94E9158C01009709F1BC018AE89CE0B1
:1036B0000E949F15C82F81111BC0F80116868785AF
:1036C0009089009769F4F801108A17868C2FDF9192
:1036D000CF911F910F91FF90EF90DF90CF900895C1
:1036E0000E94131A882379F3CDECF0CFC0E0EECF1F
:1036F000CCECECCFCF92DF92EF92FF920F931F931F
:10370000CF93DF93EC012C813D818E859F854E8187
:103710005F81820F931F0E9406282E813F8148857A
:103720005985CE84DF84E888F988C20ED31EE41E52
:10373000F51ECE86DF86E88AF98A8E899F89A88D54
:10374000B98D0196A11DB11D8E8B9F8BA88FB98F4E
:103750006A857B858C859D850E941225C616D706B5
:10376000E806F90620F01E861F86188A198ACE01FF
:1037700002960E94E9158C01009709F1BC018AE8C4
:103780009CE00E949F15C82F81111BC0F80116866E
:1037900087859089009769F4F801108A17868C2F25
:1037A000DF91CF911F910F91FF90EF90DF90CF901D
:1037B00008950E94131A882379F3CDECF0CFC0E06E
:1037C000EECFCCECECCFEF92FF920F931F93FC0166
:1037D000892B69F16115710551F1211531054105FB
:1037E000510529F1E114F1040105110501F1758379
:1037F00064832683378340875187E286F386048774
:103800001587118210821382128216861786108AFB
:10381000118A128A138A148A158A168A178A108EB8
:10382000118E80E01F910F91FF90EF90089589EC29
:10383000F9CFBF92CF92DF92EF92FF920F931F9337
:10384000CF93DF937C01009709F446C000E06C0140
:1038500082E0C80ED11C8AECB82E1FB7F894C601BE
:103860000E94E915EC01892B31F4C7010E94E9158A
:10387000EC01892B71F1BE86BE018AE89CE00E94B2
:103880009F158823B1F01FBFCCEC013039F40E94A2
:103890009115892B19F080E00E9466168C2FDF911C
:1038A000CF911F910F91FF90EF90DF90CF90BF903D
:1038B00008958F859889009749F00E94131A8823EC
:1038C00019F01FBFCDECE1CF188A1F861FBF01E0A2
:1038D000C4CF1FBFC0E0D9CFC9ECE0CF4F925F92F9
:1038E0006F927F928F929F92AF92BF92CF92DF9210
:1038F000EF92FF920F931F93CF93DF93CDB7DEB775
:1039000060970FB6F894DEBF0FBECDBF6C012A01E1
:103910003B015901009709F494C02115310509F4C0
:1039200090C00FB7F894FC0186899789A08DB18D5E
:10393000892B8A2B8B2B09F076C077FD71C00E94F2
:1039400091157C01009709F468C04601F2E08F0EE2
:10395000911CBC01C4010E949F15182F81115AC0EF
:1039600081E0F7018587411451046104710409F471
:103970004DC0FC86EB86DE86CD86988A8F8683EFE7
:103980009AE19A838983CE010B969C838B834D8227
:103990005E826F8278860A97908B87870E94EE19E5
:1039A000182F882349F0B701C4010E940816F701B7
:1039B0001586108A17861DEC0FBF11110FC080E00D
:1039C0000E946616F7011685111108C00FB7F8940A
:1039D000B501C6010E94111B182F0FBF812F6096E1
:1039E0000FB6F894DEBF0FBECDBFDF91CF911F9110
:1039F0000F91FF90EF90DF90CF90BF90AF909F908E
:103A00008F907F906F905F904F900895F701108A8C
:103A10001786D2CF0FBF1CECE1CF0FBF18ECDECF63
:103A20000FBF13E0DBCFB901C6010E94111B182F95
:103A30000FBF0E949115892B89F280E00E946616C3
:103A4000CDCF19ECCBCF4F925F926F927F92AF9216
:103A5000BF92CF92DF92EF92FF920F931F93CF937B
:103A6000DF93CDB7DEB760970FB6F894DEBF0FBE19
:103A7000CDBF6C012A013B015901009709F493C0A5
:103A80002115310509F48FC00FB7F894FC01468960
:103A90005789608D718D82859385A485B58548177A
:103AA00059076A077B0709F070C077FC6BC00E945A
:103AB00091157C01009709F462C0BC01C6010E9407
:103AC0009F15182F811158C081E0F7018587411497
:103AD00051046104710409F44BC0FC86EB86DE8658
:103AE000CD86D88ACF8683EF9AE19A838983CE01E7
:103AF0000B969C838B834D825E826F8278860A97B9
:103B0000908B87870E94EE19182F882349F0B70100
:103B1000C6010E940816F7011586108A17861DEC4B
:103B20000FBF11110FC080E00E946616F7011685C5
:103B3000111108C00FB7F894B501C6010E947A1B95
:103B4000182F0FBF812F60960FB6F894DEBF0FBEFF
:103B5000CDBFDF91CF911F910F91FF90EF90DF903C
:103B6000CF90BF90AF907F906F905F904F900895EF
:103B7000F701108A1786D4CF0FBF1CECE3CF0FBF1D
:103B800018ECE0CF0FBF13E0DDCFB901C6010E94F2
:103B90007A1B182F0FBF0E949115892B99F280E094
:103BA0000E946616CFCF19ECCDCF0E949115789464
:103BB000009771F0DC011396ED91FC91149730970A
:103BC00039F015966D917D918D919C91189709947E
:103BD000089525ED3DE1FB01208331973083319736
:103BE000108231971082319710823197108231976D
:103BF000108231971082319710823197108231975D
:103C0000108231971082319710823197108231974C
:103C1000108231971082319710823197108231973C
:103C200010823197108264517109FC0171836083A5
:103C3000089586E891E0909389008093880082E05F
:103C400080936F008CE08093810008951F920F9203
:103C50000FB60F9211240BB60F922F933F934F93F1
:103C60005F936F937F938F939F93AF93BF93EF93E4
:103C7000FF930E9487150E944F1A81E00E9424172B
:103C8000FF91EF91BF91AF919F918F917F916F9134
:103C90005F914F913F912F910F900BBE0F900FBEF0
:103CA0000F901F9018951F920F920FB60F9211242C
:103CB0000F900FBE0F901F9018958AE28093B80066
:103CC0008FEF8093BB0084E08093BC0008958091C7
:103CD000BC00817008958091BC0080FDFCCF809174
:103CE000000108952091BC0020FDFCCF6093A90C39
:103CF000FC0120812093AA0C20FF09C01092A70C80
:103D000088EF8093000185EA8093BC000895FC0150
:103D10003196ABEABCE081E0861780F791919D93E4
:103D20008F5FFACF8091BC0080FDFCCF1092A70C72
:103D300088EF8093000185EA8093BC00089520916C
:103D4000BC0020FDFCCF2091A70C20FD04C0809179
:103D5000A70C81700895AAEABCE0282FFC018E2FE1
:103D6000821B8617A0F78D918193F9CF1F920F9236
:103D70000FB60F9211240BB60F922F933F938F9390
:103D80009F93EF93FF938091B900883249F0D0F46C
:103D9000803121F0883121F08830D1F41092A80CC4
:103DA000E091A80C8091A90CE81720F581E08E0F16
:103DB0008093A80CF0E0E655F34F80818093BB0020
:103DC00085E836C0803449F148F4883309F43FC0AF
:103DD0008091B9008093000184E02AC0803589F089
:103DE0008835B1F78091BB00E091A80CF0E0E65572
:103DF000F34F80838091A70C81608093A70C84E9A6
:103E000017C0E091A80C81E08E0F8093A80C8091E0
:103E1000BB00F0E0E655F34F80832091A80C30E022
:103E20008091A90C90E00197281739074CF685EC92
:103E30008093BC00FF91EF919F918F913F912F91C3
:103E40000F900BBE0F900FBE0F901F90189585EA34
:103E5000EFCF0E94E124882341F00E9498248091B2
:103E6000D80082608093D80081E008950F931F935B
:103E7000CF93DF9300D000D0CDB7DEB78C01DC014B
:103E800011968D919C9112970C97F1F41A968C9142
:103E90001A97803669F48C918295807F8093ED002B
:103EA0008091EF008F738093EF001092EE001C92D0
:103EB000F801128680E00F900F900F900F90DF9125
:103EC000CF911F910F9108950E94A5248F3F09F46F
:103ED000A4C490E6D8011A969C931A978C93829565
:103EE000807F8093ED00EEEEF0E01192E83FF10567
:103EF000E1F7D8011196ED91FC9112973197EB30D3
:103F0000F10508F086C4E957F04E0C94A525D01FA2
:103F10003920A7200A213C217421AF214522C32248
:103F2000921F662380E0F8019781891708F4C2C3C5
:103F300019821A821B821C821092F7008B81880FD3
:103F4000880F880F9A81929596959770890F809324
:103F5000F6008A81880F880F880F9981929596952F
:103F60009770890F8093F5008981880F880F880FDB
:103F70008093F4008091EF009781892B8093EF006C
:103F800081E083878091F40084608093F4008091C5
:103F9000F00084608093F0008091EF008062DCC1CB
:103FA000F8018485882309F43FC08681880F880F33
:103FB000880F9581929596959770890F8093F3005D
:103FC0008581880F880F880F9481929596959770B8
:103FD000890F8093F2008481880F880F880F938166
:103FE000929596959770890F8093F1008381880F41
:103FF000880F880F8093F0008091EF00806180939C
:10400000EF0080E0F8019781891718F183858823F4
:1040100061F18091F00084608093F0008091EF0066
:10402000D80117969C9164C084818295880F807E08
:104030009381969596959695890F8093F300838149
:104040008295880F807E8093F2008091EF008F7EB2
:10405000D6CFD8011896ED91FC911997E80FF11D74
:1040600090819093FA008F5FCDCF8091F0008B7F8D
:10407000D3CFF8018485882309F448C08681880F4E
:10408000880F880F9581929596959770890F8093E8
:10409000F3008581880F880F880F948192959695FB
:1040A0009770890F8093F2008481880F880F880FA2
:1040B0009381929596959770890F8093F1008381F3
:1040C000880F880F880F8093F0008091EF00806147
:1040D0008093EF0080E0F8019781891760F11386E3
:1040E0008091F0008B7F8093F0008091EF009781AA
:1040F000892B8093EF008091EF008F738093EF0006
:104100008091EF0080648093EF00D4CE848182950B
:10411000880F807E9381969596959695890F8093CA
:10412000F30083818295880F807E8093F2008091D6
:10413000EF008F7ECDCFD8011896ED91FC911997A5
:10414000E80FF11D90819093FA008F5FC4CFD801E2
:104150001C968C911C97882309F446C016968C9166
:104160001697880F880F880F15969C911597929532
:1041700096959770890F8093F30015968C911597FB
:10418000880F880F880F14969C9114979295969596
:104190009770890F8093F20014968C911497880F72
:1041A000880F880F13969C91139792959695977008
:1041B000890F8093F10013968C91880F880F880FD8
:1041C0008093F0008091EF0080618093EF0081E0A8
:1041D000D8011B968C931B978091F000846080938C
:1041E000F0008091EF001DCFF80184818295880F47
:1041F000807E9381969596959695890F8093F3008E
:1042000083818295880F807E8093F2008091EF00F9
:104210008F7EDBCF19821A821B821C821092F700DC
:104220008B81880F880F880F9A8192959695977049
:10423000890F8093F6008A81880F880F880F9981F3
:10424000929596959770890F8093F5008981880FD4
:10425000880F880F8093F4008091EF00F801978118
:10426000892B8093EF008091F4008B7F8093F40082
:104270008091F4008E7FE8C019821A821B821C8212
:104280001092F7008B81880F880F880F9A81929582
:1042900096959770890F8093F6008A81880F880F12
:1042A000880F9981929596959770890F8093F50064
:1042B0008981880F880F880F8093F4008091EF0028
:1042C000D80117969C911797892B8093EF001B9626
:1042D0001C928091F40084608093F4008091F0003F
:1042E0008B7F8093F000C4CF19821A821B821C82BC
:1042F0001092F7008B81880F880F880F9A81929512
:1043000096959770890F8093F6008A81880F880FA1
:10431000880F9981929596959770890F8093F500F3
:104320008981880F880F880F8093F4008091EF00B7
:10433000F8019781892B8093EF0081E0838780913A
:10434000F40084608093F4008091F0008460809396
:10435000F0008091EF008F7D8093EF0089CFD8012E
:104360001C968C911C97882309F479C016968C9121
:104370001697880F880F880F15969C911597929520
:1043800096959770890F8093F30015968C911597E9
:10439000880F880F880F14969C9114979295969584
:1043A0009770890F8093F20014968C911497880F60
:1043B000880F880F13969C911397929596959770F6
:1043C000890F8093F10013968C91880F880F880FC6
:1043D0008093F0008091EF0080618093EF008FEF79
:1043E0009FEFDC0189839A83AB83BC838093F700C2
:1043F0008B81880F880F880F9A8192959695977078
:10440000890F8093F6008A81880F880F880F998121
:10441000929596959770890F8093F5008981880F02
:10442000880F880F8093F4008091EF00D8011796D1
:104430009C91892B8093EF008091F4008B7F809377
:10444000F4008091F40081608093F4008091EF008B
:104450008F738093EF008091EF00806854CEF80155
:1044600084818295880F807E938196959695969506
:10447000890F8093F30083818295880F807E8093DB
:10448000F2008091EF008F7EA8CFF8018485882309
:1044900009F464C08681880F880F880F95819295F2
:1044A00096959770890F8093F3008581880F880F08
:1044B000880F9481929596959770890F8093F2005A
:1044C0008481880F880F880F9381929596959770B5
:1044D000890F8093F1008381880F880F880F809364
:1044E000F0008091EF0080618093EF008FEF9FEFED
:1044F000DC0189839A83AB83BC838093F7008B8133
:10450000880F880F880F9A81929596959770890FDA
:104510008093F6008A81880F880F880F9981929581
:1045200096959770890F8093F5008981880F880F81
:10453000880F8093F4008091EF00F8019781892B18
:104540008093EF0013868091F40084608093F400E0
:104550008091F0008B7F8093F00073CF84818295EF
:10456000880F807E9381969596959695890F809376
:10457000F30083818295880F807E8093F200809182
:10458000EF008F7EB1CFD8011C968C911C978823A9
:1045900009F47AC016968C911697880F880F880FA9
:1045A00015969C911597929596959770890F809383
:1045B000F30015968C911597880F880F880F149625
:1045C0009C911497929596959770890F8093F2001D
:1045D00014968C911497880F880F880F13969C91CE
:1045E0001397929596959770890F8093F100139683
:1045F0008C91880F880F880F8093F0008091EF00D6
:1046000080618093EF008FEF9FEFDC0189839A83B5
:10461000AB83BC838093F7008B81880F880F880F52
:104620009A81929596959770890F8093F6008A816A
:10463000880F880F880F9981929596959770890FAA
:104640008093F5008981880F880F880F8093F4008C
:104650008091EF00D80117969C911797892B809332
:10466000EF0081E01B968C938091F400846080932E
:10467000F4008091F00084608093F0008091EF005E
:104680008F7D8093EF00DDCEF80184818295880FC5
:10469000807E9381969596959695890F8093F300E9
:1046A00083818295880F807E8093F2008091EF0055
:1046B0008F7EA7CFD8011896ED91FC911997E80F3E
:1046C000F11D90819093FA008F5F2DCCD8011C963C
:1046D0008C911C97882309F47AC016968C911697B2
:1046E000880F880F880F15969C911597929596952F
:1046F0009770890F8093F30015968C911597880F0A
:10470000880F880F14969C911497929596959770A0
:10471000890F8093F20014968C911497880F880F5C
:10472000880F13969C911397929596959770890F81
:104730008093F10013968C91880F880F880F8093D7
:10474000F0008091EF0080618093EF0080E0F8013D
:104750009781891708F451C08FEF9FEFDC0189839F
:104760009A83AB83BC838093F7008B81880F880F7B
:10477000880F9A81929596959770890F8093F6008D
:104780008A81880F880F880F9981929596959770E6
:10479000890F8093F5008981880F880F880F809397
:1047A000F4008091EF009781892B8093EF0081E0E6
:1047B00083878091F40084608093F4008091F000FE
:1047C00084608093F0008091EF0080625ACFF801FE
:1047D00084818295880F807E938196959695969593
:1047E000890F8093F30083818295880F807E809368
:1047F000F2008091EF008F7EA7CFD8011896ED913F
:10480000FC911997E80FF11D90819093FA008F5F4A
:104810009ECFD8011A961C924DCB9FE1F80192874A
:104820004ACB1F93CF93DF93EC018A858823D1F085
:104830008F31C1F08F3FB1F088818295807F809366
:10484000ED000E94BA24182F803299F068F4882372
:1048500009F46CC01A878091EF008F738093EF008A
:104860001092EE0082E04CC0803409F440C0803ADF
:1048700089F78091EF008F708F83888599850E94DA
:10488000CD248091F00082FB882780F98B8780916E
:10489000EF0084FF39C081E08C878091F30086951A
:1048A000869586958E838091F2009091F30086958F
:1048B000869586959295990F907E890F8D8380912C
:1048C000F1009091F2008695869586959295990FC4
:1048D000907E890F8C838091F0009091F1008695F5
:1048E000869586959295990F907E890F8B831A876E
:1048F0008091EF008F738093EF001092EE0080E0C4
:10490000DF91CF911F9108951C868091F3008295CD
:10491000869587708C838091F2009091F300829548
:1049200086958770990F990F990FDFCF81E0E8CFB7
:1049300080E08093ED00EEEEF0E01192E83FF105AB
:10494000E1F7805F8036A9F708953091ED0090E09F
:1049500080E09093ED002091EF00207C19F43093DB
:10496000ED0008958F5F905F863099F73093ED00EA
:104970008FEF08958091EF00807C69F09091EE00B8
:10498000892F807E803241F0803431F0803A21F0EE
:10499000892F8F7108958FEF0895BC0190E02091C9
:1049A000EF00492F50E02F7030E0421753070CF012
:1049B00008958091FA00460F571FFA0180839F5F88
:1049C000EECF81E08093D80088E08093E2008CE015
:1049D0008093E30087E38093E40081E00895681703
:1049E00008F4682F862F089587EE93E09EBF8DBF51
:1049F00040E051E060E070E087EE94E00E94FC1639
:104A0000811108C00E94191E0E940D15811102C05B
:104A10000E9430178FEF81B992B181E0911180E04F
:104A200082B9FACFDB018F939F930E94AE25BF918D
:104A3000AF91A29F800D911DA39F900DB29F900DED
:104A400011240895991B79E004C0991F961708F066
:104A5000961B881F7A95C9F78095089587FB082EC5
:104A6000062687FD819567FD61950E9422250EF43B
:104A7000919507FC81950895AA1BBB1B51E107C0C6
:104A8000AA1FBB1FA617B70710F0A61BB70B881FDE
:104A9000991F5A95A9F780959095BC01CD0108956D
:104AA00097FB072E16F4009407D077FD09D00E94DB
:104AB0003C2507FC05D03EF4909581959F4F0895C5
:104AC000709561957F4F0895A1E21A2EAA1BBB1B1A
:104AD000FD010DC0AA1FBB1FEE1FFF1FA217B307CA
:104AE000E407F50720F0A21BB30BE40BF50B661FE0
:104AF000771F881F991F1A9469F7609570958095A4
:104B000090959B01AC01BD01CF010895052E97FB47
:104B10001EF400940E949D2557FD07D00E94642535
:104B200007FC03D04EF40C949D255095409530958C
:104B300021953F4F4F4F5F4F089590958095709509
:104B400061957F4F8F4F9F4F0895EE0FFF1F0024F9
:104B5000001C0BBE0790F691E02D09940E94B92528
:104B6000A59F900DB49F900DA49F800D911D1124C1
:104B70000895A29FB001B39FC001A39F700D811D36
:104B80001124911DB29F700D811D1124911D089556
:104B90005058BB27AA270E94E0250C945A270E9450
:104BA0004C2738F00E94532720F039F49F3F19F426
:104BB00026F40C9449270EF4E095E7FB0C94432768
:104BC000E92F0E946B2758F3BA176207730784070F
:104BD000950720F079F4A6F50C948D270EF4E09556
:104BE0000B2EBA2FA02D0B01B90190010C01CA01A7
:104BF000A0011124FF27591B99F0593F50F4503E52
:104C000068F11A16F040A22F232F342F4427585F43
:104C1000F3CF469537952795A795F0405395C9F75B
:104C20007EF41F16BA0B620B730B840BBAF0915013
:104C3000A1F0FF0FBB1F661F771F881FC2F70EC0B2
:104C4000BA0F621F731F841F48F487957795679585
:104C5000B795F7959E3F08F0B0CF9395880F08F071
:104C60009927EE0F9795879508950E941F2708F4BE
:104C700081E008950E944E260C945A270E945327E3
:104C800058F00E944C2740F029F45F3F29F00C9423
:104C9000432751110C948E270C9449270E946B27AF
:104CA00068F39923B1F3552391F3951B550BBB275B
:104CB000AA2762177307840738F09F5F5F4F220FA0
:104CC000331F441FAA1FA9F335D00E2E3AF0E0E897
:104CD00032D091505040E695001CCAF72BD0FE2FE1
:104CE00029D0660F771F881FBB1F26173707480775
:104CF000AB07B0E809F0BB0B802DBF01FF2793582D
:104D00005F4F3AF09E3F510578F00C9443270C9486
:104D10008E275F3FE4F3983ED4F3869577956795A9
:104D2000B795F7959F5FC9F7880F911D9695879561
:104D300097F90895E1E0660F771F881FBB1F621780
:104D400073078407BA0720F0621B730B840BBA0B3E
:104D5000EE1F88F7E09508950E94B3266894B1117C
:104D60000C948E2708950E94732788F09F5798F01F
:104D7000B92F9927B751B0F0E1F0660F771F881F60
:104D8000991F1AF0BA95C9F714C0B13091F00E947A
:104D90008D27B1E008950C948D27672F782F8827F1
:104DA000B85F39F0B93FCCF3869577956795B395A1
:104DB000D9F73EF490958095709561957F4F8F4F10
:104DC0009F4F0895E89409C097FB3EF49095809515
:104DD000709561957F4F8F4F9F4F9923A9F0F92FC1
:104DE00096E9BB279395F695879577956795B7953F
:104DF000F111F8CFFAF4BB0F11F460FF1BC06F5F25
:104E00007F4F8F4F9F4F16C0882311F096E911C036
:104E1000772321F09EE8872F762F05C0662371F057
:104E200096E8862F70E060E02AF09A95660F771F6B
:104E3000881FDAF7880F9695879597F90895990F47
:104E40000008550FAA0BE0E8FEEF16161706E80754
:104E5000F907C0F012161306E407F50798F0621B75
:104E6000730B840B950B39F40A2661F0232B242B4A
:104E7000252B21F408950A2609F4A140A6958FEF69
:104E8000811D811D089597F99F6780E870E060E0BB
:104E900008959FEF80EC089500240A9416161706D3
:104EA00018060906089500240A941216130614061B
:104EB00005060895092E0394000C11F4882352F07E
:104EC000BB0F40F4BF2B11F460FF04C06F5F7F4F36
:104ED0008F4F9F4F089557FD9058440F551F59F01D
:104EE0005F3F71F04795880F97FB991F61F09F3FD7
:104EF00079F087950895121613061406551FF2CF00
:104F00004695F1DF08C0161617061806991FF1CF4F
:104F100086957105610508940895E894BB27662776
:104F20007727CB0197F908950E941F2708F48FEF88
:104F300008950E94AC270C945A270E944C2738F001
:104F40000E94532720F0952311F00C9443270C94D2
:104F5000492711240C948E270E946B2770F3959F8C
:104F6000C1F3950F50E0551F629FF001729FBB2760
:104F7000F00DB11D639FAA27F00DB11DAA1F649FFC
:104F80006627B00DA11D661F829F2227B00DA11DAF
:104F9000621F739FB00DA11D621F839FA00D611D35
:104FA000221F749F3327A00D611D231F849F600D56
:104FB000211D822F762F6A2F11249F5750409AF07F
:104FC000F1F088234AF0EE0FFF1FBB1F661F771F0B
:104FD000881F91505040A9F79E3F510580F00C94D6
:104FE00043270C948E275F3FE4F3983ED4F38695D5
:104FF00077956795B795F795E7959F5FC1F7FE2B76
:10500000880F911D9695879597F90895FB01DC010E
:1050100002C001900D9241505040D8F70895BB272F
:105020004A3031F4992322F4BDE2909581959F4F47
:105030000C941B28BB27FB015527AA27880F991F13
:10504000AA1FA41710F0A41B83955051B9F7A05DB7
:10505000AA3308F0A95DA193009779F7B111B19334
:105060001192CB010C948F2A0F931F93CF93DF9350
:10507000CDB7DEB72E970FB6F894DEBF0FBECDBF0B
:105080000D891E8986E08C831A8309838FEF9FE741
:105090009E838D83AE01475E5F4F6F89788DCE0111
:1050A00001960E9464282F813885020F131FF80192
:1050B00010822E960FB6F894DEBF0FBECDBFDF91E3
:1050C000CF911F910F9108952F923F924F925F922F
:1050D0006F927F928F929F92AF92BF92CF92DF9208
:1050E000EF92FF920F931F93CF93DF93CDB7DEB76D
:1050F0002B970FB6F894DEBF0FBECDBF7C013B01EE
:105100008A01FC0117821682838181FFEFC1CE01E3
:1051100001965C01F7019381F30193FD859193FF63
:1051200081913F01882309F42FC1853239F493FD21
:10513000859193FF81913F01853229F4B70190E079
:105140000E949F2AE7CF912C212C312CFFE1F315EF
:1051500038F08B32D9F090F48032D9F0833249F1B3
:1051600037FC41C020ED280F2A3070F536FE24C0F0
:105170008AE0989E200D1124922E0EC08D32A9F047
:10518000803371F7232D2160322E06C0832D82607B
:10519000382EE32DE4603E2EF30193FD859193FFBD
:1051A00081913F018111D2CF1EC0F32DF8603F2EB7
:1051B000F3CF232D2061E8CFEAE02E9E200D1124AD
:1051C000222EF32DF062F3CF8E3229F436FCDCC0B0
:1051D000232D2064D9CF8C3621F4832D8068382E7E
:1051E000DBCF8836C9F2982F9F7D95549330D8F045
:1051F0008336C9F18337E9F1833509F068C02801A6
:1052000022E0420E511CF801C080D18036FE45C01C
:10521000692D70E0C6010E94792A4C01F32DF068D7
:105220003F2E82010BC00C5F1F4F9FE399838824A0
:105230008394912C6501F32DFF773F2E33FC05C03D
:10524000822D90E08816990658F1522C8114910411
:1052500071F5552009F45ECFB70180E290E00E941D
:105260009F2A5A94F6CFF801808189830E5F1F4FE1
:10527000DECF2801F2E04F0E511CF801C080D18032
:1052800036FE08C0692D70E0C6010E94842A4C01D8
:105290008201D1CF6FEF7FEFF7CF6FEF7FEFBACF04
:1052A000B70180E290E00E949F2A2A94C9CFF601BC
:1052B00037FC859137FE81916F01B70190E00E9424
:1052C0009F2A51105A9421E0821A9108BFCF843648
:1052D00011F08936C1F5F80137FE2CC0608171816B
:1052E000828193810C5F1F4FF32DFF763F2E97FF36
:1052F00009C090958095709561957F4F8F4F9F4F16
:10530000F0683F2E2AE030E0A5010E94CF2AC82E87
:10531000CA1836FE77C0232D2E7F422EC91408F0FE
:10532000B0C034FE05C032FC03C0832D8E7E482EF3
:10533000892C6AC060817181072E000C880B990B43
:105340000E5F1F4FD1CF8537B9F4232D2F7ED22E7C
:105350002AE030E0F801D7FE4EC060817181828181
:1053600093810C5F1F4FA5010E94CF2AC82ECA1837
:10537000FD2DFF773F2ECDCF932D997FD92E8F36E0
:10538000B9F1F0F4883561F1F701868197812B96A8
:105390000FB6F894DEBF0FBECDBFDF91CF911F9146
:1053A0000F91FF90EF90DF90CF90BF90AF909F90C4
:1053B0008F907F906F905F904F903F902F900895C7
:1053C000803751F0883701F7D4FE03C0FD2DF4601B
:1053D000DF2E20E130E0BECFE92FE061DE2EF4CFFA
:1053E00034FE03C0292F2660D22E20E132E0B2CF56
:1053F00028E030E0AFCF6081718180E090E00E5F07
:105400001F4FB1CF8C2C432C44FE44C0FE01EC0D49
:10541000F11D80818033B9F5942D997E492EE42DBC
:10542000E8705E2E43FC44C040FE3EC0821408F08B
:1054300044C02C0C922C981844FE44C0B70180E361
:1054400090E00E949F2A42FE07C041FC38C088E7D6
:1054500090E0B7010E949F2AC91408F440C0CA9482
:10546000D12CFFEFCF1ADF0ACA0CDB1CF6018291A8
:105470006F01B70190E00E949F2AAC14BD04B1F700
:10548000E8CE8C2CC1CF42FC02C08394C8CF839459
:105490008394C5CF842D867811F2F7CFB70180E2CF
:1054A00090E00E949F2A83948214C0F3512CC4CFB1
:1054B0008214E0F7522C5818BFCF9C2CBDCF88E542
:1054C00090E0C7CF842D867839F241FE06C08BE28A
:1054D00047FC8DE2B70190E0BDCF80E2F9CFB70184
:1054E00080E390E00E949F2A9A94B6CF8FEF9FEFBF
:1054F0004ECFFC010590615070400110D8F78095A7
:1055000090958E0F9F1F0895FC016150704001908F
:105510000110D8F7809590958E0F9F1F0895DC019C
:10552000FC01672F71917723E1F7329704C07C91DA
:105530006D9370836291AE17BF07C8F308950F9300
:105540001F93CF93DF93182F092FEB018B8181FDE0
:1055500009C01FEF0FEF812F902FDF91CF911F9187
:105560000F91089582FF14C02E813F818C819D810F
:10557000281739073CF4E881F981CF010196998316
:10558000888310838E819F8101969F838E83E3CFD2
:10559000E885F985812F0995892BA1F3DACFFA01E6
:1055A000AA27283051F1203181F1E8946F936E7F62
:1055B0006E5F7F4F8F4F9F4FAF4FB1E03ED0B4E053
:1055C0003CD0670F781F891F9A1FA11D680F791F94
:1055D0008A1F911DA11D6A0F711D811D911DA11DA5
:1055E00020D009F468943F912AE0269F11243019B5
:1055F000305D3193DEF6CF010895462F4770405D50
:105600004193B3E00FD0C9F7F6CF462F4F70405DFE
:105610004A3318F0495D31FD4052419302D0A9F759
:10562000EACFB4E0A6959795879577956795BA9553
:10563000C9F700976105710508959B01AC010A2E19
:1056400006945795479537952795BA95C9F7620FF0
:10565000731F841F951FA01D0895F999FECF92BD59
:1056600081BDF89A992780B50895A8E1B0E042E09D
:1056700050E00C944F2B262FF999FECF92BD81BD9F
:1056800020BD0FB6F894FA9AF99A0FBE01960895C4
:105690000E943B2B272F0C943C2BDC01CB01FC01FF
:1056A000F999FECF06C0F2BDE1BDF89A319600B47B
:0E56B0000D9241505040B8F70895F894FFCF86
:1056BE00F8900182838800452753544154453A207F
:1056CE002020202020534F433A20202025563A20D8
:1056DE0020202020413A2020202020202020202081
:1056EE0020534146455459204C4F4F503A202020CC
:1056FE002020202020503E2020202020202020204E
:10570E00202020202020202020564F46463A2020C0
:10571E00202020414F46463A202020202056534C30
:10572E00503A202020202041534C503A2020202057
:10573E00202020202020202020202020202020205B
:10574E002020202020502F43414C3E20202020207E
:10575E0020202020202020202053544154453A2040
:10576E0020202020202020202020202020564F46A0
:10577E00463A2020202020544F46463A2020202012
:10578E002056534C503A202020202054534C503A4F
:10579E0020202020205345524C3A2020202020410A
:1057AE004444523A307820202055502F444F574EC3
:1057BE0020544F204348414E4745202020454E540B
:1057CE00455220544F205345542020202020202085
:1057DE0020435552523E3078202020204E58543EC1
:1057EE003078202020780C10400D00000000EF0BC8
:1057FE00C8000000670C106F1100000000270BC8D6
:10580E00000000560C10BC11000000005F0AC8001A
:10581E000000450C100D12000000009709C8000092
:10582E0000340C10291300000000CF08C80000003F
:10583E00230C104013000000000708C800000012DF
:10584E000C10F314000000003F07C8000000010C0C
:10585E0010CF0F000000007706C8000000F00B10FC
:10586E005E0C00000000AF05C80000004445414436
:10587E000043485247004348524744004C434F00B0
:10588E00464C5400424F4F54005244590025303379
:08589E005800253034580000C9
:00000001FF
