:100000000C9455000C9474000C9474000C947400BF
:100010000C9474000C9474000C9474000C94740090
:100020000C9474000C9474000C9474000C94740080
:100030000C94011E0C9474000C9474000C947400C5
:100040000C9474000C9474000C9474000C94740060
:100050000C9474000C9474000C9474000C94740050
:100060000C9474000C9474000C9474000C94740040
:100070000C9474000C9474000C9474000C94740030
:100080000C9474000C9474000C9474000C94931EE3
:100090000C947400621FD41F4C20AE20DE20162169
:1000A0005221D5216022601F402311241FBECFEFB3
:1000B000D0E1DEBFCDBF12E0A0E0B1E0ECE2F6E5BA
:1000C00000E00BBF02C007900D92A03EB107D9F728
:1000D0001EE0A0EEB2E001C01D92AA32B107E1F726
:1000E0000E94EE240C94142B0C942E1ECF93DF93BD
:1000F00000D000D0CDB7DEB71B821C8281E7898398
:100100001A8240E050E0BA0183E29EE00E94CE18DD
:1001100062E0CE0101960E944D1E62E0CE01039680
:100120000E947C1E83E29EE00E9468198C8180FF01
:1001300003C01092D80D03C091E09093D80D83FFB7
:1001400003C01092BB0D03C081E08093BB0D0F90E4
:100150000F900F900F90DF91CF9108951F93CF9341
:10016000DF9300D000D000D0CDB7DEB710E91983FF
:1001700081E08A8382E88B8383E88C8340E050E0CF
:10018000BA0183E29EE00E94CE1864E0CE0101969F
:100190000E944D1E1D831E8262E0CE0105960E94C4
:1001A0004D1E83E29EE00E94681926960FB6F894D1
:1001B000DEBF0FBECDBFDF91CF911F9108951F937A
:1001C000CF93DF9300D000D000D0CDB7DEB718E8D2
:1001D00019831A8285E48B8387E28C8340E050E0A8
:1001E000BA0183E29EE00E94CE1864E0CE0101963F
:1001F0000E944D1E1D8381E08E831092090D109286
:10020000080D62E0CE0105960E944D1E83E29EE03D
:100210000E94681926960FB6F894DEBF0FBECDBFB8
:10022000DF91CF911F910895CF93DF9300D0CDB789
:10023000DEB788E8898381E08A8340E050E0BA0134
:1002400083E29EE00E94CE1862E0CE0101960E94F9
:100250004D1E83E29EE00E9468190F900F90DF917F
:10026000CF9108951F93CF93DF9300D000D000D09B
:10027000CDB7DEB70E94140119E81C831D821E82CF
:1002800040E050E0BA0183E29EE00E94CE1863E0B5
:10029000CE0104960E944D1E19831A821B8263E0D0
:1002A000CE0101960E947C1E83E29EE00E946819A6
:1002B0008A8190E0982F88272B81820F911D2696A6
:1002C0000FB6F894DEBF0FBECDBFDF91CF911F9167
:1002D0000895CF93DF9300D0CDB7DEB788E8898348
:1002E00082E08A8340E050E0BA0183E29EE00E940F
:1002F000CE1862E0CE0101960E944D1E83E29EE080
:100300000E9468190F900F90DF91CF9108951F936D
:10031000CF93DF9300D000D000D0CDB7DEB70E94DE
:10032000690119E81C831D821E8240E050E0BA0179
:1003300083E29EE00E94CE1863E0CE0104960E9404
:100340004D1E19831A821B8263E0CE0101960E9422
:100350007C1E83E29EE00E9468198A8190E0982FBB
:1003600088272B81820F911D26960FB6F894DEBF49
:100370000FBECDBFDF91CF911F9108951F93CF93F3
:10038000DF9300D000D000D0CDB7DEB711E91C83D9
:100390001D821E8240E050E0BA0183E29EE00E948E
:1003A000CE1863E0CE0104960E944D1E19831A8276
:1003B0001B8263E0CE0101960E947C1E83E29EE0D8
:1003C0000E9468198A8190E0982F88272B81820FDC
:1003D000911D26960FB6F894DEBF0FBECDBFDF91FC
:1003E000CF911F910895CF93DF9300D0CDB7DEB7A3
:1003F00080E789838BEF8A8340E050E0BA0183E293
:100400009EE00E94CE1862E0CE0101960E944D1E31
:1004100083E29EE00E9468190F900F90DF91CF91C8
:100420000895CF93DF9300D0CDB7DEB780E78983FF
:100430008FEF8A8340E050E0BA0183E29EE00E94A1
:10044000CE1862E0CE0101960E944D1E83E29EE02E
:100450000E9468190F900F90DF91CF910895FF923D
:100460000F931F93CF93DF9300D000D01F92CDB78F
:10047000DEB7182F062FF42E40E050E0BA0183E2D9
:100480009EE00E94CE1880E489834F2D50E0440FF7
:10049000551F602F6C60912F907F942B962B9A8321
:1004A00028E02B83462B30E1139FC0011124482BF9
:1004B0004C832D8365E0CE0101960E944D1E83E2A0
:1004C0009EE00E9468190F900F900F900F900F9070
:1004D000DF91CF911F910F91FF90089540E060E070
:1004E00088E20E942F0240E060E08EE00E942F022E
:1004F00040E060E086E00C942F020F931F93CF93AF
:10050000DF9300D000D0CDB7DEB700E40B8318E056
:100510001C8340E050E0BA0183E29EE00E94CE18C6
:1005200062E0CE0103960E944D1E68E270E080E01A
:1005300090E00E947C1A09838CE28A8362E0CE01FB
:1005400001960E944D1E1A8362E0CE0101960E9420
:100550004D1E83E29EE00E9468190E946E020F9079
:100560000F900F900F90DF91CF911F910F910895F1
:100570000F931F93CF93DF93162F082FEC018C2F2F
:10058000801B811730F440E061E089910E942F02C6
:10059000F6CFDF91CF911F910F910895CF93DF9305
:1005A00000D0CDB7DEB7880F89831A8240E050E0D3
:1005B000BA0183E29EE00E94CE1862E0CE0101966D
:1005C0000E944D1E83E29EE00E9468190F900F90DA
:1005D000DF91CF910895CF93DF9300D0CDB7DEB7F1
:1005E000880F898381E08A8340E050E0BA0183E28A
:1005F0009EE00E94CE1862E0CE0101960E944D1E40
:1006000083E29EE00E9468190F900F90DF91CF91D6
:100610000895CF93DF93CDB7DEB728970FB6F89440
:10062000DEBF0FBECDBF982F990F9E8390E39F83AF
:100630001886880F816089831A821B821C821D8222
:1006400040E050E0BA0183E29EE00E94CE1863E0F1
:10065000CE0106960E944D1E65E0CE0101960E94D5
:100660004D1E65E0CE0101960E947C1E8C8190E0BB
:10067000982F88272D81820F911D9093B60C80931F
:10068000B50C8A8190E0982F88272B81820F911DCD
:100690009093F70C8093F60C83E29EE00E94681919
:1006A0006091F60C7091F70C8091B50C9091B60C9E
:1006B00028960FB6F894DEBF0FBECDBFDF91CF9165
:1006C00008950F931F93CF93DF9300D000D000D0F5
:1006D000CDB7DEB7982F990F9C8390E39D8393E06D
:1006E0009E83880F816089831A821B8240E050E0DC
:1006F000BA0183E29EE00E94CE1863E0CE01049628
:100700000E944D1E63E0CE0101960E944D1E63E0E3
:10071000CE0101960E947C1E0A811B8183E29EE02D
:100720000E946819802F90E0912B26960FB6F894BE
:10073000DEBF0FBECDBFDF91CF911F910F91089506
:10074000CF931092D30D40E050E0BA0183E29EE0D7
:100750000E94CE18C1E080E98C0F8230A8F08C2F67
:100760000E946103853A954A79F48091D30D8031D6
:1007700058F4E091D30DF0E0E850F34FC08380913E
:10078000D30D8F5F8093D30DCF5FC03821F783E205
:100790009EE0CF910C946819EF92FF920F931F93F4
:1007A000CF93DF93CDB7DEB728970FB6F894DEBFAF
:1007B0000FBECDBF982F990F9E8390E39F8392E049
:1007C0009887880F816089831A821B821C821D8210
:1007D00040E050E0BA0183E29EE00E94CE1863E060
:1007E000CE0106960E944D1E65E0CE0101960E9444
:1007F0004D1E65E0CE0101960E947C1E0C8110E02A
:10080000102F00278D81082BEA80F12CFE2CEE247E
:100810008B81E82A83E29EE00E946819B701C80133
:1008200028960FB6F894DEBF0FBECDBFDF91CF91F3
:100830001F910F91FF90EF9008950F931F93CF9307
:10084000DF93CDB7DEB72A970FB6F894DEBF0FBEA1
:10085000CDBF982F990F9E8390E39F8391E0988757
:10086000880F816089831A821B821C821D8240E06E
:1008700050E0BA0183E29EE00E94CE1863E0CE0110
:1008800006960E944D1E65E0CE0101960E944D1E07
:1008900065E0CE0101960E947C1E1D810C817B814A
:1008A0006A8183E29EE06A8779870E9468196A8577
:1008B0007985C8012A960FB6F894DEBF0FBECDBF6A
:1008C000DF91CF911F910F9108951F93CF93DF93E5
:1008D00010E0C12FDD27C7FDD0958091D30D90E0AA
:1008E000C817D907CCF4FE01E850F34F80810E946D
:1008F0001D04FE01EE0FFF1FEE0FFF1FE959F24F1F
:10090000608371838283938361E070E080E090E094
:100910000E947C1A1F5FDDCFDF91CF911F91089558
:1009200083E29EE00E947A180E94381E40E050E068
:10093000BA0183E29EE00E94CE180E94A0030E94AA
:10094000110264E670E080E090E00E947C1A0E9450
:10095000650483E29EE00C94681940E060E080E862
:100960000E942F020E946E0264E185E39DE00E94D6
:10097000B80264E187EA9DE00E94B80264E18FEB6F
:100980009CE00E94B80264E18AE09EE00C94B80208
:100990002F923F924F925F926F927F928F929F928F
:1009A000AF92BF92CF92DF92EF92FF920F931F937D
:1009B000CF93DF93CDB7DEB7C456D1090FB6F89405
:1009C000DEBF0FBECDBF84E1E1E0F1E0DE01DD96E8
:1009D00001900D928A95E1F784E1E5E1F1E0DE0115
:1009E000999601900D928A95E1F784E1E9E2F1E0B0
:1009F000DE01559601900D928A95E1F784E1EDE3D1
:100A0000F1E0DE01119601900D928A95E1F7809157
:100A1000250D9091260D8230910579F028F40097EC
:100A2000F1F00197F9F006C08430910561F040F0D3
:100A3000069791F064EB72E017C06EEB72E014C0A1
:100A400064EC72E011C08091490D805D28968FAFF3
:100A5000289768EC72E008C061ED72E005C06CECAC
:100A600072E002C069EB72E0FB0101900020E9F73F
:100A7000AF0141505109461B570BCE018D5B9F4F73
:100A80000E94DA278091BE0C24E6622F0E941C256A
:100A9000805D2E968FAF2E978091BE0C0E941C25F4
:100AA000892F2AE0622F0E941C25805D2F968FAF30
:100AB0002F978091BE0C0E941C25905D60969FAF81
:100AC00060978091C60D9091C70D64E670E00E941A
:100AD0004A25605D65966FAF65978091C60D9091D0
:100AE000C70D2AE030E0B9010E944A25CB01B901C7
:100AF0000E944A25805D66968FAF66978091C60DED
:100B00009091C70DB9010E944A25805D67968FAF0D
:100B10006797C0900A0DD0900B0DE0900C0DF090EF
:100B20000D0D60910A0D70910B0D80910C0D90913F
:100B30000D0D0E94C32620E030E0A9010E9424266A
:100B400087FF0BC0C701B6010E94C32690580E94C0
:100B500090266B017C011DE201C010E2C701B601C5
:100B600020EA36E841E050E00E9480250AE0802E2D
:100B7000912CA12CB12CCA01B901A50194010E94AC
:100B80008025605D68966FAF6897C701B60120E168
:100B900037E240E050E00E948025CA01B901A5017A
:100BA00094010E948025605D69966FAF6997C701C7
:100BB000B60128EE33E040E050E00E948025CA01F3
:100BC000B901A50194010E948025605D6A966FAF0E
:100BD0006A97C701B60124E630E040E050E00E9489
:100BE0008025CA01B901A50194010E948025605D9C
:100BF0006B966FAF6B97C701B601A50194010E9478
:100C00008025062FCA01B901A50194010E94802503
:100C1000605D6C966FAF6C97005D6D960FAF6D97D2
:100C20008091100D882391F004E4F5E46296FFAF03
:100C3000629783E563968FAF63979FE464969FAF57
:100C40006497ACE42A2EB3E43B2E11C000E2E0E24C
:100C50006296EFAF6297FEE46396FFAF639785E419
:100C600064968FAF6497E0E52E2EFFE43F2E0E943E
:100C7000151A24E6C22ED12CE12CF12CA7019601E5
:100C80000E945E256CE3862E912CA12CB12CCA010A
:100C9000B901A50194010E945E25A1966CAF7DAFBC
:100CA0008EAF9FAFA197CA01B901A50194010E941F
:100CB0005E252B013C01CA01B90128E130E040E08A
:100CC00050E00E945E2549015A01A5966CAF7DAFA8
:100CD0008EAF9FAFA59784E1FE01FD96A5E3BDE031
:100CE00001900D928A95E1F765969FAD65979BA758
:100CF0006696EFAD6697ECA78EE28DA76796FFAD7F
:100D00006797FEA71AAB68969FAD68979BAB6996ED
:100D1000EFAD6997ECAB6A96FFAD6A97FDAB8EAB12
:100D20006B969FAD6B979FAB6C96EFAD6C97E8AFF2
:100D30006D96FFAD6D97F9AF94E1FE01B996A7EA04
:100D4000BDE001900D929A95E1F73AA22BA264962C
:100D50009FAD64979CA36396EFAD6397EDA36296F6
:100D6000FFAD6297FEA30FA394E1FE017596AFEB72
:100D7000BCE001900D929A95E1F796E79B8390E392
:100D80009C838D8381E38E8385E38F83CA01B901C0
:100D9000A70196010E945E257AE0C72ED12CE12C96
:100DA000F12CCA01B901A70196010E945E25605D80
:100DB0006987C501B401A70196010E945E25162F1F
:100DC000CA01B901A70196010E945E25605D6A878C
:100DD000105D1B871AE31C87A5966CAD7DAD8EADAB
:100DE0009FADA597A70196010E945E25062FCA0117
:100DF000B901A70196010E945E25605D6D87005DC7
:100E00000E871F87C301B201A70196010E945E25CC
:100E1000062FCA01B901A70196010E945E25605DF7
:100E2000688B005D098B1A8BA1966CAD7DAD8EAD84
:100E30009FADA197A70196010E945E25162FCA01BA
:100E4000B901A70196010E945E25605D6B8B105D64
:100E50001C8B84E1FE013196AAE0BEE001900D9268
:100E60008A95E1F7CC59DF4F0FB6F894DEBF0FBE7D
:100E7000CDBFDF91CF911F910F91FF90EF90DF9049
:100E8000CF90BF90AF909F908F907F906F905F902A
:100E90004F903F902F900895CF93DF93CDB7DEB75B
:100EA000C055D1090FB6F894DEBF0FBECDBF84E1A7
:100EB000E1E5F1E0DE01DD9601900D928A95E1F722
:100EC00084E1E5E6F1E0DE01999601900D928A95C4
:100ED000E1F784E1E9E7F1E0DE01559601900D923A
:100EE0008A95E1F784E1EDE8F1E0DE0111960190E9
:100EF0000D928A95E1F78DE223968FAF23979FE2BB
:100F000024969FAF24979EE225969FAF259726961D
:100F10008FAF269784E1FE01FD96A5E3BDE0019029
:100F20000D928A95E1F784E1FE01B996A7EABDE04A
:100F300001900D928A95E1F784E1FE017596AFEB81
:100F4000BCE001900D928A95E1F784E1FE013196B3
:100F5000AAE0BEE001900D928A95E1F7C05BDF4FF9
:100F60000FB6F894DEBF0FBECDBFDF91CF910895CD
:100F70002F923F924F925F926F927F928F929F92A9
:100F8000AF92BF92CF92DF92EF92FF920F931F9397
:100F9000CF93DF93CDB7DEB764970FB6F894DEBF7B
:100FA0000FBECDBF94E1E1EAF1E0DE0111960190C0
:100FB0000D929A95E1F790E3392E380EE82FF0E084
:100FC000EE0FFF1FDF01A752B24F8D919C91119739
:100FD000AD90BC901197CD90DC901197ED90FC9066
:100FE000ED5EF24F0081118120813181608071803E
:100FF0004080518044E1FE013196A5E3BDE00190BF
:101000000D924A95E1F7E7EAFDE043E4408331823F
:101010005FE5252E228256E553835AE3548368EE1A
:10102000862E63E0962EB4010E943625605D6583AE
:101030008EE28683C501B4010E94362574E6A72E90
:10104000B12CB5010E943625605D6783C601B401ED
:101050000E943625B5010E943625AAE0CA2ED12C61
:10106000B6010E943625605D6087C701B6010E9407
:101070003625805D8187B0E2FB2EF286F386F4860A
:10108000F586F686F786F08AF18AF28AF38AEFEB24
:10109000FCE040833182228284E583835AE35483D7
:1010A000C801B4010E943625605D6583C901B401A1
:1010B0000E943625B5010E943625605D6683C30116
:1010C000B4010E943625B5010E943625B6010E9462
:1010D0003625605D67838EE28087C201B6010E947B
:1010E0003625805D8187F286F386F486F586F6865E
:1010F000F786F08AF18AF28AF38AEAE0FEE080E578
:1011000080838FE28183428333828EE38483F582FE
:10111000F682F782F086F186F286F386F486F5860B
:10112000F686F786F08AF18AF28AF38A64960FB619
:10113000F894DEBF0FBECDBFDF91CF911F910F910D
:10114000FF90EF90DF90CF90BF90AF909F908F90E7
:101150007F906F905F904F903F902F9008952F92C7
:101160003F924F925F926F927F928F929F92AF9237
:10117000BF92CF92DF92EF92FF920F931F93CF9384
:10118000DF93CDB7DEB7C354D1090FB6F894DEBFF5
:101190000FBECDBF94E1E5EBF1E0DE019996019041
:1011A0000D929A95E1F794E1E9ECF1E0DE015596B4
:1011B00001900D929A95E1F794E1EDEDF1E0DE01F9
:1011C000119601900D929A95E1F720E3280F2FAF29
:1011D000A0E5BDE0EEECFDE090E291939D937DE013
:1011E000E33DF707D1F7E82EF12C8701000F111F1F
:1011F000F801E450F24F808191814AE050E06EECBA
:101200007DE00E94E327F801E95DF24F8081918142
:101210004AE050E060E57DE00E94E327A0E5BDE004
:10122000EEECFDE080E29081911101C080839C9101
:10123000911101C08C93319611969DE0E33DF90721
:1012400091F79090CE0DE091CF0D2196EFAF2197C1
:10125000F091D00D2296FFAF22977090D10D809023
:10126000D20D2090500D3090510D4090520D509065
:10127000530D6090540DF701EE0FFF1FE551F24F33
:101280008081918164E670E00E9436252AE030E09A
:10129000B9010E943625605D23966FAF2397808148
:1012A0009181B9010E943625805D24968FAF2497E5
:1012B000C701880F991F880F991F9EAF8DAF8C01B2
:1012C0000D52134FF80160817181828193810E94D8
:1012D0009026A62EF0E3AF0EF80160817181828125
:1012E000938120E030E040E251E40E9477270E94A1
:1012F0009026862F9AE0D92E6D2D0E942825B92E92
:10130000F0E3BF0EF801608171818281938120E05A
:1013100030E048EC52E40E9477270E949026862F06
:101320006D2D0E942825C92EF0E3CF0EF8016081B3
:1013300071818281938120E030E04AE754E40E9489
:1013400077270E949026862F6D2D0E94282597FDD5
:1013500018C0F80180819181A281B381608171817F
:101360008281938120E030E04AE754E40E947727AD
:101370000E949026862F6D2D0E942825192F105D22
:1013800001C010E2F701E850F34F80811F928F9364
:1013900085ED92E09F938F938FEE9CE09F938F93C8
:1013A0000E9404285091EF0C4091F00C3091F10C08
:1013B000EDADFEADE959F24F2081918182816381CB
:1013C0002EA63FA648AA59AA6AAA2396FFAD23973C
:1013D000F8AF24967FAD249779AF74E1FE01B996FA
:1013E000A5E3BDE001900D927A95E1F79A8E2196E2
:1013F000EFAD2197EB8F2296FFAD2297FC8F7D8E6C
:101400008E8EACA27EE27DA3BEA2CFA218A774E10D
:10141000FE017596A7EABDE001900D927A95E1F77D
:10142000205D2E83905D9F83805D8887605D6987E6
:101430005A8B4B8B3C8B84E1FE013196AFEBBCE0C9
:1014400001900D928A95E1F780E580930A0E9FE264
:1014500090930B0E83E480930C0E2FAD20930D0E12
:1014600090930E0E80930F0E81E48093100E8CE407
:101470008093110E8EE38093120E80E28093130E00
:101480008093140E8093150E8093160E8093170E82
:101490008093180E8093190E80931A0E80931B0E62
:1014A00080931C0E80931D0E0F900F900F900F9045
:1014B0000F900F90CD5BDF4F0FB6F894DEBF0FBEDD
:1014C000CDBFDF91CF911F910F91FF90EF90DF90F3
:1014D000CF90BF90AF909F908F907F906F905F90D4
:1014E0004F903F902F9008952F923F924F925F928E
:1014F0006F927F928F929F92AF92BF92CF92DF9224
:10150000EF92FF920F931F93CF93DF93CDB7DEB788
:10151000ED970FB6F894DEBF0FBECDBF84E1E1EFCB
:10152000F1E0DE01999601900D928A95E1F784E150
:10153000E5E0F2E0DE01559601900D928A95E1F723
:1015400084E1E9E1F2E0DE01119601900D928A95C5
:10155000E1F78091F40C9091F50C9093E80D809355
:10156000E70D8091F40C9091F50C9F938F930AED09
:1015700012E01F930F9382E69DE09F938F930E944A
:1015800004288091E70D9091E80D9F938F931F930E
:101590000F938EE19EE09F938F930E94042862E355
:1015A00070E080E090E00E947C1A1092BC0D0FB6B3
:1015B000F894DEBF0FBECDBF28010EE11EE0212C46
:1015C000B5E03B2E83E5B82E95E4A92E20E2F22E5D
:1015D00031E4832E44E4942E54E1C52E8091FB0D1A
:1015E000882379F18091BC0D8F5F8093BC0D809131
:1015F000BC0D90E09B5F9093E80D8093E70D809188
:10160000E70D9091E80D9F938F935F924F921F93F8
:101610000F930E9404288091E70D9091E80D0F90A0
:101620000F900F900F900F900F908115964031F40E
:101630001092BC0D3092E80D2092E70D1092FB0D38
:1016400029C08091CC0D882329F18091BC0D88237D
:10165000F9F08091BC0D81508093BC0D8091BC0D40
:1016600090E09B5F9093E80D8093E70D8091E70DEC
:101670009091E80D9F938F935F924F921F930F93DA
:101680000E9404280F900F900F900F900F900F90D2
:101690001092CC0D6091630D5091640D4091650DD9
:1016A00030911F0E9091200E8091210E73E5D72E60
:1016B000B092350DE5E47E2EA092360D74E5709360
:1016C000370DF0E2EF2EF092380D23E42093390D20
:1016D00021E480923A0D7EE470933B0DF0923C0D34
:1016E00080923D0DA4E46A2E90923E0D90923F0DA3
:1016F00072E57093400DA092410DB092420DB092F0
:10170000430DF092440DF092450DF092460DF0928B
:10171000470DF092480DFE01B996A7EABDE07C2D79
:1017200001900D927A95E1F7FE017596AFEBBCE062
:101730007C2D01900D927A95E1F7688759874A8749
:10174000398B9A8B8B8BFE013196AAE0BEE08C2DF3
:1017500001900D928A95E1F7189940CF8091F40C91
:101760009091F50C01969093EA0D8093E90D80918C
:10177000F40C9091F50C02969093120D8093110D3C
:101780006091E70D7091E80D82E090E02DAF0E942E
:10179000492A6091E90D7091EA0D84E090E00E9481
:1017A000492A6091110D7091120D86E090E00E941F
:1017B000492A82E090E00E94362A9093F50C8093AB
:1017C000F40C83E48093350D2DAD2093360D8EE41B
:1017D0008093370DE092380D2093390D60923A0DC9
:1017E00060923B0D82E580933C0D70923D0DD0924E
:1017F0003E0DD0923F0DE092400DD092410D70927F
:10180000420D84E58093430D81E28093440DE09284
:10181000450DE092460DE092470DE092480D84E1BF
:10182000FE01B996A7EABDE001900D928A95E1F715
:1018300084E1FE017596AFEBBCE001900D928A95B4
:10184000E1F784E1FE013196AAE0BEE001900D923D
:101850008A95E1F764E670E080E090E00E947C1AEF
:1018600080E0ED960FB6F894DEBF0FBECDBFDF91DE
:10187000CF911F910F91FF90EF90DF90CF90BF908D
:10188000AF909F908F907F906F905F904F903F9020
:101890002F90089584B1887F84B985B1876085B918
:1018A00008950E944A0C62E370E080E090E00E949C
:1018B0007C1AC1E01A9903C0C093FB0D09C01999A5
:1018C00003C0C093CC0D04C01899F4CFC093A60CEC
:1018D0006EE170E080E090E00E947C1AEBCFCF9246
:1018E000DF92EF92FF920F931F93CF93DF93CDB7C9
:1018F000DEB72DB73EB78091D30D4DB75EB7481B0D
:1019000051090FB6F8945EBF0FBE4DBF8DB79EB79D
:1019100001964091250D5091260D4130510509F059
:1019200083C040914A0D442309F47EC010924A0DB1
:1019300040E05091D30D451730F4FC01E40FF11D48
:1019400040834F5FF6CFE12C4091D30D6E2D70E0B8
:1019500050E0415051096417750774F5F12CAF2D13
:10196000B0E04091D30D50E041505109A417B507A4
:101970000CF5AC014A0F5B1FFA01C080EC2DF0E0C2
:10198000EE0FFF1FE752F24F008111811196A80F51
:10199000B91FDC90ED2DF0E0EE0FFF1FE752F24F84
:1019A000608171816017710718F4CC92FA01D082BE
:1019B000F394D5CFE394C8CF1091D30D115007E025
:1019C0001123E1F0DC01A10FB11DEC91F0E0EE0F6D
:1019D000FF1FE752F24F408151811197EC91F0E0E7
:1019E000EE0FFF1FE752F24F60817181461B570BCC
:1019F0004931510508F0012F1150E2CF60E071E04C
:101A00004091D30D641710F5462F50E0FC01E40F10
:101A1000F51FE081F0E0E954F34F601710F0708398
:101A200001C010826F5FECCF8091250D9091260D43
:101A3000019761F080E09091D30D891738F4E82F79
:101A4000F0E0E954F34F10828F5FF5CF0FB6F894B2
:101A50003EBF0FBE2DBFDF91CF911F910F91FF9021
:101A6000EF90DF90CF900895CF93DF93CDB7DEB79F
:101A700028970FB6F894DEBF0FBECDBF0E9490042A
:101A80000E94AE000E94DF000E947D0281E08093F0
:101A9000F30C10924A0D14E6412E512C612C712C3E
:101AA000222423940E94151AA30192010E945E250C
:101AB000633371058105910558F08091F30C8823FB
:101AC00049F01092F30C20924A0D0E94AD0402C01E
:101AD0002092F30C65E070E080E090E00E947C1AB8
:101AE000312C8091D30D381608F092C0032D10E0F0
:101AF000F801E850F34F80810E9409036B017C01DB
:101B00009801220F331F38872F83F901E450F24FD9
:101B100020813181EF81F885E95DF24F408151816B
:101B20005A83498356E05E9DC0015F9D900D11244C
:101B3000BC0180E090E02D833E830E94C1264B01D2
:101B40005C012D813E81B90180E090E00E94C126B8
:101B500020E030E040E85AE30E9477279B01AC0187
:101B6000C501B4010E9477274B015C01A981BA81AC
:101B7000BD0180E090E00E94C1269B01AC01C5013F
:101B8000B4010E94C0250E949526EF81F885E75296
:101B9000F24F71836083F801EE0FFF1FEE0FFF1FFE
:101BA000ED52F34F2081318142815381EF81F885DD
:101BB000E551F24F00811181BAEFCB1AB0E8DB0A90
:101BC000CC0CDD1CB60180E090E02D833E834B837E
:101BD0005C830E94C1262D813E814B815C810E94E5
:101BE00077276B017C01B80180E090E00E94C1265C
:101BF0009B01AC01C701B6010E94C0250E94952639
:101C0000EF81F885ED5EF24F71836083339469CF85
:101C10000E948701BC01882777FD8095982F0E943C
:101C2000C3262AE037ED43EA5AE30E94772721ECE6
:101C30003AEC41E85FE30E9477272AE939E949E96C
:101C40005EE30E94BF2520E030E040E251E40E94C4
:101C500077270E9495267093C70D6093C60D0E944A
:101C600076000E943201AA2797FDA095BA2FB09561
:101C7000A095909581959F4FAF4FBF4F8093210DB9
:101C80009093220DA093230DB093240D8091210DEC
:101C90009091220DA091230DB091240D803E9E4283
:101CA000A105B105CCF48091210D9091220DA09158
:101CB000230DB091240D8132914DAF4FBF4F64F091
:101CC0008091210D9091220DA091230DB091240DB2
:101CD0009093FA0D8093F90D8091250D9091260D2A
:101CE000069709F041C08091100D8823E9F10E9408
:101CF000F3010E94BE01AA2797FDA095BA2F8093F9
:101D0000210D9093220DA093230DB093240D40E05C
:101D100050E0BA018BE49DE00E94CE188091210D25
:101D20009091220DA091230DB091240D9C01AD0145
:101D300066277727CB01621B730B840B950B0E94E0
:101D4000C3262FE632E143E059E30E94772723EDD3
:101D50003EEF46ED52E40E94772724EA30E74DE259
:101D60005FE30E94C02554C00E9411020E94BE0180
:101D7000AA2797FDA095BA2F8093210D9093220D4D
:101D8000A093230DB093240D8091210D9091220DED
:101D9000A091230DB091240D8C3B9240A105B1057B
:101DA0000CF04AC08091210D9091220DA091230D3D
:101DB000B091240D85349D4FAF4FBF4FECF140E003
:101DC00050E0BA018BE49DE00E94CE186091F90DBD
:101DD0007091FA0D882777FD8095982F0E94C32671
:101DE0002CEA35EC47E256E30E9477272FE632E1F2
:101DF00043E85AE30E9428262DE73EEA46E75FE3E0
:101E00000E94772729E839E241E15CE30E94BF257F
:101E100020E030E04AE754E40E9477270E949026B1
:101E200060930A0D70930B0D80930C0D90930D0D24
:101E30008BE49DE00E9468190E946F0C10E0809175
:101E4000D30D181708F02ECEE12FF0E0DF01A954D2
:101E5000B34F8C91E850F34F813021F480810E9480
:101E6000EB0203C080810E94CE021F5FE8CF109278
:101E7000290E1092280E8091280E9091290E079716
:101E800088F4E091280EF091290EE354F24F10826D
:101E90008091280E9091290E01969093290E80939F
:101EA000280EE9CF87E080935C0D8DEB9DE0909349
:101EB0005E0D80935D0D81E090E09093570D8093CF
:101EC000560D1092610D82E090E00E94362A9093A8
:101ED000F50C8093F40C8091F40C9091F50C892B07
:101EE00031F08091F40C9091F50C019671F460E062
:101EF00075E082E090E00E94492A82E090E00E9432
:101F0000362A9093F50C8093F40C84E090E00E94C4
:101F1000362A9093EA0D8093E90D8091E90D909116
:101F2000EA0D892B31F08091E90D9091EA0D01962F
:101F300071F461E075E084E090E00E94492A84E059
:101F400090E00E94362A9093EA0D8093E90D86E096
:101F500090E00E94362A9093120D8093110D80918B
:101F6000110D9091120D892B31F08091110D9091EE
:101F7000120D019671F462E075E086E090E00E9437
:101F8000492A86E090E00E94362A9093120D8093B1
:101F9000110D08950E94370F80E00E940A1F9924B6
:101FA0009394C0E0D3E0A2E08A2E01E013E0B4E015
:101FB0007B2E82E0E82E83E0F82E93E0C92EDC2C05
:101FC00024E0A22E23E0B22E8091250D9091260DC3
:101FD0008093BD0D90925C0DD093590DC093580D18
:101FE00085E59DE00E94191F8111FACF85E59DE0EE
:101FF0000E9400248130D1F38091C60D9091C70DCD
:102000009093BD0D8091C60D9091C70D8093BE0D2C
:1020100080925C0D1093590D0093580D85E59DE05D
:102020000E94191F8111FACF85E59DE00E940024CE
:102030008130D1F380910A0D90910B0DA0910C0D80
:10204000B0910D0D8B2F9927AA27BB278093BD0D2B
:1020500080910A0D90910B0DA0910C0DB0910D0D7A
:10206000CD01BB2797FDB095AB2F8093BE0D80911E
:102070000A0D90910B0DA0910C0DB0910D0D892FB3
:102080009A2FAB2FBB27A7FDBA958093BF0D8091E8
:102090000A0D90910B0DA0910C0DB0910D0D809338
:1020A000C00D70925C0DF092590DE092580D85E5CF
:1020B0009DE00E94191F8111FACF85E59DE00E94E5
:1020C00000248130D1F38091BE0C8093BD0D90929D
:1020D0005C0DD092590DC092580D85E59DE00E948F
:1020E000191F8111FACF85E59DE00E9400248130FF
:1020F000D1F38091C80D9091C90DA091CA0DB091F6
:10210000CB0D8B2F9927AA27BB278093BD0D8091DC
:10211000C80D9091C90DA091CA0DB091CB0DCD0104
:10212000BB2797FDB095AB2F8093BE0D8091C80D56
:102130009091C90DA091CA0DB091CB0D892F9A2F06
:10214000AB2FBB27A7FDBA958093BF0D8091C80D1B
:102150009091C90DA091CA0DB091CB0D8093C00D87
:1021600070925C0DB092590DA092580D85E59DE0DE
:102170000E94191F8111FACF85E59DE00E9400247D
:102180008130D1F31092290E1092280E8091280EE2
:102190009091290E079708F091C0E091280EF091D8
:1021A000290EE954F34F80818093BD0D90925C0D10
:1021B0008091280E9091290E8F7E9470806193609B
:1021C0009093590D8093580D85E59DE00E94191F4D
:1021D0008111FACF85E59DE00E9400248130D1F382
:1021E000E091280EF091290EEE0FFF1FE752F24FFB
:1021F000808191819093BD0DE091280EF091290E80
:10220000EE0FFF1FE752F24F808191818093BE0D48
:1022100080925C0D8091280E9091290E8F7D947094
:10222000806293609093590D8093580D85E59DE0F1
:102230000E94191F8111FACF85E59DE00E940024BC
:102240008130D1F3E091280EF091290EEE0FFF1F9F
:10225000ED5EF24F808191819093BD0DE091280E4B
:10226000F091290EEE0FFF1FED5EF24F80819181FC
:102270008093BE0D80925C0D8091280E9091290E66
:102280008F7C9470806393609093590D8093580D68
:1022900085E59DE00E94191F8111FACF85E59DE03B
:1022A0000E9400248130D1F38091280E9091290E54
:1022B00001969093290E8093280E68CF64E670E013
:1022C00080E090E00E947C1A7FCE0C94C8040E94AB
:1022D000C80464E670E080E090E00E947C1AC0E0F0
:1022E000C8301CF4C1302CF105C0CF3094F0CF3091
:1022F00029F11FC08091D30D90E02C2F332727FDAB
:10230000309582179307BCF08FEF8C0F0E94B807AF
:1023100012C02091D30D8C2F992787FD9095079798
:1023200030E0281739073CF088EF8C0F0E94AF0887
:1023300002C00E94C804189907C0CFE00E94740A26
:102340008111F9CFC0E0F7CF8091CC0D882339F00F
:10235000CF5FCF3009F4CEE01092CC0DC1CF809189
:10236000FB0D882309F4BCCFC15008F4C0E01092E3
:10237000FB0DB6CF089A109863E070E080E090E023
:102380000E947C1A109A63E070E080E090E00E9466
:102390007C1AF1CF1092D80D1092C50D80E090916B
:1023A000D30D891738F4E82FF0E0E954F34F108289
:1023B0008F5FF5CF8BE49DE00C947A1881E090E07C
:1023C0000E942E2A8093BE0C8091BE0C882321F09F
:1023D0008091BE0C8F3F59F462E381E090E00E944F
:1023E0003C2A81E090E00E942E2A8093BE0C8091CE
:1023F000BE0C08959091C50D8091BE0C981751F0B8
:102400008091BE0C8093C50D6091BE0C81E090E080
:102410000C943C2A0895CF93DF9300D000D0CDB721
:10242000DEB70E94CA11412C512C320114E62CE96E
:10243000822E99249A94A92CB92C8091250D9091E3
:10244000260D892BD1F38091250D9091260D0197B2
:1024500029F482B1806382B920E025C08091250DE6
:102460009091260D039711F4149AF6CF82B18F7CC8
:10247000F2CFE22FF0E0EE0FFF1FE752F24F808124
:10248000918185379E4070F080E096EEAFEDBCE024
:102490008093C80D9093C90DA093CA0DB093CB0D36
:1024A0001093BE0C2F5F8091D30D281710F320E0FE
:1024B0008091D30D2817B8F4E22FF0E0EE0FFF1F44
:1024C000E752F24F808191818C389A4050F41092FB
:1024D000C80D1092C90D1092CA0D1092CB0D10921A
:1024E000BE0C2F5FE5CF0E94151A69837A838B8318
:1024F0009C83DC01CB0184199509A609B7092C013D
:102500003D0140E050E0BA018BE49DE00E94CE180E
:10251000C090C80DD090C90DE090CA0DF090CB0DC1
:1025200020910A0D30910B0D40910C0D50910D0D25
:10253000C301B2010E940C25A50194010E948025CF
:10254000C20ED31EE41EF51EF7FC24C0C090C80DB9
:10255000D090C90DE090CA0DF090CB0D20910A0DDE
:1025600030910B0D40910C0D50910D0DC301B20136
:102570000E940C25A50194010E948025C20ED31E45
:10258000E41EF51EC092C80DD092C90DE092CA0D8E
:10259000F092CB0D8BE49DE00E9468196091C80D0C
:1025A0007091C90D8091CA0D9091CB0D0E94C326E8
:1025B00020E036ED43E05AE40E94732718162CF011
:1025C00049805A806B807C8038CF6091C80D7091B3
:1025D000C90D8091CA0D9091CB0D0E94C32628E0B1
:1025E0003FEE4BE45DE40E94242687FFE9CF609133
:1025F000C80D7091C90D8091CA0D9091CB0D0E94AC
:10260000C32620E63EEF4DE45DE40E94282620E04C
:1026100030E048EC52E40E9477270E9495266093B0
:10262000BE0CCECF139A81B1896381B91092100D7F
:1026300008950E94121321E080B182FB882780F95F
:1026400082278093100D8091250D9091260D06977D
:1026500021F413988091100DEFCF139AEDCF8EE3F4
:1026600090E09093EC0D8093EB0D86E490E09093D6
:10267000EE0D8093ED0D8BE290E09093F00D809342
:10268000EF0D89E390E09093F20D8093F10D80E2DD
:1026900090E09093F40D8093F30D81E390E090939C
:1026A000F60D8093F50D8EE190E09093F80D8093F8
:1026B000F70D87E79EEBAFE3BFE38093D30C9093D6
:1026C000D40CA093D50CB093D60C8AEA91EFA2E378
:1026D000BFE38093D70C9093D80CA093D90CB09300
:1026E000DA0C8FE892ECA5E5BFE38093DB0C9093C6
:1026F000DC0CA093DD0CB093DE0C84E69BE3AFE32F
:10270000BFE38093DF0C9093E00CA093E10CB093B7
:10271000E20C8FE395E3AEE5BFE38093E30C909387
:10272000E40CA093E50CB093E60C8CE497E3A9E4E9
:10273000BFE38093E70C9093E80CA093E90CB0936F
:10274000EA0C8FE29DEDA4E6BFE38093EB0C90933F
:10275000EC0CA093ED0CB093EE0CC0E0D0E08091B7
:10276000D30D90E0C817D907ACF4FE01E850F34F41
:1027700080810E94CC039E01220F331FF901E45097
:10278000F24F71836083F901E95DF24F9183808399
:102790002196E5CF1092260D1092250D0E94DE1194
:1027A0008093BE0C6091BE0C70E080E090E00E94CF
:1027B000C12620E030E048EC52E40E94282620E6C2
:1027C0003EEF4DE45DE40E9477270E9495266093DA
:1027D000C80D7093C90D8093CA0D9093CB0D0E94C4
:1027E000FA11C4E0D0E07724739462E0662E06E02C
:1027F00010E0EE24E394F12CE3E0AE2EB12CF5E0F2
:10280000CF2ED12CA2E08A2E912C0E94FA1140E00A
:102810008091D30D481710F5842F90E0880F991FF1
:10282000FC01ED5EF24F208131812935324030F0DC
:10283000D093260DC093250D1092490DFC01E7524F
:10284000F24F80819181813A9F4030F0D093260DE4
:10285000C093250D7092490D4F5FDACF8091C60D60
:102860009091C70D8134914534F0D093260DC093DB
:10287000250D6092490D8091250D9091260D0497AC
:1028800021F486E090E060E082C08091250D909177
:10289000260D8230910509F441C028F4009769F0B3
:1028A000019771F152C08530910501F18630910593
:1028B00059F0039709F049C036C068EC70E080E039
:1028C00090E00E947C1A33C08091BE0C8823C1F135
:1028D0008091D80D81110FC08091BB0D882309F420
:1028E00094CFB092260DA092250D8FCF8091D80D58
:1028F000882309F48ACFF092260DE092250D85CF2A
:102900008091D80D882399F08091BE0C843608F40C
:102910007CCF9092260D8092250D77CF8091D80D97
:10292000811173CF04C08091BB0D811105C010933C
:10293000260D0093250D69CF8091BE0C811165CFC6
:10294000D092260DC092250D60CFD093260DC09356
:10295000250D5BCF262F30E0220F331FF901ED5EEE
:10296000F24F408151814935524020F01092490D7B
:1029700084E090E0F901E752F24F20813181213A61
:102980003F4020F07092490D84E090E06F5F20910D
:10299000D30D6217F8F22091C60D3091C70D213486
:1029A000314524F06092490D84E090E09093260D2B
:1029B0008093250D2ACF87B1836087B908950E943F
:1029C000DB148091250D9091260D049711F4419A06
:1029D00001C04198409A69E170E080E090E00E9477
:1029E0007C1A409869E170E080E090E00E947C1AD7
:1029F000E8CFAF92BF92CF92DF92EF92FF920F9308
:102A00001F93CF93DF93CDE2D2E0AB84BC84CD841F
:102A1000DE84E984FA840D811E812F8138854B8103
:102A20005C816A81888199810E948716811106C024
:102A30002F9682E0C43BD80741F780E0DF91CF9129
:102A40001F910F91FF90EF90DF90CF90BF90AF90CC
:102A500008952F923F924F925F926F927F928F9242
:102A60009F92AF92BF92CF92DF92EF92FF920F931D
:102A70001F93CF93DF930DB71EB7C82FD92F0883AD
:102A80001983C62FD72F088119810DBF1EBFDF9173
:102A9000CF911F910F91FF90EF90DF90CF90BF905B
:102AA000AF909F908F907F906F905F904F903F90EE
:102AB0002F900895C82FD92F088119810DBF1EBFEF
:102AC000DF91CF911F910F91FF90EF90DF90CF900A
:102AD000BF90AF909F908F907F906F905F904F903E
:102AE0003F902F901895FFCF8091840C9091850C8A
:102AF00001969093850C8093840C08958091840CAA
:102B00009091850C892B29F48091970C9091980CC9
:102B1000089580E090E00895CF93DF93DB01009764
:102B200099F1109789F1EC0128813981F901E901C6
:102B3000309731F0528112964C9112974517F8F464
:102B4000E217F30761F4EC01B983A8831A961C928B
:102B50001E9219971C96FC93EE931B970AC01A9627
:102B6000DC93CE9319971C96FC93EE931B97BC872E
:102B7000AB87309711F0B287A18780E006C0EF01E4
:102B80000384F485E02DD4CF89ECDF91CF910895B3
:102B9000CF93DF930097A9F0DC01ED91FC91309782
:102BA00091F0A385B485EC01B983A883109721F037
:102BB0001A961C921E9219971286118614861386F5
:102BC00002C0E0E0F0E0CF01DF91CF910895CF9314
:102BD000DF93EC01009781F188819981009771F171
:102BE000FC019C01E617F707F9F4A385B485E81703
:102BF000F90749F4B983A883109781F01A961C92BB
:102C00001E9219970BC0E901BC87AB87A385B485D9
:102C1000109721F01A963C932E93199714861386D9
:102C200012861186CF010AC043855485411551058E
:102C300019F09F01FA01D6CF80E090E0DF91CF91AB
:102C40000895CF93DF930097B1F0DC01ED91FC91F3
:102C5000309799F02281621770F0A385B485EC015A
:102C6000B983A883109749F01A961C921E9219975F
:102C70001486138602C0E0E0F0E0CF01DF91CF912F
:102C80000895FF920F931F93CF93DF939091810C40
:102C90009923B9F1FFB6F894C091970CD091980C94
:102CA0009D85913069F482E89CE00E94C815C817A0
:102CB000D90729F19093980C8093970CBC011CC004
:102CC0006A81813029F06623D9F070E06150710982
:102CD00082E89CE00E9421168C01009789F0BE01D9
:102CE00082E89CE00E948C15C017D10741F0109338
:102CF000980C0093970CB801CE010E9429151D86EF
:102D0000FFBEDF91CF911F910F91FF900895AF9279
:102D1000BF92CF92DF92EF92FF920F931F93CF93C8
:102D2000DF93EC01009799F14115510581F1E11410
:102D3000F10469F1AB28AC28AD2849F11D866A83FE
:102D40001A8619861C861B86188A1F865C834B830D
:102D50000D831E832F833887B7010E94B21D1FB7D2
:102D6000F894BE0182E89CE00E948C151FBF882366
:102D700011F08CEC0FC08091810C813051F40E94D5
:102D80007E15892B31F080E00E94411602C089EC4B
:102D900001C080E0DF91CF911F910F91FF90EF90E4
:102DA000DF90CF90BF90AF900895AF92BF92CF9237
:102DB000DF92EF92FF920F931F931092980C109254
:102DC000970C1092830C1092820C1092810C5A0175
:102DD0006B017C0100E010E0980143E755E16FEFE3
:102DE00086E89CE00E9487161F910F91FF90EF905C
:102DF000DF90CF90BF90AF9008952091840C3091D8
:102E0000850C215031093093850C2093840C0C944F
:102E1000411681E08093810C6FEF82E89CE00E9474
:102E20002116009731F09093980C8093970C0C9496
:102E30005A1508951F93CF93DF93EC010097B1F0DB
:102E40001FB7F894E881F98182E0868768817981EB
:102E5000FB01108A17868A819B810E94E715688191
:102E6000798182E89CE00E948C151FBFDF91CF9191
:102E70001F910895009731F0FC0162831182108246
:102E800080E0089589EC0895DF92EF92FF920F930E
:102E90001F93CF93DF938C010097A1F1E12C8AEC73
:102EA000D82EFFB6F894C8010E94C815EC0100970F
:102EB000E1F0DE86BC0182E89CE00E948C1588234C
:102EC00019F0FFBECCEC13C08F859889009749F0AC
:102ED0000E94EC19882319F0FFBECDEC08C0188AB7
:102EE0001F86FFBEEE24E394DCCFFFBEC0E081E08E
:102EF000E81209C00E947E15892B29F080E00E940B
:102F0000411601C0C9EC8C2FDF91CF911F910F9119
:102F1000FF90EF90DF9008959F92AF92BF92CF9273
:102F2000DF92EF92FF920F931F93CF93DF93CDB772
:102F3000DEB72E970FB6F894DEBF0FBECDBF5C0193
:102F40006A017B01009709F459C09FB6F894FC010F
:102F5000828181114DC077FD48C00E947E158C0191
:102F6000009709F43FC0BC01C5010E948C1588235D
:102F700019F09FBE8CEC43C081E0F8018587C11435
:102F8000D104E104F10411F11C870B87BE86AD86E4
:102F90008AE197E19A838983CE010B969C838B8388
:102FA000CD82DE82EF82F886CE010196908B8787F4
:102FB0000E94C719882369F0B801C5010E94E7156E
:102FC000F8011586108A17868DEC04C0F801108A66
:102FD000178680E09FBE811112C00E944116F80141
:102FE00086850DC09FBE88EC0AC09FBE83E007C0E7
:102FF0008150F50182839FBE80E001C089EC2E964E
:103000000FB6F894DEBF0FBECDBFDF91CF911F91F9
:103010000F91FF90EF90DF90CF90BF90AF909F9077
:1030200008951F93CF93DF930097B1F11FB7F894E2
:10303000FC0120813181232B21F10E94C815EC0174
:10304000BC0182E89CE00E948C15882319F01FBF08
:10305000CCEC23C01E868F859889009721F4188AAE
:103060001F86C0E005C00E94EC198823C1F3CDEC97
:103070001FBF0E947E15892B81F080E00E944116BF
:103080000CC0FC0122812F3F21F02F5F2283C0E082
:1030900001C0CBEC1FBF01C0C9EC8C2FDF91CF91D9
:1030A0001F910895009721F0FC01628380E008954C
:1030B00089EC08951F93CF93DF93EC010097B1F053
:1030C0001FB7F894E881F98182E086876881798169
:1030D000FB01108A17868A819B810E94E71568810F
:1030E000798182E89CE00E948C151FBFDF91CF910F
:1030F0001F910895FC01009739F013821282148207
:103100001182108280E0089589EC0895DF92EF9299
:10311000FF920F931F93CF93DF938C010097A1F140
:10312000E12C8AECD82EFFB6F894C8010E94C8158D
:10313000EC010097E1F0DE86BC0182E89CE00E9491
:103140008C15882319F0FFBECCEC13C08F859889AD
:10315000009749F00E94EC19882319F0FFBECDECCE
:1031600008C0188A1F86FFBEEE24E394DCCFFFBEA2
:10317000C0E081E0E81209C00E947E15892B29F089
:1031800080E00E94411601C0C9EC8C2FDF91CF91E5
:103190001F910F91FF90EF90DF9008959F92AF9253
:1031A000BF92CF92DF92EF92FF920F931F93CF9334
:1031B000DF93CDB7DEB72E970FB6F894DEBF0FBE04
:1031C000CDBF5C016A017B01009709F46EC00E94CB
:1031D0007E158C019FB6F894009719F49FBE88EC79
:1031E00065C0F50182819381009709F44EC0801774
:1031F000910709F44AC0F7FC45C0B801C5010E9417
:103200008C15882319F09FBE8CEC50C081E0F8012A
:103210008587C114D104E104F10411F11C870B87E7
:10322000BE86AD868AE598E19A838983CE010B96A6
:103230009C838B83CD82DE82EF82F886CE0101965D
:10324000908B87870E94C719882369F0B801C50150
:103250000E94E715F8011586108A17868DEC04C0C8
:10326000F801108A178680E09FBE81111FC00E945E
:103270004116F8018685811119C0F50194819F5F7F
:10328000948314C09FBE83E011C0F50124812F3FB9
:1032900039F02F5F2483892B29F41383028302C022
:1032A0008BEC01C080E09FBE01C089EC2E960FB66A
:1032B000F894DEBF0FBECDBFDF91CF911F910F916C
:1032C000FF90EF90DF90CF90BF90AF909F900895C8
:1032D000FF920F931F93CF93DF93EC01009709F4B4
:1032E0003FC00E947E15FFB6F8942A813B812817C3
:1032F000390719F0FFBECFEC34C08C8181508C832C
:1033000081112BC01B821A8288819981892B29F116
:10331000CE010E94C8158C01BC0182E89CE00E948D
:103320008C15882319F0FFBECCEC1BC0F801168663
:103330001B830A8387859089009729F4F801108AF6
:103340001786C0E005C00E94EC198823B9F3CDECC4
:10335000FFBE80E00E94411604C0FFBEC0E001C075
:10336000C9EC8C2FDF91CF911F910F91FF900895A1
:10337000CF93009751F0CFB7F894FC016081718131
:1033800082E89CE00E948C15CFBFCF910895FC018C
:10339000009701F180819181892BE1F04481558171
:1033A00066817781452B462B472BA1F02FB7F894E8
:1033B00080919D0C90919E0C009719F411861086B7
:1033C00002C091878087F0939E0CE0939D0C2FBFE5
:1033D00080E0089589EC0895009729F14FB7F8949B
:1033E00020919D0C30919E0CF901D9013097C1F0CC
:1033F000E817F90781F480859185E217F30729F42E
:1034000090939E0C80939D0C04C019969C938E9370
:10341000189780E006C0DF010084F185E02DE6CF3B
:103420008EEC4FBF089589EC08956091990C7091CE
:103430009A0C80919B0C90919C0C08956093990C30
:1034400070939A0C80939B0C90939C0C08950F930F
:103450001F93CF93DF938091810C882309F447C099
:103460008091990C90919A0CA0919B0CB0919C0C1E
:103470000196A11DB11D8093990C90939A0CA09375
:103480009B0CB0939C0CC0919D0CD0919E0C8E0116
:10349000209769F18C819D81AE81BF810197A1093F
:1034A000B1098C839D83AE83BF83892B8A2B8B2BA1
:1034B000C9F420919D0C30919E0C88859985C21786
:1034C000D30729F490939E0C80939D0C03C0F801C0
:1034D00091878087E881F981309729F08A819B81E3
:1034E000099501C08E010884D985C02DD1CFDF9107
:1034F000CF911F910F910895CF92DF92EF92FF929B
:103500001F93CF93DF93CDB7DEB72C970FB6F89408
:10351000DEBF0FBECDBF6B017C010E947E15FC019A
:10352000C114D104E104F10421F1009721F11FB786
:10353000F89481E08587FC87EB8788EB99E19A8393
:103540008983CE010B969C838B83CD82DE82EF82B2
:10355000F886CE010196908B87870E94C7191FBFFE
:10356000882311F08DEC08C080E00E94411680E0B5
:1035700003C089EC01C088EC2C960FB6F894DEBF2E
:103580000FBECDBFDF91CF911F91FF90EF90DF90E5
:10359000CF9008951F93CF93DF93EC010097B1F084
:1035A0001FB7F894E881F98182E086876881798184
:1035B000FB01108A17868C819D810E94E715688126
:1035C000798182E89CE00E948C151FBFDF91CF912A
:1035D0001F910895CF92DF92EF92FF92CF93DF93E6
:1035E000EC01CB016C817D814A895B89640F751F79
:1035F0004E815F810E94DA272E813F81488559855F
:10360000CA88DB88EC88FD88C20ED31EE41EF51E36
:10361000CA8ADB8AEC8AFD8A8E899F89A88DB98D3A
:103620000197A109B1098E8B9F8BA88FB98F6A85ED
:103630007B858C859D850E940C25C616D706E806DD
:10364000F90620F01A8A1B8A1C8A1D8ACE010E9464
:10365000C815EC010097A9F0BC0182E89CE00E942B
:103660008C15811110C01E868F859889009719F4DA
:10367000188A1F8606C00E94EC198823C9F38DECB6
:1036800003C080E001C08CECDF91CF91FF90EF9000
:10369000DF90CF900895CF92DF92EF92FF92CF9379
:1036A000DF93EC012C813D818E859F854E815F816A
:1036B000820F931F0E94DA272E813F81488559850A
:1036C000CE84DF84E888F988C20ED31EE41EF51E7E
:1036D000CE86DF86E88AF98A8E899F89A88DB98D82
:1036E0000196A11DB11D8E8B9F8BA88FB98F6A8506
:1036F0007B858C859D850E940C25C616D706E8061D
:10370000F90620F01E861F86188A198ACE010296B5
:103710000E94C815EC010097A9F0BC0182E89CE06A
:103720000E948C15811110C01E868F859889009784
:1037300019F4188A1F8606C00E94EC198823C9F361
:103740008DEC03C080E001C08CECDF91CF91FF9045
:10375000EF90DF90CF900895EF92FF920F931F9319
:10376000FC01009749F16115710531F12115310511
:103770004105510509F1E114F10401051105E1F0DC
:10378000758364832683378340875187E286F38677
:10379000048715871182108213821282168617867B
:1037A000108A118A128A138A148A158A168A178A2D
:1037B000108E118E80E001C089EC1F910F91FF9057
:1037C000EF900895BF92CF92DF92EF92FF920F9306
:1037D0001F93CF93DF938C01009709F43EC0C12C57
:1037E0007C0182E0E80EF11C8AECB82EDFB6F8947A
:1037F000C7010E94C815EC01009731F4C8010E946E
:10380000C815EC010097E1F0BE86BE0182E89CE09D
:103810000E948C15882319F0DFBECCEC13C08F8575
:103820009889009749F00E94EC19882319F0DFBEAF
:10383000CDEC08C0188A1F86DFBECC24C394D6CF37
:10384000DFBEC0E081E0C81209C00E947E15892B4E
:1038500029F080E00E94411601C0C9EC8C2FDF9155
:10386000CF911F910F91FF90EF90DF90CF90BF907D
:1038700008954F925F926F927F929F92AF92BF9204
:10388000CF92DF92EF92FF920F931F93CF93DF932C
:10389000CDB7DEB761970FB6F894DEBF0FBECDBFD0
:1038A0007C012A013B016901009709F47EC02115C2
:1038B000310509F47AC09FB6F894FC01868997898E
:1038C000A08DB18D892B8A2B8B2B09F05EC077FDE3
:1038D00059C00E947E158C01009709F450C0570111
:1038E000F2E0AF0EB11CBC01C5010E948C15811124
:1038F00043C081E0F80185874114510461047104DB
:1039000021F11C870B87FE86ED86B88AAF868AEC8C
:103910009AE19A838983CE010B969C838B834D8297
:103920005E826F827886CE010196908B87870E9497
:10393000C719882369F0B801C5010E94E715F8018D
:103940001586108A17862DEC04C0F801108A178698
:1039500020E09FBE21112AC080E00E944116F8019C
:103960002685211123C01FB7F894B601C7010E9414
:10397000EA1A282F1FBF1AC09FBE2CEC17C09FBE8B
:1039800028EC14C09FBE23E011C0B901C7010E94FA
:10399000EA1A9FBE898B0E947E152989892B31F0F6
:1039A00080E00E944116298901C029EC822F61968E
:1039B0000FB6F894DEBF0FBECDBFDF91CF911F9140
:1039C0000F91FF90EF90DF90CF90BF90AF909F90BE
:1039D0007F906F905F904F9008956F927F929F922B
:1039E000AF92BF92CF92DF92EF92FF920F931F930D
:1039F000CF93DF93CDB7DEB761970FB6F894DEBFF4
:103A00000FBECDBF8C016A017B015901009709F4FB
:103A10007FC02115310509F47BC09FB6F894FC01E5
:103A200046895789608D718D82859385A485B5857A
:103A3000481759076A077B0709F05AC0F7FC55C0B9
:103A40000E947E153C01009709F44CC0BC01C801DE
:103A50000E948C15811143C081E0F3018587C11458
:103A6000D104E104F10421F17C866B861E870D8769
:103A7000188B0F878AEC9AE19A838983CE010B9683
:103A80009C838B83CD82DE82EF82F886CE01019605
:103A9000908B87870E94C719882369F0B301C801FA
:103AA0000E94E715F3011586108A17862DEC04C0D5
:103AB000F301108A178620E09FBE21112AC080E002
:103AC0000E944116F3012685211123C0FFB6F89408
:103AD000B501C8010E944B1B282FFFBE1AC09FBE14
:103AE0002CEC17C09FBE28EC14C09FBE23E011C071
:103AF000B901C8010E944B1B9FBE898B0E947E1595
:103B00002989892B31F080E00E944116298901C062
:103B100029EC822F61960FB6F894DEBF0FBECDBFA1
:103B2000DF91CF911F910F91FF90EF90DF90CF9099
:103B3000BF90AF909F907F906F9008950E947E15E8
:103B40007894009771F0DC011396ED91FC91149735
:103B5000309739F015966D917D918D919C911897C4
:103B6000099408952EE93DE1FB01208331973083CC
:103B7000FB0132971082FB0133971082FB013497CF
:103B80001082FB0135971082FB0136971082FB01F2
:103B900037971082FB0138971082FB01399710820A
:103BA000FB013A971082FB013B971082FB013C9787
:103BB0001082FB013D971082FB013E971082FB01B2
:103BC0003F971082FB0170971082FB017197108262
:103BD000FB0172971082FB01739710826451710987
:103BE000FC0171836083089586E891E090938900D9
:103BF0008093880082E080936F008CE08093810046
:103C000008951F920F920FB60F9211240BB60F92C8
:103C10002F933F934F935F936F937F938F939F93D4
:103C2000AF93BF93EF93FF930E9474150E94271ADE
:103C300081E00E94FD16FF91EF91BF91AF919F919E
:103C40008F917F916F915F914F913F912F910F9045
:103C50000BBE0F900FBE0F901F9018951F920F92E2
:103C60000FB60F9211240F900FBE0F901F90189552
:103C70008AE28093B8008FEF8093BB0084E080934A
:103C8000BC0008958091BC00817008958091BC00B3
:103C900080FDFCCF8091000108952091BC0020FDA3
:103CA000FCCF6093A10CFC0120812093A20C20FF8B
:103CB00009C010929F0C88EF8093000185EA8093E1
:103CC000BC000895DC011196E3EAFCE081E08E1B64
:103CD000982F9E0F961768F79D919193F9CF809139
:103CE000BC0080FDFCCF10929F0C88EF80930001F8
:103CF00085EA8093BC0008952091BC0020FDFCCF94
:103D000020919F0C20FD04C080919F0C817008952C
:103D100022EA3CE0FC01D9018A2F821B8617A0F71A
:103D20008D918193F9CF1F920F920FB60F921124AC
:103D30000BB60F922F933F938F939F93EF93FF9325
:103D40008091B900883201F140F48031D9F0883196
:103D5000D9F0883009F04AC015C0803491F128F4B8
:103D6000883309F043C085EA46C08035F1F08835D4
:103D7000E9F58091BB00E091A00CF0E0EE55F34F27
:103D800080832DC01092A00CE091A00C8091A10C1A
:103D9000E81728F581E08E0F8093A00CF0E0EE5537
:103DA000F34F80818093BB0018C0E091A00C81E0AC
:103DB0008E0F8093A00C8091BB00F0E0EE55F34F86
:103DC00080832091A00C30E08091A10C90E00197BD
:103DD0002817390714F485EC0EC085E80CC08091D3
:103DE0009F0C816080939F0C84E905C08091B9008D
:103DF0008093000184E08093BC00FF91EF919F913C
:103E00008F913F912F910F900BBE0F900FBE0F908F
:103E10001F9018950E94DB24882349F00E948A2471
:103E20008091D80082608093D80081E0089580E07E
:103E300008950F931F93CF93DF9300D000D0CDB799
:103E4000DEB78C01DC0111968D919C9112970C9735
:103E5000A1F41A968C911A97803609F0C0C48C91FF
:103E60008295807F8093ED008091EF008F73809327
:103E7000EF001092EE001C92B2C40E949A248F3F71
:103E800009F4B0C490E6D8011A969C931A978C93C3
:103E90008295807F8093ED00EEEEF0E01192E83F96
:103EA000F105E1F7D8011196ED91FC911297319748
:103EB000EB30F10508F093C4E65BFF4F0C949F25AF
:103EC00080E08DC3F8018485882391F185818295F6
:103ED000869587709681F8E09F9F800D11248093CE
:103EE000F300D80114968C9114978295869587706B
:103EF00015969C91B8E09B9F800D11248093F20051
:103F0000F80183818295869587709481F8E09F9F60
:103F1000800D11248093F100D80113968C91880FA5
:103F2000880F880F8093F0008091EF00806117C0A8
:103F3000F80183818695869586959481F0E29F9F0E
:103F4000800D11248093F300D80113968C918295F3
:103F5000880F807E8093F2008091EF008F7E8093A7
:103F6000EF0080E0F8019781891760F4D801189676
:103F7000ED91FC911997E80FF11D90819093FA0053
:103F80008F5FF0CF8385882321F08091F0008460DB
:103F900003C08091F0008B7F8093F0008091EF0050
:103FA000D80117969C9169C0F8018485882391F106
:103FB00085818295869587709681F8E09F9F800D18
:103FC00011248093F300D80114968C911497829554
:103FD0008695877015969C91B8E09B9F800D112463
:103FE0008093F200F8018381829586958770948191
:103FF000F8E09F9F800D11248093F100D801139663
:104000008C91880F880F880F8093F0008091EF00CB
:10401000806117C0F8018381869586958695948185
:10402000F0E29F9F800D11248093F300D801139636
:104030008C918295880F807E8093F2008091EF00B2
:104040008F7E8093EF0080E0F8019781891760F4FC
:10405000D8011896ED91FC911997E80FF11D908108
:104060009093FA008F5FF0CF13868091F0008B7FE2
:104070008093F0008091EF009781892B8093EF006F
:104080008091EF008F738093EF008091EF00806448
:104090008093EF0080E0ABC3D8011C968C911C97F5
:1040A0008823A1F115968C91159782958695877036
:1040B00016969C91B8E09B9F800D11248093F3008D
:1040C000F80184818295869587709581F8E09F9F9D
:1040D000800D11248093F200D80113968C911397D0
:1040E00082958695877014969C91B8E09B9F800D71
:1040F00011248093F100F8018381880F880F880FC5
:104100008093F0008091EF00806119C0D801139670
:104110008C91139786958695869514969C91B0E21E
:104120009B9F800D11248093F300F8018381829579
:10413000880F807E8093F2008091EF008F7E8093C5
:10414000EF0081E0D8011B968C931B978091F000C3
:1041500084608093F0008091EF0023CF19821A824F
:104160001B821C821092F7008A8182958695877047
:104170009B81B8E09B9F800D11248093F60089817C
:104180008295869587709A81E8E09E9F800D112424
:104190008093F5008981880F880F880F8093F40041
:1041A0008091EF00D80117969C91892B8093EF00A6
:1041B0008091F4008B7F8093F4005EC219821A8292
:1041C0001B821C821092F7008A81829586958770E7
:1041D0009B81B8E09B9F800D11248093F60089811C
:1041E0008295869587709A81E8E09E9F800D1124C4
:1041F0008093F5008981880F880F880F8093F400E1
:104200008091EF00D80117969C911797892B809386
:10421000EF001B961C928091F40084608093F40060
:104220008091F0008B7F8093F00026C219821A8261
:104230001B821C821092F7008A8182958695877076
:104240009B81B8E09B9F800D11248093F6008981AB
:104250008295869587709A81E8E09E9F800D112453
:104260008093F5008981880F880F880F8093F40070
:104270008091EF00D80117969C911797892B809316
:10428000EF0081E01B968C938091F4008460809312
:10429000F4008091F00084608093F0008091EF0042
:1042A0008F7DE8C1F8018485882391F1858182950D
:1042B000869587709681F8E09F9F800D11248093EA
:1042C000F300D80114968C91149782958695877087
:1042D00015969C91B8E09B9F800D11248093F2006D
:1042E000F80183818295869587709481F8E09F9F7D
:1042F000800D11248093F100D80113968C91880FC2
:10430000880F880F8093F0008091EF00806117C0C4
:10431000F80183818695869586959481F0E29F9F2A
:10432000800D11248093F300D80113968C9182950F
:10433000880F807E8093F2008091EF008F7E8093C3
:10434000EF008FEF9FEFDC0189839A83AB83BC83FF
:104350008FEF8093F7008A818295869587709B8185
:10436000B8E09B9F800D11248093F600898182958F
:10437000869587709A81E8E09E9F800D1124809336
:10438000F5008981880F880F880F8093F400809151
:10439000EF00D80117969C91892B8093EF008091B4
:1043A000F4008B7F8093F4000CC2F801848588238D
:1043B00091F185818295869587709681F8E09F9F1F
:1043C000800D11248093F300D80114968C911497DA
:1043D00082958695877015969C91B8E09B9F800D7D
:1043E00011248093F200F80183818295869587706D
:1043F0009481F8E09F9F800D11248093F100D801F3
:1044000013968C91880F880F880F8093F00080910D
:10441000EF00806117C0F8018381869586958695A7
:104420009481F0E29F9F800D11248093F300D801C6
:1044300013968C918295880F807E8093F2008091F4
:10444000EF008F7E8093EF008FEF9FEFDC01898379
:104450009A83AB83BC838FEF8093F7008A81829528
:10446000869587709B81B8E09B9F800D1124809377
:10447000F60089818295869587709A81E8E09E9FF3
:10448000800D11248093F5008981880F880F880F93
:104490008093F4008091EF00D80117969C911797B4
:1044A000892B8093EF001B961C928091F40084600E
:1044B0008093F4008091F0008B7F8093F00081C1A5
:1044C000F8018485882391F185818295869587708E
:1044D0009681F8E09F9F800D11248093F300D8010E
:1044E00014968C91149782958695877015969C9159
:1044F000B8E09B9F800D11248093F200F801838126
:104500008295869587709481F8E09F9F800D112495
:104510008093F100D80113968C91880F880F880F33
:104520008093F0008091EF00806117C0F8018381D3
:104530008695869586959481F0E29F9F800D112443
:104540008093F300D80113968C918295880F807E1A
:104550008093F2008091EF008F7E8093EF004FEF09
:104560005FEFBA0149835A836B837C838FEF80931B
:10457000F7008A818295869587709B81B8E09B9F22
:10458000800D11248093F60089818295869587702D
:104590009A81E8E09E9F800D11248093F500898127
:1045A000880F880F880F8093F4008091EF00D80166
:1045B00017969C911797892B8093EF0081E01B96AB
:1045C0008C938091F40084608093F4008091F000DB
:1045D00084608093F0008091EF008F7DF0C0F8013F
:1045E0009781891760F4D8011896ED91FC9119977D
:1045F000E80FF11D90819093FA008F5FF0CF198240
:104600001A821B821C821092F7008A8182958695FD
:1046100087709B81F8E09F9F800D11248093F600A6
:1046200089818295869587709A8128E0929F800D76
:1046300011248093F5008981880F880F880F80935B
:10464000F4008091EF00D80117969C911797892B61
:104650008093EF0081E01B968C938091F40084603E
:104660008093F4008091F00084608093F00080914A
:10467000EF0080628093EF008091F4008E7FA4C0F1
:10468000F8018485882391F18581829586958770CC
:104690009681F8E09F9F800D11248093F300D8014C
:1046A00014968C91149782958695877015969C9197
:1046B000B8E09B9F800D11248093F200F801838164
:1046C0008295869587709481F8E09F9F800D1124D4
:1046D0008093F100D80113968C91880F880F880F72
:1046E0008093F0008091EF00806117C0F801838112
:1046F0008695869586959481F0E29F9F800D112482
:104700008093F300D80113968C918295880F807E58
:104710008093F2008091EF008F7E8093EF0080E025
:10472000F8019781891760F4D8011896ED91FC91F2
:104730001997E80FF11D90819093FA008F5FF0CFE9
:104740004FEF5FEFBA0149835A836B837C838FEF0E
:104750008093F7008A818295869587709B81F8E027
:104760009F9F800D11248093F60089818295869504
:1047700087709A8128E0929F800D11248093F50024
:104780008981880F880F880F8093F4008091EF0053
:10479000D80117969C911797892B8093EF0081E0A1
:1047A0001B968C938091F40084608093F400809138
:1047B000F00084608093F0008091EF00806280932D
:1047C000EF008091F40081608093F4008091EF000D
:1047D0008F738093EF008091EF00806859CCF801CF
:1047E000128658CC8FE1D8011A968C938FEF0F90D8
:1047F0000F900F900F90DF91CF911F910F9108951F
:104800001F93CF93DF93EC018A85882309F47BC043
:104810008F3109F478C08F3F09F475C08881829583
:10482000807F8093ED000E94B024182F803259F0D1
:1048300020F4882309F469C05EC0803409F451C0B3
:10484000803A09F058C08091EF008F708F8388857F
:1048500099850E94C8248091F00082FB882780F906
:104860008B878091EF0084FF29C081E08C87809145
:10487000F3008695869586958E838091F2009091BF
:10488000F30086958695869520E2929F800D1124EF
:104890008D838091F1009091F200869586958695A2
:1048A00020E2929F800D11248C838091F0009091E2
:1048B000F10086958695869520E20FC01C86809132
:1048C000F3008295869587708C838091F200909199
:1048D000F30082958695877028E0929F800D1124C1
:1048E0008B831A878091EF008F738093EF00109273
:1048F000EE0080E00BC01A878091EF008F738093E9
:10490000EF001092EE0082E001C081E0DF91CF91D4
:104910001F91089580E0982F9295907F9093ED00DD
:10492000EEEEF0E01192E83FF105E1F78F5F86309F
:1049300091F708952091ED0080E0982F9295907F57
:104940009093ED009091EF00907C19F42093ED008E
:1049500008958F5F863089F72093ED008FEF0895DB
:104960008091EF00807C61F08091EE00982F907E26
:10497000903241F0903441F0903A41F08F710895B7
:104980008FEF089580E2089580E4089580EA089505
:1049900060E04091EF00262F30E04F7050E0241788
:1049A000350744F44091FA00FC01E20FF31F408305
:1049B0006F5FEFCF089581E08093D80088E0809307
:1049C000E2008CE08093E30087E38093E40081E0E1
:1049D0000895681708F4682F862F08958FED93E0E7
:1049E0009EBF8DBF40E051E060E070E08FED94E04D
:1049F0000E94D516811108C00E94F41D0E94F9146E
:104A0000811102C00E9409178FEF81B992B181E034
:104A1000911180E082B9FACFDB018F939F930E94BE
:104A2000A525BF91AF91A29F800D911DA39F900DD1
:104A3000B29F900D11240895991B79E004C0991F2D
:104A4000961708F0961B881F7A95C9F780950895E8
:104A500087FB082E062687FD819567FD61950E94DC
:104A60001C250EF4919507FC81950895AA1BBB1B8C
:104A700051E107C0AA1FBB1FA617B70710F0A61B5E
:104A8000B70B881F991F5A95A9F780959095BC017F
:104A9000CD01089597FB072E16F4009407D077FDFB
:104AA00009D00E94362507FC05D03EF490958195EB
:104AB0009F4F0895709561957F4F0895A1E21A2E3A
:104AC000AA1BBB1BFD010DC0AA1FBB1FEE1FFF1FB2
:104AD000A217B307E407F50720F0A21BB30BE40B02
:104AE000F50B661F771F881F991F1A9469F7609549
:104AF0007095809590959B01AC01BD01CF01089503
:104B0000052E97FB1EF400940E94972557FD07D0B1
:104B10000E945E2507FC03D04EF40C949725509517
:104B20004095309521953F4F4F4F5F4F0895909599
:104B30008095709561957F4F8F4F9F4F0895EE0F31
:104B4000FF1F0590F491E02D09940E94B025A59FC8
:104B5000900DB49F900DA49F800D911D1124089578
:104B6000A29FB001B39FC001A39F700D811D1124AE
:104B7000911DB29F700D811D1124911D08955058F3
:104B8000BB27AA270ED075C166D130F06BD120F0BB
:104B900031F49F3F11F41EF45BC10EF4E095E7FB86
:104BA00051C1E92F77D180F3BA17620773078407E1
:104BB000950718F071F49EF58FC10EF4E0950B2E59
:104BC000BA2FA02D0B01B90190010C01CA01A0015F
:104BD0001124FF27591B99F0593F50F4503E68F1BA
:104BE0001A16F040A22F232F342F4427585FF3CFFB
:104BF000469537952795A795F0405395C9F77EF4CC
:104C00001F16BA0B620B730B840BBAF09150A1F014
:104C1000FF0FBB1F661F771F881FC2F70EC0BA0F9A
:104C2000621F731F841F48F4879577956795B79522
:104C3000F7959E3F08F0B3CF9395880F08F099271A
:104C4000EE0F979587950895D9D008F481E00895DF
:104C50000CD00FC107D140F0FED030F021F45F3FFF
:104C600019F0F0C0511139C1F3C014D198F3992350
:104C7000C9F35523B1F3951B550BBB27AA27621720
:104C80007307840738F09F5F5F4F220F331F441F65
:104C9000AA1FA9F333D00E2E3AF0E0E830D091509D
:104CA0005040E695001CCAF729D0FE2F27D0660F8A
:104CB000771F881FBB1F261737074807AB07B0E8C9
:104CC00009F0BB0B802DBF01FF2793585F4F2AF0DF
:104CD0009E3F510568F0B6C000C15F3FECF3983EBF
:104CE000DCF3869577956795B795F7959F5FC9F73C
:104CF000880F911D9695879597F90895E1E0660FC5
:104D0000771F881FBB1F621773078407BA0720F03D
:104D1000621B730B840BBA0BEE1F88F7E0950895A6
:104D200004D06894B111D9C00895BCD088F09F57C1
:104D300090F0B92F9927B751A0F0D1F0660F771FE7
:104D4000881F991F1AF0BA95C9F712C0B13081F0C7
:104D5000C3D0B1E00895C0C0672F782F8827B85F0F
:104D600039F0B93FCCF3869577956795B395D9F728
:104D70003EF490958095709561957F4F8F4F9F4F32
:104D80000895E89409C097FB3EF49095809570953E
:104D900061957F4F8F4F9F4F9923A9F0F92F96E987
:104DA000BB279395F695879577956795B795F111FC
:104DB000F8CFFAF4BB0F11F460FF1BC06F5F7F4F99
:104DC0008F4F9F4F16C0882311F096E911C07723AB
:104DD00021F09EE8872F762F05C0662371F096E8B4
:104DE000862F70E060E02AF09A95660F771F881F83
:104DF000DAF7880F9695879597F90895990F000827
:104E0000550FAA0BE0E8FEEF16161706E807F9079C
:104E1000C0F012161306E407F50798F0621B730B37
:104E2000840B950B39F40A2661F0232B242B252BB8
:104E300021F408950A2609F4A140A6958FEF811D5B
:104E4000811D089597F99F6780E870E060E00895FC
:104E50009FEF80EC089500240A9416161706180692
:104E60000906089500240A9412161306140605066E
:104E70000895092E0394000C11F4882352F0BB0FFF
:104E800040F4BF2B11F460FF04C06F5F7F4F8F4F62
:104E90009F4F089557FD9058440F551F59F05F3F9D
:104EA00071F04795880F97FB991F61F09F3F79F04C
:104EB00087950895121613061406551FF2CF4695CE
:104EC000F1DF08C0161617061806991FF1CF869550
:104ED0007105610508940895E894BB276627772734
:104EE000CB0197F908958ADF08F48FEF08950BD06E
:104EF000C0CFB1DF28F0B6DF18F0952309F0A2CFBC
:104F0000A7CF1124EACFC6DFA0F3959FD1F3950F69
:104F100050E0551F629FF001729FBB27F00DB11D3D
:104F2000639FAA27F00DB11DAA1F649F6627B00DCD
:104F3000A11D661F829F2227B00DA11D621F739FB6
:104F4000B00DA11D621F839FA00D611D221F749FC4
:104F50003327A00D611D231F849F600D211D822F0B
:104F6000762F6A2F11249F5750408AF0E1F0882352
:104F70004AF0EE0FFF1FBB1F661F771F881F91505F
:104F80005040A9F79E3F510570F05CCFA6CF5F3F20
:104F9000ECF3983EDCF3869577956795B795F79592
:104FA000E7959F5FC1F7FE2B880F911D969587951A
:104FB00097F90895FB01DC0102C001900D92415068
:104FC0005040D8F70895FB019F01E8944230C4F0A7
:104FD0004532B4F44A3029F497FB1EF4909581953C
:104FE0009F4F642F77270E943625805D8A330CF00F
:104FF000895D8193CB010097A1F716F45DE251938F
:105000001082C9010C94642A0F931F93CF93DF93EE
:10501000CDB7DEB72E970FB6F894DEBF0FBECDBF6B
:105020000D891E8986E08C831A8309838FEF9FE7A1
:105030009E838D83AE01475E5F4F6F89788DCE0171
:1050400001960E943328EF81F885E00FF11F10824E
:105050002E960FB6F894DEBF0FBECDBFDF91CF9175
:105060001F910F9108952F923F924F925F926F92EE
:105070007F928F929F92AF92BF92CF92DF92EF92E8
:10508000FF920F931F93CF93DF93CDB7DEB72C978B
:105090000FB6F894DEBF0FBECDBF7C016B018A0155
:1050A000FC0117821682838181FFBDC1CE0101966A
:1050B0004C01F7019381F60193FD859193FF819156
:1050C0006F01882309F4ABC1853239F493FD8591D2
:1050D00093FF81916F01853229F4B70190E00E941E
:1050E000742AE7CF512C312C20E02032A0F48B32EF
:1050F00069F030F4803259F0833269F420612CC0B9
:105100008D3239F0803339F4216026C0226024606A
:1051100023C0286021C027FD27C030ED380F3A306A
:1051200078F426FF06C0FAE05F9E300D1124532E5E
:1051300013C08AE0389E300D1124332E20620CC03B
:105140008E3221F426FD6BC1206406C08C3611F42A
:10515000206802C0883641F4F60193FD859193FFE3
:1051600081916F018111C1CF982F9F7D955493300C
:1051700028F40C5F1F4FFFE3F9830DC0833631F035
:10518000833771F0833509F05BC022C0F80180815C
:1051900089830E5F1F4F44244394512C540115C042
:1051A0003801F2E06F0E711CF801A080B18026FF7B
:1051B00003C0652D70E002C06FEF7FEFC5012C8743
:1051C0000E94592A2C0183012C852F77222E17C08B
:1051D0003801F2E06F0E711CF801A080B18026FF4B
:1051E00003C0652D70E002C06FEF7FEFC5012C8713
:1051F0000E944E2A2C012C852068222E830123FC3C
:105200001BC0832D90E048165906B0F4B70180E228
:1052100090E00E94742A3A94F4CFF50127FC85911E
:1052200027FE81915F01B70190E00E94742A31103E
:105230003A94F1E04F1A51084114510471F7E5C056
:10524000843611F0893639F5F80127FF07C06081EF
:105250007181828193810C5F1F4F08C060817181D1
:10526000882777FD8095982F0E5F1F4F2F76B22EDF
:1052700097FF09C090958095709561957F4F8F4FEE
:105280009F4F2068B22E2AE030E0A4010E94A62A97
:10529000A82EA81844C0853729F42F7EB22E2AE004
:1052A00030E025C0F22FF97FBF2E8F36C1F018F401
:1052B000883579F0B4C0803719F0883721F0AFC055
:1052C0002F2F2061B22EB4FE0DC08B2D8460B82E1E
:1052D00009C024FF0AC09F2F9660B92E06C028E09F
:1052E00030E005C020E130E002C020E132E0F8010A
:1052F000B7FE07C060817181828193810C5F1F4F6F
:1053000006C06081718180E090E00E5F1F4FA401B4
:105310000E94A62AA82EA818FB2DFF77BF2EB6FE46
:105320000BC02B2D2E7FA51450F4B4FE0AC0B2FC86
:1053300008C02B2D2E7E05C07A2C2B2D03C07A2C75
:1053400001C0752C24FF0DC0FE01EA0DF11D808106
:10535000803311F4297E09C022FF06C07394739430
:1053600004C0822F867809F0739423FD13C020FFB8
:1053700006C05A2C731418F4530C5718732C73145A
:1053800068F4B70180E290E02C870E94742A73943D
:105390002C85F5CF731410F4371801C0312C24FF7D
:1053A00012C0B70180E390E02C870E94742A2C85FC
:1053B00022FF17C021FF03C088E590E002C088E704
:1053C00090E0B7010CC0822F867859F021FD02C011
:1053D00080E201C08BE227FD8DE2B70190E00E94E0
:1053E000742AA51438F4B70180E390E00E94742A6F
:1053F0005A94F7CFAA94F401EA0DF11D8081B70108
:1054000090E00E94742AA110F5CF332009F451CE08
:10541000B70180E290E00E94742A3A94F6CFF70137
:105420008681978102C08FEF9FEF2C960FB6F8947C
:10543000DEBF0FBECDBFDF91CF911F910F91FF90C7
:10544000EF90DF90CF90BF90AF909F908F907F9024
:105450006F905F904F903F902F900895F999FECFF5
:1054600092BD81BDF89A992780B50895A8E1B0E072
:1054700042E050E00C94062B262FF999FECF92BD06
:1054800081BD20BD0FB6F894FA9AF99A0FBE019625
:1054900008950E943C2A272F0C943D2AFC01059078
:1054A000615070400110D8F7809590958E0F9F1F26
:1054B0000895FC016150704001900110D8F780956B
:1054C00090958E0F9F1F0895DC01FC01672F71914D
:1054D0007723E1F7329704C07C916D9370836291DA
:1054E000AE17BF07C8F308950F931F93CF93DF93B1
:1054F000182F092FEB018B8181FD03C08FEF9FEFE8
:1055000020C082FF10C04E815F812C813D814217F7
:1055100053077CF4E881F9819F012F5F3F4F398366
:105520002883108306C0E885F985812F0995892B8A
:1055300029F72E813F812F5F3F4F3F832E83812F9D
:10554000902FDF91CF911F910F910895FA01AA2713
:10555000283051F1203181F1E8946F936E7F6E5FB6
:105560007F4F8F4F9F4FAF4FB1E03ED0B4E03CD064
:10557000670F781F891F9A1FA11D680F791F8A1F47
:10558000911DA11D6A0F711D811D911DA11D20D0AE
:1055900009F468943F912AE0269F11243019305D68
:1055A0003193DEF6CF010895462F4770405D419359
:1055B000B3E00FD0C9F7F6CF462F4F70405D4A33A6
:1055C00018F0495D31FD4052419302D0A9F7EACF6E
:1055D000B4E0A6959795879577956795BA95C9F79D
:1055E00000976105710508959B01AC010A2E069490
:1055F0005795479537952795BA95C9F7620F731F49
:10560000841F951FA01D0895DC01CB01FC01F999B1
:10561000FECF06C0F2BDE1BDF89A319600B40D92FE
:0C56200041505040B8F70895F894FFCFB7
:10562C00F853544154453A202020202020534F4316
:10563C003A20202025563A2020202020413A2020B4
:10564C002020202020202020205341464554592042
:10565C004C4F4F503A2020202020202020503E201C
:10566C00202020202020202020202020202020202E
:10567C0020564F46463A2020202020414F46463A9D
:10568C00202020202056534C503A2020202020410E
:10569C00534C503A20202020202020202020202055
:1056AC0020202020202020202020202020502F438C
:1056BC00414C3E2020202020202020202020202073
:1056CC002053544154453A202020202020202020D3
:1056DC002020202020564F46463A202020202054BF
:1056EC004F46463A202020202056534C503A20203A
:1056FC0020202054534C503A202020202053455237
:10570C004C3A2020202020414444523A307820202A
:10571C002055502F444F574E20544F204348414E54
:10572C004745202020454E54455220544F20534588
:10573C00542020202020202020435552523E3078E7
:10574C00202020204E58543E3078202020700C1001
:10575C00340D00000000E70BC80000005F0C106760
:10576C0011000000001F0BC80000004E0C10BA11F5
:10577C0000000000570AC80000003D0C100B12007E
:10578C000000008F09C80000002C0C101913000039
:10579C000000C708C80000001B0C102F13000000ED
:1057AC0000FF07C80000000A0C10DF140000000006
:1057BC003707C8000000F90B10CA0F000000006F7B
:1057CC0006C8000000E80B10510C00000000A705F3
:1057DC00C800000044454144004348524700434838
:1057EC00524744004C434F00464C5400424F4F54D8
:1057FC0000524459002530335800253034580000ED
:00000001FF
