:100000000C944A000C9469000C9469000C946900EB
:100010000C9469000C9469000C9469000C946900BC
:100020000C9469000C9469000C9469000C946900AC
:100030000C943B200C9469000C9469000C946900AA
:100040000C9469000C9469000C9469000C9469008C
:100050000C9469000C9469000C9469000C9469007C
:100060000C9469000C9469000C9469000C9469006C
:100070000C9469000C9469000C9469000C9469005C
:100080000C9469000C9469000C9469000C94CB20CA
:100090000C94690011241FBECFEFD0E1DEBFCDBFAD
:1000A00013E0A0E0B1E0E8EEFAE500E00BBF02C02B
:1000B00007900D92A030B107D9F72EE0A0E0B3E091
:1000C00001C01D92A435B207E1F70E9409270C94E4
:1000D000722D0C946820CF93DF9300D000D0CDB761
:1000E000DEB71B821C8281E789831A8240E050E0E0
:1000F000BA018CE49EE00E94041B62E0CE010196EE
:100100000E94872062E0CE0103960E94B4208CE416
:100110009EE00E949C1B8C8180FF0DC01092000EFF
:1001200083FF0DC01092E30D0F900F900F900F9072
:10013000DF91CF91089591E09093000EF1CF81E08F
:100140008093E30DF1CFCF93DF9300D000D000D0A8
:10015000CDB7DEB78091010190910201A09103011A
:10016000B091040189839A83AB83BC8340E050E063
:10017000BA018CE49EE00E94041B64E0CE0101966B
:100180000E94872080E98D831E8262E0CE01059661
:100190000E9487208CE49EE00E949C1B26960FB64E
:1001A000F894DEBF0FBECDBFDF91CF910895CF93FE
:1001B000DF9300D000D000D0CDB7DEB7809105012D
:1001C00090910601A0910701B091080189839A835B
:1001D000AB83BC8340E050E0BA018CE49EE00E9417
:1001E000041B64E0CE0101960E94872088E88D837D
:1001F00081E08E8310922A0D1092290D62E0CE01CB
:1002000005960E9487208CE49EE00E949C1B269607
:100210000FB6F894DEBF0FBECDBFDF91CF9108952A
:10022000CF93DF9300D0CDB7DEB788E8898381E034
:100230008A8340E050E0BA018CE49EE00E94041BF7
:1002400062E0CE0101960E9487208CE49EE00E942D
:100250009C1B0F900F90DF91CF9108951F93CF9328
:10026000DF9300D000D000D0CDB7DEB70E941001E0
:1002700019E81C831D821E8240E050E0BA018CE424
:100280009EE00E94041B63E0CE0104960E9487203A
:1002900019831A821B8263E0CE0101960E94B4206A
:1002A0008CE49EE00E949C1B8A8190E0982F882716
:1002B0002B81820F911D26960FB6F894DEBF0FBEDC
:1002C000CDBFDF91CF911F910895CF93DF9300D0E1
:1002D000CDB7DEB788E8898382E08A8340E050E0CA
:1002E000BA018CE49EE00E94041B62E0CE010196FC
:1002F0000E9487208CE49EE00E949C1B0F900F9030
:10030000DF91CF9108951F93CF93DF9300D000D05A
:1003100000D0CDB7DEB70E94650119E81C831D82AD
:100320001E8240E050E0BA018CE49EE00E94041B73
:1003300063E0CE0104960E94872019831A821B82F3
:1003400063E0CE0101960E94B4208CE49EE00E94FE
:100350009C1B8A8190E0982F88272B81820F911D0A
:1003600026960FB6F894DEBF0FBECDBFDF91CF91BA
:100370001F9108951F93CF93DF9300D000D000D03A
:10038000CDB7DEB711E91C831D821E8240E050E02C
:10039000BA018CE49EE00E94041B63E0CE01049647
:1003A0000E94872019831A821B8263E0CE01019686
:1003B0000E94B4208CE49EE00E949C1B8A8190E005
:1003C000982F88272B81820F911D26960FB6F894BF
:1003D000DEBF0FBECDBFDF91CF911F910895CF93A8
:1003E000DF9300D0CDB7DEB780E789838BEF8A83B8
:1003F00040E050E0BA018CE49EE00E94041B62E001
:10040000CE0101960E9487208CE49EE00E949C1BF6
:100410000F900F90DF91CF910895CF93DF9300D08D
:10042000CDB7DEB780E789838FEF8A8340E050E065
:10043000BA018CE49EE00E94041B62E0CE010196AA
:100440000E9487208CE49EE00E949C1B0F900F90DE
:10045000DF91CF910895FF920F931F93CF93DF9376
:1004600000D000D01F92CDB7DEB7F82E162F042F84
:1004700040E050E0BA018CE49EE00E94041B80E45E
:100480008983612F6C60402F50E0440F551F8F2DE2
:10049000807F842B862B8A8328E02B8330E1F39E98
:1004A000C0011124642B682B6C832D8365E0CE0181
:1004B00001960E9487208CE49EE00E949C1B0F9076
:1004C0000F900F900F900F90DF91CF911F910F9190
:1004D000FF90089540E060E088E20E942B0240E037
:1004E00060E08EE00E942B0240E060E086E00C9429
:1004F0002B020F931F93CF93DF9300D000D0CDB783
:10050000DEB700E40B8318E01C8340E050E0BA0142
:100510008CE49EE00E94041B62E0CE0103960E94E0
:10052000872068E270E080E090E00E94B81C0983B8
:100530008CE28A8362E0CE0101960E9487201A83B2
:1005400062E0CE0101960E9487208CE49EE00E942A
:100550009C1B0E946A020F900F900F900F90DF91EA
:10056000CF911F910F9108950F931F93CF93DF9316
:10057000EC018C01060F111DC017D10729F4DF9182
:10058000CF911F910F91089540E061E089910E9401
:100590002B02F2CFCF93DF9300D0CDB7DEB7880F19
:1005A00089831A8240E050E0BA018CE49EE00E9408
:1005B000041B62E0CE0101960E9487208CE49EE03D
:1005C0000E949C1B0F900F90DF91CF910895CF93C5
:1005D000DF9300D0CDB7DEB7880F898381E08A83AF
:1005E00040E050E0BA018CE49EE00E94041B62E00F
:1005F000CE0101960E9487208CE49EE00E949C1B05
:100600000F900F90DF91CF910895CF93DF93CDB7E7
:10061000DEB728970FB6F894DEBF0FBECDBF982F78
:10062000990F9E8390E39F831886880F816089834A
:100630001A821B821C821D8240E050E0BA018CE4C9
:100640009EE00E94041B63E0CE0106960E94872074
:1006500065E0CE0101960E94872065E0CE010196FB
:100660000E94B4208C8190E0982F88272D81820FE2
:10067000911D9093D60C8093D50C8A8190E0982F91
:1006800088272B81820F911D9093170D8093160D53
:100690008CE49EE00E949C1B6091160D7091170DDA
:1006A0008091D50C9091D60C28960FB6F894DEBFA9
:1006B0000FBECDBFDF91CF9108950F931F93CF93BE
:1006C000DF9300D000D000D0CDB7DEB7982F990FC0
:1006D0009C8390E39D8393E09E83880F8160898350
:1006E0001A821B8240E050E0BA018CE49EE00E9436
:1006F000041B63E0CE0104960E94872063E0CE01D4
:1007000001960E94872063E0CE0101960E94B420EA
:100710000A811B818CE49EE00E949C1BC8012696E6
:100720000FB6F894DEBF0FBECDBFDF91CF911F9102
:100730000F910895CF931092FB0D40E050E0BA0165
:100740008CE49EE00E94041BC1E080E98C0F8230A3
:10075000A8F08C2F0E945D03853A954A79F4809128
:10076000FB0D803158F4E091FB0DF0E0E75EF24FB5
:10077000C0838091FB0D8F5F8093FB0DCF5FC038EE
:1007800021F78CE49EE0CF910C949C1BEF92FF929A
:100790000F931F93CF93DF93CDB7DEB728970FB694
:1007A000F894DEBF0FBECDBF982F990F9E8390E3C4
:1007B0009F8392E09887880F816089831A821B82C9
:1007C0001C821D8240E050E0BA018CE49EE00E9451
:1007D000041B63E0CE0106960E94872065E0CE01EF
:1007E00001960E94872065E0CE0101960E94B42008
:1007F0000C811D81102701271027EA80FB80FE2431
:10080000EF24FE248CE49EE00E949C1BB701C801EB
:1008100028960FB6F894DEBF0FBECDBFDF91CF9103
:100820001F910F91FF90EF900895EF92FF920F9319
:100830001F93CF93DF93CDB7DEB728970FB6F89409
:10084000DEBF0FBECDBF982F990F9E8390E39F838D
:1008500091E09887880F816089831A821B821C82AD
:100860001D8240E050E0BA018CE49EE00E94041B2F
:1008700063E0CE0106960E94872065E0CE010196D6
:100880000E94872065E0CE0101960E94B4201D8160
:100890000C81FB80EA808CE49EE00E949C1BB701E7
:1008A000C80128960FB6F894DEBF0FBECDBFDF910A
:1008B000CF911F910F91FF90EF9008951F93CF93C9
:1008C000DF9310E0C12F012E000CDD0B8091FB0D9A
:1008D00090E0C817D90724F0DF91CF911F910895B8
:1008E000FE01E75EF24F80810E941504FE01EE0FCB
:1008F000FF1FEE0FFF1FE157F24F6083718382836A
:10090000938361E070E080E090E00E94B81C1F5F7C
:10091000D9CF8CE49EE00E94B21A0E94722040E07F
:1009200050E0BA018CE49EE00E94041B0E949A03EE
:100930000E940D0264E670E080E090E00E94B81C26
:100940000E945E048CE49EE00C949C1B40E060E0FE
:1009500080E80E942B020E946A0264E186E59DE025
:100960000E94B40264E18FEC9DE00E94B40264E155
:100970008FED9CE00E94B40264E182E39EE00C945F
:10098000B4022F923F924F925F926F927F928F921A
:100990009F92AF92BF92CF92DF92EF92FF920F930E
:1009A0001F93CF93DF93CDB7DEB7C456D1090FB6EF
:1009B000F894DEBF0FBECDBF84E1E9E0F1E0DE01D7
:1009C000DD9601900D928A95E1F784E1EDE1F1E089
:1009D000DE01999601900D928A95E1F784E1E1E3B9
:1009E000F1E0DE01559601900D928A95E1F784E1E0
:1009F000E5E4F1E0DE01119601900D928A95E1F7B0
:100A00008091460D9091470D8230910509F432C2D4
:100A100040F4009709F43DC2019771F060ED72E077
:100A20000DC08430910509F42BC208F426C2069744
:100A3000A9F76DEE72E002C065ED72E0FB01019076
:100A40000020E9F73197AF01461B570BCE018D5BB4
:100A50009F4F0E941B2A8091DE0C24E6622F0E9489
:100A60003727805D2E968FAF2E978091DE0C0E94E7
:100A70003727892F2AE0622F0E943727805D2F9623
:100A80008FAF2F978091DE0C0E943727905D609684
:100A90009FAF60978091EE0D9091EF0D64E670E04E
:100AA0000E946527605D6D966FAF6D978091EE0D2A
:100AB0009091EF0D2AE030E0B9010E946527CB014B
:100AC000B9010E946527805D6E968FAF6E97809109
:100AD000EE0D9091EF0DB9010E946527805D6F9634
:100AE0008FAF6F97C0902B0DD0902C0DE0902D0DF7
:100AF000F0902E0D60912B0D70912C0D80912D0D8D
:100B000090912E0D0E94F92820E030E0A9010E946A
:100B10004A2887FFC1C1C701B6010E94F928905831
:100B20000E94C1286B017C011DE2C701B60120EAC9
:100B300036E841E050E00E949B276AE0862E912C27
:100B4000A12CB12CCA01B901A50194010E949B27D7
:100B5000605DA0966FAFA097C701B60120E137E2B4
:100B600040E050E00E949B27CA01B901A501940111
:100B70000E949B27605DA1966FAFA197C701B60148
:100B800028EE33E040E050E00E949B27CA01B90103
:100B9000A50194010E949B27605DA2966FAFA2976A
:100BA000C701B60124E630E040E050E00E949B27F8
:100BB000CA01B901A50194010E949B27605DA3961B
:100BC0006FAFA397C701B601A50194010E949B27AF
:100BD000062FCA01B901A50194010E949B27605DFF
:100BE000A4966FAFA497005DA5960FAFA5978091CF
:100BF000310D811153C180E26C968FAF6C9790E2FA
:100C00006B969FAF6B978EE46A968FAF6A9745E4B9
:100C1000242E50E5352E0FE40E94521C6B017C01FE
:100C200024E630E040E050E00E94792765962CAF42
:100C30003DAF4EAF5FAF6597C701B60120E737E123
:100C400040E050E00E94792729013A01C701B6012E
:100C500020E43EE745E050E00E94792769962CAFFA
:100C60003DAF4EAF5FAF69978CE3882E912CA12CDE
:100C7000B12C65966CAD7DAD8EAD9FAD6597A50130
:100C800094010E94792765966CAF7DAF8EAF9FAFC0
:100C90006597C301B201A50194010E9479272B0138
:100CA0003C0169966CAD7DAD8EAD9FAD699728E135
:100CB00030E040E050E00E94792769966CAF7DAF4C
:100CC0008EAF9FAF699784E1FE01FD96A6E5BDE07A
:100CD00001900D928A95E1F76D968FAD6D978BA778
:100CE0006E969FAD6E979CA78EE28DA76F969FAD77
:100CF0006F979EA71AABA0969FADA0979BABA196AE
:100D00009FADA1979CABA2969FADA2979DAB8EABDA
:100D1000A3969FADA3979FABA4969FADA49798AFC2
:100D2000A5969FADA59799AF94E1FE01B996AFEC5A
:100D3000BDE001900D929A95E1F70AA33BA22CA287
:100D40006A969FAD6A979DA36B969FAD6B979EA386
:100D50006C969FAD6C979FA394E1FE017596AFEDE5
:100D6000BCE001900D929A95E1F796E79B8390E3A2
:100D70009C838D8381E38E8385E38F83C701B601D6
:100D800020E038E94FE753E30E947927205D298767
:100D9000C701B60120E03CE546E255E00E94792714
:100DA0009AE0892E912CA12CB12CCA01B901A50180
:100DB00094010E947927605D6A87C701B60120E02F
:100DC00036ED43E850E00E947927CA01B901A50138
:100DD00094010E947927605D6B871AE31C876996EE
:100DE0006CAD7DAD8EAD9FAD6997A50194010E945C
:100DF0007927205D2D87605D6E871F87C301B20153
:100E0000A50194010E947927205D288B605D698B84
:100E10001A8B65966CAD7DAD8EAD9FAD6597A501C6
:100E200094010E947927205D2B8B605D6C8B84E19F
:100E3000FE013196A2E3BEE001900D928A95E1F7A2
:100E4000CC59DF4F0FB6F894DEBF0FBECDBFDF9198
:100E5000CF911F910F91FF90EF90DF90CF90BF90B7
:100E6000AF909F908F907F906F905F904F903F904A
:100E70002F9008956AED72E0E1CD60EE72E0DECD74
:100E800080918B0D805D28968FAF289764EE72E07D
:100E9000D5CD68EE72E0D2CD10E247CE94E46C96E8
:100EA0009FAF6C9785E46B968FAF6B9793E56A96CF
:100EB0009FAF6A972FE4222E3CE4332E03E4ACCE9E
:100EC000CF93DF93CDB7DEB7C055D1090FB6F894F5
:100ED000DEBF0FBECDBF84E1E9E5F1E0DE01DD96C6
:100EE00001900D928A95E1F784E1EDE6F1E0DE01F3
:100EF000999601900D928A95E1F784E1E1E8F1E09D
:100F0000DE01559601900D928A95E1F784E1E5E9BD
:100F1000F1E0DE01119601900D928A95E1F78DE2E4
:100F200023968FAF23979FE224969FAF24979EE24C
:100F300025969FAF259726968FAF269784E1FE01D1
:100F4000FD96A6E5BDE001900D928A95E1F784E15A
:100F5000FE01B996AFECBDE001900D928A95E1F7E4
:100F600084E1FE017596AFEDBCE001900D928A958B
:100F7000E1F784E1FE013196A2E3BEE001900D921B
:100F80008A95E1F7C05BDF4F0FB6F894DEBF0FBE66
:100F9000CDBFDF91CF9108952F923F924F925F92F4
:100FA0006F927F928F929F92AF92BF92CF92DF9279
:100FB000EF92FF920F931F93CF93DF93CDB7DEB7DE
:100FC00064970FB6F894DEBF0FBECDBF94E1E9EA97
:100FD000F1E0DE01119601900D929A95E1F790E310
:100FE000392E380EE82FF0E0EE0FFF1FDF01AF5F64
:100FF000B14F8D919C911197AD90BC901197CD9070
:10100000DC901197ED90FC90EC5CF24F0081118127
:1010100020813181608071804080518044E1FE01F7
:101020003196A6E5BDE001900D924A95E1F7EFEC0F
:10103000FDE043E4408331825FE5252E228256E5C0
:1010400053835AE3548368EE862E63E0962EB401F0
:101050000E945127605D65838EE28683C501B401DD
:101060000E94512774E6A72EB12CB5010E9451278A
:10107000605D6783C601B4010E945127B5010E94DB
:101080005127AAE0CA2ED12CB6010E945127605DDB
:101090006087C701B6010E945127805D8187B0E259
:1010A000FB2EF286F386F486F586F686F786F08ABE
:1010B000F18AF28AF38AEFEDFCE0408331822282EA
:1010C00084E583835AE35483C801B4010E94512705
:1010D000605D6583C901B4010E945127B5010E947A
:1010E0005127605D6683C301B4010E945127B50199
:1010F0000E945127B6010E945127605D67838EE2EE
:101100008087C201B6010E945127805D8187F286E7
:10111000F386F486F586F686F786F08AF18AF28AF7
:10112000F38AE2E3FEE080E580838FE281834283FD
:1011300033828EE38483F582F682F782F086F1862D
:10114000F286F386F486F586F686F786F08AF18ACB
:10115000F28AF38A64960FB6F894DEBF0FBECDBF55
:10116000DF91CF911F910F91FF90EF90DF90CF9083
:10117000BF90AF909F908F907F906F905F904F90B7
:101180003F902F9008952F923F924F925F926F92CF
:101190007F928F929F92AF92BF92CF92DF92EF9207
:1011A000FF920F931F93CF93DF93CDB7DEB7C35456
:1011B000D1090FB6F894DEBF0FBECDBF94E1EDEBC1
:1011C000F1E0DE01999601900D929A95E1F794E194
:1011D000E1EDF1E0DE01559601900D929A95E1F76F
:1011E00094E1E5EEF1E0DE01119601900D929A9501
:1011F000E1F720E3280F2DAF76EFE72E7DE0F72E05
:10120000E2E7AE2EEDE0BE2EF501670190E2D601D9
:101210009D936D019193BBEFCB16BDE0DB06B9F753
:10122000082F10E04801880C991CF401EC5DF14F87
:10123000808191814AE066EF7DE00E94242AF401DA
:10124000E85BF24F808191814AE062E77DE00E9495
:10125000242A80E2F7019081911101C08083D50199
:101260009C91911101C08C93BFEFEB1AFB0AEFEF39
:10127000AE1ABE0ACE14DF0469F77090F60D8090A6
:10128000F70D9090F80DF091F90DFEAFC090FA0DAA
:101290002090720D3090730D4090740D5090750D2C
:1012A0006090760DF801EE0FFF1FED5EF14F80812B
:1012B000918164E670E00E9451272AE030E0B90194
:1012C0000E945127605D6FAF80819181B9010E94BA
:1012D0005127805D21968FAF21975801AA0CBB1C26
:1012E000AA0CBB1CC5018D50934F7C01DC016D9194
:1012F0007D918D919C910E94C128605D22966FAF77
:101300002297F701608171818281938120E030E032
:1013100040E251E40E94AE290E94C128862F5AE083
:10132000D52E6D2D0E944327905D23969FAF239766
:10133000D7016D917D918D919C9120E030E048EC3A
:1013400052E40E94AE290E94C128862F6D2D0E9472
:101350004327905D24969FAF2497F70160817181A8
:101360008281938120E030E04AE754E40E94AE2974
:101370000E94C128862F6D2D0E94432797FDCBC068
:10138000F70180819181A281B38160817181828125
:10139000938120E030E04AE754E40E94AE290E94A5
:1013A000C128862F6D2D0E94432720E3F22EF90ECF
:1013B000F801E75EF24F80811F928F9381EF92E0F8
:1013C0009F938F938FE09DE09F938F930E94492A74
:1013D00050910F0D4091100D3091110DF501E15715
:1013E000F24F20819181828163812EA63FA648AA77
:1013F00059AA6AAAFFADF8AF21967FAD219779AFC0
:1014000074E1FE01B996A6E5BDE001900D927A95D2
:10141000E1F77A8E8B8E9C8EAEADAD8FCE8E2296FE
:10142000BFAD2297BCA37EE27DA32396EFAD2397A9
:10143000EEA32496FFAD2497FFA3F8A674E1FE0166
:101440007596AFECBDE001900D927A95E1F7205DC5
:101450002E83905D9F83805D8887605D69875A8B4E
:101460004B8B3C8B84E1FE013196AFEDBCE00190EB
:101470000D928A95E1F780E58093320E9FE290937A
:10148000330E83E48093340E2DAD2093350E90936C
:10149000360E8093370E81E48093380E8CE480936F
:1014A000390E8EE380933A0E80E280933B0E809358
:1014B0003C0E80933D0E80933E0E80933F0E8093B2
:1014C000400E8093410E8093420E8093430E809392
:1014D000440E8093450E0F900F900F900F900F9039
:1014E0000F90CD5BDF4F0FB6F894DEBF0FBECDBFC0
:1014F000DF91CF911F910F91FF90EF90DF90CF90F0
:10150000BF90AF909F908F907F906F905F904F9023
:101510003F902F90089580E2F82E4ACF3F924F924D
:101520005F926F927F928F929F92AF92BF92CF9273
:10153000DF92EF92FF920F931F93CF93DF93CDB77C
:10154000DEB7EC970FB6F894DEBF0FBECDBF84E1D7
:10155000E9EFF1E0DE01999601900D928A95E1F7AD
:1015600084E1EDE0F2E0DE01559601900D928A955E
:10157000E1F784E1E1E2F2E0DE01119601900D92E3
:101580008A95E1F783E58093560D85E48093570DA6
:1015900084E58093580D80E28093590D90E59093F7
:1015A0005A0D91E490935B0D93E490935C0D9BE452
:1015B00090935D0D80935E0D99E490935F0D94E49C
:1015C0009093600D8093610D8093620D8093630D05
:1015D0008093640D8093650D8093660D8093670DF5
:1015E0008093680D8093690D94E1FE01B996AFEC8C
:1015F000BDE001900D929A95E1F794E1FE01759698
:10160000AFEDBCE001900D929A95E1F78887898B48
:1016100084E1FE013196A2E3BEE001900D928A952D
:10162000E1F764E670E080E090E00E94B81C8091F1
:10163000180D8093890D8091180D1F928F9306EFDE
:1016400012E01F930F938AE69DE09F938F930E9471
:10165000492A8091890D1F928F931F930F9386E4DF
:101660009EE09F938F930E94492A62E370E080E09E
:1016700090E00E94B81C81E08093E40D0FB6F894CE
:10168000DEBF0FBECDBF780186E4C82E8EE0D82E17
:101690003324339493E5A92E25E4B22E04E510E219
:1016A00030E5432E41E4542E53E4652E6BE4762E50
:1016B00079E4872EE4E49E2E8091230E882309F49A
:1016C000E3C08091E40D843028F48091E40D8F5FB5
:1016D0008093E40D8091E40D8093890D8091890DB4
:1016E0001F928F93FF92EF92DF92CF920E94492A2E
:1016F0008091890D0F900F900F900F900F900F9089
:10170000853031F43092E40D8091E40D8093890DA1
:101710001092230E20916A0D9091460EA092560DC4
:10172000B092570D0093580D1093590D40925A0DD9
:1017300050925B0D60925C0D70925D0D10935E0D8A
:1017400080925F0D9092600D1093610D1093620D69
:101750001093630D1093640D1093650D1093660D37
:101760001093670D1093680D1093690D84E1FE01CD
:10177000B996AFECBDE001900D928A95E1F784E156
:10178000FE017596AFEDBCE001900D928A95E1F7F0
:101790002887998B84E1FE013196A2E3BEE0019097
:1017A0000D928A95E1F7189987CF6091890D88E0AD
:1017B00090E00E94502D88E090E00E94422D80939E
:1017C000180D4092560D5092570D6092580D709220
:1017D000590D10935A0D80925B0D90925C0D1093F1
:1017E0005D0DA0925E0DB0925F0D0093600D81E2E1
:1017F0008093610D1093620D1093630D1093640D2F
:101800001093650D1093660D1093670D1093680D7E
:101810001093690D84E1FE01B996AFECBDE0019033
:101820000D928A95E1F784E1FE017596AFEDBCE07B
:1018300001900D928A95E1F784E1FE013196A2E3D1
:10184000BEE001900D928A95E1F764E670E080E0D9
:1018500090E00E94B81C80E0EC960FB6F894DEBFD2
:101860000FBECDBFDF91CF911F910F91FF90EF90F1
:10187000DF90CF90BF90AF909F908F907F906F90B0
:101880005F904F903F9008958091F40D882309F464
:1018900041CF8091E40D8130C9F08091E40D8150F9
:1018A0008093E40D8091E40D8093890D8091890DE2
:1018B0001F928F93FF92EF92DF92CF920E94492A5C
:1018C0000F900F900F900F900F900F901092F40DBB
:1018D00021CF3F924F925F926F927F928F929F9211
:1018E000AF92BF92CF92DF92EF92FF920F931F932E
:1018F000CF93DF93CDB7DEB7EC970FB6F894DEBF8A
:101900000FBECDBF84E1E9EFF1E0DE0199960190D1
:101910000D928A95E1F784E1EDE0F2E0DE01559663
:1019200001900D928A95E1F784E1E5E3F2E0DE01B2
:10193000119601900D928A95E1F78091140D909186
:10194000150D9093100E80930F0E8091140D9091B1
:10195000150D9F938F930BEF12E01F930F9384E865
:101960009DE09F938F930E94492A80910F0E909142
:10197000100E9F938F931F930F9387E49EE09F9386
:101980008F930E94492A62E370E080E090E00E9419
:10199000B81C1092E40D0FB6F894DEBF0FBECDBF99
:1019A000680187E4A82E8EE0B82E812C95E0992E50
:1019B00003E525E4F22E34E5632E10E243E4342EF1
:1019C00051E4752E6EE4462E74E4E72EE2E55E2EB9
:1019D0008091230E882309F420C18091E40D8F5F4C
:1019E0008093E40D8091E40D90E09B5F9093100E46
:1019F00080930F0E80910F0E9091100E9F938F93F6
:101A0000DF92CF92BF92AF920E94492A80910F0E2F
:101A10009091100E0F900F900F900F900F900F90CD
:101A20008115964031F41092E40D9092100E809240
:101A30000F0E1092230E6091850D5091860D4091EE
:101A4000870D3091480E2091490E90914A0E0093D7
:101A5000560DF092570D6092580D1093590D30921B
:101A60005A0D70925B0D40925C0D10935D0D70925B
:101A70005E0DE0925F0DE092600D5092610DF0926C
:101A8000620D0093630D0093640D1093650D109328
:101A9000660D1093670D1093680D1093690D84E126
:101AA000FE01B996AFECBDE001900D928A95E1F789
:101AB00084E1FE017596AFEDBCE001900D928A9530
:101AC000E1F7688759874A87398B2A8B9B8B84E19A
:101AD000FE013196A2E3BEE001900D928A95E1F7F6
:101AE000189976CF8091140D9091150D01969093D1
:101AF000120E8093110E8091140D9091150D029687
:101B00009093330D8093320D60910F0E7091100EF3
:101B100082E090E00E945D2D6091110E7091120E96
:101B200084E090E00E945D2D6091320D7091330D44
:101B300086E090E00E945D2D82E090E00E944A2DB8
:101B40009093150D8093140D3092560D7092570D91
:101B50004092580D1093590D70925A0DE0925B0D02
:101B6000E0925C0D50925D0DF0925E0D00935F0D62
:101B70000093600D1093610D0093620DF092630D60
:101B80006092640D81E28093650D1093660D109351
:101B9000670D1093680D1093690D84E1FE01B996ED
:101BA000AFECBDE001900D928A95E1F784E1FE0172
:101BB0007596AFEDBCE001900D928A95E1F784E156
:101BC000FE013196A2E3BEE001900D928A95E1F705
:101BD00064E670E080E090E00E94B81C64E670E08B
:101BE00080E090E00E94B81C80E0EC960FB6F8947C
:101BF000DEBF0FBECDBFDF91CF911F910F91FF9040
:101C0000EF90DF90CF90BF90AF909F908F907F909C
:101C10006F905F904F903F9008958091F40D8823CE
:101C200009F409CF8091E40D8823F9F08091E40D47
:101C300081508093E40D8091E40D90E09B5F909340
:101C4000100E80930F0E80910F0E9091100E9F93A7
:101C50008F93DF92CF92BF92AF920E94492A0F904A
:101C60000F900F900F900F900F901092F40DE3CE05
:101C700084B1887F84B985B1876085B908950E9451
:101C8000380E62E370E080E090E00E94B81CC1E092
:101C90001A9909C0C093230E6EE170E080E090E0D5
:101CA0000E94B81CF5CF199903C0C093F40DF4CF6E
:101CB0001899EECFC093C60CEFCFEF92FF920F931F
:101CC0001F93CF93DF93CDB7DEB74DB75EB780914B
:101CD000FB0D2DB73EB7281B31090FB6F8943EBF58
:101CE0000FBE2DBF2F5F3F4F8091460D9091470D46
:101CF000019709F092C080916C0D882309F48DC082
:101D000010926C0D80E09091FB0D891760F0A0E0BF
:101D10008091FB0D6A2F70E090E0019768177907BA
:101D2000BCF5B0E029C0F901E80FF11D80838F5F99
:101D3000EACFB901680F791FFB01E080EE2DF0E0DA
:101D4000EE0FFF1FEF5FF14F008111810196820FAF
:101D5000931FFC01F080EF2DF0E0EE0FFF1FEF5F0F
:101D6000F14F0190F081E02DE017F10720F4FC0124
:101D7000E082FB01F082BF5F8B2F90E06091FB0D52
:101D800070E061507109861797079CF2AF5FC0CF72
:101D90008091FB0D815097E0811111C0A1E060910D
:101DA000FB0D861748F10FB6F8945EBF0FBE4DBF0E
:101DB000DF91CF911F910F91FF90EF900895D9017E
:101DC000A80FB11DEC91F0E0EE0FFF1FEF5FF14F98
:101DD000608171811197EC91F0E0EE0FFF1FEF5FD2
:101DE000F14F0190F081E02D6E1B7F0B6931710581
:101DF00008F0982F8150D0CF682F70E0620F731FCA
:101E0000FB016081E62FF0E0E952F34F891718F0EB
:101E1000A0838F5FC4CF1082FCCF8091460D90913C
:101E2000470D019709F4BFCF80E09091FB0D891712
:101E300008F0B9CFE82FF0E0E952F34F10828F5F3E
:101E4000F4CFCF93DF9300D000D000D0CDB7DEB772
:101E50000E9489040E94A3000E94D7000E94790278
:101E600081E08093130D10926C0D34E6432E512CBB
:101E7000612C712C222423940E94521CA3019201F4
:101E80000E947927633371058105910508F4EDC03F
:101E90008091130D882331F01092130D20926C0D58
:101EA0000E94A60465E070E080E090E00E94B81C0B
:101EB000312C8091FB0D381608F4DAC00E948301A2
:101EC000BC01990F880B990B0E94F9282AE037ED85
:101ED00043EA5AE30E94AE2921EC3AEC41E85FE381
:101EE0000E94AE292AE939E949E95EE30E94DD272B
:101EF00020E030E040E251E40E94AE290E94C82870
:101F00007093EF0D6093EE0D0E946B000E942E0106
:101F1000092E000CAA0BBB0BB095A095909581954E
:101F20009F4FAF4FBF4F8093420D9093430DA093AF
:101F3000440DB093450D8091420D9091430DA091B9
:101F4000440DB091450D803E9E42A105B105CCF4F3
:101F50008091420D9091430DA091440DB091450D9B
:101F60008132914DAF4FBF4F64F08091420D9091FF
:101F7000430DA091440DB091450D9093220E809396
:101F8000210E8091460D9091470D069709F0FAC0F9
:101F90008091310D882309F4F5C00E94EF010E9461
:101FA000BA01092E000CAA0BBB0B8093420D909333
:101FB000430DA093440DB093450D40E050E0BA01AD
:101FC0008DE69DE00E94041B8091420D9091430D8F
:101FD000A091440DB091450D9C01AD016627772776
:101FE000CB01621B730B840B950B0E94F9282FE623
:101FF00032E143E059E30E94AE2923ED3EEF46ED86
:1020000052E40E94AE2924EA30E74DE25FE30E94E9
:10201000DE2720E030E04AE754E40E94AE290E9427
:10202000C12860932B0D70932C0D80932D0D9093F0
:102030002E0D8DE69DE00E949C1B0E945D0E10E01F
:102040008091FB0D181708F017CFE12FF0E0DF01AA
:10205000A952B34F8C91E75EF24F813009F0E8C08E
:1020600080810E94E7021F5FEBCF2092130D1ACFF1
:10207000032D10E0F801E75EF24F80810E94050316
:102080006B017C019801220F331F3E832D83F901E0
:10209000EC5DF14F408151815A834983F901E85B3E
:1020A000F24F808191819C838B8396E09E9DB0014D
:1020B0009F9D700D112480E090E00E94F7284B0155
:1020C0005C01A981BA81BD0180E090E00E94F728FF
:1020D00020E030E040E85AE30E94AE299B01AC01C9
:1020E000C501B4010E94AE294B015C01EB81FC816A
:1020F000BF0180E090E00E94F7289B01AC01C50180
:10210000B4010E94DE270E94C828ED81FE81EF5FA6
:10211000F14F71836083000F111F000F111FF80131
:10212000ED50F34F80809180A280B380ED81FE81DD
:10213000ED5EF14F00811181FAEFCF1AF0E8DF0A6E
:10214000CC0CDD1CB60180E090E00E94F728A501D0
:1021500094010E94AE296B017C01B80180E090E0FF
:102160000E94F7289B01AC01C701B6010E94DE273F
:102170000E94C828ED81FE81EC5CF24F7183608380
:10218000339497CE0E940D020E94BA01092E000CD2
:10219000AA0BBB0B8093420D9093430DA093440D6B
:1021A000B093450D8091420D9091430DA091440D47
:1021B000B091450D8C3B9240A105B1050CF03DCF8F
:1021C0008091420D9091430DA091440DB091450D29
:1021D00085349D4FAF4FBF4F0CF42FCF40E050E000
:1021E000BA018DE69DE00E94041B6091210E709162
:1021F000220E072E000C880B990B0E94F9282CEA5E
:1022000035EC47E256E30E94AE292FE632E143E87F
:102210005AE30E944F282DE73EEA46E75FE30E941B
:10222000AE2929E839E241E15CE30E94DD27F1CEE5
:1022300080810E94CA0217CF1092520E1092510E46
:102240008091510E9091520E079708F494C087E048
:1022500080937E0D85EE9DE09093800D80937F0DA1
:1022600081E090E09093790D8093780D1092830D2A
:1022700082E090E00E944A2D9093150D8093140DFA
:102280008091140D9091150D892B31F08091140DD2
:102290009091150D019671F460E075E082E090E098
:1022A0000E945D2D82E090E00E944A2D9093150DD2
:1022B0008093140D84E090E00E944A2D9093120EBA
:1022C0008093110E8091110E9091120E892B31F096
:1022D0008091110E9091120E019671F461E075E0FB
:1022E00084E090E00E945D2D84E090E00E944A2D01
:1022F0009093120E8093110E86E090E00E944A2D7A
:102300009093330D8093320D8091320D9091330D67
:10231000892B31F08091320D9091330D019671F43B
:1023200062E075E086E090E00E945D2D86E090E03E
:102330000E944A2D9093330D8093320D88E090E0F7
:102340000E94422D8093180D8091180D882321F052
:102350008091180D8F3F59F461E088E090E00E9471
:10236000502D88E090E00E94422D8093180D87E068
:102370008093530E0895E091510EF091520EEB515F
:10238000F24F10828091510E9091520E01969093CF
:10239000520E8093510E54CF0E941C1180E00E9477
:1023A0003E2118E08091180D90E0982F88279770B3
:1023B00090937B0D80937A0D10937E0D8091460D46
:1023C0009091470D8093E50D8091EE0D9091EF0D6A
:1023D0009093E60D8091EE0D9091EF0D8093E70DB7
:1023E00080912B0D90912C0DA0912D0DB0912E0D63
:1023F0008B2FBB2787FDB0959B2FAB2F8093E80DCC
:1024000080912B0D90912C0DA0912D0DB0912E0D42
:10241000CD01BB2797FDB095AB2F8093E90D80913F
:102420002B0D90912C0DA0912D0DB0912E0D892F7B
:102430009A2FAB2FBB27A7FDBA958093EA0D809109
:102440002B0D90912C0DA0912D0DB0912E0D809300
:10245000EB0D8091DE0C8093EC0D87E79DE00E94F0
:102460004B218111FACF87E79DE00E94262681301B
:10247000D1F38091F00D9091F10DA091F20DB091FA
:10248000F30D8B2FBB2787FDB0959B2FAB2F809330
:10249000E50D8091F00D9091F10DA091F20DB091AC
:1024A000F30DCD01BB2797FDB095AB2F8093E60DC3
:1024B0008091F00D9091F10DA091F20DB091F30D7E
:1024C000892F9A2FAB2FBB27A7FDBA958093E70DD5
:1024D0008091F00D9091F10DA091F20DB091F30D5E
:1024E0008093E80D84E001E0C4E0D1E09091530EC8
:1024F0009017B8F401E09091530E9017B8F12C2F7B
:10250000280F2AC0EC2FF0E0A02FB0E0A952B34F63
:102510009C91EB51F24F9083CF5F0F5F815009F494
:1025200054C09091530E901768F7E0CF4C2F50E0B5
:10253000E02FF0E0EE0FFF1FEF5FF14F6081718140
:10254000DA01AB51B24F7C9360817181FA01EA519B
:10255000F24F60830F5F8250C22FC81B823008F495
:1025600050C09091530E901708F7C5CF01E090919D
:10257000530E901718F14C2F480F16C02C2F30E037
:10258000E02FF0E0EE0FFF1FEC5CF24F60817181F5
:10259000D901AB51B24F7C9360817181F901EA514D
:1025A000F24F60830F5F8250C42FC81B823008F443
:1025B00044C09091530E901708F7D9CF64E670E0AD
:1025C00080E090E00E94B81CEDCE2091180D8D2F78
:1025D00090E0922B977090937B0D80937A0DC0932F
:1025E0007E0D87E79DE00E944B21C82F8111F9CF16
:1025F00087E79DE00E9426268130D1F3DF5F88E0E7
:1026000075CF2091180D8D2F90E0922B977090939D
:102610007B0D80937A0DC0937E0D87E79DE00E942D
:102620004B21C82F8111F9CF87E79DE00E94262614
:102630008130D1F3DF5F88E05ECF2091180D8D2FC0
:1026400090E0922B977090937B0D80937A0DC093BE
:102650007E0D87E79DE00E944B21C82F8111F9CFA5
:1026600087E79DE00E9426268130D1F3DF5F88E076
:102670007ECF0C94C1040E94C10464E670E080E047
:1026800090E00E94B81CC0E08C2F0C2E000C990B1F
:10269000C8303CF4C1308CF40E94C10418C0CFE0B3
:1026A000F3CFCF300CF1CF30B9F70E94690C0E9404
:1026B0008E0A81110CC0C0E00AC02091FB0D30E0F1
:1026C0002817390724F08FEF8C0F0E94CC07189B36
:1026D000E6CF8091F40D882399F0CF5FCF3009F4D5
:1026E000CEE01092F40DD0CF2091FB0D079730E093
:1026F0002817390764F388EF8C0F0E94C308E7CFCF
:102700008091230E882309F4BFCFC15008F4C0E0A4
:102710001092230EB9CF089A109863E070E080E021
:1027200090E00E94B81C109A63E070E080E090E0B6
:102730000E94B81CF1CF1092000E1092ED0D80E0B7
:102740009091FB0D891720F08DE69DE00C94B21A54
:10275000E82FF0E0E952F34F10828F5FF1CF81E074
:1027600090E00E94422D8093DE0C8091DE0C882345
:1027700021F08091DE0C8F3F59F462E381E090E01C
:102780000E94502D81E090E00E94422D8093DE0C4B
:102790008091DE0C08959091ED0D8091DE0C9817DC
:1027A00051F08091DE0C8093ED0D6091DE0C81E0A4
:1027B00090E00C94502D0895CF93DF9300D000D07B
:1027C000CDB7DEB70E949B13412C512C320114E689
:1027D0003CE9832E99249A94A92CB92C8091460D1A
:1027E0009091470D892BD1F38091460D9091470D23
:1027F000019721F482B1806382B908C08091460DAF
:102800009091470D039709F0B7C0149A80E090911A
:10281000FB0D891708F4B3C080E09091FB0D891778
:1028200008F4C8C00E94521C6B017C01DC01CB0182
:1028300084199509A609B7092C013D0140E050E033
:10284000BA018DE69DE00E94041B60912B0D7091F2
:102850002C0D80912D0D90912E0D2091F00D309129
:10286000F10D4091F20D5091F30D29833A834B8382
:102870005C83A30192010E942727A50194010E9475
:102880009B2789819A81AB81BC81280F391F4A1F00
:102890005B1F57FD2CC060912B0D70912C0D80910A
:1028A0002D0D90912E0D2091F00D3091F10D409154
:1028B000F20D5091F30D29833A834B835C83A3017E
:1028C00092010E942727A50194010E949B278981DC
:1028D0009A81AB81BC81280F391F4A1F5B1F20934F
:1028E000F00D3093F10D4093F20D5093F30D8DE602
:1028F0009DE00E949C1B6091F00D7091F10D809104
:10290000F20D9091F30D0E94F92820E036ED43E09E
:102910005AE40E94A929181664F56091F00D70918F
:10292000F10D8091F20D9091F30D0E94F92828E0AD
:102930003FEE4BE45DE40E944A2887FF1AC0609195
:10294000F00D7091F10D8091F20D9091F30D0E94B8
:10295000F92820E63EEF4DE45DE40E944F2820E098
:1029600030E048EC52E40E94AE290E94C8286093EF
:10297000DE0C2601370132CF82B18F7C3DCFE82FAC
:10298000F0E0EE0FFF1FEF5FF14F2081318125371F
:102990003E4070F020E036EE4FED5CE02093F00D0D
:1029A0003093F10D4093F20D5093F30D1093DE0C24
:1029B0008F5F2DCFE82FF0E0EE0FFF1FEF5FF14F9D
:1029C000208131812C383A4050F41092F00D109251
:1029D000F10D1092F20D1092F30D1092DE0C8F5F3C
:1029E0001CCF139A81B1896381B91092310D08957A
:1029F0000E94F11491E080B182FB882780F9892739
:102A00008093310D2091460D3091470D26303105D0
:102A100021F413988091310DEECF139AECCF8EE311
:102A200090E09093140E8093130E86E490E09093C0
:102A3000160E8093150E8BE290E09093180E809303
:102A4000170E89E390E090931A0E8093190E80E29E
:102A500090E090931C0E80931B0E81E390E0909386
:102A60001E0E80931D0E8EE190E09093200E8093B9
:102A70001F0E87E79EEBAFE3BFE38093F30C9093C9
:102A8000F40CA093F50CB093F60C8AEA91EFA2E354
:102A9000BFE38093F70C9093F80CA093F90CB093DC
:102AA000FA0C8FE892ECA5E5BFE38093FB0C9093C2
:102AB000FC0CA093FD0CB093FE0C84E69BE3AFE30B
:102AC000BFE38093FF0C9093000DA093010DB09392
:102AD000020D8FE395E3AEE5BFE38093030D909382
:102AE000040DA093050DB093060D8CE497E3A9E4C3
:102AF000BFE38093070D9093080DA093090DB09349
:102B00000A0D8FE29DEDA4E6BFE380930B0D909339
:102B10000C0DA0930D0DB0930E0D10928A0D109216
:102B20008B0D10928E0D10928D0D10928C0DC0E0B9
:102B3000D0E08091FB0D90E0C817D9070CF47AC063
:102B40001092470D1092460D0E94AF138093DE0C39
:102B50006091DE0C70E080E090E00E94F72820E0B9
:102B600030E048EC52E40E944F2820E63EEF4DE46E
:102B70005DE40E94AE290E94C8286093F00D709316
:102B8000F10D8093F20D9093F30D0E94CB13C4E0EE
:102B9000D0E07724739442E0642E06E010E0EE2447
:102BA000E394F12C63E0862E912C75E0C72ED12C96
:102BB000E2E0AE2EB12C0E94CB1340E08091FB0DE1
:102BC000481708F44CC08091EE0D9091EF0D8134C0
:102BD0009145A4F0D093470DC093460D60926B0DC4
:102BE00070928A0D60928B0D8091EE0D9091EF0D99
:102BF00090938E0D80938D0D10928C0D8091460DCB
:102C00009091470D049709F4BEC08091460D9091B4
:102C1000470D8230910509F4B1C008F062C00097F9
:102C200009F471C0019709F49BC0D093470DC0937C
:102C3000460DC1CFFE01E75EF24F80810E94C603C0
:102C40009E01220F331FF901EC5DF14F7183608308
:102C5000F901E85BF24F9183808321966ACF842F3C
:102C600090E0880F991FFC01EC5CF24F20813181CC
:102C70002935324090F0D093470DC093460D109205
:102C80006B0D70928A0D10928B0D208131813093E3
:102C90008E0D20938D0D40938C0DFC01EF5FF14F55
:102CA00020813181213A3F4028F420813181203D2B
:102CB0003740A8F4D093470DC093460D70926B0D2A
:102CC00070928A0D70928B0D8F5F914FFC01808105
:102CD000918190938E0D80938D0D40938C0D4F5F5D
:102CE0006DCF85309105B1F186309105B9F003972C
:102CF00009F09BCF8091E30D882359F08091DE0C81
:102D0000811159CF0FC068EC70E080E090E00E9424
:102D1000B81C1093470D0093460D4DCF8091DE0CEB
:102D2000811105C0D092470DC092460D44CF8091CD
:102D3000000E882329F0F092470DE092460D3BCF1C
:102D40008091E30D882309F436CF9092470D80924D
:102D5000460D31CF8091000E882309F42CCFEBCFA4
:102D60008091000E8823A9F28091DE0C843608F44D
:102D700022CFB092470DA092460D1DCF8091000E3C
:102D8000811119CFC6CF10928A0D86E090E040E005
:102D90002091FB0D421790F02091EE0D3091EF0D38
:102DA0002134314534F060926B0D70928A0D84E0CD
:102DB00090E09093470D8093460DFDCEE42FF0E018
:102DC000EE0FFF1FDF01AC5CB24F2D913C91293516
:102DD000324030F010926B0D70928A0D84E090E0DA
:102DE000EF5FF14F20813181213A3F4028F420816B
:102DF0003181203D374030F470926B0D70928A0D16
:102E000084E090E04F5FC4CF87B1836087B90895B5
:102E10000E9404178091460D9091470D049781F40C
:102E2000419A409A69E170E080E090E00E94B81C0D
:102E3000409869E170E080E090E00E94B81CEACF21
:102E40004198EFCFAF92BF92CF92DF92EF92FF9275
:102E50000F931F93CF93DF93C9E4D2E0AB84BC847C
:102E6000CD84DE84E984FA840D811E812F8138852A
:102E70004B815C816A81888199810E94C21881118D
:102E800005C02F9692E0C03DD90741F7DF91CF9161
:102E90001F910F91FF90EF90DF90CF90BF90AF9078
:102EA00008952F923F924F925F926F927F928F92EE
:102EB0009F92AF92BF92CF92DF92EF92FF920F93C9
:102EC0001F93CF93DF930DB71EB7C82FD92F088359
:102ED0001983C62FD72F088119810DBF1EBFDF911F
:102EE000CF911F910F91FF90EF90DF90CF90BF9007
:102EF000AF909F908F907F906F905F904F903F909A
:102F00002F900895C82FD92F088119810DBF1EBF9A
:102F1000DF91CF911F910F91FF90EF90DF90CF90B5
:102F2000BF90AF909F908F907F906F905F904F90E9
:102F30003F902F901895FFCF8091A40C9091A50CF5
:102F400001969093A50C8093A40C08958091A40CF5
:102F50009091A50C892B29F48091B70C9091B80C15
:102F6000089580E090E00895CF93DF93FB010097F0
:102F700059F1309749F1DC01CD91DC91DE019E01E0
:102F8000109731F112965C91129742814517B0F477
:102F9000CA17DB0739F5DC01ED93FC931286118625
:102FA000D487C387FA87E98780E00FC032872187FB
:102FB00014861386E901FC87EB87F6CF9D011B96EB
:102FC0000D90BC91A02DDCCF89ECDF91CF910895BD
:102FD000CD2B61F7DC01ED93FC93128611861486EC
:102FE0001386E2CF32872187B487A387E901FC8764
:102FF000EB871A96FC93EE931997D6CFCF93DF9376
:103000000097C1F0DC01ED91FC91309779F0A38538
:10301000B485EC01B983A883109721F01A961C920D
:103020001E9219971286118614861386CF01DF919E
:10303000CF910895E0E0F0E0F9CFCF93DF93AC01BA
:10304000FB010097A9F1DC012D913C91211531057F
:1030500079F1D901E901EA17FB0709F5A385B485E0
:103060002E173F0789F4EA01B983A883109721F04E
:103070001A961C921E921997148613861286118630
:10308000CF01DF91CF910895BC87AB87A385B4852D
:10309000109791F31A96DC93CE931997EDCF1B9668
:1030A0008D919C911C97ED01009759F3DC01D3CFD2
:1030B00080E090E0E6CFCF93DF930097C9F0DC018A
:1030C000ED91FC91309781F02281621788F0A38501
:1030D000B485EC01B983A883109731F01A961C923D
:1030E0001E92199714861386CF01DF91CF91089510
:1030F000E0E0F0E0F9CFFF920F931F93CF93DF93BF
:103100009091A10C9923D1F0FFB6F894C091B70C1F
:10311000D091B80C9D859130B9F482EA9CE00E9470
:10312000FE17C817D90741F09093B80C8093B70CDD
:10313000BC01CE010E9451171D86FFBEDF91CF91C9
:103140001F910F91FF9008956A818130A9F482EA5E
:103150009CE00E945B188C01892B79F3BE0182EA06
:103160009CE00E94B417C017D10731F31093B80C3C
:103170000093B70CB801DDCF6623F9F270E061501F
:103180007109E5CFAF92BF92CF92DF92EF92FF929B
:103190000F931F93CF93DF93EC01009709F43FC087
:1031A00041155105E1F1E114F104C9F1AB28AC2856
:1031B000AD28A9F11D866A831A8619861C861B868E
:1031C000188A1F865C834B830D831E832F83388769
:1031D000B7010E94FE1F1FB7F894BE0182EA9CE06F
:1031E0000E94B417C82F1FBF882369F0CCEC8C2F26
:1031F000DF91CF911F910F91FF90EF90DF90CF90D3
:10320000BF90AF9008958091A10C813081F70E940A
:10321000A617892B61F380E00E947B18E8CFC9ECE8
:10322000E6CFAF92BF92CF92DF92EF92FF920F93D1
:103230001F931092B80C1092B70C1092A30C10921E
:10324000A20C1092A10C5A016B017C0100E010E06D
:1032500098014BE957E16FEF86EA9CE00E94C218A3
:103260001F910F91FF90EF90DF90CF90BF90AF90A4
:1032700008952091A40C3091A50C21503109309370
:10328000A50C2093A40C0C947B1881E08093A10CD6
:103290006FEF82EA9CE00E945B18009731F09093F8
:1032A000B80C8093B70C0C94821708951F93CF939A
:1032B000DF93EC01892BA1F01FB7F8946881798125
:1032C00082E0FB018687108A17868A819B810E9493
:1032D0001D186881798182EA9CE00E94B4171FBFA3
:1032E000DF91CF911F910895009731F0FC01628327
:1032F0001182108280E0089589EC0895DF92EF92A8
:10330000FF920F931F93CF93DF937C01892BD1F111
:1033100000E08AECD82E1FB7F894C7010E94FE1770
:10332000EC01009761F1DE86BC0182EA9CE00E941C
:10333000B4178823A1F01FBFCCEC013039F40E94F0
:10334000A617892B19F080E00E947B188C2FDF9143
:10335000CF911F910F91FF90EF90DF9008958F858F
:103360009889009749F00E94281C882319F01FBFF4
:10337000CDECE3CF188A1F861FBF01E0CCCF1FBF63
:10338000C0E0DBCFC9ECE2CF8F929F92AF92BF92A9
:10339000DF92EF92FF920F931F93CF93DF93CDB7FE
:1033A000DEB72E970FB6F894DEBF0FBECDBF7C01FF
:1033B0004A015B01009709F468C0DFB6F894FC018C
:1033C000828181115CC077FD57C00E94A6178C01D5
:1033D000009709F44EC0BC01C7010E94B4178823AE
:1033E000A1F0DFBE8CEC2E960FB6F894DEBF0FBEB8
:1033F000CDBFDF91CF911F910F91FF90EF90DF90A4
:10340000BF90AF909F908F90089591E0F8019587BD
:1034100081149104A104B10441F11C870B87FE863D
:10342000ED8686E599E19A838983CE010B969C838C
:103430008B838D829E82AF82B8860A97908B878716
:103440000E94031C882349F0B801C7010E941D187F
:10345000F8011586108A17868DECDFBE8111C3CF67
:103460000E947B18F8018685BECFF801108A178666
:10347000F4CFDFBE88ECB7CFDFBE83E0B4CF81509E
:10348000F7018283DFBE80E0AECF89ECACCF0F9333
:103490001F93CF93DF930097E9F1DFB7F894FC0116
:1034A00020813181232B59F10E94FE178C01BC0130
:1034B00082EA9CE00E94B417C82F882341F0DFBF46
:1034C000CCEC8C2FDF91CF911F910F910895F801D3
:1034D000168687859089009761F4F801108A17860F
:1034E000DFBF0E94A617892B61F380E00E947B1842
:1034F000E8CF0E94281C882381F3CDECF1CFFC019A
:1035000022812F3F29F02F5F2283C0E0DFBFD9CF78
:10351000CBECFCCFC9ECD5CF009721F0FC01628346
:1035200080E0089589EC08951F93CF93DF93EC0119
:10353000892BA1F01FB7F8946881798182E0FB01A3
:103540008687108A17868A819B810E941D18688150
:10355000798182EA9CE00E94B4171FBFDF91CF916E
:103560001F910895FC01892B39F013821282148275
:103570001182108280E0089589EC0895DF92EF9225
:10358000FF920F931F93CF93DF937C01892BD1F18F
:1035900000E08AECD82E1FB7F894C7010E94FE17EE
:1035A000EC01009761F1DE86BC0182EA9CE00E949A
:1035B000B4178823A1F01FBFCCEC013039F40E946E
:1035C000A617892B19F080E00E947B188C2FDF91C1
:1035D000CF911F910F91FF90EF90DF9008958F850D
:1035E0009889009749F00E94281C882319F01FBF72
:1035F000CDECE3CF188A1F861FBF01E0CCCF1FBFE1
:10360000C0E0DBCFC9ECE2CF8F929F92AF92BF9226
:10361000DF92EF92FF920F931F93CF93DF93CDB77B
:10362000DEB72E970FB6F894DEBF0FBECDBF7C017C
:103630004A015B01892B09F47DC00E94A6178C0109
:10364000DFB6F8940097A1F4DFBE88EC2E960FB693
:10365000F894DEBF0FBECDBFDF91CF911F910F91C8
:10366000FF90EF90DF90BF90AF909F908F90089564
:10367000F701228133812115310509F44CC08217ED
:10368000930709F448C0B7FC43C0BC01C7010E94BE
:10369000B417882319F0DFBE8CECD8CF91E0F80185
:1036A000958781149104A104B10471F11C870B87E3
:1036B000FE86ED8684E99AE19A838983CE010B9692
:1036C0009C838B838D829E82AF82B8860A97908B73
:1036D00087870E94031C882349F0B801C7010E9414
:1036E0001D18F8011586108A17868DECDFBE811132
:1036F000ADCF0E947B18F80186858111A7CFF70115
:1037000094819F5F9483A2CFF801108A1786EECF31
:10371000DFBE83E09BCFF70184818F3F41F08F5F55
:103720008483232B11F41383028380E001C08BEC8C
:10373000DFBE8CCF89EC8ACFEF92FF920F931F935D
:10374000CF93DF938C01892B09F44CC00E94A617FC
:10375000DFB7F894F801228133818217930751F083
:10376000DFBFCFEC8C2FDF91CF911F910F91FF9096
:10377000EF900895F801C481C150C483C1112FC0D6
:103780001382128280819181892B39F1C8010E94B4
:10379000FE177C01BC0182EA9CE00E94B417C82F8E
:1037A000882319F0DFBFCCECDDCFF7011686F801D6
:1037B000F382E282F70187859089009741F4F7014F
:1037C000108A1786DFBF80E00E947B18CBCF0E9453
:1037D000281C8823A1F3CDECF5CFDFBFC3CFDFBF1B
:1037E000C0E0C0CFC9ECBECFCF93009751F0CFB7A8
:1037F000F894FC016081718182EA9CE00E94B41718
:10380000CFBFCF910895FC01892B01F18081918177
:10381000892BE1F084819581A681B781892B8A2B40
:103820008B2BA1F02FB7F8948091BD0C9091BE0C1A
:10383000009749F411861086F093BE0CE093BD0CFE
:103840002FBF80E0089591878087F6CF89EC089597
:10385000BC01892B29F15FB7F8942091BD0C309100
:10386000BE0CF901D901309711F48EEC0DC04085E2
:103870009185E617F70781F4E217F30739F44093CF
:10388000BD0C9093BE0C80E05FBF089518964C93DA
:10389000189719969C93F7CFDF01E42FF92FE3CF08
:1038A00089EC08956091B90C7091BA0C8091BB0CB1
:1038B0009091BC0C08956093B90C7093BA0C8093EE
:1038C000BB0C9093BC0C08950F931F93CF93DF9381
:1038D0008091A10C8823D1F08091B90C9091BA0C01
:1038E000A091BB0CB091BC0C0196A11DB11D8093A1
:1038F000B90C9093BA0CA093BB0CB093BC0C009184
:10390000BD0C1091BE0CE801209729F4DF91CF91F6
:103910001F910F9108958C819D81AE81BF81019788
:10392000A109B1098C839D83AE83BF83892B8A2B28
:103930008B2BE1F42091BD0C3091BE0C88859985CC
:10394000C217D30779F49093BE0C8093BD0CE88125
:10395000F981309719F08A819B8109950884D9856E
:10396000C02DD2CFF80191878087F1CF8E01F6CF9D
:10397000CF92DF92EF92FF920F931F93CF93DF933B
:10398000CDB7DEB72C970FB6F894DEBF0FBECDBF14
:103990006B017C010E94A617FC01C114D104E10453
:1039A000F10491F1892B91F10FB7F89481E08587AB
:1039B000FC87EB8784EF9BE19A838983CE010B968A
:1039C0009C838B83CD82DE82EF82F8860A97908B70
:1039D00087870E94031C182F0FBF882389F01DECD6
:1039E000812F2C960FB6F894DEBF0FBECDBFDF91AE
:1039F000CF911F910F91FF90EF90DF90CF9008959E
:103A000080E00E947B18ECCF19ECEACF18ECE8CFED
:103A10001F93CF93DF93EC01892BA1F01FB7F8948C
:103A20006881798182E0FB018687108A17868C8104
:103A30009D810E941D186881798182EA9CE00E9424
:103A4000B4171FBFDF91CF911F910895CF92DF92DE
:103A5000EF92FF920F931F93CF93DF93EC01CB0173
:103A60006C817D812A893B89620F731F4E815F8142
:103A70000E941B2A2E813F8148855985CA88DB8890
:103A8000EC88FD88C20ED31EE41EF51ECA8ADB8AAE
:103A9000EC8AFD8A8E899F89A88DB98D0197A1092D
:103AA000B1098E8B9F8BA88FB98F6A857B858C859A
:103AB0009D850E942727C616D706E806F90620F03E
:103AC0001A8A1B8A1C8A1D8ACE010E94FE178C014D
:103AD000009709F1BC0182EA9CE00E94B417C82F4C
:103AE00081111BC0F801168687859089009769F4BB
:103AF000F801108A17868C2FDF91CF911F910F91BB
:103B0000FF90EF90DF90CF9008950E94281C8823AB
:103B100079F3CDECF0CFC0E0EECFCCECECCFCF9290
:103B2000DF92EF92FF920F931F93CF93DF93EC01FD
:103B30002C813D818E859F854E815F81820F931FF1
:103B40000E941B2A2E813F8148855985CE84DF84BF
:103B5000E888F988C20ED31EE41EF51ECE86DF86E5
:103B6000E88AF98A8E899F89A88DB98D0196A11D51
:103B7000B11D8E8B9F8BA88FB98F6A857B858C85B5
:103B80009D850E942727C616D706E806F90620F06D
:103B90001E861F86188A198ACE0102960E94FE1779
:103BA0008C01009709F1BC0182EA9CE00E94B417E5
:103BB000C82F81111BC0F801168687859089009750
:103BC00069F4F801108A17868C2FDF91CF911F912D
:103BD0000F91FF90EF90DF90CF9008950E94281CE6
:103BE000882379F3CDECF0CFC0E0EECFCCECECCF76
:103BF000EF92FF920F931F93FC01892B69F16115DE
:103C0000710551F1211531054105510529F1E114E5
:103C1000F1040105110501F175836483268337835F
:103C200040875187E286F3860487158711821082C8
:103C30001382128216861786108A118A128A138AB4
:103C4000148A158A168A178A108E118E80E01F91A9
:103C50000F91FF90EF90089589ECF9CFBF92CF922A
:103C6000DF92EF92FF920F931F93CF93DF937C012C
:103C7000009709F446C000E06C0182E0C80ED11C38
:103C80008AECB82E1FB7F894C6010E94FE17EC010B
:103C9000892B31F4C7010E94FE17EC01892B71F1C9
:103CA000BE86BE0182EA9CE00E94B4178823B1F070
:103CB0001FBFCCEC013039F40E94A617892B19F0F4
:103CC00080E00E947B188C2FDF91CF911F910F9184
:103CD000FF90EF90DF90CF90BF9008958F859889E7
:103CE000009749F00E94281C882319F01FBFCDECD3
:103CF000E1CF188A1F861FBF01E0C4CF1FBFC0E0FD
:103D0000D9CFC9ECE0CF4F925F926F927F928F92A2
:103D10009F92AF92BF92CF92DF92EF92FF920F935A
:103D20001F93CF93DF93CDB7DEB760970FB6F894AC
:103D3000DEBF0FBECDBF6C012A013B0159010097C8
:103D400009F494C02115310509F490C00FB7F89417
:103D5000FC0186899789A08DB18D892B8A2B8B2BAD
:103D600009F076C077FD71C00E94A6177C0100970C
:103D700009F468C04601F2E08F0E911CBC01C40139
:103D80000E94B417182F81115AC081E0F70185876E
:103D9000411451046104710409F44DC0FC86EB86A2
:103DA000DE86CD86988A8F8688E09DE19A83898316
:103DB000CE010B969C838B834D825E826F827886C8
:103DC0000A97908B87870E94031C182F882349F03D
:103DD000B701C4010E941D18F7011586108A1786C5
:103DE0001DEC0FBF11110FC080E00E947B18F7017E
:103DF0001685111108C00FB7F894B501C6010E94CD
:103E0000261D182F0FBF812F60960FB6F894DEBFC6
:103E10000FBECDBFDF91CF911F910F91FF90EF901B
:103E2000DF90CF90BF90AF909F908F907F906F90DA
:103E30005F904F900895F701108A1786D2CF0FBF79
:103E40001CECE1CF0FBF18ECDECF0FBF13E0DBCFD0
:103E5000B901C6010E94261D182F0FBF0E94A61788
:103E6000892B89F280E00E947B18CDCF19ECCBCF53
:103E70004F925F926F927F92AF92BF92CF92DF92FA
:103E8000EF92FF920F931F93CF93DF93CDB7DEB7DF
:103E900060970FB6F894DEBF0FBECDBF6C012A014C
:103EA0003B015901009709F493C02115310509F42C
:103EB0008FC00FB7F894FC0146895789608D718DCA
:103EC00082859385A485B585481759076A077B07BE
:103ED00009F070C077FC6BC00E94A6177C010097A8
:103EE00009F462C0BC01C6010E94B417182F8111E9
:103EF00058C081E0F70185874114510461047104C1
:103F000009F44BC0FC86EB86DE86CD86D88ACF8648
:103F100088E09DE19A838983CE010B969C838B83F5
:103F20004D825E826F8278860A97908B87870E9487
:103F3000031C182F882349F0B701C6010E941D18E1
:103F4000F7011586108A17861DEC0FBF11110FC0DF
:103F500080E00E947B18F7011685111108C00FB789
:103F6000F894B501C6010E948F1D182F0FBF812F35
:103F700060960FB6F894DEBF0FBECDBFDF91CF9134
:103F80001F910F91FF90EF90DF90CF90BF90AF9077
:103F90007F906F905F904F900895F701108A178679
:103FA000D4CF0FBF1CECE3CF0FBF18ECE0CF0FBF97
:103FB00013E0DDCFB901C6010E948F1D182F0FBF7E
:103FC0000E94A617892B99F280E00E947B18CFCF20
:103FD00019ECCDCF0E94A6177894009771F0DC0100
:103FE0001396ED91FC911497309739F015966D91D9
:103FF0007D918D919C911897099408952AEE3FE147
:10400000FB012083319730833197108231971082E2
:104010003197108231971082319710823197108238
:104020003197108231971082319710823197108228
:104030003197108231971082319710823197108218
:104040003197108231971082319710823197108208
:1040500064517109FC0171836083089586E891E0E1
:10406000909389008093880082E080936F008CE0B9
:104070008093810008951F920F920FB60F92112422
:104080000BB60F922F933F934F935F936F937F9352
:104090008F939F93AF93BF93EF93FF930E949C17CF
:1040A0000E94641C81E00E943919FF91EF91BF9139
:1040B000AF919F918F917F916F915F914F913F91C0
:1040C0002F910F900BBE0F900FBE0F901F90189561
:1040D0001F920F920FB60F9211240F900FBE0F90E8
:1040E0001F9018958AE28093B8008FEF8093BB00F1
:1040F00084E08093BC0008958091BC008170089595
:104100008091BC0080FDFCCF80910001089520913A
:10411000BC0020FDFCCF6093C10CFC0120812093EA
:10412000C20C20FF09C01092BF0C88EF80930001E1
:1041300085EA8093BC000895FC013196A3ECBCE0B5
:1041400081E0861780F791919D938F5FFACF8091E0
:10415000BC0080FDFCCF1092BF0C88EF8093000163
:1041600085EA8093BC0008952091BC0020FDFCCF1F
:104170002091BF0C20FD04C08091BF0C8170089578
:10418000A2ECBCE0282FFC018E2F821B8617A0F723
:104190008D918193F9CF1F920F920FB60F92112438
:1041A0000BB60F922F933F938F939F93EF93FF93B1
:1041B0008091B900883249F0D0F4803121F0883103
:1041C00021F08830D1F41092C00CE091C00C8091A5
:1041D000C10CE81720F581E08E0F8093C00CF0E051
:1041E000EE53F34F80818093BB0085E836C0803466
:1041F00049F148F4883309F43FC08091B9008093B5
:10420000000184E02AC0803589F08835B1F78091BB
:10421000BB00E091C00CF0E0EE53F34F808380913F
:10422000BF0C81608093BF0C84E917C0E091C00C83
:1042300081E08E0F8093C00C8091BB00F0E0EE53C4
:10424000F34F80832091C00C30E08091C10C90E04E
:104250000197281739074CF685EC8093BC00FF9135
:10426000EF919F918F913F912F910F900BBE0F90E7
:104270000FBE0F901F90189585EAEFCF0E94F6268B
:10428000882341F00E94AD268091D80082608093FF
:10429000D80081E008950F931F93CF93DF9300D050
:1042A00000D0CDB7DEB78C01DC0111968D919C91C9
:1042B00012970C97F1F41A968C911A97803669F43C
:1042C0008C918295807F8093ED008091EF008F73B9
:1042D0008093EF001092EE001C92F801128680E0AD
:1042E0000F900F900F900F90DF91CF911F910F9132
:1042F00008950E94BA268F3F09F4A4C490E6D8011D
:104300001A969C931A978C938295807F8093ED00E8
:10431000EEEEF0E01192E83FF105E1F7D8011196D9
:10432000ED91FC9112973197EB30F10508F086C4BE
:10433000E456FE4D0C94BA27E5214E22BC221F23E1
:1043400051238923C4235A24D824A7217B2580E024
:10435000F8019781891708F4C2C319821A821B8257
:104360001C821092F7008B81880F880F880F9A812A
:10437000929596959770890F8093F6008A81880FA1
:10438000880F880F9981929596959770890F8093E1
:10439000F5008981880F880F880F8093F400809141
:1043A000EF009781892B8093EF0081E083878091D4
:1043B000F40084608093F4008091F0008460809326
:1043C000F0008091EF008062DCC1F80184858823D1
:1043D00009F43FC08681880F880F880F95819295D8
:1043E00096959770890F8093F3008581880F880FC9
:1043F000880F9481929596959770890F8093F2001B
:104400008481880F880F880F938192959695977075
:10441000890F8093F1008381880F880F880F809324
:10442000F0008091EF0080618093EF0080E0F80160
:104430009781891718F18385882361F18091F000B5
:1044400084608093F0008091EF00D80117969C91D2
:1044500064C084818295880F807E9381969596951D
:104460009695890F8093F30083818295880F807ED3
:104470008093F2008091EF008F7ED6CFD8011896FE
:10448000ED91FC911997E80FF11D90819093FA003E
:104490008F5FCDCF8091F0008B7FD3CFF8018485E3
:1044A000882309F448C08681880F880F880F95817A
:1044B000929596959770890F8093F3008581880F68
:1044C000880F880F9481929596959770890F8093A5
:1044D000F2008481880F880F880F938192959695BA
:1044E0009770890F8093F1008381880F880F880F60
:1044F0008093F0008091EF0080618093EF0080E076
:10450000F8019781891760F113868091F0008B7F05
:104510008093F0008091EF009781892B8093EF00CA
:104520008091EF008F738093EF008091EF008064A3
:104530008093EF00D4CE84818295880F807E938112
:10454000969596959695890F8093F3008381829531
:10455000880F807E8093F2008091EF008F7ECDCF18
:10456000D8011896ED91FC911997E80FF11D9081F3
:104570009093FA008F5FC4CFD8011C968C911C9742
:10458000882309F446C016968C911697880F880FD9
:10459000880F15969C911597929596959770890F0F
:1045A0008093F30015968C911597880F880F880FCC
:1045B00014969C911497929596959770890F809375
:1045C000F20014968C911497880F880F880F139619
:1045D0009C911397929596959770890F8093F1000F
:1045E00013968C91880F880F880F8093F00080912C
:1045F000EF0080618093EF0081E0D8011B968C93DF
:104600001B978091F00084608093F0008091EF0010
:104610001DCFF80184818295880F807E93819695C5
:1046200096959695890F8093F30083818295880FE4
:10463000807E8093F2008091EF008F7EDBCF198225
:104640001A821B821C821092F7008B81880F880FC0
:10465000880F9A81929596959770890F8093F600AE
:104660008A81880F880F880F998192959695977007
:10467000890F8093F5008981880F880F880F8093B8
:10468000F4008091EF00F8019781892B8093EF006F
:104690008091F4008B7F8093F4008091F4008E7FF2
:1046A000E8C019821A821B821C821092F7008B814B
:1046B000880F880F880F9A81929596959770890F29
:1046C0008093F6008A81880F880F880F99819295D0
:1046D00096959770890F8093F5008981880F880FD0
:1046E000880F8093F4008091EF00D80117969C9179
:1046F0001797892B8093EF001B961C928091F400F2
:1047000084608093F4008091F0008B7F8093F000B0
:10471000C4CF19821A821B821C821092F7008B81EF
:10472000880F880F880F9A81929596959770890FB8
:104730008093F6008A81880F880F880F998192955F
:1047400096959770890F8093F5008981880F880F5F
:10475000880F8093F4008091EF00F8019781892BF6
:104760008093EF0081E083878091F40084608093E0
:10477000F4008091F00084608093F0008091EF005D
:104780008F7D8093EF0089CFD8011C968C911C9768
:10479000882309F479C016968C911697880F880F94
:1047A000880F15969C911597929596959770890FFD
:1047B0008093F30015968C911597880F880F880FBA
:1047C00014969C911497929596959770890F809363
:1047D000F20014968C911497880F880F880F139607
:1047E0009C911397929596959770890F8093F100FD
:1047F00013968C91880F880F880F8093F00080911A
:10480000EF0080618093EF008FEF9FEFDC018983E1
:104810009A83AB83BC838093F7008B81880F880FCA
:10482000880F9A81929596959770890F8093F600DC
:104830008A81880F880F880F998192959695977035
:10484000890F8093F5008981880F880F880F8093E6
:10485000F4008091EF00D80117969C91892B8093EA
:10486000EF008091F4008B7F8093F4008091F4003E
:1048700081608093F4008091EF008F738093EF004C
:104880008091EF00806854CEF80184818295880F72
:10489000807E9381969596959695890F8093F300E7
:1048A00083818295880F807E8093F2008091EF0053
:1048B0008F7EA8CFF8018485882309F464C086819F
:1048C000880F880F880F9581929596959770890F1C
:1048D0008093F3008581880F880F880F94819295CB
:1048E00096959770890F8093F2008481880F880FC6
:1048F000880F9381929596959770890F8093F10018
:104900008381880F880F880F8093F0008091EF00DB
:1049100080618093EF008FEF9FEFDC0189839A83A2
:10492000AB83BC838093F7008B81880F880F880F3F
:104930009A81929596959770890F8093F6008A8157
:10494000880F880F880F9981929596959770890F97
:104950008093F5008981880F880F880F8093F40079
:104960008091EF00F8019781892B8093EF001386E7
:104970008091F40084608093F4008091F0008B7F3C
:104980008093F00073CF84818295880F807E93811D
:10499000969596959695890F8093F30083818295DD
:1049A000880F807E8093F2008091EF008F7EB1CFE0
:1049B000D8011C968C911C97882309F47AC016960E
:1049C0008C911697880F880F880F15969C911597D4
:1049D000929596959770890F8093F30015968C9118
:1049E0001597880F880F880F14969C9114979295AD
:1049F00096959770890F8093F20014968C91149776
:104A0000880F880F880F13969C911397929596950F
:104A10009770890F8093F10013968C91880F880FFF
:104A2000880F8093F0008091EF0080618093EF0009
:104A30008FEF9FEFDC0189839A83AB83BC838093E4
:104A4000F7008B81880F880F880F9A819295969531
:104A50009770890F8093F6008A81880F880F880FDE
:104A60009981929596959770890F8093F500898129
:104A7000880F880F880F8093F4008091EF00D80191
:104A800017969C911797892B8093EF0081E01B96D6
:104A90008C938091F40084608093F4008091F00006
:104AA00084608093F0008091EF008F7D8093EF0011
:104AB000DDCEF80184818295880F807E9381969562
:104AC00096959695890F8093F30083818295880F40
:104AD000807E8093F2008091EF008F7EA7CFD80177
:104AE0001896ED91FC911997E80FF11D9081909324
:104AF000FA008F5F2DCCD8011C968C911C978823CF
:104B000009F47AC016968C911697880F880F880F33
:104B100015969C911597929596959770890F80930D
:104B2000F30015968C911597880F880F880F1496AF
:104B30009C911497929596959770890F8093F200A7
:104B400014968C911497880F880F880F13969C9158
:104B50001397929596959770890F8093F10013960D
:104B60008C91880F880F880F8093F0008091EF0060
:104B700080618093EF0080E0F8019781891708F445
:104B800051C08FEF9FEFDC0189839A83AB83BC8395
:104B90008093F7008B81880F880F880F9A819295F8
:104BA00096959770890F8093F6008A81880F880FF9
:104BB000880F9981929596959770890F8093F5004B
:104BC0008981880F880F880F8093F4008091EF000F
:104BD0009781892B8093EF0081E083878091F40097
:104BE00084608093F4008091F00084608093F000F2
:104BF0008091EF0080625ACFF80184818295880FFE
:104C0000807E9381969596959695890F8093F30073
:104C100083818295880F807E8093F2008091EF00DF
:104C20008F7EA7CFD8011896ED91FC911997E80FC8
:104C3000F11D90819093FA008F5F9ECFD8011A9654
:104C40001C924DCB9FE1F80192874ACB1F93CF93E3
:104C5000DF93EC018A858823D1F08F31C1F08F3F3B
:104C6000B1F088818295807F8093ED000E94CF26ED
:104C7000182F803299F068F4882309F46CC01A87E1
:104C80008091EF008F738093EF001092EE0082E02E
:104C90004CC0803409F440C0803A89F78091EF001D
:104CA0008F708F83888599850E94E2268091F0001D
:104CB00082FB882780F98B878091EF0084FF39C0C1
:104CC00081E08C878091F3008695869586958E830A
:104CD0008091F2009091F300869586958695929545
:104CE000990F907E890F8D838091F1009091F20051
:104CF0008695869586959295990F907E890F8C83DF
:104D00008091F0009091F100869586958695929518
:104D1000990F907E890F8B831A878091EF008F7394
:104D20008093EF001092EE0080E0DF91CF911F9111
:104D300008951C868091F3008295869587708C83F8
:104D40008091F2009091F300829586958770990F7B
:104D5000990F990FDFCF81E0E8CF80E08093ED00DD
:104D6000EEEEF0E01192E83FF105E1F7805F80366A
:104D7000A9F708953091ED0090E080E09093ED0068
:104D80002091EF00207C19F43093ED0008958F5F9F
:104D9000905F863099F73093ED008FEF0895809102
:104DA000EF00807C69F09091EE00892F807E803248
:104DB00041F0803431F0803A21F0892F8F710895CD
:104DC0008FEF0895BC0190E02091EF00492F50E053
:104DD0002F7030E0421753070CF008958091FA00CD
:104DE000460F571FFA0180839F5FEECF81E08093CB
:104DF000D80088E08093E2008CE08093E30087E3B2
:104E00008093E40081E00895681708F4682F862FE6
:104E100008958FEF93E09EBF8DBF40E051E060E0CA
:104E200070E08FEF94E00E941119811108C00E9478
:104E30002E200E942217811102C00E9445198FEF77
:104E400081B992B181E0911180E082B9FACFDB01A2
:104E50008F939F930E94C327BF91AF91A29F800D14
:104E6000911DA39F900DB29F900D11240895991B41
:104E700079E004C0991F961708F0961B881F7A9551
:104E8000C9F78095089587FB082E062687FD819532
:104E900067FD61950E9437270EF4919507FC819577
:104EA0000895AA1BBB1B51E107C0AA1FBB1FA61771
:104EB000B70710F0A61BB70B881F991F5A95A9F7C3
:104EC00080959095BC01CD01089597FB072E16F4AF
:104ED000009407D077FD09D00E94512707FC05D028
:104EE0003EF4909581959F4F0895709561957F4F01
:104EF0000895A1E21A2EAA1BBB1BFD010DC0AA1F1B
:104F0000BB1FEE1FFF1FA217B307E407F50720F032
:104F1000A21BB30BE40BF50B661F771F881F991FAD
:104F20001A9469F760957095809590959B01AC01F6
:104F3000BD01CF010895052E97FB1EF400940E9439
:104F4000B22757FD07D00E94792707FC03D04EF403
:104F50000C94B22750954095309521953F4F4F4F77
:104F60005F4F089590958095709561957F4F8F4F15
:104F70009F4F0895EE0FFF1F0024001C0BBE0790EB
:104F8000F691E02D09940E94CE27A59F900DB49F25
:104F9000900DA49F800D911D11240895A29FB00132
:104FA000B39FC001A39F700D811D1124911DB29F5D
:104FB000700D811D1124911D08955058BB27AA27FB
:104FC0000E94F5270C946F290E94612938F00E94F5
:104FD000682920F039F49F3F19F426F40C945E29D7
:104FE0000EF4E095E7FB0C945829E92F0E948029E4
:104FF00058F3BA17620773078407950720F079F40E
:10500000A6F50C94A2290EF4E0950B2EBA2FA02D34
:105010000B01B90190010C01CA01A0011124FF2765
:10502000591B99F0593F50F4503E68F11A16F04060
:10503000A22F232F342F4427585FF3CF469537955F
:105040002795A795F0405395C9F77EF41F16BA0B24
:10505000620B730B840BBAF09150A1F0FF0FBB1FD2
:10506000661F771F881FC2F70EC0BA0F621F731F1B
:10507000841F48F4879577956795B795F7959E3F78
:1050800008F0B0CF9395880F08F09927EE0F979509
:10509000879508950E94342908F481E008950E94BC
:1050A00063280C946F290E94682958F00E94612996
:1050B00040F029F45F3F29F00C94582951110C94C9
:1050C000A3290C945E290E94802968F39923B1F3E7
:1050D000552391F3951B550BBB27AA27621773071E
:1050E000840738F09F5F5F4F220F331F441FAA1FB2
:1050F000A9F335D00E2E3AF0E0E832D0915050406E
:10510000E695001CCAF72BD0FE2F29D0660F771F1B
:10511000881FBB1F261737074807AB07B0E809F001
:10512000BB0B802DBF01FF2793585F4F3AF09E3F86
:10513000510578F00C9458290C94A3295F3FE4F3AF
:10514000983ED4F3869577956795B795F7959F5FC9
:10515000C9F7880F911D9695879597F90895E1E015
:10516000660F771F881FBB1F621773078407BA0774
:1051700020F0621B730B840BBA0BEE1F88F7E095CF
:1051800008950E94C8286894B1110C94A329089529
:105190000E94882988F09F5798F0B92F9927B75116
:1051A000B0F0E1F0660F771F881F991F1AF0BA95CB
:1051B000C9F714C0B13091F00E94A229B1E008955E
:1051C0000C94A229672F782F8827B85F39F0B93F50
:1051D000CCF3869577956795B395D9F73EF490957E
:1051E0008095709561957F4F8F4F9F4F0895E894FC
:1051F00009C097FB3EF490958095709561957F4F1F
:105200008F4F9F4F9923A9F0F92F96E9BB279395CC
:10521000F695879577956795B795F111F8CFFAF4DC
:10522000BB0F11F460FF1BC06F5F7F4F8F4F9F4F0D
:1052300016C0882311F096E911C0772321F09EE86B
:10524000872F762F05C0662371F096E8862F70E0D1
:1052500060E02AF09A95660F771F881FDAF7880FAB
:105260009695879597F90895990F0008550FAA0B01
:10527000E0E8FEEF16161706E807F907C0F0121669
:105280001306E407F50798F0621B730B840B950B6C
:1052900039F40A2661F0232B242B252B21F40895C1
:1052A0000A2609F4A140A6958FEF811D811D08955E
:1052B00097F99F6780E870E060E008959FEF80ECC9
:1052C000089500240A94161617061806090608956C
:1052D00000240A9412161306140605060895092ED2
:1052E0000394000C11F4882352F0BB0F40F4BF2B41
:1052F00011F460FF04C06F5F7F4F8F4F9F4F089581
:1053000057FD9058440F551F59F05F3F71F0479576
:10531000880F97FB991F61F09F3F79F0879508955B
:10532000121613061406551FF2CF4695F1DF08C07A
:10533000161617061806991FF1CF86957105610597
:1053400008940895E894BB2766277727CB0197F93F
:1053500008950E94342908F48FEF08950E94C1290E
:105360000C946F290E94612938F00E94682920F06E
:10537000952311F00C9458290C945E2911240C9457
:10538000A3290E94802970F3959FC1F3950F50E0E7
:10539000551F629FF001729FBB27F00DB11D639FE7
:1053A000AA27F00DB11DAA1F649F6627B00DA11D8D
:1053B000661F829F2227B00DA11D621F739FB00D33
:1053C000A11D621F839FA00D611D221F749F3327A3
:1053D000A00D611D231F849F600D211D822F762F3C
:1053E0006A2F11249F5750409AF0F1F088234AF019
:1053F000EE0FFF1FBB1F661F771F881F9150504085
:10540000A9F79E3F510580F00C9458290C94A329CC
:105410005F3FE4F3983ED4F3869577956795B7950B
:10542000F795E7959F5FC1F7FE2B880F911D969525
:10543000879597F90895FB01DC0102C001900D9258
:1054400041505040D8F70895BB274A3031F4992392
:1054500022F4BDE2909581959F4F0C94302ABB2792
:10546000FB015527AA27880F991FAA1FA41710F020
:10547000A41B83955051B9F7A05DAA3308F0A95D2C
:10548000A193009779F7B111B1931192CB010C94CC
:10549000A42C0F931F93CF93DF93CDB7DEB72E9736
:1054A0000FB6F894DEBF0FBECDBF0D891E8986E012
:1054B0008C831A8309838FEF9FE79E838D83AE01D0
:1054C000475E5F4F6F89788DCE0101960E94792AE1
:1054D0002F813885020F131FF80110822E960FB608
:1054E000F894DEBF0FBECDBFDF91CF911F910F911A
:1054F00008952F923F924F925F926F927F928F9278
:105500009F92AF92BF92CF92DF92EF92FF920F9352
:105510001F93CF93DF93CDB7DEB72B970FB6F894D9
:10552000DEBF0FBECDBF7C013B018A01FC011782AB
:105530001682838181FFEFC1CE0101965C01F701E4
:105540009381F30193FD859193FF81913F0188231E
:1055500009F42FC1853239F493FD859193FF819130
:105560003F01853229F4B70190E00E94B42CE7CFC7
:10557000912C212C312CFFE1F31538F08B32D9F02E
:1055800090F48032D9F0833249F137FC41C020EDEC
:10559000280F2A3070F536FE24C08AE0989E200D30
:1055A0001124922E0EC08D32A9F0803371F7232D75
:1055B0002160322E06C0832D8260382EE32DE460F8
:1055C0003E2EF30193FD859193FF81913F0181115F
:1055D000D2CF1EC0F32DF8603F2EF3CF232D2061D4
:1055E000E8CFEAE02E9E200D1124222EF32DF0624A
:1055F000F3CF8E3229F436FCDCC0232D2064D9CFC2
:105600008C3621F4832D8068382EDBCF8836C9F2A2
:10561000982F9F7D95549330D8F08336C9F1833706
:10562000E9F1833509F068C0280122E0420E511CDF
:10563000F801C080D18036FE45C0692D70E0C601FA
:105640000E948E2C4C01F32DF0683F2E82010BC07E
:105650000C5F1F4F9FE3998388248394912C6501ED
:10566000F32DFF773F2E33FC05C0822D90E0881686
:10567000990658F1522C8114910471F5552009F4C2
:105680005ECFB70180E290E00E94B42C5A94F6CF2E
:10569000F801808189830E5F1F4FDECF2801F2E081
:1056A0004F0E511CF801C080D18036FE08C0692D14
:1056B00070E0C6010E94992C4C018201D1CF6FEF9E
:1056C0007FEFF7CF6FEF7FEFBACFB70180E290E0C7
:1056D0000E94B42C2A94C9CFF60137FC859137FE7D
:1056E00081916F01B70190E00E94B42C51105A943F
:1056F00021E0821A9108BFCF843611F08936C1F5B6
:10570000F80137FE2CC060817181828193810C5F2A
:105710001F4FF32DFF763F2E97FF09C09095809580
:10572000709561957F4F8F4F9F4FF0683F2E2AE015
:1057300030E0A5010E94E42CC82ECA1836FE77C0BE
:10574000232D2E7F422EC91408F0B0C034FE05C0B0
:1057500032FC03C0832D8E7E482E892C6AC0608166
:105760007181072E000C880B990B0E5F1F4FD1CF54
:105770008537B9F4232D2F7ED22E2AE030E0F801B0
:10578000D7FE4EC060817181828193810C5F1F4F73
:10579000A5010E94E42CC82ECA18FD2DFF773F2ECC
:1057A000CDCF932D997FD92E8F36B9F1F0F488356E
:1057B00061F1F701868197812B960FB6F894DEBFD1
:1057C0000FBECDBFDF91CF911F910F91FF90EF9052
:1057D000DF90CF90BF90AF909F908F907F906F9011
:1057E0005F904F903F902F900895803751F0883709
:1057F00001F7D4FE03C0FD2DF460DF2E20E130E080
:10580000BECFE92FE061DE2EF4CF34FE03C0292F96
:105810002660D22E20E132E0B2CF28E030E0AFCFD8
:105820006081718180E090E00E5F1F4FB1CF8C2CC2
:10583000432C44FE44C0FE01EC0DF11D80818033F9
:10584000B9F5942D997E492EE42DE8705E2E43FC27
:1058500044C040FE3EC0821408F044C02C0C922C80
:10586000981844FE44C0B70180E390E00E94B42C35
:1058700042FE07C041FC38C088E790E0B7010E94B3
:10588000B42CC91408F440C0CA94D12CFFEFCF1A2D
:10589000DF0ACA0CDB1CF60182916F01B70190E0B0
:1058A0000E94B42CAC14BD04B1F7E8CE8C2CC1CF4F
:1058B00042FC02C08394C8CF83948394C5CF842DC7
:1058C000867811F2F7CFB70180E290E00E94B42C05
:1058D00083948214C0F3512CC4CF8214E0F7522C6D
:1058E0005818BFCF9C2CBDCF88E590E0C7CF842D42
:1058F000867839F241FE06C08BE247FC8DE2B701A3
:1059000090E0BDCF80E2F9CFB70180E390E00E9444
:10591000B42C9A94B6CF8FEF9FEF4ECFFC01059039
:10592000615070400110D8F7809590958E0F9F1FA1
:105930000895FC016150704001900110D8F78095E6
:1059400090958E0F9F1F0895DC01FC01672F7191C8
:105950007723E1F7329704C07C916D937083629155
:10596000AE17BF07C8F308950F931F93CF93DF932C
:10597000182F092FEB018B8181FD09C01FEF0FEF5D
:10598000812F902FDF91CF911F910F91089582FF6A
:1059900014C02E813F818C819D81281739073CF4EA
:1059A000E881F981CF0101969983888310838E81E4
:1059B0009F8101969F838E83E3CFE885F985812FB0
:1059C0000995892BA1F3DACFFA01AA27283051F1E2
:1059D000203181F1E8946F936E7F6E5F7F4F8F4F20
:1059E0009F4FAF4FB1E03ED0B4E03CD0670F781F7F
:1059F000891F9A1FA11D680F791F8A1F911DA11D64
:105A00006A0F711D811D911DA11D20D009F468949C
:105A10003F912AE0269F11243019305D3193DEF644
:105A2000CF010895462F4770405D4193B3E00FD0FA
:105A3000C9F7F6CF462F4F70405D4A3318F0495DE5
:105A400031FD4052419302D0A9F7EACFB4E0A695C8
:105A50009795879577956795BA95C9F700976105EA
:105A6000710508959B01AC010A2E06945795479540
:105A700037952795BA95C9F7620F731F841F951F35
:105A8000A01D0895F999FECF92BD81BDF89A99277E
:105A900080B50895A8E1B0E042E050E00C94642D98
:105AA000262FF999FECF92BD81BD20BD0FB6F89487
:105AB000FA9AF99A0FBE019608950E94502D272F49
:105AC0000C94512DDC01CB01FC01F999FECF06C0ED
:105AD000F2BDE1BDF89A319600B40D9241505040AC
