:100000000C944A000C9469000C9469000C946900EB
:100010000C9469000C9469000C9469000C946900BC
:100020000C9469000C9469000C9469000C946900AC
:100030000C948E260C9469000C9469000C94690051
:100040000C9469000C9469000C9469000C9469008C
:100050000C9469000C9469000C9469000C9469007C
:100060000C9469000C9469000C9469000C9469006C
:100070000C9469000C9469000C9469000C9469005C
:100080000C9469000C9469000C9469000C941E2770
:100090000C94690011241FBECFEFD0E1DEBFCDBFAD
:1000A00013E0A0E0B1E0EEE8F7E600E00BBF02C02D
:1000B00007900D92A03FB107D9F72FE0A0EFB3E072
:1000C00001C01D92A936B207E1F70E945C2D0C9485
:1000D000C5330C94BB26CF93DF9300D000D0CDB7AF
:1000E000DEB71B821C8281E789831A8240E050E0E0
:1000F000BA0182E69FE00E94572162E0CE0101969C
:100100000E94DA2662E0CE0103960E94072782E66B
:100110009FE00E94EF218C8180FF0DC010920A0F9A
:1001200083FF0DC01092ED0E0F900F900F900F9067
:10013000DF91CF91089591E090930A0FF1CF81E084
:100140008093ED0EF1CFCF93DF9300D000D000D09D
:10015000CDB7DEB78091010190910201A09103011A
:10016000B091040189839A83AB83BC8340E050E063
:10017000BA0182E69FE00E94572164E0CE01019619
:100180000E94DA2680E98D831E8262E0CE01059608
:100190000E94DA2682E69FE00E94EF2126960FB6A3
:1001A000F894DEBF0FBECDBFDF91CF910895CF93FE
:1001B000DF9300D000D000D0CDB7DEB7809105012D
:1001C00090910601A0910701B091080189839A835B
:1001D000AB83BC8340E050E0BA0182E69FE00E941E
:1001E000572164E0CE0101960E94DA2688E88D83CB
:1001F00081E08E8310922E0E10922D0E62E0CE01C1
:1002000005960E94DA2682E69FE00E94EF2126965C
:100210000FB6F894DEBF0FBECDBFDF91CF9108952A
:10022000CF93DF9300D0CDB7DEB788E8898381E034
:100230008A8340E050E0BA0182E69FE00E945721A5
:1002400062E0CE0101960E94DA2682E69FE00E94DB
:10025000EF210F900F90DF91CF9108951F93CF93CF
:10026000DF9300D000D000D0CDB7DEB70E941001E0
:1002700019E81C831D821E8240E050E0BA0182E62C
:100280009FE00E94572163E0CE0104960E94DA2687
:1002900019831A821B8263E0CE0101960E94072710
:1002A00082E69FE00E94EF218A8190E0982F8827C4
:1002B0002B81820F911D26960FB6F894DEBF0FBEDC
:1002C000CDBFDF91CF911F910895CF93DF9300D0E1
:1002D000CDB7DEB788E8898382E08A8340E050E0CA
:1002E000BA0182E69FE00E94572162E0CE010196AA
:1002F0000E94DA2682E69FE00E94EF210F900F9085
:10030000DF91CF9108951F93CF93DF9300D000D05A
:1003100000D0CDB7DEB70E94650119E81C831D82AD
:100320001E8240E050E0BA0182E69FE00E94572121
:1003300063E0CE0104960E94DA2619831A821B829A
:1003400063E0CE0101960E94072782E69FE00E94AB
:10035000EF218A8190E0982F88272B81820F911DB1
:1003600026960FB6F894DEBF0FBECDBFDF91CF91BA
:100370001F9108951F93CF93DF9300D000D000D03A
:10038000CDB7DEB711E91C831D821E8240E050E02C
:10039000BA0182E69FE00E94572163E0CE010496F5
:1003A0000E94DA2619831A821B8263E0CE0101962D
:1003B0000E94072782E69FE00E94EF218A8190E059
:1003C000982F88272B81820F911D26960FB6F894BF
:1003D000DEBF0FBECDBFDF91CF911F910895CF93A8
:1003E000DF9300D0CDB7DEB780E789838BEF8A83B8
:1003F00040E050E0BA0182E69FE00E94572162E0AF
:10040000CE0101960E94DA2682E69FE00E94EF214B
:100410000F900F90DF91CF910895CF93DF9300D08D
:10042000CDB7DEB780E789838FEF8A8340E050E065
:10043000BA0182E69FE00E94572162E0CE01019658
:100440000E94DA2682E69FE00E94EF210F900F9033
:10045000DF91CF910895FF920F931F93CF93DF9376
:1004600000D000D01F92CDB7DEB7F82E162F042F84
:1004700040E050E0BA0182E69FE00E94572180E40C
:100480008983612F6C60402F50E0440F551F8F2DE2
:10049000807F842B862B8A8328E02B8330E1F39E98
:1004A000C0011124642B682B6C832D8365E0CE0181
:1004B00001960E94DA2682E69FE00E94EF210F90CB
:1004C0000F900F900F900F90DF91CF911F910F9190
:1004D000FF90089540E060E088E20E942B0240E037
:1004E00060E08EE00E942B0240E060E086E00C9429
:1004F0002B020F931F93CF93DF9300D000D0CDB783
:10050000DEB700E40B8318E01C8340E050E0BA0142
:1005100082E69FE00E94572162E0CE0103960E948E
:10052000DA2668E270E080E090E00E940B23098305
:100530008CE28A8362E0CE0101960E94DA261A8359
:1005400062E0CE0101960E94DA2682E69FE00E94D8
:10055000EF210E946A020F900F900F900F90DF9191
:10056000CF911F910F9108950F931F93CF93DF9316
:10057000EC018C01060F111DC017D10729F4DF9182
:10058000CF911F910F91089540E061E089910E9401
:100590002B02F2CFCF93DF9300D0CDB7DEB7880F19
:1005A00089831A8240E050E0BA0182E69FE00E940F
:1005B000572162E0CE0101960E94DA2682E69FE092
:1005C0000E94EF210F900F90DF91CF910895CF936C
:1005D000DF9300D0CDB7DEB7880F898381E08A83AF
:1005E00040E050E0BA0182E69FE00E94572162E0BD
:1005F000CE0101960E94DA2682E69FE00E94EF215A
:100600000F900F90DF91CF910895CF93DF93CDB7E7
:10061000DEB728970FB6F894DEBF0FBECDBF982F78
:10062000990F9E8390E39F831886880F816089834A
:100630001A821B821C821D8240E050E0BA0182E6D1
:100640009FE00E94572163E0CE0106960E94DA26C1
:1006500065E0CE0101960E94DA2665E0CE010196A2
:100660000E9407278C8190E0982F88272D81820F88
:10067000911D9093DA0D8093D90D8A8190E0982F87
:1006800088272B81820F911D90931B0E80931A0E49
:1006900082E69FE00E94EF2160911A0E70911B0E7E
:1006A0008091D90D9091DA0D28960FB6F894DEBF9F
:1006B0000FBECDBFDF91CF9108950F931F93CF93BE
:1006C000DF9300D000D000D0CDB7DEB7982F990FC0
:1006D0009C8390E39D8393E09E83880F8160898350
:1006E0001A821B8240E050E0BA0182E69FE00E943D
:1006F000572163E0CE0104960E94DA2663E0CE0122
:1007000001960E94DA2663E0CE0101960E94072737
:100710000A811B8182E69FE00E94EF21C801269694
:100720000FB6F894DEBF0FBECDBFDF91CF911F9102
:100730000F910895CF931092050F40E050E0BA0159
:1007400082E69FE00E945721C1E080E98C0F823051
:10075000A8F08C2F0E945D03853A954A79F4809128
:10076000050F803158F4E091050FF0E0E35EF14FA2
:10077000C0838091050F8F5F8093050FCF5FC038D6
:1007800021F782E69FE0CF910C94EF21EF92FF9248
:100790000F931F93CF93DF93CDB7DEB728970FB694
:1007A000F894DEBF0FBECDBF982F990F9E8390E3C4
:1007B0009F8392E09887880F816089831A821B82C9
:1007C0001C821D8240E050E0BA0182E69FE00E9458
:1007D000572163E0CE0106960E94DA2665E0CE013D
:1007E00001960E94DA2665E0CE0101960E94072755
:1007F0000C811D81102701271027EA80FB80FE2431
:10080000EF24FE2482E69FE00E94EF21B701C80199
:1008100028960FB6F894DEBF0FBECDBFDF91CF9103
:100820001F910F91FF90EF900895EF92FF920F9319
:100830001F93CF93DF93CDB7DEB728970FB6F89409
:10084000DEBF0FBECDBF982F990F9E8390E39F838D
:1008500091E09887880F816089831A821B821C82AD
:100860001D8240E050E0BA0182E69FE00E945721DD
:1008700063E0CE0106960E94DA2665E0CE0101967D
:100880000E94DA2665E0CE0101960E9407271D81AD
:100890000C81FB80EA8082E69FE00E94EF21B70195
:1008A000C80128960FB6F894DEBF0FBECDBFDF910A
:1008B000CF911F910F91FF90EF9008951F93CF93C9
:1008C000DF9310E0C12F012E000CDD0B8091050F8E
:1008D00090E0C817D90724F0DF91CF911F910895B8
:1008E000FE01E35EF14F80810E941504FE01EE0FD0
:1008F000FF1FEE0FFF1FE856F14F60837183828365
:10090000938361E070E080E090E00E940B231F5F22
:10091000D9CF82E69FE00E9405210E94C52640E0D3
:1009200050E0BA0182E69FE00E9457210E949A039C
:100930000E940D0264E670E080E090E00E940B23CC
:100940000E945E0482E69FE00C94EF2140E060E0AC
:1009500080E80E942B020E946A0264E18AE59EE020
:100960000E94B40264E188ED9EE00E94B40264E15A
:1009700083EE9DE00E94B40264E187E49FE00C9462
:10098000B4022F923F924F925F926F927F928F921A
:100990009F92AF92BF92CF92DF92EF92FF920F930E
:1009A0001F93CF93DF93CDB7DEB7C456D1090FB6EF
:1009B000F894DEBF0FBECDBF84E1E9E0F1E0DE01D7
:1009C000DD9601900D928A95E1F784E1EDE1F1E089
:1009D000DE01999601900D928A95E1F784E1E1E3B9
:1009E000F1E0DE01559601900D928A95E1F784E1E0
:1009F000E5E4F1E0DE01119601900D928A95E1F7B0
:100A000080914A0E90914B0E8230910509F432C2CA
:100A100040F4009709F43DC2019771F060EC73E077
:100A20000DC08430910509F42BC208F426C2069744
:100A3000A9F76DED73E002C065EC73E0FB01019076
:100A40000020E9F73197AF01461B570BCE018D5BB4
:100A50009F4F0E946E308091E20D24E6622F0E942B
:100A60008A2D805D2E968FAF2E978091E20D0E9489
:100A70008A2D892F2AE0622F0E948A2D805D2F9671
:100A80008FAF2F978091E20D0E948A2D905D609626
:100A90009FAF60978091F80E9091F90E64E670E038
:100AA0000E94B82D605D6D966FAF6D978091F80EC6
:100AB0009091F90E2AE030E0B9010E94B82DCB01E7
:100AC000B9010E94B82D805D6E968FAF6E978091B0
:100AD000F80E9091F90EB9010E94B82D805D6F96C5
:100AE0008FAF6F97C0902F0ED090300EE090310EE8
:100AF000F090320E60912F0E7091300E8091310E79
:100B00009091320E0E944C2F20E030E0A9010E940B
:100B10009D2E87FFC1C1C701B6010E944C2F90587E
:100B20000E94142F6B017C011DE2C701B60120EA6F
:100B300036E841E050E00E94EE2D6AE0862E912CCE
:100B4000A12CB12CCA01B901A50194010E94EE2D7E
:100B5000605DA0966FAFA097C701B60120E137E2B4
:100B600040E050E00E94EE2DCA01B901A5019401B8
:100B70000E94EE2D605DA1966FAFA197C701B601EF
:100B800028EE33E040E050E00E94EE2DCA01B901AA
:100B9000A50194010E94EE2D605DA2966FAFA29711
:100BA000C701B60124E630E040E050E00E94EE2D9F
:100BB000CA01B901A50194010E94EE2D605DA396C2
:100BC0006FAFA397C701B601A50194010E94EE2D56
:100BD000062FCA01B901A50194010E94EE2D605DA6
:100BE000A4966FAFA497005DA5960FAFA5978091CF
:100BF000350E811153C180E26C968FAF6C9790E2F5
:100C00006B969FAF6B978EE46A968FAF6A9745E4B9
:100C1000242E50E5352E0FE40E94A5226B017C01A5
:100C200024E630E040E050E00E94CC2D65962CAFE9
:100C30003DAF4EAF5FAF6597C701B60120E737E123
:100C400040E050E00E94CC2D29013A01C701B601D5
:100C500020E43EE745E050E00E94CC2D69962CAFA1
:100C60003DAF4EAF5FAF69978CE3882E912CA12CDE
:100C7000B12C65966CAD7DAD8EAD9FAD6597A50130
:100C800094010E94CC2D65966CAF7DAF8EAF9FAF67
:100C90006597C301B201A50194010E94CC2D2B01DF
:100CA0003C0169966CAD7DAD8EAD9FAD699728E135
:100CB00030E040E050E00E94CC2D69966CAF7DAFF3
:100CC0008EAF9FAF699784E1FE01FD96AAE5BEE075
:100CD00001900D928A95E1F76D968FAD6D978BA778
:100CE0006E969FAD6E979CA78EE28DA76F969FAD77
:100CF0006F979EA71AABA0969FADA0979BABA196AE
:100D00009FADA1979CABA2969FADA2979DAB8EABDA
:100D1000A3969FADA3979FABA4969FADA49798AFC2
:100D2000A5969FADA59799AF94E1FE01B996A8ED60
:100D3000BEE001900D929A95E1F70AA33BA22CA286
:100D40006A969FAD6A979DA36B969FAD6B979EA386
:100D50006C969FAD6C979FA394E1FE017596A3EEF0
:100D6000BDE001900D929A95E1F796E79B8390E3A1
:100D70009C838D8381E38E8386E38F83C701B601D5
:100D800020E038E94FE753E30E94CC2D205D29870E
:100D9000C701B60120E03CE546E255E00E94CC2DBB
:100DA0009AE0892E912CA12CB12CCA01B901A50180
:100DB00094010E94CC2D605D6A87C701B60120E0D6
:100DC00036ED43E850E00E94CC2DCA01B901A501DF
:100DD00094010E94CC2D605D6B871AE31C87699695
:100DE0006CAD7DAD8EAD9FAD6997A50194010E945C
:100DF000CC2D205D2D87605D6E871F87C301B201FA
:100E0000A50194010E94CC2D205D288B605D698B2B
:100E10001A8B65966CAD7DAD8EAD9FAD6597A501C6
:100E200094010E94CC2D205D2B8B605D6C8B84E146
:100E3000FE013196A7E4BFE001900D928A95E1F79B
:100E4000CC59DF4F0FB6F894DEBF0FBECDBFDF9198
:100E5000CF911F910F91FF90EF90DF90CF90BF90B7
:100E6000AF909F908F907F906F905F904F903F904A
:100E70002F9008956AEC73E0E1CD60ED73E0DECD74
:100E80008091940E805D28968FAF289764ED73E073
:100E9000D5CD68ED73E0D2CD10E247CE94E46C96E8
:100EA0009FAF6C9785E46B968FAF6B9793E56A96CF
:100EB0009FAF6A972FE4222E3CE4332E03E4ACCE9E
:100EC000CF93DF93CDB7DEB7C055D1090FB6F894F5
:100ED000DEBF0FBECDBF84E1E9E5F1E0DE01DD96C6
:100EE00001900D928A95E1F784E1EDE6F1E0DE01F3
:100EF000999601900D928A95E1F784E1E1E8F1E09D
:100F0000DE01559601900D928A95E1F784E1E5E9BD
:100F1000F1E0DE01119601900D928A95E1F78DE2E4
:100F200023968FAF23979FE224969FAF24979EE24C
:100F300025969FAF259726968FAF269784E1FE01D1
:100F4000FD96AAE5BEE001900D928A95E1F784E155
:100F5000FE01B996A8EDBEE001900D928A95E1F7E9
:100F600084E1FE017596A3EEBDE001900D928A9595
:100F7000E1F784E1FE013196A7E4BFE001900D9214
:100F80008A95E1F7C05BDF4F0FB6F894DEBF0FBE66
:100F9000CDBFDF91CF9108952F923F924F925F92F4
:100FA0006F927F928F929F92AF92BF92CF92DF9279
:100FB000EF92FF920F931F93CF93DF93CDB7DEB7DE
:100FC00064970FB6F894DEBF0FBECDBF94E1E9EA97
:100FD000F1E0DE01119601900D929A95E1F790E310
:100FE000392E380EE82FF0E0EE0FFF1FDF01A55F6E
:100FF000B04F8D919C911197AD90BC901197CD9071
:10100000DC901197ED90FC90E85CF14F008111812C
:1010100020813181608071804080518044E1FE01F7
:101020003196AAE5BEE001900D924A95E1F7E8ED10
:10103000FEE043E4408331825FE5252E228256E5BF
:1010400053835AE3548368EE862E63E0962EB401F0
:101050000E94A42D605D65838EE28683C501B40184
:101060000E94A42D74E6A72EB12CB5010E94A42DD8
:10107000605D6783C601B4010E94A42DB5010E9482
:10108000A42DAAE0CA2ED12CB6010E94A42D605D29
:101090006087C701B6010E94A42D805D8187B0E200
:1010A000FB2EF286F386F486F586F686F786F08ABE
:1010B000F18AF28AF38AE3EEFDE0408331822282F4
:1010C00084E583835AE35483C801B4010E94A42DAC
:1010D000605D6583C901B4010E94A42DB5010E9421
:1010E000A42D605D6683C301B4010E94A42DB501E7
:1010F0000E94A42DB6010E94A42D605D67838EE23C
:101100008087C201B6010E94A42D805D8187F2868E
:10111000F386F486F586F686F786F08AF18AF28AF7
:10112000F38AE7E4FFE080E580838FE281834283F6
:1011300033828EE38483F582F682F782F086F1862D
:10114000F286F386F486F586F686F786F08AF18ACB
:10115000F28AF38A64960FB6F894DEBF0FBECDBF55
:10116000DF91CF911F910F91FF90EF90DF90CF9083
:10117000BF90AF909F908F907F906F905F904F90B7
:101180003F902F9008952F923F924F925F926F92CF
:101190007F928F929F92AF92BF92CF92DF92EF9207
:1011A000FF920F931F93CF93DF93CDB7DEB7C35456
:1011B000D1090FB6F894DEBF0FBECDBF94E1EDEBC1
:1011C000F1E0DE01999601900D929A95E1F794E194
:1011D000E1EDF1E0DE01559601900D929A95E1F76F
:1011E00094E1E5EEF1E0DE01119601900D929A9501
:1011F000E1F720E3280F2DAF70E0E72E7FE0F72E18
:10120000E7E7AE2EEEE0BE2EF501670190E2D601D3
:101210009D936D019193B5E0CB16BFE0DB06B9F766
:10122000082F10E04801880C991CF401E15DF04F93
:10123000808191814AE060E07FE00E947730F40194
:10124000E45BF14F808191814AE067E77EE00E9494
:10125000773080E2F7019081911101C08083D50140
:101260009C91911101C08C93BFEFEB1AFB0AEFEF39
:10127000AE1ABE0ACE14DF0469F77090000F80909A
:10128000010F9090020FF091030FFEAFC090040F7A
:101290002090770E3090780E4090790E50907A0E14
:1012A00060907B0EF801EE0FFF1FE35EF04F808130
:1012B000918164E670E00E94A42D2AE030E0B9013B
:1012C0000E94A42D605D6FAF80819181B9010E9461
:1012D000A42D805D21968FAF21975801AA0CBB1CCD
:1012E000AA0CBB1CC5018950924F7C01DC016D9199
:1012F0007D918D919C910E94142F605D22966FAF1D
:101300002297F701608171818281938120E030E032
:1013100040E251E40E9401300E94142F862F5AE0CF
:10132000D52E6D2D0E94962D905D23969FAF23970D
:10133000D7016D917D918D919C9120E030E048EC3A
:1013400052E40E9401300E94142F862F6D2D0E94BE
:10135000962D905D24969FAF2497F701608171814F
:101360008281938120E030E04AE754E40E9401301A
:101370000E94142F862F6D2D0E94962D97FDCBC0B5
:10138000F70180819181A281B38160817181828125
:10139000938120E030E04AE754E40E9401300E944B
:1013A000142F862F6D2D0E94962D20E3F22EF90E1C
:1013B000F801E35EF14F80811F928F9381EE93E0FD
:1013C0009F938F9383E19EE09F938F930E949C3025
:1013D0005091130E4091140E3091150EF501E85600
:1013E000F14F20819181828163812EA63FA648AA78
:1013F00059AA6AAAFFADF8AF21967FAD219779AFC0
:1014000074E1FE01B996AAE5BEE001900D927A95CD
:10141000E1F77A8E8B8E9C8EAEADAD8FCE8E2296FE
:10142000BFAD2297BCA37EE27DA32396EFAD2397A9
:10143000EEA32496FFAD2497FFA3F8A674E1FE0166
:101440007596A8EDBEE001900D927A95E1F7205DCA
:101450002E83905D9F83805D8887605D69875A8B4E
:101460004B8B3C8B84E1FE013196A3EEBDE00190F5
:101470000D928A95E1F780E58093470F9FE2909364
:10148000480F83E48093490F2DAD20934A0F90932A
:101490004B0F80934C0F81E480934D0F8CE480932D
:1014A0004E0F8EE380934F0F80E28093500F809316
:1014B000510F8093520F8093530F8093540F80935A
:1014C000550F8093560F8093570F8093580F80933A
:1014D000590F80935A0F0F900F900F900F900F900D
:1014E0000F90CD5BDF4F0FB6F894DEBF0FBECDBFC0
:1014F000DF91CF911F910F91FF90EF90DF90CF90F0
:10150000BF90AF909F908F907F906F905F904F9023
:101510003F902F90089580E2F82E4ACF2F923F926D
:101520004F925F926F927F928F929F92AF92BF92F3
:10153000CF92DF92EF92FF920F931F93CF93DF939F
:10154000CDB7DEB7EC970FB6F894DEBF0FBECDBFB8
:1015500084E1E9EFF1E0DE01999601900D928A9520
:10156000E1F784E1EDE0F2E0DE01559601900D92A5
:101570008A95E1F784E1E1E2F2E0DE011196019063
:101580000D928A95E1F783E580935A0E85E4809366
:101590005B0E84E580935C0E80E280935D0E90E5A7
:1015A00090935E0E91E490935F0E93E49093600E9F
:1015B0009BE49093610E8093620E99E49093630E86
:1015C00094E49093640E8093650E8093660E8093EE
:1015D000670E8093680E8093690E80936A0E8093E5
:1015E0006B0E80936C0E80936D0E94E1FE01B996A4
:1015F000A8EDBEE001900D929A95E1F794E1FE010D
:101600007596A3EEBDE001900D929A95E1F788875B
:101610008987898B8A8B84E1FE013196A7E4BFE03C
:1016200001900D928A95E1F764E670E080E090E029
:101630000E940B2380911C0E8093920E80911C0EB1
:101640001F928F9306EE13E01F930F938EE69EE09A
:101650009F938F930E949C308091920E1F928F9344
:101660001F930F938BE59FE09F938F930E949C3075
:1016700062E370E080E090E00E940B2381E08093C1
:10168000EE0E0FB6F894DEBF0FBECDBF78019BE51E
:10169000C92E9FE0D92E2FE7422E3324339433E511
:1016A000A32E45E4B42E04E510E250E5552E61E486
:1016B000662E73E4772EEBE48E2EF9E49F2E809154
:1016C0002D0F882309F4E8C08091EE0E8F5F809380
:1016D000EE0E8091EE0E8093920E8091920E8038E5
:1016E00031F43092EE0E8091EE0E8093920E809146
:1016F000920E1F928F93FF92EF92DF92CF920E94F1
:101700009C3010922D0F0F900F900F900F900F9014
:101710000F9040916E0E30916F0E20915B0F909163
:101720005C0FA0925A0EB0925B0E00935C0E109369
:101730005D0E50925E0E60925F0E7092600E80920F
:10174000610E1093620E9092630E84E4282E209214
:10175000640E1093650E1093660E1093670E10932F
:10176000680E1093690E10936A0E10936B0E10930F
:101770006C0E10936D0E84E1FE01B996A8EDBEE0EB
:1017800001900D928A95E1F784E1FE017596A3EE32
:10179000BDE001900D928A95E1F748873987298B42
:1017A0009A8B84E1FE013196A7E4BFE001900D928F
:1017B0008A95E1F7189983CF6091920E88E090E0C6
:1017C0000E94A33388E090E00E94953380931C0E22
:1017D00050925A0E60925B0E70925C0E80925D0E7B
:1017E00010935E0E90925F0E2092600E1093610E29
:1017F000A092620EB092630E0093640E81E2809319
:10180000650E1093660E1093670E1093680E10937A
:10181000690E10936A0E10936B0E10936C0E10935A
:101820006D0E84E1FE01B996A8EDBEE001900D9227
:101830008A95E1F784E1FE017596A3EEBDE0019083
:101840000D928A95E1F784E1FE013196A7E4BFE0AD
:1018500001900D928A95E1F764E670E080E090E0F7
:101860000E940B2380E0EC960FB6F894DEBF0FBE0B
:10187000CDBFDF91CF911F910F91FF90EF90DF903F
:10188000CF90BF90AF909F908F907F906F905F9020
:101890004F903F902F9008958091FE0E882309F479
:1018A00038CF8091EE0E81508093EE0E8091EE0E37
:1018B000811102C04092EE0E8091EE0E8093920E46
:1018C0008091920E1F928F93FF92EF92DF92CF92B0
:1018D0000E949C301092FE0E16CF2F923F924F9294
:1018E0005F926F927F928F929F92AF92BF92CF92B0
:1018F000DF92EF92FF920F931F93CF93DF93CDB7B9
:10190000DEB7EC970FB6F894DEBF0FBECDBF84E113
:10191000E9EFF1E0DE01999601900D928A95E1F7E9
:1019200084E1EDE0F2E0DE01559601900D928A959A
:10193000E1F784E1E1E2F2E0DE01119601900D921F
:101940008A95E1F723E520935A0E95E490935B0E78
:1019500084E580935C0E80E280935D0E3EE43093DC
:101960005E0E35E530935F0E3DE43093600E32E459
:101970003093610E9093620E32E53093630E809344
:10198000640E3FE43093650E36E43093660E809328
:10199000670E33E43093680E9093690E9CE4909345
:1019A0006A0E90936B0E20936C0E80936D0E94E1F3
:1019B000FE01B996A8EDBEE001900D929A95E1F76F
:1019C00094E1FE017596A3EEBDE001900D929A950B
:1019D000E1F788878987898B8A8B84E1FE013196BC
:1019E000A7E4BFE001900D928A95E1F764E670E00C
:1019F00080E090E00E940B2380912E0F8093EC0EEC
:101A000080912E0F1F928F9306EE13E01F930F937A
:101A10008EE89EE09F938F930E949C308091EC0E05
:101A20001F928F931F930F9380E99EE09F938F9354
:101A30000E949C3062E370E080E090E00E940B2303
:101A400081E08093EE0E0FB6F894DEBF0FBECDBFDF
:101A5000680160E9A62E6EE0B62E22242A9473E572
:101A6000F72E05E4E4E59E2E10E2FEE45F2EA5E5E8
:101A70006A2EBDE47B2E82E4382E92E5492E8091B9
:101A80002D0F882309F4E0C08091EE0E8F5F8093C4
:101A9000EE0E8091EE0E8093EC0E8091EC0E1F9274
:101AA0008F93DF92CF92BF92AF920E949C301092A0
:101AB0002D0F0F900F900F900F900F900F9040915F
:101AC0008E0E30918F0E2091900E9091910EF0928B
:101AD0005A0E00935B0E90925C0E10935D0E509226
:101AE0005E0E60925F0E7092600E3092610E0093F7
:101AF000620E4092630E1093640E8FE48093650E25
:101B000086E48093660E1093670E83E4882E80929D
:101B1000680E0093690E5CE4E52EE0926A0EE09296
:101B20006B0EF0926C0E10936D0E84E1FE01B9966F
:101B3000A8EDBEE001900D928A95E1F784E1FE01E7
:101B40007596A3EEBDE001900D928A95E1F7488766
:101B50003987298B9A8B84E1FE013196A7E4BFE097
:101B600001900D928A95E1F7189989CF6091EC0E5A
:101B700089E090E00E94A33389E090E00E949533D1
:101B800080932E0F50925A0E60925B0E70925C0EF4
:101B900010935D0E80925E0E00935F0EE092600ED9
:101BA000E092610EF092620E1093630EF092640E5A
:101BB0000093650E9092660E81E28093670E1093FB
:101BC000680E1093690E10936A0E10936B0E1093AB
:101BD0006C0E10936D0E84E1FE01B996A8EDBEE087
:101BE00001900D928A95E1F784E1FE017596A3EECE
:101BF000BDE001900D928A95E1F784E1FE013196F6
:101C0000A7E4BFE001900D928A95E1F764E670E0E9
:101C100080E090E0EC960FB6F894DEBF0FBECDBF2B
:101C2000DF91CF911F910F91FF90EF90DF90CF90B8
:101C3000BF90AF909F908F907F906F905F904F90EC
:101C40003F902F900C940B238091FE0E882309F473
:101C500036CF8091EE0E81508093EE0E8091EE0E85
:101C6000811102C02092EE0E8091EE0E8093EC0E58
:101C70008091EC0E1F928F93DF92CF92BF92AF9222
:101C80000E949C301092FE0E14CFCF93DF93CDB7FD
:101C9000DEB7C055D1090FB6F894DEBF0FBECDBF79
:101CA00084E1E5E3F2E0DE01DD9601900D928A9594
:101CB000E1F784E1E9E4F2E0DE01999601900D920A
:101CC0008A95E1F784E1EDE5F2E0DE0155960190B9
:101CD0000D928A95E1F784E1E1E7F2E0DE011196E9
:101CE00001900D928A95E1F784E1FE01FD96AAE547
:101CF000BEE001900D928A95E1F784E1FE01B9966C
:101D0000A8EDBEE001900D928A95E1F784E1FE0115
:101D10007596A3EEBDE001900D928A95E1F784E1FE
:101D2000FE013196A7E4BFE001900D928A95E1F79C
:101D300064E670E080E090E0C05BDF4F0FB6F8949F
:101D4000DEBF0FBECDBFDF91CF910C940B23CF939D
:101D5000DF93CDB7DEB7C055D1090FB6F894DEBF1B
:101D60000FBECDBF84E1E5E8F2E0DE01DD96019033
:101D70000D928A95E1F784E1E9E9F2E0DE019996B6
:101D800001900D928A95E1F784E1E1E8F1E0DE014E
:101D9000559601900D928A95E1F784E1E1E8F1E032
:101DA000DE01119601900D928A95E1F784E1FE0122
:101DB000FD96AAE5BEE001900D928A95E1F784E1D7
:101DC000FE017596A8EDBEE001900D928A95E1F7AF
:101DD00084E1FE01B996A3EEBDE001900D928A95D3
:101DE000E1F784E1FE013196A7E4BFE001900D9296
:101DF0008A95E1F7C05BDF4F0FB6F894DEBF0FBEE8
:101E0000CDBFDF91CF910895CF93DF93CDB7DEB7EC
:101E1000C055D1090FB6F894DEBF0FBECDBF84E127
:101E2000E5E8F2E0DE01DD9601900D928A95E1F79A
:101E300084E1EDEAF2E0DE01999601900D928A9537
:101E4000E1F784E1E1ECF2E0DE01559601900D92BC
:101E50008A95E1F784E1E1E8F1E0DE011196019075
:101E60000D928A95E1F784E1FE01FD96AAE5BEE0B8
:101E700001900D928A95E1F784E1FE017596A8ED37
:101E8000BEE001900D928A95E1F784E1FE01B996DA
:101E9000A3EEBDE001900D928A95E1F784E1FE0189
:101EA0003196A7E4BFE001900D928A95E1F7C05BFF
:101EB000DF4F0FB6F894DEBF0FBECDBFDF91CF91DD
:101EC0000895CF93DF93CDB7DEB7C055D1090FB6D4
:101ED000F894DEBF0FBECDBF84E1E5E8F2E0DE019D
:101EE000DD9601900D928A95E1F784E1E5EDF2E04F
:101EF000DE01999601900D928A95E1F784E1E9EE71
:101F0000F2E0DE01559601900D928A95E1F784E1A9
:101F1000E1E8F1E0DE01119601900D928A95E1F77A
:101F200084E1FE01FD96AAE5BEE001900D928A953E
:101F3000E1F784E1FE017596A8EDBEE001900D92F7
:101F40008A95E1F784E1FE01B996A3EEBDE0019028
:101F50000D928A95E1F784E1FE013196A7E4BFE096
:101F600001900D928A95E1F7C05BDF4F0FB6F894B0
:101F7000DEBF0FBECDBFDF91CF9108954F925F922C
:101F80006F927F928F929F92AF92BF92CF92DF9289
:101F9000EF92FF921F93CF93DF93CDB7DEB7CC566E
:101FA000D1090FB6F894DEBF0FBECDBF94E1EDEFBF
:101FB000F2E0DE01DD9601900D929A95E1F794E151
:101FC000E9EAF1E0DE01999601900D929A95E1F728
:101FD00094E1E1E1F3E0DE01559601900D929A95CE
:101FE000E1F794E1E1E8F1E0DE01119601900D9254
:101FF0009A95E1F794E1FE01FD96AAE5BEE0019015
:102000000D929A95E1F794E1FE01B996A8EDBEE034
:1020100001900D929A95E1F790E29D8F9E8F9F8F90
:1020200098A399A39AA39BA39CA39DA39EA39FA3BC
:1020300098A724E1FE017596A3EEBDE001900D92F4
:102040002A95E1F799879A879B879C879D879E872A
:102050009F87988B998B9A8B9B8B9C8B94E1FE012D
:102060003196A7E4BFE001900D929A95E1F790E0D8
:10207000FC01EE0FFF1FE35CF04F20813181880FE0
:10208000991F880F991FFC01E954F24F80819181BB
:10209000A281B38165968CAF9DAFAEAFBFAF6597A0
:1020A0002230310509F4DBC150F42115310509F462
:1020B000E3C12130310579F060EC73E00EC02430CB
:1020C000310509F4D2C108F4CDC126303105A1F79C
:1020D0006DED73E002C065EC73E0FB010190002040
:1020E000E9F73197AF01461B570BCE018F960E943F
:1020F0006E3084E6C82ED12CE12CF12C65966CADA7
:102100007DAD8EAD9FAD6597A70196010E94CC2D48
:1021100069962CAF3DAF4EAF5FAF699765966CADDA
:102120007DAD8EAD9FAD659720E737E140E050E093
:102130000E94CC2D29013A0165966CAD7DAD8EAD26
:102140009FAD659720E43EE745E050E00E94CC2D2E
:1021500049015A0169966CAD7DAD8EAD9FAD699711
:102160002CE330E040E050E00E94CC2D69966CAF4B
:102170007DAF8EAF9FAF6997C301B2012CE330E012
:1021800040E050E00E94CC2DA5966CAF7DAF8EAFA5
:102190009FAFA59798E1492E512C612C712CC50158
:1021A000B401A30192010E94CC2DA9966CAF7DAF22
:1021B0008EAF9FAFA9970E94A5224B015C01A7019A
:1021C00096010E94CC2D69017A01C501B40120E776
:1021D00037E140E050E00E94CC2D6D962CAF3DAF32
:1021E0004EAF5FAF6D97C501B40120E43EE745E017
:1021F00050E00E94CC2DA1962CAF3DAF4EAF5FAF0B
:10220000A197C701B6012CE330E040E050E00E9406
:10221000CC2DAD966CAF7DAF8EAF9FAFAD976D9669
:102220006CAD7DAD8EAD9FAD6D972CE330E040E0A1
:1022300050E00E94CC2D6D966CAF7DAF8EAF9FAFFE
:102240006D97A1966CAD7DAD8EAD9FADA197A301AD
:1022500092010E94CC2DA1966CAF7DAF8EAF9FAF47
:10226000A19784E1FE01FD96AAE5BEE001900D92E2
:102270008A95E1F784E1FE01B996A8EDBEE00190F0
:102280000D928A95E1F765966CAD7DAD8EAD9FADF3
:10229000659720E038E94FE753E30E94CC2D205D9D
:1022A0002D8F412C2CE5522E26E2622E25E0722E37
:1022B00065966CAD7DAD8EAD9FAD6597A301920126
:1022C0000E94CC2D6AE0C62ED12CE12CF12CCA0143
:1022D000B901A70196010E94CC2D605D6E8F6596B5
:1022E0006CAD7DAD8EAD9FAD659720E036ED43E8DA
:1022F00050E00E94CC2DCA01B901A70196010E94AD
:10230000CC2D605D6F8F1AE318A3A9966CAD7DADDF
:102310008EAD9FADA997A70196010E94CC2D205D9F
:1023200029A3605D6AA31BA3A5966CAD7DAD8EADA0
:102330009FADA597A70196010E94CC2D205D2CA3EF
:10234000605D6DA31EA369966CAD7DAD8EAD9FAD36
:102350006997A70196010E94CC2D205D2FA3605D97
:1023600068A784E1FE017596A3EEBDE001900D9291
:102370008A95E1F7C501B40120E038E94FE753E35E
:102380000E94CC2D205D2987C501B401A3019201D3
:102390000E94CC2DCA01B901A70196010E94CC2D43
:1023A000605D6A87C501B40120E036ED43E850E086
:1023B0000E94CC2DCA01B901A70196010E94CC2D23
:1023C000605D6B871C87A1966CAD7DAD8EAD9FADBA
:1023D000A197A70196010E94CC2D205D2D87605DFD
:1023E0006E871F876D966CAD7DAD8EAD9FAD6D9781
:1023F000A70196010E94CC2D205D288B605D698B22
:102400001A8BAD966CAD7DAD8EAD9FADAD97A7012E
:1024100096010E94CC2D205D2B8B605D6C8B84E13E
:10242000FE013196A7E4BFE001900D928A95E1F795
:10243000C459DF4F0FB6F894DEBF0FBECDBFDF919A
:10244000CF911F91FF90EF90DF90CF90BF90AF9012
:102450009F908F907F906F905F904F9008956AEC5F
:1024600073E03BCE60ED73E038CE8091940E805DDA
:102470008BAB64ED73E031CE68ED73E02ECE3F920E
:102480004F925F926F927F928F929F92AF92BF9284
:10249000CF92DF92EF92FF920F931F93CF93DF9330
:1024A000CDB7DEB7EC970FB6F894DEBF0FBECDBF49
:1024B00084E1E9EFF1E0DE01999601900D928A95B1
:1024C000E1F784E1EDE0F2E0DE01559601900D9236
:1024D0008A95E1F784E1E5E2F3E0DE0111960190EF
:1024E0000D928A95E1F78091180E9091190E9093B4
:1024F0001A0F8093190F8091180E9091190E9F93C7
:102500008F930BEE13E01F930F9389E89EE09F9348
:102510008F930E949C308091190F90911A0F9F9376
:102520008F931F930F938DE59FE09F938F930E944E
:102530009C3062E370E080E090E00E940B231092F8
:10254000EE0E0FB6F894DEBF0FBECDBF68018DE56D
:10255000A82E8FE0B82E812C95E0992E03E525E476
:10256000F22E34E5632E10E243E4342E51E4752E4E
:102570006EE4462E74E4E72EE2E55E2E80912D0F88
:10258000882309F420C18091EE0E8F5F8093EE0EB8
:102590008091EE0E90E09B5F90931A0F8093190F3D
:1025A0008091190F90911A0F9F938F93DF92CF9282
:1025B000BF92AF920E949C308091190F90911A0F98
:1025C0000F900F900F900F900F900F9081159640E5
:1025D00031F41092EE0E90921A0F8092190F109211
:1025E0002D0F60918A0E50918B0E40918C0E309180
:1025F0005E0F20915F0F9091600F00935A0EF09242
:102600005B0E60925C0E10935D0E30925E0E7092C7
:102610005F0E4092600E1093610E7092620EE09217
:10262000630EE092640E5092650EF092660E009377
:10263000670E0093680E1093690E10936A0E109344
:102640006B0E10936C0E10936D0E84E1FE01B99623
:10265000A8EDBEE001900D928A95E1F784E1FE01BC
:102660007596A3EEBDE001900D928A95E1F768871B
:1026700059874A87398B2A8B9B8B84E1FE013196DF
:10268000A7E4BFE001900D928A95E1F7189976CF03
:102690008091180E9091190E019690931C0F8093C3
:1026A0001B0F8091180E9091190E02969093370E81
:1026B0008093360E6091190F70911A0F82E090E0AE
:1026C0000E94B03360911B0F70911C0F84E090E06A
:1026D0000E94B0336091360E7091370E86E090E024
:1026E0000E94B03382E090E00E949D339093190ED7
:1026F0008093180E30925A0E70925B0E40925C0ED0
:1027000010935D0E70925E0EE0925F0EE092600E8E
:102710005092610EF092620E0093630E0093640E6D
:102720001093650E0093660EF092670E6092680E2D
:1027300081E28093690E10936A0E10936B0E1093D2
:102740006C0E10936D0E84E1FE01B996A8EDBEE00B
:1027500001900D928A95E1F784E1FE017596A3EE52
:10276000BDE001900D928A95E1F784E1FE0131967A
:10277000A7E4BFE001900D928A95E1F764E670E06E
:1027800080E090E00E940B2364E670E080E090E03F
:102790000E940B2380E0EC960FB6F894DEBF0FBECC
:1027A000CDBFDF91CF911F910F91FF90EF90DF9000
:1027B000CF90BF90AF909F908F907F906F905F90E1
:1027C0004F903F9008958091FE0E882309F409CF21
:1027D0008091EE0E8823F9F08091EE0E8150809367
:1027E000EE0E8091EE0E90E09B5F90931A0F809317
:1027F000190F8091190F90911A0F9F938F93DF9269
:10280000CF92BF92AF920E949C300F900F900F908A
:102810000F900F900F901092FE0EE3CE84B1887F40
:1028200084B985B1876085B908950E940E1462E36A
:1028300070E080E090E00E940B23C1E01A9909C08B
:10284000C0932D0F6EE170E080E090E00E940B23BA
:10285000F5CF199903C0C093FE0EF4CF1899EECFAF
:10286000C093B60DEFCFEF92FF920F931F93CF93CC
:10287000DF93CDB7DEB74DB75EB78091050F2DB7AB
:102880003EB7281B31090FB6F8943EBF0FBE2DBFCF
:102890002F5F3F4F80914A0E90914B0E019709F0A8
:1028A00092C08091710E882309F48DC01092710E30
:1028B00080E09091050F891760F0A0E08091050FEE
:1028C0006A2F70E090E0019768177907BCF5B0E0D7
:1028D00029C0F901E80FF11D80838F5FEACFB901AC
:1028E000680F791FFB01E080EE2DF0E0EE0FFF1F77
:1028F000E55FF04F008111810196820F931FFC016B
:10290000F080EF2DF0E0EE0FFF1FE55FF04F01903C
:10291000F081E02DE017F10720F4FC01E082FB01DB
:10292000F082BF5F8B2F90E06091050F70E06150E7
:102930007109861797079CF2AF5FC0CF8091050F92
:10294000815097E0811111C0A1E06091050F8617B9
:1029500048F10FB6F8945EBF0FBE4DBFDF91CF9127
:102960001F910F91FF90EF900895D901A80FB11D0D
:10297000EC91F0E0EE0FFF1FE55FF04F6081718199
:102980001197EC91F0E0EE0FFF1FE55FF04F019023
:10299000F081E02D6E1B7F0B6931710508F0982FD7
:1029A0008150D0CF682F70E0620F731FFB016081F0
:1029B000E62FF0E0E552F24F891718F0A0838F5F01
:1029C000C4CF1082FCCF80914A0E90914B0E01979C
:1029D00009F4BFCF80E09091050F891708F0B9CFB7
:1029E000E82FF0E0E552F24F10828F5FF4CFCF93E3
:1029F000DF9300D000D000D0CDB7DEB70E948904AD
:102A00000E94A3000E94D7000E94790281E0809377
:102A1000170E1092710E34E6432E512C612C712C3E
:102A2000222423940E94A522A30192010E94CC2D6E
:102A3000633371058105910508F4EDC08091170E8F
:102A4000882331F01092170E2092710E0E94A60476
:102A500065E070E080E090E00E940B23312C8091D3
:102A6000050F381608F4DAC00E948301BC01990FE3
:102A7000880B990B0E944C2F2AE037ED43EA5AE36A
:102A80000E94013021EC3AEC41E85FE30E94013002
:102A90002AE939E949E95EE30E94302E20E030E07E
:102AA00040E251E40E9401300E941B2F7093F90E06
:102AB0006093F80E0E946B000E942E01092E000CFC
:102AC000AA0BBB0BB095A095909581959F4FAF4FEA
:102AD000BF4F8093460E9093470EA093480EB0933D
:102AE000490E8091460E9091470EA091480EB091EC
:102AF000490E803E9E42A105B105CCF48091460E60
:102B00009091470EA091480EB091490E8132914D9F
:102B1000AF4FBF4F64F08091460E9091470EA09149
:102B2000480EB091490E90932C0F80932B0F8091FB
:102B30004A0E90914B0E069709F0FAC08091350E1F
:102B4000882309F4F5C00E94EF010E94BA01092E02
:102B5000000CAA0BBB0B8093460E9093470EA093DC
:102B6000480EB093490E40E050E0BA0182E79EE083
:102B70000E9457218091460E9091470EA091480ED9
:102B8000B091490E9C01AD0166277727CB01621BEE
:102B9000730B840B950B0E944C2F2FE632E143E020
:102BA00059E30E94013023ED3EEF46ED52E40E94CE
:102BB000013024EA30E74DE25FE30E94312E20E04D
:102BC00030E04AE754E40E9401300E94142F6093E1
:102BD0002F0E7093300E8093310E9093320E82E759
:102BE0009EE00E94EF210E94331410E08091050FB7
:102BF000181708F017CFE12FF0E0DF01A552B24F10
:102C00008C91E35EF14F813009F0E8C080810E9431
:102C1000E7021F5FEBCF2092170E1ACF032D10E0B3
:102C2000F801E35EF14F80810E9405036B017C0196
:102C30009801220F331F3E832D83F901E15DF04F90
:102C4000408151815A834983F901E45BF14F8081CE
:102C500091819C838B8396E09E9DB0019F9D700D1A
:102C6000112480E090E00E944A2F4B015C01A98171
:102C7000BA81BD0180E090E00E944A2F20E030E060
:102C800040E85AE30E9401309B01AC01C501B40148
:102C90000E9401304B015C01EB81FC81BF0180E0AF
:102CA00090E00E944A2F9B01AC01C501B4010E9433
:102CB000312E0E941B2FED81FE81E55FF04F718365
:102CC0006083000F111F000F111FF801E950F24F30
:102CD00080809180A280B380ED81FE81E35EF04F21
:102CE00000811181FAEFCF1AF0E8DF0ACC0CDD1C6D
:102CF000B60180E090E00E944A2FA50194010E9455
:102D000001306B017C01B80180E090E00E944A2F05
:102D10009B01AC01C701B6010E94312E0E941B2FFE
:102D2000ED81FE81E85CF14F71836083339497CE2F
:102D30000E940D020E94BA01092E000CAA0BBB0BC7
:102D40008093460E9093470EA093480EB093490E81
:102D50008091460E9091470EA091480EB091490E79
:102D60008C3B9240A105B1050CF03DCF8091460E01
:102D70009091470EA091480EB091490E85349D4F19
:102D8000AF4FBF4F0CF42FCF40E050E0BA0182E7C5
:102D90009EE00E94572160912B0F70912C0F072EFF
:102DA000000C880B990B0E944C2F2CEA35EC47E263
:102DB00056E30E9401302FE632E143E85AE30E94D5
:102DC000A22E2DE73EEA46E75FE30E94013029E8A4
:102DD00039E241E15CE30E94302EF1CE80810E9415
:102DE000CA0217CF1092680F1092670F8091670F79
:102DF0009091680F079758F187E08093830E8FEECC
:102E00009EE09093850E8093840E81E090E09093F5
:102E10007E0E80937D0E1092880E88E090E00E94D6
:102E2000953380931C0E80911C0E882321F0809195
:102E30001C0E8F3F59F461E088E090E00E94A333BC
:102E400088E090E00E94953380931C0E0895E091F5
:102E5000670FF091680FE151F14F10828091670F79
:102E60009091680F01969093680F8093670FBECF83
:102E70000E94F21680E00E94912718E080911C0EBB
:102E800090E0982F882797709093800E80937F0E04
:102E90001093830E80914A0E90914B0E8093EF0E0B
:102EA0008091F80E9091F90E9093F00E8091F80EAB
:102EB0009091F90E8093F10E80912F0E9091300E2B
:102EC000A091310EB091320E8B2FBB2787FDB095AC
:102ED0009B2FAB2F8093F20E80912F0E9091300E8E
:102EE000A091310EB091320ECD01BB2797FDB09568
:102EF000AB2F8093F30E80912F0E9091300EA09106
:102F0000310EB091320E892F9A2FAB2FBB27A7FD20
:102F1000BA958093F40E80912F0E9091300EA0916F
:102F2000310EB091320E8093F50E8091E20D8093B8
:102F3000F60E8CE79EE00E949E278111FACF8CE767
:102F40009EE00E94792C8130D1F38091FA0E90910D
:102F5000FB0EA091FC0EB091FD0E8B2FBB2787FDC1
:102F6000B0959B2FAB2F8093EF0E8091FA0E90912E
:102F7000FB0EA091FC0EB091FD0ECD01BB2797FD7D
:102F8000B095AB2F8093F00E8091FA0E9091FB0ECE
:102F9000A091FC0EB091FD0E892F9A2FAB2FBB276D
:102FA000A7FDBA958093F10E8091FA0E9091FB0ED9
:102FB000A091FC0EB091FD0E8093F20E84E001E032
:102FC000C4E0D1E090912E0F9017B8F401E09091F9
:102FD0002E0F9017B8F12C2F280F2AC0EC2FF0E0FD
:102FE000A02FB0E0A552B24F9C91E151F14F9083D8
:102FF000CF5F0F5F815009F454C090912E0F90174E
:1030000068F7E0CF4C2F50E0E02FF0E0EE0FFF1F0D
:10301000E55FF04F60817181DA01A151B14F7C937E
:1030200060817181FA01E051F14F60830F5F82503E
:10303000C22FC81B823008F452C090912E0F9017F7
:1030400008F7C5CF01E090912E0F901718F14C2F83
:10305000480F16C02C2F30E0E02FF0E0EE0FFF1FDE
:10306000E85CF14F60817181D901A151B14F7C932E
:1030700060817181F901E051F14F60830F5F8250EF
:10308000C42FC81B823008F448C090912E0F9017AF
:1030900008F7D9CF64E670E080E090E00E940B234F
:1030A000EDCE80911C0E90E0982F88278D0F911DFA
:1030B00097709093800E80937F0EC093830E8CE761
:1030C0009EE00E949E27C82F8111F9CF8CE79EE0D9
:1030D0000E94792C8130D1F3DF5F88E073CF80913B
:1030E0001C0E90E0982F88278D0F911D977090935C
:1030F000800E80937F0EC093830E8CE79EE00E942B
:103100009E27C82F8111F9CF8CE79EE00E94792C71
:103110008130D1F3DF5F88E05ACF80911C0E90E0C0
:10312000982F88278D0F911D97709093800E809314
:103130007F0EC093830E8CE79EE00E949E27C82FCF
:103140008111F9CF8CE79EE00E94792C8130D1F378
:10315000DF5F88E078CF0C94C1040E94C10464E66C
:1031600070E080E090E00E940B23D0E0C0E0D1301E
:10317000A9F138F0D230B1F1D330C1F10E94C104CD
:1031800009C0C23029F1BCF4CC23C1F3C130B1F77E
:103190000E94A70E189939C0D11167C0C13081F1C2
:1031A0004CF5CC2309F463C062E370E080E090E06A
:1031B0000E940B23DCCFC33071F0CF30F9F60E94B0
:1031C0008E0A182F0E946D0C1111E4CFC0E0E2CFDF
:1031D0000E94040FDFCF0E94610FDCCF8C2F0E9472
:1031E000CC07D8CF8C2F0E94C308D4CF8C2F0E943D
:1031F000BE0FD0CFC23039F0C330B1F6D3E001C03A
:10320000D1E0C0E0D1CFD2E0FCCF8091FE0E882388
:1032100009F1CF5FC43011F4DD23D1F08091050FA7
:1032200090E02C2F0C2E000C330B2817390751F48B
:103230008FEF8D0F823030F4C091050FC150109286
:10324000FE0EB2CFC530D9F7D330C9F7C4E0F7CFFF
:10325000C3E0F5CF80912D0F882309F4A5CFC1508D
:1032600008F4C0E010922D0F9FCFD0E0CACFCFE07E
:103270009BCF089A109863E070E080E090E00E9495
:103280000B23109A63E070E080E090E00E940B2333
:10329000F1CF10920A0F1092F70E80E09091050F77
:1032A000891720F082E79EE00C940521E82FF0E0DA
:1032B000E552F24F10828F5FF1CF81E090E00E94E3
:1032C00095338093E20D8091E20D882321F0809167
:1032D000E20D8F3F59F462E381E090E00E94A33356
:1032E00081E090E00E9495338093E20D8091E20DA1
:1032F00008959091F70E8091E20D981751F080910A
:10330000E20D8093F70E6091E20D81E090E00C9465
:10331000A3330895CF93DF9300D000D0CDB7DEB7AD
:103320000E944919412C512C320114E63CE9832EAC
:1033300099249A94A92CB92C80914A0E90914B0E05
:10334000892BD1F380914A0E90914B0E019721F475
:1033500082B1806382B908C080914A0E90914B0E71
:10336000039709F0B7C0149A80E09091050F891770
:1033700008F4B3C080E09091050F891708F4C8C025
:103380000E94A5226B017C01DC01CB018419950907
:10339000A609B7092C013D0140E050E0BA0182E7DF
:1033A0009EE00E94572160912F0E7091300E809107
:1033B000310E9091320E2091FA0E3091FB0E409119
:1033C000FC0E5091FD0E29833A834B835C83A3014D
:1033D00092010E947A2DA50194010E94EE2D89810F
:1033E0009A81AB81BC81280F391F4A1F5B1F57FD93
:1033F0002CC060912F0E7091300E8091310E909103
:10340000320E2091FA0E3091FB0E4091FC0E50913D
:10341000FD0E29833A834B835C83A30192010E94B2
:103420007A2DA50194010E94EE2D89819A81AB81AC
:10343000BC81280F391F4A1F5B1F2093FA0E30935F
:10344000FB0E4093FC0E5093FD0E82E79EE00E941F
:10345000EF216091FA0E7091FB0E8091FC0E90911D
:10346000FD0E0E944C2F20E036ED43E05AE40E940E
:10347000FC2F181664F56091FA0E7091FB0E809186
:10348000FC0E9091FD0E0E944C2F28E03FEE4BE485
:103490005DE40E949D2E87FF1AC06091FA0E709124
:1034A000FB0E8091FC0E9091FD0E0E944C2F20E6A9
:1034B0003EEF4DE45DE40E94A22E20E030E048ECB7
:1034C00052E40E9401300E941B2F6093E20D2601FE
:1034D000370132CF82B18F7C3DCFE82FF0E0EE0F85
:1034E000FF1FE55FF04F2081318125373E4070F0AE
:1034F00020E036EE4FED5CE02093FA0E3093FB0EA9
:103500004093FC0E5093FD0E1093E20D8F5F2DCF74
:10351000E82FF0E0EE0FFF1FE55FF04F20813181D3
:103520002C383A4050F41092FA0E1092FB0E109282
:10353000FC0E1092FD0E1092E20D8F5F1CCF139ABD
:1035400081B1896381B91092350E08950E949F1A46
:1035500091E080B182FB882780F989278093350E1E
:1035600020914A0E30914B0E2630310521F41398EC
:103570008091350EEECF139AECCF8EE390E09093CE
:103580001E0F80931D0F86E490E09093200F809390
:103590001F0F8BE290E09093220F8093210F89E31D
:1035A00090E09093240F8093230F80E290E090931B
:1035B000260F8093250F81E390E09093280F80934E
:1035C000270F8EE190E090932A0F8093290F87E7D1
:1035D0009EEBAFE3BFE38093F70D9093F80DA093BC
:1035E000F90DB093FA0D8AEA91EFA2E3BFE380935D
:1035F000FB0D9093FC0DA093FD0DB093FE0D8FE895
:1036000092ECA5E5BFE38093FF0D9093000EA0938D
:10361000010EB093020E84E69BE3AFE3BFE3809319
:10362000030E9093040EA093050EB093060E8FE345
:1036300095E3AEE5BFE38093070E9093080EA09349
:10364000090EB0930A0E8CE497E3A9E4BFE38093DC
:103650000B0E90930C0EA0930D0EB0930E0E8FE2F6
:103660009DEDA4E6BFE380930F0E9093100EA09300
:10367000110EB093120E89E090E00E949533809372
:103680002E0F80912E0F882321F080912E0F8F3FD7
:1036900059F467E089E090E00E94A33389E090E06C
:1036A0000E94953380932E0F1092930E1092940ED9
:1036B0001092970E1092960E1092950EC0E0D0E0E8
:1036C0008091050F90E0C817D9070CF4AEC0109296
:1036D0004B0E10924A0EC0E0D0E0FE01EE0FFF1F2D
:1036E000E35CF04F118210820E94A522FE01EE0FD2
:1036F000FF1FEE0FFF1FE954F24F60837183828337
:1037000093832196C530D10541F70E945D198093BE
:10371000E20D6091E20D70E080E090E00E944A2F9F
:1037200020E030E048EC52E40E94A22E20E63EEF7A
:103730004DE45DE40E9401300E941B2F6093FA0E5D
:103740007093FB0E8093FC0E9093FD0E0E947919EE
:1037500004E010E0C6E0EC2EF12CCC24C394D12C74
:1037600083E0482E512C95E0A92EB12C22E0822E28
:10377000912CC1E0B2E07B2ED3E00E94791940E0A9
:103780008091050F481708F465C08091F80E90915C
:10379000F90E81349145A4F010934B0E00934A0E1C
:1037A0007092700EC093930E7092940E8091F80EEA
:1037B0009091F90E9093970E8093960E1092950E1D
:1037C00090912E0F8091050F981799F010934B0E42
:1037D00000934A0ED093700EC093930ED093940E24
:1037E00080912E0F90E09093970E8093960E1092FA
:1037F000950E80914A0E90914B0E049709F401C1E9
:1038000080914A0E90914B0E8230910509F4F4C0DC
:1038100008F05AC0009709F46AC0019709F4DDC0A6
:1038200010934B0E00934A0E87C0FE01E35EF14FEA
:1038300080810E94C6039E01220F331FF901E15DC2
:10384000F04F71836083F901E45BF14F91838083D2
:10385000219636CF842F90E0880F991FFC01E85CF9
:10386000F14F208131812935324090F010934B0E79
:1038700000934A0E1092700EC093930E1092940E05
:10388000208131813093970E2093960E4093950EB0
:10389000FC01E55FF04F80819181813A9F4090F07B
:1038A00010934B0E00934A0EC093700EC093930E6C
:1038B000C093940E808191819093970E8093960E81
:1038C0004093950E4F5F5CCF8530910509F47FC022
:1038D00086309105B9F0039709F0A2CF8091ED0EE3
:1038E000882359F08091E20D811126C00FC068EC49
:1038F00070E080E090E00E940B23F0924B0EE0928B
:103900004A0E1AC08091E20D811105C0B0924B0E93
:10391000A0924A0E11C080910A0F882329F0D092FC
:103920004B0EC0924A0E08C08091ED0E882321F004
:1039300050924B0E40924A0E20913D0F30913E0F17
:1039400080914A0E90914B0E2817390709F415CF34
:1039500084E090E09C0121503109F901EE0FFF1F36
:10396000E35CF04F40815181FC01EE0FFF1FE35CEF
:10397000F04F51834083F901EE0FFF1FEE0FFF1F41
:10398000E954F24F4081518162817381880F991F00
:10399000880F991FFC01E954F24F408351836283E1
:1039A0007383C9010097B1F680914A0E90914B0E36
:1039B00090933E0F80933D0F0E94A5226093B70D18
:1039C0007093B80D8093B90D9093BA0DD2CE8091BB
:1039D0000A0F882309F4B0CFA2CF80910A0F882361
:1039E00009F48BCF8091E20D843608F4A5CF909234
:1039F0004B0E80924A0EA0CF80910A0F81119CCF6E
:103A00007CCF1092930E26E030E060E08091050FAD
:103A1000681758F18091F80E9091F90E8134914514
:103A200034F07092700EC093930E24E030E09091C9
:103A30002E0F8091050F981799F010934B0E00935D
:103A40004A0ED093700EC093930ED093940E809133
:103A50002E0F90E09093970E8093960E1092950EF5
:103A600030934B0E20934A0E67CF862F90E0880F3D
:103A7000991FFC01E85CF14F40815181493552406A
:103A800030F01092700EC093930E24E030E0855F0A
:103A9000904FFC0180819181813A9F4030F0C0932A
:103AA000700EC093930E24E030E06F5FAFCF87B10C
:103AB000836087B908950E94571D80914A0E9091A6
:103AC0004B0E049781F4419A409A69E170E080E0DE
:103AD00090E00E940B23409869E170E080E090E064
:103AE0000E940B23EACF4198EFCFAF92BF92CF92C3
:103AF000DF92EF92FF920F931F93CF93DF93C9E36F
:103B0000D3E0AB84BC84CD84DE84E984FA840D8167
:103B10001E812F8138854B815C816A8188819981E2
:103B20000E94151F811105C02F9693E0C03CD90754
:103B300041F7DF91CF911F910F91FF90EF90DF90B0
:103B4000CF90BF90AF9008952F923F924F925F9287
:103B50006F927F928F929F92AF92BF92CF92DF929D
:103B6000EF92FF920F931F93CF93DF930DB71EB782
:103B7000C82FD92F08831983C62FD72F0881198101
:103B80000DBF1EBFDF91CF911F910F91FF90EF905E
:103B9000DF90CF90BF90AF909F908F907F906F906D
:103BA0005F904F903F902F900895C82FD92F088194
:103BB00019810DBF1EBFDF91CF911F910F91FF9013
:103BC000EF90DF90CF90BF90AF909F908F907F90BD
:103BD0006F905F904F903F902F901895FFCF8091FE
:103BE000940D9091950D01969093950D8093940D61
:103BF00008958091940D9091950D892B29F48091D1
:103C0000A70D9091A80D089580E090E00895CF93BE
:103C1000DF93FB01009759F1309749F1DC01CD9119
:103C2000DC91DE019E01109731F112965C911297A2
:103C300042814517B0F4CA17DB0739F5DC01ED9373
:103C4000FC9312861186D487C387FA87E98780E0C0
:103C50000FC03287218714861386E901FC87EB8722
:103C6000F6CF9D011B960D90BC91A02DDCCF89EC69
:103C7000DF91CF910895CD2B61F7DC01ED93FC939B
:103C80001286118614861386E2CF32872187B48785
:103C9000A387E901FC87EB871A96FC93EE931997AB
:103CA000D6CFCF93DF930097C1F0DC01ED91FC916B
:103CB000309779F0A385B485EC01B983A883109778
:103CC00021F01A961C921E9219971286118614865C
:103CD0001386CF01DF91CF910895E0E0F0E0F9CFB6
:103CE000CF93DF93AC01FB010097A9F1DC012D918B
:103CF0003C912115310579F1D901E901EA17FB075A
:103D000009F5A385B4852E173F0789F4EA01B98325
:103D1000A883109721F01A961C921E921997148668
:103D2000138612861186CF01DF91CF910895BC874B
:103D3000AB87A385B485109791F31A96DC93CE9345
:103D40001997EDCF1B968D919C911C97ED010097D3
:103D500059F3DC01D3CF80E090E0E6CFCF93DF933F
:103D60000097C9F0DC01ED91FC91309781F0228140
:103D7000621788F0A385B485EC01B983A8831097F6
:103D800031F01A961C921E92199714861386CF0151
:103D9000DF91CF910895E0E0F0E0F9CFFF920F932B
:103DA0001F93CF93DF939091910D9923D1F0FFB69C
:103DB000F894C091A70DD091A80D9D859130B9F4CC
:103DC00082E99DE00E94511EC817D90741F09093E7
:103DD000A80D8093A70DBC01CE010E94A41D1D86D5
:103DE000FFBEDF91CF911F910F91FF9008956A81DF
:103DF0008130A9F482E99DE00E94AE1E8C01892BDE
:103E000079F3BE0182E99DE00E94071EC017D10729
:103E100031F31093A80D0093A70DB801DDCF6623F1
:103E2000F9F270E061507109E5CFAF92BF92CF9285
:103E3000DF92EF92FF920F931F93CF93DF93EC01EA
:103E4000009709F43FC041155105E1F1E114F10477
:103E5000C9F1AB28AC28AD28A9F11D866A831A8662
:103E600019861C861B86188A1F865C834B830D83EC
:103E70001E832F833887B7010E9451261FB7F894FD
:103E8000BE0182E99DE00E94071EC82F1FBF882344
:103E900069F0CCEC8C2FDF91CF911F910F91FF90A7
:103EA000EF90DF90CF90BF90AF9008958091910DEB
:103EB000813081F70E94F91D892B61F380E00E9417
:103EC000CE1EE8CFC9ECE6CFAF92BF92CF92DF9281
:103ED000EF92FF920F931F931092A80D1092A70DCF
:103EE0001092930D1092920D1092910D5A016B0148
:103EF0007C0100E010E098014EEE5DE16FEF86E995
:103F00009DE00E94151F1F910F91FF90EF90DF9091
:103F1000CF90BF90AF9008952091940D3091950D62
:103F2000215031093093950D2093940D0C94CE1EA1
:103F300081E08093910D6FEF82E99DE00E94AE1EBB
:103F4000009731F09093A80D8093A70D0C94D51D88
:103F500008951F93CF93DF93EC01892BA1F01FB736
:103F6000F8946881798182E0FB018687108A178640
:103F70008A819B810E94701E6881798182E99DE01F
:103F80000E94071E1FBFDF91CF911F9108950097D8
:103F900031F0FC0162831182108280E0089589EC87
:103FA0000895DF92EF92FF920F931F93CF93DF93C9
:103FB0007C01892BD1F100E08AECD82E1FB7F89450
:103FC000C7010E94511EEC01009761F1DE86BC0121
:103FD00082E99DE00E94071E8823A1F01FBFCCEC60
:103FE000013039F40E94F91D892B19F080E00E94FC
:103FF000CE1E8C2FDF91CF911F910F91FF90EF90EC
:10400000DF9008958F859889009749F00E947B2260
:10401000882319F01FBFCDECE3CF188A1F861FBF7E
:1040200001E0CCCF1FBFC0E0DBCFC9ECE2CF8F9265
:104030009F92AF92BF92DF92EF92FF920F931F93E6
:10404000CF93DF93CDB7DEB72E970FB6F894DEBFD0
:104050000FBECDBF7C014A015B01009709F468C027
:10406000DFB6F894FC01828181115CC077FD57C0F6
:104070000E94F91D8C01009709F44EC0BC01C701D4
:104080000E94071E8823A1F0DFBE8CEC2E960FB68F
:10409000F894DEBF0FBECDBFDF91CF911F910F917E
:1040A000FF90EF90DF90BF90AF909F908F9008951A
:1040B00091E0F801958781149104A104B10441F1C4
:1040C0001C870B87FE86ED8689EA9FE19A838983A8
:1040D000CE010B969C838B838D829E82AF82B886A5
:1040E0000A97908B87870E945622882349F0B8014F
:1040F000C7010E94701EF8011586108A17868DEC84
:10410000DFBE8111C3CF0E94CE1EF8018685BECFCF
:10411000F801108A1786F4CFDFBE88ECB7CFDFBE78
:1041200083E0B4CF8150F7018283DFBE80E0AECF61
:1041300089ECACCF0F931F93CF93DF930097E9F1F6
:10414000DFB7F894FC0120813181232B59F10E94C3
:10415000511E8C01BC0182E99DE00E94071EC82F00
:10416000882341F0DFBFCCEC8C2FDF91CF911F91E2
:104170000F910895F801168687859089009761F45C
:10418000F801108A1786DFBF0E94F91D892B61F3A1
:1041900080E00E94CE1EE8CF0E947B22882381F31C
:1041A000CDECF1CFFC0122812F3F29F02F5F22833C
:1041B000C0E0DFBFD9CFCBECFCCFC9ECD5CF0097A7
:1041C00021F0FC01628380E0089589EC08951F933B
:1041D000CF93DF93EC01892BA1F01FB7F89468818E
:1041E000798182E0FB018687108A17868A819B810C
:1041F0000E94701E6881798182E99DE00E94071EFD
:104200001FBFDF91CF911F910895FC01892B39F0D9
:104210001382128214821182108280E0089589EC48
:104220000895DF92EF92FF920F931F93CF93DF9346
:104230007C01892BD1F100E08AECD82E1FB7F894CD
:10424000C7010E94511EEC01009761F1DE86BC019E
:1042500082E99DE00E94071E8823A1F01FBFCCECDD
:10426000013039F40E94F91D892B19F080E00E9479
:10427000CE1E8C2FDF91CF911F910F91FF90EF9069
:10428000DF9008958F859889009749F00E947B22DE
:10429000882319F01FBFCDECE3CF188A1F861FBFFC
:1042A00001E0CCCF1FBFC0E0DBCFC9ECE2CF8F92E3
:1042B0009F92AF92BF92DF92EF92FF920F931F9364
:1042C000CF93DF93CDB7DEB72E970FB6F894DEBF4E
:1042D0000FBECDBF7C014A015B01892B09F47DC073
:1042E0000E94F91D8C01DFB6F8940097A1F4DFBE9F
:1042F00088EC2E960FB6F894DEBF0FBECDBFDF91CF
:10430000CF911F910F91FF90EF90DF90BF90AF90F2
:104310009F908F900895F7012281338121153105F7
:1043200009F44CC08217930709F448C0B7FC43C096
:10433000BC01C7010E94071E882319F0DFBE8CEC68
:10434000D8CF91E0F801958781149104A104B104BC
:1043500071F11C870B87FE86ED8687EE90E29A83CB
:104360008983CE010B969C838B838D829E82AF8244
:10437000B8860A97908B87870E945622882349F037
:10438000B801C7010E94701EF8011586108A1786B1
:104390008DECDFBE8111ADCF0E94CE1EF801868567
:1043A0008111A7CFF70194819F5F9483A2CFF80179
:1043B000108A1786EECFDFBE83E09BCFF7018481A2
:1043C0008F3F41F08F5F8483232B11F4138302838B
:1043D00080E001C08BECDFBE8CCF89EC8ACFEF92FE
:1043E000FF920F931F93CF93DF938C01892B09F4D6
:1043F0004CC00E94F91DDFB7F894F8012281338187
:104400008217930751F0DFBFCFEC8C2FDF91CF9154
:104410001F910F91FF90EF900895F801C481C15052
:10442000C483C1112FC01382128280819181892B94
:1044300039F1C8010E94511E7C01BC0182E99DE056
:104440000E94071EC82F882319F0DFBFCCECDDCFF8
:10445000F7011686F801F382E282F70187859089D9
:10446000009741F4F701108A1786DFBF80E00E94B1
:10447000CE1ECBCF0E947B228823A1F3CDECF5CFBB
:10448000DFBFC3CFDFBFC0E0C0CFC9ECBECFCF938B
:10449000009751F0CFB7F894FC016081718182E9F7
:1044A0009DE00E94071ECFBFCF910895FC01892B8C
:1044B00001F180819181892BE1F084819581A68130
:1044C000B781892B8A2B8B2BA1F02FB7F894809181
:1044D000AD0D9091AE0D009749F411861086F093C2
:1044E000AE0DE093AD0D2FBF80E0089591878087DA
:1044F000F6CF89EC0895BC01892B29F15FB7F894B8
:104500002091AD0D3091AE0DF901D901309711F424
:104510008EEC0DC040859185E617F70781F4E21710
:10452000F30739F44093AD0D9093AE0D80E05FBF7B
:10453000089518964C93189719969C93F7CFDF011E
:10454000E42FF92FE3CF89EC08956091A90D7091C4
:10455000AA0D8091AB0D9091AC0D08956093A90DBB
:104560007093AA0D8093AB0D9093AC0D08950F93AB
:104570001F93CF93DF938091910D8823D1F0809189
:10458000A90D9091AA0DA091AB0DB091AC0D019623
:10459000A11DB11D8093A90D9093AA0DA093AB0D01
:1045A000B093AC0D0091AD0D1091AE0DE8012097C8
:1045B00029F4DF91CF911F910F9108958C819D81F6
:1045C000AE81BF810197A109B1098C839D83AE8320
:1045D000BF83892B8A2B8B2BE1F42091AD0D309179
:1045E000AE0D88859985C217D30779F49093AE0DE7
:1045F0008093AD0DE881F981309719F08A819B8114
:1046000009950884D985C02DD2CFF801918780877C
:10461000F1CF8E01F6CFCF92DF92EF92FF920F9300
:104620001F93CF93DF93CDB7DEB72C970FB6F894D7
:10463000DEBF0FBECDBF6B017C010E94F91DFC01E6
:10464000C114D104E104F10491F1892B91F10FB768
:10465000F89481E08587FC87EB8787E492E29A8370
:104660008983CE010B969C838B83CD82DE82EF8281
:10467000F8860A97908B87870E945622182F0FBFC3
:10468000882389F01DEC812F2C960FB6F894DEBF9D
:104690000FBECDBFDF91CF911F910F91FF90EF9093
:1046A000DF90CF90089580E00E94CE1EECCF19ECF1
:1046B000EACF18ECE8CF1F93CF93DF93EC01892B5F
:1046C000A1F01FB7F8946881798182E0FB018687A9
:1046D000108A17868C819D810E94701E6881798165
:1046E00082E99DE00E94071E1FBFDF91CF911F91BD
:1046F0000895CF92DF92EF92FF920F931F93CF9383
:10470000DF93EC01CB016C817D812A893B89620FAB
:10471000731F4E815F810E946E302E813F814885DC
:104720005985CA88DB88EC88FD88C20ED31EE41E3A
:10473000F51ECA8ADB8AEC8AFD8A8E899F89A88D3C
:10474000B98D0197A109B1098E8B9F8BA88FB98F65
:104750006A857B858C859D850E947A2DC616D70635
:10476000E806F90620F01A8A1B8A1C8A1D8ACE01E7
:104770000E94511E8C01009709F1BC0182E99DE065
:104780000E94071EC82F81111BC0F801168687855D
:104790009089009769F4F801108A17868C2FDF91B1
:1047A000CF911F910F91FF90EF90DF90CF900895E0
:1047B0000E947B22882379F3CDECF0CFC0E0EECFCE
:1047C000CCECECCFCF92DF92EF92FF920F931F933E
:1047D000CF93DF93EC012C813D818E859F854E81A7
:1047E0005F81820F931F0E946E302E813F8148852A
:1047F0005985CE84DF84E888F988C20ED31EE41E72
:10480000F51ECE86DF86E88AF98A8E899F89A88D73
:10481000B98D0196A11DB11D8E8B9F8BA88FB98F6D
:104820006A857B858C859D850E947A2DC616D70664
:10483000E806F90620F01E861F86188A198ACE011E
:1048400002960E94511E8C01009709F1BC0182E979
:104850009DE00E94071EC82F81111BC0F80116861B
:1048600087859089009769F4F801108A17868C2F44
:10487000DF91CF911F910F91FF90EF90DF90CF903C
:1048800008950E947B22882379F3CDECF0CFC0E01D
:10489000EECFCCECECCFEF92FF920F931F93FC0185
:1048A000892B69F16115710551F12115310541051A
:1048B000510529F1E114F1040105110501F1758398
:1048C00064832683378340875187E286F386048793
:1048D0001587118210821382128216861786108A1B
:1048E000118A128A138A148A158A168A178A108ED8
:1048F000118E80E01F910F91FF90EF90089589EC49
:10490000F9CFBF92CF92DF92EF92FF920F931F9356
:10491000CF93DF937C01009709F446C000E06C015F
:1049200082E0C80ED11C8AECB82E1FB7F894C601DD
:104930000E94511EEC01892B31F4C7010E94511EC7
:10494000EC01892B71F1BE86BE0182E99DE00E94D7
:10495000071E8823B1F01FBFCCEC013039F40E9450
:10496000F91D892B19F080E00E94CE1E8C2FDF915B
:10497000CF911F910F91FF90EF90DF90CF90BF905C
:1049800008958F859889009749F00E947B2288239B
:1049900019F01FBFCDECE1CF188A1F861FBF01E0C1
:1049A000C4CF1FBFC0E0D9CFC9ECE0CF4F925F9218
:1049B0006F927F928F929F92AF92BF92CF92DF922F
:1049C000EF92FF920F931F93CF93DF93CDB7DEB794
:1049D00060970FB6F894DEBF0FBECDBF6C012A0101
:1049E0003B015901009709F494C02115310509F4E0
:1049F00090C00FB7F894FC0186899789A08DB18D7E
:104A0000892B8A2B8B2B09F076C077FD71C00E9411
:104A1000F91D7C01009709F468C04601F2E08F0E91
:104A2000911CBC01C4010E94071E182F81115AC09D
:104A300081E0F7018587411451046104710409F490
:104A40004DC0FC86EB86DE86CD86988A8F868BE508
:104A500093E29A838983CE010B969C838B834D824C
:104A60005E826F8278860A97908B87870E94562293
:104A7000182F882349F0B701C4010E94701EF70166
:104A80001586108A17861DEC0FBF11110FC080E02C
:104A90000E94CE1EF7011685111108C00FB7F894B9
:104AA000B501C6010E947923182F0FBF812F609690
:104AB0000FB6F894DEBF0FBECDBFDF91CF911F912F
:104AC0000F91FF90EF90DF90CF90BF90AF909F90AD
:104AD0008F907F906F905F904F900895F701108AAC
:104AE0001786D2CF0FBF1CECE1CF0FBF18ECDECF83
:104AF0000FBF13E0DBCFB901C6010E947923182F45
:104B00000FBF0E94F91D892B89F280E00E94CE1E02
:104B1000CDCF19ECCBCF4F925F926F927F92AF9235
:104B2000BF92CF92DF92EF92FF920F931F93CF939A
:104B3000DF93CDB7DEB760970FB6F894DEBF0FBE38
:104B4000CDBF6C012A013B015901009709F493C0C4
:104B50002115310509F48FC00FB7F894FC0146897F
:104B60005789608D718D82859385A485B585481799
:104B700059076A077B0709F070C077FC6BC00E9479
:104B8000F91D7C01009709F462C0BC01C6010E94B6
:104B9000071E182F811158C081E0F7018587411445
:104BA00051046104710409F44BC0FC86EB86DE8677
:104BB000CD86D88ACF868BE593E29A838983CE010E
:104BC0000B969C838B834D825E826F8278860A97D8
:104BD000908B87870E945622182F882349F0B701AF
:104BE000C6010E94701EF7011586108A17861DECFB
:104BF0000FBF11110FC080E00E94CE1EF701168575
:104C0000111108C00FB7F894B501C6010E94E22344
:104C1000182F0FBF812F60960FB6F894DEBF0FBE1E
:104C2000CDBFDF91CF911F910F91FF90EF90DF905B
:104C3000CF90BF90AF907F906F905F904F9008950E
:104C4000F701108A1786D4CF0FBF1CECE3CF0FBF3C
:104C500018ECE0CF0FBF13E0DDCFB901C6010E9411
:104C6000E223182F0FBF0E94F91D892B99F280E0D3
:104C70000E94CE1ECFCF19ECCDCF0E94F91D7894A3
:104C8000009771F0DC011396ED91FC911497309729
:104C900039F015966D917D918D919C91189709949D
:104CA00008952DE336E2FB0120833197308331975D
:104CB000108231971082319710823197108231978C
:104CC000108231971082319710823197108231977C
:104CD000108231971082319710823197108231976C
:104CE000108231971082319710823197108231975C
:104CF00010823197108264517109FC0171836083C5
:104D0000089586E891E0909389008093880082E07E
:104D100080936F008CE08093810008951F920F9222
:104D20000FB60F9211240BB60F922F933F934F9310
:104D30005F936F937F938F939F93AF93BF93EF9303
:104D4000FF930E94EF1D0E94B72281E00E948C1FFA
:104D5000FF91EF91BF91AF919F918F917F916F9153
:104D60005F914F913F912F910F900BBE0F900FBE0F
:104D70000F901F9018951F920F920FB60F9211244B
:104D80000F900FBE0F901F9018958AE28093B80085
:104D90008FEF8093BB0084E08093BC0008958091E6
:104DA000BC00817008958091BC0080FDFCCF809193
:104DB000000108952091BC0020FDFCCF6093B10D4F
:104DC000FC0120812093B20D20FF09C01092AF0D8D
:104DD00088EF8093000185EA8093BC000895FC0170
:104DE0003196A3EBBDE081E0861780F791919D930A
:104DF0008F5FFACF8091BC0080FDFCCF1092AF0D89
:104E000088EF8093000185EA8093BC00089520918B
:104E1000BC0020FDFCCF2091AF0D20FD04C080918F
:104E2000AF0D81700895A2EBBDE0282FFC018E2FFD
:104E3000821B8617A0F78D918193F9CF1F920F9255
:104E40000FB60F9211240BB60F922F933F938F93AF
:104E50009F93EF93FF938091B900883249F0D0F48B
:104E6000803121F0883121F08830D1F41092B00DDA
:104E7000E091B00D8091B10DE81720F581E08E0F23
:104E80008093B00DF0E0EE54F24F80818093BB0030
:104E900085E836C0803449F148F4883309F43FC0CE
:104EA0008091B9008093000184E02AC0803589F0A8
:104EB0008835B1F78091BB00E091B00DF0E0EE5481
:104EC000F24F80838091AF0D81608093AF0D84E9B4
:104ED00017C0E091B00D81E08E0F8093B00D8091EE
:104EE000BB00F0E0EE54F24F80832091B00D30E033
:104EF0008091B10D90E00197281739074CF685ECA9
:104F00008093BC00FF91EF919F918F913F912F91E2
:104F10000F900BBE0F900FBE0F901F90189585EA53
:104F2000EFCF0E94492D882341F00E94002D8091EF
:104F3000D80082608093D80081E008950F931F937A
:104F4000CF93DF9300D000D0CDB7DEB78C01DC016A
:104F500011968D919C9112970C97F1F41A968C9161
:104F60001A97803669F48C918295807F8093ED004A
:104F70008091EF008F738093EF001092EE001C92EF
:104F8000F801128680E00F900F900F900F90DF9144
:104F9000CF911F910F9108950E940D2D8F3F09F41D
:104FA000A4C490E6D8011A969C931A978C93829584
:104FB000807F8093ED00EEEEF0E01192E83FF10586
:104FC000E1F7D8011196ED91FC9112973197EB30F2
:104FD000F10508F086C4E151F84D0C940D2E3828E7
:104FE000A1280F297229A429DC29172AAD2A2B2BE5
:104FF000FA27CE2B80E0F8019781891708F4C2C305
:1050000019821A821B821C821092F7008B81880FF2
:10501000880F880F9A81929596959770890F809343
:10502000F6008A81880F880F880F9981929596954E
:105030009770890F8093F5008981880F880F880FFA
:105040008093F4008091EF009781892B8093EF008B
:1050500081E083878091F40084608093F4008091E4
:10506000F00084608093F0008091EF008062DCC1EA
:10507000F8018485882309F43FC08681880F880F52
:10508000880F9581929596959770890F8093F3007C
:105090008581880F880F880F9481929596959770D7
:1050A000890F8093F2008481880F880F880F938185
:1050B000929596959770890F8093F1008381880F60
:1050C000880F880F8093F0008091EF0080618093BB
:1050D000EF0080E0F8019781891718F18385882314
:1050E00061F18091F00084608093F0008091EF0086
:1050F000D80117969C9164C084818295880F807E28
:105100009381969596959695890F8093F300838168
:105110008295880F807E8093F2008091EF008F7ED1
:10512000D6CFD8011896ED91FC911997E80FF11D93
:1051300090819093FA008F5FCDCF8091F0008B7FAC
:10514000D3CFF8018485882309F448C08681880F6D
:10515000880F880F9581929596959770890F809307
:10516000F3008581880F880F880F9481929596951A
:105170009770890F8093F2008481880F880F880FC1
:105180009381929596959770890F8093F100838112
:10519000880F880F880F8093F0008091EF00806166
:1051A0008093EF0080E0F8019781891760F1138602
:1051B0008091F0008B7F8093F0008091EF009781C9
:1051C000892B8093EF008091EF008F738093EF0025
:1051D0008091EF0080648093EF00D4CE848182952B
:1051E000880F807E9381969596959695890F8093EA
:1051F000F30083818295880F807E8093F2008091F6
:10520000EF008F7ECDCFD8011896ED91FC911997C4
:10521000E80FF11D90819093FA008F5FC4CFD80101
:105220001C968C911C97882309F446C016968C9185
:105230001697880F880F880F15969C911597929551
:1052400096959770890F8093F30015968C9115971A
:10525000880F880F880F14969C91149792959695B5
:105260009770890F8093F20014968C911497880F91
:10527000880F880F13969C91139792959695977027
:10528000890F8093F10013968C91880F880F880FF7
:105290008093F0008091EF0080618093EF0081E0C7
:1052A000D8011B968C931B978091F00084608093AB
:1052B000F0008091EF001DCFF80184818295880F66
:1052C000807E9381969596959695890F8093F300AD
:1052D00083818295880F807E8093F2008091EF0019
:1052E0008F7EDBCF19821A821B821C821092F700FC
:1052F0008B81880F880F880F9A8192959695977069
:10530000890F8093F6008A81880F880F880F998112
:10531000929596959770890F8093F5008981880FF3
:10532000880F880F8093F4008091EF00F801978137
:10533000892B8093EF008091F4008B7F8093F400A1
:105340008091F4008E7FE8C019821A821B821C8231
:105350001092F7008B81880F880F880F9A819295A1
:1053600096959770890F8093F6008A81880F880F31
:10537000880F9981929596959770890F8093F50083
:105380008981880F880F880F8093F4008091EF0047
:10539000D80117969C911797892B8093EF001B9645
:1053A0001C928091F40084608093F4008091F0005E
:1053B0008B7F8093F000C4CF19821A821B821C82DB
:1053C0001092F7008B81880F880F880F9A81929531
:1053D00096959770890F8093F6008A81880F880FC1
:1053E000880F9981929596959770890F8093F50013
:1053F0008981880F880F880F8093F4008091EF00D7
:10540000F8019781892B8093EF0081E08387809159
:10541000F40084608093F4008091F00084608093B5
:10542000F0008091EF008F7D8093EF0089CFD8014D
:105430001C968C911C97882309F479C016968C9140
:105440001697880F880F880F15969C91159792953F
:1054500096959770890F8093F30015968C91159708
:10546000880F880F880F14969C91149792959695A3
:105470009770890F8093F20014968C911497880F7F
:10548000880F880F13969C91139792959695977015
:10549000890F8093F10013968C91880F880F880FE5
:1054A0008093F0008091EF0080618093EF008FEF98
:1054B0009FEFDC0189839A83AB83BC838093F700E1
:1054C0008B81880F880F880F9A8192959695977097
:1054D000890F8093F6008A81880F880F880F998141
:1054E000929596959770890F8093F5008981880F22
:1054F000880F880F8093F4008091EF00D8011796F1
:105500009C91892B8093EF008091F4008B7F809396
:10551000F4008091F40081608093F4008091EF00AA
:105520008F738093EF008091EF00806854CEF80174
:1055300084818295880F807E938196959695969525
:10554000890F8093F30083818295880F807E8093FA
:10555000F2008091EF008F7EA8CFF8018485882328
:1055600009F464C08681880F880F880F9581929511
:1055700096959770890F8093F3008581880F880F27
:10558000880F9481929596959770890F8093F20079
:105590008481880F880F880F9381929596959770D4
:1055A000890F8093F1008381880F880F880F809383
:1055B000F0008091EF0080618093EF008FEF9FEF0C
:1055C000DC0189839A83AB83BC838093F7008B8152
:1055D000880F880F880F9A81929596959770890FFA
:1055E0008093F6008A81880F880F880F99819295A1
:1055F00096959770890F8093F5008981880F880FA1
:10560000880F8093F4008091EF00F8019781892B37
:105610008093EF0013868091F40084608093F400FF
:105620008091F0008B7F8093F00073CF848182950E
:10563000880F807E9381969596959695890F809395
:10564000F30083818295880F807E8093F2008091A1
:10565000EF008F7EB1CFD8011C968C911C978823C8
:1056600009F47AC016968C911697880F880F880FC8
:1056700015969C911597929596959770890F8093A2
:10568000F30015968C911597880F880F880F149644
:105690009C911497929596959770890F8093F2003C
:1056A00014968C911497880F880F880F13969C91ED
:1056B0001397929596959770890F8093F1001396A2
:1056C0008C91880F880F880F8093F0008091EF00F5
:1056D00080618093EF008FEF9FEFDC0189839A83D5
:1056E000AB83BC838093F7008B81880F880F880F72
:1056F0009A81929596959770890F8093F6008A818A
:10570000880F880F880F9981929596959770890FC9
:105710008093F5008981880F880F880F8093F400AB
:105720008091EF00D80117969C911797892B809351
:10573000EF0081E01B968C938091F400846080934D
:10574000F4008091F00084608093F0008091EF007D
:105750008F7D8093EF00DDCEF80184818295880FE4
:10576000807E9381969596959695890F8093F30008
:1057700083818295880F807E8093F2008091EF0074
:105780008F7EA7CFD8011896ED91FC911997E80F5D
:10579000F11D90819093FA008F5F2DCCD8011C965B
:1057A0008C911C97882309F47AC016968C911697D1
:1057B000880F880F880F15969C911597929596954E
:1057C0009770890F8093F30015968C911597880F29
:1057D000880F880F14969C911497929596959770C0
:1057E000890F8093F20014968C911497880F880F7C
:1057F000880F13969C911397929596959770890FA1
:105800008093F10013968C91880F880F880F8093F6
:10581000F0008091EF0080618093EF0080E0F8015C
:105820009781891708F451C08FEF9FEFDC018983BE
:105830009A83AB83BC838093F7008B81880F880F9A
:10584000880F9A81929596959770890F8093F600AC
:105850008A81880F880F880F998192959695977005
:10586000890F8093F5008981880F880F880F8093B6
:10587000F4008091EF009781892B8093EF0081E005
:1058800083878091F40084608093F4008091F0001D
:1058900084608093F0008091EF0080625ACFF8011D
:1058A00084818295880F807E9381969596959695B2
:1058B000890F8093F30083818295880F807E809387
:1058C000F2008091EF008F7EA7CFD8011896ED915E
:1058D000FC911997E80FF11D90819093FA008F5F6A
:1058E0009ECFD8011A961C924DCB9FE1F80192876A
:1058F0004ACB1F93CF93DF93EC018A858823D1F0A5
:105900008F31C1F08F3FB1F088818295807F809385
:10591000ED000E94222D182F803299F068F4882320
:1059200009F46CC01A878091EF008F738093EF00A9
:105930001092EE0082E04CC0803409F440C0803AFE
:1059400089F78091EF008F708F83888599850E94F9
:10595000352D8091F00082FB882780F98B8780911C
:10596000EF0084FF39C081E08C878091F300869539
:10597000869586958E838091F2009091F3008695AE
:10598000869586959295990F907E890F8D8380914B
:10599000F1009091F2008695869586959295990FE3
:1059A000907E890F8C838091F0009091F100869514
:1059B000869586959295990F907E890F8B831A878D
:1059C0008091EF008F738093EF001092EE0080E0E3
:1059D000DF91CF911F9108951C868091F3008295ED
:1059E000869587708C838091F2009091F300829568
:1059F00086958770990F990F990FDFCF81E0E8CFD7
:105A000080E08093ED00EEEEF0E01192E83FF105CA
:105A1000E1F7805F8036A9F708953091ED0090E0BE
:105A200080E09093ED002091EF00207C19F43093FA
:105A3000ED0008958F5F905F863099F73093ED0009
:105A40008FEF08958091EF00807C69F09091EE00D7
:105A5000892F807E803241F0803431F0803A21F00D
:105A6000892F8F7108958FEF0895BC0190E02091E8
:105A7000EF00492F50E02F7030E0421753070CF031
:105A800008958091FA00460F571FFA0180839F5FA7
:105A9000EECF81E08093D80088E08093E2008CE034
:105AA0008093E30087E38093E40081E00895681722
:105AB00008F4682F862F08958FEE94E09EBF8DBF67
:105AC00040E051E060E070E08FEE95E00E94641FDE
:105AD000811108C00E9481260E94751D811102C09B
