:100000000C944A000C9469000C9469000C946900EB
:100010000C9469000C9469000C9469000C946900BC
:100020000C9469000C9469000C9469000C946900AC
:100030000C9467240C9469000C9469000C9469007A
:100040000C9469000C9469000C9469000C9469008C
:100050000C9469000C9469000C9469000C9469007C
:100060000C9469000C9469000C9469000C9469006C
:100070000C9469000C9469000C9469000C9469005C
:100080000C9469000C9469000C9469000C94F7249A
:100090000C94690011241FBECFEFD0E1DEBFCDBFAD
:1000A00012E0A0E0B1E0EAE0F3E600E00BBF02C03E
:1000B00007900D92A43AB107D9F72EE0A4EAB2E076
:1000C00001C01D92AE36B207E1F70E94352B0C94A9
:1000D00083310C949424CF93DF9300D000D0CDB71C
:1000E000DEB71B821C8281E789831A8240E050E0E0
:1000F000BA0187E69EE00E94301F62E0CE010196C1
:100100000E94B32462E0CE0103960E94E02487E6B9
:100110009EE00E94C81F8C8180FF0DC010920F0EC0
:1001200083FF0DC01092B60D0F900F900F900F909F
:10013000DF91CF91089591E090930F0EF1CF81E080
:100140008093B60DF1CFCF93DF9300D000D000D0D5
:10015000CDB7DEB78091010190910201A09103011A
:10016000B091040189839A83AB83BC8340E050E063
:10017000BA0187E69EE00E94301F64E0CE0101963E
:100180000E94B32480E98D831E8262E0CE01059631
:100190000E94B32487E69EE00E94C81F26960FB6F1
:1001A000F894DEBF0FBECDBFDF91CF910895CF93FE
:1001B000DF9300D000D000D0CDB7DEB7809105012D
:1001C00090910601A0910701B091080189839A835B
:1001D000AB83BC8340E050E0BA0187E69EE00E941A
:1001E000301F64E0CE0101960E94B32488E88D831D
:1001F00081E08E831092E20C1092E10C62E0CE015D
:1002000005960E94B32487E69EE00E94C81F2696AA
:100210000FB6F894DEBF0FBECDBFDF91CF9108952A
:10022000CF93DF9300D0CDB7DEB788E8898381E034
:100230008A8340E050E0BA0187E69EE00E94301FCA
:1002400062E0CE0101960E94B32487E69EE00E9400
:10025000C81F0F900F90DF91CF9108951F93CF93F8
:10026000DF9300D000D000D0CDB7DEB70E941001E0
:1002700019E81C831D821E8240E050E0BA0187E627
:100280009EE00E94301F63E0CE0104960E94B324DA
:1002900019831A821B8263E0CE0101960E94E0243A
:1002A00087E69EE00E94C81F8A8190E0982F8827E9
:1002B0002B81820F911D26960FB6F894DEBF0FBEDC
:1002C000CDBFDF91CF911F910895CF93DF9300D0E1
:1002D000CDB7DEB788E8898382E08A8340E050E0CA
:1002E000BA0187E69EE00E94301F62E0CE010196CF
:1002F0000E94B32487E69EE00E94C81F0F900F90D3
:10030000DF91CF9108951F93CF93DF9300D000D05A
:1003100000D0CDB7DEB70E94650119E81C831D82AD
:100320001E8240E050E0BA0187E69EE00E94301F46
:1003300063E0CE0104960E94B32419831A821B82C3
:1003400063E0CE0101960E94E02487E69EE00E94D1
:10035000C81F8A8190E0982F88272B81820F911DDA
:1003600026960FB6F894DEBF0FBECDBFDF91CF91BA
:100370001F9108951F93CF93DF9300D000D000D03A
:10038000CDB7DEB711E91C831D821E8240E050E02C
:10039000BA0187E69EE00E94301F63E0CE0104961A
:1003A0000E94B32419831A821B8263E0CE01019656
:1003B0000E94E02487E69EE00E94C81F8A8190E0A8
:1003C000982F88272B81820F911D26960FB6F894BF
:1003D000DEBF0FBECDBFDF91CF911F910895CF93A8
:1003E000DF9300D0CDB7DEB780E789838BEF8A83B8
:1003F00040E050E0BA0187E69EE00E94301F62E0D4
:10040000CE0101960E94B32487E69EE00E94C81F99
:100410000F900F90DF91CF910895CF93DF9300D08D
:10042000CDB7DEB780E789838FEF8A8340E050E065
:10043000BA0187E69EE00E94301F62E0CE0101967D
:100440000E94B32487E69EE00E94C81F0F900F9081
:10045000DF91CF910895FF920F931F93CF93DF9376
:1004600000D000D01F92CDB7DEB7F82E162F042F84
:1004700040E050E0BA0187E69EE00E94301F80E431
:100480008983612F6C60402F50E0440F551F8F2DE2
:10049000807F842B862B8A8328E02B8330E1F39E98
:1004A000C0011124642B682B6C832D8365E0CE0181
:1004B00001960E94B32487E69EE00E94C81F0F9019
:1004C0000F900F900F900F90DF91CF911F910F9190
:1004D000FF90089540E060E088E20E942B0240E037
:1004E00060E08EE00E942B0240E060E086E00C9429
:1004F0002B020F931F93CF93DF9300D000D0CDB783
:10050000DEB700E40B8318E01C8340E050E0BA0142
:1005100087E69EE00E94301F62E0CE0103960E94B3
:10052000B32468E270E080E090E00E94E420098358
:100530008CE28A8362E0CE0101960E94B3241A8382
:1005400062E0CE0101960E94B32487E69EE00E94FD
:10055000C81F0E946A020F900F900F900F90DF91BA
:10056000CF911F910F910895CF93DF9300D0CDB716
:10057000DEB78091250D882369F040E060E088E0D7
:100580000E942B0280E489831A8262E0CE010196E8
:100590000E94B3241092250D0F900F90DF91CF9100
:1005A00008950F931F93CF93DF93EC018C01060FF7
:1005B000111DC017D10729F4DF91CF911F910F9121
:1005C000089540E061E089910E942B02F2CFCF9321
:1005D000DF9300D0CDB7DEB7880F89831A8240E061
:1005E00050E0BA0187E69EE00E94301F62E0CE0133
:1005F00001960E94B32487E69EE00E94C81F0F90D8
:100600000F90DF91CF910895CF93DF9300D0CDB7B6
:10061000DEB7880F898381E08A8340E050E0BA0129
:1006200087E69EE00E94301F62E0CE0101960E94A4
:10063000B32487E69EE00E94C81F0F900F90DF91C1
:10064000CF9108950F931F93CF93DF9300D000D0E5
:1006500000D0CDB7DEB7982F990F9C8390E39D8390
:1006600093E09E83880F816089831A821B8240E019
:1006700050E0BA0187E69EE00E94301F63E0CE01A1
:1006800004960E94B32463E0CE0101960E94B32435
:1006900063E0CE0101960E94E0240A811B8187E677
:1006A0009EE00E94C81FC80126960FB6F894DEBFD0
:1006B0000FBECDBFDF91CF911F910F910895CF93C2
:1006C00010920A0E40E050E0BA0187E69EE00E94D8
:1006D000301FC1E080E98C0F8230A8F08C2F0E947F
:1006E0002203853A954A79F480910A0E803158F4B4
:1006F000E0910A0EF0E0EF52F34FC08380910A0EB2
:100700008F5F80930A0ECF5FC03821F787E69EE0A7
:10071000CF910C94C81F0F931F93CF93DF93CDB746
:10072000DEB728970FB6F894DEBF0FBECDBF182FE7
:10073000880F8E8380E38F831886812F880F8160D6
:1007400089831A821B821C821D8240E050E0BA011C
:1007500087E69EE00E94301F63E0CE0106960E946D
:10076000B32465E0CE0101960E94B32465E0CE017A
:1007700001960E94E02405E0812F0E942203853A21
:10078000954AA1F58C8190E0982F88272D81820FC2
:10079000911D90938E0C80938D0C05E0812F0E940B
:1007A0002203853A954A29F58A8190E0982F882777
:1007B0002B81820F911D9093CF0C8093CE0C87E6F6
:1007C0009EE00E94C81F6091CE0C7091CF0C80916A
:1007D0008D0C90918E0C28960FB6F894DEBF0FBE4C
:1007E000CDBFDF91CF911F910F910895015021F658
:1007F000D4CF015099F6E3CFEF92FF920F931F935E
:10080000CF93DF93CDB7DEB728970FB6F894DEBF4E
:100810000FBECDBF982F990F9E8390E39F8392E0E8
:100820009887880F816089831A821B821C821D82AF
:1008300040E050E0BA0187E69EE00E94301F63E08E
:10084000CE0106960E94B32465E0CE0101960E9477
:10085000B32465E0CE0101960E94E0240C811D8145
:10086000102701271027EA80FB80FE24EF24FE24B6
:1008700087E69EE00E94C81FB701C80128960FB600
:10088000F894DEBF0FBECDBFDF91CF911F910F91C6
:10089000FF90EF900895EF92FF920F931F93CF93E5
:1008A000DF93CDB7DEB728970FB6F894DEBF0FBE43
:1008B000CDBF982F990F9E8390E39F8391E09887F7
:1008C000880F816089831A821B821C821D8240E00E
:1008D00050E0BA0187E69EE00E94301F63E0CE013F
:1008E00006960E94B32465E0CE0101960E94B324CF
:1008F00065E0CE0101960E94E0241D810C81FB8001
:10090000EA8087E69EE00E94C81FB701C8012896CA
:100910000FB6F894DEBF0FBECDBFDF91CF911F9110
:100920000F91FF90EF9008951F93CF93DF9310E006
:10093000C12F012E000CDD0B80910A0E90E0C8172C
:10094000D90724F0DF91CF911F910895FE01EF5256
:10095000F34F80810E944B04FE01EE0FFF1FEE0F4C
:10096000FF1FEF59F24F608371838283938361E0AD
:1009700070E080E090E00E94E4201F5FD9CF87E61E
:100980009EE00E94DE1E0E949E2440E050E0BA01DC
:1009900087E69EE00E94301F0E945F030E940D02C6
:1009A00064E670E080E090E00E94E4200E949404FD
:1009B00087E69EE00C94C81F40E060E080E80E945B
:1009C0002B020E946A0264E18EE09DE00E94D10247
:1009D00064E181EA9DE00E94D10264E187E99CE044
:1009E0000E94D10264E18CE49EE00C94D10284E187
:1009F000E0E9F1E0AEE3BDE001900D928A95E1F708
:100A000084E1E0E9F1E0A0ECBDE001900D928A956F
:100A1000E1F784E1E0E9F1E0A1EFBDE001900D92A2
:100A20008A95E1F784E1E0E9F1E0A5EDBDE0019010
:100A30000D928A95E1F708954F925F926F927F929F
:100A40008F929F92AF92BF92CF92DF92EF92FF92DE
:100A50001F93CF93DF93CDB7DEB728970FB6F894E7
:100A6000DEBF0FBECDBF0E94F70486E0E7ECF1E0E9
:100A7000AEE3BDE001900D928A95E1F784E0EEECE3
:100A8000F1E0AAE4BDE001900D928A95E1F785E2DC
:100A90008093510D86E59AE39093C10D8093C00D2C
:100AA00081E49AE39093C80D8093C70D86E0E3ED4F
:100AB000F1E0A1EFBDE001900D928A95E1F785E0AC
:100AC000EAEDF1E0A8EFBDE001900D928A95E1F723
:100AD0008DE49EE39093D60D8093D50D8091FE0C0E
:100AE0009091FF0C8230910509F4F6C140F4009713
:100AF00009F400C2019771F065EA71E00DC084301D
:100B0000910509F4EFC108F4EAC10697A9F763EC6F
:100B100071E002C06AEA71E0FB0101900020E9F790
:100B20003197AF01461B570B84E49DE00E94472E8E
:100B300086E78093D70D80E38093D80D4EE24093F3
:100B4000D90D81E38093DA0D86E38093DB0D8091EC
:100B5000960C24E6622F0E94632B805D80934E0DDD
:100B60008091960C0E94632B892F2AE0622F0E94AD
:100B7000632B805D80934F0D8091960C0E94632BB8
:100B8000905D9093500D8091E90D9091EA0D64E68F
:100B900070E00E94912B605D6093C20D8091E90D21
:100BA0009091EA0D2AE030E0B9010E94912BCB012F
:100BB000B9010E94912B805D8093C30D4093C40DB9
:100BC0008091E90D9091EA0DB9010E94912B805D11
:100BD0008093C50DC090E30CD090E40CE090E50C40
:100BE000F090E60C6091E30C7091E40C8091E50CC0
:100BF0009091E60C0E94252D20E030E0A9010E9492
:100C0000762C87FF0CC08DE28093C90DC701B60119
:100C10000E94252D90580E94ED2C6B017C01C7018C
:100C2000B60120EA36E841E050E00E94C72B6AE0B6
:100C3000862E912CA12CB12CCA01B901A5019401D9
:100C40000E94C72B605D6093CA0DC701B60120E109
:100C500037E240E050E00E94C72BCA01B901A5016C
:100C600094010E94C72B605D6093CB0DC701B60154
:100C700028EE33E040E050E00E94C72BCA01B901E2
:100C8000A50194010E94C72B605D6093CC0D8EE29C
:100C90008093CD0DC701B60124E630E040E050E07E
:100CA0000E94C72BCA01B901A50194010E94C72B5C
:100CB000605D6093CE0DC701B601A50194010E944D
:100CC000C72B162FCA01B901A50194010E94C72B99
:100CD000605D6093CF0D80E3810F8093D00D809194
:100CE000E90C882309F409C183E48093FE0D8CE4A8
:100CF0008093FF0D8FE48093000E83E58093010EB7
:100D000085E48093020E84E48093030E0E947E208B
:100D10006B017C0124E630E040E050E00E94A52B0E
:100D200029833A834B835C83C701B60120E737E10F
:100D300040E050E00E94A52B29013A01C701B6010D
:100D400020E43EE745E050E00E94A52B2D833E8342
:100D50004F8358878CE3882E912CA12CB12C69816C
:100D60007A818B819C81A50194010E94A52B6983C6
:100D70007A838B839C83C301B201A50194010E94F5
:100D8000A52B2B013C016D817E818F81988528E107
:100D900030E040E050E00E94A52B6D837E838F837E
:100DA00098879AE0892E912CA12CB12C69817A81A7
:100DB0008B819C81A50194010E94A52B605D6093AD
:100DC000E80D205D2093E70D1AE31093E60DC301B3
:100DD000B201A50194010E94A52B605D6093E50D11
:100DE000205D2093E40D1093E30D6D817E818F8152
:100DF0009885A50194010E94A52B605D6093E20D8A
:100E0000205D2093E10D1093E00DC701B60120E0B5
:100E100036ED43E850E00E94A52BCA01B901A501B7
:100E200094010E94A52B605D6093DF0DC701B601A0
:100E300020E03CE546E255E00E94A52BCA01B9013D
:100E4000A50194010E94A52B605D6093DE0DC70192
:100E5000B60120E038E94FE753E30E94A52B205D5F
:100E60002093DD0D84E1EEE3FDE0AEE0BDE0019016
:100E70000D928A95E1F784E1E0ECFDE0A1EABDE0A6
:100E800001900D928A95E1F784E1E1EFFDE0A7E999
:100E9000BCE001900D928A95E1F784E1E5EDFDE07B
:100EA000ACE4BEE001900D928A95E1F728960FB66A
:100EB000F894DEBF0FBECDBFDF91CF911F91FF90A1
:100EC000EF90DF90CF90BF90AF909F908F907F90EA
:100ED0006F905F904F9008956FEA71E01DCE65EBC3
:100EE00071E01ACE80915D0D805D8093480D6AEBB4
:100EF00071E012CE6EEB71E00FCE8FE48093FE0DA9
:100F000080E58093FF0D85E48093000E8EE480934E
:100F1000010E80E28093020EF7CEAF92BF92CF9285
:100F2000DF92EF92FF920F931F93CF93DF93C82F1F
:100F30000E94F70486E0E7ECF1E0AEE3BDE001904B
:100F40000D928A95E1F700EC1DE093E4D8019C93A3
:100F500080E38C0F11968C9311975FE512965C934A
:100F6000129726E513962C9313974AE314964C9305
:100F700021EF3DE0F90190838183528354E553834F
:100F80004483A5EDBDE040E54C934FE211964C93B0
:100F9000119712969C93129713968C9313978EE346
:100FA00014968C93EC2FF0E0EE0FFF1FEF01C05F63
:100FB000D14F8881998148EEE42E43E0F42EB701A9
:100FC0000E947D2B605DD80115966C9315974EE2BB
:100FD00016964C9388819981B7010E947D2B54E627
:100FE000A52EB12CB5010E947D2B605DD80117960E
:100FF0006C9388819981B7010E947D2BB5010E9475
:101000007D2B6AE0C62ED12CB6010E947D2B605D3F
:10101000D80118966C9388819981B6010E947D2B26
:10102000805DD80119968C93E451F34F80819181B2
:10103000B7010E947D2B605DD90115966C9380816C
:101040009181B7010E947D2BB5010E947D2B605DCF
:10105000D90116966C9380819181B7010E947D2BF6
:10106000B5010E947D2BB6010E947D2B605DD901E8
:1010700017966C93179718964C9380819181B601BF
:101080000E947D2B805DF901818784E1EEE3FDE024
:10109000AEE0BDE001900D928A95E1F784E1F801A0
:1010A000A1EABDE001900D928A95E1F784E1F90192
:1010B000A7E9BCE001900D928A95E1F784E1E5EDA6
:1010C000FDE0ACE4BEE001900D928A95E1F7DF917E
:1010D000CF911F910F91FF90EF90DF90CF90BF9035
:1010E000AF900895AF92BF92CF92DF92EF92FF92AE
:1010F0000F931F93CF93DF93C82F0E94F70485E0CF
:10110000E0EEF1E0AEE3BDE001900D928A95E1F7EB
:1011100085E0E6EEF1E0A8E4BDE001900D928A954D
:10112000E1F785E0ECEEF1E0A0ECBDE001900D927E
:101130008A95E1F785E0E2EFF1E0A1EFBDE00190F3
:101140000D928A95E1F787E0E8EFF1E0ABEFBDE0C3
:1011500001900D928A95E1F783E0E0E0F2E0A5EDE1
:10116000BDE001900D928A95E1F780E38C0F8093AA
:10117000D80D83E0E4E0F2E0A9EDBDE001900D922E
:101180008A95E1F735E0E32E3EE0F32E4CE2A42E03
:101190004DE0B42EF501670180E2D6018D936D011B
:1011A0008193BAE0CB16BEE0DB06B9F7D0E08E0142
:1011B000000F111FF801EC5CF14F808191814AE032
:1011C00065E07EE00E94502EF801E050F34F8081F0
:1011D00091814AE06CE27DE00E94502E80E2F701AE
:1011E0009081911101C08083D5019C91911101C022
:1011F0008C93BFEFEB1AFB0AEFEFAE1ABE0ACE14C8
:10120000DF0469F78091050E8093C50D8091060E6D
:101210008093C60D8091070E8093C70D8091080EB4
:101220008093C80D8091090E8093C90D80912C0D7B
:101230008093430D80912D0D8093440D80912E0D50
:101240008093450D80912F0D8093460D8091300D38
:101250008093470DF801EE5DF14F8081918164E646
:1012600070E00E947D2B2AE030E0B9010E947D2BC6
:10127000605D60934D0D80819181B9010E947D2B4D
:10128000805D80934E0D8E01000F111F000F111F06
:10129000C8018555934F7C01DC016D917D918D9145
:1012A0009C910E94ED2C605D6093CF0D8EE2809347
:1012B000D00DF701608171818281938120E030E05F
:1012C00040E251E40E94DA2D0E94ED2C862F9AE034
:1012D000D92E6D2D0E946F2B905D9093D10DD7016B
:1012E0006D917D918D919C9120E030E048EC52E42D
:1012F0000E94DA2D0E94ED2C862F6D2D0E946F2BFF
:10130000905D9093D20DF70160817181828193810C
:1013100020E030E04AE754E40E94DA2D0E94ED2CF0
:10132000862F6D2D0E946F2B97FD7BC0F70180816A
:101330009181A281B381608171818281938120E05A
:1013400030E04AE754E40E94DA2D0E94ED2C862F0B
:101350006D2D0E946F2B905D9093D30DCF52D34F84
:1013600088811F928F938AE092E09F938F9387ECFE
:101370009CE09F938F930E94752E8091C70C809361
:10138000020E8091C80C8093030E8091C90C80934B
:10139000040EF801EF59F24F8081805D8093F60DC5
:1013A0008181805D8093F70D8281805D8093F80D4F
:1013B0008381805D8093F90D84E1EEE3FDE0AEE092
:1013C000BDE001900D928A95E1F784E1E0ECFDE04B
:1013D000A1EABDE001900D928A95E1F784E1E1EF89
:1013E000FDE0A7E9BCE001900D928A95E1F784E168
:1013F000E5EDFDE0ACE4BEE001900D928A95E1F7E9
:101400000F900F900F900F900F900F90DF91CF9152
:101410001F910F91FF90EF90DF90CF90BF90AF9012
:10142000089580E28093D30D99CFEF92FF920F93AE
:101430001F93CF93DF930E94F70423E520933E0D83
:1014400095E490933F0D84E58093400D30E5309313
:10145000420D31E43093430D33E43093440D3BE4CB
:101460003093450D39E43093470D34E43093480D03
:1014700037E0EFE0F2E0A0ECBDE001900D923A958C
:10148000E1F78093C80D3FE43093C90D46E0E7E1F2
:10149000F2E0ABECBDE001900D924A95E1F745E03A
:1014A000EEE1F2E0A1EFBDE001900D924A95E1F787
:1014B0008093F70D3093F80D2093FA0D9093FB0D68
:1014C0008093FC0D85E0E4E2F2E0A5EDBDE0019043
:1014D0000D928A95E1F784E0EAE2F2E0A0EEBDE049
:1014E00001900D928A95E1F784E1EEE3FDE0AEE034
:1014F000BDE001900D928A95E1F784E1E0ECFDE01A
:10150000A1EABDE001900D928A95E1F784E1E1EF57
:10151000FDE0A7E9BCE001900D928A95E1F784E136
:10152000E5EDFDE0ACE4BEE001900D928A95E1F7B7
:1015300064E670E080E090E00E94E4208091D00CAE
:1015400080935B0D8091D00C1F928F93CFE2D2E0FD
:10155000DF93CF9382E29DE09F938F930E94752E3D
:1015600080915B0D1F928F93DF93CF9380E69EE077
:101570009F938F930E94752E62E370E080E090E06D
:101580000E94E42081E08093B70D8DB79EB70C9642
:101590000FB6F8949EBF0FBE8DBF00E61EE08FE72A
:1015A000F82EEE24E3948091320E882309F4CCC007
:1015B0008091B70D8F5F8093B70D8091B70D8093A9
:1015C0005B0D80915B0D803831F4E092B70D809116
:1015D000B70D80935B0D80915B0D1F928F93DF930E
:1015E000CF931F930F930E94752E1092320E0F907F
:1015F0000F900F900F900F900F908091220D80937D
:10160000DC0D8091230D8093DD0D8091600E809321
:10161000E50D8091610E8093E60D84E1EEE3FDE03F
:10162000AEE0BDE001900D928A95E1F784E1E0EC37
:10163000FDE0A1EABDE001900D928A95E1F784E119
:10164000E1EFFDE0A7E9BCE001900D928A95E1F79A
:1016500084E1E5EDFDE0ACE4BEE001900D928A95F9
:10166000E1F71899A0CF60915B0D88E090E00E94AF
:10167000763188E090E00E946E318093D00C80E556
:1016800080933E0D81E480933F0D83E48093400D71
:101690008BE48093410D80E28093420D99E4909316
:1016A000430D94E49093440D8093450D93E59093FE
:1016B000460D95E49093470D94E59093480D91E283
:1016C0009093490D80934A0D80934B0D80934C0D60
:1016D00080934D0D80934E0D80934F0D8093500D50
:1016E0008093510D84E1EEE3FDE0AEE0BDE00190BA
:1016F0000D928A95E1F784E1E0ECFDE0A1EABDE01E
:1017000001900D928A95E1F784E1E1EFFDE0A7E910
:10171000BCE001900D928A95E1F784E1E5EDFDE0F2
:10172000ACE4BEE001900D928A95E1F764E670E0CA
:1017300080E090E00E94E42080E0DF91CF911F9153
:101740000F91FF90EF9008958091EF0D882309F499
:1017500054CF8091B70D81508093B70D8091B70D14
:10176000811102C0F092B70D8091B70D80935B0D8F
:1017700080915B0D1F928F93DF93CF931F930F93F5
:101780000E94752E1092EF0D32CFFF920F931F9390
:10179000CF93DF930E94F70483E0E4E3F2E0AEE34B
:1017A000BDE001900D928A95E1F786E0E8E3F2E072
:1017B000A2E4BDE001900D928A95E1F78FE496E4F2
:1017C00090934A0D8093490D85E0EFE3F2E0ACE49D
:1017D000BDE001900D928A95E1F787E0EFE0F2E03D
:1017E000A0ECBDE001900D928A95E1F784E59FE4BD
:1017F0009093C90D8093C80D86E0E7E1F2E0ABEC71
:10180000BDE001900D928A95E1F784E1EEE3FDE001
:10181000AEE0BDE001900D928A95E1F784E1E0EC45
:10182000FDE0A1EABDE001900D928A95E1F784E127
:10183000E1EFFDE0A7E9BCE001900D928A95E1F7A8
:1018400084E1E5EDFDE0ACE4BEE001900D928A9507
:10185000E1F764E670E080E090E00E94E42080918F
:10186000330E8093B50D8091330E1F928F93CFE28C
:10187000D2E0DF93CF9387E59DE09F938F930E9403
:10188000752E8091B50D1F928F93DF93CF9389E5CD
:101890009DE09F938F930E94752E62E370E080E03D
:1018A00090E00E94E42081E08093B70D8DB79EB751
:1018B0000C960FB6F8949EBF0FBE8DBF09E51DE0D4
:1018C000FF24FA948091320E882309F4BEC08091DF
:1018D000B70D8F5F8093B70D8091B70D8093B50DD5
:1018E0008091B50D1F928F93DF93CF931F930F932A
:1018F0000E94752E1092320E0F900F900F900F9045
:101900000F900F908091570D8093DC0D8091580DB2
:101910008093DD0D8091590D8093E50D80915A0DD6
:101920008093E60D84E1EEE3FDE0AEE0BDE00190E2
:101930000D928A95E1F784E1E0ECFDE0A1EABDE0DB
:1019400001900D928A95E1F784E1E1EFFDE0A7E9CE
:10195000BCE001900D928A95E1F784E1E5EDFDE0B0
:10196000ACE4BEE001900D928A95E1F71899AACFF8
:101970006091B50D89E090E00E94763189E090E0B9
:101980000E946E318093330E8EE480933E0D85E588
:1019900080933F0D8DE48093400D80E28093410D54
:1019A00093E49093420D95E49093430D2CE420939F
:1019B000440D2093450D23E52093460D8093470D5C
:1019C0002093480D9093490D94E590934A0D91E230
:1019D00090934B0D80934C0D80934D0D80934E0D45
:1019E00080934F0D8093500D8093510D84E1EEE371
:1019F000FDE0AEE0BDE001900D928A95E1F784E153
:101A0000E0ECFDE0A1EABDE001900D928A95E1F7DE
:101A100084E1E1EFFDE0A7E9BCE001900D928A9539
:101A2000E1F784E1E5EDFDE0ACE4BEE001900D926C
:101A30008A95E1F764E670E080E090E0DF91CF9175
:101A40001F910F91FF900C94E4208091EF0D88235B
:101A500009F458CF8091B70D81508093B70D8091D4
:101A6000B70D811102C0F092B70D8091B70D809330
:101A7000B50D8091B50D1F928F93DF93CF931F9378
:101A80000F930E94752E1092EF0D36CF0E94F7042F
:101A900085E0E5E4F2E0AEE3BDE001900D928A95C9
:101AA000E1F784E0EBE4F2E0A4E4BDE001900D9204
:101AB0008A95E1F787E0E0E5F2E0A0ECBDE0019077
:101AC0000D928A95E1F786E0E8E5F2E0A1EFBDE04E
:101AD00001900D928A95E1F784E0EFE5F2E0A5ED43
:101AE000BDE001900D928A95E1F784E1EEE3FDE01F
:101AF000AEE0BDE001900D928A95E1F784E1E0EC63
:101B0000FDE0A1EABDE001900D928A95E1F784E144
:101B1000E1EFFDE0A7E9BCE001900D928A95E1F7C5
:101B200084E1E5EDFDE0ACE4BEE001900D928A9524
:101B3000E1F764E670E080E090E00C94E4200E941D
:101B4000F70485E0E4E6F2E0AEE3BDE001900D923B
:101B50008A95E1F785E0EEE1F2E0A4E4BDE00190D2
:101B60000D928A95E1F784E59FE490934B0D809365
:101B70004A0D87E0EAE6F2E0A1EFBDE001900D92A8
:101B80008A95E1F784E0E2E7F2E0A9EFBDE0019099
:101B90000D928A95E1F784E0EBE4F2E0AEEFBDE070
:101BA00001900D928A95E1F784E1EEE3FDE0AEE06D
:101BB000BDE001900D928A95E1F784E1E0ECFDE053
:101BC000A1EABDE001900D928A95E1F784E1E1EF91
:101BD000FDE0A7E9BCE001900D928A95E1F784E170
:101BE000E5EDFDE0ACE4BEE001900D928A95E1F7F1
:101BF00008950E94F70485E0E4E6F2E0AEE3BDE07C
:101C000001900D928A95E1F785E0EEE1F2E0A4E41F
:101C1000BDE001900D928A95E1F784E59FE49093F1
:101C20004B0D80934A0D87E0EAE6F2E0A1EFBDE0BC
:101C300001900D928A95E1F784E0E2E7F2E0A9EFE6
:101C4000BDE001900D928A95E1F78BE0E7E7F2E0C5
:101C5000A0ECBDE001900D928A95E1F784E1EEE3FE
:101C6000FDE0AEE0BDE001900D928A95E1F784E1E0
:101C7000E0ECFDE0A1EABDE001900D928A95E1F76C
:101C800084E1E1EFFDE0A7E9BCE001900D928A95C7
:101C9000E1F784E1E5EDFDE0ACE4BEE001900D92FA
:101CA0008A95E1F708950E94F70485E0E4E6F2E002
:101CB000AEE3BDE001900D928A95E1F785E0EEE19B
:101CC000F2E0A4E4BDE001900D928A95E1F784E58D
:101CD0009FE490934B0D80934A0D87E0EAE6F2E093
:101CE000A1EFBDE001900D928A95E1F786E0E3E86F
:101CF000F2E0A9EFBDE001900D928A95E1F786E050
:101D0000EAE8F2E0A0ECBDE001900D928A95E1F7DF
:101D100084E1EEE3FDE0AEE0BDE001900D928A9536
:101D2000E1F784E1E0ECFDE0A1EABDE001900D9275
:101D30008A95E1F784E1E1EFFDE0A7E9BCE00190DD
:101D40000D928A95E1F784E1E5EDFDE0ACE4BEE0BB
:101D500001900D928A95E1F708954F925F926F92EC
:101D60007F928F929F92AF92BF92CF92DF92EF922B
:101D7000FF921F93CF93DF93CDB7DEB728970FB6AF
:101D8000F894DEBF0FBECDBFF82E0E94F70485E0A9
:101D9000E5E9F2E0AEE3BDE001900D928A95E1F74E
:101DA00083E0EBE9F2E0A4E4BDE001900D928A95B6
:101DB000E1F786E0E7ECF1E0A0ECBDE001900D92E8
:101DC0008A95E1F784E0EFE9F2E0A1EFBDE0019050
:101DD0000D928A95E1F784E1EEE3FDE0AEE0BDE02F
:101DE00001900D928A95E1F784E1E0ECFDE0A1EA33
:101DF000BDE001900D928A95E1F784E1E1EFFDE00D
:101E0000A7E9BCE001900D928A95E1F784E1E5ED48
:101E1000FDE0ACE4BEE001900D928A95E1F78F2DD4
:101E200090E0FC01EE0FFF1FEE5BF14FE080F180D0
:101E3000880F991F880F991FFC01E559F34F4080C7
:101E400051806280738082E0E816F10409F4F2C1E7
:101E500008F0E3C1E114F10409F4FAC1F1E0EF166E
:101E6000F10409F4F8C165EA71E0FB01019000207A
:101E7000E9F73197AF01461B570B86EC9DE00E94B6
:101E8000472E84E0E816F10409F043C080915E0D0E
:101E9000805D8093D50D80915D0D8111DFC18091B2
:101EA0005F0D9091600D28EE33E0B9010E947D2B0B
:101EB000605D60934D0D80915F0D9091600DB90153
:101EC0000E947D2BE4E6F0E0BF010E947D2B605D67
:101ED00060934E0D80915F0D9091600DB9010E944D
:101EE0007D2BBF010E947D2B2AE030E0B9010E94CA
:101EF0007D2B605D60934F0D8EE28093500D80913D
:101F00005F0D9091600DB9010E947D2B805D8093E3
:101F1000510DC301B20124E630E040E050E00E94E0
:101F2000A52B29833A834B835C83C301B20120E74D
:101F300037E140E050E00E94A52B49015A01C3015E
:101F4000B20120E43EE745E050E00E94A52B690184
:101F50007A0169817A818B819C812CE330E040E0B9
:101F600050E00E94A52B69837A838B839C83C501F3
:101F7000B4012CE330E040E050E00E94A52B6D83DB
:101F80007E838F839887C701B60128E130E040E067
:101F900050E00E94A52B6B017C018AE0882E912CD9
:101FA000A12CB12C69817A818B819C81A50194013E
:101FB0000E94A52B605D6093040E205D2093030EAC
:101FC0001AE31093020E6D817E818F819885A501A1
:101FD00094010E94A52B605D6093010E205D20930B
:101FE000000E1093FF0DC701B601A50194010E94D8
:101FF000A52B605D6093FE0D205D2093FD0D109379
:10200000FC0DC301B20120E036ED43E850E00E9430
:10201000A52BCA01B901A50194010E94A52B605D01
:102020006093FB0DC301B20120E03CE546E255E0C0
:102030000E94A52BCA01B901A50194010E94A52BFC
:10204000605D6093FA0DC301B20120E038E94FE70B
:1020500053E30E94A52B205D2093F90D0E947E2062
:102060006B017C0124E630E040E050E00E94A52BAB
:1020700029833A834B835C83C701B60120E737E1AC
:1020800040E050E00E94A52B29013A01C701B601AA
:1020900020E43EE745E050E00E94A52B2D833E83DF
:1020A0004F83588769817A818B819C812CE330E052
:1020B00040E050E00E94A52B69837A838B839C8348
:1020C000C301B2012CE330E040E050E00E94A52BB8
:1020D0002B013C016D817E818F81988528E130E064
:1020E00040E050E00E94A52B6D837E838F8398870C
:1020F00069817A818B819C81A50194010E94A52B25
:10210000605D6093E80D205D2093E70D1093E60D70
:10211000C301B201A50194010E94A52B605D6093EB
:10212000E50D205D2093E40D1093E30D6D817E811C
:102130008F819885A50194010E94A52B605D609315
:10214000E20D205D2093E10D1093E00DC701B60173
:1021500020E036ED43E850E00E94A52BCA01B9010A
:10216000A50194010E94A52B605D6093DF0DC7015E
:10217000B60120E03CE546E255E00E94A52BCA01ED
:10218000B901A50194010E94A52B605D6093DE0D4D
:10219000C701B60120E038E94FE753E30E94A52BC1
:1021A000205D2093DD0D84E1EEE3FDE0AEE0BDE0D7
:1021B00001900D928A95E1F784E1E0ECFDE0A1EA5F
:1021C000BDE001900D928A95E1F784E1E1EFFDE039
:1021D000A7E9BCE001900D928A95E1F784E1E5ED75
:1021E000FDE0ACE4BEE001900D928A95E1F72896FF
:1021F0000FB6F894DEBF0FBECDBFDF91CF911F9118
:10220000FF90EF90DF90CF90BF90AF909F908F9016
:102210007F906F905F904F90089584E0E816F104EE
:1022200079F058F0F6E0EF16F10409F01CCE63ECFB
:1022300071E01BCE6FEA71E018CE61E972E015CE55
:1022400080915D0D805D8093CA0D6AEB71E00DCECB
:102250006EEB71E00ACE6AEA71E007CE80915D0D07
:10226000813009F056CE80915F0D9091600D28EE7F
:1022700033E0B9010E947D2B605D60934D0D8EE2CD
:1022800080934E0D80915F0D9091600DB9010E9479
:102290007D2BE4E6F0E0BF010E947D2B605D609342
:1022A0004F0D80915F0D9091600DB9010E947D2BC3
:1022B000BF010E947D2B2AE030E0B9010E947D2BF6
:1022C000605D6093500D1BCE84B1887F84B985B169
:1022D000876085B908950E94641162E370E080E030
:1022E00090E00E94E420C1E01A9909C0C093320E28
:1022F0006EE170E080E090E00E94E420F5CF199953
:1023000003C0C093EF0DF4CF1899EECFC0936A0CC1
:10231000EFCFEF92FF920F931F93CF93DF93CDB741
:10232000DEB74DB75EB780910A0E2DB73EB7281BBA
:1023300031090FB6F8943EBF0FBE2DBF2F5F3F4F40
:102340008091FE0C9091FF0C019709F092C0809152
:10235000260D882309F48DC01092260D80E09091FF
:102360000A0E891760F0A0E080910A0E6A2F70E0D3
:1023700090E0019768177907BCF5B0E029C0F90132
:10238000E80FF11D80838F5FEACFB901680F791FD5
:10239000FB01E080EE2DF0E0EE0FFF1FE05FF14F5C
:1023A000008111810196820F931FFC01F080EF2DB7
:1023B000F0E0EE0FFF1FE05FF14F0190F081E02DA4
:1023C000E017F10720F4FC01E082FB01F082BF5F1F
:1023D0008B2F90E060910A0E70E0615071098617B2
:1023E00097079CF2AF5FC0CF80910A0E815097E0B3
:1023F000811111C0A1E060910A0E861748F10FB655
:10240000F8945EBF0FBE4DBFDF91CF911F910F912A
:10241000FF90EF900895D901A80FB11DEC91F0E065
:10242000EE0FFF1FE05FF14F608171811197EC911A
:10243000F0E0EE0FFF1FE05FF14F0190F081E02D23
:102440006E1B7F0B6931710508F0982F8150D0CF3A
:10245000682F70E0620F731FFB016081E62FF0E0D0
:10246000E157F34F891718F0A0838F5FC4CF108214
:10247000FCCF8091FE0C9091FF0C019709F4BFCF27
:1024800080E090910A0E891708F0B9CFE82FF0E0AC
:10249000E157F34F10828F5FF4CFCF93DF9300D0DB
:1024A00000D000D0CDB7DEB70E94BF040E94A300C9
:1024B0000E94D7000E94790281E08093CB0C109299
:1024C000260D34E6432E512C612C712C22242394AA
:1024D0000E947E20A30192010E94A52B6333710507
:1024E0008105910508F4F0C08091CB0C882349F058
:1024F0001092CB0C2092260D8091250D81110E9407
:10250000DC0465E070E080E090E00E94E420312C83
:1025100080910A0E381608F4DAC00E948301BC01CB
:10252000990F880B990B0E94252D2AE037ED43EA7D
:102530005AE30E94DA2D21EC3AEC41E85FE30E9475
:10254000DA2D2AE939E949E95EE30E94092C20E005
:1025500030E040E251E40E94DA2D0E94F42C7093A6
:10256000EA0D6093E90D0E946B000E942E01092E76
:10257000000CAA0BBB0BB095A095909581959F4F31
:10258000AF4FBF4F8093FA0C9093FB0CA093FC0CC1
:10259000B093FD0C8091FA0C9091FB0CA091FC0C77
:1025A000B091FD0C803E9E42A105B105CCF4809116
:1025B000FA0C9091FB0CA091FC0CB091FD0C8132B7
:1025C000914DAF4FBF4F64F08091FA0C9091FB0C8E
:1025D000A091FC0CB091FD0C9093310E8093300EC5
:1025E0008091FE0C9091FF0C069709F0FAC0809143
:1025F000E90C882309F4F5C00E94EF010E94BA019A
:10260000092E000CAA0BBB0B8093FA0C9093FB0CC9
:10261000A093FC0CB093FD0C40E050E0BA0187E2BF
:102620009DE00E94301F8091FA0C9091FB0CA091CC
:10263000FC0CB091FD0C9C01AD0166277727CB0106
:10264000621B730B840B950B0E94252D2FE632E144
:1026500043E059E30E94DA2D23ED3EEF46ED52E4CC
:102660000E94DA2D24EA30E74DE25FE30E940A2C53
:1026700020E030E04AE754E40E94DA2D0E94ED2C7D
:102680006093E30C7093E40C8093E50C9093E60C5C
:1026900087E29DE00E94C81F0E94891110E080918E
:1026A0000A0E181708F014CFE12FF0E0DF01A15750
:1026B000B34F8C91EF52F34F813009F0E8C0808125
:1026C0000E9404031F5FEBCF2092CB0C1ACF032D87
:1026D00010E0F801EF52F34F80810E948B036B01F1
:1026E0007C019801220F331F3E832D83F901EC5C9E
:1026F000F14F408151815A834983F901E050F34FF2
:10270000808191819C838B8396E09E9DB0019F9DEB
:10271000700D112480E090E00E94232D4B015C019C
:10272000A981BA81BD0180E090E00E94232D20E0C4
:1027300030E040E85AE30E94DA2D9B01AC01C5016C
:10274000B4010E94DA2D4B015C01EB81FC81BF01D9
:1027500080E090E00E94232D9B01AC01C501B401F3
:102760000E940A2C0E94F42CED81FE81E05FF14F63
:1027700071836083000F111F000F111FF801E555D1
:10278000F34F80809180A280B380ED81FE81EE5D69
:10279000F14F00811181FAEFCF1AF0E8DF0ACC0C7B
:1027A000DD1CB60180E090E00E94232DA50194017C
:1027B0000E94DA2D6B017C01B80180E090E00E945C
:1027C000232D9B01AC01C701B6010E940A2C0E9477
:1027D000F42CED81FE81E451F34F718360833394D7
:1027E00097CE0E940D020E94BA01092E000CAA0B7E
:1027F000BB0B8093FA0C9093FB0CA093FC0CB09352
:10280000FD0C8091FA0C9091FB0CA091FC0CB09106
:10281000FD0C8C3B9240A105B1050CF03DCF8091A1
:10282000FA0C9091FB0CA091FC0CB091FD0C85343E
:102830009D4FAF4FBF4F0CF42FCF40E050E0BA0197
:1028400087E29DE00E94301F6091300E7091310E42
:10285000072E000C880B990B0E94252D2CEA35ECD5
:1028600047E256E30E94DA2D2FE632E143E85AE3CD
:102870000E947B2C2DE73EEA46E75FE30E94DA2DBB
:1028800029E839E241E15CE30E94092CF1CE808124
:102890000E94E70217CF10926D0E10926C0E80917D
:1028A0006C0E90916D0E079758F187E08093380D6C
:1028B00088EB9DE090933A0D8093390D81E090E094
:1028C0009093330D8093320D10923D0D88E090E08F
:1028D0000E946E318093D00C8091D00C882321F01F
:1028E0008091D00C8F3F59F461E088E090E00E9425
:1028F000763188E090E00E946E318093D00C08958C
:10290000E0916C0EF0916D0EE854F24F10828091C0
:102910006C0E90916D0E019690936D0E80936C0EDF
:10292000BECF0E944B1480E00E946A2508E080918F
:10293000D00C90E0982F882797709093350D809356
:10294000340D0093380D8091FE0C9091FF0C809314
:10295000B80D8091E90D9091EA0D9093B90D809199
:10296000E90D9091EA0D8093BA0D8091E30C90915E
:10297000E40CA091E50CB091E60C8B2FBB2787FDF2
:10298000B0959B2FAB2F8093BB0D8091E30C909162
:10299000E40CA091E50CB091E60CCD01BB2797FDAE
:1029A000B095AB2F8093BC0D8091E30C9091E40C1B
:1029B000A091E50CB091E60C892F9A2FAB2FBB2785
:1029C000A7FDBA958093BD0D8091E30C9091E40C26
:1029D000A091E50CB091E60C8093BE0D8091960C11
:1029E0008093BF0D81E39DE00E947725182F811110
:1029F000F9CF81E39DE00E94522A8130D1F380918A
:102A0000EB0D9091EC0DA091ED0DB091EE0D8B2F93
:102A1000BB2787FDB0959B2FAB2F8093B80D80917E
:102A2000EB0D9091EC0DA091ED0DB091EE0DCD015F
:102A3000BB2797FDB095AB2F8093B90D8091EB0D1F
:102A40009091EC0DA091ED0DB091EE0D892F9A2F84
:102A5000AB2FBB27A7FDBA958093BA0D8091EB0DE4
:102A60009091EC0DA091ED0DB091EE0D8093BB0D0A
:102A7000F12C84E0C4E0D1E09091330EF916C0F05F
:102A8000F12C9091330EF91608F056C02C2F280F18
:102A90002AC0EC2FF0E0AF2DB0E0A157B34F9C91CE
:102AA000E854F24F9083CF5FF394815009F452C001
:102AB0009091330EF91668F3DFCF4C2F50E0EF2DD5
:102AC000F0E0EE0FFF1FE05FF14F60817181DA01EE
:102AD000A854B24F7C9360817181FA01E754F24FA0
:102AE0006083F3948250C22FC81B823008F450C018
:102AF0009091330EF91608F3C4CF2C2F30E0E12F5C
:102B0000F0E0EE0FFF1FE451F34F60817181D901B6
:102B1000A854B24F7C9360817181F901E754F24F60
:102B200060831F5F8250C42FC81B823008F44EC0E0
:102B30009091330E191708F39091330E191718F46A
:102B40004C2F480FF0CF64E670E080E090E00E94E8
:102B5000E420EDCE8091D00C90E0982F88278D0F47
:102B6000911D97709093350D8093340DC093380D5F
:102B700081E39DE00E947725C82F8111F9CF81E381
:102B80009DE00E94522A8130D1F3DF5F88E074CF4C
:102B90008091D00C90E0982F88278D0F911D977011
:102BA0009093350D8093340DC093380D81E39DE0F3
:102BB0000E947725C82F8111F9CF81E39DE00E9403
:102BC000522A8130D1F3DF5F88E05BCF8091D00C57
:102BD00090E0982F88278D0F911D97709093350D59
:102BE0008093340DC093380D81E39DE00E947725DA
:102BF000C82F8111F9CF81E39DE00E94522A8130D4
:102C0000D1F3DF5F88E098CF0C941C050E941C056F
:102C10000E947E206B017C0164E670E080E090E021
:102C20000E94E420D0E0C0E011E00E947E206C19F8
:102C30007D098E099F096C317C408105910510F05A
:102C4000D0E0C0E00E947E206C197D098E099F09AA
:102C500064347F4281059105E0F00E94B402109235
:102C6000250D18998AC00E947E206B017C01D1300D
:102C700009F46BC008F442C0D23009F46EC0D330FE
:102C800009F473C062E370E080E090E00E94E42009
:102C9000CCCF1093250DD13029F138F0D23031F15D
:102CA000D33041F10E941C05DCCFC230A9F03CF4C6
:102CB000CC23C1F3C130B1F70E949F0DD2CFC330F6
:102CC00071F0CF3079F70E94150A082F0E94C50BCA
:102CD0000111C7CFC0E0C5CF0E94F90DC2CF0E943D
:102CE000530EBFCF8C2F0E948D07BBCF8C2F0E941D
:102CF0007208B7CF8C2F0E94AD0EB3CFC130B1F0A8
:102D00004CF4C111BFCF8091250D882309F4BACFAF
:102D1000CFE0B8CFC23091F0C33009F0B3CF80918B
:102D2000250D882309F4AECFD3E006C08091250D90
:102D3000882309F4A7CFD1E0C0E0A4CF8091250D6E
:102D4000882309F49FCFD2E0F7CF8091250D882307
:102D500009F498CFD0E0C1E095CF8091250D88236C
:102D600009F490CFD0E0C2E08DCF8091250D88236B
:102D700009F488CFD0E0C3E085CF8091EF0D8823A0
:102D800049F10E947E206B017C018091250D8823F2
:102D9000B1F0CF5FC43011F4DD23D1F080910A0E81
:102DA00090E02C2F0C2E000C330B2817390751F410
:102DB0008FEF8D0F823030F4C0910A0EC150109207
:102DC000EF0D60CFC530D9F7D330C9F7C4E0F7CFE6
:102DD000C3E0F5CF8091320E882309F453CF0E94CF
:102DE0007E206B017C018091250D882319F0C15054
:102DF00008F4C0E01092320E45CF089A109863E0B4
:102E000070E080E090E00E94E420109A63E070E0BF
:102E100080E090E00E94E420F1CF10920F0E10921B
:102E2000D40D80E090910A0E891720F087E29DE092
:102E30000C94DE1EE82FF0E0E157F34F10828F5F15
:102E4000F1CF81E090E00E946E318093960C8091EA
:102E5000960C882321F08091960C8F3F59F462E301
:102E600081E090E00E94763181E090E00E946E3136
:102E70008093960C8091960C08959091D40D80913A
:102E8000960C981751F08091960C8093D40D609118
:102E9000960C81E090E00C9476310895CF93DF9307
:102EA00000D000D0CDB7DEB70E940D17412C512CB9
:102EB000320114E63CE9832E99249A94A92CB92C6A
:102EC0008091FE0C9091FF0C892BD1F38091FE0C28
:102ED0009091FF0C019721F482B1806382B908C000
:102EE0008091FE0C9091FF0C039709F0B7C0149AE3
:102EF00080E090910A0E891708F4B3C080E09091A9
:102F00000A0E891708F4CDC00E947E206B017C0157
:102F1000DC01CB0184199509A609B7092C013D01F3
:102F200040E050E0BA0187E29DE00E94301F6091CE
:102F3000E30C7091E40C8091E50C9091E60C2091EB
:102F4000EB0D3091EC0D4091ED0D5091EE0D29837C
:102F50003A834B835C83A30192010E94532BA5010A
:102F600094010E94C72B89819A81AB81BC81280F73
:102F7000391F4A1F5B1F57FD2CC06091E30C7091F5
:102F8000E40C8091E50C9091E60C2091EB0D3091D2
:102F9000EC0D4091ED0D5091EE0D29833A834B835A
:102FA0005C83A30192010E94532BA50194010E940E
:102FB000C72B89819A81AB81BC81280F391F4A1F99
:102FC0005B1F2093EB0D3093EC0D4093ED0D509370
:102FD000EE0D87E29DE00E94C81F6091EB0D70919D
:102FE000EC0D8091ED0D9091EE0D0E94252D20E0CD
:102FF00036ED43E05AE40E94D52D181664F5609131
:10300000EB0D7091EC0D8091ED0D9091EE0D0E9405
:10301000252D28E03FEE4BE45DE40E94762C87FFEF
:103020001AC06091EB0D7091EC0D8091ED0D9091B7
:10303000EE0D0E94252D20E63EEF4DE45DE40E945A
:103040007B2C20E030E048EC52E40E94DA2D0E9414
:10305000F42C6093960C2601370132CF82B18F7C1D
:103060003DCFE82FF0E0EE0FFF1FE05FF14F208132
:10307000318125373E4098F020813181263F3F4FF6
:1030800071F020E036EE4FED5CE02093EB0D3093D5
:10309000EC0D4093ED0D5093EE0D1093960C8F5F59
:1030A00028CFE82FF0E0EE0FFF1FE05FF14F208107
:1030B00031812C383A4050F41092EB0D1092EC0D07
:1030C0001092ED0D1092EE0D1092960C8F5F17CFAF
:1030D000139A81B1896381B91092E90C08950E9415
:1030E000681891E080B182FB882780F98927809356
:1030F000E90C2091FE0C3091FF0C2630310521F4B3
:1031000013988091E90CEECF139AECCF8EE390E008
:103110009093230E8093220E86E490E09093250EE8
:103120008093240E8BE290E09093270E8093260EDE
:1031300089E390E09093290E8093280E80E290E03E
:1031400090932B0E80932A0E81E390E090932D0EA6
:1031500080932C0E8EE190E090932F0E80932E0E94
:1031600087E79EEBAFE3BFE38093AB0C9093AC0C8F
:10317000A093AD0CB093AE0C8AEA91EFA2E3BFE34B
:103180008093AF0C9093B00CA093B10CB093B20CA1
:103190008FE892ECA5E5BFE38093B30C9093B40C59
:1031A000A093B50CB093B60C84E69BE3AFE3BFE30A
:1031B0008093B70C9093B80CA093B90CB093BA0C51
:1031C0008FE395E3AEE5BFE38093BB0C9093BC0C1B
:1031D000A093BD0CB093BE0C8CE497E3A9E4BFE3CD
:1031E0008093BF0C9093C00CA093C10CB093C20C01
:1031F0008FE29DEDA4E6BFE38093C30C9093C40CD3
:10320000A093C50CB093C60C89E090E00E946E318B
:103210008093330E8091330E882321F08091330EFA
:103220008F3F59F467E089E090E00E94763189E0B1
:1032300090E00E946E318093330E10925C0D1092DC
:103240005D0D1092600D10925F0D10925E0DC0E04A
:10325000D0E080910A0E90E0C817D9070CF4AEC0F8
:103260001092FF0C1092FE0CC0E0D0E0FE01EE0FB9
:10327000FF1FEE5BF14F118210820E947E20FE0143
:10328000EE0FFF1FEE0FFF1FE559F34F60837183B1
:10329000828393832196C530D10541F70E9421177F
:1032A0008093960C6091960C70E080E090E00E9414
:1032B000232D20E030E048EC52E40E947B2C20E6F5
:1032C0003EEF4DE45DE40E94DA2D0E94F42C609301
:1032D000EB0D7093EC0D8093ED0D9093EE0D0E942D
:1032E0003D1704E010E0C6E0EC2EF12CCC24C39492
:1032F000D12C83E0482E512C95E0A92EB12C22E050
:10330000622E712CC1E0B2E09B2ED3E00E943D17EB
:1033100040E080910A0E481708F465C08091E90DDD
:103320009091EA0D81349145A4F01093FF0C009325
:10333000FE0C9092240DC0935C0D90925D0D8091D7
:10334000E90D9091EA0D9093600D80935F0D1092BE
:103350005E0D9091330E80910A0E981799F010939C
:10336000FF0C0093FE0CD093240DC0935C0DD09302
:103370005D0D8091330E90E09093600D80935F0D12
:1033800010925E0D8091FE0C9091FF0C049709F451
:103390000AC18091FE0C9091FF0C8230910509F4D6
:1033A000FDC008F063C0009709F473C0019709F4E9
:1033B000E6C01093FF0C0093FE0C90C0FE01EF528C
:1033C000F34F80810E94FC039E01220F331FF901FD
:1033D000EC5CF14F71836083F901E050F34F91830E
:1033E0008083219636CF842F90E0880F991FFC01AF
:1033F000E451F34F2081318129353240B8F02081EA
:1034000031812C33334E91F01093FF0C0093FE0C5E
:103410001092240DC0935C0D10925D0D20813181BE
:103420003093600D20935F0D40935E0DFC01E05FD3
:10343000F14F80819181813A9F40B0F080819181EC
:103440000A9691F01093FF0C0093FE0CC093240D8C
:10345000C0935C0DC0935D0D808191819093600D50
:1034600080935F0D40935E0D4F5F53CF8530910584
:1034700009F47FC086309105B9F0039709F099CF20
:103480008091B60D882359F08091960C811126C049
:103490000FC068EC70E080E090E00E94E420F092C1
:1034A000FF0CE092FE0C1AC08091960C811105C0B1
:1034B000B092FF0CA092FE0C11C080910F0E8823D9
:1034C00029F0D092FF0CC092FE0C08C08091B60D7E
:1034D000882321F05092FF0C4092FE0C2091420E66
:1034E0003091430E8091FE0C9091FF0C2817390704
:1034F00009F40CCF84E090E09C0121503109F901DE
:10350000EE0FFF1FEE5BF14F40815181FC01EE0F8A
:10351000FF1FEE5BF14F51834083F901EE0FFF1F58
:10352000EE0FFF1FE559F34F408151816281738196
:10353000880F991F880F991FFC01E559F34F4083AD
:10354000518362837383C9010097B1F68091FE0CA9
:103550009091FF0C9093430E8093420E0E947E2028
:1035600060936B0C70936C0C80936D0C90936E0C4D
:10357000C9CE80910F0E882309F4B0CFA2CF8091DD
:103580000F0E882309F48BCF8091960C843608F4B3
:10359000A5CF7092FF0C6092FE0CA0CF80910F0E11
:1035A00081119CCF7CCF10925C0D26E030E060E072
:1035B00080910A0E681748F18091E90D9091EA0D0B
:1035C0008134914534F09092240DC0935C0D24E039
:1035D00030E09091330E80910A0E981789F0D093C5
:1035E000240DC0935C0DD0935D0D8091330E90E05F
:1035F0009093600D80935F0D10925E0D24E030E09B
:103600003093FF0C2093FE0C69CF862F90E0880F3B
:10361000991FFC01E451F34F4081518149355240DB
:1036200058F0408151814C33534E31F01092240DAB
:10363000C0935C0D24E030E0FC01E05FF14F80813D
:103640009181813A9F4050F0808191810A9631F0BA
:10365000C093240DC0935C0D24E030E06F5FA8CFD1
:1036600087B1836087B908950E94301B8091FE0C5A
:103670009091FF0C049781F4419A409A69E170E0BF
:1036800080E090E00E94E420409869E170E080E0F2
:1036900090E00E94E420EACF4198EFCFAF92BF9232
:1036A000CF92DF92EF92FF920F931F93CF93DF930E
:1036B000C9E0D1E0AB84BC84CD84DE84E984FA84A3
:1036C0000D811E812F8138854B815C816A818881C3
:1036D00099810E94EE1C811105C02F9691E0C0399E
:1036E000D90741F7DF91CF911F910F91FF90EF9094
:1036F000DF90CF90BF90AF9008952F923F924F925E
:103700005F926F927F928F929F92AF92BF92CF9271
:10371000DF92EF92FF920F931F93CF93DF930DB73A
:103720001EB7C82FD92F08831983C62FD72F08811A
:1037300019810DBF1EBFDF91CF911F910F91FF9097
:10374000EF90DF90CF90BF90AF909F908F907F9041
:103750006F905F904F903F902F900895C82FD92F72
:10376000088119810DBF1EBFDF91CF911F910F916D
:10377000FF90EF90DF90CF90BF90AF909F908F9091
:103780007F906F905F904F903F902F901895FFCF54
:103790008091480C9091490C01969093490C80932C
:1037A000480C08958091480C9091490C892B29F47C
:1037B00080915B0C90915C0C089580E090E00895FE
:1037C000CF93DF93FB01009759F1309749F1DC016A
:1037D000CD91DC91DE019E01109731F112965C9142
:1037E000129742814517B0F4CA17DB0739F5DC019F
:1037F000ED93FC9312861186D487C387FA87E987F5
:1038000080E00FC03287218714861386E901FC8788
:10381000EB87F6CF9D011B960D90BC91A02DDCCFC0
:1038200089ECDF91CF910895CD2B61F7DC01ED9309
:10383000FC931286118614861386E2CF3287218785
:10384000B487A387E901FC87EB871A96FC93EE9374
:103850001997D6CFCF93DF930097C1F0DC01ED919C
:10386000FC91309779F0A385B485EC01B983A883E6
:10387000109721F01A961C921E92199712861186A3
:1038800014861386CF01DF91CF910895E0E0F0E038
:10389000F9CFCF93DF93AC01FB010097A9F1DC01D5
:1038A0002D913C912115310579F1D901E901EA17F2
:1038B000FB0709F5A385B4852E173F0789F4EA01B4
:1038C000B983A883109721F01A961C921E9219971B
:1038D0001486138612861186CF01DF91CF91089549
:1038E000BC87AB87A385B485109791F31A96DC93B8
:1038F000CE931997EDCF1B968D919C911C97ED015E
:10390000009759F3DC01D3CF80E090E0E6CFCF936E
:10391000DF930097C9F0DC01ED91FC91309781F0C5
:103920002281621788F0A385B485EC01B983A8834E
:10393000109731F01A961C921E92199714861386CE
:10394000CF01DF91CF910895E0E0F0E0F9CFFF9251
:103950000F931F93CF93DF939091450C9923D1F050
:10396000FFB6F894C0915B0CD0915C0C9D859130B2
:10397000B9F486E49CE00E942A1CC817D90741F0DC
:1039800090935C0C80935B0CBC01CE010E947D1B6C
:103990001D86FFBEDF91CF911F910F91FF9008957B
:1039A0006A818130A9F486E49CE00E94871C8C0126
:1039B000892B79F3BE0186E49CE00E94E01BC017CE
:1039C000D10731F310935C0C00935B0CB801DDCF91
:1039D0006623F9F270E061507109E5CFAF92BF92B2
:1039E000CF92DF92EF92FF920F931F93CF93DF93CB
:1039F000EC01009709F43FC041155105E1F1E114D4
:103A0000F104C9F1AB28AC28AD28A9F11D866A8361
:103A10001A8619861C861B86188A1F865C834B8330
:103A20000D831E832F833887B7010E942A241FB776
:103A3000F894BE0186E49CE00E94E01BC82F1FBFE3
:103A4000882369F0CCEC8C2FDF91CF911F910F91DF
:103A5000FF90EF90DF90CF90BF90AF90089580914E
:103A6000450C813081F70E94D21B892B61F380E0E5
:103A70000E94A71CE8CFC9ECE6CFAF92BF92CF92CD
:103A8000DF92EF92FF920F931F9310925C0C1092B3
:103A90005B0C1092470C1092460C1092450C5A0188
:103AA0006B017C0100E010E0980147EC5BE16FEFF7
:103AB0008AE49CE00E94EE1C1F910F91FF90EF9012
:103AC000DF90CF90BF90AF9008952091480C309137
:103AD000490C215031093093490C2093480C0C9427
:103AE000A71C81E08093450C6FEF86E49CE00E9468
:103AF000871C009731F090935C0C80935B0C0C94C6
:103B0000AE1B08951F93CF93DF93EC01892BA1F097
:103B10001FB7F8946881798182E0FB018687108A5B
:103B200017868A819B810E94491C6881798186E47D
:103B30009CE00E94E01B1FBFDF91CF911F91089571
:103B4000009731F0FC0162831182108280E00895B9
:103B500089EC0895DF92EF92FF920F931F93CF931A
:103B6000DF937C01892BD1F100E08AECD82E1FB7BE
:103B7000F894C7010E942A1CEC01009761F1DE86CF
:103B8000BC0186E49CE00E94E01B8823A1F01FBFDB
:103B9000CCEC013039F40E94D21B892B19F080E063
:103BA0000E94A71C8C2FDF91CF911F910F91FF9046
:103BB000EF90DF9008958F859889009749F00E94D3
:103BC0005420882319F01FBFCDECE3CF188A1F863D
:103BD0001FBF01E0CCCF1FBFC0E0DBCFC9ECE2CFFD
:103BE0008F929F92AF92BF92DF92EF92FF920F93CC
:103BF0001F93CF93DF93CDB7DEB72E970FB6F89410
:103C0000DEBF0FBECDBF7C014A015B01009709F406
:103C100068C0DFB6F894FC01828181115CC077FD39
:103C200057C00E94D21B8C01009709F44EC0BC0102
:103C3000C7010E94E01B8823A1F0DFBE8CEC2E960A
:103C40000FB6F894DEBF0FBECDBFDF91CF911F91AD
:103C50000F91FF90EF90DF90BF90AF909F908F906B
:103C6000089591E0F801958781149104A104B104AD
:103C700041F11C870B87FE86ED8682E89DE19A83E1
:103C80008983CE010B969C838B838D829E82AF822B
:103C9000B8860A97908B87870E942F20882349F047
:103CA000B801C7010E94491CF8011586108A1786C1
:103CB0008DECDFBE8111C3CF0E94A71CF801868561
:103CC000BECFF801108A1786F4CFDFBE88ECB7CFDD
:103CD000DFBE83E0B4CF8150F7018283DFBE80E096
:103CE000AECF89ECACCF0F931F93CF93DF930097A8
:103CF000E9F1DFB7F894FC0120813181232B59F1E0
:103D00000E942A1C8C01BC0186E49CE00E94E01BFE
:103D1000C82F882341F0DFBFCCEC8C2FDF91CF91EF
:103D20001F910F910895F801168687859089009755
:103D300061F4F801108A1786DFBF0E94D21B892B1D
:103D400061F380E00E94A71CE8CF0E9454208823E2
:103D500081F3CDECF1CFFC0122812F3F29F02F5FC1
:103D60002283C0E0DFBFD9CFCBECFCCFC9ECD5CFED
:103D7000009721F0FC01628380E0089589EC0895AA
:103D80001F93CF93DF93EC01892BA1F01FB7F89419
:103D90006881798182E0FB018687108A17868A8193
:103DA0009B810E94491C6881798186E49CE00E9485
:103DB000E01B1FBFDF91CF911F910895FC01892B5C
:103DC00039F01382128214821182108280E00895E9
:103DD00089EC0895DF92EF92FF920F931F93CF9398
:103DE000DF937C01892BD1F100E08AECD82E1FB73C
:103DF000F894C7010E942A1CEC01009761F1DE864D
:103E0000BC0186E49CE00E94E01B8823A1F01FBF58
:103E1000CCEC013039F40E94D21B892B19F080E0E0
:103E20000E94A71C8C2FDF91CF911F910F91FF90C3
:103E3000EF90DF9008958F859889009749F00E9450
:103E40005420882319F01FBFCDECE3CF188A1F86BA
:103E50001FBF01E0CCCF1FBFC0E0DBCFC9ECE2CF7A
:103E60008F929F92AF92BF92DF92EF92FF920F9349
:103E70001F93CF93DF93CDB7DEB72E970FB6F8948D
:103E8000DEBF0FBECDBF7C014A015B01892B09F467
:103E90007DC00E94D21B8C01DFB6F8940097A1F47C
:103EA000DFBE88EC2E960FB6F894DEBF0FBECDBFF6
:103EB000DF91CF911F910F91FF90EF90DF90BF9016
:103EC000AF909F908F900895F70122813381211543
:103ED000310509F44CC08217930709F448C0B7FCB8
:103EE00043C0BC01C7010E94E01B882319F0DFBE5C
:103EF0008CECD8CF91E0F801958781149104A1044E
:103F0000B10471F11C870B87FE86ED8680EC9EE183
:103F10009A838983CE010B969C838B838D829E82AC
:103F2000AF82B8860A97908B87870E942F208823BC
:103F300049F0B801C7010E94491CF8011586108A92
:103F400017868DECDFBE8111ADCF0E94A71CF80152
:103F500086858111A7CFF70194819F5F9483A2CFBB
:103F6000F801108A1786EECFDFBE83E09BCFF70102
:103F700084818F3F41F08F5F8483232B11F413835F
:103F8000028380E001C08BECDFBE8CCF89EC8ACF4E
:103F9000EF92FF920F931F93CF93DF938C01892BA6
:103FA00009F44CC00E94D21BDFB7F894F8012281BB
:103FB00033818217930751F0DFBFCFEC8C2FDF9155
:103FC000CF911F910F91FF90EF900895F801C48158
:103FD000C150C483C1112FC013821282808191818C
:103FE000892B39F1C8010E942A1C7C01BC0186E49E
:103FF0009CE00E94E01BC82F882319F0DFBFCCECA7
:10400000DDCFF7011686F801F382E282F70187859A
:104010009089009741F4F701108A1786DFBF80E08E
:104020000E94A71CCBCF0E9454208823A1F3CDEC83
:10403000F5CFDFBFC3CFDFBFC0E0C0CFC9ECBECF7D
:10404000CF93009751F0CFB7F894FC016081718154
:1040500086E49CE00E94E01BCFBFCF910895FC0155
:10406000892B01F180819181892BE1F084819581F7
:10407000A681B781892B8A2B8B2BA1F02FB7F894BF
:104080008091610C9091620C009749F41186108622
:10409000F093620CE093610C2FBF80E0089591874C
:1040A0008087F6CF89EC0895BC01892B29F15FB791
:1040B000F8942091610C3091620CF901D90130978C
:1040C00011F48EEC0DC040859185E617F70781F459
:1040D000E217F30739F44093610C9093620C80E08F
:1040E0005FBF089518964C93189719969C93F7CF35
:1040F000DF01E42FF92FE3CF89EC089560915D0C87
:1041000070915E0C80915F0C9091600C08956093AB
:104110005D0C70935E0C80935F0C9093600C08951F
:104120000F931F93CF93DF938091450C8823D1F099
:1041300080915D0C90915E0CA0915F0CB091600C31
:104140000196A11DB11D80935D0C90935E0CA09310
:104150005F0CB093600C0091610C1091620CE8014F
:10416000209729F4DF91CF911F910F9108958C81B1
:104170009D81AE81BF810197A109B1098C839D8387
:10418000AE83BF83892B8A2B8B2BE1F42091610CAA
:104190003091620C88859985C217D30779F4909382
:1041A000620C8093610CE881F981309719F08A8163
:1041B0009B8109950884D985C02DD2CFF8019187BC
:1041C0008087F1CF8E01F6CFCF92DF92EF92FF92F0
:1041D0000F931F93CF93DF93CDB7DEB72C970FB616
:1041E000F894DEBF0FBECDBF6B017C010E94D21BD5
:1041F000FC01C114D104E104F10491F1892B91F186
:104200000FB7F89481E08587FC87EB8780E290E226
:104210009A838983CE010B969C838B83CD82DE8229
:10422000EF82F8860A97908B87870E942F20182F9D
:104230000FBF882389F01DEC812F2C960FB6F894C0
:10424000DEBF0FBECDBFDF91CF911F910F91FF90C9
:10425000EF90DF90CF90089580E00E94A71CECCFF4
:1042600019ECEACF18ECE8CF1F93CF93DF93EC0162
:10427000892BA1F01FB7F8946881798182E0FB0156
:104280008687108A17868C819D810E94491C6881CF
:10429000798186E49CE00E94E01B1FBFDF91CF91F3
:1042A0001F910895CF92DF92EF92FF920F931F9389
:1042B000CF93DF93EC01CB016C817D812A893B890F
:1042C000620F731F4E815F810E94472E2E813F81B6
:1042D00048855985CA88DB88EC88FD88C20ED31EC4
:1042E000E41EF51ECA8ADB8AEC8AFD8A8E899F89C4
:1042F000A88DB98D0197A109B1098E8B9F8BA88FCD
:10430000B98F6A857B858C859D850E94532BC61647
:10431000D706E806F90620F01A8A1B8A1C8A1D8A2D
:10432000CE010E942A1C8C01009709F1BC0186E491
:104330009CE00E94E01BC82F81111BC0F80116866B
:1043400087859089009769F4F801108A17868C2F69
:10435000DF91CF911F910F91FF90EF90DF90CF9061
:1043600008950E945420882379F3CDECF0CFC0E06B
:10437000EECFCCECECCFCF92DF92EF92FF920F9387
:104380001F93CF93DF93EC012C813D818E859F8518
:104390004E815F81820F931F0E94472E2E813F81A5
:1043A00048855985CE84DF84E888F988C20ED31EFB
:1043B000E41EF51ECE86DF86E88AF98A8E899F89FB
:1043C000A88DB98D0196A11DB11D8E8B9F8BA88FD5
:1043D000B98F6A857B858C859D850E94532BC61677
:1043E000D706E806F90620F01E861F86188A198A65
:1043F000CE0102960E942A1C8C01009709F1BC0193
:1044000086E49CE00E94E01BC82F81111BC0F801CC
:10441000168687859089009769F4F801108A1786B7
:104420008C2FDF91CF911F910F91FF90EF90DF9034
:10443000CF9008950E945420882379F3CDECF0CFDB
:10444000C0E0EECFCCECECCFEF92FF920F931F9336
:10445000FC01892B69F16115710551F121153105B7
:104460004105510529F1E114F1040105110501F19E
:10447000758364832683378340875187E286F3867A
:10448000048715871182108213821282168617867E
:10449000108A118A128A138A148A158A168A178A30
:1044A000108E118E80E01F910F91FF90EF90089574
:1044B00089ECF9CFBF92CF92DF92EF92FF920F93E8
:1044C0001F93CF93DF937C01009709F446C000E06F
:1044D0006C0182E0C80ED11C8AECB82E1FB7F8948C
:1044E000C6010E942A1CEC01892B31F4C7010E94ED
:1044F0002A1CEC01892B71F1BE86BE0186E49CE08A
:104500000E94E01B8823B1F01FBFCCEC013039F4CE
:104510000E94D21B892B19F080E00E94A71C8C2FCF
:10452000DF91CF911F910F91FF90EF90DF90CF908F
:10453000BF9008958F859889009749F00E94542074
:10454000882319F01FBFCDECE1CF188A1F861FBF4B
:1045500001E0C4CF1FBFC0E0D9CFC9ECE0CF4F927C
:104560005F926F927F928F929F92AF92BF92CF9203
:10457000DF92EF92FF920F931F93CF93DF93CDB70C
:10458000DEB760970FB6F894DEBF0FBECDBF6C01EB
:104590002A013B015901009709F494C02115310506
:1045A00009F490C00FB7F894FC0186899789A08D13
:1045B000B18D892B8A2B8B2B09F076C077FD71C0CA
:1045C0000E94D21B7C01009709F468C04601F2E00A
:1045D0008F0E911CBC01C4010E94E01B182F811199
:1045E0005AC081E0F70185874114510461047104C8
:1045F00009F44DC0FC86EB86DE86CD86988A8F86D0
:1046000084E391E29A838983CE010B969C838B830A
:104610004D825E826F8278860A97908B87870E9490
:104620002F20182F882349F0B701C4010E94491C8C
:10463000F7011586108A17861DEC0FBF11110FC0E8
:1046400080E00E94A71CF7011685111108C00FB762
:10465000F894B501C6010E945221182F0FBF812F77
:1046600060960FB6F894DEBF0FBECDBFDF91CF913D
:104670001F910F91FF90EF90DF90CF90BF90AF9080
:104680009F908F907F906F905F904F900895F7016B
:10469000108A1786D2CF0FBF1CECE1CF0FBF18ECEA
:1046A000DECF0FBF13E0DBCFB901C6010E9452215C
:1046B000182F0FBF0E94D21B892B89F280E00E9425
:1046C000A71CCDCF19ECCBCF4F925F926F927F9208
:1046D000AF92BF92CF92DF92EF92FF920F931F9310
:1046E000CF93DF93CDB7DEB760970FB6F894DEBFF8
:1046F0000FBECDBF6C012A013B015901009709F49F
:1047000093C02115310509F48FC00FB7F894FC014F
:1047100046895789608D718D82859385A485B5857D
:10472000481759076A077B0709F070C077FC6BC010
:104730000E94D21B7C01009709F462C0BC01C60133
:104740000E94E01B182F811158C081E0F701858776
:10475000411451046104710409F44BC0FC86EB86DA
:10476000DE86CD86D88ACF8684E391E29A838983D8
:10477000CE010B969C838B834D825E826F827886FE
:104780000A97908B87870E942F20182F882349F043
:10479000B701C6010E94491CF7011586108A1786C9
:1047A0001DEC0FBF11110FC080E00E94A71CF70184
:1047B0001685111108C00FB7F894B501C6010E9403
:1047C000BB21182F0FBF812F60960FB6F894DEBF64
:1047D0000FBECDBFDF91CF911F910F91FF90EF9052
:1047E000DF90CF90BF90AF907F906F905F904F9091
:1047F0000895F701108A1786D4CF0FBF1CECE3CFC2
:104800000FBF18ECE0CF0FBF13E0DDCFB901C60139
:104810000E94BB21182F0FBF0E94D21B892B99F237
:1048200080E00E94A71CCFCF19ECCDCF0E94D21BF5
:104830007894009771F0DC011396ED91FC91149738
:10484000309739F015966D917D918D919C911897C7
:104850000994089526E134E2FB01208331973083E7
:1048600031971082319710823197108231971082E0
:1048700031971082319710823197108231971082D0
:1048800031971082319710823197108231971082C0
:1048900031971082319710823197108231971082B0
:1048A000319710823197108264517109FC01718334
:1048B0006083089586E891E0909389008093880052
:1048C00082E080936F008CE08093810008951F92B6
:1048D0000F920FB60F9211240BB60F922F933F93A6
:1048E0004F935F936F937F938F939F93AF93BF93F8
:1048F000EF93FF930E94C81B0E94902081E00E94CA
:10490000651DFF91EF91BF91AF919F918F917F9125
:104910006F915F914F913F912F910F900BBE0F9030
:104920000FBE0F901F9018951F920F920FB60F9207
:1049300011240F900FBE0F901F9018958AE280935C
:10494000B8008FEF8093BB0084E08093BC00089593
:104950008091BC00817008958091BC0080FDFCCFE7
:104960008091000108952091BC0020FDFCCF609350
:10497000650CFC0120812093660C20FF09C0109279
:10498000630C88EF8093000185EA8093BC00089552
:10499000FC013196A7E6BCE081E0861780F7919193
:1049A0009D938F5FFACF8091BC0080FDFCCF109269
:1049B000630C88EF8093000185EA8093BC00089522
:1049C0002091BC0020FDFCCF2091630C20FD04C091
:1049D0008091630C81700895A6E6BCE0282FFC014D
:1049E0008E2F821B8617A0F78D918193F9CF1F928E
:1049F0000F920FB60F9211240BB60F922F933F9385
:104A00008F939F93EF93FF938091B900883249F081
:104A1000D0F4803121F0883121F08830D1F4109227
:104A2000640CE091640C8091650CE81720F581E03E
:104A30008E0F8093640CF0E0EA59F34F80818093ED
:104A4000BB0085E836C0803449F148F4883309F466
:104A50003FC08091B9008093000184E02AC0803576
:104A600089F08835B1F78091BB00E091640CF0E0EB
:104A7000EA59F34F80838091630C81608093630CCB
:104A800084E917C0E091640C81E08E0F8093640C80
:104A90008091BB00F0E0EA59F34F80832091640CD1
:104AA00030E08091650C90E00197281739074CF6AB
:104AB00085EC8093BC00FF91EF919F918F913F9186
:104AC0002F910F900BBE0F900FBE0F901F90189557
:104AD00085EAEFCF0E94222B882341F00E94D92A39
:104AE0008091D80082608093D80081E008950F9370
:104AF0001F93CF93DF9300D000D0CDB7DEB78C01EA
:104B0000DC0111968D919C9112970C97F1F41A96F5
:104B10008C911A97803669F48C918295807F80936E
:104B2000ED008091EF008F738093EF001092EE0004
:104B30001C92F801128680E00F900F900F900F905A
:104B4000DF91CF911F910F9108950E94E62A8F3F28
:104B500009F4A4C490E6D8011A969C931A978C93F2
:104B60008295807F8093ED00EEEEF0E01192E83FB9
:104B7000F105E1F7D8011196ED91FC91129731976B
:104B8000EB30F10508F086C4E853FA4D0C94E62B9F
:104B900011267A26E8264B277D27B527F027862879
:104BA0000429D325A72980E0F8019781891708F403
:104BB000C2C319821A821B821C821092F7008B8159
:104BC000880F880F880F9A81929596959770890F14
:104BD0008093F6008A81880F880F880F99819295BB
:104BE00096959770890F8093F5008981880F880FBB
:104BF000880F8093F4008091EF009781892B809338
:104C0000EF0081E083878091F40084608093F4005A
:104C10008091F00084608093F0008091EF008062CA
:104C2000DCC1F8018485882309F43FC08681880FA0
:104C3000880F880F9581929596959770890F80932C
:104C4000F3008581880F880F880F9481929596953F
:104C50009770890F8093F2008481880F880F880FE6
:104C60009381929596959770890F8093F100838137
:104C7000880F880F880F8093F0008091EF0080618B
:104C80008093EF0080E0F8019781891718F1838500
:104C9000882361F18091F00084608093F00080911E
:104CA000EF00D80117969C9164C084818295880F8B
:104CB000807E9381969596959695890F8093F300C3
:104CC00083818295880F807E8093F2008091EF002F
:104CD0008F7ED6CFD8011896ED91FC911997E80FE9
:104CE000F11D90819093FA008F5FCDCF8091F000FD
:104CF0008B7FD3CFF8018485882309F448C086814F
:104D0000880F880F880F9581929596959770890FD7
:104D10008093F3008581880F880F880F9481929586
:104D200096959770890F8093F2008481880F880F81
:104D3000880F9381929596959770890F8093F100D3
:104D40008381880F880F880F8093F0008091EF0097
:104D500080618093EF0080E0F8019781891760F10E
:104D600013868091F0008B7F8093F0008091EF009C
:104D70009781892B8093EF008091EF008F73809350
:104D8000EF008091EF0080648093EF00D4CE8481A7
:104D90008295880F807E9381969596959695890F3A
:104DA0008093F30083818295880F807E8093F20048
:104DB0008091EF008F7ECDCFD8011896ED91FC91B8
:104DC0001997E80FF11D90819093FA008F5FC4CF7F
:104DD000D8011C968C911C97882309F446C016961E
:104DE0008C911697880F880F880F15969C911597B0
:104DF000929596959770890F8093F30015968C91F4
:104E00001597880F880F880F14969C911497929588
:104E100096959770890F8093F20014968C91149751
:104E2000880F880F880F13969C91139792959695EB
:104E30009770890F8093F10013968C91880F880FDB
:104E4000880F8093F0008091EF0080618093EF00E5
:104E500081E0D8011B968C931B978091F0008460B1
:104E60008093F0008091EF001DCFF801848182953E
:104E7000880F807E9381969596959695890F80935D
:104E8000F30083818295880F807E8093F200809169
:104E9000EF008F7EDBCF19821A821B821C82109258
:104EA000F7008B81880F880F880F9A8192959695CD
:104EB0009770890F8093F6008A81880F880F880F7A
:104EC0009981929596959770890F8093F5008981C5
:104ED000880F880F880F8093F4008091EF00F8010D
:104EE0009781892B8093EF008091F4008B7F8093D2
:104EF000F4008091F4008E7FE8C019821A821B8230
:104F00001C821092F7008B81880F880F880F9A817E
:104F1000929596959770890F8093F6008A81880FF5
:104F2000880F880F9981929596959770890F809335
:104F3000F5008981880F880F880F8093F400809195
:104F4000EF00D80117969C911797892B8093EF005B
:104F50001B961C928091F40084608093F4008091F1
:104F6000F0008B7F8093F000C4CF19821A821B82DD
:104F70001C821092F7008B81880F880F880F9A810E
:104F8000929596959770890F8093F6008A81880F85
:104F9000880F880F9981929596959770890F8093C5
:104FA000F5008981880F880F880F8093F400809125
:104FB000EF00F8019781892B8093EF0081E08387D0
:104FC0008091F40084608093F4008091F00084600C
:104FD0008093F0008091EF008F7D8093EF0089CF68
:104FE000D8011C968C911C97882309F479C01696D9
:104FF0008C911697880F880F880F15969C9115979E
:10500000929596959770890F8093F30015968C91E1
:105010001597880F880F880F14969C911497929576
:1050200096959770890F8093F20014968C9114973F
:10503000880F880F880F13969C91139792959695D9
:105040009770890F8093F10013968C91880F880FC9
:10505000880F8093F0008091EF0080618093EF00D3
:105060008FEF9FEFDC0189839A83AB83BC838093AE
:10507000F7008B81880F880F880F9A8192959695FB
:105080009770890F8093F6008A81880F880F880FA8
:105090009981929596959770890F8093F5008981F3
:1050A000880F880F880F8093F4008091EF00D8015B
:1050B00017969C91892B8093EF008091F4008B7F51
:1050C0008093F4008091F40081608093F4008091DB
:1050D000EF008F738093EF008091EF00806854CED3
:1050E000F80184818295880F807E938196959695AC
:1050F0009695890F8093F30083818295880F807E37
:105100008093F2008091EF008F7EA8CFF801848514
:10511000882309F464C08681880F880F880F9581E1
:10512000929596959770890F8093F3008581880FEB
:10513000880F880F9481929596959770890F809328
:10514000F2008481880F880F880F9381929596953D
:105150009770890F8093F1008381880F880F880FE3
:105160008093F0008091EF0080618093EF008FEFDB
:105170009FEFDC0189839A83AB83BC838093F70024
:105180008B81880F880F880F9A81929596959770DA
:10519000890F8093F6008A81880F880F880F998184
:1051A000929596959770890F8093F5008981880F65
:1051B000880F880F8093F4008091EF00F8019781A9
:1051C000892B8093EF0013868091F4008460809394
:1051D000F4008091F0008B7F8093F00073CF848186
:1051E0008295880F807E9381969596959695890FE6
:1051F0008093F30083818295880F807E8093F200F4
:105200008091EF008F7EB1CFD8011C968C911C97B6
:10521000882309F47AC016968C911697880F880F08
:10522000880F15969C911597929596959770890F72
:105230008093F30015968C911597880F880F880F2F
:1052400014969C911497929596959770890F8093D8
:10525000F20014968C911497880F880F880F13967C
:105260009C911397929596959770890F8093F10072
:1052700013968C91880F880F880F8093F00080918F
:10528000EF0080618093EF008FEF9FEFDC01898357
:105290009A83AB83BC838093F7008B81880F880F40
:1052A000880F9A81929596959770890F8093F60052
:1052B0008A81880F880F880F9981929596959770AB
:1052C000890F8093F5008981880F880F880F80935C
:1052D000F4008091EF00D80117969C911797892BC5
:1052E0008093EF0081E01B968C938091F4008460A2
:1052F0008093F4008091F00084608093F0008091AE
:10530000EF008F7D8093EF00DDCEF80184818295E0
:10531000880F807E9381969596959695890F8093B8
:10532000F30083818295880F807E8093F2008091C4
:10533000EF008F7EA7CFD8011896ED91FC911997B9
:10534000E80FF11D90819093FA008F5F2DCCD8016A
:105350001C968C911C97882309F47AC016968C9120
:105360001697880F880F880F15969C911597929520
:1053700096959770890F8093F30015968C911597E9
:10538000880F880F880F14969C9114979295969584
:105390009770890F8093F20014968C911497880F60
:1053A000880F880F13969C911397929596959770F6
:1053B000890F8093F10013968C91880F880F880FC6
:1053C0008093F0008091EF0080618093EF0080E097
:1053D000F8019781891708F451C08FEF9FEFDC0126
:1053E00089839A83AB83BC838093F7008B81880F7A
:1053F000880F880F9A81929596959770890F809360
:10540000F6008A81880F880F880F9981929596956A
:105410009770890F8093F5008981880F880F880F16
:105420008093F4008091EF009781892B8093EF00A7
:1054300081E083878091F40084608093F400809100
:10544000F00084608093F0008091EF0080625ACF7A
:10545000F80184818295880F807E93819695969538
:105460009695890F8093F30083818295880F807EC3
:105470008093F2008091EF008F7EA7CFD80118961D
:10548000ED91FC911997E80FF11D90819093FA002E
:105490008F5F9ECFD8011A961C924DCB9FE1F801E9
:1054A00092874ACB1F93CF93DF93EC018A858823A1
:1054B000D1F08F31C1F08F3FB1F088818295807F2C
:1054C0008093ED000E94FB2A182F803299F068F437
:1054D000882309F46CC01A878091EF008F73809342
:1054E000EF001092EE0082E04CC0803409F440C01E
:1054F000803A89F78091EF008F708F838885998536
:105500000E940E2B8091F00082FB882780F98B8708
:105510008091EF0084FF39C081E08C878091F30097
:105520008695869586958E838091F2009091F30002
:105530008695869586959295990F907E890F8D8395
:105540008091F1009091F2008695869586959295CE
:10555000990F907E890F8C838091F0009091F100DB
:105560008695869586959295990F907E890F8B8367
:105570001A878091EF008F738093EF001092EE00F6
:1055800080E0DF91CF911F9108951C868091F300F8
:105590008295869587708C838091F2009091F300BC
:1055A000829586958770990F990F990FDFCF81E0CB
:1055B000E8CF80E08093ED00EEEEF0E01192E83F5E
:1055C000F105E1F7805F8036A9F708953091ED008D
:1055D00090E080E09093ED002091EF00207C19F4A2
:1055E0003093ED0008958F5F905F863099F7309388
:1055F000ED008FEF08958091EF00807C69F090912D
:10560000EE00892F807E803241F0803431F0803A84
:1056100021F0892F8F7108958FEF0895BC0190E0DC
:105620002091EF00492F50E02F7030E042175307D0
:105630000CF008958091FA00460F571FFA018083FD
:105640009F5FEECF81E08093D80088E08093E200F6
:105650008CE08093E30087E38093E40081E0089589
:10566000681708F4682F862F089583EA93E09EBF99
:105670008DBF40E051E060E070E083EA94E00E947A
:105680003D1D811108C00E945A240E944E1B8111A9
:1056900002C00E94711D8FEF81B992B181E091111A
:1056A00080E082B9FACFDB018F939F930E94EF2BAA
:1056B000BF91AF91A29F800D911DA39F900DB29FAE
:1056C000900D11240895991B79E004C0991F961735
:1056D00008F0961B881F7A95C9F78095089587FB77
:1056E000082E062687FD819567FD61950E94632B34
:1056F0000EF4919507FC81950895AA1BBB1B51E1FF
:1057000007C0AA1FBB1FA617B70710F0A61BB70B31
:10571000881F991F5A95A9F780959095BC01CD01D6
:10572000089597FB072E16F4009407D077FD09D053
:105730000E947D2B07FC05D03EF4909581959F4FEC
:105740000895709561957F4F0895A1E21A2EAA1BC6
:10575000BB1BFD010DC0AA1FBB1FEE1FFF1FA21721
:10576000B307E407F50720F0A21BB30BE40BF50B1E
:10577000661F771F881F991F1A9469F760957095A7
:10578000809590959B01AC01BD01CF010895052E38
:1057900097FB1EF400940E94DE2B57FD07D00E9459
:1057A000A52B07FC03D04EF40C94DE2B50954095AE
:1057B000309521953F4F4F4F5F4F089590958095BD
:1057C000709561957F4F8F4F9F4F0895EE0FFF1F8C
:1057D0000024001C0BBE0790F691E02D09940E9456
:1057E000FA2BA59F900DB49F900DA49F800D911D45
:1057F00011240895A29FB001B39FC001A39F700D13
:10580000811D1124911DB29F700D811D1124911DC8
:1058100008955058BB27AA270E94212C0C949B2D39
:105820000E948D2D38F00E94942D20F039F49F3F76
:1058300019F426F40C948A2D0EF4E095E7FB0C94F1
:10584000842DE92F0E94AC2D58F3BA176207730715
:105850008407950720F079F4A6F50C94CE2D0EF46C
:10586000E0950B2EBA2FA02D0B01B90190010C0170
:10587000CA01A0011124FF27591B99F0593F50F488
:10588000503E68F11A16F040A22F232F342F4427E0
:10589000585FF3CF469537952795A795F0405395D8
:1058A000C9F77EF41F16BA0B620B730B840BBAF0A8
:1058B0009150A1F0FF0FBB1F661F771F881FC2F713
:1058C0000EC0BA0F621F731F841F48F48795779527
:1058D0006795B795F7959E3F08F0B0CF9395880FE1
:1058E00008F09927EE0F9795879508950E94602DEF
:1058F00008F481E008950E948F2C0C949B2D0E9447
:10590000942D58F00E948D2D40F029F45F3F29F02E
:105910000C94842D51110C94CF2D0C948A2D0E943F
:10592000AC2D68F39923B1F3552391F3951B550BD7
:10593000BB27AA2762177307840738F09F5F5F4F62
:10594000220F331F441FAA1FA9F335D00E2E3AF0A1
:10595000E0E832D091505040E695001CCAF72BD0B9
:10596000FE2F29D0660F771F881FBB1F261737070A
:105970004807AB07B0E809F0BB0B802DBF01FF273C
:1059800093585F4F3AF09E3F510578F00C94842D68
:105990000C94CF2D5F3FE4F3983ED4F38695779532
:1059A0006795B795F7959F5FC9F7880F911D9695F5
:1059B000879597F90895E1E0660F771F881FBB1F51
:1059C000621773078407BA0720F0621B730B840BFE
:1059D000BA0BEE1F88F7E09508950E94F42C6894A6
:1059E000B1110C94CF2D08950E94B42D88F09F57CB
:1059F00098F0B92F9927B751B0F0E1F0660F771FF3
:105A0000881F991F1AF0BA95C9F714C0B13091F0E8
:105A10000E94CE2DB1E008950C94CE2D672F782FE3
:105A20008827B85F39F0B93FCCF3869577956795AD
:105A3000B395D9F73EF490958095709561957F4F19
:105A40008F4F9F4F0895E89409C097FB3EF49095BF
:105A50008095709561957F4F8F4F9F4F9923A9F047
:105A6000F92F96E9BB279395F695879577956795D6
:105A7000B795F111F8CFFAF4BB0F11F460FF1BC01A
:105A80006F5F7F4F8F4F9F4F16C0882311F096E9AD
:105A900011C0772321F09EE8872F762F05C066235B
:105AA00071F096E8862F70E060E02AF09A95660F14
:105AB000771F881FDAF7880F9695879597F90895CD
:105AC000990F0008550FAA0BE0E8FEEF161617060F
:105AD000E807F907C0F012161306E407F50798F077
